{
  "contracts/BalanceProxy.sol": {
    "BalanceProxy": {
      "abi": [
        {
          "inputs": [
            {
              "internalType": "address",
              "name": "token",
              "type": "address"
            },
            {
              "internalType": "address",
              "name": "target",
              "type": "address"
            },
            {
              "internalType": "int256",
              "name": "balance",
              "type": "int256"
            },
            {
              "internalType": "uint256",
              "name": "actual",
              "type": "uint256"
            }
          ],
          "name": "ERC8009BalanceConstraintViolation",
          "type": "error"
        },
        {
          "inputs": [
            {
              "internalType": "address",
              "name": "token",
              "type": "address"
            },
            {
              "internalType": "address",
              "name": "target",
              "type": "address"
            },
            {
              "internalType": "int256",
              "name": "expected",
              "type": "int256"
            },
            {
              "internalType": "int256",
              "name": "actual",
              "type": "int256"
            }
          ],
          "name": "ERC8009BalanceDiffConstraintViolation",
          "type": "error"
        },
        {
          "inputs": [
            {
              "internalType": "address",
              "name": "target",
              "type": "address"
            },
            {
              "internalType": "bytes",
              "name": "data",
              "type": "bytes"
            },
            {
              "internalType": "bytes",
              "name": "returnData",
              "type": "bytes"
            }
          ],
          "name": "ERC8009CallFailed",
          "type": "error"
        },
        {
          "inputs": [],
          "name": "ReentrancyGuardReentrantCall",
          "type": "error"
        },
        {
          "inputs": [
            {
              "internalType": "uint256",
              "name": "value",
              "type": "uint256"
            }
          ],
          "name": "SafeCastOverflowedUintToInt",
          "type": "error"
        },
        {
          "inputs": [
            {
              "components": [
                {
                  "internalType": "address",
                  "name": "target",
                  "type": "address"
                },
                {
                  "internalType": "address",
                  "name": "token",
                  "type": "address"
                },
                {
                  "internalType": "int256",
                  "name": "balance",
                  "type": "int256"
                }
              ],
              "internalType": "struct IBalanceProxy.Balance[]",
              "name": "postBalances",
              "type": "tuple[]"
            },
            {
              "components": [
                {
                  "components": [
                    {
                      "internalType": "address",
                      "name": "target",
                      "type": "address"
                    },
                    {
                      "internalType": "address",
                      "name": "token",
                      "type": "address"
                    },
                    {
                      "internalType": "int256",
                      "name": "balance",
                      "type": "int256"
                    }
                  ],
                  "internalType": "struct IBalanceProxy.Balance",
                  "name": "balance",
                  "type": "tuple"
                },
                {
                  "internalType": "bool",
                  "name": "useTransfer",
                  "type": "bool"
                }
              ],
              "internalType": "struct IBalanceProxy.Approval[]",
              "name": "approvals",
              "type": "tuple[]"
            },
            {
              "internalType": "address",
              "name": "target",
              "type": "address"
            },
            {
              "internalType": "bytes",
              "name": "data",
              "type": "bytes"
            },
            {
              "components": [
                {
                  "internalType": "address",
                  "name": "target",
                  "type": "address"
                },
                {
                  "internalType": "address",
                  "name": "token",
                  "type": "address"
                },
                {
                  "internalType": "int256",
                  "name": "balance",
                  "type": "int256"
                }
              ],
              "internalType": "struct IBalanceProxy.Balance[]",
              "name": "withdrawals",
              "type": "tuple[]"
            }
          ],
          "name": "proxyCall",
          "outputs": [
            {
              "internalType": "bytes",
              "name": "",
              "type": "bytes"
            }
          ],
          "stateMutability": "payable",
          "type": "function"
        },
        {
          "inputs": [
            {
              "components": [
                {
                  "internalType": "address",
                  "name": "target",
                  "type": "address"
                },
                {
                  "internalType": "address",
                  "name": "token",
                  "type": "address"
                },
                {
                  "internalType": "int256",
                  "name": "balance",
                  "type": "int256"
                }
              ],
              "internalType": "struct IBalanceProxy.Balance[]",
              "name": "diffs",
              "type": "tuple[]"
            },
            {
              "components": [
                {
                  "components": [
                    {
                      "internalType": "address",
                      "name": "target",
                      "type": "address"
                    },
                    {
                      "internalType": "address",
                      "name": "token",
                      "type": "address"
                    },
                    {
                      "internalType": "int256",
                      "name": "balance",
                      "type": "int256"
                    }
                  ],
                  "internalType": "struct IBalanceProxy.Balance",
                  "name": "balance",
                  "type": "tuple"
                },
                {
                  "internalType": "bool",
                  "name": "useTransfer",
                  "type": "bool"
                }
              ],
              "internalType": "struct IBalanceProxy.Approval[]",
              "name": "approvals",
              "type": "tuple[]"
            },
            {
              "internalType": "address",
              "name": "target",
              "type": "address"
            },
            {
              "internalType": "bytes",
              "name": "data",
              "type": "bytes"
            },
            {
              "components": [
                {
                  "internalType": "address",
                  "name": "target",
                  "type": "address"
                },
                {
                  "internalType": "address",
                  "name": "token",
                  "type": "address"
                },
                {
                  "internalType": "int256",
                  "name": "balance",
                  "type": "int256"
                }
              ],
              "internalType": "struct IBalanceProxy.Balance[]",
              "name": "withdrawals",
              "type": "tuple[]"
            }
          ],
          "name": "proxyCallDiffs",
          "outputs": [
            {
              "internalType": "bytes",
              "name": "",
              "type": "bytes"
            }
          ],
          "stateMutability": "payable",
          "type": "function"
        },
        {
          "stateMutability": "payable",
          "type": "receive"
        }
      ],
      "devdoc": {
        "details": "This contract is used to proxy calls to a target contract with specified balances and approvals",
        "errors": {
          "ReentrancyGuardReentrantCall()": [
            {
              "details": "Unauthorized reentrant call."
            }
          ],
          "SafeCastOverflowedUintToInt(uint256)": [
            {
              "details": "An uint value doesn't fit in an int of `bits` size."
            }
          ]
        },
        "kind": "dev",
        "methods": {},
        "title": "BalanceProxy",
        "version": 1
      },
      "evm": {
        "bytecode": {
          "linkReferences": {},
          "object": "60808060405234601a576001600055610aee90816100208239f35b600080fdfe6080604052600436101561001b575b361561001957600080fd5b005b60003560e01c8063890e3add146102495763ce9506f90361000e5761003f366105c3565b9192939061004b61080d565b60005b8551811015610073578061006d6100676001938961077d565b516108cd565b0161004e565b5060609084906001600160a01b0382161580159061023f575b8015610236575b6101f7575b505060005b83518110156100c257806100bc6100b66001938761077d565b516109a1565b0161009d565b509060005b81518110156101d8576100da818361077d565b516020810180516000906001600160a01b03168061015957505081516001600160a01b031631905b6040830151908160ff1d80830118831061012257505050506001016100c7565b519251604051631fbc432b60e31b81526001600160a01b039485166004820152931660248401526044830152606482015260849150fd5b602060018060a01b038551166024604051809481936370a0823160e01b835260048301525afa9182156101cc578092610195575b505090610102565b9091506020823d82116101c4575b816101b060209383610485565b810103126101c1575051868061018d565b80fd5b3d91506101a3565b604051903d90823e3d90fd5b6001600055604051602080825281906101f39082018661073c565b0390f35b90915060008082516020840134865af1916102106107a7565b926100985761023283604051938493637a26993360e01b8552600485016107d7565b0390fd5b50341515610093565b508051151561008c565b610252366105c3565b91929361025d61080d565b600091815161026b816104bd565b936102796040519586610485565b818552601f19610288836104bd565b013660208701375b818110610446575060005b87518110156102ba57806102b46100676001938b61077d565b0161029b565b5060609186906001600160a01b0382161580159061043c575b8015610433575b6103f8575b505060005b855181101561030357806102fd6100b66001938961077d565b016102e4565b508360005b82811061032a576001600055604051602080825281906101f39082018761073c565b6103746103636001600160a01b036020610344858a61077d565b510151166001600160a01b0361035a858a61077d565b5151169061082f565b61036d838561077d565b5190610a5a565b6040610380838861077d565b51015181126103925750600101610308565b608492508560406103d06001600160a01b0360206103b0878661077d565b51015116946001600160a01b036103c7828661077d565b5151169361077d565b51015190604051936305c333e160e41b85526004850152602484015260448301526064820152fd5b90925060008082516020840134875af1926104116107a7565b936102df5761023284604051938493637a26993360e01b8552600485016107d7565b503415156102da565b50805115156102d3565b6001906104746001600160a01b036020610460848961077d565b51015116838060a01b0361035a848961077d565b61047e828861077d565b5201610290565b90601f8019910116810190811067ffffffffffffffff8211176104a757604052565b634e487b7160e01b600052604160045260246000fd5b67ffffffffffffffff81116104a75760051b60200190565b35906001600160a01b03821682036104e957565b600080fd5b91908260609103126104e9576040516060810181811067ffffffffffffffff8211176104a7576040526040808294610525816104d5565b8452610533602082016104d5565b60208501520135910152565b81601f820112156104e9578035610555816104bd565b926105636040519485610485565b818452602060608186019302840101928184116104e957602001915b83831061058d575050505090565b602060609161059c84866104ee565b81520192019161057f565b67ffffffffffffffff81116104a757601f01601f191660200190565b60a06003198201126104e95760043567ffffffffffffffff81116104e957816105ee9160040161053f565b9160243567ffffffffffffffff81116104e957826023820112156104e95780600401359061061b826104bd565b916106296040519384610485565b8083526024602084019160071b830101918583116104e957602401905b8282106106e4575091939150506044356001600160a01b03811681036104e9579160643567ffffffffffffffff81116104e957826023820112156104e9578060040135610692816105a7565b916106a06040519384610485565b81835284602483830101116104e957816000926024602093018386013783010152916084359067ffffffffffffffff82116104e9576106e19160040161053f565b90565b6080828703126104e957604051906040820182811067ffffffffffffffff8211176104a75760405261071687846104ee565b825260608301359081151582036104e95782602092836080950152815201910190610646565b919082519283825260005b848110610768575050826000602080949584010152601f8019910116010190565b80602080928401015182828601015201610747565b80518210156107915760209160051b010190565b634e487b7160e01b600052603260045260246000fd5b3d156107d2573d906107b8826105a7565b916107c66040519384610485565b82523d6000602084013e565b606090565b6001600160a01b0390911681526060602082018190526106e19391926107ff9184019061073c565b91604081840391015261073c565b60026000541461081e576002600055565b633ee5aeb560e01b60005260046000fd5b6000906001600160a01b0316806108465750503190565b6040516370a0823160e01b81526001600160a01b039093166004840152909190602090829060249082905afa9182156101cc57809261088457505090565b9091506020823d6020116108ad575b816108a060209383610485565b810103126101c157505190565b3d9150610893565b908160209103126104e9575180151581036104e95790565b805160408101516020909201511561096257602081810151915160405163a9059cbb60e01b81526001600160a01b0391821660048201526024810194909452909183911681600081604481015b03925af180156109565761092b5750565b61094c9060203d60201161094f575b6109448183610485565b8101906108b5565b50565b503d61093a565b6040513d6000823e3d90fd5b602081810151915160405163095ea7b360e01b81526001600160a01b03918216600482015260248101949094529091839116816000816044810161091a565b60208101516001600160a01b0316806109f15750600080808093604060018060a01b03825116910151908160ff1d8092019183928181146109e7575b1891f11561095657565b6108fc93506109dd565b8151604092830151925163a9059cbb60e01b81526001600160a01b03909116600482015260ff83901d92830190921860248301526020908290816000816044810161091a565b91908203918211610a4457565b634e487b7160e01b600052601160045260246000fd5b9080821015610a8657610a7591610a7091610a37565b610a93565b600160ff1b8114610a445760000390565b610a70906106e192610a37565b6001600160ff1b038111610aa45790565b63123baf0360e11b60005260045260246000fdfea2646970667358221220288a52395db7513199d04f46aa42a15e72592b928e66a8aaa547aff6503312a064736f6c634300081b0033",
          "opcodes": "PUSH1 0x80 DUP1 PUSH1 0x40 MSTORE CALLVALUE PUSH1 0x1A JUMPI PUSH1 0x1 PUSH1 0x0 SSTORE PUSH2 0xAEE SWAP1 DUP2 PUSH2 0x20 DUP3 CODECOPY RETURN JUMPDEST PUSH1 0x0 DUP1 REVERT INVALID PUSH1 0x80 PUSH1 0x40 MSTORE PUSH1 0x4 CALLDATASIZE LT ISZERO PUSH2 0x1B JUMPI JUMPDEST CALLDATASIZE ISZERO PUSH2 0x19 JUMPI PUSH1 0x0 DUP1 REVERT JUMPDEST STOP JUMPDEST PUSH1 0x0 CALLDATALOAD PUSH1 0xE0 SHR DUP1 PUSH4 0x890E3ADD EQ PUSH2 0x249 JUMPI PUSH4 0xCE9506F9 SUB PUSH2 0xE JUMPI PUSH2 0x3F CALLDATASIZE PUSH2 0x5C3 JUMP JUMPDEST SWAP2 SWAP3 SWAP4 SWAP1 PUSH2 0x4B PUSH2 0x80D JUMP JUMPDEST PUSH1 0x0 JUMPDEST DUP6 MLOAD DUP2 LT ISZERO PUSH2 0x73 JUMPI DUP1 PUSH2 0x6D PUSH2 0x67 PUSH1 0x1 SWAP4 DUP10 PUSH2 0x77D JUMP JUMPDEST MLOAD PUSH2 0x8CD JUMP JUMPDEST ADD PUSH2 0x4E JUMP JUMPDEST POP PUSH1 0x60 SWAP1 DUP5 SWAP1 PUSH1 0x1 PUSH1 0x1 PUSH1 0xA0 SHL SUB DUP3 AND ISZERO DUP1 ISZERO SWAP1 PUSH2 0x23F JUMPI JUMPDEST DUP1 ISZERO PUSH2 0x236 JUMPI JUMPDEST PUSH2 0x1F7 JUMPI JUMPDEST POP POP PUSH1 0x0 JUMPDEST DUP4 MLOAD DUP2 LT ISZERO PUSH2 0xC2 JUMPI DUP1 PUSH2 0xBC PUSH2 0xB6 PUSH1 0x1 SWAP4 DUP8 PUSH2 0x77D JUMP JUMPDEST MLOAD PUSH2 0x9A1 JUMP JUMPDEST ADD PUSH2 0x9D JUMP JUMPDEST POP SWAP1 PUSH1 0x0 JUMPDEST DUP2 MLOAD DUP2 LT ISZERO PUSH2 0x1D8 JUMPI PUSH2 0xDA DUP2 DUP4 PUSH2 0x77D JUMP JUMPDEST MLOAD PUSH1 0x20 DUP2 ADD DUP1 MLOAD PUSH1 0x0 SWAP1 PUSH1 0x1 PUSH1 0x1 PUSH1 0xA0 SHL SUB AND DUP1 PUSH2 0x159 JUMPI POP POP DUP2 MLOAD PUSH1 0x1 PUSH1 0x1 PUSH1 0xA0 SHL SUB AND BALANCE SWAP1 JUMPDEST PUSH1 0x40 DUP4 ADD MLOAD SWAP1 DUP2 PUSH1 0xFF SAR DUP1 DUP4 ADD XOR DUP4 LT PUSH2 0x122 JUMPI POP POP POP POP PUSH1 0x1 ADD PUSH2 0xC7 JUMP JUMPDEST MLOAD SWAP3 MLOAD PUSH1 0x40 MLOAD PUSH4 0x1FBC432B PUSH1 0xE3 SHL DUP2 MSTORE PUSH1 0x1 PUSH1 0x1 PUSH1 0xA0 SHL SUB SWAP5 DUP6 AND PUSH1 0x4 DUP3 ADD MSTORE SWAP4 AND PUSH1 0x24 DUP5 ADD MSTORE PUSH1 0x44 DUP4 ADD MSTORE PUSH1 0x64 DUP3 ADD MSTORE PUSH1 0x84 SWAP2 POP REVERT JUMPDEST PUSH1 0x20 PUSH1 0x1 DUP1 PUSH1 0xA0 SHL SUB DUP6 MLOAD AND PUSH1 0x24 PUSH1 0x40 MLOAD DUP1 SWAP5 DUP2 SWAP4 PUSH4 0x70A08231 PUSH1 0xE0 SHL DUP4 MSTORE PUSH1 0x4 DUP4 ADD MSTORE GAS STATICCALL SWAP2 DUP3 ISZERO PUSH2 0x1CC JUMPI DUP1 SWAP3 PUSH2 0x195 JUMPI JUMPDEST POP POP SWAP1 PUSH2 0x102 JUMP JUMPDEST SWAP1 SWAP2 POP PUSH1 0x20 DUP3 RETURNDATASIZE DUP3 GT PUSH2 0x1C4 JUMPI JUMPDEST DUP2 PUSH2 0x1B0 PUSH1 0x20 SWAP4 DUP4 PUSH2 0x485 JUMP JUMPDEST DUP2 ADD SUB SLT PUSH2 0x1C1 JUMPI POP MLOAD DUP7 DUP1 PUSH2 0x18D JUMP JUMPDEST DUP1 REVERT JUMPDEST RETURNDATASIZE SWAP2 POP PUSH2 0x1A3 JUMP JUMPDEST PUSH1 0x40 MLOAD SWAP1 RETURNDATASIZE SWAP1 DUP3 RETURNDATACOPY RETURNDATASIZE SWAP1 REVERT JUMPDEST PUSH1 0x1 PUSH1 0x0 SSTORE PUSH1 0x40 MLOAD PUSH1 0x20 DUP1 DUP3 MSTORE DUP2 SWAP1 PUSH2 0x1F3 SWAP1 DUP3 ADD DUP7 PUSH2 0x73C JUMP JUMPDEST SUB SWAP1 RETURN JUMPDEST SWAP1 SWAP2 POP PUSH1 0x0 DUP1 DUP3 MLOAD PUSH1 0x20 DUP5 ADD CALLVALUE DUP7 GAS CALL SWAP2 PUSH2 0x210 PUSH2 0x7A7 JUMP JUMPDEST SWAP3 PUSH2 0x98 JUMPI PUSH2 0x232 DUP4 PUSH1 0x40 MLOAD SWAP4 DUP5 SWAP4 PUSH4 0x7A269933 PUSH1 0xE0 SHL DUP6 MSTORE PUSH1 0x4 DUP6 ADD PUSH2 0x7D7 JUMP JUMPDEST SUB SWAP1 REVERT JUMPDEST POP CALLVALUE ISZERO ISZERO PUSH2 0x93 JUMP JUMPDEST POP DUP1 MLOAD ISZERO ISZERO PUSH2 0x8C JUMP JUMPDEST PUSH2 0x252 CALLDATASIZE PUSH2 0x5C3 JUMP JUMPDEST SWAP2 SWAP3 SWAP4 PUSH2 0x25D PUSH2 0x80D JUMP JUMPDEST PUSH1 0x0 SWAP2 DUP2 MLOAD PUSH2 0x26B DUP2 PUSH2 0x4BD JUMP JUMPDEST SWAP4 PUSH2 0x279 PUSH1 0x40 MLOAD SWAP6 DUP7 PUSH2 0x485 JUMP JUMPDEST DUP2 DUP6 MSTORE PUSH1 0x1F NOT PUSH2 0x288 DUP4 PUSH2 0x4BD JUMP JUMPDEST ADD CALLDATASIZE PUSH1 0x20 DUP8 ADD CALLDATACOPY JUMPDEST DUP2 DUP2 LT PUSH2 0x446 JUMPI POP PUSH1 0x0 JUMPDEST DUP8 MLOAD DUP2 LT ISZERO PUSH2 0x2BA JUMPI DUP1 PUSH2 0x2B4 PUSH2 0x67 PUSH1 0x1 SWAP4 DUP12 PUSH2 0x77D JUMP JUMPDEST ADD PUSH2 0x29B JUMP JUMPDEST POP PUSH1 0x60 SWAP2 DUP7 SWAP1 PUSH1 0x1 PUSH1 0x1 PUSH1 0xA0 SHL SUB DUP3 AND ISZERO DUP1 ISZERO SWAP1 PUSH2 0x43C JUMPI JUMPDEST DUP1 ISZERO PUSH2 0x433 JUMPI JUMPDEST PUSH2 0x3F8 JUMPI JUMPDEST POP POP PUSH1 0x0 JUMPDEST DUP6 MLOAD DUP2 LT ISZERO PUSH2 0x303 JUMPI DUP1 PUSH2 0x2FD PUSH2 0xB6 PUSH1 0x1 SWAP4 DUP10 PUSH2 0x77D JUMP JUMPDEST ADD PUSH2 0x2E4 JUMP JUMPDEST POP DUP4 PUSH1 0x0 JUMPDEST DUP3 DUP2 LT PUSH2 0x32A JUMPI PUSH1 0x1 PUSH1 0x0 SSTORE PUSH1 0x40 MLOAD PUSH1 0x20 DUP1 DUP3 MSTORE DUP2 SWAP1 PUSH2 0x1F3 SWAP1 DUP3 ADD DUP8 PUSH2 0x73C JUMP JUMPDEST PUSH2 0x374 PUSH2 0x363 PUSH1 0x1 PUSH1 0x1 PUSH1 0xA0 SHL SUB PUSH1 0x20 PUSH2 0x344 DUP6 DUP11 PUSH2 0x77D JUMP JUMPDEST MLOAD ADD MLOAD AND PUSH1 0x1 PUSH1 0x1 PUSH1 0xA0 SHL SUB PUSH2 0x35A DUP6 DUP11 PUSH2 0x77D JUMP JUMPDEST MLOAD MLOAD AND SWAP1 PUSH2 0x82F JUMP JUMPDEST PUSH2 0x36D DUP4 DUP6 PUSH2 0x77D JUMP JUMPDEST MLOAD SWAP1 PUSH2 0xA5A JUMP JUMPDEST PUSH1 0x40 PUSH2 0x380 DUP4 DUP9 PUSH2 0x77D JUMP JUMPDEST MLOAD ADD MLOAD DUP2 SLT PUSH2 0x392 JUMPI POP PUSH1 0x1 ADD PUSH2 0x308 JUMP JUMPDEST PUSH1 0x84 SWAP3 POP DUP6 PUSH1 0x40 PUSH2 0x3D0 PUSH1 0x1 PUSH1 0x1 PUSH1 0xA0 SHL SUB PUSH1 0x20 PUSH2 0x3B0 DUP8 DUP7 PUSH2 0x77D JUMP JUMPDEST MLOAD ADD MLOAD AND SWAP5 PUSH1 0x1 PUSH1 0x1 PUSH1 0xA0 SHL SUB PUSH2 0x3C7 DUP3 DUP7 PUSH2 0x77D JUMP JUMPDEST MLOAD MLOAD AND SWAP4 PUSH2 0x77D JUMP JUMPDEST MLOAD ADD MLOAD SWAP1 PUSH1 0x40 MLOAD SWAP4 PUSH4 0x5C333E1 PUSH1 0xE4 SHL DUP6 MSTORE PUSH1 0x4 DUP6 ADD MSTORE PUSH1 0x24 DUP5 ADD MSTORE PUSH1 0x44 DUP4 ADD MSTORE PUSH1 0x64 DUP3 ADD MSTORE REVERT JUMPDEST SWAP1 SWAP3 POP PUSH1 0x0 DUP1 DUP3 MLOAD PUSH1 0x20 DUP5 ADD CALLVALUE DUP8 GAS CALL SWAP3 PUSH2 0x411 PUSH2 0x7A7 JUMP JUMPDEST SWAP4 PUSH2 0x2DF JUMPI PUSH2 0x232 DUP5 PUSH1 0x40 MLOAD SWAP4 DUP5 SWAP4 PUSH4 0x7A269933 PUSH1 0xE0 SHL DUP6 MSTORE PUSH1 0x4 DUP6 ADD PUSH2 0x7D7 JUMP JUMPDEST POP CALLVALUE ISZERO ISZERO PUSH2 0x2DA JUMP JUMPDEST POP DUP1 MLOAD ISZERO ISZERO PUSH2 0x2D3 JUMP JUMPDEST PUSH1 0x1 SWAP1 PUSH2 0x474 PUSH1 0x1 PUSH1 0x1 PUSH1 0xA0 SHL SUB PUSH1 0x20 PUSH2 0x460 DUP5 DUP10 PUSH2 0x77D JUMP JUMPDEST MLOAD ADD MLOAD AND DUP4 DUP1 PUSH1 0xA0 SHL SUB PUSH2 0x35A DUP5 DUP10 PUSH2 0x77D JUMP JUMPDEST PUSH2 0x47E DUP3 DUP9 PUSH2 0x77D JUMP JUMPDEST MSTORE ADD PUSH2 0x290 JUMP JUMPDEST SWAP1 PUSH1 0x1F DUP1 NOT SWAP2 ADD AND DUP2 ADD SWAP1 DUP2 LT PUSH8 0xFFFFFFFFFFFFFFFF DUP3 GT OR PUSH2 0x4A7 JUMPI PUSH1 0x40 MSTORE JUMP JUMPDEST PUSH4 0x4E487B71 PUSH1 0xE0 SHL PUSH1 0x0 MSTORE PUSH1 0x41 PUSH1 0x4 MSTORE PUSH1 0x24 PUSH1 0x0 REVERT JUMPDEST PUSH8 0xFFFFFFFFFFFFFFFF DUP2 GT PUSH2 0x4A7 JUMPI PUSH1 0x5 SHL PUSH1 0x20 ADD SWAP1 JUMP JUMPDEST CALLDATALOAD SWAP1 PUSH1 0x1 PUSH1 0x1 PUSH1 0xA0 SHL SUB DUP3 AND DUP3 SUB PUSH2 0x4E9 JUMPI JUMP JUMPDEST PUSH1 0x0 DUP1 REVERT JUMPDEST SWAP2 SWAP1 DUP3 PUSH1 0x60 SWAP2 SUB SLT PUSH2 0x4E9 JUMPI PUSH1 0x40 MLOAD PUSH1 0x60 DUP2 ADD DUP2 DUP2 LT PUSH8 0xFFFFFFFFFFFFFFFF DUP3 GT OR PUSH2 0x4A7 JUMPI PUSH1 0x40 MSTORE PUSH1 0x40 DUP1 DUP3 SWAP5 PUSH2 0x525 DUP2 PUSH2 0x4D5 JUMP JUMPDEST DUP5 MSTORE PUSH2 0x533 PUSH1 0x20 DUP3 ADD PUSH2 0x4D5 JUMP JUMPDEST PUSH1 0x20 DUP6 ADD MSTORE ADD CALLDATALOAD SWAP2 ADD MSTORE JUMP JUMPDEST DUP2 PUSH1 0x1F DUP3 ADD SLT ISZERO PUSH2 0x4E9 JUMPI DUP1 CALLDATALOAD PUSH2 0x555 DUP2 PUSH2 0x4BD JUMP JUMPDEST SWAP3 PUSH2 0x563 PUSH1 0x40 MLOAD SWAP5 DUP6 PUSH2 0x485 JUMP JUMPDEST DUP2 DUP5 MSTORE PUSH1 0x20 PUSH1 0x60 DUP2 DUP7 ADD SWAP4 MUL DUP5 ADD ADD SWAP3 DUP2 DUP5 GT PUSH2 0x4E9 JUMPI PUSH1 0x20 ADD SWAP2 JUMPDEST DUP4 DUP4 LT PUSH2 0x58D JUMPI POP POP POP POP SWAP1 JUMP JUMPDEST PUSH1 0x20 PUSH1 0x60 SWAP2 PUSH2 0x59C DUP5 DUP7 PUSH2 0x4EE JUMP JUMPDEST DUP2 MSTORE ADD SWAP3 ADD SWAP2 PUSH2 0x57F JUMP JUMPDEST PUSH8 0xFFFFFFFFFFFFFFFF DUP2 GT PUSH2 0x4A7 JUMPI PUSH1 0x1F ADD PUSH1 0x1F NOT AND PUSH1 0x20 ADD SWAP1 JUMP JUMPDEST PUSH1 0xA0 PUSH1 0x3 NOT DUP3 ADD SLT PUSH2 0x4E9 JUMPI PUSH1 0x4 CALLDATALOAD PUSH8 0xFFFFFFFFFFFFFFFF DUP2 GT PUSH2 0x4E9 JUMPI DUP2 PUSH2 0x5EE SWAP2 PUSH1 0x4 ADD PUSH2 0x53F JUMP JUMPDEST SWAP2 PUSH1 0x24 CALLDATALOAD PUSH8 0xFFFFFFFFFFFFFFFF DUP2 GT PUSH2 0x4E9 JUMPI DUP3 PUSH1 0x23 DUP3 ADD SLT ISZERO PUSH2 0x4E9 JUMPI DUP1 PUSH1 0x4 ADD CALLDATALOAD SWAP1 PUSH2 0x61B DUP3 PUSH2 0x4BD JUMP JUMPDEST SWAP2 PUSH2 0x629 PUSH1 0x40 MLOAD SWAP4 DUP5 PUSH2 0x485 JUMP JUMPDEST DUP1 DUP4 MSTORE PUSH1 0x24 PUSH1 0x20 DUP5 ADD SWAP2 PUSH1 0x7 SHL DUP4 ADD ADD SWAP2 DUP6 DUP4 GT PUSH2 0x4E9 JUMPI PUSH1 0x24 ADD SWAP1 JUMPDEST DUP3 DUP3 LT PUSH2 0x6E4 JUMPI POP SWAP2 SWAP4 SWAP2 POP POP PUSH1 0x44 CALLDATALOAD PUSH1 0x1 PUSH1 0x1 PUSH1 0xA0 SHL SUB DUP2 AND DUP2 SUB PUSH2 0x4E9 JUMPI SWAP2 PUSH1 0x64 CALLDATALOAD PUSH8 0xFFFFFFFFFFFFFFFF DUP2 GT PUSH2 0x4E9 JUMPI DUP3 PUSH1 0x23 DUP3 ADD SLT ISZERO PUSH2 0x4E9 JUMPI DUP1 PUSH1 0x4 ADD CALLDATALOAD PUSH2 0x692 DUP2 PUSH2 0x5A7 JUMP JUMPDEST SWAP2 PUSH2 0x6A0 PUSH1 0x40 MLOAD SWAP4 DUP5 PUSH2 0x485 JUMP JUMPDEST DUP2 DUP4 MSTORE DUP5 PUSH1 0x24 DUP4 DUP4 ADD ADD GT PUSH2 0x4E9 JUMPI DUP2 PUSH1 0x0 SWAP3 PUSH1 0x24 PUSH1 0x20 SWAP4 ADD DUP4 DUP7 ADD CALLDATACOPY DUP4 ADD ADD MSTORE SWAP2 PUSH1 0x84 CALLDATALOAD SWAP1 PUSH8 0xFFFFFFFFFFFFFFFF DUP3 GT PUSH2 0x4E9 JUMPI PUSH2 0x6E1 SWAP2 PUSH1 0x4 ADD PUSH2 0x53F JUMP JUMPDEST SWAP1 JUMP JUMPDEST PUSH1 0x80 DUP3 DUP8 SUB SLT PUSH2 0x4E9 JUMPI PUSH1 0x40 MLOAD SWAP1 PUSH1 0x40 DUP3 ADD DUP3 DUP2 LT PUSH8 0xFFFFFFFFFFFFFFFF DUP3 GT OR PUSH2 0x4A7 JUMPI PUSH1 0x40 MSTORE PUSH2 0x716 DUP8 DUP5 PUSH2 0x4EE JUMP JUMPDEST DUP3 MSTORE PUSH1 0x60 DUP4 ADD CALLDATALOAD SWAP1 DUP2 ISZERO ISZERO DUP3 SUB PUSH2 0x4E9 JUMPI DUP3 PUSH1 0x20 SWAP3 DUP4 PUSH1 0x80 SWAP6 ADD MSTORE DUP2 MSTORE ADD SWAP2 ADD SWAP1 PUSH2 0x646 JUMP JUMPDEST SWAP2 SWAP1 DUP3 MLOAD SWAP3 DUP4 DUP3 MSTORE PUSH1 0x0 JUMPDEST DUP5 DUP2 LT PUSH2 0x768 JUMPI POP POP DUP3 PUSH1 0x0 PUSH1 0x20 DUP1 SWAP5 SWAP6 DUP5 ADD ADD MSTORE PUSH1 0x1F DUP1 NOT SWAP2 ADD AND ADD ADD SWAP1 JUMP JUMPDEST DUP1 PUSH1 0x20 DUP1 SWAP3 DUP5 ADD ADD MLOAD DUP3 DUP3 DUP7 ADD ADD MSTORE ADD PUSH2 0x747 JUMP JUMPDEST DUP1 MLOAD DUP3 LT ISZERO PUSH2 0x791 JUMPI PUSH1 0x20 SWAP2 PUSH1 0x5 SHL ADD ADD SWAP1 JUMP JUMPDEST PUSH4 0x4E487B71 PUSH1 0xE0 SHL PUSH1 0x0 MSTORE PUSH1 0x32 PUSH1 0x4 MSTORE PUSH1 0x24 PUSH1 0x0 REVERT JUMPDEST RETURNDATASIZE ISZERO PUSH2 0x7D2 JUMPI RETURNDATASIZE SWAP1 PUSH2 0x7B8 DUP3 PUSH2 0x5A7 JUMP JUMPDEST SWAP2 PUSH2 0x7C6 PUSH1 0x40 MLOAD SWAP4 DUP5 PUSH2 0x485 JUMP JUMPDEST DUP3 MSTORE RETURNDATASIZE PUSH1 0x0 PUSH1 0x20 DUP5 ADD RETURNDATACOPY JUMP JUMPDEST PUSH1 0x60 SWAP1 JUMP JUMPDEST PUSH1 0x1 PUSH1 0x1 PUSH1 0xA0 SHL SUB SWAP1 SWAP2 AND DUP2 MSTORE PUSH1 0x60 PUSH1 0x20 DUP3 ADD DUP2 SWAP1 MSTORE PUSH2 0x6E1 SWAP4 SWAP2 SWAP3 PUSH2 0x7FF SWAP2 DUP5 ADD SWAP1 PUSH2 0x73C JUMP JUMPDEST SWAP2 PUSH1 0x40 DUP2 DUP5 SUB SWAP2 ADD MSTORE PUSH2 0x73C JUMP JUMPDEST PUSH1 0x2 PUSH1 0x0 SLOAD EQ PUSH2 0x81E JUMPI PUSH1 0x2 PUSH1 0x0 SSTORE JUMP JUMPDEST PUSH4 0x3EE5AEB5 PUSH1 0xE0 SHL PUSH1 0x0 MSTORE PUSH1 0x4 PUSH1 0x0 REVERT JUMPDEST PUSH1 0x0 SWAP1 PUSH1 0x1 PUSH1 0x1 PUSH1 0xA0 SHL SUB AND DUP1 PUSH2 0x846 JUMPI POP POP BALANCE SWAP1 JUMP JUMPDEST PUSH1 0x40 MLOAD PUSH4 0x70A08231 PUSH1 0xE0 SHL DUP2 MSTORE PUSH1 0x1 PUSH1 0x1 PUSH1 0xA0 SHL SUB SWAP1 SWAP4 AND PUSH1 0x4 DUP5 ADD MSTORE SWAP1 SWAP2 SWAP1 PUSH1 0x20 SWAP1 DUP3 SWAP1 PUSH1 0x24 SWAP1 DUP3 SWAP1 GAS STATICCALL SWAP2 DUP3 ISZERO PUSH2 0x1CC JUMPI DUP1 SWAP3 PUSH2 0x884 JUMPI POP POP SWAP1 JUMP JUMPDEST SWAP1 SWAP2 POP PUSH1 0x20 DUP3 RETURNDATASIZE PUSH1 0x20 GT PUSH2 0x8AD JUMPI JUMPDEST DUP2 PUSH2 0x8A0 PUSH1 0x20 SWAP4 DUP4 PUSH2 0x485 JUMP JUMPDEST DUP2 ADD SUB SLT PUSH2 0x1C1 JUMPI POP MLOAD SWAP1 JUMP JUMPDEST RETURNDATASIZE SWAP2 POP PUSH2 0x893 JUMP JUMPDEST SWAP1 DUP2 PUSH1 0x20 SWAP2 SUB SLT PUSH2 0x4E9 JUMPI MLOAD DUP1 ISZERO ISZERO DUP2 SUB PUSH2 0x4E9 JUMPI SWAP1 JUMP JUMPDEST DUP1 MLOAD PUSH1 0x40 DUP2 ADD MLOAD PUSH1 0x20 SWAP1 SWAP3 ADD MLOAD ISZERO PUSH2 0x962 JUMPI PUSH1 0x20 DUP2 DUP2 ADD MLOAD SWAP2 MLOAD PUSH1 0x40 MLOAD PUSH4 0xA9059CBB PUSH1 0xE0 SHL DUP2 MSTORE PUSH1 0x1 PUSH1 0x1 PUSH1 0xA0 SHL SUB SWAP2 DUP3 AND PUSH1 0x4 DUP3 ADD MSTORE PUSH1 0x24 DUP2 ADD SWAP5 SWAP1 SWAP5 MSTORE SWAP1 SWAP2 DUP4 SWAP2 AND DUP2 PUSH1 0x0 DUP2 PUSH1 0x44 DUP2 ADD JUMPDEST SUB SWAP3 GAS CALL DUP1 ISZERO PUSH2 0x956 JUMPI PUSH2 0x92B JUMPI POP JUMP JUMPDEST PUSH2 0x94C SWAP1 PUSH1 0x20 RETURNDATASIZE PUSH1 0x20 GT PUSH2 0x94F JUMPI JUMPDEST PUSH2 0x944 DUP2 DUP4 PUSH2 0x485 JUMP JUMPDEST DUP2 ADD SWAP1 PUSH2 0x8B5 JUMP JUMPDEST POP JUMP JUMPDEST POP RETURNDATASIZE PUSH2 0x93A JUMP JUMPDEST PUSH1 0x40 MLOAD RETURNDATASIZE PUSH1 0x0 DUP3 RETURNDATACOPY RETURNDATASIZE SWAP1 REVERT JUMPDEST PUSH1 0x20 DUP2 DUP2 ADD MLOAD SWAP2 MLOAD PUSH1 0x40 MLOAD PUSH4 0x95EA7B3 PUSH1 0xE0 SHL DUP2 MSTORE PUSH1 0x1 PUSH1 0x1 PUSH1 0xA0 SHL SUB SWAP2 DUP3 AND PUSH1 0x4 DUP3 ADD MSTORE PUSH1 0x24 DUP2 ADD SWAP5 SWAP1 SWAP5 MSTORE SWAP1 SWAP2 DUP4 SWAP2 AND DUP2 PUSH1 0x0 DUP2 PUSH1 0x44 DUP2 ADD PUSH2 0x91A JUMP JUMPDEST PUSH1 0x20 DUP2 ADD MLOAD PUSH1 0x1 PUSH1 0x1 PUSH1 0xA0 SHL SUB AND DUP1 PUSH2 0x9F1 JUMPI POP PUSH1 0x0 DUP1 DUP1 DUP1 SWAP4 PUSH1 0x40 PUSH1 0x1 DUP1 PUSH1 0xA0 SHL SUB DUP3 MLOAD AND SWAP2 ADD MLOAD SWAP1 DUP2 PUSH1 0xFF SAR DUP1 SWAP3 ADD SWAP2 DUP4 SWAP3 DUP2 DUP2 EQ PUSH2 0x9E7 JUMPI JUMPDEST XOR SWAP2 CALL ISZERO PUSH2 0x956 JUMPI JUMP JUMPDEST PUSH2 0x8FC SWAP4 POP PUSH2 0x9DD JUMP JUMPDEST DUP2 MLOAD PUSH1 0x40 SWAP3 DUP4 ADD MLOAD SWAP3 MLOAD PUSH4 0xA9059CBB PUSH1 0xE0 SHL DUP2 MSTORE PUSH1 0x1 PUSH1 0x1 PUSH1 0xA0 SHL SUB SWAP1 SWAP2 AND PUSH1 0x4 DUP3 ADD MSTORE PUSH1 0xFF DUP4 SWAP1 SAR SWAP3 DUP4 ADD SWAP1 SWAP3 XOR PUSH1 0x24 DUP4 ADD MSTORE PUSH1 0x20 SWAP1 DUP3 SWAP1 DUP2 PUSH1 0x0 DUP2 PUSH1 0x44 DUP2 ADD PUSH2 0x91A JUMP JUMPDEST SWAP2 SWAP1 DUP3 SUB SWAP2 DUP3 GT PUSH2 0xA44 JUMPI JUMP JUMPDEST PUSH4 0x4E487B71 PUSH1 0xE0 SHL PUSH1 0x0 MSTORE PUSH1 0x11 PUSH1 0x4 MSTORE PUSH1 0x24 PUSH1 0x0 REVERT JUMPDEST SWAP1 DUP1 DUP3 LT ISZERO PUSH2 0xA86 JUMPI PUSH2 0xA75 SWAP2 PUSH2 0xA70 SWAP2 PUSH2 0xA37 JUMP JUMPDEST PUSH2 0xA93 JUMP JUMPDEST PUSH1 0x1 PUSH1 0xFF SHL DUP2 EQ PUSH2 0xA44 JUMPI PUSH1 0x0 SUB SWAP1 JUMP JUMPDEST PUSH2 0xA70 SWAP1 PUSH2 0x6E1 SWAP3 PUSH2 0xA37 JUMP JUMPDEST PUSH1 0x1 PUSH1 0x1 PUSH1 0xFF SHL SUB DUP2 GT PUSH2 0xAA4 JUMPI SWAP1 JUMP JUMPDEST PUSH4 0x123BAF03 PUSH1 0xE1 SHL PUSH1 0x0 MSTORE PUSH1 0x4 MSTORE PUSH1 0x24 PUSH1 0x0 REVERT INVALID LOG2 PUSH5 0x6970667358 0x22 SLT KECCAK256 0x28 DUP11 MSTORE CODECOPY TSTORE 0xB7 MLOAD BALANCE SWAP10 0xD0 0x4F CHAINID 0xAA TIMESTAMP LOG1 MCOPY PUSH19 0x592B928E66A8AAA547AFF6503312A064736F6C PUSH4 0x4300081B STOP CALLER "
        },
        "methodIdentifiers": {
          "proxyCall((address,address,int256)[],((address,address,int256),bool)[],address,bytes,(address,address,int256)[])": "ce9506f9",
          "proxyCallDiffs((address,address,int256)[],((address,address,int256),bool)[],address,bytes,(address,address,int256)[])": "890e3add"
        }
      },
      "userdoc": {
        "errors": {
          "ERC8009BalanceConstraintViolation(address,address,int256,uint256)": [
            {
              "notice": "Error thrown when a balance is insufficient"
            }
          ],
          "ERC8009BalanceDiffConstraintViolation(address,address,int256,int256)": [
            {
              "notice": "Error when actual diff != expected"
            }
          ],
          "ERC8009CallFailed(address,bytes,bytes)": [
            {
              "notice": "Error thrown when a call fails"
            }
          ]
        },
        "kind": "user",
        "methods": {
          "proxyCall((address,address,int256)[],((address,address,int256),bool)[],address,bytes,(address,address,int256)[])": {
            "notice": "Proxy call to a target contract with specified post-balance checks"
          },
          "proxyCallDiffs((address,address,int256)[],((address,address,int256),bool)[],address,bytes,(address,address,int256)[])": {
            "notice": "Proxy call with balance diffs"
          }
        },
        "notice": "Proxy contract for calling contracts with specified balances and approvals",
        "version": 1
      }
    }
  }
}