{
  "contracts/mocks/SafeMock.sol": {
    "SafeMock": {
      "abi": [
        {
          "inputs": [
            {
              "internalType": "address",
              "name": "owner",
              "type": "address"
            }
          ],
          "name": "addOwner",
          "outputs": [],
          "stateMutability": "nonpayable",
          "type": "function"
        },
        {
          "inputs": [
            {
              "internalType": "address",
              "name": "to",
              "type": "address"
            },
            {
              "internalType": "uint256",
              "name": "value",
              "type": "uint256"
            },
            {
              "internalType": "bytes",
              "name": "data",
              "type": "bytes"
            },
            {
              "internalType": "enum Enum.Operation",
              "name": "operation",
              "type": "uint8"
            },
            {
              "internalType": "uint256",
              "name": "",
              "type": "uint256"
            },
            {
              "internalType": "uint256",
              "name": "",
              "type": "uint256"
            },
            {
              "internalType": "uint256",
              "name": "",
              "type": "uint256"
            },
            {
              "internalType": "address",
              "name": "",
              "type": "address"
            },
            {
              "internalType": "address payable",
              "name": "",
              "type": "address"
            },
            {
              "internalType": "bytes",
              "name": "",
              "type": "bytes"
            }
          ],
          "name": "execTransaction",
          "outputs": [
            {
              "internalType": "bool",
              "name": "success",
              "type": "bool"
            }
          ],
          "stateMutability": "payable",
          "type": "function"
        },
        {
          "inputs": [],
          "name": "getThreshold",
          "outputs": [
            {
              "internalType": "uint256",
              "name": "",
              "type": "uint256"
            }
          ],
          "stateMutability": "view",
          "type": "function"
        },
        {
          "inputs": [
            {
              "internalType": "address",
              "name": "owner",
              "type": "address"
            }
          ],
          "name": "isOwner",
          "outputs": [
            {
              "internalType": "bool",
              "name": "",
              "type": "bool"
            }
          ],
          "stateMutability": "view",
          "type": "function"
        },
        {
          "inputs": [
            {
              "internalType": "uint256",
              "name": "threshold",
              "type": "uint256"
            }
          ],
          "name": "setThreshold",
          "outputs": [],
          "stateMutability": "nonpayable",
          "type": "function"
        },
        {
          "stateMutability": "payable",
          "type": "receive"
        }
      ],
      "devdoc": {
        "kind": "dev",
        "methods": {
          "execTransaction(address,uint256,bytes,uint8,uint256,uint256,uint256,address,address,bytes)": {
            "details": "Mirrors Safe.execTransaction. Skips signature verification.      Propagates reverts so BalanceProxy errors bubble up in tests."
          }
        },
        "version": 1
      },
      "evm": {
        "bytecode": {
          "linkReferences": {},
          "object": "6080806040523460195760018055610387908161001f8239f35b600080fdfe6080604052600436101561001b575b361561001957600080fd5b005b60003560e01c80632f54bf6e1461006b5780636a761202146100665780637065cb4814610061578063960bfe041461005c5763e75235b80361000e57610283565b61026a565b610229565b61018d565b346100ac5760203660031901126100ac57600435610088816100b1565b60018060a01b0316600052600060205260ff60406000205416151560805260206080f35b600080fd5b6001600160a01b038116036100ac57565b60e435906100cf826100b1565b565b634e487b7160e01b600052604160045260246000fd5b6040519190601f01601f1916820167ffffffffffffffff81118382101761010d57604052565b6100d1565b67ffffffffffffffff811161010d57601f01601f191660200190565b81601f820112156100ac5780359061014d61014883610112565b6100e7565b92828452602083830101116100ac57816000926020809301838601378301015290565b6064359060028210156100ac57565b61010435906100cf826100b1565b6101403660031901126100ac576004356101a6816100b1565b60243560443567ffffffffffffffff81116100ac576101c990369060040161012e565b6101d1610170565b906101da6100c2565b506101e361017f565b50610124359267ffffffffffffffff84116100ac576102259461020d61021395369060040161012e565b506102c7565b60405190151581529081906020820190565b0390f35b346100ac5760203660031901126100ac57600435610246816100b1565b6001600160a01b03166000908152602081905260409020805460ff19166001179055005b346100ac5760203660031901126100ac57600435600155005b346100ac5760003660031901126100ac576020600154604051908152f35b3d156102c2573d906102b561014883610112565b9182523d6000602084013e565b606090565b92919091600281101561033b57610300576000928392602083519301915af1906102ef6102a1565b82156102f85750565b602081519101fd5b60405162461bcd60e51b815260206004820152601360248201527214d85999535bd8dace881bdb9b1e4810d85b1b606a1b6044820152606490fd5b634e487b7160e01b600052602160045260246000fdfea26469706673582212203495f8a491d6206b1848af4914a98c8d5293966a5a5205afca4f8d0f31ba65d364736f6c634300081b0033",
          "opcodes": "PUSH1 0x80 DUP1 PUSH1 0x40 MSTORE CALLVALUE PUSH1 0x19 JUMPI PUSH1 0x1 DUP1 SSTORE PUSH2 0x387 SWAP1 DUP2 PUSH2 0x1F DUP3 CODECOPY RETURN JUMPDEST PUSH1 0x0 DUP1 REVERT INVALID PUSH1 0x80 PUSH1 0x40 MSTORE PUSH1 0x4 CALLDATASIZE LT ISZERO PUSH2 0x1B JUMPI JUMPDEST CALLDATASIZE ISZERO PUSH2 0x19 JUMPI PUSH1 0x0 DUP1 REVERT JUMPDEST STOP JUMPDEST PUSH1 0x0 CALLDATALOAD PUSH1 0xE0 SHR DUP1 PUSH4 0x2F54BF6E EQ PUSH2 0x6B JUMPI DUP1 PUSH4 0x6A761202 EQ PUSH2 0x66 JUMPI DUP1 PUSH4 0x7065CB48 EQ PUSH2 0x61 JUMPI DUP1 PUSH4 0x960BFE04 EQ PUSH2 0x5C JUMPI PUSH4 0xE75235B8 SUB PUSH2 0xE JUMPI PUSH2 0x283 JUMP JUMPDEST PUSH2 0x26A JUMP JUMPDEST PUSH2 0x229 JUMP JUMPDEST PUSH2 0x18D JUMP JUMPDEST CALLVALUE PUSH2 0xAC JUMPI PUSH1 0x20 CALLDATASIZE PUSH1 0x3 NOT ADD SLT PUSH2 0xAC JUMPI PUSH1 0x4 CALLDATALOAD PUSH2 0x88 DUP2 PUSH2 0xB1 JUMP JUMPDEST PUSH1 0x1 DUP1 PUSH1 0xA0 SHL SUB AND PUSH1 0x0 MSTORE PUSH1 0x0 PUSH1 0x20 MSTORE PUSH1 0xFF PUSH1 0x40 PUSH1 0x0 KECCAK256 SLOAD AND ISZERO ISZERO PUSH1 0x80 MSTORE PUSH1 0x20 PUSH1 0x80 RETURN JUMPDEST PUSH1 0x0 DUP1 REVERT JUMPDEST PUSH1 0x1 PUSH1 0x1 PUSH1 0xA0 SHL SUB DUP2 AND SUB PUSH2 0xAC JUMPI JUMP JUMPDEST PUSH1 0xE4 CALLDATALOAD SWAP1 PUSH2 0xCF DUP3 PUSH2 0xB1 JUMP JUMPDEST JUMP JUMPDEST PUSH4 0x4E487B71 PUSH1 0xE0 SHL PUSH1 0x0 MSTORE PUSH1 0x41 PUSH1 0x4 MSTORE PUSH1 0x24 PUSH1 0x0 REVERT JUMPDEST PUSH1 0x40 MLOAD SWAP2 SWAP1 PUSH1 0x1F ADD PUSH1 0x1F NOT AND DUP3 ADD PUSH8 0xFFFFFFFFFFFFFFFF DUP2 GT DUP4 DUP3 LT OR PUSH2 0x10D JUMPI PUSH1 0x40 MSTORE JUMP JUMPDEST PUSH2 0xD1 JUMP JUMPDEST PUSH8 0xFFFFFFFFFFFFFFFF DUP2 GT PUSH2 0x10D JUMPI PUSH1 0x1F ADD PUSH1 0x1F NOT AND PUSH1 0x20 ADD SWAP1 JUMP JUMPDEST DUP2 PUSH1 0x1F DUP3 ADD SLT ISZERO PUSH2 0xAC JUMPI DUP1 CALLDATALOAD SWAP1 PUSH2 0x14D PUSH2 0x148 DUP4 PUSH2 0x112 JUMP JUMPDEST PUSH2 0xE7 JUMP JUMPDEST SWAP3 DUP3 DUP5 MSTORE PUSH1 0x20 DUP4 DUP4 ADD ADD GT PUSH2 0xAC JUMPI DUP2 PUSH1 0x0 SWAP3 PUSH1 0x20 DUP1 SWAP4 ADD DUP4 DUP7 ADD CALLDATACOPY DUP4 ADD ADD MSTORE SWAP1 JUMP JUMPDEST PUSH1 0x64 CALLDATALOAD SWAP1 PUSH1 0x2 DUP3 LT ISZERO PUSH2 0xAC JUMPI JUMP JUMPDEST PUSH2 0x104 CALLDATALOAD SWAP1 PUSH2 0xCF DUP3 PUSH2 0xB1 JUMP JUMPDEST PUSH2 0x140 CALLDATASIZE PUSH1 0x3 NOT ADD SLT PUSH2 0xAC JUMPI PUSH1 0x4 CALLDATALOAD PUSH2 0x1A6 DUP2 PUSH2 0xB1 JUMP JUMPDEST PUSH1 0x24 CALLDATALOAD PUSH1 0x44 CALLDATALOAD PUSH8 0xFFFFFFFFFFFFFFFF DUP2 GT PUSH2 0xAC JUMPI PUSH2 0x1C9 SWAP1 CALLDATASIZE SWAP1 PUSH1 0x4 ADD PUSH2 0x12E JUMP JUMPDEST PUSH2 0x1D1 PUSH2 0x170 JUMP JUMPDEST SWAP1 PUSH2 0x1DA PUSH2 0xC2 JUMP JUMPDEST POP PUSH2 0x1E3 PUSH2 0x17F JUMP JUMPDEST POP PUSH2 0x124 CALLDATALOAD SWAP3 PUSH8 0xFFFFFFFFFFFFFFFF DUP5 GT PUSH2 0xAC JUMPI PUSH2 0x225 SWAP5 PUSH2 0x20D PUSH2 0x213 SWAP6 CALLDATASIZE SWAP1 PUSH1 0x4 ADD PUSH2 0x12E JUMP JUMPDEST POP PUSH2 0x2C7 JUMP JUMPDEST PUSH1 0x40 MLOAD SWAP1 ISZERO ISZERO DUP2 MSTORE SWAP1 DUP2 SWAP1 PUSH1 0x20 DUP3 ADD SWAP1 JUMP JUMPDEST SUB SWAP1 RETURN JUMPDEST CALLVALUE PUSH2 0xAC JUMPI PUSH1 0x20 CALLDATASIZE PUSH1 0x3 NOT ADD SLT PUSH2 0xAC JUMPI PUSH1 0x4 CALLDATALOAD PUSH2 0x246 DUP2 PUSH2 0xB1 JUMP JUMPDEST PUSH1 0x1 PUSH1 0x1 PUSH1 0xA0 SHL SUB AND PUSH1 0x0 SWAP1 DUP2 MSTORE PUSH1 0x20 DUP2 SWAP1 MSTORE PUSH1 0x40 SWAP1 KECCAK256 DUP1 SLOAD PUSH1 0xFF NOT AND PUSH1 0x1 OR SWAP1 SSTORE STOP JUMPDEST CALLVALUE PUSH2 0xAC JUMPI PUSH1 0x20 CALLDATASIZE PUSH1 0x3 NOT ADD SLT PUSH2 0xAC JUMPI PUSH1 0x4 CALLDATALOAD PUSH1 0x1 SSTORE STOP JUMPDEST CALLVALUE PUSH2 0xAC JUMPI PUSH1 0x0 CALLDATASIZE PUSH1 0x3 NOT ADD SLT PUSH2 0xAC JUMPI PUSH1 0x20 PUSH1 0x1 SLOAD PUSH1 0x40 MLOAD SWAP1 DUP2 MSTORE RETURN JUMPDEST RETURNDATASIZE ISZERO PUSH2 0x2C2 JUMPI RETURNDATASIZE SWAP1 PUSH2 0x2B5 PUSH2 0x148 DUP4 PUSH2 0x112 JUMP JUMPDEST SWAP2 DUP3 MSTORE RETURNDATASIZE PUSH1 0x0 PUSH1 0x20 DUP5 ADD RETURNDATACOPY JUMP JUMPDEST PUSH1 0x60 SWAP1 JUMP JUMPDEST SWAP3 SWAP2 SWAP1 SWAP2 PUSH1 0x2 DUP2 LT ISZERO PUSH2 0x33B JUMPI PUSH2 0x300 JUMPI PUSH1 0x0 SWAP3 DUP4 SWAP3 PUSH1 0x20 DUP4 MLOAD SWAP4 ADD SWAP2 GAS CALL SWAP1 PUSH2 0x2EF PUSH2 0x2A1 JUMP JUMPDEST DUP3 ISZERO PUSH2 0x2F8 JUMPI POP JUMP JUMPDEST PUSH1 0x20 DUP2 MLOAD SWAP2 ADD REVERT JUMPDEST PUSH1 0x40 MLOAD PUSH3 0x461BCD PUSH1 0xE5 SHL DUP2 MSTORE PUSH1 0x20 PUSH1 0x4 DUP3 ADD MSTORE PUSH1 0x13 PUSH1 0x24 DUP3 ADD MSTORE PUSH19 0x14D85999535BD8DACE881BDB9B1E4810D85B1B PUSH1 0x6A SHL PUSH1 0x44 DUP3 ADD MSTORE PUSH1 0x64 SWAP1 REVERT JUMPDEST PUSH4 0x4E487B71 PUSH1 0xE0 SHL PUSH1 0x0 MSTORE PUSH1 0x21 PUSH1 0x4 MSTORE PUSH1 0x24 PUSH1 0x0 REVERT INVALID LOG2 PUSH5 0x6970667358 0x22 SLT KECCAK256 CALLVALUE SWAP6 0xF8 LOG4 SWAP2 0xD6 KECCAK256 PUSH12 0x1848AF4914A98C8D5293966A GAS MSTORE SDIV 0xAF 0xCA 0x4F DUP14 0xF BALANCE 0xBA PUSH6 0xD364736F6C63 NUMBER STOP ADDMOD SHL STOP CALLER "
        },
        "methodIdentifiers": {
          "addOwner(address)": "7065cb48",
          "execTransaction(address,uint256,bytes,uint8,uint256,uint256,uint256,address,address,bytes)": "6a761202",
          "getThreshold()": "e75235b8",
          "isOwner(address)": "2f54bf6e",
          "setThreshold(uint256)": "960bfe04"
        }
      },
      "userdoc": {
        "kind": "user",
        "methods": {},
        "version": 1
      }
    }
  }
}