{
  "contracts/SafeRouter.sol": {
    "SafeRouter": {
      "abi": [
        {
          "inputs": [
            {
              "internalType": "contract IBalanceProxy",
              "name": "balanceProxy_",
              "type": "address"
            }
          ],
          "stateMutability": "nonpayable",
          "type": "constructor"
        },
        {
          "inputs": [
            {
              "internalType": "address",
              "name": "token",
              "type": "address"
            },
            {
              "internalType": "address",
              "name": "target",
              "type": "address"
            },
            {
              "internalType": "int256",
              "name": "expected",
              "type": "int256"
            },
            {
              "internalType": "int256",
              "name": "actual",
              "type": "int256"
            }
          ],
          "name": "ERC8009BalanceDiffConstraintViolation",
          "type": "error"
        },
        {
          "inputs": [
            {
              "internalType": "uint256",
              "name": "providedWithRouter",
              "type": "uint256"
            },
            {
              "internalType": "uint256",
              "name": "threshold",
              "type": "uint256"
            }
          ],
          "name": "InsufficientSafeSignatures",
          "type": "error"
        },
        {
          "inputs": [
            {
              "internalType": "address",
              "name": "token",
              "type": "address"
            },
            {
              "internalType": "string",
              "name": "expectedSymbol",
              "type": "string"
            },
            {
              "internalType": "uint8",
              "name": "expectedDecimals",
              "type": "uint8"
            },
            {
              "internalType": "string",
              "name": "actualSymbol",
              "type": "string"
            },
            {
              "internalType": "uint8",
              "name": "actualDecimals",
              "type": "uint8"
            }
          ],
          "name": "InvalidMetadata",
          "type": "error"
        },
        {
          "inputs": [
            {
              "internalType": "uint256",
              "name": "position",
              "type": "uint256"
            },
            {
              "internalType": "uint256",
              "name": "signatureCount",
              "type": "uint256"
            }
          ],
          "name": "InvalidRouterSignaturePosition",
          "type": "error"
        },
        {
          "inputs": [
            {
              "internalType": "uint256",
              "name": "length",
              "type": "uint256"
            }
          ],
          "name": "InvalidSignaturesLength",
          "type": "error"
        },
        {
          "inputs": [
            {
              "internalType": "uint256",
              "name": "metaLength",
              "type": "uint256"
            },
            {
              "internalType": "uint256",
              "name": "balancesLength",
              "type": "uint256"
            }
          ],
          "name": "MetadataBalancesLengthMismatch",
          "type": "error"
        },
        {
          "inputs": [
            {
              "internalType": "address",
              "name": "caller",
              "type": "address"
            },
            {
              "internalType": "address",
              "name": "safe",
              "type": "address"
            }
          ],
          "name": "NotSafeOwner",
          "type": "error"
        },
        {
          "inputs": [
            {
              "internalType": "address",
              "name": "router",
              "type": "address"
            },
            {
              "internalType": "address",
              "name": "safe",
              "type": "address"
            }
          ],
          "name": "RouterNotSafeOwner",
          "type": "error"
        },
        {
          "inputs": [
            {
              "internalType": "uint256",
              "name": "value",
              "type": "uint256"
            }
          ],
          "name": "SafeCastOverflowedUintToInt",
          "type": "error"
        },
        {
          "inputs": [
            {
              "internalType": "address",
              "name": "safe",
              "type": "address"
            },
            {
              "internalType": "address",
              "name": "target",
              "type": "address"
            }
          ],
          "name": "SafeExecutionFailed",
          "type": "error"
        },
        {
          "inputs": [],
          "name": "balanceProxy",
          "outputs": [
            {
              "internalType": "contract IBalanceProxy",
              "name": "",
              "type": "address"
            }
          ],
          "stateMutability": "view",
          "type": "function"
        },
        {
          "inputs": [
            {
              "internalType": "bytes32",
              "name": "",
              "type": "bytes32"
            },
            {
              "internalType": "bytes",
              "name": "",
              "type": "bytes"
            }
          ],
          "name": "isValidSignature",
          "outputs": [
            {
              "internalType": "bytes4",
              "name": "",
              "type": "bytes4"
            }
          ],
          "stateMutability": "pure",
          "type": "function"
        },
        {
          "inputs": [
            {
              "internalType": "contract ISafe",
              "name": "safe",
              "type": "address"
            },
            {
              "components": [
                {
                  "internalType": "address",
                  "name": "target",
                  "type": "address"
                },
                {
                  "internalType": "address",
                  "name": "token",
                  "type": "address"
                },
                {
                  "internalType": "int256",
                  "name": "balance",
                  "type": "int256"
                }
              ],
              "internalType": "struct IBalanceProxy.Balance[]",
              "name": "diffs",
              "type": "tuple[]"
            },
            {
              "components": [
                {
                  "internalType": "address",
                  "name": "to",
                  "type": "address"
                },
                {
                  "internalType": "uint256",
                  "name": "value",
                  "type": "uint256"
                },
                {
                  "internalType": "bytes",
                  "name": "data",
                  "type": "bytes"
                },
                {
                  "internalType": "enum Enum.Operation",
                  "name": "operation",
                  "type": "uint8"
                },
                {
                  "internalType": "uint256",
                  "name": "safeTxGas",
                  "type": "uint256"
                },
                {
                  "internalType": "uint256",
                  "name": "baseGas",
                  "type": "uint256"
                },
                {
                  "internalType": "uint256",
                  "name": "gasPrice",
                  "type": "uint256"
                },
                {
                  "internalType": "address",
                  "name": "gasToken",
                  "type": "address"
                },
                {
                  "internalType": "address payable",
                  "name": "refundReceiver",
                  "type": "address"
                },
                {
                  "internalType": "bytes",
                  "name": "signatures",
                  "type": "bytes"
                },
                {
                  "internalType": "uint256",
                  "name": "routerSigPosition",
                  "type": "uint256"
                }
              ],
              "internalType": "struct SafeRouter.SafeTx",
              "name": "safeTx",
              "type": "tuple"
            }
          ],
          "name": "safeExecuteWithDiffs",
          "outputs": [],
          "stateMutability": "nonpayable",
          "type": "function"
        },
        {
          "inputs": [
            {
              "internalType": "contract ISafe",
              "name": "safe",
              "type": "address"
            },
            {
              "components": [
                {
                  "internalType": "string",
                  "name": "symbol",
                  "type": "string"
                },
                {
                  "internalType": "uint8",
                  "name": "decimals",
                  "type": "uint8"
                }
              ],
              "internalType": "struct BalanceMetadata[]",
              "name": "meta",
              "type": "tuple[]"
            },
            {
              "components": [
                {
                  "internalType": "address",
                  "name": "target",
                  "type": "address"
                },
                {
                  "internalType": "address",
                  "name": "token",
                  "type": "address"
                },
                {
                  "internalType": "int256",
                  "name": "balance",
                  "type": "int256"
                }
              ],
              "internalType": "struct IBalanceProxy.Balance[]",
              "name": "diffs",
              "type": "tuple[]"
            },
            {
              "components": [
                {
                  "internalType": "address",
                  "name": "to",
                  "type": "address"
                },
                {
                  "internalType": "uint256",
                  "name": "value",
                  "type": "uint256"
                },
                {
                  "internalType": "bytes",
                  "name": "data",
                  "type": "bytes"
                },
                {
                  "internalType": "enum Enum.Operation",
                  "name": "operation",
                  "type": "uint8"
                },
                {
                  "internalType": "uint256",
                  "name": "safeTxGas",
                  "type": "uint256"
                },
                {
                  "internalType": "uint256",
                  "name": "baseGas",
                  "type": "uint256"
                },
                {
                  "internalType": "uint256",
                  "name": "gasPrice",
                  "type": "uint256"
                },
                {
                  "internalType": "address",
                  "name": "gasToken",
                  "type": "address"
                },
                {
                  "internalType": "address payable",
                  "name": "refundReceiver",
                  "type": "address"
                },
                {
                  "internalType": "bytes",
                  "name": "signatures",
                  "type": "bytes"
                },
                {
                  "internalType": "uint256",
                  "name": "routerSigPosition",
                  "type": "uint256"
                }
              ],
              "internalType": "struct SafeRouter.SafeTx",
              "name": "safeTx",
              "type": "tuple"
            }
          ],
          "name": "safeExecuteWithDiffsMeta",
          "outputs": [],
          "stateMutability": "nonpayable",
          "type": "function"
        },
        {
          "inputs": [
            {
              "internalType": "contract ISafe",
              "name": "safe",
              "type": "address"
            },
            {
              "components": [
                {
                  "internalType": "address",
                  "name": "target",
                  "type": "address"
                },
                {
                  "internalType": "address",
                  "name": "token",
                  "type": "address"
                },
                {
                  "internalType": "int256",
                  "name": "balance",
                  "type": "int256"
                }
              ],
              "internalType": "struct IBalanceProxy.Balance[]",
              "name": "postBalances",
              "type": "tuple[]"
            },
            {
              "components": [
                {
                  "internalType": "address",
                  "name": "to",
                  "type": "address"
                },
                {
                  "internalType": "uint256",
                  "name": "value",
                  "type": "uint256"
                },
                {
                  "internalType": "bytes",
                  "name": "data",
                  "type": "bytes"
                },
                {
                  "internalType": "enum Enum.Operation",
                  "name": "operation",
                  "type": "uint8"
                },
                {
                  "internalType": "uint256",
                  "name": "safeTxGas",
                  "type": "uint256"
                },
                {
                  "internalType": "uint256",
                  "name": "baseGas",
                  "type": "uint256"
                },
                {
                  "internalType": "uint256",
                  "name": "gasPrice",
                  "type": "uint256"
                },
                {
                  "internalType": "address",
                  "name": "gasToken",
                  "type": "address"
                },
                {
                  "internalType": "address payable",
                  "name": "refundReceiver",
                  "type": "address"
                },
                {
                  "internalType": "bytes",
                  "name": "signatures",
                  "type": "bytes"
                },
                {
                  "internalType": "uint256",
                  "name": "routerSigPosition",
                  "type": "uint256"
                }
              ],
              "internalType": "struct SafeRouter.SafeTx",
              "name": "safeTx",
              "type": "tuple"
            }
          ],
          "name": "safeExecuteWithPostBalances",
          "outputs": [],
          "stateMutability": "nonpayable",
          "type": "function"
        },
        {
          "inputs": [
            {
              "internalType": "contract ISafe",
              "name": "safe",
              "type": "address"
            },
            {
              "components": [
                {
                  "internalType": "string",
                  "name": "symbol",
                  "type": "string"
                },
                {
                  "internalType": "uint8",
                  "name": "decimals",
                  "type": "uint8"
                }
              ],
              "internalType": "struct BalanceMetadata[]",
              "name": "meta",
              "type": "tuple[]"
            },
            {
              "components": [
                {
                  "internalType": "address",
                  "name": "target",
                  "type": "address"
                },
                {
                  "internalType": "address",
                  "name": "token",
                  "type": "address"
                },
                {
                  "internalType": "int256",
                  "name": "balance",
                  "type": "int256"
                }
              ],
              "internalType": "struct IBalanceProxy.Balance[]",
              "name": "postBalances",
              "type": "tuple[]"
            },
            {
              "components": [
                {
                  "internalType": "address",
                  "name": "to",
                  "type": "address"
                },
                {
                  "internalType": "uint256",
                  "name": "value",
                  "type": "uint256"
                },
                {
                  "internalType": "bytes",
                  "name": "data",
                  "type": "bytes"
                },
                {
                  "internalType": "enum Enum.Operation",
                  "name": "operation",
                  "type": "uint8"
                },
                {
                  "internalType": "uint256",
                  "name": "safeTxGas",
                  "type": "uint256"
                },
                {
                  "internalType": "uint256",
                  "name": "baseGas",
                  "type": "uint256"
                },
                {
                  "internalType": "uint256",
                  "name": "gasPrice",
                  "type": "uint256"
                },
                {
                  "internalType": "address",
                  "name": "gasToken",
                  "type": "address"
                },
                {
                  "internalType": "address payable",
                  "name": "refundReceiver",
                  "type": "address"
                },
                {
                  "internalType": "bytes",
                  "name": "signatures",
                  "type": "bytes"
                },
                {
                  "internalType": "uint256",
                  "name": "routerSigPosition",
                  "type": "uint256"
                }
              ],
              "internalType": "struct SafeRouter.SafeTx",
              "name": "safeTx",
              "type": "tuple"
            }
          ],
          "name": "safeExecuteWithPostBalancesMeta",
          "outputs": [],
          "stateMutability": "nonpayable",
          "type": "function"
        }
      ],
      "devdoc": {
        "details": "The SafeRouter is added as a Safe owner without increasing the Safe      threshold. Human owners sign the original Safe transaction in Safe UI.      The final executor signs this wrapper on a hardware wallet. The router      then supplies its own Safe owner slot as a prevalidated signature and      executes the original Safe transaction atomically with balance checks.",
        "errors": {
          "SafeCastOverflowedUintToInt(uint256)": [
            {
              "details": "An uint value doesn't fit in an int of `bits` size."
            }
          ]
        },
        "kind": "dev",
        "methods": {
          "isValidSignature(bytes32,bytes)": {
            "details": "SafeRouter uses Safe's prevalidated-signature path (`v == 1`)      instead of EIP-1271 contract signatures (`v == 0`)."
          }
        },
        "title": "SafeRouter",
        "version": 1
      },
      "evm": {
        "bytecode": {
          "linkReferences": {},
          "object": "60a034606d57601f61114438819003918201601f19168301916001600160401b03831184841017607257808492602094604052833981010312606d57516001600160a01b0381168103606d576080526040516110bb908161008982396080518181816101170152610e070152f35b600080fd5b634e487b7160e01b600052604160045260246000fdfe6080604052600436101561001257600080fd5b60003560e01c80631626ba7e1461016657806392f82b0814610146578063abefb34514610101578063ae612819146100d3578063c68ba7f2146100a85763ee83e91e1461005e57600080fd5b346100a3576100a161008361009c610075366102e4565b929180959792829795610a50565b61008c856103ac565b610096848461050d565b9461062e565b610923565b005b600080fd5b346100a3576100a16100ce6100bc36610279565b909391926100c9816103ac565b61062e565b610d30565b346100a3576100a16100ce6100f86100ea366102e4565b939181979593819793610a50565b6100c9816103ac565b346100a35760003660031901126100a3576040517f00000000000000000000000000000000000000000000000000000000000000006001600160a01b03168152602090f35b346100a3576100a161009c61015a36610279565b61008c849592946103ac565b346100a35760403660031901126100a3576024356001600160401b0381116100a357366023820112156100a3578060040135906101a28261021a565b916101b060405193846101e3565b80835236602482840101116100a35760009281602460209401848301370101526040516001600160e01b03198152602090f35b90601f801991011681019081106001600160401b0382111761020457604052565b634e487b7160e01b600052604160045260246000fd5b6001600160401b03811161020457601f01601f191660200190565b35906001600160a01b03821682036100a357565b9181601f840112156100a3578235916001600160401b0383116100a357602080850194606085020101116100a357565b9060606003198301126100a3576004356001600160a01b03811681036100a357916024356001600160401b0381116100a357816102b891600401610249565b92909291604435906001600160401b0382116100a3576101609082900360031901126100a35760040190565b9060806003198301126100a3576004356001600160a01b03811681036100a35791602435916001600160401b0383116100a357816023840112156100a3578260040135926001600160401b0384116100a3578260248560051b830101116100a35760240192916044356001600160401b0381116100a3578161036891600401610249565b92909291606435906001600160401b0382116100a3576101609082900360031901126100a35760040190565b908160209103126100a3575180151581036100a35790565b6040516317aa5fb760e11b81523360048201526001600160a01b039190911690602081602481855afa90811561046557600091610489575b5015610471576040516317aa5fb760e11b8152306004820152602081602481855afa90811561046557600091610436575b501561041e5750565b63663cd0c560e11b6000523060045260245260446000fd5b610458915060203d60201161045e575b61045081836101e3565b810190610394565b38610415565b503d610446565b6040513d6000823e3d90fd5b634451317160e11b6000523360045260245260446000fd5b6104a2915060203d60201161045e5761045081836101e3565b386103e4565b6001600160401b0381116102045760051b60200190565b91908110156104cf576060020190565b634e487b7160e01b600052603260045260246000fd5b356001600160a01b03811681036100a35790565b80518210156104cf5760209160051b010190565b9190610518816104a8565b61052560405191826101e3565b818152601f19610534836104a8565b01366020830137809360005b83811061054d5750505050565b80610582610569602061056360019589886104bf565b016104e5565b61057c6105778489886104bf565b6104e5565b90610f7b565b61058c82866104f9565b5201610540565b903590601e19813603018212156100a357018035906001600160401b0382116100a3576020019181360383136100a357565b908060209392818452848401376000828201840152601f01601f1916010190565b60005b8381106105f95750506000910152565b81810151838201526020016105e9565b90602091610622815180928185528580860191016105e6565b601f01601f1916010190565b91909161063f610120840184610593565b604051631cea46b760e31b8152600095610140810135946001600160a01b03169390929091602081600481885afa9081156109185788916108e2575b50604182066108ce57604182048087116108b7576001810180911161088e578181106108a25750506040519060208201308152886040840152600160f81b6060840152604183526106cd6061846101e3565b60418702968088046041149015171561088e5781871161088a578861073795969798995050602088808601930393849261071f8b6040519c8d99868b01378801918483019360008552519384916105e6565b0101918237016000815203601f1981018552846101e3565b610740816104e5565b9261074e6040830183610593565b60608493929301359560028710156100a35761076c60e086016104e5565b6101008601356001600160a01b03811691908290036100a357602094610816926107ca604051988997889763353b090160e11b895260018060a01b03166004890152898c0135602489015261014060448901526101448801916105c5565b9260009b606487015260808a0135608487015260a08a013560a487015260c08a013560c487015260018060a01b031660e486015261010485015260031984830301610124850152610609565b038187875af190811561087f578491610860575b501561083557505050565b60449350610842906104e5565b6371995c9d60e11b83526004919091526001600160a01b0316602452fd5b610879915060203d60201161045e5761045081836101e3565b3861082a565b6040513d86823e3d90fd5b8880fd5b634e487b7160e01b89526011600452602489fd5b633562c20f60e11b8952600452602452604487fd5b636fe59b1d60e11b89526004879052602452604488fd5b630137b8c960e21b88526004829052602488fd5b90506020813d602011610910575b816108fd602093836101e3565b8101031261090c57513861067b565b8780fd5b3d91506108f0565b6040513d8a823e3d90fd5b60005b8281106109335750505050565b61096861095761094960206105638588886104bf565b61057c6105778588886104bf565b61096183876104f9565b5190611024565b60406109758386866104bf565b013581126109865750600101610926565b8260406109b5846109a060206105638a988960849b6104bf565b956109af6105778383886104bf565b946104bf565b6040516305c333e160e41b81526001600160a01b039586166004820152949092166024850152013560448301526064820152fd5b909291926109f68161021a565b91610a0460405193846101e3565b8294828452828201116100a3576020610a1e9301906105e6565b565b91908110156104cf5760051b81013590603e19813603018212156100a3570190565b3560ff811681036100a35790565b919091838303610d175760005b838110610a6b575050505050565b60006001600160a01b03610a856020610563858a896104bf565b16610bec57506040610a99815191826101e3565b600381526208aa8960eb1b60208201526012905b6040516020810190610adb6020828551610aca8187858a016105e6565b81010301601f1981018352826101e3565b519020610af2610aec858988610a20565b80610593565b610b1a602060405183819483830196873781016000838201520301601f1981018352826101e3565b51902014801590610bcd575b610b34575050600101610a5d565b60ff610baa610b766020610b7087610b68610aec828e9f868a9e9c9f610bc29e610b6193610563926104bf565b9e8b610a20565b9d9098610a20565b01610a42565b604051635591851960e01b81526001600160a01b0390991660048a015260a060248a0152979889989460a48a0191906105c5565b92166044870152858203600319016064870152610609565b911660848301520390fd5b5060ff610be06020610b70868a89610a20565b1660ff83161415610b26565b6004816001600160a01b03610c076020610563878c8b6104bf565b16604051928380926395d89b4160e01b82525afa918215610d0b578092610cb3575b506004905060206001600160a01b03610c4782610563878c8b6104bf565b166040519283809263313ce56760e01b82525afa90811561046557600091610c71575b5090610aad565b6020813d8211610cab575b81610c89602093836101e3565b81010312610ca757519060ff82168203610ca4575038610c6a565b80fd5b5080fd5b3d9150610c7c565b9091503d8082843e610cc581846101e3565b820191602081840312610ca7578051906001600160401b038211610d0757019082601f83011215610ca457508051610d0092916020016109e9565b3880610c29565b8280fd5b604051903d90823e3d90fd5b5050630a7df64d60e41b60005260045260245260446000fd5b9060019291602090604051610d4583826101e3565b60008152600095610f76575b60405191610d5f84846101e3565b86835260405163ce9506f960e01b815260a0600482015260a481018690529491928792869260c4840191855b818110610f1f57505050828103600319016024840152845180825290860194860190845b87828210610ed357505050508260448301528460408386039560031987016064860152858152601c83820197016084860152835180975201910193835b86828210610e93575050508192935003818360018060a01b037f0000000000000000000000000000000000000000000000000000000000000000165af1801561087f57610e3a575b50509050565b3d8085843e610e4981846101e3565b8201918181840312610e8b578051906001600160401b038211610e8f57019082601f83011215610e8b57610e82939450815191016109e9565b50803880610e34565b8480fd5b8580fd5b865180516001600160a01b039081168652602080830151909116908601526040908101519085015290950194899450879350606090920191600101610dec565b8351805180516001600160a01b039081168b52602080830151909116908b0152604090810151908a0152810151151560608901526080909701968b965089955090920191600101610daf565b93969550909350919060019060609081906001600160a01b03610f4188610235565b168152838060a01b03610f558b8901610235565b168a8201526040870135604082015201940191019089949592889492610d8b565b610d51565b6000906001600160a01b031680610f925750503190565b6040516370a0823160e01b81526001600160a01b039093166004840152909190602090829060249082905afa918215610d0b578092610fd057505090565b9091506020823d602011610ff9575b81610fec602093836101e3565b81010312610ca457505190565b3d9150610fdf565b9190820391821161100e57565b634e487b7160e01b600052601160045260246000fd5b90808210156110505761103f9161103a91611001565b611060565b600160ff1b811461100e5760000390565b61103a9061105d92611001565b90565b6001600160ff1b0381116110715790565b63123baf0360e11b60005260045260246000fdfea264697066735822122002f17c19a3aaa2a9bddc3e85e9dffe194559e8986ffa4a97bf93545c40d69c2164736f6c634300081b0033",
          "opcodes": "PUSH1 0xA0 CALLVALUE PUSH1 0x6D JUMPI PUSH1 0x1F PUSH2 0x1144 CODESIZE DUP2 SWAP1 SUB SWAP2 DUP3 ADD PUSH1 0x1F NOT AND DUP4 ADD SWAP2 PUSH1 0x1 PUSH1 0x1 PUSH1 0x40 SHL SUB DUP4 GT DUP5 DUP5 LT OR PUSH1 0x72 JUMPI DUP1 DUP5 SWAP3 PUSH1 0x20 SWAP5 PUSH1 0x40 MSTORE DUP4 CODECOPY DUP2 ADD SUB SLT PUSH1 0x6D JUMPI MLOAD PUSH1 0x1 PUSH1 0x1 PUSH1 0xA0 SHL SUB DUP2 AND DUP2 SUB PUSH1 0x6D JUMPI PUSH1 0x80 MSTORE PUSH1 0x40 MLOAD PUSH2 0x10BB SWAP1 DUP2 PUSH2 0x89 DUP3 CODECOPY PUSH1 0x80 MLOAD DUP2 DUP2 DUP2 PUSH2 0x117 ADD MSTORE PUSH2 0xE07 ADD MSTORE RETURN JUMPDEST PUSH1 0x0 DUP1 REVERT JUMPDEST PUSH4 0x4E487B71 PUSH1 0xE0 SHL PUSH1 0x0 MSTORE PUSH1 0x41 PUSH1 0x4 MSTORE PUSH1 0x24 PUSH1 0x0 REVERT INVALID PUSH1 0x80 PUSH1 0x40 MSTORE PUSH1 0x4 CALLDATASIZE LT ISZERO PUSH2 0x12 JUMPI PUSH1 0x0 DUP1 REVERT JUMPDEST PUSH1 0x0 CALLDATALOAD PUSH1 0xE0 SHR DUP1 PUSH4 0x1626BA7E EQ PUSH2 0x166 JUMPI DUP1 PUSH4 0x92F82B08 EQ PUSH2 0x146 JUMPI DUP1 PUSH4 0xABEFB345 EQ PUSH2 0x101 JUMPI DUP1 PUSH4 0xAE612819 EQ PUSH2 0xD3 JUMPI DUP1 PUSH4 0xC68BA7F2 EQ PUSH2 0xA8 JUMPI PUSH4 0xEE83E91E EQ PUSH2 0x5E JUMPI PUSH1 0x0 DUP1 REVERT JUMPDEST CALLVALUE PUSH2 0xA3 JUMPI PUSH2 0xA1 PUSH2 0x83 PUSH2 0x9C PUSH2 0x75 CALLDATASIZE PUSH2 0x2E4 JUMP JUMPDEST SWAP3 SWAP2 DUP1 SWAP6 SWAP8 SWAP3 DUP3 SWAP8 SWAP6 PUSH2 0xA50 JUMP JUMPDEST PUSH2 0x8C DUP6 PUSH2 0x3AC JUMP JUMPDEST PUSH2 0x96 DUP5 DUP5 PUSH2 0x50D JUMP JUMPDEST SWAP5 PUSH2 0x62E JUMP JUMPDEST PUSH2 0x923 JUMP JUMPDEST STOP JUMPDEST PUSH1 0x0 DUP1 REVERT JUMPDEST CALLVALUE PUSH2 0xA3 JUMPI PUSH2 0xA1 PUSH2 0xCE PUSH2 0xBC CALLDATASIZE PUSH2 0x279 JUMP JUMPDEST SWAP1 SWAP4 SWAP2 SWAP3 PUSH2 0xC9 DUP2 PUSH2 0x3AC JUMP JUMPDEST PUSH2 0x62E JUMP JUMPDEST PUSH2 0xD30 JUMP JUMPDEST CALLVALUE PUSH2 0xA3 JUMPI PUSH2 0xA1 PUSH2 0xCE PUSH2 0xF8 PUSH2 0xEA CALLDATASIZE PUSH2 0x2E4 JUMP JUMPDEST SWAP4 SWAP2 DUP2 SWAP8 SWAP6 SWAP4 DUP2 SWAP8 SWAP4 PUSH2 0xA50 JUMP JUMPDEST PUSH2 0xC9 DUP2 PUSH2 0x3AC JUMP JUMPDEST CALLVALUE PUSH2 0xA3 JUMPI PUSH1 0x0 CALLDATASIZE PUSH1 0x3 NOT ADD SLT PUSH2 0xA3 JUMPI PUSH1 0x40 MLOAD PUSH32 0x0 PUSH1 0x1 PUSH1 0x1 PUSH1 0xA0 SHL SUB AND DUP2 MSTORE PUSH1 0x20 SWAP1 RETURN JUMPDEST CALLVALUE PUSH2 0xA3 JUMPI PUSH2 0xA1 PUSH2 0x9C PUSH2 0x15A CALLDATASIZE PUSH2 0x279 JUMP JUMPDEST PUSH2 0x8C DUP5 SWAP6 SWAP3 SWAP5 PUSH2 0x3AC JUMP JUMPDEST CALLVALUE PUSH2 0xA3 JUMPI PUSH1 0x40 CALLDATASIZE PUSH1 0x3 NOT ADD SLT PUSH2 0xA3 JUMPI PUSH1 0x24 CALLDATALOAD PUSH1 0x1 PUSH1 0x1 PUSH1 0x40 SHL SUB DUP2 GT PUSH2 0xA3 JUMPI CALLDATASIZE PUSH1 0x23 DUP3 ADD SLT ISZERO PUSH2 0xA3 JUMPI DUP1 PUSH1 0x4 ADD CALLDATALOAD SWAP1 PUSH2 0x1A2 DUP3 PUSH2 0x21A JUMP JUMPDEST SWAP2 PUSH2 0x1B0 PUSH1 0x40 MLOAD SWAP4 DUP5 PUSH2 0x1E3 JUMP JUMPDEST DUP1 DUP4 MSTORE CALLDATASIZE PUSH1 0x24 DUP3 DUP5 ADD ADD GT PUSH2 0xA3 JUMPI PUSH1 0x0 SWAP3 DUP2 PUSH1 0x24 PUSH1 0x20 SWAP5 ADD DUP5 DUP4 ADD CALLDATACOPY ADD ADD MSTORE PUSH1 0x40 MLOAD PUSH1 0x1 PUSH1 0x1 PUSH1 0xE0 SHL SUB NOT DUP2 MSTORE PUSH1 0x20 SWAP1 RETURN JUMPDEST SWAP1 PUSH1 0x1F DUP1 NOT SWAP2 ADD AND DUP2 ADD SWAP1 DUP2 LT PUSH1 0x1 PUSH1 0x1 PUSH1 0x40 SHL SUB DUP3 GT OR PUSH2 0x204 JUMPI PUSH1 0x40 MSTORE JUMP JUMPDEST PUSH4 0x4E487B71 PUSH1 0xE0 SHL PUSH1 0x0 MSTORE PUSH1 0x41 PUSH1 0x4 MSTORE PUSH1 0x24 PUSH1 0x0 REVERT JUMPDEST PUSH1 0x1 PUSH1 0x1 PUSH1 0x40 SHL SUB DUP2 GT PUSH2 0x204 JUMPI PUSH1 0x1F ADD PUSH1 0x1F NOT AND PUSH1 0x20 ADD SWAP1 JUMP JUMPDEST CALLDATALOAD SWAP1 PUSH1 0x1 PUSH1 0x1 PUSH1 0xA0 SHL SUB DUP3 AND DUP3 SUB PUSH2 0xA3 JUMPI JUMP JUMPDEST SWAP2 DUP2 PUSH1 0x1F DUP5 ADD SLT ISZERO PUSH2 0xA3 JUMPI DUP3 CALLDATALOAD SWAP2 PUSH1 0x1 PUSH1 0x1 PUSH1 0x40 SHL SUB DUP4 GT PUSH2 0xA3 JUMPI PUSH1 0x20 DUP1 DUP6 ADD SWAP5 PUSH1 0x60 DUP6 MUL ADD ADD GT PUSH2 0xA3 JUMPI JUMP JUMPDEST SWAP1 PUSH1 0x60 PUSH1 0x3 NOT DUP4 ADD SLT PUSH2 0xA3 JUMPI PUSH1 0x4 CALLDATALOAD PUSH1 0x1 PUSH1 0x1 PUSH1 0xA0 SHL SUB DUP2 AND DUP2 SUB PUSH2 0xA3 JUMPI SWAP2 PUSH1 0x24 CALLDATALOAD PUSH1 0x1 PUSH1 0x1 PUSH1 0x40 SHL SUB DUP2 GT PUSH2 0xA3 JUMPI DUP2 PUSH2 0x2B8 SWAP2 PUSH1 0x4 ADD PUSH2 0x249 JUMP JUMPDEST SWAP3 SWAP1 SWAP3 SWAP2 PUSH1 0x44 CALLDATALOAD SWAP1 PUSH1 0x1 PUSH1 0x1 PUSH1 0x40 SHL SUB DUP3 GT PUSH2 0xA3 JUMPI PUSH2 0x160 SWAP1 DUP3 SWAP1 SUB PUSH1 0x3 NOT ADD SLT PUSH2 0xA3 JUMPI PUSH1 0x4 ADD SWAP1 JUMP JUMPDEST SWAP1 PUSH1 0x80 PUSH1 0x3 NOT DUP4 ADD SLT PUSH2 0xA3 JUMPI PUSH1 0x4 CALLDATALOAD PUSH1 0x1 PUSH1 0x1 PUSH1 0xA0 SHL SUB DUP2 AND DUP2 SUB PUSH2 0xA3 JUMPI SWAP2 PUSH1 0x24 CALLDATALOAD SWAP2 PUSH1 0x1 PUSH1 0x1 PUSH1 0x40 SHL SUB DUP4 GT PUSH2 0xA3 JUMPI DUP2 PUSH1 0x23 DUP5 ADD SLT ISZERO PUSH2 0xA3 JUMPI DUP3 PUSH1 0x4 ADD CALLDATALOAD SWAP3 PUSH1 0x1 PUSH1 0x1 PUSH1 0x40 SHL SUB DUP5 GT PUSH2 0xA3 JUMPI DUP3 PUSH1 0x24 DUP6 PUSH1 0x5 SHL DUP4 ADD ADD GT PUSH2 0xA3 JUMPI PUSH1 0x24 ADD SWAP3 SWAP2 PUSH1 0x44 CALLDATALOAD PUSH1 0x1 PUSH1 0x1 PUSH1 0x40 SHL SUB DUP2 GT PUSH2 0xA3 JUMPI DUP2 PUSH2 0x368 SWAP2 PUSH1 0x4 ADD PUSH2 0x249 JUMP JUMPDEST SWAP3 SWAP1 SWAP3 SWAP2 PUSH1 0x64 CALLDATALOAD SWAP1 PUSH1 0x1 PUSH1 0x1 PUSH1 0x40 SHL SUB DUP3 GT PUSH2 0xA3 JUMPI PUSH2 0x160 SWAP1 DUP3 SWAP1 SUB PUSH1 0x3 NOT ADD SLT PUSH2 0xA3 JUMPI PUSH1 0x4 ADD SWAP1 JUMP JUMPDEST SWAP1 DUP2 PUSH1 0x20 SWAP2 SUB SLT PUSH2 0xA3 JUMPI MLOAD DUP1 ISZERO ISZERO DUP2 SUB PUSH2 0xA3 JUMPI SWAP1 JUMP JUMPDEST PUSH1 0x40 MLOAD PUSH4 0x17AA5FB7 PUSH1 0xE1 SHL DUP2 MSTORE CALLER PUSH1 0x4 DUP3 ADD MSTORE PUSH1 0x1 PUSH1 0x1 PUSH1 0xA0 SHL SUB SWAP2 SWAP1 SWAP2 AND SWAP1 PUSH1 0x20 DUP2 PUSH1 0x24 DUP2 DUP6 GAS STATICCALL SWAP1 DUP2 ISZERO PUSH2 0x465 JUMPI PUSH1 0x0 SWAP2 PUSH2 0x489 JUMPI JUMPDEST POP ISZERO PUSH2 0x471 JUMPI PUSH1 0x40 MLOAD PUSH4 0x17AA5FB7 PUSH1 0xE1 SHL DUP2 MSTORE ADDRESS PUSH1 0x4 DUP3 ADD MSTORE PUSH1 0x20 DUP2 PUSH1 0x24 DUP2 DUP6 GAS STATICCALL SWAP1 DUP2 ISZERO PUSH2 0x465 JUMPI PUSH1 0x0 SWAP2 PUSH2 0x436 JUMPI JUMPDEST POP ISZERO PUSH2 0x41E JUMPI POP JUMP JUMPDEST PUSH4 0x663CD0C5 PUSH1 0xE1 SHL PUSH1 0x0 MSTORE ADDRESS PUSH1 0x4 MSTORE PUSH1 0x24 MSTORE PUSH1 0x44 PUSH1 0x0 REVERT JUMPDEST PUSH2 0x458 SWAP2 POP PUSH1 0x20 RETURNDATASIZE PUSH1 0x20 GT PUSH2 0x45E JUMPI JUMPDEST PUSH2 0x450 DUP2 DUP4 PUSH2 0x1E3 JUMP JUMPDEST DUP2 ADD SWAP1 PUSH2 0x394 JUMP JUMPDEST CODESIZE PUSH2 0x415 JUMP JUMPDEST POP RETURNDATASIZE PUSH2 0x446 JUMP JUMPDEST PUSH1 0x40 MLOAD RETURNDATASIZE PUSH1 0x0 DUP3 RETURNDATACOPY RETURNDATASIZE SWAP1 REVERT JUMPDEST PUSH4 0x44513171 PUSH1 0xE1 SHL PUSH1 0x0 MSTORE CALLER PUSH1 0x4 MSTORE PUSH1 0x24 MSTORE PUSH1 0x44 PUSH1 0x0 REVERT JUMPDEST PUSH2 0x4A2 SWAP2 POP PUSH1 0x20 RETURNDATASIZE PUSH1 0x20 GT PUSH2 0x45E JUMPI PUSH2 0x450 DUP2 DUP4 PUSH2 0x1E3 JUMP JUMPDEST CODESIZE PUSH2 0x3E4 JUMP JUMPDEST PUSH1 0x1 PUSH1 0x1 PUSH1 0x40 SHL SUB DUP2 GT PUSH2 0x204 JUMPI PUSH1 0x5 SHL PUSH1 0x20 ADD SWAP1 JUMP JUMPDEST SWAP2 SWAP1 DUP2 LT ISZERO PUSH2 0x4CF JUMPI PUSH1 0x60 MUL ADD SWAP1 JUMP JUMPDEST PUSH4 0x4E487B71 PUSH1 0xE0 SHL PUSH1 0x0 MSTORE PUSH1 0x32 PUSH1 0x4 MSTORE PUSH1 0x24 PUSH1 0x0 REVERT JUMPDEST CALLDATALOAD PUSH1 0x1 PUSH1 0x1 PUSH1 0xA0 SHL SUB DUP2 AND DUP2 SUB PUSH2 0xA3 JUMPI SWAP1 JUMP JUMPDEST DUP1 MLOAD DUP3 LT ISZERO PUSH2 0x4CF JUMPI PUSH1 0x20 SWAP2 PUSH1 0x5 SHL ADD ADD SWAP1 JUMP JUMPDEST SWAP2 SWAP1 PUSH2 0x518 DUP2 PUSH2 0x4A8 JUMP JUMPDEST PUSH2 0x525 PUSH1 0x40 MLOAD SWAP2 DUP3 PUSH2 0x1E3 JUMP JUMPDEST DUP2 DUP2 MSTORE PUSH1 0x1F NOT PUSH2 0x534 DUP4 PUSH2 0x4A8 JUMP JUMPDEST ADD CALLDATASIZE PUSH1 0x20 DUP4 ADD CALLDATACOPY DUP1 SWAP4 PUSH1 0x0 JUMPDEST DUP4 DUP2 LT PUSH2 0x54D JUMPI POP POP POP POP JUMP JUMPDEST DUP1 PUSH2 0x582 PUSH2 0x569 PUSH1 0x20 PUSH2 0x563 PUSH1 0x1 SWAP6 DUP10 DUP9 PUSH2 0x4BF JUMP JUMPDEST ADD PUSH2 0x4E5 JUMP JUMPDEST PUSH2 0x57C PUSH2 0x577 DUP5 DUP10 DUP9 PUSH2 0x4BF JUMP JUMPDEST PUSH2 0x4E5 JUMP JUMPDEST SWAP1 PUSH2 0xF7B JUMP JUMPDEST PUSH2 0x58C DUP3 DUP7 PUSH2 0x4F9 JUMP JUMPDEST MSTORE ADD PUSH2 0x540 JUMP JUMPDEST SWAP1 CALLDATALOAD SWAP1 PUSH1 0x1E NOT DUP2 CALLDATASIZE SUB ADD DUP3 SLT ISZERO PUSH2 0xA3 JUMPI ADD DUP1 CALLDATALOAD SWAP1 PUSH1 0x1 PUSH1 0x1 PUSH1 0x40 SHL SUB DUP3 GT PUSH2 0xA3 JUMPI PUSH1 0x20 ADD SWAP2 DUP2 CALLDATASIZE SUB DUP4 SGT PUSH2 0xA3 JUMPI JUMP JUMPDEST SWAP1 DUP1 PUSH1 0x20 SWAP4 SWAP3 DUP2 DUP5 MSTORE DUP5 DUP5 ADD CALLDATACOPY PUSH1 0x0 DUP3 DUP3 ADD DUP5 ADD MSTORE PUSH1 0x1F ADD PUSH1 0x1F NOT AND ADD ADD SWAP1 JUMP JUMPDEST PUSH1 0x0 JUMPDEST DUP4 DUP2 LT PUSH2 0x5F9 JUMPI POP POP PUSH1 0x0 SWAP2 ADD MSTORE JUMP JUMPDEST DUP2 DUP2 ADD MLOAD DUP4 DUP3 ADD MSTORE PUSH1 0x20 ADD PUSH2 0x5E9 JUMP JUMPDEST SWAP1 PUSH1 0x20 SWAP2 PUSH2 0x622 DUP2 MLOAD DUP1 SWAP3 DUP2 DUP6 MSTORE DUP6 DUP1 DUP7 ADD SWAP2 ADD PUSH2 0x5E6 JUMP JUMPDEST PUSH1 0x1F ADD PUSH1 0x1F NOT AND ADD ADD SWAP1 JUMP JUMPDEST SWAP2 SWAP1 SWAP2 PUSH2 0x63F PUSH2 0x120 DUP5 ADD DUP5 PUSH2 0x593 JUMP JUMPDEST PUSH1 0x40 MLOAD PUSH4 0x1CEA46B7 PUSH1 0xE3 SHL DUP2 MSTORE PUSH1 0x0 SWAP6 PUSH2 0x140 DUP2 ADD CALLDATALOAD SWAP5 PUSH1 0x1 PUSH1 0x1 PUSH1 0xA0 SHL SUB AND SWAP4 SWAP1 SWAP3 SWAP1 SWAP2 PUSH1 0x20 DUP2 PUSH1 0x4 DUP2 DUP9 GAS STATICCALL SWAP1 DUP2 ISZERO PUSH2 0x918 JUMPI DUP9 SWAP2 PUSH2 0x8E2 JUMPI JUMPDEST POP PUSH1 0x41 DUP3 MOD PUSH2 0x8CE JUMPI PUSH1 0x41 DUP3 DIV DUP1 DUP8 GT PUSH2 0x8B7 JUMPI PUSH1 0x1 DUP2 ADD DUP1 SWAP2 GT PUSH2 0x88E JUMPI DUP2 DUP2 LT PUSH2 0x8A2 JUMPI POP POP PUSH1 0x40 MLOAD SWAP1 PUSH1 0x20 DUP3 ADD ADDRESS DUP2 MSTORE DUP9 PUSH1 0x40 DUP5 ADD MSTORE PUSH1 0x1 PUSH1 0xF8 SHL PUSH1 0x60 DUP5 ADD MSTORE PUSH1 0x41 DUP4 MSTORE PUSH2 0x6CD PUSH1 0x61 DUP5 PUSH2 0x1E3 JUMP JUMPDEST PUSH1 0x41 DUP8 MUL SWAP7 DUP1 DUP9 DIV PUSH1 0x41 EQ SWAP1 ISZERO OR ISZERO PUSH2 0x88E JUMPI DUP2 DUP8 GT PUSH2 0x88A JUMPI DUP9 PUSH2 0x737 SWAP6 SWAP7 SWAP8 SWAP9 SWAP10 POP POP PUSH1 0x20 DUP9 DUP1 DUP7 ADD SWAP4 SUB SWAP4 DUP5 SWAP3 PUSH2 0x71F DUP12 PUSH1 0x40 MLOAD SWAP13 DUP14 SWAP10 DUP7 DUP12 ADD CALLDATACOPY DUP9 ADD SWAP2 DUP5 DUP4 ADD SWAP4 PUSH1 0x0 DUP6 MSTORE MLOAD SWAP4 DUP5 SWAP2 PUSH2 0x5E6 JUMP JUMPDEST ADD ADD SWAP2 DUP3 CALLDATACOPY ADD PUSH1 0x0 DUP2 MSTORE SUB PUSH1 0x1F NOT DUP2 ADD DUP6 MSTORE DUP5 PUSH2 0x1E3 JUMP JUMPDEST PUSH2 0x740 DUP2 PUSH2 0x4E5 JUMP JUMPDEST SWAP3 PUSH2 0x74E PUSH1 0x40 DUP4 ADD DUP4 PUSH2 0x593 JUMP JUMPDEST PUSH1 0x60 DUP5 SWAP4 SWAP3 SWAP4 ADD CALLDATALOAD SWAP6 PUSH1 0x2 DUP8 LT ISZERO PUSH2 0xA3 JUMPI PUSH2 0x76C PUSH1 0xE0 DUP7 ADD PUSH2 0x4E5 JUMP JUMPDEST PUSH2 0x100 DUP7 ADD CALLDATALOAD PUSH1 0x1 PUSH1 0x1 PUSH1 0xA0 SHL SUB DUP2 AND SWAP2 SWAP1 DUP3 SWAP1 SUB PUSH2 0xA3 JUMPI PUSH1 0x20 SWAP5 PUSH2 0x816 SWAP3 PUSH2 0x7CA PUSH1 0x40 MLOAD SWAP9 DUP10 SWAP8 DUP9 SWAP8 PUSH4 0x353B0901 PUSH1 0xE1 SHL DUP10 MSTORE PUSH1 0x1 DUP1 PUSH1 0xA0 SHL SUB AND PUSH1 0x4 DUP10 ADD MSTORE DUP10 DUP13 ADD CALLDATALOAD PUSH1 0x24 DUP10 ADD MSTORE PUSH2 0x140 PUSH1 0x44 DUP10 ADD MSTORE PUSH2 0x144 DUP9 ADD SWAP2 PUSH2 0x5C5 JUMP JUMPDEST SWAP3 PUSH1 0x0 SWAP12 PUSH1 0x64 DUP8 ADD MSTORE PUSH1 0x80 DUP11 ADD CALLDATALOAD PUSH1 0x84 DUP8 ADD MSTORE PUSH1 0xA0 DUP11 ADD CALLDATALOAD PUSH1 0xA4 DUP8 ADD MSTORE PUSH1 0xC0 DUP11 ADD CALLDATALOAD PUSH1 0xC4 DUP8 ADD MSTORE PUSH1 0x1 DUP1 PUSH1 0xA0 SHL SUB AND PUSH1 0xE4 DUP7 ADD MSTORE PUSH2 0x104 DUP6 ADD MSTORE PUSH1 0x3 NOT DUP5 DUP4 SUB ADD PUSH2 0x124 DUP6 ADD MSTORE PUSH2 0x609 JUMP JUMPDEST SUB DUP2 DUP8 DUP8 GAS CALL SWAP1 DUP2 ISZERO PUSH2 0x87F JUMPI DUP5 SWAP2 PUSH2 0x860 JUMPI JUMPDEST POP ISZERO PUSH2 0x835 JUMPI POP POP POP JUMP JUMPDEST PUSH1 0x44 SWAP4 POP PUSH2 0x842 SWAP1 PUSH2 0x4E5 JUMP JUMPDEST PUSH4 0x71995C9D PUSH1 0xE1 SHL DUP4 MSTORE PUSH1 0x4 SWAP2 SWAP1 SWAP2 MSTORE PUSH1 0x1 PUSH1 0x1 PUSH1 0xA0 SHL SUB AND PUSH1 0x24 MSTORE REVERT JUMPDEST PUSH2 0x879 SWAP2 POP PUSH1 0x20 RETURNDATASIZE PUSH1 0x20 GT PUSH2 0x45E JUMPI PUSH2 0x450 DUP2 DUP4 PUSH2 0x1E3 JUMP JUMPDEST CODESIZE PUSH2 0x82A JUMP JUMPDEST PUSH1 0x40 MLOAD RETURNDATASIZE DUP7 DUP3 RETURNDATACOPY RETURNDATASIZE SWAP1 REVERT JUMPDEST DUP9 DUP1 REVERT JUMPDEST PUSH4 0x4E487B71 PUSH1 0xE0 SHL DUP10 MSTORE PUSH1 0x11 PUSH1 0x4 MSTORE PUSH1 0x24 DUP10 REVERT JUMPDEST PUSH4 0x3562C20F PUSH1 0xE1 SHL DUP10 MSTORE PUSH1 0x4 MSTORE PUSH1 0x24 MSTORE PUSH1 0x44 DUP8 REVERT JUMPDEST PUSH4 0x6FE59B1D PUSH1 0xE1 SHL DUP10 MSTORE PUSH1 0x4 DUP8 SWAP1 MSTORE PUSH1 0x24 MSTORE PUSH1 0x44 DUP9 REVERT JUMPDEST PUSH4 0x137B8C9 PUSH1 0xE2 SHL DUP9 MSTORE PUSH1 0x4 DUP3 SWAP1 MSTORE PUSH1 0x24 DUP9 REVERT JUMPDEST SWAP1 POP PUSH1 0x20 DUP2 RETURNDATASIZE PUSH1 0x20 GT PUSH2 0x910 JUMPI JUMPDEST DUP2 PUSH2 0x8FD PUSH1 0x20 SWAP4 DUP4 PUSH2 0x1E3 JUMP JUMPDEST DUP2 ADD SUB SLT PUSH2 0x90C JUMPI MLOAD CODESIZE PUSH2 0x67B JUMP JUMPDEST DUP8 DUP1 REVERT JUMPDEST RETURNDATASIZE SWAP2 POP PUSH2 0x8F0 JUMP JUMPDEST PUSH1 0x40 MLOAD RETURNDATASIZE DUP11 DUP3 RETURNDATACOPY RETURNDATASIZE SWAP1 REVERT JUMPDEST PUSH1 0x0 JUMPDEST DUP3 DUP2 LT PUSH2 0x933 JUMPI POP POP POP POP JUMP JUMPDEST PUSH2 0x968 PUSH2 0x957 PUSH2 0x949 PUSH1 0x20 PUSH2 0x563 DUP6 DUP9 DUP9 PUSH2 0x4BF JUMP JUMPDEST PUSH2 0x57C PUSH2 0x577 DUP6 DUP9 DUP9 PUSH2 0x4BF JUMP JUMPDEST PUSH2 0x961 DUP4 DUP8 PUSH2 0x4F9 JUMP JUMPDEST MLOAD SWAP1 PUSH2 0x1024 JUMP JUMPDEST PUSH1 0x40 PUSH2 0x975 DUP4 DUP7 DUP7 PUSH2 0x4BF JUMP JUMPDEST ADD CALLDATALOAD DUP2 SLT PUSH2 0x986 JUMPI POP PUSH1 0x1 ADD PUSH2 0x926 JUMP JUMPDEST DUP3 PUSH1 0x40 PUSH2 0x9B5 DUP5 PUSH2 0x9A0 PUSH1 0x20 PUSH2 0x563 DUP11 SWAP9 DUP10 PUSH1 0x84 SWAP12 PUSH2 0x4BF JUMP JUMPDEST SWAP6 PUSH2 0x9AF PUSH2 0x577 DUP4 DUP4 DUP9 PUSH2 0x4BF JUMP JUMPDEST SWAP5 PUSH2 0x4BF JUMP JUMPDEST PUSH1 0x40 MLOAD PUSH4 0x5C333E1 PUSH1 0xE4 SHL DUP2 MSTORE PUSH1 0x1 PUSH1 0x1 PUSH1 0xA0 SHL SUB SWAP6 DUP7 AND PUSH1 0x4 DUP3 ADD MSTORE SWAP5 SWAP1 SWAP3 AND PUSH1 0x24 DUP6 ADD MSTORE ADD CALLDATALOAD PUSH1 0x44 DUP4 ADD MSTORE PUSH1 0x64 DUP3 ADD MSTORE REVERT JUMPDEST SWAP1 SWAP3 SWAP2 SWAP3 PUSH2 0x9F6 DUP2 PUSH2 0x21A JUMP JUMPDEST SWAP2 PUSH2 0xA04 PUSH1 0x40 MLOAD SWAP4 DUP5 PUSH2 0x1E3 JUMP JUMPDEST DUP3 SWAP5 DUP3 DUP5 MSTORE DUP3 DUP3 ADD GT PUSH2 0xA3 JUMPI PUSH1 0x20 PUSH2 0xA1E SWAP4 ADD SWAP1 PUSH2 0x5E6 JUMP JUMPDEST JUMP JUMPDEST SWAP2 SWAP1 DUP2 LT ISZERO PUSH2 0x4CF JUMPI PUSH1 0x5 SHL DUP2 ADD CALLDATALOAD SWAP1 PUSH1 0x3E NOT DUP2 CALLDATASIZE SUB ADD DUP3 SLT ISZERO PUSH2 0xA3 JUMPI ADD SWAP1 JUMP JUMPDEST CALLDATALOAD PUSH1 0xFF DUP2 AND DUP2 SUB PUSH2 0xA3 JUMPI SWAP1 JUMP JUMPDEST SWAP2 SWAP1 SWAP2 DUP4 DUP4 SUB PUSH2 0xD17 JUMPI PUSH1 0x0 JUMPDEST DUP4 DUP2 LT PUSH2 0xA6B JUMPI POP POP POP POP POP JUMP JUMPDEST PUSH1 0x0 PUSH1 0x1 PUSH1 0x1 PUSH1 0xA0 SHL SUB PUSH2 0xA85 PUSH1 0x20 PUSH2 0x563 DUP6 DUP11 DUP10 PUSH2 0x4BF JUMP JUMPDEST AND PUSH2 0xBEC JUMPI POP PUSH1 0x40 PUSH2 0xA99 DUP2 MLOAD SWAP2 DUP3 PUSH2 0x1E3 JUMP JUMPDEST PUSH1 0x3 DUP2 MSTORE PUSH3 0x8AA89 PUSH1 0xEB SHL PUSH1 0x20 DUP3 ADD MSTORE PUSH1 0x12 SWAP1 JUMPDEST PUSH1 0x40 MLOAD PUSH1 0x20 DUP2 ADD SWAP1 PUSH2 0xADB PUSH1 0x20 DUP3 DUP6 MLOAD PUSH2 0xACA DUP2 DUP8 DUP6 DUP11 ADD PUSH2 0x5E6 JUMP JUMPDEST DUP2 ADD SUB ADD PUSH1 0x1F NOT DUP2 ADD DUP4 MSTORE DUP3 PUSH2 0x1E3 JUMP JUMPDEST MLOAD SWAP1 KECCAK256 PUSH2 0xAF2 PUSH2 0xAEC DUP6 DUP10 DUP9 PUSH2 0xA20 JUMP JUMPDEST DUP1 PUSH2 0x593 JUMP JUMPDEST PUSH2 0xB1A PUSH1 0x20 PUSH1 0x40 MLOAD DUP4 DUP2 SWAP5 DUP4 DUP4 ADD SWAP7 DUP8 CALLDATACOPY DUP2 ADD PUSH1 0x0 DUP4 DUP3 ADD MSTORE SUB ADD PUSH1 0x1F NOT DUP2 ADD DUP4 MSTORE DUP3 PUSH2 0x1E3 JUMP JUMPDEST MLOAD SWAP1 KECCAK256 EQ DUP1 ISZERO SWAP1 PUSH2 0xBCD JUMPI JUMPDEST PUSH2 0xB34 JUMPI POP POP PUSH1 0x1 ADD PUSH2 0xA5D JUMP JUMPDEST PUSH1 0xFF PUSH2 0xBAA PUSH2 0xB76 PUSH1 0x20 PUSH2 0xB70 DUP8 PUSH2 0xB68 PUSH2 0xAEC DUP3 DUP15 SWAP16 DUP7 DUP11 SWAP15 SWAP13 SWAP16 PUSH2 0xBC2 SWAP15 PUSH2 0xB61 SWAP4 PUSH2 0x563 SWAP3 PUSH2 0x4BF JUMP JUMPDEST SWAP15 DUP12 PUSH2 0xA20 JUMP JUMPDEST SWAP14 SWAP1 SWAP9 PUSH2 0xA20 JUMP JUMPDEST ADD PUSH2 0xA42 JUMP JUMPDEST PUSH1 0x40 MLOAD PUSH4 0x55918519 PUSH1 0xE0 SHL DUP2 MSTORE PUSH1 0x1 PUSH1 0x1 PUSH1 0xA0 SHL SUB SWAP1 SWAP10 AND PUSH1 0x4 DUP11 ADD MSTORE PUSH1 0xA0 PUSH1 0x24 DUP11 ADD MSTORE SWAP8 SWAP9 DUP10 SWAP9 SWAP5 PUSH1 0xA4 DUP11 ADD SWAP2 SWAP1 PUSH2 0x5C5 JUMP JUMPDEST SWAP3 AND PUSH1 0x44 DUP8 ADD MSTORE DUP6 DUP3 SUB PUSH1 0x3 NOT ADD PUSH1 0x64 DUP8 ADD MSTORE PUSH2 0x609 JUMP JUMPDEST SWAP2 AND PUSH1 0x84 DUP4 ADD MSTORE SUB SWAP1 REVERT JUMPDEST POP PUSH1 0xFF PUSH2 0xBE0 PUSH1 0x20 PUSH2 0xB70 DUP7 DUP11 DUP10 PUSH2 0xA20 JUMP JUMPDEST AND PUSH1 0xFF DUP4 AND EQ ISZERO PUSH2 0xB26 JUMP JUMPDEST PUSH1 0x4 DUP2 PUSH1 0x1 PUSH1 0x1 PUSH1 0xA0 SHL SUB PUSH2 0xC07 PUSH1 0x20 PUSH2 0x563 DUP8 DUP13 DUP12 PUSH2 0x4BF JUMP JUMPDEST AND PUSH1 0x40 MLOAD SWAP3 DUP4 DUP1 SWAP3 PUSH4 0x95D89B41 PUSH1 0xE0 SHL DUP3 MSTORE GAS STATICCALL SWAP2 DUP3 ISZERO PUSH2 0xD0B JUMPI DUP1 SWAP3 PUSH2 0xCB3 JUMPI JUMPDEST POP PUSH1 0x4 SWAP1 POP PUSH1 0x20 PUSH1 0x1 PUSH1 0x1 PUSH1 0xA0 SHL SUB PUSH2 0xC47 DUP3 PUSH2 0x563 DUP8 DUP13 DUP12 PUSH2 0x4BF JUMP JUMPDEST AND PUSH1 0x40 MLOAD SWAP3 DUP4 DUP1 SWAP3 PUSH4 0x313CE567 PUSH1 0xE0 SHL DUP3 MSTORE GAS STATICCALL SWAP1 DUP2 ISZERO PUSH2 0x465 JUMPI PUSH1 0x0 SWAP2 PUSH2 0xC71 JUMPI JUMPDEST POP SWAP1 PUSH2 0xAAD JUMP JUMPDEST PUSH1 0x20 DUP2 RETURNDATASIZE DUP3 GT PUSH2 0xCAB JUMPI JUMPDEST DUP2 PUSH2 0xC89 PUSH1 0x20 SWAP4 DUP4 PUSH2 0x1E3 JUMP JUMPDEST DUP2 ADD SUB SLT PUSH2 0xCA7 JUMPI MLOAD SWAP1 PUSH1 0xFF DUP3 AND DUP3 SUB PUSH2 0xCA4 JUMPI POP CODESIZE PUSH2 0xC6A JUMP JUMPDEST DUP1 REVERT JUMPDEST POP DUP1 REVERT JUMPDEST RETURNDATASIZE SWAP2 POP PUSH2 0xC7C JUMP JUMPDEST SWAP1 SWAP2 POP RETURNDATASIZE DUP1 DUP3 DUP5 RETURNDATACOPY PUSH2 0xCC5 DUP2 DUP5 PUSH2 0x1E3 JUMP JUMPDEST DUP3 ADD SWAP2 PUSH1 0x20 DUP2 DUP5 SUB SLT PUSH2 0xCA7 JUMPI DUP1 MLOAD SWAP1 PUSH1 0x1 PUSH1 0x1 PUSH1 0x40 SHL SUB DUP3 GT PUSH2 0xD07 JUMPI ADD SWAP1 DUP3 PUSH1 0x1F DUP4 ADD SLT ISZERO PUSH2 0xCA4 JUMPI POP DUP1 MLOAD PUSH2 0xD00 SWAP3 SWAP2 PUSH1 0x20 ADD PUSH2 0x9E9 JUMP JUMPDEST CODESIZE DUP1 PUSH2 0xC29 JUMP JUMPDEST DUP3 DUP1 REVERT JUMPDEST PUSH1 0x40 MLOAD SWAP1 RETURNDATASIZE SWAP1 DUP3 RETURNDATACOPY RETURNDATASIZE SWAP1 REVERT JUMPDEST POP POP PUSH4 0xA7DF64D PUSH1 0xE4 SHL PUSH1 0x0 MSTORE PUSH1 0x4 MSTORE PUSH1 0x24 MSTORE PUSH1 0x44 PUSH1 0x0 REVERT JUMPDEST SWAP1 PUSH1 0x1 SWAP3 SWAP2 PUSH1 0x20 SWAP1 PUSH1 0x40 MLOAD PUSH2 0xD45 DUP4 DUP3 PUSH2 0x1E3 JUMP JUMPDEST PUSH1 0x0 DUP2 MSTORE PUSH1 0x0 SWAP6 PUSH2 0xF76 JUMPI JUMPDEST PUSH1 0x40 MLOAD SWAP2 PUSH2 0xD5F DUP5 DUP5 PUSH2 0x1E3 JUMP JUMPDEST DUP7 DUP4 MSTORE PUSH1 0x40 MLOAD PUSH4 0xCE9506F9 PUSH1 0xE0 SHL DUP2 MSTORE PUSH1 0xA0 PUSH1 0x4 DUP3 ADD MSTORE PUSH1 0xA4 DUP2 ADD DUP7 SWAP1 MSTORE SWAP5 SWAP2 SWAP3 DUP8 SWAP3 DUP7 SWAP3 PUSH1 0xC4 DUP5 ADD SWAP2 DUP6 JUMPDEST DUP2 DUP2 LT PUSH2 0xF1F JUMPI POP POP POP DUP3 DUP2 SUB PUSH1 0x3 NOT ADD PUSH1 0x24 DUP5 ADD MSTORE DUP5 MLOAD DUP1 DUP3 MSTORE SWAP1 DUP7 ADD SWAP5 DUP7 ADD SWAP1 DUP5 JUMPDEST DUP8 DUP3 DUP3 LT PUSH2 0xED3 JUMPI POP POP POP POP DUP3 PUSH1 0x44 DUP4 ADD MSTORE DUP5 PUSH1 0x40 DUP4 DUP7 SUB SWAP6 PUSH1 0x3 NOT DUP8 ADD PUSH1 0x64 DUP7 ADD MSTORE DUP6 DUP2 MSTORE PUSH1 0x1C DUP4 DUP3 ADD SWAP8 ADD PUSH1 0x84 DUP7 ADD MSTORE DUP4 MLOAD DUP1 SWAP8 MSTORE ADD SWAP2 ADD SWAP4 DUP4 JUMPDEST DUP7 DUP3 DUP3 LT PUSH2 0xE93 JUMPI POP POP POP DUP2 SWAP3 SWAP4 POP SUB DUP2 DUP4 PUSH1 0x1 DUP1 PUSH1 0xA0 SHL SUB PUSH32 0x0 AND GAS CALL DUP1 ISZERO PUSH2 0x87F JUMPI PUSH2 0xE3A JUMPI JUMPDEST POP POP SWAP1 POP JUMP JUMPDEST RETURNDATASIZE DUP1 DUP6 DUP5 RETURNDATACOPY PUSH2 0xE49 DUP2 DUP5 PUSH2 0x1E3 JUMP JUMPDEST DUP3 ADD SWAP2 DUP2 DUP2 DUP5 SUB SLT PUSH2 0xE8B JUMPI DUP1 MLOAD SWAP1 PUSH1 0x1 PUSH1 0x1 PUSH1 0x40 SHL SUB DUP3 GT PUSH2 0xE8F JUMPI ADD SWAP1 DUP3 PUSH1 0x1F DUP4 ADD SLT ISZERO PUSH2 0xE8B JUMPI PUSH2 0xE82 SWAP4 SWAP5 POP DUP2 MLOAD SWAP2 ADD PUSH2 0x9E9 JUMP JUMPDEST POP DUP1 CODESIZE DUP1 PUSH2 0xE34 JUMP JUMPDEST DUP5 DUP1 REVERT JUMPDEST DUP6 DUP1 REVERT JUMPDEST DUP7 MLOAD DUP1 MLOAD PUSH1 0x1 PUSH1 0x1 PUSH1 0xA0 SHL SUB SWAP1 DUP2 AND DUP7 MSTORE PUSH1 0x20 DUP1 DUP4 ADD MLOAD SWAP1 SWAP2 AND SWAP1 DUP7 ADD MSTORE PUSH1 0x40 SWAP1 DUP2 ADD MLOAD SWAP1 DUP6 ADD MSTORE SWAP1 SWAP6 ADD SWAP5 DUP10 SWAP5 POP DUP8 SWAP4 POP PUSH1 0x60 SWAP1 SWAP3 ADD SWAP2 PUSH1 0x1 ADD PUSH2 0xDEC JUMP JUMPDEST DUP4 MLOAD DUP1 MLOAD DUP1 MLOAD PUSH1 0x1 PUSH1 0x1 PUSH1 0xA0 SHL SUB SWAP1 DUP2 AND DUP12 MSTORE PUSH1 0x20 DUP1 DUP4 ADD MLOAD SWAP1 SWAP2 AND SWAP1 DUP12 ADD MSTORE PUSH1 0x40 SWAP1 DUP2 ADD MLOAD SWAP1 DUP11 ADD MSTORE DUP2 ADD MLOAD ISZERO ISZERO PUSH1 0x60 DUP10 ADD MSTORE PUSH1 0x80 SWAP1 SWAP8 ADD SWAP7 DUP12 SWAP7 POP DUP10 SWAP6 POP SWAP1 SWAP3 ADD SWAP2 PUSH1 0x1 ADD PUSH2 0xDAF JUMP JUMPDEST SWAP4 SWAP7 SWAP6 POP SWAP1 SWAP4 POP SWAP2 SWAP1 PUSH1 0x1 SWAP1 PUSH1 0x60 SWAP1 DUP2 SWAP1 PUSH1 0x1 PUSH1 0x1 PUSH1 0xA0 SHL SUB PUSH2 0xF41 DUP9 PUSH2 0x235 JUMP JUMPDEST AND DUP2 MSTORE DUP4 DUP1 PUSH1 0xA0 SHL SUB PUSH2 0xF55 DUP12 DUP10 ADD PUSH2 0x235 JUMP JUMPDEST AND DUP11 DUP3 ADD MSTORE PUSH1 0x40 DUP8 ADD CALLDATALOAD PUSH1 0x40 DUP3 ADD MSTORE ADD SWAP5 ADD SWAP2 ADD SWAP1 DUP10 SWAP5 SWAP6 SWAP3 DUP9 SWAP5 SWAP3 PUSH2 0xD8B JUMP JUMPDEST PUSH2 0xD51 JUMP JUMPDEST PUSH1 0x0 SWAP1 PUSH1 0x1 PUSH1 0x1 PUSH1 0xA0 SHL SUB AND DUP1 PUSH2 0xF92 JUMPI POP POP BALANCE SWAP1 JUMP JUMPDEST PUSH1 0x40 MLOAD PUSH4 0x70A08231 PUSH1 0xE0 SHL DUP2 MSTORE PUSH1 0x1 PUSH1 0x1 PUSH1 0xA0 SHL SUB SWAP1 SWAP4 AND PUSH1 0x4 DUP5 ADD MSTORE SWAP1 SWAP2 SWAP1 PUSH1 0x20 SWAP1 DUP3 SWAP1 PUSH1 0x24 SWAP1 DUP3 SWAP1 GAS STATICCALL SWAP2 DUP3 ISZERO PUSH2 0xD0B JUMPI DUP1 SWAP3 PUSH2 0xFD0 JUMPI POP POP SWAP1 JUMP JUMPDEST SWAP1 SWAP2 POP PUSH1 0x20 DUP3 RETURNDATASIZE PUSH1 0x20 GT PUSH2 0xFF9 JUMPI JUMPDEST DUP2 PUSH2 0xFEC PUSH1 0x20 SWAP4 DUP4 PUSH2 0x1E3 JUMP JUMPDEST DUP2 ADD SUB SLT PUSH2 0xCA4 JUMPI POP MLOAD SWAP1 JUMP JUMPDEST RETURNDATASIZE SWAP2 POP PUSH2 0xFDF JUMP JUMPDEST SWAP2 SWAP1 DUP3 SUB SWAP2 DUP3 GT PUSH2 0x100E JUMPI JUMP JUMPDEST PUSH4 0x4E487B71 PUSH1 0xE0 SHL PUSH1 0x0 MSTORE PUSH1 0x11 PUSH1 0x4 MSTORE PUSH1 0x24 PUSH1 0x0 REVERT JUMPDEST SWAP1 DUP1 DUP3 LT ISZERO PUSH2 0x1050 JUMPI PUSH2 0x103F SWAP2 PUSH2 0x103A SWAP2 PUSH2 0x1001 JUMP JUMPDEST PUSH2 0x1060 JUMP JUMPDEST PUSH1 0x1 PUSH1 0xFF SHL DUP2 EQ PUSH2 0x100E JUMPI PUSH1 0x0 SUB SWAP1 JUMP JUMPDEST PUSH2 0x103A SWAP1 PUSH2 0x105D SWAP3 PUSH2 0x1001 JUMP JUMPDEST SWAP1 JUMP JUMPDEST PUSH1 0x1 PUSH1 0x1 PUSH1 0xFF SHL SUB DUP2 GT PUSH2 0x1071 JUMPI SWAP1 JUMP JUMPDEST PUSH4 0x123BAF03 PUSH1 0xE1 SHL PUSH1 0x0 MSTORE PUSH1 0x4 MSTORE PUSH1 0x24 PUSH1 0x0 REVERT INVALID LOG2 PUSH5 0x6970667358 0x22 SLT KECCAK256 MUL CALL PUSH29 0x19A3AAA2A9BDDC3E85E9DFFE194559E8986FFA4A97BF93545C40D69C21 PUSH5 0x736F6C6343 STOP ADDMOD SHL STOP CALLER "
        },
        "methodIdentifiers": {
          "balanceProxy()": "abefb345",
          "isValidSignature(bytes32,bytes)": "1626ba7e",
          "safeExecuteWithDiffs(address,(address,address,int256)[],(address,uint256,bytes,uint8,uint256,uint256,uint256,address,address,bytes,uint256))": "92f82b08",
          "safeExecuteWithDiffsMeta(address,(string,uint8)[],(address,address,int256)[],(address,uint256,bytes,uint8,uint256,uint256,uint256,address,address,bytes,uint256))": "ee83e91e",
          "safeExecuteWithPostBalances(address,(address,address,int256)[],(address,uint256,bytes,uint8,uint256,uint256,uint256,address,address,bytes,uint256))": "c68ba7f2",
          "safeExecuteWithPostBalancesMeta(address,(string,uint8)[],(address,address,int256)[],(address,uint256,bytes,uint8,uint256,uint256,uint256,address,address,bytes,uint256))": "ae612819"
        }
      },
      "userdoc": {
        "errors": {
          "ERC8009BalanceDiffConstraintViolation(address,address,int256,int256)": [
            {
              "notice": "Error when actual diff != expected"
            }
          ]
        },
        "kind": "user",
        "methods": {
          "isValidSignature(bytes32,bytes)": {
            "notice": "Contract signatures must not validate outside this wrapper flow."
          },
          "safeExecuteWithDiffs(address,(address,address,int256)[],(address,uint256,bytes,uint8,uint256,uint256,uint256,address,address,bytes,uint256))": {
            "notice": "Execute original Safe tx, then verify balance diffs for this tx."
          },
          "safeExecuteWithDiffsMeta(address,(string,uint8)[],(address,address,int256)[],(address,uint256,bytes,uint8,uint256,uint256,uint256,address,address,bytes,uint256))": {
            "notice": "Metadata variant for hardware-wallet clear signing."
          },
          "safeExecuteWithPostBalances(address,(address,address,int256)[],(address,uint256,bytes,uint8,uint256,uint256,uint256,address,address,bytes,uint256))": {
            "notice": "Execute original Safe tx, then verify absolute post-balances."
          },
          "safeExecuteWithPostBalancesMeta(address,(string,uint8)[],(address,address,int256)[],(address,uint256,bytes,uint8,uint256,uint256,uint256,address,address,bytes,uint256))": {
            "notice": "Metadata variant for hardware-wallet clear signing."
          }
        },
        "notice": "Safe-periphery for routing the final Safe execution through clear signing.",
        "version": 1
      }
    }
  }
}