{
  "contracts/mocks/BalanceProxyTester.sol": {
    "BalanceProxyTester": {
      "abi": [
        {
          "inputs": [
            {
              "internalType": "address",
              "name": "token",
              "type": "address"
            },
            {
              "internalType": "address",
              "name": "target",
              "type": "address"
            },
            {
              "internalType": "int256",
              "name": "balance",
              "type": "int256"
            },
            {
              "internalType": "uint256",
              "name": "actual",
              "type": "uint256"
            }
          ],
          "name": "ERC8009BalanceConstraintViolation",
          "type": "error"
        },
        {
          "inputs": [
            {
              "internalType": "address",
              "name": "token",
              "type": "address"
            },
            {
              "internalType": "address",
              "name": "target",
              "type": "address"
            },
            {
              "internalType": "int256",
              "name": "expected",
              "type": "int256"
            },
            {
              "internalType": "int256",
              "name": "actual",
              "type": "int256"
            }
          ],
          "name": "ERC8009BalanceDiffConstraintViolation",
          "type": "error"
        },
        {
          "inputs": [
            {
              "internalType": "address",
              "name": "target",
              "type": "address"
            },
            {
              "internalType": "bytes",
              "name": "data",
              "type": "bytes"
            },
            {
              "internalType": "bytes",
              "name": "returnData",
              "type": "bytes"
            }
          ],
          "name": "ERC8009CallFailed",
          "type": "error"
        },
        {
          "inputs": [],
          "name": "ReentrancyGuardReentrantCall",
          "type": "error"
        },
        {
          "inputs": [
            {
              "internalType": "uint256",
              "name": "value",
              "type": "uint256"
            }
          ],
          "name": "SafeCastOverflowedUintToInt",
          "type": "error"
        },
        {
          "inputs": [
            {
              "components": [
                {
                  "internalType": "address",
                  "name": "target",
                  "type": "address"
                },
                {
                  "internalType": "address",
                  "name": "token",
                  "type": "address"
                },
                {
                  "internalType": "int256",
                  "name": "balance",
                  "type": "int256"
                }
              ],
              "internalType": "struct IBalanceProxy.Balance",
              "name": "balance",
              "type": "tuple"
            }
          ],
          "name": "exposeBalanceCheckCalldata",
          "outputs": [],
          "stateMutability": "view",
          "type": "function"
        },
        {
          "inputs": [
            {
              "components": [
                {
                  "internalType": "address",
                  "name": "target",
                  "type": "address"
                },
                {
                  "internalType": "address",
                  "name": "token",
                  "type": "address"
                },
                {
                  "internalType": "int256",
                  "name": "balance",
                  "type": "int256"
                }
              ],
              "internalType": "struct IBalanceProxy.Balance[]",
              "name": "postBalances",
              "type": "tuple[]"
            },
            {
              "components": [
                {
                  "components": [
                    {
                      "internalType": "address",
                      "name": "target",
                      "type": "address"
                    },
                    {
                      "internalType": "address",
                      "name": "token",
                      "type": "address"
                    },
                    {
                      "internalType": "int256",
                      "name": "balance",
                      "type": "int256"
                    }
                  ],
                  "internalType": "struct IBalanceProxy.Balance",
                  "name": "balance",
                  "type": "tuple"
                },
                {
                  "internalType": "bool",
                  "name": "useTransfer",
                  "type": "bool"
                }
              ],
              "internalType": "struct IBalanceProxy.Approval[]",
              "name": "approvals",
              "type": "tuple[]"
            },
            {
              "internalType": "address",
              "name": "target",
              "type": "address"
            },
            {
              "internalType": "bytes",
              "name": "data",
              "type": "bytes"
            },
            {
              "components": [
                {
                  "internalType": "address",
                  "name": "target",
                  "type": "address"
                },
                {
                  "internalType": "address",
                  "name": "token",
                  "type": "address"
                },
                {
                  "internalType": "int256",
                  "name": "balance",
                  "type": "int256"
                }
              ],
              "internalType": "struct IBalanceProxy.Balance[]",
              "name": "withdrawals",
              "type": "tuple[]"
            }
          ],
          "name": "proxyCall",
          "outputs": [
            {
              "internalType": "bytes",
              "name": "",
              "type": "bytes"
            }
          ],
          "stateMutability": "payable",
          "type": "function"
        },
        {
          "inputs": [
            {
              "components": [
                {
                  "internalType": "address",
                  "name": "target",
                  "type": "address"
                },
                {
                  "internalType": "address",
                  "name": "token",
                  "type": "address"
                },
                {
                  "internalType": "int256",
                  "name": "balance",
                  "type": "int256"
                }
              ],
              "internalType": "struct IBalanceProxy.Balance[]",
              "name": "diffs",
              "type": "tuple[]"
            },
            {
              "components": [
                {
                  "components": [
                    {
                      "internalType": "address",
                      "name": "target",
                      "type": "address"
                    },
                    {
                      "internalType": "address",
                      "name": "token",
                      "type": "address"
                    },
                    {
                      "internalType": "int256",
                      "name": "balance",
                      "type": "int256"
                    }
                  ],
                  "internalType": "struct IBalanceProxy.Balance",
                  "name": "balance",
                  "type": "tuple"
                },
                {
                  "internalType": "bool",
                  "name": "useTransfer",
                  "type": "bool"
                }
              ],
              "internalType": "struct IBalanceProxy.Approval[]",
              "name": "approvals",
              "type": "tuple[]"
            },
            {
              "internalType": "address",
              "name": "target",
              "type": "address"
            },
            {
              "internalType": "bytes",
              "name": "data",
              "type": "bytes"
            },
            {
              "components": [
                {
                  "internalType": "address",
                  "name": "target",
                  "type": "address"
                },
                {
                  "internalType": "address",
                  "name": "token",
                  "type": "address"
                },
                {
                  "internalType": "int256",
                  "name": "balance",
                  "type": "int256"
                }
              ],
              "internalType": "struct IBalanceProxy.Balance[]",
              "name": "withdrawals",
              "type": "tuple[]"
            }
          ],
          "name": "proxyCallDiffs",
          "outputs": [
            {
              "internalType": "bytes",
              "name": "",
              "type": "bytes"
            }
          ],
          "stateMutability": "payable",
          "type": "function"
        },
        {
          "stateMutability": "payable",
          "type": "receive"
        }
      ],
      "devdoc": {
        "errors": {
          "ReentrancyGuardReentrantCall()": [
            {
              "details": "Unauthorized reentrant call."
            }
          ],
          "SafeCastOverflowedUintToInt(uint256)": [
            {
              "details": "An uint value doesn't fit in an int of `bits` size."
            }
          ]
        },
        "kind": "dev",
        "methods": {},
        "version": 1
      },
      "evm": {
        "bytecode": {
          "linkReferences": {},
          "object": "60808060405234601a576001600055610c5d90816100208239f35b600080fdfe6080604052600436101561001b575b361561001957600080fd5b005b60003560e01c8063890e3add146103915780638f873b731461025b5763ce9506f90361000e5761004a36610706565b91929390610056610950565b60005b855181101561007e5780610078610072600193896108c0565b51610a10565b01610059565b5060609084906001600160a01b03821615801590610251575b8015610248575b61020d575b505060005b83518110156100cd57806100c76100c1600193876108c0565b51610ae4565b016100a8565b509060005b81518110156101ee576100e581836108c0565b516020810180519091906000906001600160a01b03168061017057505080516001600160a01b0316315b6040820151928360ff1d80850118821061012f57505050506001016100d2565b519151604051631fbc432b60e31b81526001600160a01b039384166004820152921660248301526044820192909252606481019190915280608481015b0390fd5b602060018060a01b038451166024604051809481936370a0823160e01b835260048301525afa9182156101e25780926101ab575b505061010f565b9091506020823d82116101da575b816101c6602093836105cd565b810103126101d757505186806101a4565b80fd5b3d91506101b9565b604051903d90823e3d90fd5b6001600055604051602080825281906102099082018661087f565b0390f35b90915060008082516020840134865af1916102266108ea565b926100a35761016c83604051938493637a26993360e01b85526004850161091a565b5034151561009e565b5080511515610097565b3461038c57606036600319011261038c5760006001600160a01b0361027e610bd6565b166102f55761028b610bec565b315b604435908160ff1d8083011881106102a3578280f35b61016c6102ae610bd6565b916102b7610bec565b604051631fbc432b60e31b81526001600160a01b03948516600482015293166024840152604483019390935260648201929092529081906084820190565b6001600160a01b03610305610bd6565b166020610310610bec565b6040516370a0823160e01b81526001600160a01b03909116600482015291829060249082905afa90811561038157829161034b575b5061028d565b90506020813d602011610379575b81610366602093836105cd565b81010312610375575182610345565b5080fd5b3d9150610359565b6040513d84823e3d90fd5b600080fd5b61039a36610706565b9192936103a5610950565b60009181516103b381610605565b936103c160405195866105cd565b818552601f196103d083610605565b013660208701375b81811061058e575060005b875181101561040257806103fc6100726001938b6108c0565b016103e3565b5060609186906001600160a01b03821615801590610584575b801561057b575b610540575b505060005b855181101561044b57806104456100c1600193896108c0565b0161042c565b508360005b828110610472576001600055604051602080825281906102099082018761087f565b6104bc6104ab6001600160a01b03602061048c858a6108c0565b510151166001600160a01b036104a2858a6108c0565b51511690610972565b6104b583856108c0565b5190610b9d565b60406104c883886108c0565b51015181126104da5750600101610450565b608492508560406105186001600160a01b0360206104f887866108c0565b51015116946001600160a01b0361050f82866108c0565b515116936108c0565b51015190604051936305c333e160e41b85526004850152602484015260448301526064820152fd5b90925060008082516020840134875af1926105596108ea565b936104275761016c84604051938493637a26993360e01b85526004850161091a565b50341515610422565b508051151561041b565b6001906105bc6001600160a01b0360206105a884896108c0565b51015116838060a01b036104a284896108c0565b6105c682886108c0565b52016103d8565b90601f8019910116810190811067ffffffffffffffff8211176105ef57604052565b634e487b7160e01b600052604160045260246000fd5b67ffffffffffffffff81116105ef5760051b60200190565b35906001600160a01b038216820361038c57565b919082606091031261038c576040516060810181811067ffffffffffffffff8211176105ef5760405260408082946106688161061d565b84526106766020820161061d565b60208501520135910152565b81601f8201121561038c57803561069881610605565b926106a660405194856105cd565b8184526020606081860193028401019281841161038c57602001915b8383106106d0575050505090565b60206060916106df8486610631565b8152019201916106c2565b67ffffffffffffffff81116105ef57601f01601f191660200190565b60a060031982011261038c5760043567ffffffffffffffff811161038c578161073191600401610682565b9160243567ffffffffffffffff811161038c578260238201121561038c5780600401359061075e82610605565b9161076c60405193846105cd565b8083526024602084019160071b8301019185831161038c57602401905b828210610827575091939150506044356001600160a01b038116810361038c579160643567ffffffffffffffff811161038c578260238201121561038c5780600401356107d5816106ea565b916107e360405193846105cd565b818352846024838301011161038c57816000926024602093018386013783010152916084359067ffffffffffffffff821161038c5761082491600401610682565b90565b60808287031261038c57604051906040820182811067ffffffffffffffff8211176105ef576040526108598784610631565b8252606083013590811515820361038c5782602092836080950152815201910190610789565b919082519283825260005b8481106108ab575050826000602080949584010152601f8019910116010190565b8060208092840101518282860101520161088a565b80518210156108d45760209160051b010190565b634e487b7160e01b600052603260045260246000fd5b3d15610915573d906108fb826106ea565b9161090960405193846105cd565b82523d6000602084013e565b606090565b6001600160a01b0390911681526060602082018190526108249391926109429184019061087f565b91604081840391015261087f565b600260005414610961576002600055565b633ee5aeb560e01b60005260046000fd5b6000906001600160a01b0316806109895750503190565b6040516370a0823160e01b81526001600160a01b039093166004840152909190602090829060249082905afa9182156101e25780926109c757505090565b9091506020823d6020116109f0575b816109e3602093836105cd565b810103126101d757505190565b3d91506109d6565b9081602091031261038c5751801515810361038c5790565b8051604081015160209092015115610aa557602081810151915160405163a9059cbb60e01b81526001600160a01b0391821660048201526024810194909452909183911681600081604481015b03925af18015610a9957610a6e5750565b610a8f9060203d602011610a92575b610a8781836105cd565b8101906109f8565b50565b503d610a7d565b6040513d6000823e3d90fd5b602081810151915160405163095ea7b360e01b81526001600160a01b039182166004820152602481019490945290918391168160008160448101610a5d565b60208101516001600160a01b031680610b345750600080808093604060018060a01b03825116910151908160ff1d809201918392818114610b2a575b1891f115610a9957565b6108fc9350610b20565b8151604092830151925163a9059cbb60e01b81526001600160a01b03909116600482015260ff83901d928301909218602483015260209082908160008160448101610a5d565b91908203918211610b8757565b634e487b7160e01b600052601160045260246000fd5b9080821015610bc957610bb891610bb391610b7a565b610c02565b600160ff1b8114610b875760000390565b610bb39061082492610b7a565b6024356001600160a01b038116810361038c5790565b6004356001600160a01b038116810361038c5790565b6001600160ff1b038111610c135790565b63123baf0360e11b60005260045260246000fdfea2646970667358221220a120aa148135aa47b7c4a01d041689745d77887022358b1ac6d7fddd595b0bd464736f6c634300081b0033",
          "opcodes": "PUSH1 0x80 DUP1 PUSH1 0x40 MSTORE CALLVALUE PUSH1 0x1A JUMPI PUSH1 0x1 PUSH1 0x0 SSTORE PUSH2 0xC5D SWAP1 DUP2 PUSH2 0x20 DUP3 CODECOPY RETURN JUMPDEST PUSH1 0x0 DUP1 REVERT INVALID PUSH1 0x80 PUSH1 0x40 MSTORE PUSH1 0x4 CALLDATASIZE LT ISZERO PUSH2 0x1B JUMPI JUMPDEST CALLDATASIZE ISZERO PUSH2 0x19 JUMPI PUSH1 0x0 DUP1 REVERT JUMPDEST STOP JUMPDEST PUSH1 0x0 CALLDATALOAD PUSH1 0xE0 SHR DUP1 PUSH4 0x890E3ADD EQ PUSH2 0x391 JUMPI DUP1 PUSH4 0x8F873B73 EQ PUSH2 0x25B JUMPI PUSH4 0xCE9506F9 SUB PUSH2 0xE JUMPI PUSH2 0x4A CALLDATASIZE PUSH2 0x706 JUMP JUMPDEST SWAP2 SWAP3 SWAP4 SWAP1 PUSH2 0x56 PUSH2 0x950 JUMP JUMPDEST PUSH1 0x0 JUMPDEST DUP6 MLOAD DUP2 LT ISZERO PUSH2 0x7E JUMPI DUP1 PUSH2 0x78 PUSH2 0x72 PUSH1 0x1 SWAP4 DUP10 PUSH2 0x8C0 JUMP JUMPDEST MLOAD PUSH2 0xA10 JUMP JUMPDEST ADD PUSH2 0x59 JUMP JUMPDEST POP PUSH1 0x60 SWAP1 DUP5 SWAP1 PUSH1 0x1 PUSH1 0x1 PUSH1 0xA0 SHL SUB DUP3 AND ISZERO DUP1 ISZERO SWAP1 PUSH2 0x251 JUMPI JUMPDEST DUP1 ISZERO PUSH2 0x248 JUMPI JUMPDEST PUSH2 0x20D JUMPI JUMPDEST POP POP PUSH1 0x0 JUMPDEST DUP4 MLOAD DUP2 LT ISZERO PUSH2 0xCD JUMPI DUP1 PUSH2 0xC7 PUSH2 0xC1 PUSH1 0x1 SWAP4 DUP8 PUSH2 0x8C0 JUMP JUMPDEST MLOAD PUSH2 0xAE4 JUMP JUMPDEST ADD PUSH2 0xA8 JUMP JUMPDEST POP SWAP1 PUSH1 0x0 JUMPDEST DUP2 MLOAD DUP2 LT ISZERO PUSH2 0x1EE JUMPI PUSH2 0xE5 DUP2 DUP4 PUSH2 0x8C0 JUMP JUMPDEST MLOAD PUSH1 0x20 DUP2 ADD DUP1 MLOAD SWAP1 SWAP2 SWAP1 PUSH1 0x0 SWAP1 PUSH1 0x1 PUSH1 0x1 PUSH1 0xA0 SHL SUB AND DUP1 PUSH2 0x170 JUMPI POP POP DUP1 MLOAD PUSH1 0x1 PUSH1 0x1 PUSH1 0xA0 SHL SUB AND BALANCE JUMPDEST PUSH1 0x40 DUP3 ADD MLOAD SWAP3 DUP4 PUSH1 0xFF SAR DUP1 DUP6 ADD XOR DUP3 LT PUSH2 0x12F JUMPI POP POP POP POP PUSH1 0x1 ADD PUSH2 0xD2 JUMP JUMPDEST MLOAD SWAP2 MLOAD PUSH1 0x40 MLOAD PUSH4 0x1FBC432B PUSH1 0xE3 SHL DUP2 MSTORE PUSH1 0x1 PUSH1 0x1 PUSH1 0xA0 SHL SUB SWAP4 DUP5 AND PUSH1 0x4 DUP3 ADD MSTORE SWAP3 AND PUSH1 0x24 DUP4 ADD MSTORE PUSH1 0x44 DUP3 ADD SWAP3 SWAP1 SWAP3 MSTORE PUSH1 0x64 DUP2 ADD SWAP2 SWAP1 SWAP2 MSTORE DUP1 PUSH1 0x84 DUP2 ADD JUMPDEST SUB SWAP1 REVERT JUMPDEST PUSH1 0x20 PUSH1 0x1 DUP1 PUSH1 0xA0 SHL SUB DUP5 MLOAD AND PUSH1 0x24 PUSH1 0x40 MLOAD DUP1 SWAP5 DUP2 SWAP4 PUSH4 0x70A08231 PUSH1 0xE0 SHL DUP4 MSTORE PUSH1 0x4 DUP4 ADD MSTORE GAS STATICCALL SWAP2 DUP3 ISZERO PUSH2 0x1E2 JUMPI DUP1 SWAP3 PUSH2 0x1AB JUMPI JUMPDEST POP POP PUSH2 0x10F JUMP JUMPDEST SWAP1 SWAP2 POP PUSH1 0x20 DUP3 RETURNDATASIZE DUP3 GT PUSH2 0x1DA JUMPI JUMPDEST DUP2 PUSH2 0x1C6 PUSH1 0x20 SWAP4 DUP4 PUSH2 0x5CD JUMP JUMPDEST DUP2 ADD SUB SLT PUSH2 0x1D7 JUMPI POP MLOAD DUP7 DUP1 PUSH2 0x1A4 JUMP JUMPDEST DUP1 REVERT JUMPDEST RETURNDATASIZE SWAP2 POP PUSH2 0x1B9 JUMP JUMPDEST PUSH1 0x40 MLOAD SWAP1 RETURNDATASIZE SWAP1 DUP3 RETURNDATACOPY RETURNDATASIZE SWAP1 REVERT JUMPDEST PUSH1 0x1 PUSH1 0x0 SSTORE PUSH1 0x40 MLOAD PUSH1 0x20 DUP1 DUP3 MSTORE DUP2 SWAP1 PUSH2 0x209 SWAP1 DUP3 ADD DUP7 PUSH2 0x87F JUMP JUMPDEST SUB SWAP1 RETURN JUMPDEST SWAP1 SWAP2 POP PUSH1 0x0 DUP1 DUP3 MLOAD PUSH1 0x20 DUP5 ADD CALLVALUE DUP7 GAS CALL SWAP2 PUSH2 0x226 PUSH2 0x8EA JUMP JUMPDEST SWAP3 PUSH2 0xA3 JUMPI PUSH2 0x16C DUP4 PUSH1 0x40 MLOAD SWAP4 DUP5 SWAP4 PUSH4 0x7A269933 PUSH1 0xE0 SHL DUP6 MSTORE PUSH1 0x4 DUP6 ADD PUSH2 0x91A JUMP JUMPDEST POP CALLVALUE ISZERO ISZERO PUSH2 0x9E JUMP JUMPDEST POP DUP1 MLOAD ISZERO ISZERO PUSH2 0x97 JUMP JUMPDEST CALLVALUE PUSH2 0x38C JUMPI PUSH1 0x60 CALLDATASIZE PUSH1 0x3 NOT ADD SLT PUSH2 0x38C JUMPI PUSH1 0x0 PUSH1 0x1 PUSH1 0x1 PUSH1 0xA0 SHL SUB PUSH2 0x27E PUSH2 0xBD6 JUMP JUMPDEST AND PUSH2 0x2F5 JUMPI PUSH2 0x28B PUSH2 0xBEC JUMP JUMPDEST BALANCE JUMPDEST PUSH1 0x44 CALLDATALOAD SWAP1 DUP2 PUSH1 0xFF SAR DUP1 DUP4 ADD XOR DUP2 LT PUSH2 0x2A3 JUMPI DUP3 DUP1 RETURN JUMPDEST PUSH2 0x16C PUSH2 0x2AE PUSH2 0xBD6 JUMP JUMPDEST SWAP2 PUSH2 0x2B7 PUSH2 0xBEC JUMP JUMPDEST PUSH1 0x40 MLOAD PUSH4 0x1FBC432B PUSH1 0xE3 SHL DUP2 MSTORE PUSH1 0x1 PUSH1 0x1 PUSH1 0xA0 SHL SUB SWAP5 DUP6 AND PUSH1 0x4 DUP3 ADD MSTORE SWAP4 AND PUSH1 0x24 DUP5 ADD MSTORE PUSH1 0x44 DUP4 ADD SWAP4 SWAP1 SWAP4 MSTORE PUSH1 0x64 DUP3 ADD SWAP3 SWAP1 SWAP3 MSTORE SWAP1 DUP2 SWAP1 PUSH1 0x84 DUP3 ADD SWAP1 JUMP JUMPDEST PUSH1 0x1 PUSH1 0x1 PUSH1 0xA0 SHL SUB PUSH2 0x305 PUSH2 0xBD6 JUMP JUMPDEST AND PUSH1 0x20 PUSH2 0x310 PUSH2 0xBEC JUMP JUMPDEST PUSH1 0x40 MLOAD PUSH4 0x70A08231 PUSH1 0xE0 SHL DUP2 MSTORE PUSH1 0x1 PUSH1 0x1 PUSH1 0xA0 SHL SUB SWAP1 SWAP2 AND PUSH1 0x4 DUP3 ADD MSTORE SWAP2 DUP3 SWAP1 PUSH1 0x24 SWAP1 DUP3 SWAP1 GAS STATICCALL SWAP1 DUP2 ISZERO PUSH2 0x381 JUMPI DUP3 SWAP2 PUSH2 0x34B JUMPI JUMPDEST POP PUSH2 0x28D JUMP JUMPDEST SWAP1 POP PUSH1 0x20 DUP2 RETURNDATASIZE PUSH1 0x20 GT PUSH2 0x379 JUMPI JUMPDEST DUP2 PUSH2 0x366 PUSH1 0x20 SWAP4 DUP4 PUSH2 0x5CD JUMP JUMPDEST DUP2 ADD SUB SLT PUSH2 0x375 JUMPI MLOAD DUP3 PUSH2 0x345 JUMP JUMPDEST POP DUP1 REVERT JUMPDEST RETURNDATASIZE SWAP2 POP PUSH2 0x359 JUMP JUMPDEST PUSH1 0x40 MLOAD RETURNDATASIZE DUP5 DUP3 RETURNDATACOPY RETURNDATASIZE SWAP1 REVERT JUMPDEST PUSH1 0x0 DUP1 REVERT JUMPDEST PUSH2 0x39A CALLDATASIZE PUSH2 0x706 JUMP JUMPDEST SWAP2 SWAP3 SWAP4 PUSH2 0x3A5 PUSH2 0x950 JUMP JUMPDEST PUSH1 0x0 SWAP2 DUP2 MLOAD PUSH2 0x3B3 DUP2 PUSH2 0x605 JUMP JUMPDEST SWAP4 PUSH2 0x3C1 PUSH1 0x40 MLOAD SWAP6 DUP7 PUSH2 0x5CD JUMP JUMPDEST DUP2 DUP6 MSTORE PUSH1 0x1F NOT PUSH2 0x3D0 DUP4 PUSH2 0x605 JUMP JUMPDEST ADD CALLDATASIZE PUSH1 0x20 DUP8 ADD CALLDATACOPY JUMPDEST DUP2 DUP2 LT PUSH2 0x58E JUMPI POP PUSH1 0x0 JUMPDEST DUP8 MLOAD DUP2 LT ISZERO PUSH2 0x402 JUMPI DUP1 PUSH2 0x3FC PUSH2 0x72 PUSH1 0x1 SWAP4 DUP12 PUSH2 0x8C0 JUMP JUMPDEST ADD PUSH2 0x3E3 JUMP JUMPDEST POP PUSH1 0x60 SWAP2 DUP7 SWAP1 PUSH1 0x1 PUSH1 0x1 PUSH1 0xA0 SHL SUB DUP3 AND ISZERO DUP1 ISZERO SWAP1 PUSH2 0x584 JUMPI JUMPDEST DUP1 ISZERO PUSH2 0x57B JUMPI JUMPDEST PUSH2 0x540 JUMPI JUMPDEST POP POP PUSH1 0x0 JUMPDEST DUP6 MLOAD DUP2 LT ISZERO PUSH2 0x44B JUMPI DUP1 PUSH2 0x445 PUSH2 0xC1 PUSH1 0x1 SWAP4 DUP10 PUSH2 0x8C0 JUMP JUMPDEST ADD PUSH2 0x42C JUMP JUMPDEST POP DUP4 PUSH1 0x0 JUMPDEST DUP3 DUP2 LT PUSH2 0x472 JUMPI PUSH1 0x1 PUSH1 0x0 SSTORE PUSH1 0x40 MLOAD PUSH1 0x20 DUP1 DUP3 MSTORE DUP2 SWAP1 PUSH2 0x209 SWAP1 DUP3 ADD DUP8 PUSH2 0x87F JUMP JUMPDEST PUSH2 0x4BC PUSH2 0x4AB PUSH1 0x1 PUSH1 0x1 PUSH1 0xA0 SHL SUB PUSH1 0x20 PUSH2 0x48C DUP6 DUP11 PUSH2 0x8C0 JUMP JUMPDEST MLOAD ADD MLOAD AND PUSH1 0x1 PUSH1 0x1 PUSH1 0xA0 SHL SUB PUSH2 0x4A2 DUP6 DUP11 PUSH2 0x8C0 JUMP JUMPDEST MLOAD MLOAD AND SWAP1 PUSH2 0x972 JUMP JUMPDEST PUSH2 0x4B5 DUP4 DUP6 PUSH2 0x8C0 JUMP JUMPDEST MLOAD SWAP1 PUSH2 0xB9D JUMP JUMPDEST PUSH1 0x40 PUSH2 0x4C8 DUP4 DUP9 PUSH2 0x8C0 JUMP JUMPDEST MLOAD ADD MLOAD DUP2 SLT PUSH2 0x4DA JUMPI POP PUSH1 0x1 ADD PUSH2 0x450 JUMP JUMPDEST PUSH1 0x84 SWAP3 POP DUP6 PUSH1 0x40 PUSH2 0x518 PUSH1 0x1 PUSH1 0x1 PUSH1 0xA0 SHL SUB PUSH1 0x20 PUSH2 0x4F8 DUP8 DUP7 PUSH2 0x8C0 JUMP JUMPDEST MLOAD ADD MLOAD AND SWAP5 PUSH1 0x1 PUSH1 0x1 PUSH1 0xA0 SHL SUB PUSH2 0x50F DUP3 DUP7 PUSH2 0x8C0 JUMP JUMPDEST MLOAD MLOAD AND SWAP4 PUSH2 0x8C0 JUMP JUMPDEST MLOAD ADD MLOAD SWAP1 PUSH1 0x40 MLOAD SWAP4 PUSH4 0x5C333E1 PUSH1 0xE4 SHL DUP6 MSTORE PUSH1 0x4 DUP6 ADD MSTORE PUSH1 0x24 DUP5 ADD MSTORE PUSH1 0x44 DUP4 ADD MSTORE PUSH1 0x64 DUP3 ADD MSTORE REVERT JUMPDEST SWAP1 SWAP3 POP PUSH1 0x0 DUP1 DUP3 MLOAD PUSH1 0x20 DUP5 ADD CALLVALUE DUP8 GAS CALL SWAP3 PUSH2 0x559 PUSH2 0x8EA JUMP JUMPDEST SWAP4 PUSH2 0x427 JUMPI PUSH2 0x16C DUP5 PUSH1 0x40 MLOAD SWAP4 DUP5 SWAP4 PUSH4 0x7A269933 PUSH1 0xE0 SHL DUP6 MSTORE PUSH1 0x4 DUP6 ADD PUSH2 0x91A JUMP JUMPDEST POP CALLVALUE ISZERO ISZERO PUSH2 0x422 JUMP JUMPDEST POP DUP1 MLOAD ISZERO ISZERO PUSH2 0x41B JUMP JUMPDEST PUSH1 0x1 SWAP1 PUSH2 0x5BC PUSH1 0x1 PUSH1 0x1 PUSH1 0xA0 SHL SUB PUSH1 0x20 PUSH2 0x5A8 DUP5 DUP10 PUSH2 0x8C0 JUMP JUMPDEST MLOAD ADD MLOAD AND DUP4 DUP1 PUSH1 0xA0 SHL SUB PUSH2 0x4A2 DUP5 DUP10 PUSH2 0x8C0 JUMP JUMPDEST PUSH2 0x5C6 DUP3 DUP9 PUSH2 0x8C0 JUMP JUMPDEST MSTORE ADD PUSH2 0x3D8 JUMP JUMPDEST SWAP1 PUSH1 0x1F DUP1 NOT SWAP2 ADD AND DUP2 ADD SWAP1 DUP2 LT PUSH8 0xFFFFFFFFFFFFFFFF DUP3 GT OR PUSH2 0x5EF JUMPI PUSH1 0x40 MSTORE JUMP JUMPDEST PUSH4 0x4E487B71 PUSH1 0xE0 SHL PUSH1 0x0 MSTORE PUSH1 0x41 PUSH1 0x4 MSTORE PUSH1 0x24 PUSH1 0x0 REVERT JUMPDEST PUSH8 0xFFFFFFFFFFFFFFFF DUP2 GT PUSH2 0x5EF JUMPI PUSH1 0x5 SHL PUSH1 0x20 ADD SWAP1 JUMP JUMPDEST CALLDATALOAD SWAP1 PUSH1 0x1 PUSH1 0x1 PUSH1 0xA0 SHL SUB DUP3 AND DUP3 SUB PUSH2 0x38C JUMPI JUMP JUMPDEST SWAP2 SWAP1 DUP3 PUSH1 0x60 SWAP2 SUB SLT PUSH2 0x38C JUMPI PUSH1 0x40 MLOAD PUSH1 0x60 DUP2 ADD DUP2 DUP2 LT PUSH8 0xFFFFFFFFFFFFFFFF DUP3 GT OR PUSH2 0x5EF JUMPI PUSH1 0x40 MSTORE PUSH1 0x40 DUP1 DUP3 SWAP5 PUSH2 0x668 DUP2 PUSH2 0x61D JUMP JUMPDEST DUP5 MSTORE PUSH2 0x676 PUSH1 0x20 DUP3 ADD PUSH2 0x61D JUMP JUMPDEST PUSH1 0x20 DUP6 ADD MSTORE ADD CALLDATALOAD SWAP2 ADD MSTORE JUMP JUMPDEST DUP2 PUSH1 0x1F DUP3 ADD SLT ISZERO PUSH2 0x38C JUMPI DUP1 CALLDATALOAD PUSH2 0x698 DUP2 PUSH2 0x605 JUMP JUMPDEST SWAP3 PUSH2 0x6A6 PUSH1 0x40 MLOAD SWAP5 DUP6 PUSH2 0x5CD JUMP JUMPDEST DUP2 DUP5 MSTORE PUSH1 0x20 PUSH1 0x60 DUP2 DUP7 ADD SWAP4 MUL DUP5 ADD ADD SWAP3 DUP2 DUP5 GT PUSH2 0x38C JUMPI PUSH1 0x20 ADD SWAP2 JUMPDEST DUP4 DUP4 LT PUSH2 0x6D0 JUMPI POP POP POP POP SWAP1 JUMP JUMPDEST PUSH1 0x20 PUSH1 0x60 SWAP2 PUSH2 0x6DF DUP5 DUP7 PUSH2 0x631 JUMP JUMPDEST DUP2 MSTORE ADD SWAP3 ADD SWAP2 PUSH2 0x6C2 JUMP JUMPDEST PUSH8 0xFFFFFFFFFFFFFFFF DUP2 GT PUSH2 0x5EF JUMPI PUSH1 0x1F ADD PUSH1 0x1F NOT AND PUSH1 0x20 ADD SWAP1 JUMP JUMPDEST PUSH1 0xA0 PUSH1 0x3 NOT DUP3 ADD SLT PUSH2 0x38C JUMPI PUSH1 0x4 CALLDATALOAD PUSH8 0xFFFFFFFFFFFFFFFF DUP2 GT PUSH2 0x38C JUMPI DUP2 PUSH2 0x731 SWAP2 PUSH1 0x4 ADD PUSH2 0x682 JUMP JUMPDEST SWAP2 PUSH1 0x24 CALLDATALOAD PUSH8 0xFFFFFFFFFFFFFFFF DUP2 GT PUSH2 0x38C JUMPI DUP3 PUSH1 0x23 DUP3 ADD SLT ISZERO PUSH2 0x38C JUMPI DUP1 PUSH1 0x4 ADD CALLDATALOAD SWAP1 PUSH2 0x75E DUP3 PUSH2 0x605 JUMP JUMPDEST SWAP2 PUSH2 0x76C PUSH1 0x40 MLOAD SWAP4 DUP5 PUSH2 0x5CD JUMP JUMPDEST DUP1 DUP4 MSTORE PUSH1 0x24 PUSH1 0x20 DUP5 ADD SWAP2 PUSH1 0x7 SHL DUP4 ADD ADD SWAP2 DUP6 DUP4 GT PUSH2 0x38C JUMPI PUSH1 0x24 ADD SWAP1 JUMPDEST DUP3 DUP3 LT PUSH2 0x827 JUMPI POP SWAP2 SWAP4 SWAP2 POP POP PUSH1 0x44 CALLDATALOAD PUSH1 0x1 PUSH1 0x1 PUSH1 0xA0 SHL SUB DUP2 AND DUP2 SUB PUSH2 0x38C JUMPI SWAP2 PUSH1 0x64 CALLDATALOAD PUSH8 0xFFFFFFFFFFFFFFFF DUP2 GT PUSH2 0x38C JUMPI DUP3 PUSH1 0x23 DUP3 ADD SLT ISZERO PUSH2 0x38C JUMPI DUP1 PUSH1 0x4 ADD CALLDATALOAD PUSH2 0x7D5 DUP2 PUSH2 0x6EA JUMP JUMPDEST SWAP2 PUSH2 0x7E3 PUSH1 0x40 MLOAD SWAP4 DUP5 PUSH2 0x5CD JUMP JUMPDEST DUP2 DUP4 MSTORE DUP5 PUSH1 0x24 DUP4 DUP4 ADD ADD GT PUSH2 0x38C JUMPI DUP2 PUSH1 0x0 SWAP3 PUSH1 0x24 PUSH1 0x20 SWAP4 ADD DUP4 DUP7 ADD CALLDATACOPY DUP4 ADD ADD MSTORE SWAP2 PUSH1 0x84 CALLDATALOAD SWAP1 PUSH8 0xFFFFFFFFFFFFFFFF DUP3 GT PUSH2 0x38C JUMPI PUSH2 0x824 SWAP2 PUSH1 0x4 ADD PUSH2 0x682 JUMP JUMPDEST SWAP1 JUMP JUMPDEST PUSH1 0x80 DUP3 DUP8 SUB SLT PUSH2 0x38C JUMPI PUSH1 0x40 MLOAD SWAP1 PUSH1 0x40 DUP3 ADD DUP3 DUP2 LT PUSH8 0xFFFFFFFFFFFFFFFF DUP3 GT OR PUSH2 0x5EF JUMPI PUSH1 0x40 MSTORE PUSH2 0x859 DUP8 DUP5 PUSH2 0x631 JUMP JUMPDEST DUP3 MSTORE PUSH1 0x60 DUP4 ADD CALLDATALOAD SWAP1 DUP2 ISZERO ISZERO DUP3 SUB PUSH2 0x38C JUMPI DUP3 PUSH1 0x20 SWAP3 DUP4 PUSH1 0x80 SWAP6 ADD MSTORE DUP2 MSTORE ADD SWAP2 ADD SWAP1 PUSH2 0x789 JUMP JUMPDEST SWAP2 SWAP1 DUP3 MLOAD SWAP3 DUP4 DUP3 MSTORE PUSH1 0x0 JUMPDEST DUP5 DUP2 LT PUSH2 0x8AB JUMPI POP POP DUP3 PUSH1 0x0 PUSH1 0x20 DUP1 SWAP5 SWAP6 DUP5 ADD ADD MSTORE PUSH1 0x1F DUP1 NOT SWAP2 ADD AND ADD ADD SWAP1 JUMP JUMPDEST DUP1 PUSH1 0x20 DUP1 SWAP3 DUP5 ADD ADD MLOAD DUP3 DUP3 DUP7 ADD ADD MSTORE ADD PUSH2 0x88A JUMP JUMPDEST DUP1 MLOAD DUP3 LT ISZERO PUSH2 0x8D4 JUMPI PUSH1 0x20 SWAP2 PUSH1 0x5 SHL ADD ADD SWAP1 JUMP JUMPDEST PUSH4 0x4E487B71 PUSH1 0xE0 SHL PUSH1 0x0 MSTORE PUSH1 0x32 PUSH1 0x4 MSTORE PUSH1 0x24 PUSH1 0x0 REVERT JUMPDEST RETURNDATASIZE ISZERO PUSH2 0x915 JUMPI RETURNDATASIZE SWAP1 PUSH2 0x8FB DUP3 PUSH2 0x6EA JUMP JUMPDEST SWAP2 PUSH2 0x909 PUSH1 0x40 MLOAD SWAP4 DUP5 PUSH2 0x5CD JUMP JUMPDEST DUP3 MSTORE RETURNDATASIZE PUSH1 0x0 PUSH1 0x20 DUP5 ADD RETURNDATACOPY JUMP JUMPDEST PUSH1 0x60 SWAP1 JUMP JUMPDEST PUSH1 0x1 PUSH1 0x1 PUSH1 0xA0 SHL SUB SWAP1 SWAP2 AND DUP2 MSTORE PUSH1 0x60 PUSH1 0x20 DUP3 ADD DUP2 SWAP1 MSTORE PUSH2 0x824 SWAP4 SWAP2 SWAP3 PUSH2 0x942 SWAP2 DUP5 ADD SWAP1 PUSH2 0x87F JUMP JUMPDEST SWAP2 PUSH1 0x40 DUP2 DUP5 SUB SWAP2 ADD MSTORE PUSH2 0x87F JUMP JUMPDEST PUSH1 0x2 PUSH1 0x0 SLOAD EQ PUSH2 0x961 JUMPI PUSH1 0x2 PUSH1 0x0 SSTORE JUMP JUMPDEST PUSH4 0x3EE5AEB5 PUSH1 0xE0 SHL PUSH1 0x0 MSTORE PUSH1 0x4 PUSH1 0x0 REVERT JUMPDEST PUSH1 0x0 SWAP1 PUSH1 0x1 PUSH1 0x1 PUSH1 0xA0 SHL SUB AND DUP1 PUSH2 0x989 JUMPI POP POP BALANCE SWAP1 JUMP JUMPDEST PUSH1 0x40 MLOAD PUSH4 0x70A08231 PUSH1 0xE0 SHL DUP2 MSTORE PUSH1 0x1 PUSH1 0x1 PUSH1 0xA0 SHL SUB SWAP1 SWAP4 AND PUSH1 0x4 DUP5 ADD MSTORE SWAP1 SWAP2 SWAP1 PUSH1 0x20 SWAP1 DUP3 SWAP1 PUSH1 0x24 SWAP1 DUP3 SWAP1 GAS STATICCALL SWAP2 DUP3 ISZERO PUSH2 0x1E2 JUMPI DUP1 SWAP3 PUSH2 0x9C7 JUMPI POP POP SWAP1 JUMP JUMPDEST SWAP1 SWAP2 POP PUSH1 0x20 DUP3 RETURNDATASIZE PUSH1 0x20 GT PUSH2 0x9F0 JUMPI JUMPDEST DUP2 PUSH2 0x9E3 PUSH1 0x20 SWAP4 DUP4 PUSH2 0x5CD JUMP JUMPDEST DUP2 ADD SUB SLT PUSH2 0x1D7 JUMPI POP MLOAD SWAP1 JUMP JUMPDEST RETURNDATASIZE SWAP2 POP PUSH2 0x9D6 JUMP JUMPDEST SWAP1 DUP2 PUSH1 0x20 SWAP2 SUB SLT PUSH2 0x38C JUMPI MLOAD DUP1 ISZERO ISZERO DUP2 SUB PUSH2 0x38C JUMPI SWAP1 JUMP JUMPDEST DUP1 MLOAD PUSH1 0x40 DUP2 ADD MLOAD PUSH1 0x20 SWAP1 SWAP3 ADD MLOAD ISZERO PUSH2 0xAA5 JUMPI PUSH1 0x20 DUP2 DUP2 ADD MLOAD SWAP2 MLOAD PUSH1 0x40 MLOAD PUSH4 0xA9059CBB PUSH1 0xE0 SHL DUP2 MSTORE PUSH1 0x1 PUSH1 0x1 PUSH1 0xA0 SHL SUB SWAP2 DUP3 AND PUSH1 0x4 DUP3 ADD MSTORE PUSH1 0x24 DUP2 ADD SWAP5 SWAP1 SWAP5 MSTORE SWAP1 SWAP2 DUP4 SWAP2 AND DUP2 PUSH1 0x0 DUP2 PUSH1 0x44 DUP2 ADD JUMPDEST SUB SWAP3 GAS CALL DUP1 ISZERO PUSH2 0xA99 JUMPI PUSH2 0xA6E JUMPI POP JUMP JUMPDEST PUSH2 0xA8F SWAP1 PUSH1 0x20 RETURNDATASIZE PUSH1 0x20 GT PUSH2 0xA92 JUMPI JUMPDEST PUSH2 0xA87 DUP2 DUP4 PUSH2 0x5CD JUMP JUMPDEST DUP2 ADD SWAP1 PUSH2 0x9F8 JUMP JUMPDEST POP JUMP JUMPDEST POP RETURNDATASIZE PUSH2 0xA7D JUMP JUMPDEST PUSH1 0x40 MLOAD RETURNDATASIZE PUSH1 0x0 DUP3 RETURNDATACOPY RETURNDATASIZE SWAP1 REVERT JUMPDEST PUSH1 0x20 DUP2 DUP2 ADD MLOAD SWAP2 MLOAD PUSH1 0x40 MLOAD PUSH4 0x95EA7B3 PUSH1 0xE0 SHL DUP2 MSTORE PUSH1 0x1 PUSH1 0x1 PUSH1 0xA0 SHL SUB SWAP2 DUP3 AND PUSH1 0x4 DUP3 ADD MSTORE PUSH1 0x24 DUP2 ADD SWAP5 SWAP1 SWAP5 MSTORE SWAP1 SWAP2 DUP4 SWAP2 AND DUP2 PUSH1 0x0 DUP2 PUSH1 0x44 DUP2 ADD PUSH2 0xA5D JUMP JUMPDEST PUSH1 0x20 DUP2 ADD MLOAD PUSH1 0x1 PUSH1 0x1 PUSH1 0xA0 SHL SUB AND DUP1 PUSH2 0xB34 JUMPI POP PUSH1 0x0 DUP1 DUP1 DUP1 SWAP4 PUSH1 0x40 PUSH1 0x1 DUP1 PUSH1 0xA0 SHL SUB DUP3 MLOAD AND SWAP2 ADD MLOAD SWAP1 DUP2 PUSH1 0xFF SAR DUP1 SWAP3 ADD SWAP2 DUP4 SWAP3 DUP2 DUP2 EQ PUSH2 0xB2A JUMPI JUMPDEST XOR SWAP2 CALL ISZERO PUSH2 0xA99 JUMPI JUMP JUMPDEST PUSH2 0x8FC SWAP4 POP PUSH2 0xB20 JUMP JUMPDEST DUP2 MLOAD PUSH1 0x40 SWAP3 DUP4 ADD MLOAD SWAP3 MLOAD PUSH4 0xA9059CBB PUSH1 0xE0 SHL DUP2 MSTORE PUSH1 0x1 PUSH1 0x1 PUSH1 0xA0 SHL SUB SWAP1 SWAP2 AND PUSH1 0x4 DUP3 ADD MSTORE PUSH1 0xFF DUP4 SWAP1 SAR SWAP3 DUP4 ADD SWAP1 SWAP3 XOR PUSH1 0x24 DUP4 ADD MSTORE PUSH1 0x20 SWAP1 DUP3 SWAP1 DUP2 PUSH1 0x0 DUP2 PUSH1 0x44 DUP2 ADD PUSH2 0xA5D JUMP JUMPDEST SWAP2 SWAP1 DUP3 SUB SWAP2 DUP3 GT PUSH2 0xB87 JUMPI JUMP JUMPDEST PUSH4 0x4E487B71 PUSH1 0xE0 SHL PUSH1 0x0 MSTORE PUSH1 0x11 PUSH1 0x4 MSTORE PUSH1 0x24 PUSH1 0x0 REVERT JUMPDEST SWAP1 DUP1 DUP3 LT ISZERO PUSH2 0xBC9 JUMPI PUSH2 0xBB8 SWAP2 PUSH2 0xBB3 SWAP2 PUSH2 0xB7A JUMP JUMPDEST PUSH2 0xC02 JUMP JUMPDEST PUSH1 0x1 PUSH1 0xFF SHL DUP2 EQ PUSH2 0xB87 JUMPI PUSH1 0x0 SUB SWAP1 JUMP JUMPDEST PUSH2 0xBB3 SWAP1 PUSH2 0x824 SWAP3 PUSH2 0xB7A JUMP JUMPDEST PUSH1 0x24 CALLDATALOAD PUSH1 0x1 PUSH1 0x1 PUSH1 0xA0 SHL SUB DUP2 AND DUP2 SUB PUSH2 0x38C JUMPI SWAP1 JUMP JUMPDEST PUSH1 0x4 CALLDATALOAD PUSH1 0x1 PUSH1 0x1 PUSH1 0xA0 SHL SUB DUP2 AND DUP2 SUB PUSH2 0x38C JUMPI SWAP1 JUMP JUMPDEST PUSH1 0x1 PUSH1 0x1 PUSH1 0xFF SHL SUB DUP2 GT PUSH2 0xC13 JUMPI SWAP1 JUMP JUMPDEST PUSH4 0x123BAF03 PUSH1 0xE1 SHL PUSH1 0x0 MSTORE PUSH1 0x4 MSTORE PUSH1 0x24 PUSH1 0x0 REVERT INVALID LOG2 PUSH5 0x6970667358 0x22 SLT KECCAK256 LOG1 KECCAK256 0xAA EQ DUP2 CALLDATALOAD 0xAA SELFBALANCE 0xB7 0xC4 LOG0 SAR DIV AND DUP10 PUSH21 0x5D77887022358B1AC6D7FDDD595B0BD464736F6C63 NUMBER STOP ADDMOD SHL STOP CALLER "
        },
        "methodIdentifiers": {
          "exposeBalanceCheckCalldata((address,address,int256))": "8f873b73",
          "proxyCall((address,address,int256)[],((address,address,int256),bool)[],address,bytes,(address,address,int256)[])": "ce9506f9",
          "proxyCallDiffs((address,address,int256)[],((address,address,int256),bool)[],address,bytes,(address,address,int256)[])": "890e3add"
        }
      },
      "userdoc": {
        "errors": {
          "ERC8009BalanceConstraintViolation(address,address,int256,uint256)": [
            {
              "notice": "Error thrown when a balance is insufficient"
            }
          ],
          "ERC8009BalanceDiffConstraintViolation(address,address,int256,int256)": [
            {
              "notice": "Error when actual diff != expected"
            }
          ],
          "ERC8009CallFailed(address,bytes,bytes)": [
            {
              "notice": "Error thrown when a call fails"
            }
          ]
        },
        "kind": "user",
        "methods": {
          "proxyCall((address,address,int256)[],((address,address,int256),bool)[],address,bytes,(address,address,int256)[])": {
            "notice": "Proxy call to a target contract with specified post-balance checks"
          },
          "proxyCallDiffs((address,address,int256)[],((address,address,int256),bool)[],address,bytes,(address,address,int256)[])": {
            "notice": "Proxy call with balance diffs"
          }
        },
        "notice": "Test helper exposing internal view checks for coverage",
        "version": 1
      }
    }
  }
}