{
  "_format": "hh-sol-artifact-1",
  "contractName": "BalanceProxy",
  "sourceName": "contracts/BalanceProxy.sol",
  "abi": [
    {
      "inputs": [
        {
          "internalType": "address",
          "name": "target",
          "type": "address"
        },
        {
          "internalType": "bytes",
          "name": "data",
          "type": "bytes"
        },
        {
          "internalType": "bytes",
          "name": "returnData",
          "type": "bytes"
        }
      ],
      "name": "CallFailed",
      "type": "error"
    },
    {
      "inputs": [
        {
          "internalType": "address",
          "name": "token",
          "type": "address"
        },
        {
          "internalType": "address",
          "name": "target",
          "type": "address"
        },
        {
          "internalType": "int256",
          "name": "balance",
          "type": "int256"
        },
        {
          "internalType": "uint256",
          "name": "actual",
          "type": "uint256"
        }
      ],
      "name": "InsufficientBalance",
      "type": "error"
    },
    {
      "inputs": [
        {
          "internalType": "address",
          "name": "token",
          "type": "address"
        },
        {
          "internalType": "address",
          "name": "target",
          "type": "address"
        }
      ],
      "name": "MaliciousApproveTarget",
      "type": "error"
    },
    {
      "inputs": [
        {
          "internalType": "int256",
          "name": "amount",
          "type": "int256"
        }
      ],
      "name": "NegativeApprovalAmount",
      "type": "error"
    },
    {
      "inputs": [],
      "name": "ReentrancyGuardReentrantCall",
      "type": "error"
    },
    {
      "inputs": [
        {
          "internalType": "address",
          "name": "token",
          "type": "address"
        },
        {
          "internalType": "address",
          "name": "target",
          "type": "address"
        },
        {
          "internalType": "int256",
          "name": "expected",
          "type": "int256"
        },
        {
          "internalType": "int256",
          "name": "actual",
          "type": "int256"
        }
      ],
      "name": "UnexpectedBalanceDiff",
      "type": "error"
    },
    {
      "inputs": [
        {
          "components": [
            {
              "internalType": "address",
              "name": "target",
              "type": "address"
            },
            {
              "internalType": "address",
              "name": "token",
              "type": "address"
            },
            {
              "internalType": "int256",
              "name": "balance",
              "type": "int256"
            }
          ],
          "internalType": "struct IBalanceProxy.Balance[]",
          "name": "postBalances",
          "type": "tuple[]"
        },
        {
          "components": [
            {
              "components": [
                {
                  "internalType": "address",
                  "name": "target",
                  "type": "address"
                },
                {
                  "internalType": "address",
                  "name": "token",
                  "type": "address"
                },
                {
                  "internalType": "int256",
                  "name": "balance",
                  "type": "int256"
                }
              ],
              "internalType": "struct IBalanceProxy.Balance",
              "name": "balance",
              "type": "tuple"
            },
            {
              "internalType": "bool",
              "name": "useTransfer",
              "type": "bool"
            }
          ],
          "internalType": "struct IBalanceProxy.Approval[]",
          "name": "approvals",
          "type": "tuple[]"
        },
        {
          "internalType": "address",
          "name": "target",
          "type": "address"
        },
        {
          "internalType": "bytes",
          "name": "data",
          "type": "bytes"
        },
        {
          "components": [
            {
              "internalType": "address",
              "name": "target",
              "type": "address"
            },
            {
              "internalType": "address",
              "name": "token",
              "type": "address"
            },
            {
              "internalType": "int256",
              "name": "balance",
              "type": "int256"
            }
          ],
          "internalType": "struct IBalanceProxy.Balance[]",
          "name": "withdrawals",
          "type": "tuple[]"
        }
      ],
      "name": "proxyCall",
      "outputs": [
        {
          "internalType": "bytes",
          "name": "",
          "type": "bytes"
        }
      ],
      "stateMutability": "payable",
      "type": "function"
    },
    {
      "inputs": [
        {
          "components": [
            {
              "internalType": "address",
              "name": "target",
              "type": "address"
            },
            {
              "internalType": "address",
              "name": "token",
              "type": "address"
            },
            {
              "internalType": "int256",
              "name": "balance",
              "type": "int256"
            }
          ],
          "internalType": "struct IBalanceProxy.Balance[]",
          "name": "diffs",
          "type": "tuple[]"
        },
        {
          "components": [
            {
              "components": [
                {
                  "internalType": "address",
                  "name": "target",
                  "type": "address"
                },
                {
                  "internalType": "address",
                  "name": "token",
                  "type": "address"
                },
                {
                  "internalType": "int256",
                  "name": "balance",
                  "type": "int256"
                }
              ],
              "internalType": "struct IBalanceProxy.Balance",
              "name": "balance",
              "type": "tuple"
            },
            {
              "internalType": "bool",
              "name": "useTransfer",
              "type": "bool"
            }
          ],
          "internalType": "struct IBalanceProxy.Approval[]",
          "name": "approvals",
          "type": "tuple[]"
        },
        {
          "internalType": "address",
          "name": "target",
          "type": "address"
        },
        {
          "internalType": "bytes",
          "name": "data",
          "type": "bytes"
        },
        {
          "components": [
            {
              "internalType": "address",
              "name": "target",
              "type": "address"
            },
            {
              "internalType": "address",
              "name": "token",
              "type": "address"
            },
            {
              "internalType": "int256",
              "name": "balance",
              "type": "int256"
            }
          ],
          "internalType": "struct IBalanceProxy.Balance[]",
          "name": "withdrawals",
          "type": "tuple[]"
        }
      ],
      "name": "proxyCallDiffs",
      "outputs": [
        {
          "internalType": "bytes",
          "name": "",
          "type": "bytes"
        }
      ],
      "stateMutability": "payable",
      "type": "function"
    },
    {
      "inputs": [
        {
          "components": [
            {
              "components": [
                {
                  "internalType": "address",
                  "name": "target",
                  "type": "address"
                },
                {
                  "internalType": "address",
                  "name": "token",
                  "type": "address"
                },
                {
                  "internalType": "int256",
                  "name": "balance",
                  "type": "int256"
                }
              ],
              "internalType": "struct IBalanceProxy.Balance",
              "name": "balance",
              "type": "tuple"
            },
            {
              "internalType": "string",
              "name": "symbol",
              "type": "string"
            },
            {
              "internalType": "uint8",
              "name": "decimals",
              "type": "uint8"
            }
          ],
          "internalType": "struct BalanceMetadata[]",
          "name": "meta",
          "type": "tuple[]"
        },
        {
          "components": [
            {
              "components": [
                {
                  "internalType": "address",
                  "name": "target",
                  "type": "address"
                },
                {
                  "internalType": "address",
                  "name": "token",
                  "type": "address"
                },
                {
                  "internalType": "int256",
                  "name": "balance",
                  "type": "int256"
                }
              ],
              "internalType": "struct IBalanceProxy.Balance",
              "name": "balance",
              "type": "tuple"
            },
            {
              "internalType": "bool",
              "name": "useTransfer",
              "type": "bool"
            }
          ],
          "internalType": "struct IBalanceProxy.Approval[]",
          "name": "approvals",
          "type": "tuple[]"
        },
        {
          "internalType": "address",
          "name": "target",
          "type": "address"
        },
        {
          "internalType": "bytes",
          "name": "data",
          "type": "bytes"
        },
        {
          "components": [
            {
              "internalType": "address",
              "name": "target",
              "type": "address"
            },
            {
              "internalType": "address",
              "name": "token",
              "type": "address"
            },
            {
              "internalType": "int256",
              "name": "balance",
              "type": "int256"
            }
          ],
          "internalType": "struct IBalanceProxy.Balance[]",
          "name": "withdrawals",
          "type": "tuple[]"
        }
      ],
      "name": "proxyCallDiffsMeta",
      "outputs": [
        {
          "internalType": "bytes",
          "name": "",
          "type": "bytes"
        }
      ],
      "stateMutability": "payable",
      "type": "function"
    },
    {
      "inputs": [
        {
          "components": [
            {
              "components": [
                {
                  "internalType": "address",
                  "name": "target",
                  "type": "address"
                },
                {
                  "internalType": "address",
                  "name": "token",
                  "type": "address"
                },
                {
                  "internalType": "int256",
                  "name": "balance",
                  "type": "int256"
                }
              ],
              "internalType": "struct IBalanceProxy.Balance",
              "name": "balance",
              "type": "tuple"
            },
            {
              "internalType": "string",
              "name": "symbol",
              "type": "string"
            },
            {
              "internalType": "uint8",
              "name": "decimals",
              "type": "uint8"
            }
          ],
          "internalType": "struct BalanceMetadata[]",
          "name": "meta",
          "type": "tuple[]"
        },
        {
          "components": [
            {
              "components": [
                {
                  "internalType": "address",
                  "name": "target",
                  "type": "address"
                },
                {
                  "internalType": "address",
                  "name": "token",
                  "type": "address"
                },
                {
                  "internalType": "int256",
                  "name": "balance",
                  "type": "int256"
                }
              ],
              "internalType": "struct IBalanceProxy.Balance",
              "name": "balance",
              "type": "tuple"
            },
            {
              "internalType": "bool",
              "name": "useTransfer",
              "type": "bool"
            }
          ],
          "internalType": "struct IBalanceProxy.Approval[]",
          "name": "approvals",
          "type": "tuple[]"
        },
        {
          "internalType": "address",
          "name": "target",
          "type": "address"
        },
        {
          "internalType": "bytes",
          "name": "data",
          "type": "bytes"
        },
        {
          "components": [
            {
              "internalType": "address",
              "name": "target",
              "type": "address"
            },
            {
              "internalType": "address",
              "name": "token",
              "type": "address"
            },
            {
              "internalType": "int256",
              "name": "balance",
              "type": "int256"
            }
          ],
          "internalType": "struct IBalanceProxy.Balance[]",
          "name": "withdrawals",
          "type": "tuple[]"
        }
      ],
      "name": "proxyCallMeta",
      "outputs": [
        {
          "internalType": "bytes",
          "name": "",
          "type": "bytes"
        }
      ],
      "stateMutability": "payable",
      "type": "function"
    },
    {
      "stateMutability": "payable",
      "type": "receive"
    }
  ],
  "bytecode": "0x60808060405234601a576001600055610e3d90816100208239f35b600080fdfe6080604052600436101561001b575b361561001957600080fd5b005b60003560e01c806386c62850146103ca578063890e3add146101e7578063ce9506f9146101405763d3113d8a0361000e5761005536610790565b9093610062939293610a86565b60005b835181101561008b57806100858661007f600194886109c7565b51610b55565b01610065565b5091509260008082516020840134875af1926100a56109f1565b931561011f57505060005b83518110156100d557806100cf6100c9600193876109c7565b51610c88565b016100b0565b509060005b825181101561010057806100fa6100f3600193866109c7565b5151610d1e565b016100da565b60016000556040516020808252819061011b9082018561090b565b0390f35b61013c84604051938493630881f24f60e31b855260048501610a21565b0390fd5b6101493661094c565b9093610156939293610a86565b60005b835181101561017957806101738661007f600194886109c7565b01610159565b5091509260008082516020840134875af1926101936109f1565b931561011f57505060005b83518110156101bd57806101b76100c9600193876109c7565b0161019e565b509060005b825181101561010057806101e16101db600193866109c7565b51610d1e565b016101c2565b6101f03661094c565b9092936101fb610a86565b600090805161020981610995565b925b81811061038b575060005b875181101561023657806102308761007f6001948c6109c7565b01610216565b5084908660008082516020840134875af1926102506109f1565b931561011f57505060005b855181101561027a57806102746100c9600193896109c7565b0161025b565b508360005b8281106102a15760016000556040516020808252819061011b9082018761090b565b6102eb6102da6001600160a01b0360206102bb858a6109c7565b510151166001600160a01b036102d1858a6109c7565b51511690610aa8565b6102e483856109c7565b5190610a57565b60406102f783886109c7565b5101518112610309575060010161027f565b85919061013c9060406103496001600160a01b03602061032987896109c7565b51015116946001600160a01b0361034082896109c7565b515116966109c7565b510151604051637ec440e760e11b81526001600160a01b0394851660048201529490931660248501526044840192909252606483019190915281906084820190565b6001906103b96001600160a01b0360206103a584886109c7565b51015116838060a01b036102d184886109c7565b6103c382876109c7565b520161020b565b6103d336610790565b9092936103de610a86565b600081516103eb81610995565b915b818110610513575060005b875181101561041857806104128761007f6001948c6109c7565b016103f8565b5084908660008082516020840134875af1926104326109f1565b931561011f57505060005b855181101561045c57806104566100c9600193896109c7565b0161043d565b508360005b8281106104835760016000556040516020808252819061011b9082018761090b565b61048d81836109c7565b515160208101805182519192916104be916104b4916001600160a01b039081169116610aa8565b6102e4858a6109c7565b6040820151928382126104d75750505050600101610461565b519151604051637ec440e760e11b81526001600160a01b0393841660048201529216602483015260448201929092526064810191909152608490fd5b8061053e610523600193876109c7565b51516020810151905160a085901b8590039081169116610aa8565b61054882866109c7565b52016103ed565b606081019081106001600160401b0382111761056a57604052565b634e487b7160e01b600052604160045260246000fd5b90601f801991011681019081106001600160401b0382111761056a57604052565b6001600160401b03811161056a5760051b60200190565b35906001600160a01b03821682036105cc57565b600080fd5b91908260609103126105cc576040516105e98161054f565b60408082946105f7816105b8565b8452610605602082016105b8565b60208501520135910152565b6001600160401b03811161056a57601f01601f191660200190565b92919261063882610611565b916106466040519384610580565b8294818452818301116105cc578281602093846000960137010152565b9080601f830112156105cc5781359161067b836105a1565b926106896040519485610580565b80845260208085019160071b830101918383116105cc57602001905b8282106106b3575050505090565b6080828503126105cc5760405190604082018281106001600160401b0382111761056a576040526106e485846105d1565b825260608301359081151582036105cc57826020928360809501528152019101906106a5565b9080601f830112156105cc578160206107259335910161062c565b90565b81601f820112156105cc57803561073e816105a1565b9261074c6040519485610580565b818452602060608186019302840101928184116105cc57602001915b838310610776575050505090565b602060609161078584866105d1565b815201920191610768565b60a06003198201126105cc576004356001600160401b0381116105cc57816023820112156105cc578060040135906107c7826105a1565b916107d56040519384610580565b8083526024602084019160051b830101918483116105cc5760248101915b83831061086f5750505050916024356001600160401b0381116105cc578261081d91600401610663565b916044356001600160a01b03811681036105cc57916064356001600160401b0381116105cc57826108509160040161070a565b91608435906001600160401b0382116105cc5761072591600401610728565b82356001600160401b0381116105cc5782019060a082880360231901126105cc576040519161089d8361054f565b6108aa88602483016105d1565b835260848101356001600160401b0381116105cc576024908201019088601f830112156105cc576108e38983602060a49535910161062c565b602085015201359060ff821682036105cc5782602093926040859401528152019201916107f3565b919082519283825260005b848110610937575050826000602080949584010152601f8019910116010190565b80602080928401015182828601015201610916565b60a06003198201126105cc576004356001600160401b0381116105cc578161097691600401610728565b916024356001600160401b0381116105cc578261081d91600401610663565b9061099f826105a1565b6109ac6040519182610580565b82815280926109bd601f19916105a1565b0190602036910137565b80518210156109db5760209160051b010190565b634e487b7160e01b600052603260045260246000fd5b3d15610a1c573d90610a0282610611565b91610a106040519384610580565b82523d6000602084013e565b606090565b6001600160a01b039091168152606060208201819052610725939192610a499184019061090b565b91604081840391015261090b565b81810392916000138015828513169184121617610a7057565b634e487b7160e01b600052601160045260246000fd5b600260005414610a97576002600055565b633ee5aeb560e01b60005260046000fd5b6000906001600160a01b031680610abf5750503190565b6040516370a0823160e01b81526001600160a01b039093166004840152909190602090829060249082905afa918215610b31578092610afd57505090565b9091506020823d602011610b29575b81610b1960209383610580565b81010312610b2657505190565b80fd5b3d9150610b0c565b604051903d90823e3d90fd5b908160209103126105cc575180151581036105cc5790565b80518051919290916001600160a01b0390811691168103610c63575060408101805160008112610c4f5750516020929092015115610c1057602081810151915160405163a9059cbb60e01b81526001600160a01b0391821660048201526024810194909452909183911681600081604481015b03925af18015610c0457610bd95750565b610bfa9060203d602011610bfd575b610bf28183610580565b810190610b3d565b50565b503d610be8565b6040513d6000823e3d90fd5b602081810151915160405163095ea7b360e01b81526001600160a01b039182166004820152602481019490945290918391168160008160448101610bc8565b63303b302960e11b60005260045260246000fd5b90602060018060a01b0391015116635876e71160e01b60005260045260245260446000fd5b60208101516001600160a01b031680610cd85750600080808093604060018060a01b03825116910151908160ff1d809201918392818114610cce575b1891f115610c0457565b6108fc9350610cc4565b8151604092830151925163a9059cbb60e01b81526001600160a01b03909116600482015260ff83901d928301909218602483015260209082908160008160448101610bc8565b6020810180516000906001600160a01b031680610d9657505081516001600160a01b031631905b6040830151908160ff1d808301188310610d5f5750505050565b51925160405163d87031f960e01b81526001600160a01b039485166004820152931660248401526044830152606482015260849150fd5b602060018060a01b038551166024604051809481936370a0823160e01b835260048301525afa918215610b31578092610dd2575b505090610d45565b9091506020823d602011610dff575b81610dee60209383610580565b81010312610b265750513880610dca565b3d9150610de156fea264697066735822122053c34dae01f6d83a2013f054352b24d5eb605fc5a6ebe98dc95608caca0eaeca64736f6c634300081b0033",
  "linkReferences": {},
  "deployedLinkReferences": {}
}