{
  "_format": "hh-sol-artifact-1",
  "contractName": "ApproveRouter",
  "sourceName": "contracts/ApproveRouter.sol",
  "abi": [
    {
      "inputs": [
        {
          "internalType": "contract IBalanceProxy",
          "name": "balanceProxy",
          "type": "address"
        },
        {
          "components": [
            {
              "internalType": "address",
              "name": "target",
              "type": "address"
            },
            {
              "internalType": "address",
              "name": "token",
              "type": "address"
            },
            {
              "internalType": "int256",
              "name": "balance",
              "type": "int256"
            }
          ],
          "internalType": "struct IBalanceProxy.Balance[]",
          "name": "postBalances",
          "type": "tuple[]"
        },
        {
          "components": [
            {
              "components": [
                {
                  "internalType": "address",
                  "name": "target",
                  "type": "address"
                },
                {
                  "internalType": "address",
                  "name": "token",
                  "type": "address"
                },
                {
                  "internalType": "int256",
                  "name": "balance",
                  "type": "int256"
                }
              ],
              "internalType": "struct IBalanceProxy.Balance",
              "name": "balance",
              "type": "tuple"
            },
            {
              "internalType": "bool",
              "name": "useTransfer",
              "type": "bool"
            }
          ],
          "internalType": "struct IBalanceProxy.Approval[]",
          "name": "approvals",
          "type": "tuple[]"
        },
        {
          "internalType": "address",
          "name": "target",
          "type": "address"
        },
        {
          "internalType": "bytes",
          "name": "data",
          "type": "bytes"
        },
        {
          "components": [
            {
              "internalType": "address",
              "name": "target",
              "type": "address"
            },
            {
              "internalType": "address",
              "name": "token",
              "type": "address"
            },
            {
              "internalType": "int256",
              "name": "balance",
              "type": "int256"
            }
          ],
          "internalType": "struct IBalanceProxy.Balance[]",
          "name": "withdrawals",
          "type": "tuple[]"
        }
      ],
      "name": "approveProxyCall",
      "outputs": [
        {
          "internalType": "bytes",
          "name": "",
          "type": "bytes"
        }
      ],
      "stateMutability": "payable",
      "type": "function"
    },
    {
      "inputs": [
        {
          "internalType": "contract IBalanceProxy",
          "name": "balanceProxy",
          "type": "address"
        },
        {
          "components": [
            {
              "internalType": "address",
              "name": "target",
              "type": "address"
            },
            {
              "internalType": "address",
              "name": "token",
              "type": "address"
            },
            {
              "internalType": "int256",
              "name": "balance",
              "type": "int256"
            }
          ],
          "internalType": "struct IBalanceProxy.Balance[]",
          "name": "diffs",
          "type": "tuple[]"
        },
        {
          "components": [
            {
              "components": [
                {
                  "internalType": "address",
                  "name": "target",
                  "type": "address"
                },
                {
                  "internalType": "address",
                  "name": "token",
                  "type": "address"
                },
                {
                  "internalType": "int256",
                  "name": "balance",
                  "type": "int256"
                }
              ],
              "internalType": "struct IBalanceProxy.Balance",
              "name": "balance",
              "type": "tuple"
            },
            {
              "internalType": "bool",
              "name": "useTransfer",
              "type": "bool"
            }
          ],
          "internalType": "struct IBalanceProxy.Approval[]",
          "name": "approvals",
          "type": "tuple[]"
        },
        {
          "internalType": "address",
          "name": "target",
          "type": "address"
        },
        {
          "internalType": "bytes",
          "name": "data",
          "type": "bytes"
        },
        {
          "components": [
            {
              "internalType": "address",
              "name": "target",
              "type": "address"
            },
            {
              "internalType": "address",
              "name": "token",
              "type": "address"
            },
            {
              "internalType": "int256",
              "name": "balance",
              "type": "int256"
            }
          ],
          "internalType": "struct IBalanceProxy.Balance[]",
          "name": "withdrawals",
          "type": "tuple[]"
        }
      ],
      "name": "approveProxyCallDiffs",
      "outputs": [
        {
          "internalType": "bytes",
          "name": "",
          "type": "bytes"
        }
      ],
      "stateMutability": "payable",
      "type": "function"
    },
    {
      "inputs": [
        {
          "internalType": "contract IBalanceProxy",
          "name": "balanceProxy",
          "type": "address"
        },
        {
          "components": [
            {
              "components": [
                {
                  "internalType": "address",
                  "name": "target",
                  "type": "address"
                },
                {
                  "internalType": "address",
                  "name": "token",
                  "type": "address"
                },
                {
                  "internalType": "int256",
                  "name": "balance",
                  "type": "int256"
                }
              ],
              "internalType": "struct IBalanceProxy.Balance",
              "name": "balance",
              "type": "tuple"
            },
            {
              "internalType": "string",
              "name": "symbol",
              "type": "string"
            },
            {
              "internalType": "uint8",
              "name": "decimals",
              "type": "uint8"
            }
          ],
          "internalType": "struct BalanceMetadata[]",
          "name": "meta",
          "type": "tuple[]"
        },
        {
          "components": [
            {
              "components": [
                {
                  "internalType": "address",
                  "name": "target",
                  "type": "address"
                },
                {
                  "internalType": "address",
                  "name": "token",
                  "type": "address"
                },
                {
                  "internalType": "int256",
                  "name": "balance",
                  "type": "int256"
                }
              ],
              "internalType": "struct IBalanceProxy.Balance",
              "name": "balance",
              "type": "tuple"
            },
            {
              "internalType": "bool",
              "name": "useTransfer",
              "type": "bool"
            }
          ],
          "internalType": "struct IBalanceProxy.Approval[]",
          "name": "approvals",
          "type": "tuple[]"
        },
        {
          "internalType": "address",
          "name": "target",
          "type": "address"
        },
        {
          "internalType": "bytes",
          "name": "data",
          "type": "bytes"
        },
        {
          "components": [
            {
              "internalType": "address",
              "name": "target",
              "type": "address"
            },
            {
              "internalType": "address",
              "name": "token",
              "type": "address"
            },
            {
              "internalType": "int256",
              "name": "balance",
              "type": "int256"
            }
          ],
          "internalType": "struct IBalanceProxy.Balance[]",
          "name": "withdrawals",
          "type": "tuple[]"
        }
      ],
      "name": "approveProxyCallDiffsWithMeta",
      "outputs": [
        {
          "internalType": "bytes",
          "name": "",
          "type": "bytes"
        }
      ],
      "stateMutability": "payable",
      "type": "function"
    },
    {
      "inputs": [
        {
          "internalType": "contract IBalanceProxy",
          "name": "balanceProxy",
          "type": "address"
        },
        {
          "components": [
            {
              "components": [
                {
                  "internalType": "address",
                  "name": "target",
                  "type": "address"
                },
                {
                  "internalType": "address",
                  "name": "token",
                  "type": "address"
                },
                {
                  "internalType": "int256",
                  "name": "balance",
                  "type": "int256"
                }
              ],
              "internalType": "struct IBalanceProxy.Balance",
              "name": "balance",
              "type": "tuple"
            },
            {
              "internalType": "string",
              "name": "symbol",
              "type": "string"
            },
            {
              "internalType": "uint8",
              "name": "decimals",
              "type": "uint8"
            }
          ],
          "internalType": "struct BalanceMetadata[]",
          "name": "meta",
          "type": "tuple[]"
        },
        {
          "components": [
            {
              "components": [
                {
                  "internalType": "address",
                  "name": "target",
                  "type": "address"
                },
                {
                  "internalType": "address",
                  "name": "token",
                  "type": "address"
                },
                {
                  "internalType": "int256",
                  "name": "balance",
                  "type": "int256"
                }
              ],
              "internalType": "struct IBalanceProxy.Balance",
              "name": "balance",
              "type": "tuple"
            },
            {
              "internalType": "bool",
              "name": "useTransfer",
              "type": "bool"
            }
          ],
          "internalType": "struct IBalanceProxy.Approval[]",
          "name": "approvals",
          "type": "tuple[]"
        },
        {
          "internalType": "address",
          "name": "target",
          "type": "address"
        },
        {
          "internalType": "bytes",
          "name": "data",
          "type": "bytes"
        },
        {
          "components": [
            {
              "internalType": "address",
              "name": "target",
              "type": "address"
            },
            {
              "internalType": "address",
              "name": "token",
              "type": "address"
            },
            {
              "internalType": "int256",
              "name": "balance",
              "type": "int256"
            }
          ],
          "internalType": "struct IBalanceProxy.Balance[]",
          "name": "withdrawals",
          "type": "tuple[]"
        }
      ],
      "name": "approveProxyCallWithMeta",
      "outputs": [
        {
          "internalType": "bytes",
          "name": "",
          "type": "bytes"
        }
      ],
      "stateMutability": "payable",
      "type": "function"
    }
  ],
  "bytecode": "0x60808060405234601557610aa7908161001b8239f35b600080fdfe6080604052600436101561001257600080fd5b60003560e01c8063b3375fd6146102cf578063c670727014610235578063d82199ff1461019b5763e5d77b3c1461004857600080fd5b61005136610782565b929492936001600160a01b039093169290919060005b865181101561011f578060206100cb6100826000948b6107e0565b51516040808201519184015190516323b872dd60e01b81523360048201526001600160a01b038b8116602483015260448201939093529586939190921691839182906064820190565b03925af1918215610113576001926100e5575b5001610067565b6101059060203d811161010c575b6100fd81836103b3565b81019061080a565b50386100de565b503d6100f3565b6040513d6000823e3d90fd5b50928560009394610147876040519788968795869563ce9506f960e01b875260048701610a44565b039134905af180156101135761017491600091610178575b5060405191829160208352602083019061075d565b0390f35b61019591503d806000833e61018d81836103b3565b810190610822565b8261015f565b6101a4366105aa565b929492936001600160a01b039093169290919060005b865181101561020d578060206101d56100826000948b6107e0565b03925af1918215610113576001926101ef575b50016101ba565b6102069060203d811161010c576100fd81836103b3565b50886101e8565b5092856000939461014787604051978896879586956369889ec560e11b875260048701610950565b61023e36610782565b929492936001600160a01b039093169290919060005b86518110156102a75780602061026f6100826000948b6107e0565b03925af191821561011357600192610289575b5001610254565b6102a09060203d811161010c576100fd81836103b3565b5088610282565b50928560009394610147876040519788968795869563890e3add60e01b875260048701610a44565b6102d8366105aa565b929492936001600160a01b039093169290919060005b8651811015610341578060206103096100826000948b6107e0565b03925af191821561011357600192610323575b50016102ee565b61033a9060203d811161010c576100fd81836103b3565b508861031c565b50928560009394610147876040519788968795869563086c628560e41b875260048701610950565b35906001600160a01b038216820361037d57565b600080fd5b606081019081106001600160401b0382111761039d57604052565b634e487b7160e01b600052604160045260246000fd5b90601f801991011681019081106001600160401b0382111761039d57604052565b6001600160401b03811161039d5760051b60200190565b919082606091031261037d5760405161040381610382565b604080829461041181610369565b845261041f60208201610369565b60208501520135910152565b6001600160401b03811161039d57601f01601f191660200190565b9291926104528261042b565b9161046060405193846103b3565b82948184528183011161037d578281602093846000960137010152565b9080601f8301121561037d57813591610495836103d4565b926104a360405194856103b3565b80845260208085019160071b8301019183831161037d57602001905b8282106104cd575050505090565b60808285031261037d5760405190604082018281106001600160401b0382111761039d576040526104fe85846103eb565b8252606083013590811515820361037d57826020928360809501528152019101906104bf565b9080601f8301121561037d5781602061053f93359101610446565b90565b81601f8201121561037d578035610558816103d4565b9261056660405194856103b3565b8184526020606081860193028401019281841161037d57602001915b838310610590575050505090565b602060609161059f84866103eb565b815201920191610582565b9060c060031983011261037d576004356001600160a01b038116810361037d57916024356001600160401b03811161037d578160238201121561037d578060040135906105f6826103d4565b9161060460405193846103b3565b8083526024602084019160051b8301019184831161037d5760248101915b83831061069e5750505050916044356001600160401b03811161037d578261064c9160040161047d565b916064356001600160a01b038116810361037d57916084356001600160401b03811161037d578261067f91600401610524565b9160a435906001600160401b03821161037d5761053f91600401610542565b82356001600160401b03811161037d5782019060a0828803602319011261037d57604051916106cc83610382565b6106d988602483016103eb565b835260848101356001600160401b03811161037d576024908201019088601f8301121561037d576107128983602060a495359101610446565b602085015201359060ff8216820361037d578260209392604085940152815201920191610622565b60005b83811061074d5750506000910152565b818101518382015260200161073d565b906020916107768151809281855285808601910161073a565b601f01601f1916010190565b9060c060031983011261037d576004356001600160a01b038116810361037d57916024356001600160401b03811161037d57816107c191600401610542565b916044356001600160401b03811161037d578261064c9160040161047d565b80518210156107f45760209160051b010190565b634e487b7160e01b600052603260045260246000fd5b9081602091031261037d5751801515810361037d5790565b60208183031261037d578051906001600160401b03821161037d570181601f8201121561037d5780516108548161042b565b9261086260405194856103b3565b8184526020828401011161037d5761053f916020808501910161073a565b906020808351928381520192019060005b81811061089e5750505090565b909192602060806001928287516108da8382516040809160018060a01b03815116845260018060a01b0360208201511660208501520151910152565b015115156060820152019401929101610891565b906020808351928381520192019060005b81811061090c5750505090565b909192602060608261094560019488516040809160018060a01b03815116845260018060a01b0360208201511660208501520151910152565b0194019291016108ff565b9390959492919560a0850160a08652815180915260c0860190602060c08260051b8901019301916000905b8282106109cc5750505050906109a18261053f9798876109be9695036020890152610880565b6001600160a01b039092166040860152848203606086015261075d565b9160808184039101526108ee565b9091929360208060019260bf198c8203018552875190610a118183516040809160018060a01b03815116845260018060a01b0360208201511660208501520151910152565b608060ff6040610a2f8686015160a0606087015260a086019061075d565b9401511691015296019201920190929161097b565b936109a16109be93610a6361053f98969460a0895260a08901906108ee565b90878203602089015261088056fea26469706673582212208ea60e188613e54ec34676d8f582c7fc407dccff5cf935d9124ea389de71a59b64736f6c634300081b0033",
  "linkReferences": {},
  "deployedLinkReferences": {}
}