{
  "_format": "hh-sol-artifact-1",
  "contractName": "SafeRouter",
  "sourceName": "contracts/SafeRouter.sol",
  "abi": [
    {
      "inputs": [
        {
          "internalType": "uint256",
          "name": "providedWithRouter",
          "type": "uint256"
        },
        {
          "internalType": "uint256",
          "name": "threshold",
          "type": "uint256"
        }
      ],
      "name": "InsufficientSafeSignatures",
      "type": "error"
    },
    {
      "inputs": [
        {
          "internalType": "address",
          "name": "token",
          "type": "address"
        },
        {
          "internalType": "string",
          "name": "expectedSymbol",
          "type": "string"
        },
        {
          "internalType": "uint8",
          "name": "expectedDecimals",
          "type": "uint8"
        },
        {
          "internalType": "string",
          "name": "actualSymbol",
          "type": "string"
        },
        {
          "internalType": "uint8",
          "name": "actualDecimals",
          "type": "uint8"
        }
      ],
      "name": "InvalidMetadata",
      "type": "error"
    },
    {
      "inputs": [
        {
          "internalType": "uint256",
          "name": "position",
          "type": "uint256"
        },
        {
          "internalType": "uint256",
          "name": "signatureCount",
          "type": "uint256"
        }
      ],
      "name": "InvalidRouterSignaturePosition",
      "type": "error"
    },
    {
      "inputs": [
        {
          "internalType": "uint256",
          "name": "length",
          "type": "uint256"
        }
      ],
      "name": "InvalidSignaturesLength",
      "type": "error"
    },
    {
      "inputs": [
        {
          "internalType": "uint256",
          "name": "metaLength",
          "type": "uint256"
        },
        {
          "internalType": "uint256",
          "name": "balancesLength",
          "type": "uint256"
        }
      ],
      "name": "MetadataBalancesLengthMismatch",
      "type": "error"
    },
    {
      "inputs": [
        {
          "internalType": "address",
          "name": "caller",
          "type": "address"
        },
        {
          "internalType": "address",
          "name": "safe",
          "type": "address"
        }
      ],
      "name": "NotSafeOwner",
      "type": "error"
    },
    {
      "inputs": [
        {
          "internalType": "address",
          "name": "router",
          "type": "address"
        },
        {
          "internalType": "address",
          "name": "safe",
          "type": "address"
        }
      ],
      "name": "RouterNotSafeOwner",
      "type": "error"
    },
    {
      "inputs": [
        {
          "internalType": "address",
          "name": "safe",
          "type": "address"
        },
        {
          "internalType": "address",
          "name": "target",
          "type": "address"
        }
      ],
      "name": "SafeExecutionFailed",
      "type": "error"
    },
    {
      "inputs": [],
      "name": "UnauthorizedSafeExecution",
      "type": "error"
    },
    {
      "inputs": [
        {
          "internalType": "enum Enum.Operation",
          "name": "operation",
          "type": "uint8"
        }
      ],
      "name": "UnsupportedSafeOperation",
      "type": "error"
    },
    {
      "inputs": [
        {
          "internalType": "contract ISafe",
          "name": "safe",
          "type": "address"
        },
        {
          "components": [
            {
              "internalType": "address",
              "name": "to",
              "type": "address"
            },
            {
              "internalType": "uint256",
              "name": "value",
              "type": "uint256"
            },
            {
              "internalType": "bytes",
              "name": "data",
              "type": "bytes"
            },
            {
              "internalType": "enum Enum.Operation",
              "name": "operation",
              "type": "uint8"
            },
            {
              "internalType": "uint256",
              "name": "safeTxGas",
              "type": "uint256"
            },
            {
              "internalType": "uint256",
              "name": "baseGas",
              "type": "uint256"
            },
            {
              "internalType": "uint256",
              "name": "gasPrice",
              "type": "uint256"
            },
            {
              "internalType": "address",
              "name": "gasToken",
              "type": "address"
            },
            {
              "internalType": "address payable",
              "name": "refundReceiver",
              "type": "address"
            },
            {
              "internalType": "bytes",
              "name": "signatures",
              "type": "bytes"
            },
            {
              "internalType": "uint256",
              "name": "routerSigPosition",
              "type": "uint256"
            }
          ],
          "internalType": "struct SafeRouter.SafeTx",
          "name": "safeTx",
          "type": "tuple"
        }
      ],
      "name": "executeSafeTransaction",
      "outputs": [],
      "stateMutability": "nonpayable",
      "type": "function"
    },
    {
      "inputs": [
        {
          "internalType": "contract IBalanceProxy",
          "name": "balanceProxy",
          "type": "address"
        },
        {
          "internalType": "contract ISafe",
          "name": "safe",
          "type": "address"
        },
        {
          "components": [
            {
              "internalType": "address",
              "name": "target",
              "type": "address"
            },
            {
              "internalType": "address",
              "name": "token",
              "type": "address"
            },
            {
              "internalType": "int256",
              "name": "balance",
              "type": "int256"
            }
          ],
          "internalType": "struct IBalanceProxy.Balance[]",
          "name": "diffs",
          "type": "tuple[]"
        },
        {
          "components": [
            {
              "internalType": "address",
              "name": "to",
              "type": "address"
            },
            {
              "internalType": "uint256",
              "name": "value",
              "type": "uint256"
            },
            {
              "internalType": "bytes",
              "name": "data",
              "type": "bytes"
            },
            {
              "internalType": "enum Enum.Operation",
              "name": "operation",
              "type": "uint8"
            },
            {
              "internalType": "uint256",
              "name": "safeTxGas",
              "type": "uint256"
            },
            {
              "internalType": "uint256",
              "name": "baseGas",
              "type": "uint256"
            },
            {
              "internalType": "uint256",
              "name": "gasPrice",
              "type": "uint256"
            },
            {
              "internalType": "address",
              "name": "gasToken",
              "type": "address"
            },
            {
              "internalType": "address payable",
              "name": "refundReceiver",
              "type": "address"
            },
            {
              "internalType": "bytes",
              "name": "signatures",
              "type": "bytes"
            },
            {
              "internalType": "uint256",
              "name": "routerSigPosition",
              "type": "uint256"
            }
          ],
          "internalType": "struct SafeRouter.SafeTx",
          "name": "safeTx",
          "type": "tuple"
        }
      ],
      "name": "safeExecuteWithDiffs",
      "outputs": [],
      "stateMutability": "nonpayable",
      "type": "function"
    },
    {
      "inputs": [
        {
          "internalType": "contract IBalanceProxy",
          "name": "balanceProxy",
          "type": "address"
        },
        {
          "internalType": "contract ISafe",
          "name": "safe",
          "type": "address"
        },
        {
          "components": [
            {
              "internalType": "string",
              "name": "symbol",
              "type": "string"
            },
            {
              "internalType": "uint8",
              "name": "decimals",
              "type": "uint8"
            }
          ],
          "internalType": "struct BalanceMetadata[]",
          "name": "meta",
          "type": "tuple[]"
        },
        {
          "components": [
            {
              "internalType": "address",
              "name": "target",
              "type": "address"
            },
            {
              "internalType": "address",
              "name": "token",
              "type": "address"
            },
            {
              "internalType": "int256",
              "name": "balance",
              "type": "int256"
            }
          ],
          "internalType": "struct IBalanceProxy.Balance[]",
          "name": "diffs",
          "type": "tuple[]"
        },
        {
          "components": [
            {
              "internalType": "address",
              "name": "to",
              "type": "address"
            },
            {
              "internalType": "uint256",
              "name": "value",
              "type": "uint256"
            },
            {
              "internalType": "bytes",
              "name": "data",
              "type": "bytes"
            },
            {
              "internalType": "enum Enum.Operation",
              "name": "operation",
              "type": "uint8"
            },
            {
              "internalType": "uint256",
              "name": "safeTxGas",
              "type": "uint256"
            },
            {
              "internalType": "uint256",
              "name": "baseGas",
              "type": "uint256"
            },
            {
              "internalType": "uint256",
              "name": "gasPrice",
              "type": "uint256"
            },
            {
              "internalType": "address",
              "name": "gasToken",
              "type": "address"
            },
            {
              "internalType": "address payable",
              "name": "refundReceiver",
              "type": "address"
            },
            {
              "internalType": "bytes",
              "name": "signatures",
              "type": "bytes"
            },
            {
              "internalType": "uint256",
              "name": "routerSigPosition",
              "type": "uint256"
            }
          ],
          "internalType": "struct SafeRouter.SafeTx",
          "name": "safeTx",
          "type": "tuple"
        }
      ],
      "name": "safeExecuteWithDiffsMeta",
      "outputs": [],
      "stateMutability": "nonpayable",
      "type": "function"
    },
    {
      "inputs": [
        {
          "internalType": "contract IBalanceProxy",
          "name": "balanceProxy",
          "type": "address"
        },
        {
          "internalType": "contract ISafe",
          "name": "safe",
          "type": "address"
        },
        {
          "components": [
            {
              "internalType": "address",
              "name": "target",
              "type": "address"
            },
            {
              "internalType": "address",
              "name": "token",
              "type": "address"
            },
            {
              "internalType": "int256",
              "name": "balance",
              "type": "int256"
            }
          ],
          "internalType": "struct IBalanceProxy.Balance[]",
          "name": "postBalances",
          "type": "tuple[]"
        },
        {
          "components": [
            {
              "internalType": "address",
              "name": "to",
              "type": "address"
            },
            {
              "internalType": "uint256",
              "name": "value",
              "type": "uint256"
            },
            {
              "internalType": "bytes",
              "name": "data",
              "type": "bytes"
            },
            {
              "internalType": "enum Enum.Operation",
              "name": "operation",
              "type": "uint8"
            },
            {
              "internalType": "uint256",
              "name": "safeTxGas",
              "type": "uint256"
            },
            {
              "internalType": "uint256",
              "name": "baseGas",
              "type": "uint256"
            },
            {
              "internalType": "uint256",
              "name": "gasPrice",
              "type": "uint256"
            },
            {
              "internalType": "address",
              "name": "gasToken",
              "type": "address"
            },
            {
              "internalType": "address payable",
              "name": "refundReceiver",
              "type": "address"
            },
            {
              "internalType": "bytes",
              "name": "signatures",
              "type": "bytes"
            },
            {
              "internalType": "uint256",
              "name": "routerSigPosition",
              "type": "uint256"
            }
          ],
          "internalType": "struct SafeRouter.SafeTx",
          "name": "safeTx",
          "type": "tuple"
        }
      ],
      "name": "safeExecuteWithPostBalances",
      "outputs": [],
      "stateMutability": "nonpayable",
      "type": "function"
    },
    {
      "inputs": [
        {
          "internalType": "contract IBalanceProxy",
          "name": "balanceProxy",
          "type": "address"
        },
        {
          "internalType": "contract ISafe",
          "name": "safe",
          "type": "address"
        },
        {
          "components": [
            {
              "internalType": "string",
              "name": "symbol",
              "type": "string"
            },
            {
              "internalType": "uint8",
              "name": "decimals",
              "type": "uint8"
            }
          ],
          "internalType": "struct BalanceMetadata[]",
          "name": "meta",
          "type": "tuple[]"
        },
        {
          "components": [
            {
              "internalType": "address",
              "name": "target",
              "type": "address"
            },
            {
              "internalType": "address",
              "name": "token",
              "type": "address"
            },
            {
              "internalType": "int256",
              "name": "balance",
              "type": "int256"
            }
          ],
          "internalType": "struct IBalanceProxy.Balance[]",
          "name": "postBalances",
          "type": "tuple[]"
        },
        {
          "components": [
            {
              "internalType": "address",
              "name": "to",
              "type": "address"
            },
            {
              "internalType": "uint256",
              "name": "value",
              "type": "uint256"
            },
            {
              "internalType": "bytes",
              "name": "data",
              "type": "bytes"
            },
            {
              "internalType": "enum Enum.Operation",
              "name": "operation",
              "type": "uint8"
            },
            {
              "internalType": "uint256",
              "name": "safeTxGas",
              "type": "uint256"
            },
            {
              "internalType": "uint256",
              "name": "baseGas",
              "type": "uint256"
            },
            {
              "internalType": "uint256",
              "name": "gasPrice",
              "type": "uint256"
            },
            {
              "internalType": "address",
              "name": "gasToken",
              "type": "address"
            },
            {
              "internalType": "address payable",
              "name": "refundReceiver",
              "type": "address"
            },
            {
              "internalType": "bytes",
              "name": "signatures",
              "type": "bytes"
            },
            {
              "internalType": "uint256",
              "name": "routerSigPosition",
              "type": "uint256"
            }
          ],
          "internalType": "struct SafeRouter.SafeTx",
          "name": "safeTx",
          "type": "tuple"
        }
      ],
      "name": "safeExecuteWithPostBalancesMeta",
      "outputs": [],
      "stateMutability": "nonpayable",
      "type": "function"
    }
  ],
  "bytecode": "0x608080604052346015576111b6908161001b8239f35b600080fdfe6080604052600436101561001257600080fd5b6000803560e01c806321482d6b1461043457806387042af5146103ff578063d2d169fc146103d2578063d86d2633146103a25763ece10c061461005457600080fd5b3461039f57604036600319011261039f576004356001600160a01b0381169081810361039d576024356001600160401b0381116103995780600401916101606003198336030112610395576100d183916100c3604051938492637670860360e11b602085015260248401610643565b03601f19810183528261073b565b6100dd855491336110c9565b03610386576100f061012482018361086a565b604051631cea46b760e31b81526101448401359291906020816004818a5afa801561037b578890610343575b61012991508483856110fc565b6040519060208201308152886040840152600160f81b60608401526041835261015360618461073b565b60418502948086046041149015171561032f5781851161032b57886101bd9596979899505060208680860193039384926101a5896040519a8b99868b0137880191848301936000855251938491610993565b0101918237016000815203601f19810183528261073b565b6101c68361097f565b6101d3604484018561086a565b91909360648101356002811015610326576101f060e4830161097f565b946101048301356001600160a01b038116908190036103265760209660c46102a09561025f6102546040519c8d9b8c9b63353b090160e11b8d5260018060a01b031660048d0152602485013560248d015261014060448d01526101448c01916105ff565b9660648a0190610620565b6084818101359089015260a48082013590890152013560c48701526001600160a01b031660e486015261010485015283820360031901610124850152610a2a565b03816000875af190811561031a576000916102eb575b50156102be57005b6102c79061097f565b6371995c9d60e11b60009081526004929092526001600160a01b0316602452604490fd5b61030d915060203d602011610313575b610305818361073b565b810190610772565b386102b6565b503d6102fb565b6040513d6000823e3d90fd5b600080fd5b8880fd5b634e487b7160e01b89526011600452602489fd5b506020813d602011610373575b8161035d6020938361073b565b8101031261036f57610129905161011c565b8780fd5b3d9150610350565b6040513d8a823e3d90fd5b63f8ffbe2f60e01b8452600484fd5b8480fd5b8380fd5b825b80fd5b503461039f576103cf6103b436610550565b936103c084929461078a565b6103ca858361089c565b610fa2565b80f35b503461039f576103cf6103e436610550565b936103f084929461078a565b6103fa858361089c565b611059565b503461039f576103cf6103fa6104143661048d565b96918196938695610425839861078a565b61042f8a8861089c565b610a4f565b503461039f576103cf6103ca6104143661048d565b35906001600160a01b038216820361032657565b9181601f84011215610326578235916001600160401b038311610326576020808501946060850201011161032657565b60a0600319820112610326576004356001600160a01b038116810361032657916024356001600160a01b03811681036103265791604435916001600160401b0383116103265781602384011215610326578260040135926001600160401b038411610326578260248560051b830101116103265760240192916064356001600160401b03811161032657816105249160040161045d565b92909291608435906001600160401b038211610326576101609082900360031901126103265760040190565b6080600319820112610326576004356001600160a01b038116810361032657916024356001600160a01b038116810361032657916044356001600160401b03811161032657816105a29160040161045d565b92909291606435906001600160401b038211610326576101609082900360031901126103265760040190565b9035601e19823603018112156103265701602081359101916001600160401b03821161032657813603831361032657565b908060209392818452848401376000828201840152601f01601f1916010190565b90600282101561062d5752565b634e487b7160e01b600052602160045260246000fd5b6001600160a01b039182168152604060208201529061066183610449565b1660408201526020820135606082015261069461068160408401846105ce565b61016060808501526101a08401916105ff565b60608301356002811015610326576106b09060a0840190610620565b608083013560c083015260a083013560e083015260c083013561010083015260018060a01b036106e260e08501610449565b166101208301526101008301356001600160a01b03811691908290036103265761073261014091610180938386015261071f6101208701876105ce565b868303603f1901610160880152906105ff565b93013591015290565b90601f801991011681019081106001600160401b0382111761075c57604052565b634e487b7160e01b600052604160045260246000fd5b90816020910312610326575180151581036103265790565b6040516317aa5fb760e11b81523360048201526001600160a01b039190911690602081602481855afa90811561031a5760009161084b575b5015610833576040516317aa5fb760e11b8152306004820152602081602481855afa90811561031a57600091610814575b50156107fc5750565b63663cd0c560e11b6000523060045260245260446000fd5b61082d915060203d60201161031357610305818361073b565b386107f3565b634451317160e11b6000523360045260245260446000fd5b610864915060203d60201161031357610305818361073b565b386107c2565b903590601e198136030182121561032657018035906001600160401b0382116103265760200191813603831361032657565b6060820135600281108015610326578161094057505060049060206108c561012085018561086a565b604051631cea46b760e31b8152949193909291859182906001600160a01b03165afa92831561031a57600093610908575b50610140610906940135916110fc565b565b9392506020843d602011610938575b816109246020938361073b565b8101031261032657925191926101406108f6565b3d9150610917565b63b284b01b60e01b6000521561062d5760045260246000fd5b9190811015610969576060020190565b634e487b7160e01b600052603260045260246000fd5b356001600160a01b03811681036103265790565b60005b8381106109a65750506000910152565b8181015183820152602001610996565b909291926001600160401b03811161075c57604051916109e0601f8301601f19166020018461073b565b829482845282820111610326576020610906930190610993565b91908110156109695760051b81013590603e1981360301821215610326570190565b3560ff811681036103265790565b90602091610a4381518092818552858086019101610993565b601f01601f1916010190565b919091838303610d155760005b838110610a6a575050505050565b60006001600160a01b03610a8a6020610a84858a89610959565b0161097f565b16610bf157506040610a9e8151918261073b565b600381526208aa8960eb1b60208201526012905b6040516020810190610ae06020828551610acf8187858a01610993565b81010301601f19810183528261073b565b519020610af7610af18589886109fa565b8061086a565b610b1f602060405183819483830196873781016000838201520301601f19810183528261073b565b51902014801590610bd2575b610b39575050600101610a5c565b60ff610baf610b7b6020610b7587610b6d610af1828e9f868a9e9c9f610bc79e610b6693610a8492610959565b9e8b6109fa565b9d90986109fa565b01610a1c565b604051635591851960e01b81526001600160a01b0390991660048a015260a060248a0152979889989460a48a0191906105ff565b92166044870152858203600319016064870152610a2a565b911660848301520390fd5b5060ff610be56020610b75868a896109fa565b1660ff83161415610b2b565b6004816001600160a01b03610c0c6020610a84878c8b610959565b16604051928380926395d89b4160e01b82525afa918215610d09578092610cb5575b506004905060206001600160a01b03610c4c82610a84878c8b610959565b166040519283809263313ce56760e01b82525afa90811561031a57600091610c76575b5090610ab2565b6020813d8211610cad575b81610c8e6020938361073b565b81010312610ca957519060ff8216820361039f575038610c6f565b5080fd5b3d9150610c81565b9091503d8082843e610cc7818461073b565b820191602081840312610ca9578051906001600160401b03821161039d57019082601f8301121561039f57508051610d0292916020016109b6565b3880610c2e565b604051903d90823e3d90fd5b5050630a7df64d60e41b60005260045260245260446000fd5b60405190606082018281106001600160401b0382111761075c5760405260006040838281528260208201520152565b60405190610d6c60208361073b565b60008083528290805b818110610d8157505050565b6040519060408201918083106001600160401b0384111761075c57602092604052610daa610d2e565b815260008382015282828601015201610d75565b60405190610dcd60208361073b565b600080835282815b828110610de157505050565b602090610dec610d2e565b82828501015201610dd5565b602081830312610326578051906001600160401b03821161032657019080601f83011215610326578151610e2e926020016109b6565b90565b94919390938060a0870160a088525260c08601949060005b818110610f545750505084840360208601526020808451958681520193019360005b818110610efe5750506001600160a01b031660408501528382036060850152610e949250610a2a565b9060808183039101526020808351928381520192019060005b818110610eba5750505090565b9091926020606082610ef360019488516040809160018060a01b03815116845260018060a01b0360208201511660208501520151910152565b019401929101610ead565b9091929360206080600192828951610f3b8382516040809160018060a01b03815116845260018060a01b0360208201511660208501520151910152565b0151151560608201520196019101949392919094610e6b565b909192939495606080600192838060a01b03610f6f88610449565b168152838060a01b03610f8460208901610449565b16602082015260408781013590820152019796959401929101610e49565b610fd660009492610fc8604051978892637670860360e11b602085015260248401610643565b03601f19810187528661073b565b6001600160a01b031690610fea85836110c9565b845583610ff5610d5d565b91611020611001610dbe565b60405163ce9506f960e01b815298899788968795309260048801610e31565b03925af1801561031a57611036575b5060008055565b611052903d806000833e61104a818361073b565b810190610df8565b503861102f565b61107f60009492610fc8604051978892637670860360e11b602085015260248401610643565b6001600160a01b03169061109385836110c9565b84558361109e610d5d565b916110206110aa610dbe565b60405163890e3add60e01b815298899788968795309260048801610e31565b906110f66100c391604051928391602083019560018060a01b031686526040808401526060830190610a2a565b51902090565b506041810661116c57604190049081811161115557506001810180911161113f57818110611128575050565b633562c20f60e11b60005260045260245260446000fd5b634e487b7160e01b600052601160045260246000fd5b636fe59b1d60e11b60005260045260245260446000fd5b630137b8c960e21b60005260045260246000fdfea26469706673582212204292d82ee9275fa5d0cd63ceccbc190dfc1f65da7d8a6141c4171ad88e2a8ae164736f6c634300081b0033",
  "linkReferences": {},
  "deployedLinkReferences": {}
}