{
  "_format": "hh-sol-artifact-1",
  "contractName": "ApproveRouter",
  "sourceName": "contracts/ApproveRouter.sol",
  "abi": [
    {
      "inputs": [
        {
          "internalType": "contract IBalanceProxy",
          "name": "balanceProxy",
          "type": "address"
        },
        {
          "components": [
            {
              "internalType": "address",
              "name": "target",
              "type": "address"
            },
            {
              "internalType": "address",
              "name": "token",
              "type": "address"
            },
            {
              "internalType": "int256",
              "name": "balance",
              "type": "int256"
            }
          ],
          "internalType": "struct IBalanceProxy.Balance[]",
          "name": "postBalances",
          "type": "tuple[]"
        },
        {
          "components": [
            {
              "components": [
                {
                  "internalType": "address",
                  "name": "target",
                  "type": "address"
                },
                {
                  "internalType": "address",
                  "name": "token",
                  "type": "address"
                },
                {
                  "internalType": "int256",
                  "name": "balance",
                  "type": "int256"
                }
              ],
              "internalType": "struct IBalanceProxy.Balance",
              "name": "balance",
              "type": "tuple"
            },
            {
              "internalType": "bool",
              "name": "useTransfer",
              "type": "bool"
            }
          ],
          "internalType": "struct IBalanceProxy.Approval[]",
          "name": "approvals",
          "type": "tuple[]"
        },
        {
          "internalType": "address",
          "name": "target",
          "type": "address"
        },
        {
          "internalType": "bytes",
          "name": "data",
          "type": "bytes"
        },
        {
          "components": [
            {
              "internalType": "address",
              "name": "target",
              "type": "address"
            },
            {
              "internalType": "address",
              "name": "token",
              "type": "address"
            },
            {
              "internalType": "int256",
              "name": "balance",
              "type": "int256"
            }
          ],
          "internalType": "struct IBalanceProxy.Balance[]",
          "name": "withdrawals",
          "type": "tuple[]"
        }
      ],
      "name": "approveProxyCall",
      "outputs": [
        {
          "internalType": "bytes",
          "name": "",
          "type": "bytes"
        }
      ],
      "stateMutability": "payable",
      "type": "function"
    },
    {
      "inputs": [
        {
          "internalType": "contract IBalanceProxy",
          "name": "balanceProxy",
          "type": "address"
        },
        {
          "components": [
            {
              "internalType": "address",
              "name": "target",
              "type": "address"
            },
            {
              "internalType": "address",
              "name": "token",
              "type": "address"
            },
            {
              "internalType": "int256",
              "name": "balance",
              "type": "int256"
            }
          ],
          "internalType": "struct IBalanceProxy.Balance[]",
          "name": "diffs",
          "type": "tuple[]"
        },
        {
          "components": [
            {
              "components": [
                {
                  "internalType": "address",
                  "name": "target",
                  "type": "address"
                },
                {
                  "internalType": "address",
                  "name": "token",
                  "type": "address"
                },
                {
                  "internalType": "int256",
                  "name": "balance",
                  "type": "int256"
                }
              ],
              "internalType": "struct IBalanceProxy.Balance",
              "name": "balance",
              "type": "tuple"
            },
            {
              "internalType": "bool",
              "name": "useTransfer",
              "type": "bool"
            }
          ],
          "internalType": "struct IBalanceProxy.Approval[]",
          "name": "approvals",
          "type": "tuple[]"
        },
        {
          "internalType": "address",
          "name": "target",
          "type": "address"
        },
        {
          "internalType": "bytes",
          "name": "data",
          "type": "bytes"
        },
        {
          "components": [
            {
              "internalType": "address",
              "name": "target",
              "type": "address"
            },
            {
              "internalType": "address",
              "name": "token",
              "type": "address"
            },
            {
              "internalType": "int256",
              "name": "balance",
              "type": "int256"
            }
          ],
          "internalType": "struct IBalanceProxy.Balance[]",
          "name": "withdrawals",
          "type": "tuple[]"
        }
      ],
      "name": "approveProxyCallDiffs",
      "outputs": [
        {
          "internalType": "bytes",
          "name": "",
          "type": "bytes"
        }
      ],
      "stateMutability": "payable",
      "type": "function"
    },
    {
      "inputs": [
        {
          "internalType": "contract IBalanceProxy",
          "name": "balanceProxy",
          "type": "address"
        },
        {
          "components": [
            {
              "internalType": "address",
              "name": "token",
              "type": "address"
            },
            {
              "internalType": "string",
              "name": "symbol",
              "type": "string"
            },
            {
              "internalType": "uint8",
              "name": "decimals",
              "type": "uint8"
            }
          ],
          "internalType": "struct BalanceMetadata[]",
          "name": "meta",
          "type": "tuple[]"
        },
        {
          "components": [
            {
              "internalType": "address",
              "name": "target",
              "type": "address"
            },
            {
              "internalType": "address",
              "name": "token",
              "type": "address"
            },
            {
              "internalType": "int256",
              "name": "balance",
              "type": "int256"
            }
          ],
          "internalType": "struct IBalanceProxy.Balance[]",
          "name": "diffs",
          "type": "tuple[]"
        },
        {
          "components": [
            {
              "components": [
                {
                  "internalType": "address",
                  "name": "target",
                  "type": "address"
                },
                {
                  "internalType": "address",
                  "name": "token",
                  "type": "address"
                },
                {
                  "internalType": "int256",
                  "name": "balance",
                  "type": "int256"
                }
              ],
              "internalType": "struct IBalanceProxy.Balance",
              "name": "balance",
              "type": "tuple"
            },
            {
              "internalType": "bool",
              "name": "useTransfer",
              "type": "bool"
            }
          ],
          "internalType": "struct IBalanceProxy.Approval[]",
          "name": "approvals",
          "type": "tuple[]"
        },
        {
          "internalType": "address",
          "name": "target",
          "type": "address"
        },
        {
          "internalType": "bytes",
          "name": "data",
          "type": "bytes"
        },
        {
          "components": [
            {
              "internalType": "address",
              "name": "target",
              "type": "address"
            },
            {
              "internalType": "address",
              "name": "token",
              "type": "address"
            },
            {
              "internalType": "int256",
              "name": "balance",
              "type": "int256"
            }
          ],
          "internalType": "struct IBalanceProxy.Balance[]",
          "name": "withdrawals",
          "type": "tuple[]"
        }
      ],
      "name": "approveProxyCallDiffsWithMeta",
      "outputs": [
        {
          "internalType": "bytes",
          "name": "",
          "type": "bytes"
        }
      ],
      "stateMutability": "payable",
      "type": "function"
    },
    {
      "inputs": [
        {
          "internalType": "contract IBalanceProxy",
          "name": "balanceProxy",
          "type": "address"
        },
        {
          "components": [
            {
              "internalType": "address",
              "name": "token",
              "type": "address"
            },
            {
              "internalType": "string",
              "name": "symbol",
              "type": "string"
            },
            {
              "internalType": "uint8",
              "name": "decimals",
              "type": "uint8"
            }
          ],
          "internalType": "struct BalanceMetadata[]",
          "name": "meta",
          "type": "tuple[]"
        },
        {
          "components": [
            {
              "internalType": "address",
              "name": "target",
              "type": "address"
            },
            {
              "internalType": "address",
              "name": "token",
              "type": "address"
            },
            {
              "internalType": "int256",
              "name": "balance",
              "type": "int256"
            }
          ],
          "internalType": "struct IBalanceProxy.Balance[]",
          "name": "postBalances",
          "type": "tuple[]"
        },
        {
          "components": [
            {
              "components": [
                {
                  "internalType": "address",
                  "name": "target",
                  "type": "address"
                },
                {
                  "internalType": "address",
                  "name": "token",
                  "type": "address"
                },
                {
                  "internalType": "int256",
                  "name": "balance",
                  "type": "int256"
                }
              ],
              "internalType": "struct IBalanceProxy.Balance",
              "name": "balance",
              "type": "tuple"
            },
            {
              "internalType": "bool",
              "name": "useTransfer",
              "type": "bool"
            }
          ],
          "internalType": "struct IBalanceProxy.Approval[]",
          "name": "approvals",
          "type": "tuple[]"
        },
        {
          "internalType": "address",
          "name": "target",
          "type": "address"
        },
        {
          "internalType": "bytes",
          "name": "data",
          "type": "bytes"
        },
        {
          "components": [
            {
              "internalType": "address",
              "name": "target",
              "type": "address"
            },
            {
              "internalType": "address",
              "name": "token",
              "type": "address"
            },
            {
              "internalType": "int256",
              "name": "balance",
              "type": "int256"
            }
          ],
          "internalType": "struct IBalanceProxy.Balance[]",
          "name": "withdrawals",
          "type": "tuple[]"
        }
      ],
      "name": "approveProxyCallWithMeta",
      "outputs": [
        {
          "internalType": "bytes",
          "name": "",
          "type": "bytes"
        }
      ],
      "stateMutability": "payable",
      "type": "function"
    }
  ],
  "bytecode": "0x60808060405234601557610953908161001b8239f35b600080fdfe6080604052600436101561001257600080fd5b60003560e01c806326d0eea9146100b1578063c670727014610096578063e5d77b3c1461007b5763fc66fd291461004857600080fd5b6100776100636100573661030d565b9590945092909261089a565b6040519182916020835260208301906104dd565b0390f35b61007761006361008a36610502565b94939093929192610772565b6100776100636100a536610502565b9493909392919261089a565b6100776100636100c03661030d565b95909450929092610772565b35906001600160a01b03821682036100e057565b600080fd5b606081019081106001600160401b0382111761010057604052565b634e487b7160e01b600052604160045260246000fd5b90601f801991011681019081106001600160401b0382111761010057604052565b6001600160401b0381116101005760051b60200190565b6001600160401b03811161010057601f01601f191660200190565b9291926101758261014e565b916101836040519384610116565b8294818452818301116100e0578281602093846000960137010152565b91908260609103126100e0576040516101b8816100e5565b60408082946101c6816100cc565b84526101d4602082016100cc565b60208501520135910152565b81601f820112156100e05780356101f681610137565b926102046040519485610116565b818452602060608186019302840101928184116100e057602001915b83831061022e575050505090565b602060609161023d84866101a0565b815201920191610220565b9080601f830112156100e05781359161026083610137565b9261026e6040519485610116565b80845260208085019160071b830101918383116100e057602001905b828210610298575050505090565b6080828503126100e05760405190604082018281106001600160401b03821117610100576040526102c985846101a0565b825260608301359081151582036100e0578260209283608095015281520191019061028a565b9080601f830112156100e05781602061030a93359101610169565b90565b60e06003198201126100e0576004356001600160a01b03811681036100e057916024356001600160401b0381116100e057826023820112156100e05780600401359061035882610137565b916103666040519384610116565b8083526024602084019160051b830101918583116100e05760248101915b83831061041f5750505050916044356001600160401b0381116100e057816103ae916004016101e0565b916064356001600160401b0381116100e057826103cd91600401610248565b916084356001600160a01b03811681036100e0579160a4356001600160401b0381116100e05782610400916004016102ef565b9160c435906001600160401b0382116100e05761030a916004016101e0565b82356001600160401b0381116100e057820190606082890360231901126100e0576040519161044d836100e5565b610459602482016100cc565b835260448101356001600160401b0381116100e0576024908201019089601f830112156100e0576104928a836020606495359101610169565b602085015201359060ff821682036100e0578260209392604085940152815201920191610384565b60005b8381106104cd5750506000910152565b81810151838201526020016104bd565b906020916104f6815180928185528580860191016104ba565b601f01601f1916010190565b9060c06003198301126100e0576004356001600160a01b03811681036100e057916024356001600160401b0381116100e05781610541916004016101e0565b916044356001600160401b0381116100e0578261056091600401610248565b916064356001600160a01b03811681036100e057916084356001600160401b0381116100e05782610593916004016102ef565b9160a435906001600160401b0382116100e05761030a916004016101e0565b80518210156105c65760209160051b010190565b634e487b7160e01b600052603260045260246000fd5b908160209103126100e0575180151581036100e05790565b6020818303126100e0578051906001600160401b0382116100e0570181601f820112156100e05780516106268161014e565b926106346040519485610116565b818452602082840101116100e05761030a91602080850191016104ba565b906020808351928381520192019060005b8181106106705750505090565b90919260206060826106a960019488516040809160018060a01b03815116845260018060a01b0360208201511660208501520151910152565b019401929101610663565b9391959492906106cc9060a0865260a0860190610652565b84810360208601526020808851928381520197019060005b818110610722575050506001600160a01b031660408401528285036060840152929361030a9361071491906104dd565b916080818403910152610652565b90919760206080600192828c5161075e8382516040809160018060a01b03815116845260018060a01b0360208201511660208501520151910152565b0151151560608201520199019291016106e4565b95929093919360005b8551811015610833578060206107946107df93896105b2565b51516040808201519183015190516323b872dd60e01b81523360048201526001600160a01b038d81166024830152604482019390935294859290911690829060009082906064820190565b03925af1918215610827576001926107f9575b500161077b565b6108199060203d8111610820575b6108118183610116565b8101906105dc565b50386107f2565b503d610807565b6040513d6000823e3d90fd5b5061085c60009592949793966040519788968795869563ce9506f960e01b8752600487016106b4565b039134906001600160a01b03165af19081156108275760009161087d575090565b61030a91503d806000833e6108928183610116565b8101906105f4565b95929093919360005b85518110156108f4578060206107946108bc93896105b2565b03925af1918215610827576001926108d6575b50016108a3565b6108ed9060203d8111610820576108118183610116565b50386108cf565b5061085c60009592949793966040519788968795869563890e3add60e01b8752600487016106b456fea264697066735822122026d58e11730b6c188d746298ba1db1336750c88972bff878593f61835e72d7a964736f6c634300081b0033",
  "linkReferences": {},
  "deployedLinkReferences": {}
}