{
  "_format": "hh-sol-artifact-1",
  "contractName": "PermitRouter",
  "sourceName": "contracts/PermitRouter.sol",
  "abi": [
    {
      "inputs": [
        {
          "internalType": "uint256",
          "name": "permitsLength",
          "type": "uint256"
        },
        {
          "internalType": "uint256",
          "name": "approvalsLength",
          "type": "uint256"
        }
      ],
      "name": "PermitsLengthMismatch",
      "type": "error"
    },
    {
      "inputs": [
        {
          "internalType": "contract IBalanceProxy",
          "name": "balanceProxy",
          "type": "address"
        },
        {
          "components": [
            {
              "internalType": "address",
              "name": "target",
              "type": "address"
            },
            {
              "internalType": "address",
              "name": "token",
              "type": "address"
            },
            {
              "internalType": "int256",
              "name": "balance",
              "type": "int256"
            }
          ],
          "internalType": "struct IBalanceProxy.Balance[]",
          "name": "postBalances",
          "type": "tuple[]"
        },
        {
          "components": [
            {
              "components": [
                {
                  "internalType": "address",
                  "name": "target",
                  "type": "address"
                },
                {
                  "internalType": "address",
                  "name": "token",
                  "type": "address"
                },
                {
                  "internalType": "int256",
                  "name": "balance",
                  "type": "int256"
                }
              ],
              "internalType": "struct IBalanceProxy.Balance",
              "name": "balance",
              "type": "tuple"
            },
            {
              "internalType": "bool",
              "name": "useTransfer",
              "type": "bool"
            }
          ],
          "internalType": "struct IBalanceProxy.Approval[]",
          "name": "approvals",
          "type": "tuple[]"
        },
        {
          "components": [
            {
              "internalType": "uint256",
              "name": "deadline",
              "type": "uint256"
            },
            {
              "internalType": "uint8",
              "name": "v",
              "type": "uint8"
            },
            {
              "internalType": "bytes32",
              "name": "r",
              "type": "bytes32"
            },
            {
              "internalType": "bytes32",
              "name": "s",
              "type": "bytes32"
            }
          ],
          "internalType": "struct PermitData[]",
          "name": "permits",
          "type": "tuple[]"
        },
        {
          "internalType": "address",
          "name": "target",
          "type": "address"
        },
        {
          "internalType": "bytes",
          "name": "data",
          "type": "bytes"
        },
        {
          "components": [
            {
              "internalType": "address",
              "name": "target",
              "type": "address"
            },
            {
              "internalType": "address",
              "name": "token",
              "type": "address"
            },
            {
              "internalType": "int256",
              "name": "balance",
              "type": "int256"
            }
          ],
          "internalType": "struct IBalanceProxy.Balance[]",
          "name": "withdrawals",
          "type": "tuple[]"
        }
      ],
      "name": "permitProxyCall",
      "outputs": [
        {
          "internalType": "bytes",
          "name": "",
          "type": "bytes"
        }
      ],
      "stateMutability": "payable",
      "type": "function"
    },
    {
      "inputs": [
        {
          "internalType": "contract IBalanceProxy",
          "name": "balanceProxy",
          "type": "address"
        },
        {
          "components": [
            {
              "internalType": "address",
              "name": "target",
              "type": "address"
            },
            {
              "internalType": "address",
              "name": "token",
              "type": "address"
            },
            {
              "internalType": "int256",
              "name": "balance",
              "type": "int256"
            }
          ],
          "internalType": "struct IBalanceProxy.Balance[]",
          "name": "diffs",
          "type": "tuple[]"
        },
        {
          "components": [
            {
              "components": [
                {
                  "internalType": "address",
                  "name": "target",
                  "type": "address"
                },
                {
                  "internalType": "address",
                  "name": "token",
                  "type": "address"
                },
                {
                  "internalType": "int256",
                  "name": "balance",
                  "type": "int256"
                }
              ],
              "internalType": "struct IBalanceProxy.Balance",
              "name": "balance",
              "type": "tuple"
            },
            {
              "internalType": "bool",
              "name": "useTransfer",
              "type": "bool"
            }
          ],
          "internalType": "struct IBalanceProxy.Approval[]",
          "name": "approvals",
          "type": "tuple[]"
        },
        {
          "components": [
            {
              "internalType": "uint256",
              "name": "deadline",
              "type": "uint256"
            },
            {
              "internalType": "uint8",
              "name": "v",
              "type": "uint8"
            },
            {
              "internalType": "bytes32",
              "name": "r",
              "type": "bytes32"
            },
            {
              "internalType": "bytes32",
              "name": "s",
              "type": "bytes32"
            }
          ],
          "internalType": "struct PermitData[]",
          "name": "permits",
          "type": "tuple[]"
        },
        {
          "internalType": "address",
          "name": "target",
          "type": "address"
        },
        {
          "internalType": "bytes",
          "name": "data",
          "type": "bytes"
        },
        {
          "components": [
            {
              "internalType": "address",
              "name": "target",
              "type": "address"
            },
            {
              "internalType": "address",
              "name": "token",
              "type": "address"
            },
            {
              "internalType": "int256",
              "name": "balance",
              "type": "int256"
            }
          ],
          "internalType": "struct IBalanceProxy.Balance[]",
          "name": "withdrawals",
          "type": "tuple[]"
        }
      ],
      "name": "permitProxyCallDiffs",
      "outputs": [
        {
          "internalType": "bytes",
          "name": "",
          "type": "bytes"
        }
      ],
      "stateMutability": "payable",
      "type": "function"
    },
    {
      "inputs": [
        {
          "internalType": "contract IBalanceProxy",
          "name": "balanceProxy",
          "type": "address"
        },
        {
          "components": [
            {
              "internalType": "address",
              "name": "token",
              "type": "address"
            },
            {
              "internalType": "string",
              "name": "symbol",
              "type": "string"
            },
            {
              "internalType": "uint8",
              "name": "decimals",
              "type": "uint8"
            }
          ],
          "internalType": "struct BalanceMetadata[]",
          "name": "meta",
          "type": "tuple[]"
        },
        {
          "components": [
            {
              "internalType": "address",
              "name": "target",
              "type": "address"
            },
            {
              "internalType": "address",
              "name": "token",
              "type": "address"
            },
            {
              "internalType": "int256",
              "name": "balance",
              "type": "int256"
            }
          ],
          "internalType": "struct IBalanceProxy.Balance[]",
          "name": "diffs",
          "type": "tuple[]"
        },
        {
          "components": [
            {
              "components": [
                {
                  "internalType": "address",
                  "name": "target",
                  "type": "address"
                },
                {
                  "internalType": "address",
                  "name": "token",
                  "type": "address"
                },
                {
                  "internalType": "int256",
                  "name": "balance",
                  "type": "int256"
                }
              ],
              "internalType": "struct IBalanceProxy.Balance",
              "name": "balance",
              "type": "tuple"
            },
            {
              "internalType": "bool",
              "name": "useTransfer",
              "type": "bool"
            }
          ],
          "internalType": "struct IBalanceProxy.Approval[]",
          "name": "approvals",
          "type": "tuple[]"
        },
        {
          "components": [
            {
              "internalType": "uint256",
              "name": "deadline",
              "type": "uint256"
            },
            {
              "internalType": "uint8",
              "name": "v",
              "type": "uint8"
            },
            {
              "internalType": "bytes32",
              "name": "r",
              "type": "bytes32"
            },
            {
              "internalType": "bytes32",
              "name": "s",
              "type": "bytes32"
            }
          ],
          "internalType": "struct PermitData[]",
          "name": "permits",
          "type": "tuple[]"
        },
        {
          "internalType": "address",
          "name": "target",
          "type": "address"
        },
        {
          "internalType": "bytes",
          "name": "data",
          "type": "bytes"
        },
        {
          "components": [
            {
              "internalType": "address",
              "name": "target",
              "type": "address"
            },
            {
              "internalType": "address",
              "name": "token",
              "type": "address"
            },
            {
              "internalType": "int256",
              "name": "balance",
              "type": "int256"
            }
          ],
          "internalType": "struct IBalanceProxy.Balance[]",
          "name": "withdrawals",
          "type": "tuple[]"
        }
      ],
      "name": "permitProxyCallDiffsWithMeta",
      "outputs": [
        {
          "internalType": "bytes",
          "name": "",
          "type": "bytes"
        }
      ],
      "stateMutability": "payable",
      "type": "function"
    },
    {
      "inputs": [
        {
          "internalType": "contract IBalanceProxy",
          "name": "balanceProxy",
          "type": "address"
        },
        {
          "components": [
            {
              "internalType": "address",
              "name": "token",
              "type": "address"
            },
            {
              "internalType": "string",
              "name": "symbol",
              "type": "string"
            },
            {
              "internalType": "uint8",
              "name": "decimals",
              "type": "uint8"
            }
          ],
          "internalType": "struct BalanceMetadata[]",
          "name": "meta",
          "type": "tuple[]"
        },
        {
          "components": [
            {
              "internalType": "address",
              "name": "target",
              "type": "address"
            },
            {
              "internalType": "address",
              "name": "token",
              "type": "address"
            },
            {
              "internalType": "int256",
              "name": "balance",
              "type": "int256"
            }
          ],
          "internalType": "struct IBalanceProxy.Balance[]",
          "name": "postBalances",
          "type": "tuple[]"
        },
        {
          "components": [
            {
              "components": [
                {
                  "internalType": "address",
                  "name": "target",
                  "type": "address"
                },
                {
                  "internalType": "address",
                  "name": "token",
                  "type": "address"
                },
                {
                  "internalType": "int256",
                  "name": "balance",
                  "type": "int256"
                }
              ],
              "internalType": "struct IBalanceProxy.Balance",
              "name": "balance",
              "type": "tuple"
            },
            {
              "internalType": "bool",
              "name": "useTransfer",
              "type": "bool"
            }
          ],
          "internalType": "struct IBalanceProxy.Approval[]",
          "name": "approvals",
          "type": "tuple[]"
        },
        {
          "components": [
            {
              "internalType": "uint256",
              "name": "deadline",
              "type": "uint256"
            },
            {
              "internalType": "uint8",
              "name": "v",
              "type": "uint8"
            },
            {
              "internalType": "bytes32",
              "name": "r",
              "type": "bytes32"
            },
            {
              "internalType": "bytes32",
              "name": "s",
              "type": "bytes32"
            }
          ],
          "internalType": "struct PermitData[]",
          "name": "permits",
          "type": "tuple[]"
        },
        {
          "internalType": "address",
          "name": "target",
          "type": "address"
        },
        {
          "internalType": "bytes",
          "name": "data",
          "type": "bytes"
        },
        {
          "components": [
            {
              "internalType": "address",
              "name": "target",
              "type": "address"
            },
            {
              "internalType": "address",
              "name": "token",
              "type": "address"
            },
            {
              "internalType": "int256",
              "name": "balance",
              "type": "int256"
            }
          ],
          "internalType": "struct IBalanceProxy.Balance[]",
          "name": "withdrawals",
          "type": "tuple[]"
        }
      ],
      "name": "permitProxyCallWithMeta",
      "outputs": [
        {
          "internalType": "bytes",
          "name": "",
          "type": "bytes"
        }
      ],
      "stateMutability": "payable",
      "type": "function"
    }
  ],
  "bytecode": "0x60808060405234601557610bfd908161001b8239f35b600080fdfe6080604052600436101561001257600080fd5b60003560e01c8063029a2053146100b757806318c229f014610099578063bf10e28e1461007e5763d61626021461004857600080fd5b61007a610066610057366104e6565b96909550939093929192610a5b565b6040519182916020835260208301906104c1565b0390f35b61007a61006661008d366103d0565b95949094939193610a5b565b61007a6100666100a8366104e6565b9690955093909392919261086c565b61007a6100666100c6366103d0565b9594909493919361086c565b35906001600160a01b03821682036100e657565b600080fd5b606081019081106001600160401b0382111761010657604052565b634e487b7160e01b600052604160045260246000fd5b90601f801991011681019081106001600160401b0382111761010657604052565b6001600160401b0381116101065760051b60200190565b91908260609103126100e65760405161016c816100eb565b604080829461017a816100d2565b8452610188602082016100d2565b60208501520135910152565b81601f820112156100e65780356101aa8161013d565b926101b8604051948561011c565b818452602060608186019302840101928184116100e657602001915b8383106101e2575050505090565b60206060916101f18486610154565b8152019201916101d4565b9080601f830112156100e6578135916102148361013d565b92610222604051948561011c565b80845260208085019160071b830101918383116100e657602001905b82821061024c575050505090565b6080828503126100e65760405190604082018281106001600160401b038211176101065760405261027d8584610154565b825260608301359081151582036100e6578260209283608095015281520191019061023e565b359060ff821682036100e657565b81601f820112156100e6578035906102c88261013d565b926102d6604051948561011c565b82845260208085019360071b830101918183116100e657602001925b828410610300575050505090565b6080848303126100e6576040519060808201908282106001600160401b03831117610106576080926020926040528635815261033d8388016102a3565b8382015260408701356040820152606087013560608201528152019301926102f2565b6001600160401b03811161010657601f01601f191660200190565b92919261038782610360565b91610395604051938461011c565b8294818452818301116100e6578281602093846000960137010152565b9080601f830112156100e6578160206103cd9335910161037b565b90565b60e06003198201126100e6576004356001600160a01b03811681036100e657916024356001600160401b0381116100e6578261040e91600401610194565b916044356001600160401b0381116100e6578161042d916004016101fc565b916064356001600160401b0381116100e6578261044c916004016102b1565b916084356001600160a01b03811681036100e6579160a4356001600160401b0381116100e6578261047f916004016103b2565b9160c435906001600160401b0382116100e6576103cd91600401610194565b60005b8381106104b15750506000910152565b81810151838201526020016104a1565b906020916104da8151809281855285808601910161049e565b601f01601f1916010190565b906101006003198301126100e6576004356001600160a01b03811681036100e657916024356001600160401b0381116100e657816023820112156100e6578060040135906105338261013d565b91610541604051938461011c565b8083526024602084019160051b830101918483116100e65760248101915b8383106106195750505050916044356001600160401b0381116100e6578261058991600401610194565b916064356001600160401b0381116100e657816105a8916004016101fc565b916084356001600160401b0381116100e657826105c7916004016102b1565b9160a4356001600160a01b03811681036100e6579160c4356001600160401b0381116100e657826105fa916004016103b2565b9160e435906001600160401b0382116100e6576103cd91600401610194565b82356001600160401b0381116100e657820190606082880360231901126100e65760405190610647826100eb565b610653602484016100d2565b825260448301356001600160401b0381116100e6576024908401019188601f840112156100e65761069c60646020956106928c8789809935910161037b565b86850152016102a3565b604082015281520192019161055f565b80518210156106c05760209160051b010190565b634e487b7160e01b600052603260045260246000fd5b908160209103126100e6575180151581036100e65790565b6020818303126100e6578051906001600160401b0382116100e6570181601f820112156100e657805161072081610360565b9261072e604051948561011c565b818452602082840101116100e6576103cd916020808501910161049e565b906020808351928381520192019060005b81811061076a5750505090565b90919260206060826107a360019488516040809160018060a01b03815116845260018060a01b0360208201511660208501520151910152565b01940192910161075d565b9391959492906107c69060a0865260a086019061074c565b84810360208601526020808851928381520197019060005b81811061081c575050506001600160a01b03166040840152828503606084015292936103cd9361080e91906104c1565b91608081840391015261074c565b90919760206080600192828c516108588382516040809160018060a01b03815116845260018060a01b0360208201511660208501520151910152565b0151151560608201520199019291016107de565b9296959682518151818103610a44575060005b8181106108f857505060405163ce9506f960e01b815296976000968896879586956108ae9550600487016107ae565b039134906001600160a01b03165af19081156108ec576000916108cf575090565b6103cd91503d806000833e6108e4818361011c565b8101906106ee565b6040513d6000823e3d90fd5b61090281866106ac565b5151906040820151602061091683876106ac565b51930180518451602086015160408701516060909701519693949391926001600160a01b03169060ff16813b156100e65760405163d505accf60e01b815233600482015230602482015260448101869052606481019490945260ff16608484015260a483019190915260c482019590955293600090859060e490829084905af19182156108ec576109eb94602093610a33575b50516040516323b872dd60e01b81523360048201526001600160a01b038b81166024830152604482019390935294859290911690829060009082906064820190565b03925af19182156108ec57600192610a05575b500161087f565b610a259060203d8111610a2c575b610a1d818361011c565b8101906106d6565b50386109fe565b503d610a13565b6000610a3e9161011c565b386109a9565b6341d6d1af60e01b60005260045260245260446000fd5b9296959682518151818103610a44575060005b818110610a9d57505060405163890e3add60e01b815296976000968896879586956108ae9550600487016107ae565b610aa781866106ac565b51519060408201516020610abb83876106ac565b51930180518451602086015160408701516060909701519693949391926001600160a01b03169060ff16813b156100e65760405163d505accf60e01b815233600482015230602482015260448101869052606481019490945260ff16608484015260a483019190915260c482019590955293600090859060e490829084905af19182156108ec57610b8f94602093610a335750516040516323b872dd60e01b81523360048201526001600160a01b038b81166024830152604482019390935294859290911690829060009082906064820190565b03925af19182156108ec57600192610ba9575b5001610a6e565b610bc09060203d8111610a2c57610a1d818361011c565b5038610ba256fea26469706673582212205f5b7b8c82a28badff24d0387a8f1d1a56efd4f1af901362f36938d47bb3218064736f6c634300081b0033",
  "linkReferences": {},
  "deployedLinkReferences": {}
}