{
  "_format": "hh-sol-artifact-1",
  "contractName": "BalanceProxy",
  "sourceName": "contracts/BalanceProxy.sol",
  "abi": [
    {
      "inputs": [
        {
          "internalType": "address",
          "name": "target",
          "type": "address"
        },
        {
          "internalType": "bytes",
          "name": "data",
          "type": "bytes"
        },
        {
          "internalType": "bytes",
          "name": "returnData",
          "type": "bytes"
        }
      ],
      "name": "CallFailed",
      "type": "error"
    },
    {
      "inputs": [
        {
          "internalType": "address",
          "name": "token",
          "type": "address"
        },
        {
          "internalType": "address",
          "name": "target",
          "type": "address"
        },
        {
          "internalType": "int256",
          "name": "balance",
          "type": "int256"
        },
        {
          "internalType": "uint256",
          "name": "actual",
          "type": "uint256"
        }
      ],
      "name": "InsufficientBalance",
      "type": "error"
    },
    {
      "inputs": [
        {
          "internalType": "address",
          "name": "token",
          "type": "address"
        },
        {
          "internalType": "string",
          "name": "expectedSymbol",
          "type": "string"
        },
        {
          "internalType": "uint8",
          "name": "expectedDecimals",
          "type": "uint8"
        },
        {
          "internalType": "string",
          "name": "actualSymbol",
          "type": "string"
        },
        {
          "internalType": "uint8",
          "name": "actualDecimals",
          "type": "uint8"
        }
      ],
      "name": "InvalidMetadata",
      "type": "error"
    },
    {
      "inputs": [
        {
          "internalType": "uint256",
          "name": "permitsLength",
          "type": "uint256"
        },
        {
          "internalType": "uint256",
          "name": "approvalsLength",
          "type": "uint256"
        }
      ],
      "name": "InvalidPermitLength",
      "type": "error"
    },
    {
      "inputs": [
        {
          "internalType": "uint256",
          "name": "flagsLength",
          "type": "uint256"
        },
        {
          "internalType": "uint256",
          "name": "approvalsLength",
          "type": "uint256"
        }
      ],
      "name": "InvalidTransferFlagsLength",
      "type": "error"
    },
    {
      "inputs": [
        {
          "internalType": "address",
          "name": "token",
          "type": "address"
        },
        {
          "internalType": "address",
          "name": "target",
          "type": "address"
        }
      ],
      "name": "MaliciousApproveTarget",
      "type": "error"
    },
    {
      "inputs": [
        {
          "internalType": "uint256",
          "name": "deadline",
          "type": "uint256"
        }
      ],
      "name": "PermitExpired",
      "type": "error"
    },
    {
      "inputs": [
        {
          "internalType": "address",
          "name": "owner",
          "type": "address"
        },
        {
          "internalType": "address",
          "name": "token",
          "type": "address"
        }
      ],
      "name": "PermitFailed",
      "type": "error"
    },
    {
      "inputs": [],
      "name": "ReentrancyGuardReentrantCall",
      "type": "error"
    },
    {
      "inputs": [
        {
          "internalType": "address",
          "name": "token",
          "type": "address"
        },
        {
          "internalType": "address",
          "name": "target",
          "type": "address"
        },
        {
          "internalType": "int256",
          "name": "expected",
          "type": "int256"
        },
        {
          "internalType": "int256",
          "name": "actual",
          "type": "int256"
        }
      ],
      "name": "UnexpectedBalanceDiff",
      "type": "error"
    },
    {
      "inputs": [
        {
          "components": [
            {
              "internalType": "address",
              "name": "target",
              "type": "address"
            },
            {
              "internalType": "address",
              "name": "token",
              "type": "address"
            },
            {
              "internalType": "int256",
              "name": "balance",
              "type": "int256"
            }
          ],
          "internalType": "struct IBalanceProxy.Balance[]",
          "name": "postBalances",
          "type": "tuple[]"
        },
        {
          "components": [
            {
              "internalType": "address",
              "name": "target",
              "type": "address"
            },
            {
              "internalType": "address",
              "name": "token",
              "type": "address"
            },
            {
              "internalType": "int256",
              "name": "balance",
              "type": "int256"
            }
          ],
          "internalType": "struct IBalanceProxy.Balance[]",
          "name": "approvals",
          "type": "tuple[]"
        },
        {
          "components": [
            {
              "internalType": "uint256",
              "name": "deadline",
              "type": "uint256"
            },
            {
              "internalType": "uint8",
              "name": "v",
              "type": "uint8"
            },
            {
              "internalType": "bytes32",
              "name": "r",
              "type": "bytes32"
            },
            {
              "internalType": "bytes32",
              "name": "s",
              "type": "bytes32"
            }
          ],
          "internalType": "struct PermitData[]",
          "name": "permits",
          "type": "tuple[]"
        },
        {
          "internalType": "bool[]",
          "name": "useTransferFlags",
          "type": "bool[]"
        },
        {
          "internalType": "address",
          "name": "target",
          "type": "address"
        },
        {
          "internalType": "bytes",
          "name": "data",
          "type": "bytes"
        },
        {
          "components": [
            {
              "internalType": "address",
              "name": "target",
              "type": "address"
            },
            {
              "internalType": "address",
              "name": "token",
              "type": "address"
            },
            {
              "internalType": "int256",
              "name": "balance",
              "type": "int256"
            }
          ],
          "internalType": "struct IBalanceProxy.Balance[]",
          "name": "withdrawals",
          "type": "tuple[]"
        }
      ],
      "name": "permitAndProxyCall",
      "outputs": [
        {
          "internalType": "bytes",
          "name": "",
          "type": "bytes"
        }
      ],
      "stateMutability": "payable",
      "type": "function"
    },
    {
      "inputs": [
        {
          "components": [
            {
              "internalType": "address",
              "name": "target",
              "type": "address"
            },
            {
              "internalType": "address",
              "name": "token",
              "type": "address"
            },
            {
              "internalType": "int256",
              "name": "balance",
              "type": "int256"
            }
          ],
          "internalType": "struct IBalanceProxy.Balance[]",
          "name": "postBalances",
          "type": "tuple[]"
        },
        {
          "components": [
            {
              "internalType": "address",
              "name": "target",
              "type": "address"
            },
            {
              "internalType": "address",
              "name": "token",
              "type": "address"
            },
            {
              "internalType": "int256",
              "name": "balance",
              "type": "int256"
            }
          ],
          "internalType": "struct IBalanceProxy.Balance[]",
          "name": "approvals",
          "type": "tuple[]"
        },
        {
          "components": [
            {
              "internalType": "uint256",
              "name": "deadline",
              "type": "uint256"
            },
            {
              "internalType": "uint8",
              "name": "v",
              "type": "uint8"
            },
            {
              "internalType": "bytes32",
              "name": "r",
              "type": "bytes32"
            },
            {
              "internalType": "bytes32",
              "name": "s",
              "type": "bytes32"
            }
          ],
          "internalType": "struct PermitData[]",
          "name": "permits",
          "type": "tuple[]"
        },
        {
          "internalType": "bool[]",
          "name": "useTransferFlags",
          "type": "bool[]"
        },
        {
          "internalType": "address",
          "name": "target",
          "type": "address"
        },
        {
          "internalType": "bytes",
          "name": "data",
          "type": "bytes"
        },
        {
          "components": [
            {
              "internalType": "address",
              "name": "target",
              "type": "address"
            },
            {
              "internalType": "address",
              "name": "token",
              "type": "address"
            },
            {
              "internalType": "int256",
              "name": "balance",
              "type": "int256"
            }
          ],
          "internalType": "struct IBalanceProxy.Balance[]",
          "name": "withdrawals",
          "type": "tuple[]"
        }
      ],
      "name": "permitAndProxyCallCalldata",
      "outputs": [
        {
          "internalType": "bytes",
          "name": "",
          "type": "bytes"
        }
      ],
      "stateMutability": "payable",
      "type": "function"
    },
    {
      "inputs": [
        {
          "components": [
            {
              "internalType": "address",
              "name": "target",
              "type": "address"
            },
            {
              "internalType": "address",
              "name": "token",
              "type": "address"
            },
            {
              "internalType": "int256",
              "name": "balance",
              "type": "int256"
            }
          ],
          "internalType": "struct IBalanceProxy.Balance[]",
          "name": "diffs",
          "type": "tuple[]"
        },
        {
          "components": [
            {
              "internalType": "address",
              "name": "target",
              "type": "address"
            },
            {
              "internalType": "address",
              "name": "token",
              "type": "address"
            },
            {
              "internalType": "int256",
              "name": "balance",
              "type": "int256"
            }
          ],
          "internalType": "struct IBalanceProxy.Balance[]",
          "name": "approvals",
          "type": "tuple[]"
        },
        {
          "components": [
            {
              "internalType": "uint256",
              "name": "deadline",
              "type": "uint256"
            },
            {
              "internalType": "uint8",
              "name": "v",
              "type": "uint8"
            },
            {
              "internalType": "bytes32",
              "name": "r",
              "type": "bytes32"
            },
            {
              "internalType": "bytes32",
              "name": "s",
              "type": "bytes32"
            }
          ],
          "internalType": "struct PermitData[]",
          "name": "permits",
          "type": "tuple[]"
        },
        {
          "internalType": "bool[]",
          "name": "useTransferFlags",
          "type": "bool[]"
        },
        {
          "internalType": "address",
          "name": "target",
          "type": "address"
        },
        {
          "internalType": "bytes",
          "name": "data",
          "type": "bytes"
        },
        {
          "components": [
            {
              "internalType": "address",
              "name": "target",
              "type": "address"
            },
            {
              "internalType": "address",
              "name": "token",
              "type": "address"
            },
            {
              "internalType": "int256",
              "name": "balance",
              "type": "int256"
            }
          ],
          "internalType": "struct IBalanceProxy.Balance[]",
          "name": "withdrawals",
          "type": "tuple[]"
        }
      ],
      "name": "permitAndProxyCallCalldataDiffs",
      "outputs": [
        {
          "internalType": "bytes",
          "name": "",
          "type": "bytes"
        }
      ],
      "stateMutability": "payable",
      "type": "function"
    },
    {
      "inputs": [
        {
          "components": [
            {
              "internalType": "address",
              "name": "target",
              "type": "address"
            },
            {
              "internalType": "address",
              "name": "token",
              "type": "address"
            },
            {
              "internalType": "int256",
              "name": "balance",
              "type": "int256"
            }
          ],
          "internalType": "struct IBalanceProxy.Balance[]",
          "name": "diffs",
          "type": "tuple[]"
        },
        {
          "components": [
            {
              "internalType": "address",
              "name": "target",
              "type": "address"
            },
            {
              "internalType": "address",
              "name": "token",
              "type": "address"
            },
            {
              "internalType": "int256",
              "name": "balance",
              "type": "int256"
            }
          ],
          "internalType": "struct IBalanceProxy.Balance[]",
          "name": "approvals",
          "type": "tuple[]"
        },
        {
          "components": [
            {
              "internalType": "uint256",
              "name": "deadline",
              "type": "uint256"
            },
            {
              "internalType": "uint8",
              "name": "v",
              "type": "uint8"
            },
            {
              "internalType": "bytes32",
              "name": "r",
              "type": "bytes32"
            },
            {
              "internalType": "bytes32",
              "name": "s",
              "type": "bytes32"
            }
          ],
          "internalType": "struct PermitData[]",
          "name": "permits",
          "type": "tuple[]"
        },
        {
          "internalType": "bool[]",
          "name": "useTransferFlags",
          "type": "bool[]"
        },
        {
          "internalType": "address",
          "name": "target",
          "type": "address"
        },
        {
          "internalType": "bytes",
          "name": "data",
          "type": "bytes"
        },
        {
          "components": [
            {
              "internalType": "address",
              "name": "target",
              "type": "address"
            },
            {
              "internalType": "address",
              "name": "token",
              "type": "address"
            },
            {
              "internalType": "int256",
              "name": "balance",
              "type": "int256"
            }
          ],
          "internalType": "struct IBalanceProxy.Balance[]",
          "name": "withdrawals",
          "type": "tuple[]"
        }
      ],
      "name": "permitAndProxyCallDiffs",
      "outputs": [
        {
          "internalType": "bytes",
          "name": "",
          "type": "bytes"
        }
      ],
      "stateMutability": "payable",
      "type": "function"
    },
    {
      "inputs": [
        {
          "components": [
            {
              "components": [
                {
                  "internalType": "address",
                  "name": "target",
                  "type": "address"
                },
                {
                  "internalType": "address",
                  "name": "token",
                  "type": "address"
                },
                {
                  "internalType": "int256",
                  "name": "balance",
                  "type": "int256"
                }
              ],
              "internalType": "struct IBalanceProxy.Balance",
              "name": "balance",
              "type": "tuple"
            },
            {
              "internalType": "string",
              "name": "symbol",
              "type": "string"
            },
            {
              "internalType": "uint8",
              "name": "decimals",
              "type": "uint8"
            }
          ],
          "internalType": "struct IBalanceProxy.BalanceMetadata[]",
          "name": "postBalances",
          "type": "tuple[]"
        },
        {
          "components": [
            {
              "components": [
                {
                  "internalType": "address",
                  "name": "target",
                  "type": "address"
                },
                {
                  "internalType": "address",
                  "name": "token",
                  "type": "address"
                },
                {
                  "internalType": "int256",
                  "name": "balance",
                  "type": "int256"
                }
              ],
              "internalType": "struct IBalanceProxy.Balance",
              "name": "balance",
              "type": "tuple"
            },
            {
              "internalType": "string",
              "name": "symbol",
              "type": "string"
            },
            {
              "internalType": "uint8",
              "name": "decimals",
              "type": "uint8"
            }
          ],
          "internalType": "struct IBalanceProxy.BalanceMetadata[]",
          "name": "approvals",
          "type": "tuple[]"
        },
        {
          "components": [
            {
              "internalType": "uint256",
              "name": "deadline",
              "type": "uint256"
            },
            {
              "internalType": "uint8",
              "name": "v",
              "type": "uint8"
            },
            {
              "internalType": "bytes32",
              "name": "r",
              "type": "bytes32"
            },
            {
              "internalType": "bytes32",
              "name": "s",
              "type": "bytes32"
            }
          ],
          "internalType": "struct PermitData[]",
          "name": "permits",
          "type": "tuple[]"
        },
        {
          "internalType": "bool[]",
          "name": "useTransferFlags",
          "type": "bool[]"
        },
        {
          "internalType": "address",
          "name": "target",
          "type": "address"
        },
        {
          "internalType": "bytes",
          "name": "data",
          "type": "bytes"
        },
        {
          "components": [
            {
              "components": [
                {
                  "internalType": "address",
                  "name": "target",
                  "type": "address"
                },
                {
                  "internalType": "address",
                  "name": "token",
                  "type": "address"
                },
                {
                  "internalType": "int256",
                  "name": "balance",
                  "type": "int256"
                }
              ],
              "internalType": "struct IBalanceProxy.Balance",
              "name": "balance",
              "type": "tuple"
            },
            {
              "internalType": "string",
              "name": "symbol",
              "type": "string"
            },
            {
              "internalType": "uint8",
              "name": "decimals",
              "type": "uint8"
            }
          ],
          "internalType": "struct IBalanceProxy.BalanceMetadata[]",
          "name": "withdrawals",
          "type": "tuple[]"
        }
      ],
      "name": "permitAndProxyCallMetadata",
      "outputs": [
        {
          "internalType": "bytes",
          "name": "",
          "type": "bytes"
        }
      ],
      "stateMutability": "payable",
      "type": "function"
    },
    {
      "inputs": [
        {
          "components": [
            {
              "components": [
                {
                  "internalType": "address",
                  "name": "target",
                  "type": "address"
                },
                {
                  "internalType": "address",
                  "name": "token",
                  "type": "address"
                },
                {
                  "internalType": "int256",
                  "name": "balance",
                  "type": "int256"
                }
              ],
              "internalType": "struct IBalanceProxy.Balance",
              "name": "balance",
              "type": "tuple"
            },
            {
              "internalType": "string",
              "name": "symbol",
              "type": "string"
            },
            {
              "internalType": "uint8",
              "name": "decimals",
              "type": "uint8"
            }
          ],
          "internalType": "struct IBalanceProxy.BalanceMetadata[]",
          "name": "postBalances",
          "type": "tuple[]"
        },
        {
          "components": [
            {
              "components": [
                {
                  "internalType": "address",
                  "name": "target",
                  "type": "address"
                },
                {
                  "internalType": "address",
                  "name": "token",
                  "type": "address"
                },
                {
                  "internalType": "int256",
                  "name": "balance",
                  "type": "int256"
                }
              ],
              "internalType": "struct IBalanceProxy.Balance",
              "name": "balance",
              "type": "tuple"
            },
            {
              "internalType": "string",
              "name": "symbol",
              "type": "string"
            },
            {
              "internalType": "uint8",
              "name": "decimals",
              "type": "uint8"
            }
          ],
          "internalType": "struct IBalanceProxy.BalanceMetadata[]",
          "name": "approvals",
          "type": "tuple[]"
        },
        {
          "components": [
            {
              "internalType": "uint256",
              "name": "deadline",
              "type": "uint256"
            },
            {
              "internalType": "uint8",
              "name": "v",
              "type": "uint8"
            },
            {
              "internalType": "bytes32",
              "name": "r",
              "type": "bytes32"
            },
            {
              "internalType": "bytes32",
              "name": "s",
              "type": "bytes32"
            }
          ],
          "internalType": "struct PermitData[]",
          "name": "permits",
          "type": "tuple[]"
        },
        {
          "internalType": "bool[]",
          "name": "useTransferFlags",
          "type": "bool[]"
        },
        {
          "internalType": "address",
          "name": "target",
          "type": "address"
        },
        {
          "internalType": "bytes",
          "name": "data",
          "type": "bytes"
        },
        {
          "components": [
            {
              "components": [
                {
                  "internalType": "address",
                  "name": "target",
                  "type": "address"
                },
                {
                  "internalType": "address",
                  "name": "token",
                  "type": "address"
                },
                {
                  "internalType": "int256",
                  "name": "balance",
                  "type": "int256"
                }
              ],
              "internalType": "struct IBalanceProxy.Balance",
              "name": "balance",
              "type": "tuple"
            },
            {
              "internalType": "string",
              "name": "symbol",
              "type": "string"
            },
            {
              "internalType": "uint8",
              "name": "decimals",
              "type": "uint8"
            }
          ],
          "internalType": "struct IBalanceProxy.BalanceMetadata[]",
          "name": "withdrawals",
          "type": "tuple[]"
        }
      ],
      "name": "permitAndProxyCallMetadataCalldata",
      "outputs": [
        {
          "internalType": "bytes",
          "name": "",
          "type": "bytes"
        }
      ],
      "stateMutability": "payable",
      "type": "function"
    },
    {
      "inputs": [
        {
          "components": [
            {
              "components": [
                {
                  "internalType": "address",
                  "name": "target",
                  "type": "address"
                },
                {
                  "internalType": "address",
                  "name": "token",
                  "type": "address"
                },
                {
                  "internalType": "int256",
                  "name": "balance",
                  "type": "int256"
                }
              ],
              "internalType": "struct IBalanceProxy.Balance",
              "name": "balance",
              "type": "tuple"
            },
            {
              "internalType": "string",
              "name": "symbol",
              "type": "string"
            },
            {
              "internalType": "uint8",
              "name": "decimals",
              "type": "uint8"
            }
          ],
          "internalType": "struct IBalanceProxy.BalanceMetadata[]",
          "name": "diffs",
          "type": "tuple[]"
        },
        {
          "components": [
            {
              "components": [
                {
                  "internalType": "address",
                  "name": "target",
                  "type": "address"
                },
                {
                  "internalType": "address",
                  "name": "token",
                  "type": "address"
                },
                {
                  "internalType": "int256",
                  "name": "balance",
                  "type": "int256"
                }
              ],
              "internalType": "struct IBalanceProxy.Balance",
              "name": "balance",
              "type": "tuple"
            },
            {
              "internalType": "string",
              "name": "symbol",
              "type": "string"
            },
            {
              "internalType": "uint8",
              "name": "decimals",
              "type": "uint8"
            }
          ],
          "internalType": "struct IBalanceProxy.BalanceMetadata[]",
          "name": "approvals",
          "type": "tuple[]"
        },
        {
          "components": [
            {
              "internalType": "uint256",
              "name": "deadline",
              "type": "uint256"
            },
            {
              "internalType": "uint8",
              "name": "v",
              "type": "uint8"
            },
            {
              "internalType": "bytes32",
              "name": "r",
              "type": "bytes32"
            },
            {
              "internalType": "bytes32",
              "name": "s",
              "type": "bytes32"
            }
          ],
          "internalType": "struct PermitData[]",
          "name": "permits",
          "type": "tuple[]"
        },
        {
          "internalType": "bool[]",
          "name": "useTransferFlags",
          "type": "bool[]"
        },
        {
          "internalType": "address",
          "name": "target",
          "type": "address"
        },
        {
          "internalType": "bytes",
          "name": "data",
          "type": "bytes"
        },
        {
          "components": [
            {
              "components": [
                {
                  "internalType": "address",
                  "name": "target",
                  "type": "address"
                },
                {
                  "internalType": "address",
                  "name": "token",
                  "type": "address"
                },
                {
                  "internalType": "int256",
                  "name": "balance",
                  "type": "int256"
                }
              ],
              "internalType": "struct IBalanceProxy.Balance",
              "name": "balance",
              "type": "tuple"
            },
            {
              "internalType": "string",
              "name": "symbol",
              "type": "string"
            },
            {
              "internalType": "uint8",
              "name": "decimals",
              "type": "uint8"
            }
          ],
          "internalType": "struct IBalanceProxy.BalanceMetadata[]",
          "name": "withdrawals",
          "type": "tuple[]"
        }
      ],
      "name": "permitAndProxyCallMetadataCalldataDiffs",
      "outputs": [
        {
          "internalType": "bytes",
          "name": "",
          "type": "bytes"
        }
      ],
      "stateMutability": "payable",
      "type": "function"
    },
    {
      "inputs": [
        {
          "components": [
            {
              "components": [
                {
                  "internalType": "address",
                  "name": "target",
                  "type": "address"
                },
                {
                  "internalType": "address",
                  "name": "token",
                  "type": "address"
                },
                {
                  "internalType": "int256",
                  "name": "balance",
                  "type": "int256"
                }
              ],
              "internalType": "struct IBalanceProxy.Balance",
              "name": "balance",
              "type": "tuple"
            },
            {
              "internalType": "string",
              "name": "symbol",
              "type": "string"
            },
            {
              "internalType": "uint8",
              "name": "decimals",
              "type": "uint8"
            }
          ],
          "internalType": "struct IBalanceProxy.BalanceMetadata[]",
          "name": "diffs",
          "type": "tuple[]"
        },
        {
          "components": [
            {
              "components": [
                {
                  "internalType": "address",
                  "name": "target",
                  "type": "address"
                },
                {
                  "internalType": "address",
                  "name": "token",
                  "type": "address"
                },
                {
                  "internalType": "int256",
                  "name": "balance",
                  "type": "int256"
                }
              ],
              "internalType": "struct IBalanceProxy.Balance",
              "name": "balance",
              "type": "tuple"
            },
            {
              "internalType": "string",
              "name": "symbol",
              "type": "string"
            },
            {
              "internalType": "uint8",
              "name": "decimals",
              "type": "uint8"
            }
          ],
          "internalType": "struct IBalanceProxy.BalanceMetadata[]",
          "name": "approvals",
          "type": "tuple[]"
        },
        {
          "components": [
            {
              "internalType": "uint256",
              "name": "deadline",
              "type": "uint256"
            },
            {
              "internalType": "uint8",
              "name": "v",
              "type": "uint8"
            },
            {
              "internalType": "bytes32",
              "name": "r",
              "type": "bytes32"
            },
            {
              "internalType": "bytes32",
              "name": "s",
              "type": "bytes32"
            }
          ],
          "internalType": "struct PermitData[]",
          "name": "permits",
          "type": "tuple[]"
        },
        {
          "internalType": "bool[]",
          "name": "useTransferFlags",
          "type": "bool[]"
        },
        {
          "internalType": "address",
          "name": "target",
          "type": "address"
        },
        {
          "internalType": "bytes",
          "name": "data",
          "type": "bytes"
        },
        {
          "components": [
            {
              "components": [
                {
                  "internalType": "address",
                  "name": "target",
                  "type": "address"
                },
                {
                  "internalType": "address",
                  "name": "token",
                  "type": "address"
                },
                {
                  "internalType": "int256",
                  "name": "balance",
                  "type": "int256"
                }
              ],
              "internalType": "struct IBalanceProxy.Balance",
              "name": "balance",
              "type": "tuple"
            },
            {
              "internalType": "string",
              "name": "symbol",
              "type": "string"
            },
            {
              "internalType": "uint8",
              "name": "decimals",
              "type": "uint8"
            }
          ],
          "internalType": "struct IBalanceProxy.BalanceMetadata[]",
          "name": "withdrawals",
          "type": "tuple[]"
        }
      ],
      "name": "permitAndProxyCallMetadataDiffs",
      "outputs": [
        {
          "internalType": "bytes",
          "name": "",
          "type": "bytes"
        }
      ],
      "stateMutability": "payable",
      "type": "function"
    },
    {
      "stateMutability": "payable",
      "type": "receive"
    }
  ],
  "bytecode": "0x60808060405234601a576001600055612c8a90816100208239f35b600080fdfe6080604052600436101561001b575b361561001957600080fd5b005b60003560e01c80633323a1561461133e5780636a93f9181461110357806387094efb14610e1d5780638742973814610c31578063aba3b64d146108b7578063cc3373441461063d578063ccb583cf146103105763d9bcc7a70361000e5761008136611c5d565b976100969c9b9a9593929c9994979199611f33565b8482036102f7578484036102dd578460005b87898b8885851061026f5750505050505050506000808c60405181819286833781018381520390348a5af19a6100dc611d70565b9b1561024c57505060005b8281106101625750505050505060005b8181106101465750505060005b81811061012a57600160005560405160208082528190610126908201876118cf565b0390f35b8061014061013b6001938587611f23565b612b52565b01610104565b8061015c6101576001938587611f23565b612a9b565b016100f7565b610175610170828488611ebf565b611ecf565b158061022b575b610189575b6001016100e7565b60009060206001600160a01b036101ab826101a585898b611f23565b01611e9b565b60405163095ea7b360e01b81526001600160a01b038b16600482015260248101869052948592604492849291165af191821561021f576001926101f1575b509050610181565b6102119060203d8111610218575b6102098183611546565b810190611dd6565b50386101e9565b503d6101ff565b6040513d6000823e3d90fd5b506001600160a01b0361024460206101a5848789611f23565b16151561017c565b61026b8c8892604051948594630881f24f60e31b865260048601611efd565b0390fd5b610170856102cf926102c9828a896102c48f8f9060019f60206102d59f8861029a936101a592611f23565b9060406102a8888888611f23565b0135926102bb888560ff1d938493611eaf565b93011890612868565b611f23565b95611ebf565b916128f6565b0185906100a8565b505050632aa9338d60e21b60005260045260245260446000fd5b8482633192fb3760e21b60005260045260245260446000fd5b61031936611b40565b9661032d9b999391989a949695929b611f33565b8381036106245783830361060b5760009a8d6103488c611dee565b9c5b8d8d8083106105d457505050508460005b87898b888585106105805750505050505050506000808c60405181819286833781018381520390348a5af19a61038f611d70565b9b1561024c57505060005b8281106104bd5750505050505060005b8181106104935750505060005b8181106103d957600160005560405160208082528190610126908201876118cf565b6104196104086103ef60206101a585878b611e79565b6104026103fd85878b611e79565b611e9b565b906125c3565b6104128386611d46565b5190611e20565b8060ff1d604061042a84868a611e79565b01358060ff1d8091011890808301181061044757506001016103b7565b85935060406104788361046360206101a561026b97898b611e79565b956104726103fd83838b611e79565b97611e79565b0135604051948594637ec440e760e11b865260048601611e4f565b806104a96104a46001938587611e79565b612689565b6104b7610157828587611e79565b016103aa565b6104cb610170828488611ebf565b158061055f575b6104df575b60010161039a565b60009060206001600160a01b036104fb826101a585898b611e79565b60405163095ea7b360e01b81526001600160a01b038b16600482015260248101869052948592604492849291165af191821561021f57600192610541575b5090506104d7565b6105589060203d8111610218576102098183611546565b508d610539565b506001600160a01b0361057860206101a5848789611e79565b1615156104d2565b610170856102cf926102c9828a896105c78f8f9060019f6104a46105cc9f6105a9928991611e79565b6105b960206101a5888888611e79565b9060406102a8888888611e79565b611e79565b01859061035b565b826105fc856104026103fd84866105f660206101a5846106029b60019f611e79565b94611e79565b92611d46565b52018e9061034a565b5050632aa9338d60e21b60005260045260245260446000fd5b8390633192fb3760e21b60005260045260245260446000fd5b61064636611c5d565b9661065a9b999391989a949695929b611f33565b8381036106245783830361060b5760009a8d6106758c611dee565b9c5b8d8d80831061088657505050508460005b87898b888585106108535750505050505050506000808c60405181819286833781018381520390348a5af19a6106bc611d70565b9b1561024c57505060005b8281106107905750505050505060005b8181106107795750505060005b81811061070657600160005560405160208082528190610126908201876118cf565b61072a61040861071c60206101a585878b611f23565b6104026103fd85878b611f23565b6040610737838589611f23565b0135811261074857506001016106e4565b85935060406104788361076460206101a561026b97898b611f23565b956107736103fd83838b611f23565b97611f23565b8061078a6101576001938587611f23565b016106d7565b61079e610170828488611ebf565b1580610832575b6107b2575b6001016106c7565b60009060206001600160a01b036107ce826101a585898b611f23565b60405163095ea7b360e01b81526001600160a01b038b16600482015260248101869052948592604492849291165af191821561021f57600192610814575b5090506107aa565b61082b9060203d8111610218576102098183611546565b508d61080c565b506001600160a01b0361084b60206101a5848789611f23565b1615156107a5565b610170856102cf926102c9828a896102c48f8f9060019f602061087e9f8861029a936101a592611f23565b018590610688565b826105fc856104026103fd84866108a860206101a5846108ae9b60019f611f23565b94611f23565b52018e90610677565b6108c0366119da565b6108cf96919593949296611f33565b8251845190818103610c1a5750508451845190818103610c0357505060008251926108f984611dee565b915b848110610bc3575060005b8651811015610992578061092561091f6001938a611d46565b51612401565b610969828060a01b03602061093a848c611d46565b5151015116604061094b848c611d46565b51510151908160ff1d8061095f868d611d46565b5193011890611f55565b61098c610976828a611d46565b51518c610983848d611d46565b51151591612047565b01610906565b5088969395945087600080825160208401348c5af1906109b0611d70565b9115610ba5575060005b8651811015610a83576109cd8187611d46565b511580610a62575b6109e2575b6001016109ba565b60009060206001600160a01b03816109fa848c611d46565b5151015160405163095ea7b360e01b81526001600160a01b038e16600482015260248101869052948592604492849291165af191821561021f57600192610a44575b5090506109da565b610a5b9060203d8111610218576102098183611546565b508a610a3c565b506001600160a01b036020610a77838a611d46565b515101511615156109d5565b508660005b8551811015610abb5780610aa161091f60019389611d46565b610ab5610aae8289611d46565b51516121c0565b01610a88565b508360005b828110610ae257600160005560405160208082528190610126908201876118cf565b610b27610b1d6001600160a01b036020610afc858a611d46565b51510151166001600160a01b03610b13858a611d46565b51515116906125c3565b6104128385611d46565b6040610b338388611d46565b515101518112610b465750600101610ac0565b85919061026b906040610b886001600160a01b036020610b668789611d46565b5151015116946001600160a01b03610b7e8289611d46565b5151511696611d46565b51510151604051637ec440e760e11b815294859460048601611e4f565b8861026b83604051938493630881f24f60e31b855260048501611da0565b600190610bf26001600160a01b036020610bdd8487611d46565b5151015116838060a01b03610b138487611d46565b610bfc8286611d46565b52016108fb565b632aa9338d60e21b60005260045260245260446000fd5b633192fb3760e21b60005260045260245260446000fd5b610c3a36611b40565b97610c4f9c9b9a9593929c9994979199611f33565b8482036102f7578484036102dd578460005b87898b88858510610dec5750505050505050506000808c60405181819286833781018381520390348a5af19a610c95611d70565b9b1561024c57505060005b828110610d295750505050505060005b818110610d045750505060005b818110610cdf57600160005560405160208082528190610126908201876118cf565b80610cf06104a46001938587611e79565b610cfe61013b828587611e79565b01610cbd565b80610d156104a46001938587611e79565b610d23610157828587611e79565b01610cb0565b610d37610170828488611ebf565b1580610dcb575b610d4b575b600101610ca0565b60009060206001600160a01b03610d67826101a585898b611e79565b60405163095ea7b360e01b81526001600160a01b038b16600482015260248101869052948592604492849291165af191821561021f57600192610dad575b509050610d43565b610dc49060203d8111610218576102098183611546565b508c610da5565b506001600160a01b03610de460206101a5848789611e79565b161515610d3e565b610170856102cf926102c9828a896105c78f8f9060019f6104a4610e159f6105a9928991611e79565b018590610c61565b610e26366117d3565b610e3596919593949296611f33565b8251845190818103610c1a5750508451845190818103610c035750506000825192610e5f84611dee565b915b8481106110c4575060005b8651811015610ed157600190610eb26001600160a01b036020610e8f848c611d46565b510151166040610e9f848c611d46565b510151908160ff1d8061095f868d611d46565b610ecb610ebf828a611d46565b518c610983848d611d46565b01610e6c565b5088969395945087600080825160208401348c5af190610eef611d70565b9115610ba5575060005b8651811015610fc057610f0c8187611d46565b511580610fa0575b610f21575b600101610ef9565b60009060206001600160a01b0381610f39848c611d46565b51015160405163095ea7b360e01b81526001600160a01b038e16600482015260248101869052948592604492849291165af191821561021f57600192610f82575b509050610f19565b610f999060203d8111610218576102098183611546565b508a610f7a565b506001600160a01b036020610fb5838a611d46565b510151161515610f14565b508660005b8551811015610fea5780610fe4610fde60019389611d46565b516121c0565b01610fc5565b508360005b82811061101157600160005560405160208082528190610126908201876118cf565b61104a610b1d6001600160a01b03602061102b858a611d46565b510151166001600160a01b03611041858a611d46565b515116906125c3565b60406110568388611d46565b51015181126110685750600101610fef565b85919061026b9060406110a86001600160a01b0360206110888789611d46565b51015116946001600160a01b0361109f8289611d46565b51511696611d46565b510151604051637ec440e760e11b815294859460048601611e4f565b6001906110f26001600160a01b0360206110de8487611d46565b51015116838060a01b036110418487611d46565b6110fc8286611d46565b5201610e61565b61110c366119da565b61111b96919593949296611f33565b8251845190818103610c1a5750508451845190818103610c0357505060005b84518110156111ad578061115361091f60019388611d46565b61118d828060a01b036020611168848a611d46565b51510151166040611179848a611d46565b51510151908160ff1d8061095f868b611d46565b6111a761119a8288611d46565b51518a610983848b611d46565b0161113a565b87838688858b600080825160208401348a5af1906111c9611d70565b9115611320575060005b845181101561129c576111e68185611d46565b51158061127b575b6111fb575b6001016111d3565b60009060206001600160a01b0381611213848a611d46565b5151015160405163095ea7b360e01b81526001600160a01b038c16600482015260248101869052948592604492849291165af191821561021f5760019261125d575b5090506111f3565b6112749060203d8111610218576102098183611546565b5088611255565b506001600160a01b0360206112908388611d46565b515101511615156111ee565b508460005b83518110156112cd57806112ba61091f60019387611d46565b6112c7610aae8287611d46565b016112a1565b509060005b825181101561130557806112eb61091f60019386611d46565b6112ff6112f88286611d46565b5151612256565b016112d2565b600160005560405160208082528190610126908201856118cf565b8661026b83604051938493630881f24f60e31b855260048501611da0565b611347366117d3565b61135696919593949296611f33565b8251845190818103610c1a5750508451845190818103610c0357505060005b84518110156113da576001906113bb6001600160a01b036020611398848a611d46565b5101511660406113a8848a611d46565b510151908160ff1d8061095f868b611d46565b6113d46113c88288611d46565b518a610983848b611d46565b01611375565b87838688858b600080825160208401348a5af1906113f6611d70565b9115611320575060005b84518110156114c7576114138185611d46565b5115806114a7575b611428575b600101611400565b60009060206001600160a01b0381611440848a611d46565b51015160405163095ea7b360e01b81526001600160a01b038c16600482015260248101869052948592604492849291165af191821561021f57600192611489575b509050611420565b6114a09060203d8111610218576102098183611546565b5088611481565b506001600160a01b0360206114bc8388611d46565b51015116151561141b565b508460005b83518110156114eb57806114e5610fde60019387611d46565b016114cc565b509060005b8251811015611305578061150f61150960019386611d46565b51612256565b016114f0565b606081019081106001600160401b0382111761153057604052565b634e487b7160e01b600052604160045260246000fd5b90601f801991011681019081106001600160401b0382111761153057604052565b6001600160401b0381116115305760051b60200190565b35906001600160a01b038216820361159257565b600080fd5b9190826060910312611592576040516115af81611515565b60408082946115bd8161157e565b84526115cb6020820161157e565b60208501520135910152565b81601f820112156115925780356115ed81611567565b926115fb6040519485611546565b8184526020606081860193028401019281841161159257602001915b838310611625575050505090565b60206060916116348486611597565b815201920191611617565b359060ff8216820361159257565b81601f820112156115925780359061166482611567565b926116726040519485611546565b82845260208085019360071b8301019181831161159257602001925b82841061169c575050505090565b608084830312611592576040519060808201908282106001600160401b0383111761153057608092602092604052863581526116d983880161163f565b83820152604087013560408201526060870135606082015281520193019261168e565b9080601f830112156115925781359061171482611567565b926117226040519485611546565b82845260208085019360051b82010191821161159257602001915b81831061174a5750505090565b823580151581036115925781526020928301920161173d565b6001600160401b03811161153057601f01601f191660200190565b92919261178a82611763565b916117986040519384611546565b829481845281830111611592578281602093846000960137010152565b9080601f83011215611592578160206117d09335910161177e565b90565b60e0600319820112611592576004356001600160401b03811161159257816117fd916004016115d7565b916024356001600160401b038111611592578261181c916004016115d7565b916044356001600160401b038111611592578161183b9160040161164d565b916064356001600160401b038111611592578261185a916004016116fc565b916084356001600160a01b0381168103611592579160a4356001600160401b038111611592578261188d916004016117b5565b9160c435906001600160401b038211611592576117d0916004016115d7565b60005b8381106118bf5750506000910152565b81810151838201526020016118af565b906020916118e8815180928185528580860191016118ac565b601f01601f1916010190565b9080601f830112156115925781359161190c83611567565b9261191a6040519485611546565b80845260208085019160051b830101918383116115925760208101915b83831061194657505050505090565b82356001600160401b0381116115925782019060a0828703601f190112611592576040519061197482611515565b6119818760208501611597565b825260808301356001600160401b038111611592576020908401019187601f84011215611592576119ca60a06020956119c08b8789809935910161177e565b868501520161163f565b6040820152815201920191611937565b60e0600319820112611592576004356001600160401b0381116115925781611a04916004016118f4565b916024356001600160401b0381116115925782611a23916004016118f4565b916044356001600160401b0381116115925781611a429160040161164d565b916064356001600160401b0381116115925782611a61916004016116fc565b916084356001600160a01b0381168103611592579160a4356001600160401b0381116115925782611a94916004016117b5565b9160c435906001600160401b038211611592576117d0916004016118f4565b9181601f84011215611592578235916001600160401b038311611592576020808501948460051b01011161159257565b9181601f84011215611592578235916001600160401b038311611592576020808501948460071b01011161159257565b9181601f84011215611592578235916001600160401b038311611592576020838186019501011161159257565b9060e0600319830112611592576004356001600160401b0381116115925782611b6b91600401611ab3565b929092916024356001600160401b0381116115925782611b8d91600401611ab3565b929092916044356001600160401b0381116115925782611baf91600401611ae3565b929092916064356001600160401b0381116115925782611bd191600401611ab3565b909290916084356001600160a01b0381168103611592579160a4356001600160401b0381116115925781611c0791600401611b13565b9290929160c435906001600160401b03821161159257611c2991600401611ab3565b9091565b9181601f84011215611592578235916001600160401b038311611592576020808501946060850201011161159257565b9060e0600319830112611592576004356001600160401b0381116115925782611c8891600401611c2d565b929092916024356001600160401b0381116115925782611caa91600401611c2d565b929092916044356001600160401b0381116115925782611ccc91600401611ae3565b929092916064356001600160401b0381116115925782611cee91600401611ab3565b909290916084356001600160a01b0381168103611592579160a4356001600160401b0381116115925781611d2491600401611b13565b9290929160c435906001600160401b03821161159257611c2991600401611c2d565b8051821015611d5a5760209160051b010190565b634e487b7160e01b600052603260045260246000fd5b3d15611d9b573d90611d8182611763565b91611d8f6040519384611546565b82523d6000602084013e565b606090565b6001600160a01b0390911681526060602082018190526117d0939192611dc8918401906118cf565b9160408184039101526118cf565b90816020910312611592575180151581036115925790565b90611df882611567565b611e056040519182611546565b8281528092611e16601f1991611567565b0190602036910137565b81810392916000138015828513169184121617611e3957565b634e487b7160e01b600052601160045260246000fd5b6001600160a01b039182168152911660208201526040810191909152606081019190915260800190565b9190811015611d5a5760051b81013590609e1981360301821215611592570190565b356001600160a01b03811681036115925790565b9190811015611d5a5760071b0190565b9190811015611d5a5760051b0190565b3580151581036115925790565b908060209392818452848401376000828201840152601f01601f1916010190565b92916117d09492611dc89260018060a01b03168552606060208601526060850191611edc565b9190811015611d5a576060020190565b600260005414611f44576002600055565b633ee5aeb560e01b60005260046000fd5b6000926001600160a01b03909116918215612041578151801561203a57804211612028575081519060ff602084015116926060604082015191015190853b156120245760405163d505accf60e01b81523360048201523060248201526044810193909352606483019390935260ff909316608482015260a481019190915260c481019190915282818060e481015b038183865af19081612010575b5061200c57631bfbc84f60e21b82523360045260245260449150fd5b5050565b8361201d91949294611546565b9138611ff0565b8680fd5b639e96b26f60e01b8552600452602484fd5b5050505050565b50505050565b602081018051909392906001600160a01b0316801561203a5782516001600160a01b03908116921682036121a957505082516040828101805191516323b872dd60e01b815233600482015230602482015260ff83901d92830190921860448301529490939291602090859060649082906000906001600160a01b03165af192831561021f5760209460009461218e575b50831461214a57519051935160405163a9059cbb60e01b81526001600160a01b03958616600482015260ff82901d9182019091186024820152938492911690829081604481015b03925af1801561021f5761212f5750565b6121479060203d602011610218576102098183611546565b50565b519051935160405163095ea7b360e01b81526001600160a01b03958616600482015260ff82901d91820190911860248201529384929116908290816044810161211e565b6121a490863d8811610218576102098183611546565b6120d7565b635876e71160e01b60005260045260245260446000fd5b60208101516001600160a01b0316806122105750600080808093604060018060a01b03825116910151908160ff1d809201918392818114612206575b1891f11561021f57565b6108fc93506121fc565b8151604092830151925163a9059cbb60e01b81526001600160a01b03909116600482015260ff83901d92830190921860248301526020908290816000816044810161211e565b6020810180519091906000906001600160a01b0316806122c757505080516001600160a01b0316315b6040820151928360ff1d8085011882106122995750505050565b51915160405163d87031f960e01b815293849361026b93926001600160a01b03908116911660048601611e4f565b602060018060a01b038451166024604051809481936370a0823160e01b835260048301525afa91821561233a578092612302575b505061227f565b9091506020823d602011612332575b8161231e60209383611546565b8101031261232f57505138806122fb565b80fd5b3d9150612311565b604051903d90823e3d90fd5b602081830312611592578051906001600160401b038211611592570181601f8201121561159257805161237881611763565b926123866040519485611546565b81845260208284010111611592576117d091602080850191016118ac565b90816020910312611592575160ff811681036115925790565b604051906123cc604083611546565b600382526208aa8960eb1b6020830152565b6020815191015190602081106123f2575090565b6000199060200360031b1b1690565b8051602001516001600160a01b03168061250b575061241e6123bd565b60125b61245460405161244f602082865161243e81848401858b016118ac565b81010301601f198101835282611546565b6123de565b91602084019261247b845161244f60206040518361243e82955180928580860191016118ac565b148015906124f7575b61248e5750505050565b6124ec60ff9182604060018060a01b0360208951015116965197015116906124d5604051978897635591851960e01b8952600489015260a0602489015260a48801906118cf565b9160448701526003198683030160648701526118cf565b911660848301520390fd5b5060ff60408501511660ff83161415612484565b6000600491604051928380926395d89b4160e01b82525afa90811561021f576000916125a0575b50815160209081015160405163313ce56760e01b81529190829060049082906001600160a01b03165afa90811561021f57600091612571575b50612421565b612593915060203d602011612599575b61258b8183611546565b8101906123a4565b3861256b565b503d612581565b6125bd91503d806000833e6125b58183611546565b810190612346565b38612532565b6000906001600160a01b0316806125da5750503190565b6040516370a0823160e01b81526001600160a01b039093166004840152909190602090829060249082905afa91821561233a57809261261857505090565b9091506020823d602011612641575b8161263460209383611546565b8101031261232f57505190565b3d9150612627565b903590601e198136030182121561159257018035906001600160401b0382116115925760200191813603831361159257565b3560ff811681036115925790565b60208101906001600160a01b0361269f83611e9b565b166127b5576126ac6123bd565b906012915b60405160208101906126ce602082855161243e8187858a016118ac565b5190209360608301946126e18685612649565b612709602060405183819483830196873781016000838201520301601f198101835282611546565b5190201480159061279a575b612720575050505050565b60809550916124ec9160ff61278261274e61274561273e8498611e9b565b9986612649565b9a90950161267b565b604051635591851960e01b81526001600160a01b0390991660048a015260a060248a0152979889989460a48a019190611edc565b921660448701528582036003190160648701526118cf565b5060ff6127a96080850161267b565b1660ff85161415612715565b600460006001600160a01b036127ca85611e9b565b16604051928380926395d89b4160e01b82525afa90811561021f5760009161284d575b5090600460206001600160a01b0361280486611e9b565b166040519283809263313ce56760e01b82525afa90811561021f5760009161282e575b50916126b1565b612847915060203d6020116125995761258b8183611546565b38612827565b61286291503d806000833e6125b58183611546565b386127ed565b6000926001600160a01b0390911691908215612041578035801561203a57804211612028576128996020830161267b565b91843b156128f2576040805163d505accf60e01b81523360048201523060248201526044810195909552606485019290925260ff909216608484015281013560a48301526060013560c482015282818060e48101611fe3565b8580fd5b9060208201906001600160a01b0361290d83611e9b565b16156120415761291c83611e9b565b6001600160a01b03918216911603612a64576001600160a01b0361293f82611e9b565b604080516323b872dd60e01b81523360048201523060248201529085013560ff81901d90810118604482018190529592909160209183916064918391600091165af1801561021f57612a47575b50156129f05761211e9260209290916129b8906001600160a01b03906129b190611e9b565b1691611e9b565b60405163a9059cbb60e01b81526001600160a01b03909116600482015260248101929092529092839190829060009082906044820190565b61211e926020929091612a0f906001600160a01b03906129b190611e9b565b60405163095ea7b360e01b81526001600160a01b03909116600482015260248101929092529092839190829060009082906044820190565b612a5f9060203d602011610218576102098183611546565b61298c565b612a70612a7691611e9b565b91611e9b565b635876e71160e01b60009081526001600160a01b039283166004529116602452604490fd5b602081016001600160a01b03612ab082611e9b565b16612af2575060009081908190819060406001600160a01b03612ad283611e9b565b16910135908160ff1d809201918392818114612206571891f11561021f57565b6020906000906001600160a01b0390612b0a90611e9b565b166040612b1685611e9b565b60405163a9059cbb60e01b81526001600160a01b03909116600482015294013560ff81901d90810118602485015283918290816044810161211e565b60208101906001600160a01b03612b6883611e9b565b60009116612bc65750612b7a81611e9b565b315b6040820135928360ff1d808501188210612b965750505050565b90612bac612ba661026b93611e9b565b93611e9b565b9360405194859463d87031f960e01b865260048601611e4f565b6001600160a01b03612bd784611e9b565b166020612be384611e9b565b6040516370a0823160e01b81526001600160a01b03909116600482015291829060249082905afa91821561233a578092612c1f575b5050612b7c565b9091506020823d602011612c4c575b81612c3b60209383611546565b8101031261232f5750513880612c18565b3d9150612c2e56fea2646970667358221220e00c17871356ec4e8243b92c5dd8a65eb712ab9bee0d6ba4fe120373c8a39e5b64736f6c634300081b0033",
  "linkReferences": {},
  "deployedLinkReferences": {}
}