{
  "_format": "hh-sol-artifact-1",
  "contractName": "PermitRouter",
  "sourceName": "contracts/PermitRouter.sol",
  "abi": [
    {
      "inputs": [
        {
          "internalType": "uint256",
          "name": "permitsLength",
          "type": "uint256"
        },
        {
          "internalType": "uint256",
          "name": "approvalsLength",
          "type": "uint256"
        }
      ],
      "name": "PermitsLengthMismatch",
      "type": "error"
    },
    {
      "inputs": [
        {
          "internalType": "contract IBalanceProxy",
          "name": "balanceProxy",
          "type": "address"
        },
        {
          "components": [
            {
              "internalType": "address",
              "name": "target",
              "type": "address"
            },
            {
              "internalType": "address",
              "name": "token",
              "type": "address"
            },
            {
              "internalType": "int256",
              "name": "balance",
              "type": "int256"
            }
          ],
          "internalType": "struct IBalanceProxy.Balance[]",
          "name": "postBalances",
          "type": "tuple[]"
        },
        {
          "components": [
            {
              "components": [
                {
                  "internalType": "address",
                  "name": "target",
                  "type": "address"
                },
                {
                  "internalType": "address",
                  "name": "token",
                  "type": "address"
                },
                {
                  "internalType": "int256",
                  "name": "balance",
                  "type": "int256"
                }
              ],
              "internalType": "struct IBalanceProxy.Balance",
              "name": "balance",
              "type": "tuple"
            },
            {
              "internalType": "bool",
              "name": "useTransfer",
              "type": "bool"
            }
          ],
          "internalType": "struct IBalanceProxy.Approval[]",
          "name": "approvals",
          "type": "tuple[]"
        },
        {
          "components": [
            {
              "internalType": "uint256",
              "name": "deadline",
              "type": "uint256"
            },
            {
              "internalType": "uint8",
              "name": "v",
              "type": "uint8"
            },
            {
              "internalType": "bytes32",
              "name": "r",
              "type": "bytes32"
            },
            {
              "internalType": "bytes32",
              "name": "s",
              "type": "bytes32"
            }
          ],
          "internalType": "struct PermitData[]",
          "name": "permits",
          "type": "tuple[]"
        },
        {
          "internalType": "address",
          "name": "target",
          "type": "address"
        },
        {
          "internalType": "bytes",
          "name": "data",
          "type": "bytes"
        },
        {
          "components": [
            {
              "internalType": "address",
              "name": "target",
              "type": "address"
            },
            {
              "internalType": "address",
              "name": "token",
              "type": "address"
            },
            {
              "internalType": "int256",
              "name": "balance",
              "type": "int256"
            }
          ],
          "internalType": "struct IBalanceProxy.Balance[]",
          "name": "withdrawals",
          "type": "tuple[]"
        }
      ],
      "name": "permitProxyCall",
      "outputs": [
        {
          "internalType": "bytes",
          "name": "",
          "type": "bytes"
        }
      ],
      "stateMutability": "payable",
      "type": "function"
    },
    {
      "inputs": [
        {
          "internalType": "contract IBalanceProxy",
          "name": "balanceProxy",
          "type": "address"
        },
        {
          "components": [
            {
              "internalType": "address",
              "name": "target",
              "type": "address"
            },
            {
              "internalType": "address",
              "name": "token",
              "type": "address"
            },
            {
              "internalType": "int256",
              "name": "balance",
              "type": "int256"
            }
          ],
          "internalType": "struct IBalanceProxy.Balance[]",
          "name": "diffs",
          "type": "tuple[]"
        },
        {
          "components": [
            {
              "components": [
                {
                  "internalType": "address",
                  "name": "target",
                  "type": "address"
                },
                {
                  "internalType": "address",
                  "name": "token",
                  "type": "address"
                },
                {
                  "internalType": "int256",
                  "name": "balance",
                  "type": "int256"
                }
              ],
              "internalType": "struct IBalanceProxy.Balance",
              "name": "balance",
              "type": "tuple"
            },
            {
              "internalType": "bool",
              "name": "useTransfer",
              "type": "bool"
            }
          ],
          "internalType": "struct IBalanceProxy.Approval[]",
          "name": "approvals",
          "type": "tuple[]"
        },
        {
          "components": [
            {
              "internalType": "uint256",
              "name": "deadline",
              "type": "uint256"
            },
            {
              "internalType": "uint8",
              "name": "v",
              "type": "uint8"
            },
            {
              "internalType": "bytes32",
              "name": "r",
              "type": "bytes32"
            },
            {
              "internalType": "bytes32",
              "name": "s",
              "type": "bytes32"
            }
          ],
          "internalType": "struct PermitData[]",
          "name": "permits",
          "type": "tuple[]"
        },
        {
          "internalType": "address",
          "name": "target",
          "type": "address"
        },
        {
          "internalType": "bytes",
          "name": "data",
          "type": "bytes"
        },
        {
          "components": [
            {
              "internalType": "address",
              "name": "target",
              "type": "address"
            },
            {
              "internalType": "address",
              "name": "token",
              "type": "address"
            },
            {
              "internalType": "int256",
              "name": "balance",
              "type": "int256"
            }
          ],
          "internalType": "struct IBalanceProxy.Balance[]",
          "name": "withdrawals",
          "type": "tuple[]"
        }
      ],
      "name": "permitProxyCallDiffs",
      "outputs": [
        {
          "internalType": "bytes",
          "name": "",
          "type": "bytes"
        }
      ],
      "stateMutability": "payable",
      "type": "function"
    },
    {
      "inputs": [
        {
          "internalType": "contract IBalanceProxy",
          "name": "balanceProxy",
          "type": "address"
        },
        {
          "components": [
            {
              "components": [
                {
                  "internalType": "address",
                  "name": "target",
                  "type": "address"
                },
                {
                  "internalType": "address",
                  "name": "token",
                  "type": "address"
                },
                {
                  "internalType": "int256",
                  "name": "balance",
                  "type": "int256"
                }
              ],
              "internalType": "struct IBalanceProxy.Balance",
              "name": "balance",
              "type": "tuple"
            },
            {
              "internalType": "string",
              "name": "symbol",
              "type": "string"
            },
            {
              "internalType": "uint8",
              "name": "decimals",
              "type": "uint8"
            }
          ],
          "internalType": "struct BalanceMetadata[]",
          "name": "meta",
          "type": "tuple[]"
        },
        {
          "components": [
            {
              "components": [
                {
                  "internalType": "address",
                  "name": "target",
                  "type": "address"
                },
                {
                  "internalType": "address",
                  "name": "token",
                  "type": "address"
                },
                {
                  "internalType": "int256",
                  "name": "balance",
                  "type": "int256"
                }
              ],
              "internalType": "struct IBalanceProxy.Balance",
              "name": "balance",
              "type": "tuple"
            },
            {
              "internalType": "bool",
              "name": "useTransfer",
              "type": "bool"
            }
          ],
          "internalType": "struct IBalanceProxy.Approval[]",
          "name": "approvals",
          "type": "tuple[]"
        },
        {
          "components": [
            {
              "internalType": "uint256",
              "name": "deadline",
              "type": "uint256"
            },
            {
              "internalType": "uint8",
              "name": "v",
              "type": "uint8"
            },
            {
              "internalType": "bytes32",
              "name": "r",
              "type": "bytes32"
            },
            {
              "internalType": "bytes32",
              "name": "s",
              "type": "bytes32"
            }
          ],
          "internalType": "struct PermitData[]",
          "name": "permits",
          "type": "tuple[]"
        },
        {
          "internalType": "address",
          "name": "target",
          "type": "address"
        },
        {
          "internalType": "bytes",
          "name": "data",
          "type": "bytes"
        },
        {
          "components": [
            {
              "internalType": "address",
              "name": "target",
              "type": "address"
            },
            {
              "internalType": "address",
              "name": "token",
              "type": "address"
            },
            {
              "internalType": "int256",
              "name": "balance",
              "type": "int256"
            }
          ],
          "internalType": "struct IBalanceProxy.Balance[]",
          "name": "withdrawals",
          "type": "tuple[]"
        }
      ],
      "name": "permitProxyCallDiffsWithMeta",
      "outputs": [
        {
          "internalType": "bytes",
          "name": "",
          "type": "bytes"
        }
      ],
      "stateMutability": "payable",
      "type": "function"
    },
    {
      "inputs": [
        {
          "internalType": "contract IBalanceProxy",
          "name": "balanceProxy",
          "type": "address"
        },
        {
          "components": [
            {
              "components": [
                {
                  "internalType": "address",
                  "name": "target",
                  "type": "address"
                },
                {
                  "internalType": "address",
                  "name": "token",
                  "type": "address"
                },
                {
                  "internalType": "int256",
                  "name": "balance",
                  "type": "int256"
                }
              ],
              "internalType": "struct IBalanceProxy.Balance",
              "name": "balance",
              "type": "tuple"
            },
            {
              "internalType": "string",
              "name": "symbol",
              "type": "string"
            },
            {
              "internalType": "uint8",
              "name": "decimals",
              "type": "uint8"
            }
          ],
          "internalType": "struct BalanceMetadata[]",
          "name": "meta",
          "type": "tuple[]"
        },
        {
          "components": [
            {
              "components": [
                {
                  "internalType": "address",
                  "name": "target",
                  "type": "address"
                },
                {
                  "internalType": "address",
                  "name": "token",
                  "type": "address"
                },
                {
                  "internalType": "int256",
                  "name": "balance",
                  "type": "int256"
                }
              ],
              "internalType": "struct IBalanceProxy.Balance",
              "name": "balance",
              "type": "tuple"
            },
            {
              "internalType": "bool",
              "name": "useTransfer",
              "type": "bool"
            }
          ],
          "internalType": "struct IBalanceProxy.Approval[]",
          "name": "approvals",
          "type": "tuple[]"
        },
        {
          "components": [
            {
              "internalType": "uint256",
              "name": "deadline",
              "type": "uint256"
            },
            {
              "internalType": "uint8",
              "name": "v",
              "type": "uint8"
            },
            {
              "internalType": "bytes32",
              "name": "r",
              "type": "bytes32"
            },
            {
              "internalType": "bytes32",
              "name": "s",
              "type": "bytes32"
            }
          ],
          "internalType": "struct PermitData[]",
          "name": "permits",
          "type": "tuple[]"
        },
        {
          "internalType": "address",
          "name": "target",
          "type": "address"
        },
        {
          "internalType": "bytes",
          "name": "data",
          "type": "bytes"
        },
        {
          "components": [
            {
              "internalType": "address",
              "name": "target",
              "type": "address"
            },
            {
              "internalType": "address",
              "name": "token",
              "type": "address"
            },
            {
              "internalType": "int256",
              "name": "balance",
              "type": "int256"
            }
          ],
          "internalType": "struct IBalanceProxy.Balance[]",
          "name": "withdrawals",
          "type": "tuple[]"
        }
      ],
      "name": "permitProxyCallWithMeta",
      "outputs": [
        {
          "internalType": "bytes",
          "name": "",
          "type": "bytes"
        }
      ],
      "stateMutability": "payable",
      "type": "function"
    }
  ],
  "bytecode": "0x60808060405234601557610f48908161001b8239f35b600080fdfe6080604052600436101561001257600080fd5b60003560e01c8063029a2053146105f9578063329d0233146104585780633bb77a9d146102465763bf10e28e1461004857600080fd5b61005136610a61565b95928492949591955193815185810361022d57506001600160a01b03169360005b81811061010057505060405163890e3add60e01b8152966000968896879586956100a0955060048701610def565b039134905af180156100f4576100cd916000916100d1575b50604051918291602083526020830190610b52565b0390f35b6100ee91503d806000833e6100e681836107ad565b810190610d2f565b386100b8565b6040513d6000823e3d90fd5b61010a8186610cac565b5151906040820151602061011e8387610cac565b51930180518451602086015160408701516060909701519693949391926001600160a01b03169060ff16813b1561022857600080946101766040519a8b968795869463d505accf60e01b86528b303360048901610cd6565b03925af19182156100f4576101cf94602093610217575b50516040516323b872dd60e01b81523360048201526001600160a01b038b81166024830152604482019390935294859290911690829060009082906064820190565b03925af19182156100f4576001926101e9575b5001610072565b6102099060203d8111610210575b61020181836107ad565b810190610d17565b50386101e2565b503d6101f7565b6000610222916107ad565b3861018d565b600080fd5b85906341d6d1af60e01b60005260045260245260446000fd5b61024f36610b77565b94959092845191815183810361043f57506001600160a01b03169160005b818110610326575050506102818651610ead565b9360005b87518110156102b9578061029b6001928a610cac565b51516102a78289610cac565b526102b28188610cac565b5001610285565b50600093946102df876040519788968795869563ce9506f960e01b875260048701610def565b039134905af180156100f4576100cd9160009161030b5750604051918291602083526020830190610b52565b61032091503d806000833e6100e681836107ad565b826100b8565b6103308188610cac565b51519060408201519160206103458387610cac565b51910180518251602084015160408501516060909501519396939491926001600160a01b03169060ff16813b15610228576000809461039d6040519889968795869463d505accf60e01b86528b303360048901610cd6565b03925af19081156100f4576000946020936103f79361042f575b50516040516323b872dd60e01b81523360048201526001600160a01b038a8116602483015260448201939093529586939190921691839182906064820190565b03925af19182156100f457600192610411575b500161026d565b6104289060203d81116102105761020181836107ad565b508a61040a565b86610439916107ad565b8e6103b7565b83906341d6d1af60e01b60005260045260245260446000fd5b61046136610b77565b94959092845191815183810361043f57506001600160a01b03169160005b8181106104f1575050506104938651610ead565b9360005b87518110156104cb57806104ad6001928a610cac565b51516104b98289610cac565b526104c48188610cac565b5001610497565b50600093946102df876040519788968795869563890e3add60e01b875260048701610def565b6104fb8188610cac565b51519060408201519160206105108387610cac565b51910180518251602084015160408501516060909501519396939491926001600160a01b03169060ff16813b1561022857600080946105686040519889968795869463d505accf60e01b86528b303360048901610cd6565b03925af19081156100f4576000946020936105c19361042f5750516040516323b872dd60e01b81523360048201526001600160a01b038a8116602483015260448201939093529586939190921691839182906064820190565b03925af19182156100f4576001926105db575b500161047f565b6105f29060203d81116102105761020181836107ad565b508a6105d4565b61060236610a61565b95928492949591955193815185810361022d57506001600160a01b03169360005b81811061065157505060405163ce9506f960e01b8152966000968896879586956102df955060048701610def565b61065b8186610cac565b5151906040820151602061066f8387610cac565b51930180518451602086015160408701516060909701519693949391926001600160a01b03169060ff16813b1561022857600080946106c76040519a8b968795869463d505accf60e01b86528b303360048901610cd6565b03925af19182156100f45761071f946020936107575750516040516323b872dd60e01b81523360048201526001600160a01b038b81166024830152604482019390935294859290911690829060009082906064820190565b03925af19182156100f457600192610739575b5001610623565b6107509060203d81116102105761020181836107ad565b508a610732565b6000610762916107ad565b8d61018d565b35906001600160a01b038216820361022857565b606081019081106001600160401b0382111761079757604052565b634e487b7160e01b600052604160045260246000fd5b90601f801991011681019081106001600160401b0382111761079757604052565b6001600160401b0381116107975760051b60200190565b9190826060910312610228576040516107fd8161077c565b604080829461080b81610768565b845261081960208201610768565b60208501520135910152565b81601f8201121561022857803561083b816107ce565b9261084960405194856107ad565b8184526020606081860193028401019281841161022857602001915b838310610873575050505090565b602060609161088284866107e5565b815201920191610865565b9080601f83011215610228578135916108a5836107ce565b926108b360405194856107ad565b80845260208085019160071b8301019183831161022857602001905b8282106108dd575050505090565b6080828503126102285760405190604082018281106001600160401b038211176107975760405261090e85846107e5565b8252606083013590811515820361022857826020928360809501528152019101906108cf565b359060ff8216820361022857565b81601f8201121561022857803590610959826107ce565b9261096760405194856107ad565b82845260208085019360071b8301019181831161022857602001925b828410610991575050505090565b608084830312610228576040519060808201908282106001600160401b0383111761079757608092602092604052863581526109ce838801610934565b838201526040870135604082015260608701356060820152815201930192610983565b6001600160401b03811161079757601f01601f191660200190565b929192610a18826109f1565b91610a2660405193846107ad565b829481845281830111610228578281602093846000960137010152565b9080601f8301121561022857816020610a5e93359101610a0c565b90565b60e0600319820112610228576004356001600160a01b038116810361022857916024356001600160401b0381116102285782610a9f91600401610825565b916044356001600160401b0381116102285781610abe9160040161088d565b916064356001600160401b0381116102285782610add91600401610942565b916084356001600160a01b0381168103610228579160a4356001600160401b0381116102285782610b1091600401610a43565b9160c435906001600160401b03821161022857610a5e91600401610825565b60005b838110610b425750506000910152565b8181015183820152602001610b32565b90602091610b6b81518092818552858086019101610b2f565b601f01601f1916010190565b60e0600319820112610228576004356001600160a01b038116810361022857916024356001600160401b038111610228578260238201121561022857806004013590610bc2826107ce565b91610bd060405193846107ad565b8083526024602084019160051b830101918583116102285760248101915b838310610c185750505050916044356001600160401b0381116102285781610abe9160040161088d565b82356001600160401b0381116102285782019060a082890360231901126102285760405190610c468261077c565b610c5389602485016107e5565b825260848301356001600160401b038111610228576024908401019189601f8401121561022857610c9c60a4602095610c928d87898099359101610a0c565b8685015201610934565b6040820152815201920191610bee565b8051821015610cc05760209160051b010190565b634e487b7160e01b600052603260045260246000fd5b9360c095919897969360ff9360e087019a60018060a01b0316875260018060a01b031660208701526040860152606085015216608083015260a08201520152565b90816020910312610228575180151581036102285790565b602081830312610228578051906001600160401b038211610228570181601f82011215610228578051610d61816109f1565b92610d6f60405194856107ad565b8184526020828401011161022857610a5e9160208085019101610b2f565b906020808351928381520192019060005b818110610dab5750505090565b9091926020606082610de460019488516040809160018060a01b03815116845260018060a01b0360208201511660208501520151910152565b019401929101610d9e565b939195949290610e079060a0865260a0860190610d8d565b84810360208601526020808851928381520197019060005b818110610e5d575050506001600160a01b0316604084015282850360608401529293610a5e93610e4f9190610b52565b916080818403910152610d8d565b90919760206080600192828c51610e998382516040809160018060a01b03815116845260018060a01b0360208201511660208501520151910152565b015115156060820152019901929101610e1f565b90610eb7826107ce565b610ec460405191826107ad565b8281528092610ed5601f19916107ce565b019060005b828110610ee657505050565b602090604051610ef58161077c565b600081526000838201526000604082015282828501015201610eda56fea2646970667358221220f42e63dfd67ac5af540331a285e4d3ba44721ca690e0b3536235e844e2a81e6764736f6c634300081b0033",
  "linkReferences": {},
  "deployedLinkReferences": {}
}