{
  "contracts/BalanceProxy.sol": {
    "BalanceProxy": {
      "abi": [
        {
          "inputs": [
            {
              "internalType": "address",
              "name": "target",
              "type": "address"
            },
            {
              "internalType": "bytes",
              "name": "data",
              "type": "bytes"
            },
            {
              "internalType": "bytes",
              "name": "returnData",
              "type": "bytes"
            }
          ],
          "name": "CallFailed",
          "type": "error"
        },
        {
          "inputs": [
            {
              "internalType": "address",
              "name": "token",
              "type": "address"
            },
            {
              "internalType": "address",
              "name": "target",
              "type": "address"
            },
            {
              "internalType": "int256",
              "name": "balance",
              "type": "int256"
            },
            {
              "internalType": "uint256",
              "name": "actual",
              "type": "uint256"
            }
          ],
          "name": "InsufficientBalance",
          "type": "error"
        },
        {
          "inputs": [
            {
              "internalType": "address",
              "name": "token",
              "type": "address"
            },
            {
              "internalType": "string",
              "name": "expectedSymbol",
              "type": "string"
            },
            {
              "internalType": "uint8",
              "name": "expectedDecimals",
              "type": "uint8"
            },
            {
              "internalType": "string",
              "name": "actualSymbol",
              "type": "string"
            },
            {
              "internalType": "uint8",
              "name": "actualDecimals",
              "type": "uint8"
            }
          ],
          "name": "InvalidMetadata",
          "type": "error"
        },
        {
          "inputs": [
            {
              "internalType": "uint256",
              "name": "permitsLength",
              "type": "uint256"
            },
            {
              "internalType": "uint256",
              "name": "approvalsLength",
              "type": "uint256"
            }
          ],
          "name": "InvalidPermitLength",
          "type": "error"
        },
        {
          "inputs": [
            {
              "internalType": "uint256",
              "name": "flagsLength",
              "type": "uint256"
            },
            {
              "internalType": "uint256",
              "name": "approvalsLength",
              "type": "uint256"
            }
          ],
          "name": "InvalidTransferFlagsLength",
          "type": "error"
        },
        {
          "inputs": [
            {
              "internalType": "address",
              "name": "token",
              "type": "address"
            },
            {
              "internalType": "address",
              "name": "target",
              "type": "address"
            }
          ],
          "name": "MaliciousApproveTarget",
          "type": "error"
        },
        {
          "inputs": [
            {
              "internalType": "uint256",
              "name": "deadline",
              "type": "uint256"
            }
          ],
          "name": "PermitExpired",
          "type": "error"
        },
        {
          "inputs": [
            {
              "internalType": "address",
              "name": "owner",
              "type": "address"
            },
            {
              "internalType": "address",
              "name": "token",
              "type": "address"
            }
          ],
          "name": "PermitFailed",
          "type": "error"
        },
        {
          "inputs": [],
          "name": "ReentrancyGuardReentrantCall",
          "type": "error"
        },
        {
          "inputs": [
            {
              "internalType": "address",
              "name": "token",
              "type": "address"
            },
            {
              "internalType": "address",
              "name": "target",
              "type": "address"
            },
            {
              "internalType": "int256",
              "name": "expected",
              "type": "int256"
            },
            {
              "internalType": "int256",
              "name": "actual",
              "type": "int256"
            }
          ],
          "name": "UnexpectedBalanceDiff",
          "type": "error"
        },
        {
          "inputs": [
            {
              "components": [
                {
                  "internalType": "address",
                  "name": "target",
                  "type": "address"
                },
                {
                  "internalType": "address",
                  "name": "token",
                  "type": "address"
                },
                {
                  "internalType": "int256",
                  "name": "balance",
                  "type": "int256"
                }
              ],
              "internalType": "struct IBalanceProxy.Balance[]",
              "name": "postBalances",
              "type": "tuple[]"
            },
            {
              "components": [
                {
                  "internalType": "address",
                  "name": "target",
                  "type": "address"
                },
                {
                  "internalType": "address",
                  "name": "token",
                  "type": "address"
                },
                {
                  "internalType": "int256",
                  "name": "balance",
                  "type": "int256"
                }
              ],
              "internalType": "struct IBalanceProxy.Balance[]",
              "name": "approvals",
              "type": "tuple[]"
            },
            {
              "components": [
                {
                  "internalType": "uint256",
                  "name": "deadline",
                  "type": "uint256"
                },
                {
                  "internalType": "uint8",
                  "name": "v",
                  "type": "uint8"
                },
                {
                  "internalType": "bytes32",
                  "name": "r",
                  "type": "bytes32"
                },
                {
                  "internalType": "bytes32",
                  "name": "s",
                  "type": "bytes32"
                }
              ],
              "internalType": "struct PermitData[]",
              "name": "permits",
              "type": "tuple[]"
            },
            {
              "internalType": "bool[]",
              "name": "useTransferFlags",
              "type": "bool[]"
            },
            {
              "internalType": "address",
              "name": "target",
              "type": "address"
            },
            {
              "internalType": "bytes",
              "name": "data",
              "type": "bytes"
            },
            {
              "components": [
                {
                  "internalType": "address",
                  "name": "target",
                  "type": "address"
                },
                {
                  "internalType": "address",
                  "name": "token",
                  "type": "address"
                },
                {
                  "internalType": "int256",
                  "name": "balance",
                  "type": "int256"
                }
              ],
              "internalType": "struct IBalanceProxy.Balance[]",
              "name": "withdrawals",
              "type": "tuple[]"
            }
          ],
          "name": "permitAndProxyCall",
          "outputs": [
            {
              "internalType": "bytes",
              "name": "",
              "type": "bytes"
            }
          ],
          "stateMutability": "payable",
          "type": "function"
        },
        {
          "inputs": [
            {
              "components": [
                {
                  "internalType": "address",
                  "name": "target",
                  "type": "address"
                },
                {
                  "internalType": "address",
                  "name": "token",
                  "type": "address"
                },
                {
                  "internalType": "int256",
                  "name": "balance",
                  "type": "int256"
                }
              ],
              "internalType": "struct IBalanceProxy.Balance[]",
              "name": "postBalances",
              "type": "tuple[]"
            },
            {
              "components": [
                {
                  "internalType": "address",
                  "name": "target",
                  "type": "address"
                },
                {
                  "internalType": "address",
                  "name": "token",
                  "type": "address"
                },
                {
                  "internalType": "int256",
                  "name": "balance",
                  "type": "int256"
                }
              ],
              "internalType": "struct IBalanceProxy.Balance[]",
              "name": "approvals",
              "type": "tuple[]"
            },
            {
              "components": [
                {
                  "internalType": "uint256",
                  "name": "deadline",
                  "type": "uint256"
                },
                {
                  "internalType": "uint8",
                  "name": "v",
                  "type": "uint8"
                },
                {
                  "internalType": "bytes32",
                  "name": "r",
                  "type": "bytes32"
                },
                {
                  "internalType": "bytes32",
                  "name": "s",
                  "type": "bytes32"
                }
              ],
              "internalType": "struct PermitData[]",
              "name": "permits",
              "type": "tuple[]"
            },
            {
              "internalType": "bool[]",
              "name": "useTransferFlags",
              "type": "bool[]"
            },
            {
              "internalType": "address",
              "name": "target",
              "type": "address"
            },
            {
              "internalType": "bytes",
              "name": "data",
              "type": "bytes"
            },
            {
              "components": [
                {
                  "internalType": "address",
                  "name": "target",
                  "type": "address"
                },
                {
                  "internalType": "address",
                  "name": "token",
                  "type": "address"
                },
                {
                  "internalType": "int256",
                  "name": "balance",
                  "type": "int256"
                }
              ],
              "internalType": "struct IBalanceProxy.Balance[]",
              "name": "withdrawals",
              "type": "tuple[]"
            }
          ],
          "name": "permitAndProxyCallCalldata",
          "outputs": [
            {
              "internalType": "bytes",
              "name": "",
              "type": "bytes"
            }
          ],
          "stateMutability": "payable",
          "type": "function"
        },
        {
          "inputs": [
            {
              "components": [
                {
                  "internalType": "address",
                  "name": "target",
                  "type": "address"
                },
                {
                  "internalType": "address",
                  "name": "token",
                  "type": "address"
                },
                {
                  "internalType": "int256",
                  "name": "balance",
                  "type": "int256"
                }
              ],
              "internalType": "struct IBalanceProxy.Balance[]",
              "name": "diffs",
              "type": "tuple[]"
            },
            {
              "components": [
                {
                  "internalType": "address",
                  "name": "target",
                  "type": "address"
                },
                {
                  "internalType": "address",
                  "name": "token",
                  "type": "address"
                },
                {
                  "internalType": "int256",
                  "name": "balance",
                  "type": "int256"
                }
              ],
              "internalType": "struct IBalanceProxy.Balance[]",
              "name": "approvals",
              "type": "tuple[]"
            },
            {
              "components": [
                {
                  "internalType": "uint256",
                  "name": "deadline",
                  "type": "uint256"
                },
                {
                  "internalType": "uint8",
                  "name": "v",
                  "type": "uint8"
                },
                {
                  "internalType": "bytes32",
                  "name": "r",
                  "type": "bytes32"
                },
                {
                  "internalType": "bytes32",
                  "name": "s",
                  "type": "bytes32"
                }
              ],
              "internalType": "struct PermitData[]",
              "name": "permits",
              "type": "tuple[]"
            },
            {
              "internalType": "bool[]",
              "name": "useTransferFlags",
              "type": "bool[]"
            },
            {
              "internalType": "address",
              "name": "target",
              "type": "address"
            },
            {
              "internalType": "bytes",
              "name": "data",
              "type": "bytes"
            },
            {
              "components": [
                {
                  "internalType": "address",
                  "name": "target",
                  "type": "address"
                },
                {
                  "internalType": "address",
                  "name": "token",
                  "type": "address"
                },
                {
                  "internalType": "int256",
                  "name": "balance",
                  "type": "int256"
                }
              ],
              "internalType": "struct IBalanceProxy.Balance[]",
              "name": "withdrawals",
              "type": "tuple[]"
            }
          ],
          "name": "permitAndProxyCallCalldataDiffs",
          "outputs": [
            {
              "internalType": "bytes",
              "name": "",
              "type": "bytes"
            }
          ],
          "stateMutability": "payable",
          "type": "function"
        },
        {
          "inputs": [
            {
              "components": [
                {
                  "internalType": "address",
                  "name": "target",
                  "type": "address"
                },
                {
                  "internalType": "address",
                  "name": "token",
                  "type": "address"
                },
                {
                  "internalType": "int256",
                  "name": "balance",
                  "type": "int256"
                }
              ],
              "internalType": "struct IBalanceProxy.Balance[]",
              "name": "diffs",
              "type": "tuple[]"
            },
            {
              "components": [
                {
                  "internalType": "address",
                  "name": "target",
                  "type": "address"
                },
                {
                  "internalType": "address",
                  "name": "token",
                  "type": "address"
                },
                {
                  "internalType": "int256",
                  "name": "balance",
                  "type": "int256"
                }
              ],
              "internalType": "struct IBalanceProxy.Balance[]",
              "name": "approvals",
              "type": "tuple[]"
            },
            {
              "components": [
                {
                  "internalType": "uint256",
                  "name": "deadline",
                  "type": "uint256"
                },
                {
                  "internalType": "uint8",
                  "name": "v",
                  "type": "uint8"
                },
                {
                  "internalType": "bytes32",
                  "name": "r",
                  "type": "bytes32"
                },
                {
                  "internalType": "bytes32",
                  "name": "s",
                  "type": "bytes32"
                }
              ],
              "internalType": "struct PermitData[]",
              "name": "permits",
              "type": "tuple[]"
            },
            {
              "internalType": "bool[]",
              "name": "useTransferFlags",
              "type": "bool[]"
            },
            {
              "internalType": "address",
              "name": "target",
              "type": "address"
            },
            {
              "internalType": "bytes",
              "name": "data",
              "type": "bytes"
            },
            {
              "components": [
                {
                  "internalType": "address",
                  "name": "target",
                  "type": "address"
                },
                {
                  "internalType": "address",
                  "name": "token",
                  "type": "address"
                },
                {
                  "internalType": "int256",
                  "name": "balance",
                  "type": "int256"
                }
              ],
              "internalType": "struct IBalanceProxy.Balance[]",
              "name": "withdrawals",
              "type": "tuple[]"
            }
          ],
          "name": "permitAndProxyCallDiffs",
          "outputs": [
            {
              "internalType": "bytes",
              "name": "",
              "type": "bytes"
            }
          ],
          "stateMutability": "payable",
          "type": "function"
        },
        {
          "inputs": [
            {
              "components": [
                {
                  "components": [
                    {
                      "internalType": "address",
                      "name": "target",
                      "type": "address"
                    },
                    {
                      "internalType": "address",
                      "name": "token",
                      "type": "address"
                    },
                    {
                      "internalType": "int256",
                      "name": "balance",
                      "type": "int256"
                    }
                  ],
                  "internalType": "struct IBalanceProxy.Balance",
                  "name": "balance",
                  "type": "tuple"
                },
                {
                  "internalType": "string",
                  "name": "symbol",
                  "type": "string"
                },
                {
                  "internalType": "uint8",
                  "name": "decimals",
                  "type": "uint8"
                }
              ],
              "internalType": "struct IBalanceProxy.BalanceMetadata[]",
              "name": "postBalances",
              "type": "tuple[]"
            },
            {
              "components": [
                {
                  "components": [
                    {
                      "internalType": "address",
                      "name": "target",
                      "type": "address"
                    },
                    {
                      "internalType": "address",
                      "name": "token",
                      "type": "address"
                    },
                    {
                      "internalType": "int256",
                      "name": "balance",
                      "type": "int256"
                    }
                  ],
                  "internalType": "struct IBalanceProxy.Balance",
                  "name": "balance",
                  "type": "tuple"
                },
                {
                  "internalType": "string",
                  "name": "symbol",
                  "type": "string"
                },
                {
                  "internalType": "uint8",
                  "name": "decimals",
                  "type": "uint8"
                }
              ],
              "internalType": "struct IBalanceProxy.BalanceMetadata[]",
              "name": "approvals",
              "type": "tuple[]"
            },
            {
              "components": [
                {
                  "internalType": "uint256",
                  "name": "deadline",
                  "type": "uint256"
                },
                {
                  "internalType": "uint8",
                  "name": "v",
                  "type": "uint8"
                },
                {
                  "internalType": "bytes32",
                  "name": "r",
                  "type": "bytes32"
                },
                {
                  "internalType": "bytes32",
                  "name": "s",
                  "type": "bytes32"
                }
              ],
              "internalType": "struct PermitData[]",
              "name": "permits",
              "type": "tuple[]"
            },
            {
              "internalType": "bool[]",
              "name": "useTransferFlags",
              "type": "bool[]"
            },
            {
              "internalType": "address",
              "name": "target",
              "type": "address"
            },
            {
              "internalType": "bytes",
              "name": "data",
              "type": "bytes"
            },
            {
              "components": [
                {
                  "components": [
                    {
                      "internalType": "address",
                      "name": "target",
                      "type": "address"
                    },
                    {
                      "internalType": "address",
                      "name": "token",
                      "type": "address"
                    },
                    {
                      "internalType": "int256",
                      "name": "balance",
                      "type": "int256"
                    }
                  ],
                  "internalType": "struct IBalanceProxy.Balance",
                  "name": "balance",
                  "type": "tuple"
                },
                {
                  "internalType": "string",
                  "name": "symbol",
                  "type": "string"
                },
                {
                  "internalType": "uint8",
                  "name": "decimals",
                  "type": "uint8"
                }
              ],
              "internalType": "struct IBalanceProxy.BalanceMetadata[]",
              "name": "withdrawals",
              "type": "tuple[]"
            }
          ],
          "name": "permitAndProxyCallMetadata",
          "outputs": [
            {
              "internalType": "bytes",
              "name": "",
              "type": "bytes"
            }
          ],
          "stateMutability": "payable",
          "type": "function"
        },
        {
          "inputs": [
            {
              "components": [
                {
                  "components": [
                    {
                      "internalType": "address",
                      "name": "target",
                      "type": "address"
                    },
                    {
                      "internalType": "address",
                      "name": "token",
                      "type": "address"
                    },
                    {
                      "internalType": "int256",
                      "name": "balance",
                      "type": "int256"
                    }
                  ],
                  "internalType": "struct IBalanceProxy.Balance",
                  "name": "balance",
                  "type": "tuple"
                },
                {
                  "internalType": "string",
                  "name": "symbol",
                  "type": "string"
                },
                {
                  "internalType": "uint8",
                  "name": "decimals",
                  "type": "uint8"
                }
              ],
              "internalType": "struct IBalanceProxy.BalanceMetadata[]",
              "name": "postBalances",
              "type": "tuple[]"
            },
            {
              "components": [
                {
                  "components": [
                    {
                      "internalType": "address",
                      "name": "target",
                      "type": "address"
                    },
                    {
                      "internalType": "address",
                      "name": "token",
                      "type": "address"
                    },
                    {
                      "internalType": "int256",
                      "name": "balance",
                      "type": "int256"
                    }
                  ],
                  "internalType": "struct IBalanceProxy.Balance",
                  "name": "balance",
                  "type": "tuple"
                },
                {
                  "internalType": "string",
                  "name": "symbol",
                  "type": "string"
                },
                {
                  "internalType": "uint8",
                  "name": "decimals",
                  "type": "uint8"
                }
              ],
              "internalType": "struct IBalanceProxy.BalanceMetadata[]",
              "name": "approvals",
              "type": "tuple[]"
            },
            {
              "components": [
                {
                  "internalType": "uint256",
                  "name": "deadline",
                  "type": "uint256"
                },
                {
                  "internalType": "uint8",
                  "name": "v",
                  "type": "uint8"
                },
                {
                  "internalType": "bytes32",
                  "name": "r",
                  "type": "bytes32"
                },
                {
                  "internalType": "bytes32",
                  "name": "s",
                  "type": "bytes32"
                }
              ],
              "internalType": "struct PermitData[]",
              "name": "permits",
              "type": "tuple[]"
            },
            {
              "internalType": "bool[]",
              "name": "useTransferFlags",
              "type": "bool[]"
            },
            {
              "internalType": "address",
              "name": "target",
              "type": "address"
            },
            {
              "internalType": "bytes",
              "name": "data",
              "type": "bytes"
            },
            {
              "components": [
                {
                  "components": [
                    {
                      "internalType": "address",
                      "name": "target",
                      "type": "address"
                    },
                    {
                      "internalType": "address",
                      "name": "token",
                      "type": "address"
                    },
                    {
                      "internalType": "int256",
                      "name": "balance",
                      "type": "int256"
                    }
                  ],
                  "internalType": "struct IBalanceProxy.Balance",
                  "name": "balance",
                  "type": "tuple"
                },
                {
                  "internalType": "string",
                  "name": "symbol",
                  "type": "string"
                },
                {
                  "internalType": "uint8",
                  "name": "decimals",
                  "type": "uint8"
                }
              ],
              "internalType": "struct IBalanceProxy.BalanceMetadata[]",
              "name": "withdrawals",
              "type": "tuple[]"
            }
          ],
          "name": "permitAndProxyCallMetadataCalldata",
          "outputs": [
            {
              "internalType": "bytes",
              "name": "",
              "type": "bytes"
            }
          ],
          "stateMutability": "payable",
          "type": "function"
        },
        {
          "inputs": [
            {
              "components": [
                {
                  "components": [
                    {
                      "internalType": "address",
                      "name": "target",
                      "type": "address"
                    },
                    {
                      "internalType": "address",
                      "name": "token",
                      "type": "address"
                    },
                    {
                      "internalType": "int256",
                      "name": "balance",
                      "type": "int256"
                    }
                  ],
                  "internalType": "struct IBalanceProxy.Balance",
                  "name": "balance",
                  "type": "tuple"
                },
                {
                  "internalType": "string",
                  "name": "symbol",
                  "type": "string"
                },
                {
                  "internalType": "uint8",
                  "name": "decimals",
                  "type": "uint8"
                }
              ],
              "internalType": "struct IBalanceProxy.BalanceMetadata[]",
              "name": "diffs",
              "type": "tuple[]"
            },
            {
              "components": [
                {
                  "components": [
                    {
                      "internalType": "address",
                      "name": "target",
                      "type": "address"
                    },
                    {
                      "internalType": "address",
                      "name": "token",
                      "type": "address"
                    },
                    {
                      "internalType": "int256",
                      "name": "balance",
                      "type": "int256"
                    }
                  ],
                  "internalType": "struct IBalanceProxy.Balance",
                  "name": "balance",
                  "type": "tuple"
                },
                {
                  "internalType": "string",
                  "name": "symbol",
                  "type": "string"
                },
                {
                  "internalType": "uint8",
                  "name": "decimals",
                  "type": "uint8"
                }
              ],
              "internalType": "struct IBalanceProxy.BalanceMetadata[]",
              "name": "approvals",
              "type": "tuple[]"
            },
            {
              "components": [
                {
                  "internalType": "uint256",
                  "name": "deadline",
                  "type": "uint256"
                },
                {
                  "internalType": "uint8",
                  "name": "v",
                  "type": "uint8"
                },
                {
                  "internalType": "bytes32",
                  "name": "r",
                  "type": "bytes32"
                },
                {
                  "internalType": "bytes32",
                  "name": "s",
                  "type": "bytes32"
                }
              ],
              "internalType": "struct PermitData[]",
              "name": "permits",
              "type": "tuple[]"
            },
            {
              "internalType": "bool[]",
              "name": "useTransferFlags",
              "type": "bool[]"
            },
            {
              "internalType": "address",
              "name": "target",
              "type": "address"
            },
            {
              "internalType": "bytes",
              "name": "data",
              "type": "bytes"
            },
            {
              "components": [
                {
                  "components": [
                    {
                      "internalType": "address",
                      "name": "target",
                      "type": "address"
                    },
                    {
                      "internalType": "address",
                      "name": "token",
                      "type": "address"
                    },
                    {
                      "internalType": "int256",
                      "name": "balance",
                      "type": "int256"
                    }
                  ],
                  "internalType": "struct IBalanceProxy.Balance",
                  "name": "balance",
                  "type": "tuple"
                },
                {
                  "internalType": "string",
                  "name": "symbol",
                  "type": "string"
                },
                {
                  "internalType": "uint8",
                  "name": "decimals",
                  "type": "uint8"
                }
              ],
              "internalType": "struct IBalanceProxy.BalanceMetadata[]",
              "name": "withdrawals",
              "type": "tuple[]"
            }
          ],
          "name": "permitAndProxyCallMetadataCalldataDiffs",
          "outputs": [
            {
              "internalType": "bytes",
              "name": "",
              "type": "bytes"
            }
          ],
          "stateMutability": "payable",
          "type": "function"
        },
        {
          "inputs": [
            {
              "components": [
                {
                  "components": [
                    {
                      "internalType": "address",
                      "name": "target",
                      "type": "address"
                    },
                    {
                      "internalType": "address",
                      "name": "token",
                      "type": "address"
                    },
                    {
                      "internalType": "int256",
                      "name": "balance",
                      "type": "int256"
                    }
                  ],
                  "internalType": "struct IBalanceProxy.Balance",
                  "name": "balance",
                  "type": "tuple"
                },
                {
                  "internalType": "string",
                  "name": "symbol",
                  "type": "string"
                },
                {
                  "internalType": "uint8",
                  "name": "decimals",
                  "type": "uint8"
                }
              ],
              "internalType": "struct IBalanceProxy.BalanceMetadata[]",
              "name": "diffs",
              "type": "tuple[]"
            },
            {
              "components": [
                {
                  "components": [
                    {
                      "internalType": "address",
                      "name": "target",
                      "type": "address"
                    },
                    {
                      "internalType": "address",
                      "name": "token",
                      "type": "address"
                    },
                    {
                      "internalType": "int256",
                      "name": "balance",
                      "type": "int256"
                    }
                  ],
                  "internalType": "struct IBalanceProxy.Balance",
                  "name": "balance",
                  "type": "tuple"
                },
                {
                  "internalType": "string",
                  "name": "symbol",
                  "type": "string"
                },
                {
                  "internalType": "uint8",
                  "name": "decimals",
                  "type": "uint8"
                }
              ],
              "internalType": "struct IBalanceProxy.BalanceMetadata[]",
              "name": "approvals",
              "type": "tuple[]"
            },
            {
              "components": [
                {
                  "internalType": "uint256",
                  "name": "deadline",
                  "type": "uint256"
                },
                {
                  "internalType": "uint8",
                  "name": "v",
                  "type": "uint8"
                },
                {
                  "internalType": "bytes32",
                  "name": "r",
                  "type": "bytes32"
                },
                {
                  "internalType": "bytes32",
                  "name": "s",
                  "type": "bytes32"
                }
              ],
              "internalType": "struct PermitData[]",
              "name": "permits",
              "type": "tuple[]"
            },
            {
              "internalType": "bool[]",
              "name": "useTransferFlags",
              "type": "bool[]"
            },
            {
              "internalType": "address",
              "name": "target",
              "type": "address"
            },
            {
              "internalType": "bytes",
              "name": "data",
              "type": "bytes"
            },
            {
              "components": [
                {
                  "components": [
                    {
                      "internalType": "address",
                      "name": "target",
                      "type": "address"
                    },
                    {
                      "internalType": "address",
                      "name": "token",
                      "type": "address"
                    },
                    {
                      "internalType": "int256",
                      "name": "balance",
                      "type": "int256"
                    }
                  ],
                  "internalType": "struct IBalanceProxy.Balance",
                  "name": "balance",
                  "type": "tuple"
                },
                {
                  "internalType": "string",
                  "name": "symbol",
                  "type": "string"
                },
                {
                  "internalType": "uint8",
                  "name": "decimals",
                  "type": "uint8"
                }
              ],
              "internalType": "struct IBalanceProxy.BalanceMetadata[]",
              "name": "withdrawals",
              "type": "tuple[]"
            }
          ],
          "name": "permitAndProxyCallMetadataDiffs",
          "outputs": [
            {
              "internalType": "bytes",
              "name": "",
              "type": "bytes"
            }
          ],
          "stateMutability": "payable",
          "type": "function"
        },
        {
          "stateMutability": "payable",
          "type": "receive"
        }
      ],
      "devdoc": {
        "details": "This contract is used to proxy calls to a target contract with specified balances and approvals",
        "errors": {
          "CallFailed(address,bytes,bytes)": [
            {
              "params": {
                "data": "Data passed to the target contract",
                "returnData": "Return data from the target contract",
                "target": "Target address"
              }
            }
          ],
          "InsufficientBalance(address,address,int256,uint256)": [
            {
              "params": {
                "balance": "Balance",
                "target": "Target address",
                "token": "Token address"
              }
            }
          ],
          "InvalidMetadata(address,string,uint8,string,uint8)": [
            {
              "params": {
                "actualDecimals": "Actual decimals of the token",
                "actualSymbol": "Actual symbol of the token",
                "expectedDecimals": "Expected decimals of the token",
                "expectedSymbol": "Expected symbol of the token",
                "token": "Token address"
              }
            }
          ],
          "InvalidTransferFlagsLength(uint256,uint256)": [
            {
              "params": {
                "approvalsLength": "Length of approvals array",
                "flagsLength": "Length of useTransferFlags array"
              }
            }
          ],
          "MaliciousApproveTarget(address,address)": [
            {
              "params": {
                "target": "Malicious target address",
                "token": "Token address"
              }
            }
          ],
          "ReentrancyGuardReentrantCall()": [
            {
              "details": "Unauthorized reentrant call."
            }
          ],
          "UnexpectedBalanceDiff(address,address,int256,int256)": [
            {
              "params": {
                "actual": "Actual diff",
                "expected": "Expected diff",
                "target": "Target address",
                "token": "Token address"
              }
            }
          ]
        },
        "kind": "dev",
        "methods": {
          "permitAndProxyCall((address,address,int256)[],(address,address,int256)[],(uint256,uint8,bytes32,bytes32)[],bool[],address,bytes,(address,address,int256)[])": {
            "params": {
              "approvals": "Approvals to make before the call",
              "data": "Data to pass to the target contract",
              "permits": "Permit data for each approval",
              "postBalances": "Balances to check after the call",
              "target": "Target contract to call",
              "useTransferFlags": "Flags to determine whether to transfer or approve for each approval",
              "withdrawals": "Withdrawals to make after the call"
            },
            "returns": {
              "_0": "Result of the call"
            }
          }
        },
        "title": "BalanceProxy",
        "version": 1
      },
      "evm": {
        "bytecode": {
          "linkReferences": {},
          "object": "60808060405234601a576001600055612c8a90816100208239f35b600080fdfe6080604052600436101561001b575b361561001957600080fd5b005b60003560e01c80633323a1561461133e5780636a93f9181461110357806387094efb14610e1d5780638742973814610c31578063aba3b64d146108b7578063cc3373441461063d578063ccb583cf146103105763d9bcc7a70361000e5761008136611c5d565b976100969c9b9a9593929c9994979199611f33565b8482036102f7578484036102dd578460005b87898b8885851061026f5750505050505050506000808c60405181819286833781018381520390348a5af19a6100dc611d70565b9b1561024c57505060005b8281106101625750505050505060005b8181106101465750505060005b81811061012a57600160005560405160208082528190610126908201876118cf565b0390f35b8061014061013b6001938587611f23565b612b52565b01610104565b8061015c6101576001938587611f23565b612a9b565b016100f7565b610175610170828488611ebf565b611ecf565b158061022b575b610189575b6001016100e7565b60009060206001600160a01b036101ab826101a585898b611f23565b01611e9b565b60405163095ea7b360e01b81526001600160a01b038b16600482015260248101869052948592604492849291165af191821561021f576001926101f1575b509050610181565b6102119060203d8111610218575b6102098183611546565b810190611dd6565b50386101e9565b503d6101ff565b6040513d6000823e3d90fd5b506001600160a01b0361024460206101a5848789611f23565b16151561017c565b61026b8c8892604051948594630881f24f60e31b865260048601611efd565b0390fd5b610170856102cf926102c9828a896102c48f8f9060019f60206102d59f8861029a936101a592611f23565b9060406102a8888888611f23565b0135926102bb888560ff1d938493611eaf565b93011890612868565b611f23565b95611ebf565b916128f6565b0185906100a8565b505050632aa9338d60e21b60005260045260245260446000fd5b8482633192fb3760e21b60005260045260245260446000fd5b61031936611b40565b9661032d9b999391989a949695929b611f33565b8381036106245783830361060b5760009a8d6103488c611dee565b9c5b8d8d8083106105d457505050508460005b87898b888585106105805750505050505050506000808c60405181819286833781018381520390348a5af19a61038f611d70565b9b1561024c57505060005b8281106104bd5750505050505060005b8181106104935750505060005b8181106103d957600160005560405160208082528190610126908201876118cf565b6104196104086103ef60206101a585878b611e79565b6104026103fd85878b611e79565b611e9b565b906125c3565b6104128386611d46565b5190611e20565b8060ff1d604061042a84868a611e79565b01358060ff1d8091011890808301181061044757506001016103b7565b85935060406104788361046360206101a561026b97898b611e79565b956104726103fd83838b611e79565b97611e79565b0135604051948594637ec440e760e11b865260048601611e4f565b806104a96104a46001938587611e79565b612689565b6104b7610157828587611e79565b016103aa565b6104cb610170828488611ebf565b158061055f575b6104df575b60010161039a565b60009060206001600160a01b036104fb826101a585898b611e79565b60405163095ea7b360e01b81526001600160a01b038b16600482015260248101869052948592604492849291165af191821561021f57600192610541575b5090506104d7565b6105589060203d8111610218576102098183611546565b508d610539565b506001600160a01b0361057860206101a5848789611e79565b1615156104d2565b610170856102cf926102c9828a896105c78f8f9060019f6104a46105cc9f6105a9928991611e79565b6105b960206101a5888888611e79565b9060406102a8888888611e79565b611e79565b01859061035b565b826105fc856104026103fd84866105f660206101a5846106029b60019f611e79565b94611e79565b92611d46565b52018e9061034a565b5050632aa9338d60e21b60005260045260245260446000fd5b8390633192fb3760e21b60005260045260245260446000fd5b61064636611c5d565b9661065a9b999391989a949695929b611f33565b8381036106245783830361060b5760009a8d6106758c611dee565b9c5b8d8d80831061088657505050508460005b87898b888585106108535750505050505050506000808c60405181819286833781018381520390348a5af19a6106bc611d70565b9b1561024c57505060005b8281106107905750505050505060005b8181106107795750505060005b81811061070657600160005560405160208082528190610126908201876118cf565b61072a61040861071c60206101a585878b611f23565b6104026103fd85878b611f23565b6040610737838589611f23565b0135811261074857506001016106e4565b85935060406104788361076460206101a561026b97898b611f23565b956107736103fd83838b611f23565b97611f23565b8061078a6101576001938587611f23565b016106d7565b61079e610170828488611ebf565b1580610832575b6107b2575b6001016106c7565b60009060206001600160a01b036107ce826101a585898b611f23565b60405163095ea7b360e01b81526001600160a01b038b16600482015260248101869052948592604492849291165af191821561021f57600192610814575b5090506107aa565b61082b9060203d8111610218576102098183611546565b508d61080c565b506001600160a01b0361084b60206101a5848789611f23565b1615156107a5565b610170856102cf926102c9828a896102c48f8f9060019f602061087e9f8861029a936101a592611f23565b018590610688565b826105fc856104026103fd84866108a860206101a5846108ae9b60019f611f23565b94611f23565b52018e90610677565b6108c0366119da565b6108cf96919593949296611f33565b8251845190818103610c1a5750508451845190818103610c0357505060008251926108f984611dee565b915b848110610bc3575060005b8651811015610992578061092561091f6001938a611d46565b51612401565b610969828060a01b03602061093a848c611d46565b5151015116604061094b848c611d46565b51510151908160ff1d8061095f868d611d46565b5193011890611f55565b61098c610976828a611d46565b51518c610983848d611d46565b51151591612047565b01610906565b5088969395945087600080825160208401348c5af1906109b0611d70565b9115610ba5575060005b8651811015610a83576109cd8187611d46565b511580610a62575b6109e2575b6001016109ba565b60009060206001600160a01b03816109fa848c611d46565b5151015160405163095ea7b360e01b81526001600160a01b038e16600482015260248101869052948592604492849291165af191821561021f57600192610a44575b5090506109da565b610a5b9060203d8111610218576102098183611546565b508a610a3c565b506001600160a01b036020610a77838a611d46565b515101511615156109d5565b508660005b8551811015610abb5780610aa161091f60019389611d46565b610ab5610aae8289611d46565b51516121c0565b01610a88565b508360005b828110610ae257600160005560405160208082528190610126908201876118cf565b610b27610b1d6001600160a01b036020610afc858a611d46565b51510151166001600160a01b03610b13858a611d46565b51515116906125c3565b6104128385611d46565b6040610b338388611d46565b515101518112610b465750600101610ac0565b85919061026b906040610b886001600160a01b036020610b668789611d46565b5151015116946001600160a01b03610b7e8289611d46565b5151511696611d46565b51510151604051637ec440e760e11b815294859460048601611e4f565b8861026b83604051938493630881f24f60e31b855260048501611da0565b600190610bf26001600160a01b036020610bdd8487611d46565b5151015116838060a01b03610b138487611d46565b610bfc8286611d46565b52016108fb565b632aa9338d60e21b60005260045260245260446000fd5b633192fb3760e21b60005260045260245260446000fd5b610c3a36611b40565b97610c4f9c9b9a9593929c9994979199611f33565b8482036102f7578484036102dd578460005b87898b88858510610dec5750505050505050506000808c60405181819286833781018381520390348a5af19a610c95611d70565b9b1561024c57505060005b828110610d295750505050505060005b818110610d045750505060005b818110610cdf57600160005560405160208082528190610126908201876118cf565b80610cf06104a46001938587611e79565b610cfe61013b828587611e79565b01610cbd565b80610d156104a46001938587611e79565b610d23610157828587611e79565b01610cb0565b610d37610170828488611ebf565b1580610dcb575b610d4b575b600101610ca0565b60009060206001600160a01b03610d67826101a585898b611e79565b60405163095ea7b360e01b81526001600160a01b038b16600482015260248101869052948592604492849291165af191821561021f57600192610dad575b509050610d43565b610dc49060203d8111610218576102098183611546565b508c610da5565b506001600160a01b03610de460206101a5848789611e79565b161515610d3e565b610170856102cf926102c9828a896105c78f8f9060019f6104a4610e159f6105a9928991611e79565b018590610c61565b610e26366117d3565b610e3596919593949296611f33565b8251845190818103610c1a5750508451845190818103610c035750506000825192610e5f84611dee565b915b8481106110c4575060005b8651811015610ed157600190610eb26001600160a01b036020610e8f848c611d46565b510151166040610e9f848c611d46565b510151908160ff1d8061095f868d611d46565b610ecb610ebf828a611d46565b518c610983848d611d46565b01610e6c565b5088969395945087600080825160208401348c5af190610eef611d70565b9115610ba5575060005b8651811015610fc057610f0c8187611d46565b511580610fa0575b610f21575b600101610ef9565b60009060206001600160a01b0381610f39848c611d46565b51015160405163095ea7b360e01b81526001600160a01b038e16600482015260248101869052948592604492849291165af191821561021f57600192610f82575b509050610f19565b610f999060203d8111610218576102098183611546565b508a610f7a565b506001600160a01b036020610fb5838a611d46565b510151161515610f14565b508660005b8551811015610fea5780610fe4610fde60019389611d46565b516121c0565b01610fc5565b508360005b82811061101157600160005560405160208082528190610126908201876118cf565b61104a610b1d6001600160a01b03602061102b858a611d46565b510151166001600160a01b03611041858a611d46565b515116906125c3565b60406110568388611d46565b51015181126110685750600101610fef565b85919061026b9060406110a86001600160a01b0360206110888789611d46565b51015116946001600160a01b0361109f8289611d46565b51511696611d46565b510151604051637ec440e760e11b815294859460048601611e4f565b6001906110f26001600160a01b0360206110de8487611d46565b51015116838060a01b036110418487611d46565b6110fc8286611d46565b5201610e61565b61110c366119da565b61111b96919593949296611f33565b8251845190818103610c1a5750508451845190818103610c0357505060005b84518110156111ad578061115361091f60019388611d46565b61118d828060a01b036020611168848a611d46565b51510151166040611179848a611d46565b51510151908160ff1d8061095f868b611d46565b6111a761119a8288611d46565b51518a610983848b611d46565b0161113a565b87838688858b600080825160208401348a5af1906111c9611d70565b9115611320575060005b845181101561129c576111e68185611d46565b51158061127b575b6111fb575b6001016111d3565b60009060206001600160a01b0381611213848a611d46565b5151015160405163095ea7b360e01b81526001600160a01b038c16600482015260248101869052948592604492849291165af191821561021f5760019261125d575b5090506111f3565b6112749060203d8111610218576102098183611546565b5088611255565b506001600160a01b0360206112908388611d46565b515101511615156111ee565b508460005b83518110156112cd57806112ba61091f60019387611d46565b6112c7610aae8287611d46565b016112a1565b509060005b825181101561130557806112eb61091f60019386611d46565b6112ff6112f88286611d46565b5151612256565b016112d2565b600160005560405160208082528190610126908201856118cf565b8661026b83604051938493630881f24f60e31b855260048501611da0565b611347366117d3565b61135696919593949296611f33565b8251845190818103610c1a5750508451845190818103610c0357505060005b84518110156113da576001906113bb6001600160a01b036020611398848a611d46565b5101511660406113a8848a611d46565b510151908160ff1d8061095f868b611d46565b6113d46113c88288611d46565b518a610983848b611d46565b01611375565b87838688858b600080825160208401348a5af1906113f6611d70565b9115611320575060005b84518110156114c7576114138185611d46565b5115806114a7575b611428575b600101611400565b60009060206001600160a01b0381611440848a611d46565b51015160405163095ea7b360e01b81526001600160a01b038c16600482015260248101869052948592604492849291165af191821561021f57600192611489575b509050611420565b6114a09060203d8111610218576102098183611546565b5088611481565b506001600160a01b0360206114bc8388611d46565b51015116151561141b565b508460005b83518110156114eb57806114e5610fde60019387611d46565b016114cc565b509060005b8251811015611305578061150f61150960019386611d46565b51612256565b016114f0565b606081019081106001600160401b0382111761153057604052565b634e487b7160e01b600052604160045260246000fd5b90601f801991011681019081106001600160401b0382111761153057604052565b6001600160401b0381116115305760051b60200190565b35906001600160a01b038216820361159257565b600080fd5b9190826060910312611592576040516115af81611515565b60408082946115bd8161157e565b84526115cb6020820161157e565b60208501520135910152565b81601f820112156115925780356115ed81611567565b926115fb6040519485611546565b8184526020606081860193028401019281841161159257602001915b838310611625575050505090565b60206060916116348486611597565b815201920191611617565b359060ff8216820361159257565b81601f820112156115925780359061166482611567565b926116726040519485611546565b82845260208085019360071b8301019181831161159257602001925b82841061169c575050505090565b608084830312611592576040519060808201908282106001600160401b0383111761153057608092602092604052863581526116d983880161163f565b83820152604087013560408201526060870135606082015281520193019261168e565b9080601f830112156115925781359061171482611567565b926117226040519485611546565b82845260208085019360051b82010191821161159257602001915b81831061174a5750505090565b823580151581036115925781526020928301920161173d565b6001600160401b03811161153057601f01601f191660200190565b92919261178a82611763565b916117986040519384611546565b829481845281830111611592578281602093846000960137010152565b9080601f83011215611592578160206117d09335910161177e565b90565b60e0600319820112611592576004356001600160401b03811161159257816117fd916004016115d7565b916024356001600160401b038111611592578261181c916004016115d7565b916044356001600160401b038111611592578161183b9160040161164d565b916064356001600160401b038111611592578261185a916004016116fc565b916084356001600160a01b0381168103611592579160a4356001600160401b038111611592578261188d916004016117b5565b9160c435906001600160401b038211611592576117d0916004016115d7565b60005b8381106118bf5750506000910152565b81810151838201526020016118af565b906020916118e8815180928185528580860191016118ac565b601f01601f1916010190565b9080601f830112156115925781359161190c83611567565b9261191a6040519485611546565b80845260208085019160051b830101918383116115925760208101915b83831061194657505050505090565b82356001600160401b0381116115925782019060a0828703601f190112611592576040519061197482611515565b6119818760208501611597565b825260808301356001600160401b038111611592576020908401019187601f84011215611592576119ca60a06020956119c08b8789809935910161177e565b868501520161163f565b6040820152815201920191611937565b60e0600319820112611592576004356001600160401b0381116115925781611a04916004016118f4565b916024356001600160401b0381116115925782611a23916004016118f4565b916044356001600160401b0381116115925781611a429160040161164d565b916064356001600160401b0381116115925782611a61916004016116fc565b916084356001600160a01b0381168103611592579160a4356001600160401b0381116115925782611a94916004016117b5565b9160c435906001600160401b038211611592576117d0916004016118f4565b9181601f84011215611592578235916001600160401b038311611592576020808501948460051b01011161159257565b9181601f84011215611592578235916001600160401b038311611592576020808501948460071b01011161159257565b9181601f84011215611592578235916001600160401b038311611592576020838186019501011161159257565b9060e0600319830112611592576004356001600160401b0381116115925782611b6b91600401611ab3565b929092916024356001600160401b0381116115925782611b8d91600401611ab3565b929092916044356001600160401b0381116115925782611baf91600401611ae3565b929092916064356001600160401b0381116115925782611bd191600401611ab3565b909290916084356001600160a01b0381168103611592579160a4356001600160401b0381116115925781611c0791600401611b13565b9290929160c435906001600160401b03821161159257611c2991600401611ab3565b9091565b9181601f84011215611592578235916001600160401b038311611592576020808501946060850201011161159257565b9060e0600319830112611592576004356001600160401b0381116115925782611c8891600401611c2d565b929092916024356001600160401b0381116115925782611caa91600401611c2d565b929092916044356001600160401b0381116115925782611ccc91600401611ae3565b929092916064356001600160401b0381116115925782611cee91600401611ab3565b909290916084356001600160a01b0381168103611592579160a4356001600160401b0381116115925781611d2491600401611b13565b9290929160c435906001600160401b03821161159257611c2991600401611c2d565b8051821015611d5a5760209160051b010190565b634e487b7160e01b600052603260045260246000fd5b3d15611d9b573d90611d8182611763565b91611d8f6040519384611546565b82523d6000602084013e565b606090565b6001600160a01b0390911681526060602082018190526117d0939192611dc8918401906118cf565b9160408184039101526118cf565b90816020910312611592575180151581036115925790565b90611df882611567565b611e056040519182611546565b8281528092611e16601f1991611567565b0190602036910137565b81810392916000138015828513169184121617611e3957565b634e487b7160e01b600052601160045260246000fd5b6001600160a01b039182168152911660208201526040810191909152606081019190915260800190565b9190811015611d5a5760051b81013590609e1981360301821215611592570190565b356001600160a01b03811681036115925790565b9190811015611d5a5760071b0190565b9190811015611d5a5760051b0190565b3580151581036115925790565b908060209392818452848401376000828201840152601f01601f1916010190565b92916117d09492611dc89260018060a01b03168552606060208601526060850191611edc565b9190811015611d5a576060020190565b600260005414611f44576002600055565b633ee5aeb560e01b60005260046000fd5b6000926001600160a01b03909116918215612041578151801561203a57804211612028575081519060ff602084015116926060604082015191015190853b156120245760405163d505accf60e01b81523360048201523060248201526044810193909352606483019390935260ff909316608482015260a481019190915260c481019190915282818060e481015b038183865af19081612010575b5061200c57631bfbc84f60e21b82523360045260245260449150fd5b5050565b8361201d91949294611546565b9138611ff0565b8680fd5b639e96b26f60e01b8552600452602484fd5b5050505050565b50505050565b602081018051909392906001600160a01b0316801561203a5782516001600160a01b03908116921682036121a957505082516040828101805191516323b872dd60e01b815233600482015230602482015260ff83901d92830190921860448301529490939291602090859060649082906000906001600160a01b03165af192831561021f5760209460009461218e575b50831461214a57519051935160405163a9059cbb60e01b81526001600160a01b03958616600482015260ff82901d9182019091186024820152938492911690829081604481015b03925af1801561021f5761212f5750565b6121479060203d602011610218576102098183611546565b50565b519051935160405163095ea7b360e01b81526001600160a01b03958616600482015260ff82901d91820190911860248201529384929116908290816044810161211e565b6121a490863d8811610218576102098183611546565b6120d7565b635876e71160e01b60005260045260245260446000fd5b60208101516001600160a01b0316806122105750600080808093604060018060a01b03825116910151908160ff1d809201918392818114612206575b1891f11561021f57565b6108fc93506121fc565b8151604092830151925163a9059cbb60e01b81526001600160a01b03909116600482015260ff83901d92830190921860248301526020908290816000816044810161211e565b6020810180519091906000906001600160a01b0316806122c757505080516001600160a01b0316315b6040820151928360ff1d8085011882106122995750505050565b51915160405163d87031f960e01b815293849361026b93926001600160a01b03908116911660048601611e4f565b602060018060a01b038451166024604051809481936370a0823160e01b835260048301525afa91821561233a578092612302575b505061227f565b9091506020823d602011612332575b8161231e60209383611546565b8101031261232f57505138806122fb565b80fd5b3d9150612311565b604051903d90823e3d90fd5b602081830312611592578051906001600160401b038211611592570181601f8201121561159257805161237881611763565b926123866040519485611546565b81845260208284010111611592576117d091602080850191016118ac565b90816020910312611592575160ff811681036115925790565b604051906123cc604083611546565b600382526208aa8960eb1b6020830152565b6020815191015190602081106123f2575090565b6000199060200360031b1b1690565b8051602001516001600160a01b03168061250b575061241e6123bd565b60125b61245460405161244f602082865161243e81848401858b016118ac565b81010301601f198101835282611546565b6123de565b91602084019261247b845161244f60206040518361243e82955180928580860191016118ac565b148015906124f7575b61248e5750505050565b6124ec60ff9182604060018060a01b0360208951015116965197015116906124d5604051978897635591851960e01b8952600489015260a0602489015260a48801906118cf565b9160448701526003198683030160648701526118cf565b911660848301520390fd5b5060ff60408501511660ff83161415612484565b6000600491604051928380926395d89b4160e01b82525afa90811561021f576000916125a0575b50815160209081015160405163313ce56760e01b81529190829060049082906001600160a01b03165afa90811561021f57600091612571575b50612421565b612593915060203d602011612599575b61258b8183611546565b8101906123a4565b3861256b565b503d612581565b6125bd91503d806000833e6125b58183611546565b810190612346565b38612532565b6000906001600160a01b0316806125da5750503190565b6040516370a0823160e01b81526001600160a01b039093166004840152909190602090829060249082905afa91821561233a57809261261857505090565b9091506020823d602011612641575b8161263460209383611546565b8101031261232f57505190565b3d9150612627565b903590601e198136030182121561159257018035906001600160401b0382116115925760200191813603831361159257565b3560ff811681036115925790565b60208101906001600160a01b0361269f83611e9b565b166127b5576126ac6123bd565b906012915b60405160208101906126ce602082855161243e8187858a016118ac565b5190209360608301946126e18685612649565b612709602060405183819483830196873781016000838201520301601f198101835282611546565b5190201480159061279a575b612720575050505050565b60809550916124ec9160ff61278261274e61274561273e8498611e9b565b9986612649565b9a90950161267b565b604051635591851960e01b81526001600160a01b0390991660048a015260a060248a0152979889989460a48a019190611edc565b921660448701528582036003190160648701526118cf565b5060ff6127a96080850161267b565b1660ff85161415612715565b600460006001600160a01b036127ca85611e9b565b16604051928380926395d89b4160e01b82525afa90811561021f5760009161284d575b5090600460206001600160a01b0361280486611e9b565b166040519283809263313ce56760e01b82525afa90811561021f5760009161282e575b50916126b1565b612847915060203d6020116125995761258b8183611546565b38612827565b61286291503d806000833e6125b58183611546565b386127ed565b6000926001600160a01b0390911691908215612041578035801561203a57804211612028576128996020830161267b565b91843b156128f2576040805163d505accf60e01b81523360048201523060248201526044810195909552606485019290925260ff909216608484015281013560a48301526060013560c482015282818060e48101611fe3565b8580fd5b9060208201906001600160a01b0361290d83611e9b565b16156120415761291c83611e9b565b6001600160a01b03918216911603612a64576001600160a01b0361293f82611e9b565b604080516323b872dd60e01b81523360048201523060248201529085013560ff81901d90810118604482018190529592909160209183916064918391600091165af1801561021f57612a47575b50156129f05761211e9260209290916129b8906001600160a01b03906129b190611e9b565b1691611e9b565b60405163a9059cbb60e01b81526001600160a01b03909116600482015260248101929092529092839190829060009082906044820190565b61211e926020929091612a0f906001600160a01b03906129b190611e9b565b60405163095ea7b360e01b81526001600160a01b03909116600482015260248101929092529092839190829060009082906044820190565b612a5f9060203d602011610218576102098183611546565b61298c565b612a70612a7691611e9b565b91611e9b565b635876e71160e01b60009081526001600160a01b039283166004529116602452604490fd5b602081016001600160a01b03612ab082611e9b565b16612af2575060009081908190819060406001600160a01b03612ad283611e9b565b16910135908160ff1d809201918392818114612206571891f11561021f57565b6020906000906001600160a01b0390612b0a90611e9b565b166040612b1685611e9b565b60405163a9059cbb60e01b81526001600160a01b03909116600482015294013560ff81901d90810118602485015283918290816044810161211e565b60208101906001600160a01b03612b6883611e9b565b60009116612bc65750612b7a81611e9b565b315b6040820135928360ff1d808501188210612b965750505050565b90612bac612ba661026b93611e9b565b93611e9b565b9360405194859463d87031f960e01b865260048601611e4f565b6001600160a01b03612bd784611e9b565b166020612be384611e9b565b6040516370a0823160e01b81526001600160a01b03909116600482015291829060249082905afa91821561233a578092612c1f575b5050612b7c565b9091506020823d602011612c4c575b81612c3b60209383611546565b8101031261232f5750513880612c18565b3d9150612c2e56fea2646970667358221220e00c17871356ec4e8243b92c5dd8a65eb712ab9bee0d6ba4fe120373c8a39e5b64736f6c634300081b0033",
          "opcodes": "PUSH1 0x80 DUP1 PUSH1 0x40 MSTORE CALLVALUE PUSH1 0x1A JUMPI PUSH1 0x1 PUSH1 0x0 SSTORE PUSH2 0x2C8A SWAP1 DUP2 PUSH2 0x20 DUP3 CODECOPY RETURN JUMPDEST PUSH1 0x0 DUP1 REVERT INVALID PUSH1 0x80 PUSH1 0x40 MSTORE PUSH1 0x4 CALLDATASIZE LT ISZERO PUSH2 0x1B JUMPI JUMPDEST CALLDATASIZE ISZERO PUSH2 0x19 JUMPI PUSH1 0x0 DUP1 REVERT JUMPDEST STOP JUMPDEST PUSH1 0x0 CALLDATALOAD PUSH1 0xE0 SHR DUP1 PUSH4 0x3323A156 EQ PUSH2 0x133E JUMPI DUP1 PUSH4 0x6A93F918 EQ PUSH2 0x1103 JUMPI DUP1 PUSH4 0x87094EFB EQ PUSH2 0xE1D JUMPI DUP1 PUSH4 0x87429738 EQ PUSH2 0xC31 JUMPI DUP1 PUSH4 0xABA3B64D EQ PUSH2 0x8B7 JUMPI DUP1 PUSH4 0xCC337344 EQ PUSH2 0x63D JUMPI DUP1 PUSH4 0xCCB583CF EQ PUSH2 0x310 JUMPI PUSH4 0xD9BCC7A7 SUB PUSH2 0xE JUMPI PUSH2 0x81 CALLDATASIZE PUSH2 0x1C5D JUMP JUMPDEST SWAP8 PUSH2 0x96 SWAP13 SWAP12 SWAP11 SWAP6 SWAP4 SWAP3 SWAP13 SWAP10 SWAP5 SWAP8 SWAP2 SWAP10 PUSH2 0x1F33 JUMP JUMPDEST DUP5 DUP3 SUB PUSH2 0x2F7 JUMPI DUP5 DUP5 SUB PUSH2 0x2DD JUMPI DUP5 PUSH1 0x0 JUMPDEST DUP8 DUP10 DUP12 DUP9 DUP6 DUP6 LT PUSH2 0x26F JUMPI POP POP POP POP POP POP POP POP PUSH1 0x0 DUP1 DUP13 PUSH1 0x40 MLOAD DUP2 DUP2 SWAP3 DUP7 DUP4 CALLDATACOPY DUP2 ADD DUP4 DUP2 MSTORE SUB SWAP1 CALLVALUE DUP11 GAS CALL SWAP11 PUSH2 0xDC PUSH2 0x1D70 JUMP JUMPDEST SWAP12 ISZERO PUSH2 0x24C JUMPI POP POP PUSH1 0x0 JUMPDEST DUP3 DUP2 LT PUSH2 0x162 JUMPI POP POP POP POP POP POP PUSH1 0x0 JUMPDEST DUP2 DUP2 LT PUSH2 0x146 JUMPI POP POP POP PUSH1 0x0 JUMPDEST DUP2 DUP2 LT PUSH2 0x12A JUMPI PUSH1 0x1 PUSH1 0x0 SSTORE PUSH1 0x40 MLOAD PUSH1 0x20 DUP1 DUP3 MSTORE DUP2 SWAP1 PUSH2 0x126 SWAP1 DUP3 ADD DUP8 PUSH2 0x18CF JUMP JUMPDEST SUB SWAP1 RETURN JUMPDEST DUP1 PUSH2 0x140 PUSH2 0x13B PUSH1 0x1 SWAP4 DUP6 DUP8 PUSH2 0x1F23 JUMP JUMPDEST PUSH2 0x2B52 JUMP JUMPDEST ADD PUSH2 0x104 JUMP JUMPDEST DUP1 PUSH2 0x15C PUSH2 0x157 PUSH1 0x1 SWAP4 DUP6 DUP8 PUSH2 0x1F23 JUMP JUMPDEST PUSH2 0x2A9B JUMP JUMPDEST ADD PUSH2 0xF7 JUMP JUMPDEST PUSH2 0x175 PUSH2 0x170 DUP3 DUP5 DUP9 PUSH2 0x1EBF JUMP JUMPDEST PUSH2 0x1ECF JUMP JUMPDEST ISZERO DUP1 PUSH2 0x22B JUMPI JUMPDEST PUSH2 0x189 JUMPI JUMPDEST PUSH1 0x1 ADD PUSH2 0xE7 JUMP JUMPDEST PUSH1 0x0 SWAP1 PUSH1 0x20 PUSH1 0x1 PUSH1 0x1 PUSH1 0xA0 SHL SUB PUSH2 0x1AB DUP3 PUSH2 0x1A5 DUP6 DUP10 DUP12 PUSH2 0x1F23 JUMP JUMPDEST ADD PUSH2 0x1E9B JUMP JUMPDEST PUSH1 0x40 MLOAD PUSH4 0x95EA7B3 PUSH1 0xE0 SHL DUP2 MSTORE PUSH1 0x1 PUSH1 0x1 PUSH1 0xA0 SHL SUB DUP12 AND PUSH1 0x4 DUP3 ADD MSTORE PUSH1 0x24 DUP2 ADD DUP7 SWAP1 MSTORE SWAP5 DUP6 SWAP3 PUSH1 0x44 SWAP3 DUP5 SWAP3 SWAP2 AND GAS CALL SWAP2 DUP3 ISZERO PUSH2 0x21F JUMPI PUSH1 0x1 SWAP3 PUSH2 0x1F1 JUMPI JUMPDEST POP SWAP1 POP PUSH2 0x181 JUMP JUMPDEST PUSH2 0x211 SWAP1 PUSH1 0x20 RETURNDATASIZE DUP2 GT PUSH2 0x218 JUMPI JUMPDEST PUSH2 0x209 DUP2 DUP4 PUSH2 0x1546 JUMP JUMPDEST DUP2 ADD SWAP1 PUSH2 0x1DD6 JUMP JUMPDEST POP CODESIZE PUSH2 0x1E9 JUMP JUMPDEST POP RETURNDATASIZE PUSH2 0x1FF JUMP JUMPDEST PUSH1 0x40 MLOAD RETURNDATASIZE PUSH1 0x0 DUP3 RETURNDATACOPY RETURNDATASIZE SWAP1 REVERT JUMPDEST POP PUSH1 0x1 PUSH1 0x1 PUSH1 0xA0 SHL SUB PUSH2 0x244 PUSH1 0x20 PUSH2 0x1A5 DUP5 DUP8 DUP10 PUSH2 0x1F23 JUMP JUMPDEST AND ISZERO ISZERO PUSH2 0x17C JUMP JUMPDEST PUSH2 0x26B DUP13 DUP9 SWAP3 PUSH1 0x40 MLOAD SWAP5 DUP6 SWAP5 PUSH4 0x881F24F PUSH1 0xE3 SHL DUP7 MSTORE PUSH1 0x4 DUP7 ADD PUSH2 0x1EFD JUMP JUMPDEST SUB SWAP1 REVERT JUMPDEST PUSH2 0x170 DUP6 PUSH2 0x2CF SWAP3 PUSH2 0x2C9 DUP3 DUP11 DUP10 PUSH2 0x2C4 DUP16 DUP16 SWAP1 PUSH1 0x1 SWAP16 PUSH1 0x20 PUSH2 0x2D5 SWAP16 DUP9 PUSH2 0x29A SWAP4 PUSH2 0x1A5 SWAP3 PUSH2 0x1F23 JUMP JUMPDEST SWAP1 PUSH1 0x40 PUSH2 0x2A8 DUP9 DUP9 DUP9 PUSH2 0x1F23 JUMP JUMPDEST ADD CALLDATALOAD SWAP3 PUSH2 0x2BB DUP9 DUP6 PUSH1 0xFF SAR SWAP4 DUP5 SWAP4 PUSH2 0x1EAF JUMP JUMPDEST SWAP4 ADD XOR SWAP1 PUSH2 0x2868 JUMP JUMPDEST PUSH2 0x1F23 JUMP JUMPDEST SWAP6 PUSH2 0x1EBF JUMP JUMPDEST SWAP2 PUSH2 0x28F6 JUMP JUMPDEST ADD DUP6 SWAP1 PUSH2 0xA8 JUMP JUMPDEST POP POP POP PUSH4 0x2AA9338D PUSH1 0xE2 SHL PUSH1 0x0 MSTORE PUSH1 0x4 MSTORE PUSH1 0x24 MSTORE PUSH1 0x44 PUSH1 0x0 REVERT JUMPDEST DUP5 DUP3 PUSH4 0x3192FB37 PUSH1 0xE2 SHL PUSH1 0x0 MSTORE PUSH1 0x4 MSTORE PUSH1 0x24 MSTORE PUSH1 0x44 PUSH1 0x0 REVERT JUMPDEST PUSH2 0x319 CALLDATASIZE PUSH2 0x1B40 JUMP JUMPDEST SWAP7 PUSH2 0x32D SWAP12 SWAP10 SWAP4 SWAP2 SWAP9 SWAP11 SWAP5 SWAP7 SWAP6 SWAP3 SWAP12 PUSH2 0x1F33 JUMP JUMPDEST DUP4 DUP2 SUB PUSH2 0x624 JUMPI DUP4 DUP4 SUB PUSH2 0x60B JUMPI PUSH1 0x0 SWAP11 DUP14 PUSH2 0x348 DUP13 PUSH2 0x1DEE JUMP JUMPDEST SWAP13 JUMPDEST DUP14 DUP14 DUP1 DUP4 LT PUSH2 0x5D4 JUMPI POP POP POP POP DUP5 PUSH1 0x0 JUMPDEST DUP8 DUP10 DUP12 DUP9 DUP6 DUP6 LT PUSH2 0x580 JUMPI POP POP POP POP POP POP POP POP PUSH1 0x0 DUP1 DUP13 PUSH1 0x40 MLOAD DUP2 DUP2 SWAP3 DUP7 DUP4 CALLDATACOPY DUP2 ADD DUP4 DUP2 MSTORE SUB SWAP1 CALLVALUE DUP11 GAS CALL SWAP11 PUSH2 0x38F PUSH2 0x1D70 JUMP JUMPDEST SWAP12 ISZERO PUSH2 0x24C JUMPI POP POP PUSH1 0x0 JUMPDEST DUP3 DUP2 LT PUSH2 0x4BD JUMPI POP POP POP POP POP POP PUSH1 0x0 JUMPDEST DUP2 DUP2 LT PUSH2 0x493 JUMPI POP POP POP PUSH1 0x0 JUMPDEST DUP2 DUP2 LT PUSH2 0x3D9 JUMPI PUSH1 0x1 PUSH1 0x0 SSTORE PUSH1 0x40 MLOAD PUSH1 0x20 DUP1 DUP3 MSTORE DUP2 SWAP1 PUSH2 0x126 SWAP1 DUP3 ADD DUP8 PUSH2 0x18CF JUMP JUMPDEST PUSH2 0x419 PUSH2 0x408 PUSH2 0x3EF PUSH1 0x20 PUSH2 0x1A5 DUP6 DUP8 DUP12 PUSH2 0x1E79 JUMP JUMPDEST PUSH2 0x402 PUSH2 0x3FD DUP6 DUP8 DUP12 PUSH2 0x1E79 JUMP JUMPDEST PUSH2 0x1E9B JUMP JUMPDEST SWAP1 PUSH2 0x25C3 JUMP JUMPDEST PUSH2 0x412 DUP4 DUP7 PUSH2 0x1D46 JUMP JUMPDEST MLOAD SWAP1 PUSH2 0x1E20 JUMP JUMPDEST DUP1 PUSH1 0xFF SAR PUSH1 0x40 PUSH2 0x42A DUP5 DUP7 DUP11 PUSH2 0x1E79 JUMP JUMPDEST ADD CALLDATALOAD DUP1 PUSH1 0xFF SAR DUP1 SWAP2 ADD XOR SWAP1 DUP1 DUP4 ADD XOR LT PUSH2 0x447 JUMPI POP PUSH1 0x1 ADD PUSH2 0x3B7 JUMP JUMPDEST DUP6 SWAP4 POP PUSH1 0x40 PUSH2 0x478 DUP4 PUSH2 0x463 PUSH1 0x20 PUSH2 0x1A5 PUSH2 0x26B SWAP8 DUP10 DUP12 PUSH2 0x1E79 JUMP JUMPDEST SWAP6 PUSH2 0x472 PUSH2 0x3FD DUP4 DUP4 DUP12 PUSH2 0x1E79 JUMP JUMPDEST SWAP8 PUSH2 0x1E79 JUMP JUMPDEST ADD CALLDATALOAD PUSH1 0x40 MLOAD SWAP5 DUP6 SWAP5 PUSH4 0x7EC440E7 PUSH1 0xE1 SHL DUP7 MSTORE PUSH1 0x4 DUP7 ADD PUSH2 0x1E4F JUMP JUMPDEST DUP1 PUSH2 0x4A9 PUSH2 0x4A4 PUSH1 0x1 SWAP4 DUP6 DUP8 PUSH2 0x1E79 JUMP JUMPDEST PUSH2 0x2689 JUMP JUMPDEST PUSH2 0x4B7 PUSH2 0x157 DUP3 DUP6 DUP8 PUSH2 0x1E79 JUMP JUMPDEST ADD PUSH2 0x3AA JUMP JUMPDEST PUSH2 0x4CB PUSH2 0x170 DUP3 DUP5 DUP9 PUSH2 0x1EBF JUMP JUMPDEST ISZERO DUP1 PUSH2 0x55F JUMPI JUMPDEST PUSH2 0x4DF JUMPI JUMPDEST PUSH1 0x1 ADD PUSH2 0x39A JUMP JUMPDEST PUSH1 0x0 SWAP1 PUSH1 0x20 PUSH1 0x1 PUSH1 0x1 PUSH1 0xA0 SHL SUB PUSH2 0x4FB DUP3 PUSH2 0x1A5 DUP6 DUP10 DUP12 PUSH2 0x1E79 JUMP JUMPDEST PUSH1 0x40 MLOAD PUSH4 0x95EA7B3 PUSH1 0xE0 SHL DUP2 MSTORE PUSH1 0x1 PUSH1 0x1 PUSH1 0xA0 SHL SUB DUP12 AND PUSH1 0x4 DUP3 ADD MSTORE PUSH1 0x24 DUP2 ADD DUP7 SWAP1 MSTORE SWAP5 DUP6 SWAP3 PUSH1 0x44 SWAP3 DUP5 SWAP3 SWAP2 AND GAS CALL SWAP2 DUP3 ISZERO PUSH2 0x21F JUMPI PUSH1 0x1 SWAP3 PUSH2 0x541 JUMPI JUMPDEST POP SWAP1 POP PUSH2 0x4D7 JUMP JUMPDEST PUSH2 0x558 SWAP1 PUSH1 0x20 RETURNDATASIZE DUP2 GT PUSH2 0x218 JUMPI PUSH2 0x209 DUP2 DUP4 PUSH2 0x1546 JUMP JUMPDEST POP DUP14 PUSH2 0x539 JUMP JUMPDEST POP PUSH1 0x1 PUSH1 0x1 PUSH1 0xA0 SHL SUB PUSH2 0x578 PUSH1 0x20 PUSH2 0x1A5 DUP5 DUP8 DUP10 PUSH2 0x1E79 JUMP JUMPDEST AND ISZERO ISZERO PUSH2 0x4D2 JUMP JUMPDEST PUSH2 0x170 DUP6 PUSH2 0x2CF SWAP3 PUSH2 0x2C9 DUP3 DUP11 DUP10 PUSH2 0x5C7 DUP16 DUP16 SWAP1 PUSH1 0x1 SWAP16 PUSH2 0x4A4 PUSH2 0x5CC SWAP16 PUSH2 0x5A9 SWAP3 DUP10 SWAP2 PUSH2 0x1E79 JUMP JUMPDEST PUSH2 0x5B9 PUSH1 0x20 PUSH2 0x1A5 DUP9 DUP9 DUP9 PUSH2 0x1E79 JUMP JUMPDEST SWAP1 PUSH1 0x40 PUSH2 0x2A8 DUP9 DUP9 DUP9 PUSH2 0x1E79 JUMP JUMPDEST PUSH2 0x1E79 JUMP JUMPDEST ADD DUP6 SWAP1 PUSH2 0x35B JUMP JUMPDEST DUP3 PUSH2 0x5FC DUP6 PUSH2 0x402 PUSH2 0x3FD DUP5 DUP7 PUSH2 0x5F6 PUSH1 0x20 PUSH2 0x1A5 DUP5 PUSH2 0x602 SWAP12 PUSH1 0x1 SWAP16 PUSH2 0x1E79 JUMP JUMPDEST SWAP5 PUSH2 0x1E79 JUMP JUMPDEST SWAP3 PUSH2 0x1D46 JUMP JUMPDEST MSTORE ADD DUP15 SWAP1 PUSH2 0x34A JUMP JUMPDEST POP POP PUSH4 0x2AA9338D PUSH1 0xE2 SHL PUSH1 0x0 MSTORE PUSH1 0x4 MSTORE PUSH1 0x24 MSTORE PUSH1 0x44 PUSH1 0x0 REVERT JUMPDEST DUP4 SWAP1 PUSH4 0x3192FB37 PUSH1 0xE2 SHL PUSH1 0x0 MSTORE PUSH1 0x4 MSTORE PUSH1 0x24 MSTORE PUSH1 0x44 PUSH1 0x0 REVERT JUMPDEST PUSH2 0x646 CALLDATASIZE PUSH2 0x1C5D JUMP JUMPDEST SWAP7 PUSH2 0x65A SWAP12 SWAP10 SWAP4 SWAP2 SWAP9 SWAP11 SWAP5 SWAP7 SWAP6 SWAP3 SWAP12 PUSH2 0x1F33 JUMP JUMPDEST DUP4 DUP2 SUB PUSH2 0x624 JUMPI DUP4 DUP4 SUB PUSH2 0x60B JUMPI PUSH1 0x0 SWAP11 DUP14 PUSH2 0x675 DUP13 PUSH2 0x1DEE JUMP JUMPDEST SWAP13 JUMPDEST DUP14 DUP14 DUP1 DUP4 LT PUSH2 0x886 JUMPI POP POP POP POP DUP5 PUSH1 0x0 JUMPDEST DUP8 DUP10 DUP12 DUP9 DUP6 DUP6 LT PUSH2 0x853 JUMPI POP POP POP POP POP POP POP POP PUSH1 0x0 DUP1 DUP13 PUSH1 0x40 MLOAD DUP2 DUP2 SWAP3 DUP7 DUP4 CALLDATACOPY DUP2 ADD DUP4 DUP2 MSTORE SUB SWAP1 CALLVALUE DUP11 GAS CALL SWAP11 PUSH2 0x6BC PUSH2 0x1D70 JUMP JUMPDEST SWAP12 ISZERO PUSH2 0x24C JUMPI POP POP PUSH1 0x0 JUMPDEST DUP3 DUP2 LT PUSH2 0x790 JUMPI POP POP POP POP POP POP PUSH1 0x0 JUMPDEST DUP2 DUP2 LT PUSH2 0x779 JUMPI POP POP POP PUSH1 0x0 JUMPDEST DUP2 DUP2 LT PUSH2 0x706 JUMPI PUSH1 0x1 PUSH1 0x0 SSTORE PUSH1 0x40 MLOAD PUSH1 0x20 DUP1 DUP3 MSTORE DUP2 SWAP1 PUSH2 0x126 SWAP1 DUP3 ADD DUP8 PUSH2 0x18CF JUMP JUMPDEST PUSH2 0x72A PUSH2 0x408 PUSH2 0x71C PUSH1 0x20 PUSH2 0x1A5 DUP6 DUP8 DUP12 PUSH2 0x1F23 JUMP JUMPDEST PUSH2 0x402 PUSH2 0x3FD DUP6 DUP8 DUP12 PUSH2 0x1F23 JUMP JUMPDEST PUSH1 0x40 PUSH2 0x737 DUP4 DUP6 DUP10 PUSH2 0x1F23 JUMP JUMPDEST ADD CALLDATALOAD DUP2 SLT PUSH2 0x748 JUMPI POP PUSH1 0x1 ADD PUSH2 0x6E4 JUMP JUMPDEST DUP6 SWAP4 POP PUSH1 0x40 PUSH2 0x478 DUP4 PUSH2 0x764 PUSH1 0x20 PUSH2 0x1A5 PUSH2 0x26B SWAP8 DUP10 DUP12 PUSH2 0x1F23 JUMP JUMPDEST SWAP6 PUSH2 0x773 PUSH2 0x3FD DUP4 DUP4 DUP12 PUSH2 0x1F23 JUMP JUMPDEST SWAP8 PUSH2 0x1F23 JUMP JUMPDEST DUP1 PUSH2 0x78A PUSH2 0x157 PUSH1 0x1 SWAP4 DUP6 DUP8 PUSH2 0x1F23 JUMP JUMPDEST ADD PUSH2 0x6D7 JUMP JUMPDEST PUSH2 0x79E PUSH2 0x170 DUP3 DUP5 DUP9 PUSH2 0x1EBF JUMP JUMPDEST ISZERO DUP1 PUSH2 0x832 JUMPI JUMPDEST PUSH2 0x7B2 JUMPI JUMPDEST PUSH1 0x1 ADD PUSH2 0x6C7 JUMP JUMPDEST PUSH1 0x0 SWAP1 PUSH1 0x20 PUSH1 0x1 PUSH1 0x1 PUSH1 0xA0 SHL SUB PUSH2 0x7CE DUP3 PUSH2 0x1A5 DUP6 DUP10 DUP12 PUSH2 0x1F23 JUMP JUMPDEST PUSH1 0x40 MLOAD PUSH4 0x95EA7B3 PUSH1 0xE0 SHL DUP2 MSTORE PUSH1 0x1 PUSH1 0x1 PUSH1 0xA0 SHL SUB DUP12 AND PUSH1 0x4 DUP3 ADD MSTORE PUSH1 0x24 DUP2 ADD DUP7 SWAP1 MSTORE SWAP5 DUP6 SWAP3 PUSH1 0x44 SWAP3 DUP5 SWAP3 SWAP2 AND GAS CALL SWAP2 DUP3 ISZERO PUSH2 0x21F JUMPI PUSH1 0x1 SWAP3 PUSH2 0x814 JUMPI JUMPDEST POP SWAP1 POP PUSH2 0x7AA JUMP JUMPDEST PUSH2 0x82B SWAP1 PUSH1 0x20 RETURNDATASIZE DUP2 GT PUSH2 0x218 JUMPI PUSH2 0x209 DUP2 DUP4 PUSH2 0x1546 JUMP JUMPDEST POP DUP14 PUSH2 0x80C JUMP JUMPDEST POP PUSH1 0x1 PUSH1 0x1 PUSH1 0xA0 SHL SUB PUSH2 0x84B PUSH1 0x20 PUSH2 0x1A5 DUP5 DUP8 DUP10 PUSH2 0x1F23 JUMP JUMPDEST AND ISZERO ISZERO PUSH2 0x7A5 JUMP JUMPDEST PUSH2 0x170 DUP6 PUSH2 0x2CF SWAP3 PUSH2 0x2C9 DUP3 DUP11 DUP10 PUSH2 0x2C4 DUP16 DUP16 SWAP1 PUSH1 0x1 SWAP16 PUSH1 0x20 PUSH2 0x87E SWAP16 DUP9 PUSH2 0x29A SWAP4 PUSH2 0x1A5 SWAP3 PUSH2 0x1F23 JUMP JUMPDEST ADD DUP6 SWAP1 PUSH2 0x688 JUMP JUMPDEST DUP3 PUSH2 0x5FC DUP6 PUSH2 0x402 PUSH2 0x3FD DUP5 DUP7 PUSH2 0x8A8 PUSH1 0x20 PUSH2 0x1A5 DUP5 PUSH2 0x8AE SWAP12 PUSH1 0x1 SWAP16 PUSH2 0x1F23 JUMP JUMPDEST SWAP5 PUSH2 0x1F23 JUMP JUMPDEST MSTORE ADD DUP15 SWAP1 PUSH2 0x677 JUMP JUMPDEST PUSH2 0x8C0 CALLDATASIZE PUSH2 0x19DA JUMP JUMPDEST PUSH2 0x8CF SWAP7 SWAP2 SWAP6 SWAP4 SWAP5 SWAP3 SWAP7 PUSH2 0x1F33 JUMP JUMPDEST DUP3 MLOAD DUP5 MLOAD SWAP1 DUP2 DUP2 SUB PUSH2 0xC1A JUMPI POP POP DUP5 MLOAD DUP5 MLOAD SWAP1 DUP2 DUP2 SUB PUSH2 0xC03 JUMPI POP POP PUSH1 0x0 DUP3 MLOAD SWAP3 PUSH2 0x8F9 DUP5 PUSH2 0x1DEE JUMP JUMPDEST SWAP2 JUMPDEST DUP5 DUP2 LT PUSH2 0xBC3 JUMPI POP PUSH1 0x0 JUMPDEST DUP7 MLOAD DUP2 LT ISZERO PUSH2 0x992 JUMPI DUP1 PUSH2 0x925 PUSH2 0x91F PUSH1 0x1 SWAP4 DUP11 PUSH2 0x1D46 JUMP JUMPDEST MLOAD PUSH2 0x2401 JUMP JUMPDEST PUSH2 0x969 DUP3 DUP1 PUSH1 0xA0 SHL SUB PUSH1 0x20 PUSH2 0x93A DUP5 DUP13 PUSH2 0x1D46 JUMP JUMPDEST MLOAD MLOAD ADD MLOAD AND PUSH1 0x40 PUSH2 0x94B DUP5 DUP13 PUSH2 0x1D46 JUMP JUMPDEST MLOAD MLOAD ADD MLOAD SWAP1 DUP2 PUSH1 0xFF SAR DUP1 PUSH2 0x95F DUP7 DUP14 PUSH2 0x1D46 JUMP JUMPDEST MLOAD SWAP4 ADD XOR SWAP1 PUSH2 0x1F55 JUMP JUMPDEST PUSH2 0x98C PUSH2 0x976 DUP3 DUP11 PUSH2 0x1D46 JUMP JUMPDEST MLOAD MLOAD DUP13 PUSH2 0x983 DUP5 DUP14 PUSH2 0x1D46 JUMP JUMPDEST MLOAD ISZERO ISZERO SWAP2 PUSH2 0x2047 JUMP JUMPDEST ADD PUSH2 0x906 JUMP JUMPDEST POP DUP9 SWAP7 SWAP4 SWAP6 SWAP5 POP DUP8 PUSH1 0x0 DUP1 DUP3 MLOAD PUSH1 0x20 DUP5 ADD CALLVALUE DUP13 GAS CALL SWAP1 PUSH2 0x9B0 PUSH2 0x1D70 JUMP JUMPDEST SWAP2 ISZERO PUSH2 0xBA5 JUMPI POP PUSH1 0x0 JUMPDEST DUP7 MLOAD DUP2 LT ISZERO PUSH2 0xA83 JUMPI PUSH2 0x9CD DUP2 DUP8 PUSH2 0x1D46 JUMP JUMPDEST MLOAD ISZERO DUP1 PUSH2 0xA62 JUMPI JUMPDEST PUSH2 0x9E2 JUMPI JUMPDEST PUSH1 0x1 ADD PUSH2 0x9BA JUMP JUMPDEST PUSH1 0x0 SWAP1 PUSH1 0x20 PUSH1 0x1 PUSH1 0x1 PUSH1 0xA0 SHL SUB DUP2 PUSH2 0x9FA DUP5 DUP13 PUSH2 0x1D46 JUMP JUMPDEST MLOAD MLOAD ADD MLOAD PUSH1 0x40 MLOAD PUSH4 0x95EA7B3 PUSH1 0xE0 SHL DUP2 MSTORE PUSH1 0x1 PUSH1 0x1 PUSH1 0xA0 SHL SUB DUP15 AND PUSH1 0x4 DUP3 ADD MSTORE PUSH1 0x24 DUP2 ADD DUP7 SWAP1 MSTORE SWAP5 DUP6 SWAP3 PUSH1 0x44 SWAP3 DUP5 SWAP3 SWAP2 AND GAS CALL SWAP2 DUP3 ISZERO PUSH2 0x21F JUMPI PUSH1 0x1 SWAP3 PUSH2 0xA44 JUMPI JUMPDEST POP SWAP1 POP PUSH2 0x9DA JUMP JUMPDEST PUSH2 0xA5B SWAP1 PUSH1 0x20 RETURNDATASIZE DUP2 GT PUSH2 0x218 JUMPI PUSH2 0x209 DUP2 DUP4 PUSH2 0x1546 JUMP JUMPDEST POP DUP11 PUSH2 0xA3C JUMP JUMPDEST POP PUSH1 0x1 PUSH1 0x1 PUSH1 0xA0 SHL SUB PUSH1 0x20 PUSH2 0xA77 DUP4 DUP11 PUSH2 0x1D46 JUMP JUMPDEST MLOAD MLOAD ADD MLOAD AND ISZERO ISZERO PUSH2 0x9D5 JUMP JUMPDEST POP DUP7 PUSH1 0x0 JUMPDEST DUP6 MLOAD DUP2 LT ISZERO PUSH2 0xABB JUMPI DUP1 PUSH2 0xAA1 PUSH2 0x91F PUSH1 0x1 SWAP4 DUP10 PUSH2 0x1D46 JUMP JUMPDEST PUSH2 0xAB5 PUSH2 0xAAE DUP3 DUP10 PUSH2 0x1D46 JUMP JUMPDEST MLOAD MLOAD PUSH2 0x21C0 JUMP JUMPDEST ADD PUSH2 0xA88 JUMP JUMPDEST POP DUP4 PUSH1 0x0 JUMPDEST DUP3 DUP2 LT PUSH2 0xAE2 JUMPI PUSH1 0x1 PUSH1 0x0 SSTORE PUSH1 0x40 MLOAD PUSH1 0x20 DUP1 DUP3 MSTORE DUP2 SWAP1 PUSH2 0x126 SWAP1 DUP3 ADD DUP8 PUSH2 0x18CF JUMP JUMPDEST PUSH2 0xB27 PUSH2 0xB1D PUSH1 0x1 PUSH1 0x1 PUSH1 0xA0 SHL SUB PUSH1 0x20 PUSH2 0xAFC DUP6 DUP11 PUSH2 0x1D46 JUMP JUMPDEST MLOAD MLOAD ADD MLOAD AND PUSH1 0x1 PUSH1 0x1 PUSH1 0xA0 SHL SUB PUSH2 0xB13 DUP6 DUP11 PUSH2 0x1D46 JUMP JUMPDEST MLOAD MLOAD MLOAD AND SWAP1 PUSH2 0x25C3 JUMP JUMPDEST PUSH2 0x412 DUP4 DUP6 PUSH2 0x1D46 JUMP JUMPDEST PUSH1 0x40 PUSH2 0xB33 DUP4 DUP9 PUSH2 0x1D46 JUMP JUMPDEST MLOAD MLOAD ADD MLOAD DUP2 SLT PUSH2 0xB46 JUMPI POP PUSH1 0x1 ADD PUSH2 0xAC0 JUMP JUMPDEST DUP6 SWAP2 SWAP1 PUSH2 0x26B SWAP1 PUSH1 0x40 PUSH2 0xB88 PUSH1 0x1 PUSH1 0x1 PUSH1 0xA0 SHL SUB PUSH1 0x20 PUSH2 0xB66 DUP8 DUP10 PUSH2 0x1D46 JUMP JUMPDEST MLOAD MLOAD ADD MLOAD AND SWAP5 PUSH1 0x1 PUSH1 0x1 PUSH1 0xA0 SHL SUB PUSH2 0xB7E DUP3 DUP10 PUSH2 0x1D46 JUMP JUMPDEST MLOAD MLOAD MLOAD AND SWAP7 PUSH2 0x1D46 JUMP JUMPDEST MLOAD MLOAD ADD MLOAD PUSH1 0x40 MLOAD PUSH4 0x7EC440E7 PUSH1 0xE1 SHL DUP2 MSTORE SWAP5 DUP6 SWAP5 PUSH1 0x4 DUP7 ADD PUSH2 0x1E4F JUMP JUMPDEST DUP9 PUSH2 0x26B DUP4 PUSH1 0x40 MLOAD SWAP4 DUP5 SWAP4 PUSH4 0x881F24F PUSH1 0xE3 SHL DUP6 MSTORE PUSH1 0x4 DUP6 ADD PUSH2 0x1DA0 JUMP JUMPDEST PUSH1 0x1 SWAP1 PUSH2 0xBF2 PUSH1 0x1 PUSH1 0x1 PUSH1 0xA0 SHL SUB PUSH1 0x20 PUSH2 0xBDD DUP5 DUP8 PUSH2 0x1D46 JUMP JUMPDEST MLOAD MLOAD ADD MLOAD AND DUP4 DUP1 PUSH1 0xA0 SHL SUB PUSH2 0xB13 DUP5 DUP8 PUSH2 0x1D46 JUMP JUMPDEST PUSH2 0xBFC DUP3 DUP7 PUSH2 0x1D46 JUMP JUMPDEST MSTORE ADD PUSH2 0x8FB JUMP JUMPDEST PUSH4 0x2AA9338D PUSH1 0xE2 SHL PUSH1 0x0 MSTORE PUSH1 0x4 MSTORE PUSH1 0x24 MSTORE PUSH1 0x44 PUSH1 0x0 REVERT JUMPDEST PUSH4 0x3192FB37 PUSH1 0xE2 SHL PUSH1 0x0 MSTORE PUSH1 0x4 MSTORE PUSH1 0x24 MSTORE PUSH1 0x44 PUSH1 0x0 REVERT JUMPDEST PUSH2 0xC3A CALLDATASIZE PUSH2 0x1B40 JUMP JUMPDEST SWAP8 PUSH2 0xC4F SWAP13 SWAP12 SWAP11 SWAP6 SWAP4 SWAP3 SWAP13 SWAP10 SWAP5 SWAP8 SWAP2 SWAP10 PUSH2 0x1F33 JUMP JUMPDEST DUP5 DUP3 SUB PUSH2 0x2F7 JUMPI DUP5 DUP5 SUB PUSH2 0x2DD JUMPI DUP5 PUSH1 0x0 JUMPDEST DUP8 DUP10 DUP12 DUP9 DUP6 DUP6 LT PUSH2 0xDEC JUMPI POP POP POP POP POP POP POP POP PUSH1 0x0 DUP1 DUP13 PUSH1 0x40 MLOAD DUP2 DUP2 SWAP3 DUP7 DUP4 CALLDATACOPY DUP2 ADD DUP4 DUP2 MSTORE SUB SWAP1 CALLVALUE DUP11 GAS CALL SWAP11 PUSH2 0xC95 PUSH2 0x1D70 JUMP JUMPDEST SWAP12 ISZERO PUSH2 0x24C JUMPI POP POP PUSH1 0x0 JUMPDEST DUP3 DUP2 LT PUSH2 0xD29 JUMPI POP POP POP POP POP POP PUSH1 0x0 JUMPDEST DUP2 DUP2 LT PUSH2 0xD04 JUMPI POP POP POP PUSH1 0x0 JUMPDEST DUP2 DUP2 LT PUSH2 0xCDF JUMPI PUSH1 0x1 PUSH1 0x0 SSTORE PUSH1 0x40 MLOAD PUSH1 0x20 DUP1 DUP3 MSTORE DUP2 SWAP1 PUSH2 0x126 SWAP1 DUP3 ADD DUP8 PUSH2 0x18CF JUMP JUMPDEST DUP1 PUSH2 0xCF0 PUSH2 0x4A4 PUSH1 0x1 SWAP4 DUP6 DUP8 PUSH2 0x1E79 JUMP JUMPDEST PUSH2 0xCFE PUSH2 0x13B DUP3 DUP6 DUP8 PUSH2 0x1E79 JUMP JUMPDEST ADD PUSH2 0xCBD JUMP JUMPDEST DUP1 PUSH2 0xD15 PUSH2 0x4A4 PUSH1 0x1 SWAP4 DUP6 DUP8 PUSH2 0x1E79 JUMP JUMPDEST PUSH2 0xD23 PUSH2 0x157 DUP3 DUP6 DUP8 PUSH2 0x1E79 JUMP JUMPDEST ADD PUSH2 0xCB0 JUMP JUMPDEST PUSH2 0xD37 PUSH2 0x170 DUP3 DUP5 DUP9 PUSH2 0x1EBF JUMP JUMPDEST ISZERO DUP1 PUSH2 0xDCB JUMPI JUMPDEST PUSH2 0xD4B JUMPI JUMPDEST PUSH1 0x1 ADD PUSH2 0xCA0 JUMP JUMPDEST PUSH1 0x0 SWAP1 PUSH1 0x20 PUSH1 0x1 PUSH1 0x1 PUSH1 0xA0 SHL SUB PUSH2 0xD67 DUP3 PUSH2 0x1A5 DUP6 DUP10 DUP12 PUSH2 0x1E79 JUMP JUMPDEST PUSH1 0x40 MLOAD PUSH4 0x95EA7B3 PUSH1 0xE0 SHL DUP2 MSTORE PUSH1 0x1 PUSH1 0x1 PUSH1 0xA0 SHL SUB DUP12 AND PUSH1 0x4 DUP3 ADD MSTORE PUSH1 0x24 DUP2 ADD DUP7 SWAP1 MSTORE SWAP5 DUP6 SWAP3 PUSH1 0x44 SWAP3 DUP5 SWAP3 SWAP2 AND GAS CALL SWAP2 DUP3 ISZERO PUSH2 0x21F JUMPI PUSH1 0x1 SWAP3 PUSH2 0xDAD JUMPI JUMPDEST POP SWAP1 POP PUSH2 0xD43 JUMP JUMPDEST PUSH2 0xDC4 SWAP1 PUSH1 0x20 RETURNDATASIZE DUP2 GT PUSH2 0x218 JUMPI PUSH2 0x209 DUP2 DUP4 PUSH2 0x1546 JUMP JUMPDEST POP DUP13 PUSH2 0xDA5 JUMP JUMPDEST POP PUSH1 0x1 PUSH1 0x1 PUSH1 0xA0 SHL SUB PUSH2 0xDE4 PUSH1 0x20 PUSH2 0x1A5 DUP5 DUP8 DUP10 PUSH2 0x1E79 JUMP JUMPDEST AND ISZERO ISZERO PUSH2 0xD3E JUMP JUMPDEST PUSH2 0x170 DUP6 PUSH2 0x2CF SWAP3 PUSH2 0x2C9 DUP3 DUP11 DUP10 PUSH2 0x5C7 DUP16 DUP16 SWAP1 PUSH1 0x1 SWAP16 PUSH2 0x4A4 PUSH2 0xE15 SWAP16 PUSH2 0x5A9 SWAP3 DUP10 SWAP2 PUSH2 0x1E79 JUMP JUMPDEST ADD DUP6 SWAP1 PUSH2 0xC61 JUMP JUMPDEST PUSH2 0xE26 CALLDATASIZE PUSH2 0x17D3 JUMP JUMPDEST PUSH2 0xE35 SWAP7 SWAP2 SWAP6 SWAP4 SWAP5 SWAP3 SWAP7 PUSH2 0x1F33 JUMP JUMPDEST DUP3 MLOAD DUP5 MLOAD SWAP1 DUP2 DUP2 SUB PUSH2 0xC1A JUMPI POP POP DUP5 MLOAD DUP5 MLOAD SWAP1 DUP2 DUP2 SUB PUSH2 0xC03 JUMPI POP POP PUSH1 0x0 DUP3 MLOAD SWAP3 PUSH2 0xE5F DUP5 PUSH2 0x1DEE JUMP JUMPDEST SWAP2 JUMPDEST DUP5 DUP2 LT PUSH2 0x10C4 JUMPI POP PUSH1 0x0 JUMPDEST DUP7 MLOAD DUP2 LT ISZERO PUSH2 0xED1 JUMPI PUSH1 0x1 SWAP1 PUSH2 0xEB2 PUSH1 0x1 PUSH1 0x1 PUSH1 0xA0 SHL SUB PUSH1 0x20 PUSH2 0xE8F DUP5 DUP13 PUSH2 0x1D46 JUMP JUMPDEST MLOAD ADD MLOAD AND PUSH1 0x40 PUSH2 0xE9F DUP5 DUP13 PUSH2 0x1D46 JUMP JUMPDEST MLOAD ADD MLOAD SWAP1 DUP2 PUSH1 0xFF SAR DUP1 PUSH2 0x95F DUP7 DUP14 PUSH2 0x1D46 JUMP JUMPDEST PUSH2 0xECB PUSH2 0xEBF DUP3 DUP11 PUSH2 0x1D46 JUMP JUMPDEST MLOAD DUP13 PUSH2 0x983 DUP5 DUP14 PUSH2 0x1D46 JUMP JUMPDEST ADD PUSH2 0xE6C JUMP JUMPDEST POP DUP9 SWAP7 SWAP4 SWAP6 SWAP5 POP DUP8 PUSH1 0x0 DUP1 DUP3 MLOAD PUSH1 0x20 DUP5 ADD CALLVALUE DUP13 GAS CALL SWAP1 PUSH2 0xEEF PUSH2 0x1D70 JUMP JUMPDEST SWAP2 ISZERO PUSH2 0xBA5 JUMPI POP PUSH1 0x0 JUMPDEST DUP7 MLOAD DUP2 LT ISZERO PUSH2 0xFC0 JUMPI PUSH2 0xF0C DUP2 DUP8 PUSH2 0x1D46 JUMP JUMPDEST MLOAD ISZERO DUP1 PUSH2 0xFA0 JUMPI JUMPDEST PUSH2 0xF21 JUMPI JUMPDEST PUSH1 0x1 ADD PUSH2 0xEF9 JUMP JUMPDEST PUSH1 0x0 SWAP1 PUSH1 0x20 PUSH1 0x1 PUSH1 0x1 PUSH1 0xA0 SHL SUB DUP2 PUSH2 0xF39 DUP5 DUP13 PUSH2 0x1D46 JUMP JUMPDEST MLOAD ADD MLOAD PUSH1 0x40 MLOAD PUSH4 0x95EA7B3 PUSH1 0xE0 SHL DUP2 MSTORE PUSH1 0x1 PUSH1 0x1 PUSH1 0xA0 SHL SUB DUP15 AND PUSH1 0x4 DUP3 ADD MSTORE PUSH1 0x24 DUP2 ADD DUP7 SWAP1 MSTORE SWAP5 DUP6 SWAP3 PUSH1 0x44 SWAP3 DUP5 SWAP3 SWAP2 AND GAS CALL SWAP2 DUP3 ISZERO PUSH2 0x21F JUMPI PUSH1 0x1 SWAP3 PUSH2 0xF82 JUMPI JUMPDEST POP SWAP1 POP PUSH2 0xF19 JUMP JUMPDEST PUSH2 0xF99 SWAP1 PUSH1 0x20 RETURNDATASIZE DUP2 GT PUSH2 0x218 JUMPI PUSH2 0x209 DUP2 DUP4 PUSH2 0x1546 JUMP JUMPDEST POP DUP11 PUSH2 0xF7A JUMP JUMPDEST POP PUSH1 0x1 PUSH1 0x1 PUSH1 0xA0 SHL SUB PUSH1 0x20 PUSH2 0xFB5 DUP4 DUP11 PUSH2 0x1D46 JUMP JUMPDEST MLOAD ADD MLOAD AND ISZERO ISZERO PUSH2 0xF14 JUMP JUMPDEST POP DUP7 PUSH1 0x0 JUMPDEST DUP6 MLOAD DUP2 LT ISZERO PUSH2 0xFEA JUMPI DUP1 PUSH2 0xFE4 PUSH2 0xFDE PUSH1 0x1 SWAP4 DUP10 PUSH2 0x1D46 JUMP JUMPDEST MLOAD PUSH2 0x21C0 JUMP JUMPDEST ADD PUSH2 0xFC5 JUMP JUMPDEST POP DUP4 PUSH1 0x0 JUMPDEST DUP3 DUP2 LT PUSH2 0x1011 JUMPI PUSH1 0x1 PUSH1 0x0 SSTORE PUSH1 0x40 MLOAD PUSH1 0x20 DUP1 DUP3 MSTORE DUP2 SWAP1 PUSH2 0x126 SWAP1 DUP3 ADD DUP8 PUSH2 0x18CF JUMP JUMPDEST PUSH2 0x104A PUSH2 0xB1D PUSH1 0x1 PUSH1 0x1 PUSH1 0xA0 SHL SUB PUSH1 0x20 PUSH2 0x102B DUP6 DUP11 PUSH2 0x1D46 JUMP JUMPDEST MLOAD ADD MLOAD AND PUSH1 0x1 PUSH1 0x1 PUSH1 0xA0 SHL SUB PUSH2 0x1041 DUP6 DUP11 PUSH2 0x1D46 JUMP JUMPDEST MLOAD MLOAD AND SWAP1 PUSH2 0x25C3 JUMP JUMPDEST PUSH1 0x40 PUSH2 0x1056 DUP4 DUP9 PUSH2 0x1D46 JUMP JUMPDEST MLOAD ADD MLOAD DUP2 SLT PUSH2 0x1068 JUMPI POP PUSH1 0x1 ADD PUSH2 0xFEF JUMP JUMPDEST DUP6 SWAP2 SWAP1 PUSH2 0x26B SWAP1 PUSH1 0x40 PUSH2 0x10A8 PUSH1 0x1 PUSH1 0x1 PUSH1 0xA0 SHL SUB PUSH1 0x20 PUSH2 0x1088 DUP8 DUP10 PUSH2 0x1D46 JUMP JUMPDEST MLOAD ADD MLOAD AND SWAP5 PUSH1 0x1 PUSH1 0x1 PUSH1 0xA0 SHL SUB PUSH2 0x109F DUP3 DUP10 PUSH2 0x1D46 JUMP JUMPDEST MLOAD MLOAD AND SWAP7 PUSH2 0x1D46 JUMP JUMPDEST MLOAD ADD MLOAD PUSH1 0x40 MLOAD PUSH4 0x7EC440E7 PUSH1 0xE1 SHL DUP2 MSTORE SWAP5 DUP6 SWAP5 PUSH1 0x4 DUP7 ADD PUSH2 0x1E4F JUMP JUMPDEST PUSH1 0x1 SWAP1 PUSH2 0x10F2 PUSH1 0x1 PUSH1 0x1 PUSH1 0xA0 SHL SUB PUSH1 0x20 PUSH2 0x10DE DUP5 DUP8 PUSH2 0x1D46 JUMP JUMPDEST MLOAD ADD MLOAD AND DUP4 DUP1 PUSH1 0xA0 SHL SUB PUSH2 0x1041 DUP5 DUP8 PUSH2 0x1D46 JUMP JUMPDEST PUSH2 0x10FC DUP3 DUP7 PUSH2 0x1D46 JUMP JUMPDEST MSTORE ADD PUSH2 0xE61 JUMP JUMPDEST PUSH2 0x110C CALLDATASIZE PUSH2 0x19DA JUMP JUMPDEST PUSH2 0x111B SWAP7 SWAP2 SWAP6 SWAP4 SWAP5 SWAP3 SWAP7 PUSH2 0x1F33 JUMP JUMPDEST DUP3 MLOAD DUP5 MLOAD SWAP1 DUP2 DUP2 SUB PUSH2 0xC1A JUMPI POP POP DUP5 MLOAD DUP5 MLOAD SWAP1 DUP2 DUP2 SUB PUSH2 0xC03 JUMPI POP POP PUSH1 0x0 JUMPDEST DUP5 MLOAD DUP2 LT ISZERO PUSH2 0x11AD JUMPI DUP1 PUSH2 0x1153 PUSH2 0x91F PUSH1 0x1 SWAP4 DUP9 PUSH2 0x1D46 JUMP JUMPDEST PUSH2 0x118D DUP3 DUP1 PUSH1 0xA0 SHL SUB PUSH1 0x20 PUSH2 0x1168 DUP5 DUP11 PUSH2 0x1D46 JUMP JUMPDEST MLOAD MLOAD ADD MLOAD AND PUSH1 0x40 PUSH2 0x1179 DUP5 DUP11 PUSH2 0x1D46 JUMP JUMPDEST MLOAD MLOAD ADD MLOAD SWAP1 DUP2 PUSH1 0xFF SAR DUP1 PUSH2 0x95F DUP7 DUP12 PUSH2 0x1D46 JUMP JUMPDEST PUSH2 0x11A7 PUSH2 0x119A DUP3 DUP9 PUSH2 0x1D46 JUMP JUMPDEST MLOAD MLOAD DUP11 PUSH2 0x983 DUP5 DUP12 PUSH2 0x1D46 JUMP JUMPDEST ADD PUSH2 0x113A JUMP JUMPDEST DUP8 DUP4 DUP7 DUP9 DUP6 DUP12 PUSH1 0x0 DUP1 DUP3 MLOAD PUSH1 0x20 DUP5 ADD CALLVALUE DUP11 GAS CALL SWAP1 PUSH2 0x11C9 PUSH2 0x1D70 JUMP JUMPDEST SWAP2 ISZERO PUSH2 0x1320 JUMPI POP PUSH1 0x0 JUMPDEST DUP5 MLOAD DUP2 LT ISZERO PUSH2 0x129C JUMPI PUSH2 0x11E6 DUP2 DUP6 PUSH2 0x1D46 JUMP JUMPDEST MLOAD ISZERO DUP1 PUSH2 0x127B JUMPI JUMPDEST PUSH2 0x11FB JUMPI JUMPDEST PUSH1 0x1 ADD PUSH2 0x11D3 JUMP JUMPDEST PUSH1 0x0 SWAP1 PUSH1 0x20 PUSH1 0x1 PUSH1 0x1 PUSH1 0xA0 SHL SUB DUP2 PUSH2 0x1213 DUP5 DUP11 PUSH2 0x1D46 JUMP JUMPDEST MLOAD MLOAD ADD MLOAD PUSH1 0x40 MLOAD PUSH4 0x95EA7B3 PUSH1 0xE0 SHL DUP2 MSTORE PUSH1 0x1 PUSH1 0x1 PUSH1 0xA0 SHL SUB DUP13 AND PUSH1 0x4 DUP3 ADD MSTORE PUSH1 0x24 DUP2 ADD DUP7 SWAP1 MSTORE SWAP5 DUP6 SWAP3 PUSH1 0x44 SWAP3 DUP5 SWAP3 SWAP2 AND GAS CALL SWAP2 DUP3 ISZERO PUSH2 0x21F JUMPI PUSH1 0x1 SWAP3 PUSH2 0x125D JUMPI JUMPDEST POP SWAP1 POP PUSH2 0x11F3 JUMP JUMPDEST PUSH2 0x1274 SWAP1 PUSH1 0x20 RETURNDATASIZE DUP2 GT PUSH2 0x218 JUMPI PUSH2 0x209 DUP2 DUP4 PUSH2 0x1546 JUMP JUMPDEST POP DUP9 PUSH2 0x1255 JUMP JUMPDEST POP PUSH1 0x1 PUSH1 0x1 PUSH1 0xA0 SHL SUB PUSH1 0x20 PUSH2 0x1290 DUP4 DUP9 PUSH2 0x1D46 JUMP JUMPDEST MLOAD MLOAD ADD MLOAD AND ISZERO ISZERO PUSH2 0x11EE JUMP JUMPDEST POP DUP5 PUSH1 0x0 JUMPDEST DUP4 MLOAD DUP2 LT ISZERO PUSH2 0x12CD JUMPI DUP1 PUSH2 0x12BA PUSH2 0x91F PUSH1 0x1 SWAP4 DUP8 PUSH2 0x1D46 JUMP JUMPDEST PUSH2 0x12C7 PUSH2 0xAAE DUP3 DUP8 PUSH2 0x1D46 JUMP JUMPDEST ADD PUSH2 0x12A1 JUMP JUMPDEST POP SWAP1 PUSH1 0x0 JUMPDEST DUP3 MLOAD DUP2 LT ISZERO PUSH2 0x1305 JUMPI DUP1 PUSH2 0x12EB PUSH2 0x91F PUSH1 0x1 SWAP4 DUP7 PUSH2 0x1D46 JUMP JUMPDEST PUSH2 0x12FF PUSH2 0x12F8 DUP3 DUP7 PUSH2 0x1D46 JUMP JUMPDEST MLOAD MLOAD PUSH2 0x2256 JUMP JUMPDEST ADD PUSH2 0x12D2 JUMP JUMPDEST PUSH1 0x1 PUSH1 0x0 SSTORE PUSH1 0x40 MLOAD PUSH1 0x20 DUP1 DUP3 MSTORE DUP2 SWAP1 PUSH2 0x126 SWAP1 DUP3 ADD DUP6 PUSH2 0x18CF JUMP JUMPDEST DUP7 PUSH2 0x26B DUP4 PUSH1 0x40 MLOAD SWAP4 DUP5 SWAP4 PUSH4 0x881F24F PUSH1 0xE3 SHL DUP6 MSTORE PUSH1 0x4 DUP6 ADD PUSH2 0x1DA0 JUMP JUMPDEST PUSH2 0x1347 CALLDATASIZE PUSH2 0x17D3 JUMP JUMPDEST PUSH2 0x1356 SWAP7 SWAP2 SWAP6 SWAP4 SWAP5 SWAP3 SWAP7 PUSH2 0x1F33 JUMP JUMPDEST DUP3 MLOAD DUP5 MLOAD SWAP1 DUP2 DUP2 SUB PUSH2 0xC1A JUMPI POP POP DUP5 MLOAD DUP5 MLOAD SWAP1 DUP2 DUP2 SUB PUSH2 0xC03 JUMPI POP POP PUSH1 0x0 JUMPDEST DUP5 MLOAD DUP2 LT ISZERO PUSH2 0x13DA JUMPI PUSH1 0x1 SWAP1 PUSH2 0x13BB PUSH1 0x1 PUSH1 0x1 PUSH1 0xA0 SHL SUB PUSH1 0x20 PUSH2 0x1398 DUP5 DUP11 PUSH2 0x1D46 JUMP JUMPDEST MLOAD ADD MLOAD AND PUSH1 0x40 PUSH2 0x13A8 DUP5 DUP11 PUSH2 0x1D46 JUMP JUMPDEST MLOAD ADD MLOAD SWAP1 DUP2 PUSH1 0xFF SAR DUP1 PUSH2 0x95F DUP7 DUP12 PUSH2 0x1D46 JUMP JUMPDEST PUSH2 0x13D4 PUSH2 0x13C8 DUP3 DUP9 PUSH2 0x1D46 JUMP JUMPDEST MLOAD DUP11 PUSH2 0x983 DUP5 DUP12 PUSH2 0x1D46 JUMP JUMPDEST ADD PUSH2 0x1375 JUMP JUMPDEST DUP8 DUP4 DUP7 DUP9 DUP6 DUP12 PUSH1 0x0 DUP1 DUP3 MLOAD PUSH1 0x20 DUP5 ADD CALLVALUE DUP11 GAS CALL SWAP1 PUSH2 0x13F6 PUSH2 0x1D70 JUMP JUMPDEST SWAP2 ISZERO PUSH2 0x1320 JUMPI POP PUSH1 0x0 JUMPDEST DUP5 MLOAD DUP2 LT ISZERO PUSH2 0x14C7 JUMPI PUSH2 0x1413 DUP2 DUP6 PUSH2 0x1D46 JUMP JUMPDEST MLOAD ISZERO DUP1 PUSH2 0x14A7 JUMPI JUMPDEST PUSH2 0x1428 JUMPI JUMPDEST PUSH1 0x1 ADD PUSH2 0x1400 JUMP JUMPDEST PUSH1 0x0 SWAP1 PUSH1 0x20 PUSH1 0x1 PUSH1 0x1 PUSH1 0xA0 SHL SUB DUP2 PUSH2 0x1440 DUP5 DUP11 PUSH2 0x1D46 JUMP JUMPDEST MLOAD ADD MLOAD PUSH1 0x40 MLOAD PUSH4 0x95EA7B3 PUSH1 0xE0 SHL DUP2 MSTORE PUSH1 0x1 PUSH1 0x1 PUSH1 0xA0 SHL SUB DUP13 AND PUSH1 0x4 DUP3 ADD MSTORE PUSH1 0x24 DUP2 ADD DUP7 SWAP1 MSTORE SWAP5 DUP6 SWAP3 PUSH1 0x44 SWAP3 DUP5 SWAP3 SWAP2 AND GAS CALL SWAP2 DUP3 ISZERO PUSH2 0x21F JUMPI PUSH1 0x1 SWAP3 PUSH2 0x1489 JUMPI JUMPDEST POP SWAP1 POP PUSH2 0x1420 JUMP JUMPDEST PUSH2 0x14A0 SWAP1 PUSH1 0x20 RETURNDATASIZE DUP2 GT PUSH2 0x218 JUMPI PUSH2 0x209 DUP2 DUP4 PUSH2 0x1546 JUMP JUMPDEST POP DUP9 PUSH2 0x1481 JUMP JUMPDEST POP PUSH1 0x1 PUSH1 0x1 PUSH1 0xA0 SHL SUB PUSH1 0x20 PUSH2 0x14BC DUP4 DUP9 PUSH2 0x1D46 JUMP JUMPDEST MLOAD ADD MLOAD AND ISZERO ISZERO PUSH2 0x141B JUMP JUMPDEST POP DUP5 PUSH1 0x0 JUMPDEST DUP4 MLOAD DUP2 LT ISZERO PUSH2 0x14EB JUMPI DUP1 PUSH2 0x14E5 PUSH2 0xFDE PUSH1 0x1 SWAP4 DUP8 PUSH2 0x1D46 JUMP JUMPDEST ADD PUSH2 0x14CC JUMP JUMPDEST POP SWAP1 PUSH1 0x0 JUMPDEST DUP3 MLOAD DUP2 LT ISZERO PUSH2 0x1305 JUMPI DUP1 PUSH2 0x150F PUSH2 0x1509 PUSH1 0x1 SWAP4 DUP7 PUSH2 0x1D46 JUMP JUMPDEST MLOAD PUSH2 0x2256 JUMP JUMPDEST ADD PUSH2 0x14F0 JUMP JUMPDEST PUSH1 0x60 DUP2 ADD SWAP1 DUP2 LT PUSH1 0x1 PUSH1 0x1 PUSH1 0x40 SHL SUB DUP3 GT OR PUSH2 0x1530 JUMPI PUSH1 0x40 MSTORE JUMP JUMPDEST PUSH4 0x4E487B71 PUSH1 0xE0 SHL PUSH1 0x0 MSTORE PUSH1 0x41 PUSH1 0x4 MSTORE PUSH1 0x24 PUSH1 0x0 REVERT JUMPDEST SWAP1 PUSH1 0x1F DUP1 NOT SWAP2 ADD AND DUP2 ADD SWAP1 DUP2 LT PUSH1 0x1 PUSH1 0x1 PUSH1 0x40 SHL SUB DUP3 GT OR PUSH2 0x1530 JUMPI PUSH1 0x40 MSTORE JUMP JUMPDEST PUSH1 0x1 PUSH1 0x1 PUSH1 0x40 SHL SUB DUP2 GT PUSH2 0x1530 JUMPI PUSH1 0x5 SHL PUSH1 0x20 ADD SWAP1 JUMP JUMPDEST CALLDATALOAD SWAP1 PUSH1 0x1 PUSH1 0x1 PUSH1 0xA0 SHL SUB DUP3 AND DUP3 SUB PUSH2 0x1592 JUMPI JUMP JUMPDEST PUSH1 0x0 DUP1 REVERT JUMPDEST SWAP2 SWAP1 DUP3 PUSH1 0x60 SWAP2 SUB SLT PUSH2 0x1592 JUMPI PUSH1 0x40 MLOAD PUSH2 0x15AF DUP2 PUSH2 0x1515 JUMP JUMPDEST PUSH1 0x40 DUP1 DUP3 SWAP5 PUSH2 0x15BD DUP2 PUSH2 0x157E JUMP JUMPDEST DUP5 MSTORE PUSH2 0x15CB PUSH1 0x20 DUP3 ADD PUSH2 0x157E JUMP JUMPDEST PUSH1 0x20 DUP6 ADD MSTORE ADD CALLDATALOAD SWAP2 ADD MSTORE JUMP JUMPDEST DUP2 PUSH1 0x1F DUP3 ADD SLT ISZERO PUSH2 0x1592 JUMPI DUP1 CALLDATALOAD PUSH2 0x15ED DUP2 PUSH2 0x1567 JUMP JUMPDEST SWAP3 PUSH2 0x15FB PUSH1 0x40 MLOAD SWAP5 DUP6 PUSH2 0x1546 JUMP JUMPDEST DUP2 DUP5 MSTORE PUSH1 0x20 PUSH1 0x60 DUP2 DUP7 ADD SWAP4 MUL DUP5 ADD ADD SWAP3 DUP2 DUP5 GT PUSH2 0x1592 JUMPI PUSH1 0x20 ADD SWAP2 JUMPDEST DUP4 DUP4 LT PUSH2 0x1625 JUMPI POP POP POP POP SWAP1 JUMP JUMPDEST PUSH1 0x20 PUSH1 0x60 SWAP2 PUSH2 0x1634 DUP5 DUP7 PUSH2 0x1597 JUMP JUMPDEST DUP2 MSTORE ADD SWAP3 ADD SWAP2 PUSH2 0x1617 JUMP JUMPDEST CALLDATALOAD SWAP1 PUSH1 0xFF DUP3 AND DUP3 SUB PUSH2 0x1592 JUMPI JUMP JUMPDEST DUP2 PUSH1 0x1F DUP3 ADD SLT ISZERO PUSH2 0x1592 JUMPI DUP1 CALLDATALOAD SWAP1 PUSH2 0x1664 DUP3 PUSH2 0x1567 JUMP JUMPDEST SWAP3 PUSH2 0x1672 PUSH1 0x40 MLOAD SWAP5 DUP6 PUSH2 0x1546 JUMP JUMPDEST DUP3 DUP5 MSTORE PUSH1 0x20 DUP1 DUP6 ADD SWAP4 PUSH1 0x7 SHL DUP4 ADD ADD SWAP2 DUP2 DUP4 GT PUSH2 0x1592 JUMPI PUSH1 0x20 ADD SWAP3 JUMPDEST DUP3 DUP5 LT PUSH2 0x169C JUMPI POP POP POP POP SWAP1 JUMP JUMPDEST PUSH1 0x80 DUP5 DUP4 SUB SLT PUSH2 0x1592 JUMPI PUSH1 0x40 MLOAD SWAP1 PUSH1 0x80 DUP3 ADD SWAP1 DUP3 DUP3 LT PUSH1 0x1 PUSH1 0x1 PUSH1 0x40 SHL SUB DUP4 GT OR PUSH2 0x1530 JUMPI PUSH1 0x80 SWAP3 PUSH1 0x20 SWAP3 PUSH1 0x40 MSTORE DUP7 CALLDATALOAD DUP2 MSTORE PUSH2 0x16D9 DUP4 DUP9 ADD PUSH2 0x163F JUMP JUMPDEST DUP4 DUP3 ADD MSTORE PUSH1 0x40 DUP8 ADD CALLDATALOAD PUSH1 0x40 DUP3 ADD MSTORE PUSH1 0x60 DUP8 ADD CALLDATALOAD PUSH1 0x60 DUP3 ADD MSTORE DUP2 MSTORE ADD SWAP4 ADD SWAP3 PUSH2 0x168E JUMP JUMPDEST SWAP1 DUP1 PUSH1 0x1F DUP4 ADD SLT ISZERO PUSH2 0x1592 JUMPI DUP2 CALLDATALOAD SWAP1 PUSH2 0x1714 DUP3 PUSH2 0x1567 JUMP JUMPDEST SWAP3 PUSH2 0x1722 PUSH1 0x40 MLOAD SWAP5 DUP6 PUSH2 0x1546 JUMP JUMPDEST DUP3 DUP5 MSTORE PUSH1 0x20 DUP1 DUP6 ADD SWAP4 PUSH1 0x5 SHL DUP3 ADD ADD SWAP2 DUP3 GT PUSH2 0x1592 JUMPI PUSH1 0x20 ADD SWAP2 JUMPDEST DUP2 DUP4 LT PUSH2 0x174A JUMPI POP POP POP SWAP1 JUMP JUMPDEST DUP3 CALLDATALOAD DUP1 ISZERO ISZERO DUP2 SUB PUSH2 0x1592 JUMPI DUP2 MSTORE PUSH1 0x20 SWAP3 DUP4 ADD SWAP3 ADD PUSH2 0x173D JUMP JUMPDEST PUSH1 0x1 PUSH1 0x1 PUSH1 0x40 SHL SUB DUP2 GT PUSH2 0x1530 JUMPI PUSH1 0x1F ADD PUSH1 0x1F NOT AND PUSH1 0x20 ADD SWAP1 JUMP JUMPDEST SWAP3 SWAP2 SWAP3 PUSH2 0x178A DUP3 PUSH2 0x1763 JUMP JUMPDEST SWAP2 PUSH2 0x1798 PUSH1 0x40 MLOAD SWAP4 DUP5 PUSH2 0x1546 JUMP JUMPDEST DUP3 SWAP5 DUP2 DUP5 MSTORE DUP2 DUP4 ADD GT PUSH2 0x1592 JUMPI DUP3 DUP2 PUSH1 0x20 SWAP4 DUP5 PUSH1 0x0 SWAP7 ADD CALLDATACOPY ADD ADD MSTORE JUMP JUMPDEST SWAP1 DUP1 PUSH1 0x1F DUP4 ADD SLT ISZERO PUSH2 0x1592 JUMPI DUP2 PUSH1 0x20 PUSH2 0x17D0 SWAP4 CALLDATALOAD SWAP2 ADD PUSH2 0x177E JUMP JUMPDEST SWAP1 JUMP JUMPDEST PUSH1 0xE0 PUSH1 0x3 NOT DUP3 ADD SLT PUSH2 0x1592 JUMPI PUSH1 0x4 CALLDATALOAD PUSH1 0x1 PUSH1 0x1 PUSH1 0x40 SHL SUB DUP2 GT PUSH2 0x1592 JUMPI DUP2 PUSH2 0x17FD SWAP2 PUSH1 0x4 ADD PUSH2 0x15D7 JUMP JUMPDEST SWAP2 PUSH1 0x24 CALLDATALOAD PUSH1 0x1 PUSH1 0x1 PUSH1 0x40 SHL SUB DUP2 GT PUSH2 0x1592 JUMPI DUP3 PUSH2 0x181C SWAP2 PUSH1 0x4 ADD PUSH2 0x15D7 JUMP JUMPDEST SWAP2 PUSH1 0x44 CALLDATALOAD PUSH1 0x1 PUSH1 0x1 PUSH1 0x40 SHL SUB DUP2 GT PUSH2 0x1592 JUMPI DUP2 PUSH2 0x183B SWAP2 PUSH1 0x4 ADD PUSH2 0x164D JUMP JUMPDEST SWAP2 PUSH1 0x64 CALLDATALOAD PUSH1 0x1 PUSH1 0x1 PUSH1 0x40 SHL SUB DUP2 GT PUSH2 0x1592 JUMPI DUP3 PUSH2 0x185A SWAP2 PUSH1 0x4 ADD PUSH2 0x16FC JUMP JUMPDEST SWAP2 PUSH1 0x84 CALLDATALOAD PUSH1 0x1 PUSH1 0x1 PUSH1 0xA0 SHL SUB DUP2 AND DUP2 SUB PUSH2 0x1592 JUMPI SWAP2 PUSH1 0xA4 CALLDATALOAD PUSH1 0x1 PUSH1 0x1 PUSH1 0x40 SHL SUB DUP2 GT PUSH2 0x1592 JUMPI DUP3 PUSH2 0x188D SWAP2 PUSH1 0x4 ADD PUSH2 0x17B5 JUMP JUMPDEST SWAP2 PUSH1 0xC4 CALLDATALOAD SWAP1 PUSH1 0x1 PUSH1 0x1 PUSH1 0x40 SHL SUB DUP3 GT PUSH2 0x1592 JUMPI PUSH2 0x17D0 SWAP2 PUSH1 0x4 ADD PUSH2 0x15D7 JUMP JUMPDEST PUSH1 0x0 JUMPDEST DUP4 DUP2 LT PUSH2 0x18BF JUMPI POP POP PUSH1 0x0 SWAP2 ADD MSTORE JUMP JUMPDEST DUP2 DUP2 ADD MLOAD DUP4 DUP3 ADD MSTORE PUSH1 0x20 ADD PUSH2 0x18AF JUMP JUMPDEST SWAP1 PUSH1 0x20 SWAP2 PUSH2 0x18E8 DUP2 MLOAD DUP1 SWAP3 DUP2 DUP6 MSTORE DUP6 DUP1 DUP7 ADD SWAP2 ADD PUSH2 0x18AC JUMP JUMPDEST PUSH1 0x1F ADD PUSH1 0x1F NOT AND ADD ADD SWAP1 JUMP JUMPDEST SWAP1 DUP1 PUSH1 0x1F DUP4 ADD SLT ISZERO PUSH2 0x1592 JUMPI DUP2 CALLDATALOAD SWAP2 PUSH2 0x190C DUP4 PUSH2 0x1567 JUMP JUMPDEST SWAP3 PUSH2 0x191A PUSH1 0x40 MLOAD SWAP5 DUP6 PUSH2 0x1546 JUMP JUMPDEST DUP1 DUP5 MSTORE PUSH1 0x20 DUP1 DUP6 ADD SWAP2 PUSH1 0x5 SHL DUP4 ADD ADD SWAP2 DUP4 DUP4 GT PUSH2 0x1592 JUMPI PUSH1 0x20 DUP2 ADD SWAP2 JUMPDEST DUP4 DUP4 LT PUSH2 0x1946 JUMPI POP POP POP POP POP SWAP1 JUMP JUMPDEST DUP3 CALLDATALOAD PUSH1 0x1 PUSH1 0x1 PUSH1 0x40 SHL SUB DUP2 GT PUSH2 0x1592 JUMPI DUP3 ADD SWAP1 PUSH1 0xA0 DUP3 DUP8 SUB PUSH1 0x1F NOT ADD SLT PUSH2 0x1592 JUMPI PUSH1 0x40 MLOAD SWAP1 PUSH2 0x1974 DUP3 PUSH2 0x1515 JUMP JUMPDEST PUSH2 0x1981 DUP8 PUSH1 0x20 DUP6 ADD PUSH2 0x1597 JUMP JUMPDEST DUP3 MSTORE PUSH1 0x80 DUP4 ADD CALLDATALOAD PUSH1 0x1 PUSH1 0x1 PUSH1 0x40 SHL SUB DUP2 GT PUSH2 0x1592 JUMPI PUSH1 0x20 SWAP1 DUP5 ADD ADD SWAP2 DUP8 PUSH1 0x1F DUP5 ADD SLT ISZERO PUSH2 0x1592 JUMPI PUSH2 0x19CA PUSH1 0xA0 PUSH1 0x20 SWAP6 PUSH2 0x19C0 DUP12 DUP8 DUP10 DUP1 SWAP10 CALLDATALOAD SWAP2 ADD PUSH2 0x177E JUMP JUMPDEST DUP7 DUP6 ADD MSTORE ADD PUSH2 0x163F JUMP JUMPDEST PUSH1 0x40 DUP3 ADD MSTORE DUP2 MSTORE ADD SWAP3 ADD SWAP2 PUSH2 0x1937 JUMP JUMPDEST PUSH1 0xE0 PUSH1 0x3 NOT DUP3 ADD SLT PUSH2 0x1592 JUMPI PUSH1 0x4 CALLDATALOAD PUSH1 0x1 PUSH1 0x1 PUSH1 0x40 SHL SUB DUP2 GT PUSH2 0x1592 JUMPI DUP2 PUSH2 0x1A04 SWAP2 PUSH1 0x4 ADD PUSH2 0x18F4 JUMP JUMPDEST SWAP2 PUSH1 0x24 CALLDATALOAD PUSH1 0x1 PUSH1 0x1 PUSH1 0x40 SHL SUB DUP2 GT PUSH2 0x1592 JUMPI DUP3 PUSH2 0x1A23 SWAP2 PUSH1 0x4 ADD PUSH2 0x18F4 JUMP JUMPDEST SWAP2 PUSH1 0x44 CALLDATALOAD PUSH1 0x1 PUSH1 0x1 PUSH1 0x40 SHL SUB DUP2 GT PUSH2 0x1592 JUMPI DUP2 PUSH2 0x1A42 SWAP2 PUSH1 0x4 ADD PUSH2 0x164D JUMP JUMPDEST SWAP2 PUSH1 0x64 CALLDATALOAD PUSH1 0x1 PUSH1 0x1 PUSH1 0x40 SHL SUB DUP2 GT PUSH2 0x1592 JUMPI DUP3 PUSH2 0x1A61 SWAP2 PUSH1 0x4 ADD PUSH2 0x16FC JUMP JUMPDEST SWAP2 PUSH1 0x84 CALLDATALOAD PUSH1 0x1 PUSH1 0x1 PUSH1 0xA0 SHL SUB DUP2 AND DUP2 SUB PUSH2 0x1592 JUMPI SWAP2 PUSH1 0xA4 CALLDATALOAD PUSH1 0x1 PUSH1 0x1 PUSH1 0x40 SHL SUB DUP2 GT PUSH2 0x1592 JUMPI DUP3 PUSH2 0x1A94 SWAP2 PUSH1 0x4 ADD PUSH2 0x17B5 JUMP JUMPDEST SWAP2 PUSH1 0xC4 CALLDATALOAD SWAP1 PUSH1 0x1 PUSH1 0x1 PUSH1 0x40 SHL SUB DUP3 GT PUSH2 0x1592 JUMPI PUSH2 0x17D0 SWAP2 PUSH1 0x4 ADD PUSH2 0x18F4 JUMP JUMPDEST SWAP2 DUP2 PUSH1 0x1F DUP5 ADD SLT ISZERO PUSH2 0x1592 JUMPI DUP3 CALLDATALOAD SWAP2 PUSH1 0x1 PUSH1 0x1 PUSH1 0x40 SHL SUB DUP4 GT PUSH2 0x1592 JUMPI PUSH1 0x20 DUP1 DUP6 ADD SWAP5 DUP5 PUSH1 0x5 SHL ADD ADD GT PUSH2 0x1592 JUMPI JUMP JUMPDEST SWAP2 DUP2 PUSH1 0x1F DUP5 ADD SLT ISZERO PUSH2 0x1592 JUMPI DUP3 CALLDATALOAD SWAP2 PUSH1 0x1 PUSH1 0x1 PUSH1 0x40 SHL SUB DUP4 GT PUSH2 0x1592 JUMPI PUSH1 0x20 DUP1 DUP6 ADD SWAP5 DUP5 PUSH1 0x7 SHL ADD ADD GT PUSH2 0x1592 JUMPI JUMP JUMPDEST SWAP2 DUP2 PUSH1 0x1F DUP5 ADD SLT ISZERO PUSH2 0x1592 JUMPI DUP3 CALLDATALOAD SWAP2 PUSH1 0x1 PUSH1 0x1 PUSH1 0x40 SHL SUB DUP4 GT PUSH2 0x1592 JUMPI PUSH1 0x20 DUP4 DUP2 DUP7 ADD SWAP6 ADD ADD GT PUSH2 0x1592 JUMPI JUMP JUMPDEST SWAP1 PUSH1 0xE0 PUSH1 0x3 NOT DUP4 ADD SLT PUSH2 0x1592 JUMPI PUSH1 0x4 CALLDATALOAD PUSH1 0x1 PUSH1 0x1 PUSH1 0x40 SHL SUB DUP2 GT PUSH2 0x1592 JUMPI DUP3 PUSH2 0x1B6B SWAP2 PUSH1 0x4 ADD PUSH2 0x1AB3 JUMP JUMPDEST SWAP3 SWAP1 SWAP3 SWAP2 PUSH1 0x24 CALLDATALOAD PUSH1 0x1 PUSH1 0x1 PUSH1 0x40 SHL SUB DUP2 GT PUSH2 0x1592 JUMPI DUP3 PUSH2 0x1B8D SWAP2 PUSH1 0x4 ADD PUSH2 0x1AB3 JUMP JUMPDEST SWAP3 SWAP1 SWAP3 SWAP2 PUSH1 0x44 CALLDATALOAD PUSH1 0x1 PUSH1 0x1 PUSH1 0x40 SHL SUB DUP2 GT PUSH2 0x1592 JUMPI DUP3 PUSH2 0x1BAF SWAP2 PUSH1 0x4 ADD PUSH2 0x1AE3 JUMP JUMPDEST SWAP3 SWAP1 SWAP3 SWAP2 PUSH1 0x64 CALLDATALOAD PUSH1 0x1 PUSH1 0x1 PUSH1 0x40 SHL SUB DUP2 GT PUSH2 0x1592 JUMPI DUP3 PUSH2 0x1BD1 SWAP2 PUSH1 0x4 ADD PUSH2 0x1AB3 JUMP JUMPDEST SWAP1 SWAP3 SWAP1 SWAP2 PUSH1 0x84 CALLDATALOAD PUSH1 0x1 PUSH1 0x1 PUSH1 0xA0 SHL SUB DUP2 AND DUP2 SUB PUSH2 0x1592 JUMPI SWAP2 PUSH1 0xA4 CALLDATALOAD PUSH1 0x1 PUSH1 0x1 PUSH1 0x40 SHL SUB DUP2 GT PUSH2 0x1592 JUMPI DUP2 PUSH2 0x1C07 SWAP2 PUSH1 0x4 ADD PUSH2 0x1B13 JUMP JUMPDEST SWAP3 SWAP1 SWAP3 SWAP2 PUSH1 0xC4 CALLDATALOAD SWAP1 PUSH1 0x1 PUSH1 0x1 PUSH1 0x40 SHL SUB DUP3 GT PUSH2 0x1592 JUMPI PUSH2 0x1C29 SWAP2 PUSH1 0x4 ADD PUSH2 0x1AB3 JUMP JUMPDEST SWAP1 SWAP2 JUMP JUMPDEST SWAP2 DUP2 PUSH1 0x1F DUP5 ADD SLT ISZERO PUSH2 0x1592 JUMPI DUP3 CALLDATALOAD SWAP2 PUSH1 0x1 PUSH1 0x1 PUSH1 0x40 SHL SUB DUP4 GT PUSH2 0x1592 JUMPI PUSH1 0x20 DUP1 DUP6 ADD SWAP5 PUSH1 0x60 DUP6 MUL ADD ADD GT PUSH2 0x1592 JUMPI JUMP JUMPDEST SWAP1 PUSH1 0xE0 PUSH1 0x3 NOT DUP4 ADD SLT PUSH2 0x1592 JUMPI PUSH1 0x4 CALLDATALOAD PUSH1 0x1 PUSH1 0x1 PUSH1 0x40 SHL SUB DUP2 GT PUSH2 0x1592 JUMPI DUP3 PUSH2 0x1C88 SWAP2 PUSH1 0x4 ADD PUSH2 0x1C2D JUMP JUMPDEST SWAP3 SWAP1 SWAP3 SWAP2 PUSH1 0x24 CALLDATALOAD PUSH1 0x1 PUSH1 0x1 PUSH1 0x40 SHL SUB DUP2 GT PUSH2 0x1592 JUMPI DUP3 PUSH2 0x1CAA SWAP2 PUSH1 0x4 ADD PUSH2 0x1C2D JUMP JUMPDEST SWAP3 SWAP1 SWAP3 SWAP2 PUSH1 0x44 CALLDATALOAD PUSH1 0x1 PUSH1 0x1 PUSH1 0x40 SHL SUB DUP2 GT PUSH2 0x1592 JUMPI DUP3 PUSH2 0x1CCC SWAP2 PUSH1 0x4 ADD PUSH2 0x1AE3 JUMP JUMPDEST SWAP3 SWAP1 SWAP3 SWAP2 PUSH1 0x64 CALLDATALOAD PUSH1 0x1 PUSH1 0x1 PUSH1 0x40 SHL SUB DUP2 GT PUSH2 0x1592 JUMPI DUP3 PUSH2 0x1CEE SWAP2 PUSH1 0x4 ADD PUSH2 0x1AB3 JUMP JUMPDEST SWAP1 SWAP3 SWAP1 SWAP2 PUSH1 0x84 CALLDATALOAD PUSH1 0x1 PUSH1 0x1 PUSH1 0xA0 SHL SUB DUP2 AND DUP2 SUB PUSH2 0x1592 JUMPI SWAP2 PUSH1 0xA4 CALLDATALOAD PUSH1 0x1 PUSH1 0x1 PUSH1 0x40 SHL SUB DUP2 GT PUSH2 0x1592 JUMPI DUP2 PUSH2 0x1D24 SWAP2 PUSH1 0x4 ADD PUSH2 0x1B13 JUMP JUMPDEST SWAP3 SWAP1 SWAP3 SWAP2 PUSH1 0xC4 CALLDATALOAD SWAP1 PUSH1 0x1 PUSH1 0x1 PUSH1 0x40 SHL SUB DUP3 GT PUSH2 0x1592 JUMPI PUSH2 0x1C29 SWAP2 PUSH1 0x4 ADD PUSH2 0x1C2D JUMP JUMPDEST DUP1 MLOAD DUP3 LT ISZERO PUSH2 0x1D5A JUMPI PUSH1 0x20 SWAP2 PUSH1 0x5 SHL ADD ADD SWAP1 JUMP JUMPDEST PUSH4 0x4E487B71 PUSH1 0xE0 SHL PUSH1 0x0 MSTORE PUSH1 0x32 PUSH1 0x4 MSTORE PUSH1 0x24 PUSH1 0x0 REVERT JUMPDEST RETURNDATASIZE ISZERO PUSH2 0x1D9B JUMPI RETURNDATASIZE SWAP1 PUSH2 0x1D81 DUP3 PUSH2 0x1763 JUMP JUMPDEST SWAP2 PUSH2 0x1D8F PUSH1 0x40 MLOAD SWAP4 DUP5 PUSH2 0x1546 JUMP JUMPDEST DUP3 MSTORE RETURNDATASIZE PUSH1 0x0 PUSH1 0x20 DUP5 ADD RETURNDATACOPY JUMP JUMPDEST PUSH1 0x60 SWAP1 JUMP JUMPDEST PUSH1 0x1 PUSH1 0x1 PUSH1 0xA0 SHL SUB SWAP1 SWAP2 AND DUP2 MSTORE PUSH1 0x60 PUSH1 0x20 DUP3 ADD DUP2 SWAP1 MSTORE PUSH2 0x17D0 SWAP4 SWAP2 SWAP3 PUSH2 0x1DC8 SWAP2 DUP5 ADD SWAP1 PUSH2 0x18CF JUMP JUMPDEST SWAP2 PUSH1 0x40 DUP2 DUP5 SUB SWAP2 ADD MSTORE PUSH2 0x18CF JUMP JUMPDEST SWAP1 DUP2 PUSH1 0x20 SWAP2 SUB SLT PUSH2 0x1592 JUMPI MLOAD DUP1 ISZERO ISZERO DUP2 SUB PUSH2 0x1592 JUMPI SWAP1 JUMP JUMPDEST SWAP1 PUSH2 0x1DF8 DUP3 PUSH2 0x1567 JUMP JUMPDEST PUSH2 0x1E05 PUSH1 0x40 MLOAD SWAP2 DUP3 PUSH2 0x1546 JUMP JUMPDEST DUP3 DUP2 MSTORE DUP1 SWAP3 PUSH2 0x1E16 PUSH1 0x1F NOT SWAP2 PUSH2 0x1567 JUMP JUMPDEST ADD SWAP1 PUSH1 0x20 CALLDATASIZE SWAP2 ADD CALLDATACOPY JUMP JUMPDEST DUP2 DUP2 SUB SWAP3 SWAP2 PUSH1 0x0 SGT DUP1 ISZERO DUP3 DUP6 SGT AND SWAP2 DUP5 SLT AND OR PUSH2 0x1E39 JUMPI JUMP JUMPDEST PUSH4 0x4E487B71 PUSH1 0xE0 SHL PUSH1 0x0 MSTORE PUSH1 0x11 PUSH1 0x4 MSTORE PUSH1 0x24 PUSH1 0x0 REVERT JUMPDEST PUSH1 0x1 PUSH1 0x1 PUSH1 0xA0 SHL SUB SWAP2 DUP3 AND DUP2 MSTORE SWAP2 AND PUSH1 0x20 DUP3 ADD MSTORE PUSH1 0x40 DUP2 ADD SWAP2 SWAP1 SWAP2 MSTORE PUSH1 0x60 DUP2 ADD SWAP2 SWAP1 SWAP2 MSTORE PUSH1 0x80 ADD SWAP1 JUMP JUMPDEST SWAP2 SWAP1 DUP2 LT ISZERO PUSH2 0x1D5A JUMPI PUSH1 0x5 SHL DUP2 ADD CALLDATALOAD SWAP1 PUSH1 0x9E NOT DUP2 CALLDATASIZE SUB ADD DUP3 SLT ISZERO PUSH2 0x1592 JUMPI ADD SWAP1 JUMP JUMPDEST CALLDATALOAD PUSH1 0x1 PUSH1 0x1 PUSH1 0xA0 SHL SUB DUP2 AND DUP2 SUB PUSH2 0x1592 JUMPI SWAP1 JUMP JUMPDEST SWAP2 SWAP1 DUP2 LT ISZERO PUSH2 0x1D5A JUMPI PUSH1 0x7 SHL ADD SWAP1 JUMP JUMPDEST SWAP2 SWAP1 DUP2 LT ISZERO PUSH2 0x1D5A JUMPI PUSH1 0x5 SHL ADD SWAP1 JUMP JUMPDEST CALLDATALOAD DUP1 ISZERO ISZERO DUP2 SUB PUSH2 0x1592 JUMPI SWAP1 JUMP JUMPDEST SWAP1 DUP1 PUSH1 0x20 SWAP4 SWAP3 DUP2 DUP5 MSTORE DUP5 DUP5 ADD CALLDATACOPY PUSH1 0x0 DUP3 DUP3 ADD DUP5 ADD MSTORE PUSH1 0x1F ADD PUSH1 0x1F NOT AND ADD ADD SWAP1 JUMP JUMPDEST SWAP3 SWAP2 PUSH2 0x17D0 SWAP5 SWAP3 PUSH2 0x1DC8 SWAP3 PUSH1 0x1 DUP1 PUSH1 0xA0 SHL SUB AND DUP6 MSTORE PUSH1 0x60 PUSH1 0x20 DUP7 ADD MSTORE PUSH1 0x60 DUP6 ADD SWAP2 PUSH2 0x1EDC JUMP JUMPDEST SWAP2 SWAP1 DUP2 LT ISZERO PUSH2 0x1D5A JUMPI PUSH1 0x60 MUL ADD SWAP1 JUMP JUMPDEST PUSH1 0x2 PUSH1 0x0 SLOAD EQ PUSH2 0x1F44 JUMPI PUSH1 0x2 PUSH1 0x0 SSTORE JUMP JUMPDEST PUSH4 0x3EE5AEB5 PUSH1 0xE0 SHL PUSH1 0x0 MSTORE PUSH1 0x4 PUSH1 0x0 REVERT JUMPDEST PUSH1 0x0 SWAP3 PUSH1 0x1 PUSH1 0x1 PUSH1 0xA0 SHL SUB SWAP1 SWAP2 AND SWAP2 DUP3 ISZERO PUSH2 0x2041 JUMPI DUP2 MLOAD DUP1 ISZERO PUSH2 0x203A JUMPI DUP1 TIMESTAMP GT PUSH2 0x2028 JUMPI POP DUP2 MLOAD SWAP1 PUSH1 0xFF PUSH1 0x20 DUP5 ADD MLOAD AND SWAP3 PUSH1 0x60 PUSH1 0x40 DUP3 ADD MLOAD SWAP2 ADD MLOAD SWAP1 DUP6 EXTCODESIZE ISZERO PUSH2 0x2024 JUMPI PUSH1 0x40 MLOAD PUSH4 0xD505ACCF PUSH1 0xE0 SHL DUP2 MSTORE CALLER PUSH1 0x4 DUP3 ADD MSTORE ADDRESS PUSH1 0x24 DUP3 ADD MSTORE PUSH1 0x44 DUP2 ADD SWAP4 SWAP1 SWAP4 MSTORE PUSH1 0x64 DUP4 ADD SWAP4 SWAP1 SWAP4 MSTORE PUSH1 0xFF SWAP1 SWAP4 AND PUSH1 0x84 DUP3 ADD MSTORE PUSH1 0xA4 DUP2 ADD SWAP2 SWAP1 SWAP2 MSTORE PUSH1 0xC4 DUP2 ADD SWAP2 SWAP1 SWAP2 MSTORE DUP3 DUP2 DUP1 PUSH1 0xE4 DUP2 ADD JUMPDEST SUB DUP2 DUP4 DUP7 GAS CALL SWAP1 DUP2 PUSH2 0x2010 JUMPI JUMPDEST POP PUSH2 0x200C JUMPI PUSH4 0x1BFBC84F PUSH1 0xE2 SHL DUP3 MSTORE CALLER PUSH1 0x4 MSTORE PUSH1 0x24 MSTORE PUSH1 0x44 SWAP2 POP REVERT JUMPDEST POP POP JUMP JUMPDEST DUP4 PUSH2 0x201D SWAP2 SWAP5 SWAP3 SWAP5 PUSH2 0x1546 JUMP JUMPDEST SWAP2 CODESIZE PUSH2 0x1FF0 JUMP JUMPDEST DUP7 DUP1 REVERT JUMPDEST PUSH4 0x9E96B26F PUSH1 0xE0 SHL DUP6 MSTORE PUSH1 0x4 MSTORE PUSH1 0x24 DUP5 REVERT JUMPDEST POP POP POP POP POP JUMP JUMPDEST POP POP POP POP JUMP JUMPDEST PUSH1 0x20 DUP2 ADD DUP1 MLOAD SWAP1 SWAP4 SWAP3 SWAP1 PUSH1 0x1 PUSH1 0x1 PUSH1 0xA0 SHL SUB AND DUP1 ISZERO PUSH2 0x203A JUMPI DUP3 MLOAD PUSH1 0x1 PUSH1 0x1 PUSH1 0xA0 SHL SUB SWAP1 DUP2 AND SWAP3 AND DUP3 SUB PUSH2 0x21A9 JUMPI POP POP DUP3 MLOAD PUSH1 0x40 DUP3 DUP2 ADD DUP1 MLOAD SWAP2 MLOAD PUSH4 0x23B872DD PUSH1 0xE0 SHL DUP2 MSTORE CALLER PUSH1 0x4 DUP3 ADD MSTORE ADDRESS PUSH1 0x24 DUP3 ADD MSTORE PUSH1 0xFF DUP4 SWAP1 SAR SWAP3 DUP4 ADD SWAP1 SWAP3 XOR PUSH1 0x44 DUP4 ADD MSTORE SWAP5 SWAP1 SWAP4 SWAP3 SWAP2 PUSH1 0x20 SWAP1 DUP6 SWAP1 PUSH1 0x64 SWAP1 DUP3 SWAP1 PUSH1 0x0 SWAP1 PUSH1 0x1 PUSH1 0x1 PUSH1 0xA0 SHL SUB AND GAS CALL SWAP3 DUP4 ISZERO PUSH2 0x21F JUMPI PUSH1 0x20 SWAP5 PUSH1 0x0 SWAP5 PUSH2 0x218E JUMPI JUMPDEST POP DUP4 EQ PUSH2 0x214A JUMPI MLOAD SWAP1 MLOAD SWAP4 MLOAD PUSH1 0x40 MLOAD PUSH4 0xA9059CBB PUSH1 0xE0 SHL DUP2 MSTORE PUSH1 0x1 PUSH1 0x1 PUSH1 0xA0 SHL SUB SWAP6 DUP7 AND PUSH1 0x4 DUP3 ADD MSTORE PUSH1 0xFF DUP3 SWAP1 SAR SWAP2 DUP3 ADD SWAP1 SWAP2 XOR PUSH1 0x24 DUP3 ADD MSTORE SWAP4 DUP5 SWAP3 SWAP2 AND SWAP1 DUP3 SWAP1 DUP2 PUSH1 0x44 DUP2 ADD JUMPDEST SUB SWAP3 GAS CALL DUP1 ISZERO PUSH2 0x21F JUMPI PUSH2 0x212F JUMPI POP JUMP JUMPDEST PUSH2 0x2147 SWAP1 PUSH1 0x20 RETURNDATASIZE PUSH1 0x20 GT PUSH2 0x218 JUMPI PUSH2 0x209 DUP2 DUP4 PUSH2 0x1546 JUMP JUMPDEST POP JUMP JUMPDEST MLOAD SWAP1 MLOAD SWAP4 MLOAD PUSH1 0x40 MLOAD PUSH4 0x95EA7B3 PUSH1 0xE0 SHL DUP2 MSTORE PUSH1 0x1 PUSH1 0x1 PUSH1 0xA0 SHL SUB SWAP6 DUP7 AND PUSH1 0x4 DUP3 ADD MSTORE PUSH1 0xFF DUP3 SWAP1 SAR SWAP2 DUP3 ADD SWAP1 SWAP2 XOR PUSH1 0x24 DUP3 ADD MSTORE SWAP4 DUP5 SWAP3 SWAP2 AND SWAP1 DUP3 SWAP1 DUP2 PUSH1 0x44 DUP2 ADD PUSH2 0x211E JUMP JUMPDEST PUSH2 0x21A4 SWAP1 DUP7 RETURNDATASIZE DUP9 GT PUSH2 0x218 JUMPI PUSH2 0x209 DUP2 DUP4 PUSH2 0x1546 JUMP JUMPDEST PUSH2 0x20D7 JUMP JUMPDEST PUSH4 0x5876E711 PUSH1 0xE0 SHL PUSH1 0x0 MSTORE PUSH1 0x4 MSTORE PUSH1 0x24 MSTORE PUSH1 0x44 PUSH1 0x0 REVERT JUMPDEST PUSH1 0x20 DUP2 ADD MLOAD PUSH1 0x1 PUSH1 0x1 PUSH1 0xA0 SHL SUB AND DUP1 PUSH2 0x2210 JUMPI POP PUSH1 0x0 DUP1 DUP1 DUP1 SWAP4 PUSH1 0x40 PUSH1 0x1 DUP1 PUSH1 0xA0 SHL SUB DUP3 MLOAD AND SWAP2 ADD MLOAD SWAP1 DUP2 PUSH1 0xFF SAR DUP1 SWAP3 ADD SWAP2 DUP4 SWAP3 DUP2 DUP2 EQ PUSH2 0x2206 JUMPI JUMPDEST XOR SWAP2 CALL ISZERO PUSH2 0x21F JUMPI JUMP JUMPDEST PUSH2 0x8FC SWAP4 POP PUSH2 0x21FC JUMP JUMPDEST DUP2 MLOAD PUSH1 0x40 SWAP3 DUP4 ADD MLOAD SWAP3 MLOAD PUSH4 0xA9059CBB PUSH1 0xE0 SHL DUP2 MSTORE PUSH1 0x1 PUSH1 0x1 PUSH1 0xA0 SHL SUB SWAP1 SWAP2 AND PUSH1 0x4 DUP3 ADD MSTORE PUSH1 0xFF DUP4 SWAP1 SAR SWAP3 DUP4 ADD SWAP1 SWAP3 XOR PUSH1 0x24 DUP4 ADD MSTORE PUSH1 0x20 SWAP1 DUP3 SWAP1 DUP2 PUSH1 0x0 DUP2 PUSH1 0x44 DUP2 ADD PUSH2 0x211E JUMP JUMPDEST PUSH1 0x20 DUP2 ADD DUP1 MLOAD SWAP1 SWAP2 SWAP1 PUSH1 0x0 SWAP1 PUSH1 0x1 PUSH1 0x1 PUSH1 0xA0 SHL SUB AND DUP1 PUSH2 0x22C7 JUMPI POP POP DUP1 MLOAD PUSH1 0x1 PUSH1 0x1 PUSH1 0xA0 SHL SUB AND BALANCE JUMPDEST PUSH1 0x40 DUP3 ADD MLOAD SWAP3 DUP4 PUSH1 0xFF SAR DUP1 DUP6 ADD XOR DUP3 LT PUSH2 0x2299 JUMPI POP POP POP POP JUMP JUMPDEST MLOAD SWAP2 MLOAD PUSH1 0x40 MLOAD PUSH4 0xD87031F9 PUSH1 0xE0 SHL DUP2 MSTORE SWAP4 DUP5 SWAP4 PUSH2 0x26B SWAP4 SWAP3 PUSH1 0x1 PUSH1 0x1 PUSH1 0xA0 SHL SUB SWAP1 DUP2 AND SWAP2 AND PUSH1 0x4 DUP7 ADD PUSH2 0x1E4F JUMP JUMPDEST PUSH1 0x20 PUSH1 0x1 DUP1 PUSH1 0xA0 SHL SUB DUP5 MLOAD AND PUSH1 0x24 PUSH1 0x40 MLOAD DUP1 SWAP5 DUP2 SWAP4 PUSH4 0x70A08231 PUSH1 0xE0 SHL DUP4 MSTORE PUSH1 0x4 DUP4 ADD MSTORE GAS STATICCALL SWAP2 DUP3 ISZERO PUSH2 0x233A JUMPI DUP1 SWAP3 PUSH2 0x2302 JUMPI JUMPDEST POP POP PUSH2 0x227F JUMP JUMPDEST SWAP1 SWAP2 POP PUSH1 0x20 DUP3 RETURNDATASIZE PUSH1 0x20 GT PUSH2 0x2332 JUMPI JUMPDEST DUP2 PUSH2 0x231E PUSH1 0x20 SWAP4 DUP4 PUSH2 0x1546 JUMP JUMPDEST DUP2 ADD SUB SLT PUSH2 0x232F JUMPI POP MLOAD CODESIZE DUP1 PUSH2 0x22FB JUMP JUMPDEST DUP1 REVERT JUMPDEST RETURNDATASIZE SWAP2 POP PUSH2 0x2311 JUMP JUMPDEST PUSH1 0x40 MLOAD SWAP1 RETURNDATASIZE SWAP1 DUP3 RETURNDATACOPY RETURNDATASIZE SWAP1 REVERT JUMPDEST PUSH1 0x20 DUP2 DUP4 SUB SLT PUSH2 0x1592 JUMPI DUP1 MLOAD SWAP1 PUSH1 0x1 PUSH1 0x1 PUSH1 0x40 SHL SUB DUP3 GT PUSH2 0x1592 JUMPI ADD DUP2 PUSH1 0x1F DUP3 ADD SLT ISZERO PUSH2 0x1592 JUMPI DUP1 MLOAD PUSH2 0x2378 DUP2 PUSH2 0x1763 JUMP JUMPDEST SWAP3 PUSH2 0x2386 PUSH1 0x40 MLOAD SWAP5 DUP6 PUSH2 0x1546 JUMP JUMPDEST DUP2 DUP5 MSTORE PUSH1 0x20 DUP3 DUP5 ADD ADD GT PUSH2 0x1592 JUMPI PUSH2 0x17D0 SWAP2 PUSH1 0x20 DUP1 DUP6 ADD SWAP2 ADD PUSH2 0x18AC JUMP JUMPDEST SWAP1 DUP2 PUSH1 0x20 SWAP2 SUB SLT PUSH2 0x1592 JUMPI MLOAD PUSH1 0xFF DUP2 AND DUP2 SUB PUSH2 0x1592 JUMPI SWAP1 JUMP JUMPDEST PUSH1 0x40 MLOAD SWAP1 PUSH2 0x23CC PUSH1 0x40 DUP4 PUSH2 0x1546 JUMP JUMPDEST PUSH1 0x3 DUP3 MSTORE PUSH3 0x8AA89 PUSH1 0xEB SHL PUSH1 0x20 DUP4 ADD MSTORE JUMP JUMPDEST PUSH1 0x20 DUP2 MLOAD SWAP2 ADD MLOAD SWAP1 PUSH1 0x20 DUP2 LT PUSH2 0x23F2 JUMPI POP SWAP1 JUMP JUMPDEST PUSH1 0x0 NOT SWAP1 PUSH1 0x20 SUB PUSH1 0x3 SHL SHL AND SWAP1 JUMP JUMPDEST DUP1 MLOAD PUSH1 0x20 ADD MLOAD PUSH1 0x1 PUSH1 0x1 PUSH1 0xA0 SHL SUB AND DUP1 PUSH2 0x250B JUMPI POP PUSH2 0x241E PUSH2 0x23BD JUMP JUMPDEST PUSH1 0x12 JUMPDEST PUSH2 0x2454 PUSH1 0x40 MLOAD PUSH2 0x244F PUSH1 0x20 DUP3 DUP7 MLOAD PUSH2 0x243E DUP2 DUP5 DUP5 ADD DUP6 DUP12 ADD PUSH2 0x18AC JUMP JUMPDEST DUP2 ADD SUB ADD PUSH1 0x1F NOT DUP2 ADD DUP4 MSTORE DUP3 PUSH2 0x1546 JUMP JUMPDEST PUSH2 0x23DE JUMP JUMPDEST SWAP2 PUSH1 0x20 DUP5 ADD SWAP3 PUSH2 0x247B DUP5 MLOAD PUSH2 0x244F PUSH1 0x20 PUSH1 0x40 MLOAD DUP4 PUSH2 0x243E DUP3 SWAP6 MLOAD DUP1 SWAP3 DUP6 DUP1 DUP7 ADD SWAP2 ADD PUSH2 0x18AC JUMP JUMPDEST EQ DUP1 ISZERO SWAP1 PUSH2 0x24F7 JUMPI JUMPDEST PUSH2 0x248E JUMPI POP POP POP POP JUMP JUMPDEST PUSH2 0x24EC PUSH1 0xFF SWAP2 DUP3 PUSH1 0x40 PUSH1 0x1 DUP1 PUSH1 0xA0 SHL SUB PUSH1 0x20 DUP10 MLOAD ADD MLOAD AND SWAP7 MLOAD SWAP8 ADD MLOAD AND SWAP1 PUSH2 0x24D5 PUSH1 0x40 MLOAD SWAP8 DUP9 SWAP8 PUSH4 0x55918519 PUSH1 0xE0 SHL DUP10 MSTORE PUSH1 0x4 DUP10 ADD MSTORE PUSH1 0xA0 PUSH1 0x24 DUP10 ADD MSTORE PUSH1 0xA4 DUP9 ADD SWAP1 PUSH2 0x18CF JUMP JUMPDEST SWAP2 PUSH1 0x44 DUP8 ADD MSTORE PUSH1 0x3 NOT DUP7 DUP4 SUB ADD PUSH1 0x64 DUP8 ADD MSTORE PUSH2 0x18CF JUMP JUMPDEST SWAP2 AND PUSH1 0x84 DUP4 ADD MSTORE SUB SWAP1 REVERT JUMPDEST POP PUSH1 0xFF PUSH1 0x40 DUP6 ADD MLOAD AND PUSH1 0xFF DUP4 AND EQ ISZERO PUSH2 0x2484 JUMP JUMPDEST PUSH1 0x0 PUSH1 0x4 SWAP2 PUSH1 0x40 MLOAD SWAP3 DUP4 DUP1 SWAP3 PUSH4 0x95D89B41 PUSH1 0xE0 SHL DUP3 MSTORE GAS STATICCALL SWAP1 DUP2 ISZERO PUSH2 0x21F JUMPI PUSH1 0x0 SWAP2 PUSH2 0x25A0 JUMPI JUMPDEST POP DUP2 MLOAD PUSH1 0x20 SWAP1 DUP2 ADD MLOAD PUSH1 0x40 MLOAD PUSH4 0x313CE567 PUSH1 0xE0 SHL DUP2 MSTORE SWAP2 SWAP1 DUP3 SWAP1 PUSH1 0x4 SWAP1 DUP3 SWAP1 PUSH1 0x1 PUSH1 0x1 PUSH1 0xA0 SHL SUB AND GAS STATICCALL SWAP1 DUP2 ISZERO PUSH2 0x21F JUMPI PUSH1 0x0 SWAP2 PUSH2 0x2571 JUMPI JUMPDEST POP PUSH2 0x2421 JUMP JUMPDEST PUSH2 0x2593 SWAP2 POP PUSH1 0x20 RETURNDATASIZE PUSH1 0x20 GT PUSH2 0x2599 JUMPI JUMPDEST PUSH2 0x258B DUP2 DUP4 PUSH2 0x1546 JUMP JUMPDEST DUP2 ADD SWAP1 PUSH2 0x23A4 JUMP JUMPDEST CODESIZE PUSH2 0x256B JUMP JUMPDEST POP RETURNDATASIZE PUSH2 0x2581 JUMP JUMPDEST PUSH2 0x25BD SWAP2 POP RETURNDATASIZE DUP1 PUSH1 0x0 DUP4 RETURNDATACOPY PUSH2 0x25B5 DUP2 DUP4 PUSH2 0x1546 JUMP JUMPDEST DUP2 ADD SWAP1 PUSH2 0x2346 JUMP JUMPDEST CODESIZE PUSH2 0x2532 JUMP JUMPDEST PUSH1 0x0 SWAP1 PUSH1 0x1 PUSH1 0x1 PUSH1 0xA0 SHL SUB AND DUP1 PUSH2 0x25DA JUMPI POP POP BALANCE SWAP1 JUMP JUMPDEST PUSH1 0x40 MLOAD PUSH4 0x70A08231 PUSH1 0xE0 SHL DUP2 MSTORE PUSH1 0x1 PUSH1 0x1 PUSH1 0xA0 SHL SUB SWAP1 SWAP4 AND PUSH1 0x4 DUP5 ADD MSTORE SWAP1 SWAP2 SWAP1 PUSH1 0x20 SWAP1 DUP3 SWAP1 PUSH1 0x24 SWAP1 DUP3 SWAP1 GAS STATICCALL SWAP2 DUP3 ISZERO PUSH2 0x233A JUMPI DUP1 SWAP3 PUSH2 0x2618 JUMPI POP POP SWAP1 JUMP JUMPDEST SWAP1 SWAP2 POP PUSH1 0x20 DUP3 RETURNDATASIZE PUSH1 0x20 GT PUSH2 0x2641 JUMPI JUMPDEST DUP2 PUSH2 0x2634 PUSH1 0x20 SWAP4 DUP4 PUSH2 0x1546 JUMP JUMPDEST DUP2 ADD SUB SLT PUSH2 0x232F JUMPI POP MLOAD SWAP1 JUMP JUMPDEST RETURNDATASIZE SWAP2 POP PUSH2 0x2627 JUMP JUMPDEST SWAP1 CALLDATALOAD SWAP1 PUSH1 0x1E NOT DUP2 CALLDATASIZE SUB ADD DUP3 SLT ISZERO PUSH2 0x1592 JUMPI ADD DUP1 CALLDATALOAD SWAP1 PUSH1 0x1 PUSH1 0x1 PUSH1 0x40 SHL SUB DUP3 GT PUSH2 0x1592 JUMPI PUSH1 0x20 ADD SWAP2 DUP2 CALLDATASIZE SUB DUP4 SGT PUSH2 0x1592 JUMPI JUMP JUMPDEST CALLDATALOAD PUSH1 0xFF DUP2 AND DUP2 SUB PUSH2 0x1592 JUMPI SWAP1 JUMP JUMPDEST PUSH1 0x20 DUP2 ADD SWAP1 PUSH1 0x1 PUSH1 0x1 PUSH1 0xA0 SHL SUB PUSH2 0x269F DUP4 PUSH2 0x1E9B JUMP JUMPDEST AND PUSH2 0x27B5 JUMPI PUSH2 0x26AC PUSH2 0x23BD JUMP JUMPDEST SWAP1 PUSH1 0x12 SWAP2 JUMPDEST PUSH1 0x40 MLOAD PUSH1 0x20 DUP2 ADD SWAP1 PUSH2 0x26CE PUSH1 0x20 DUP3 DUP6 MLOAD PUSH2 0x243E DUP2 DUP8 DUP6 DUP11 ADD PUSH2 0x18AC JUMP JUMPDEST MLOAD SWAP1 KECCAK256 SWAP4 PUSH1 0x60 DUP4 ADD SWAP5 PUSH2 0x26E1 DUP7 DUP6 PUSH2 0x2649 JUMP JUMPDEST PUSH2 0x2709 PUSH1 0x20 PUSH1 0x40 MLOAD DUP4 DUP2 SWAP5 DUP4 DUP4 ADD SWAP7 DUP8 CALLDATACOPY DUP2 ADD PUSH1 0x0 DUP4 DUP3 ADD MSTORE SUB ADD PUSH1 0x1F NOT DUP2 ADD DUP4 MSTORE DUP3 PUSH2 0x1546 JUMP JUMPDEST MLOAD SWAP1 KECCAK256 EQ DUP1 ISZERO SWAP1 PUSH2 0x279A JUMPI JUMPDEST PUSH2 0x2720 JUMPI POP POP POP POP POP JUMP JUMPDEST PUSH1 0x80 SWAP6 POP SWAP2 PUSH2 0x24EC SWAP2 PUSH1 0xFF PUSH2 0x2782 PUSH2 0x274E PUSH2 0x2745 PUSH2 0x273E DUP5 SWAP9 PUSH2 0x1E9B JUMP JUMPDEST SWAP10 DUP7 PUSH2 0x2649 JUMP JUMPDEST SWAP11 SWAP1 SWAP6 ADD PUSH2 0x267B JUMP JUMPDEST PUSH1 0x40 MLOAD PUSH4 0x55918519 PUSH1 0xE0 SHL DUP2 MSTORE PUSH1 0x1 PUSH1 0x1 PUSH1 0xA0 SHL SUB SWAP1 SWAP10 AND PUSH1 0x4 DUP11 ADD MSTORE PUSH1 0xA0 PUSH1 0x24 DUP11 ADD MSTORE SWAP8 SWAP9 DUP10 SWAP9 SWAP5 PUSH1 0xA4 DUP11 ADD SWAP2 SWAP1 PUSH2 0x1EDC JUMP JUMPDEST SWAP3 AND PUSH1 0x44 DUP8 ADD MSTORE DUP6 DUP3 SUB PUSH1 0x3 NOT ADD PUSH1 0x64 DUP8 ADD MSTORE PUSH2 0x18CF JUMP JUMPDEST POP PUSH1 0xFF PUSH2 0x27A9 PUSH1 0x80 DUP6 ADD PUSH2 0x267B JUMP JUMPDEST AND PUSH1 0xFF DUP6 AND EQ ISZERO PUSH2 0x2715 JUMP JUMPDEST PUSH1 0x4 PUSH1 0x0 PUSH1 0x1 PUSH1 0x1 PUSH1 0xA0 SHL SUB PUSH2 0x27CA DUP6 PUSH2 0x1E9B JUMP JUMPDEST AND PUSH1 0x40 MLOAD SWAP3 DUP4 DUP1 SWAP3 PUSH4 0x95D89B41 PUSH1 0xE0 SHL DUP3 MSTORE GAS STATICCALL SWAP1 DUP2 ISZERO PUSH2 0x21F JUMPI PUSH1 0x0 SWAP2 PUSH2 0x284D JUMPI JUMPDEST POP SWAP1 PUSH1 0x4 PUSH1 0x20 PUSH1 0x1 PUSH1 0x1 PUSH1 0xA0 SHL SUB PUSH2 0x2804 DUP7 PUSH2 0x1E9B JUMP JUMPDEST AND PUSH1 0x40 MLOAD SWAP3 DUP4 DUP1 SWAP3 PUSH4 0x313CE567 PUSH1 0xE0 SHL DUP3 MSTORE GAS STATICCALL SWAP1 DUP2 ISZERO PUSH2 0x21F JUMPI PUSH1 0x0 SWAP2 PUSH2 0x282E JUMPI JUMPDEST POP SWAP2 PUSH2 0x26B1 JUMP JUMPDEST PUSH2 0x2847 SWAP2 POP PUSH1 0x20 RETURNDATASIZE PUSH1 0x20 GT PUSH2 0x2599 JUMPI PUSH2 0x258B DUP2 DUP4 PUSH2 0x1546 JUMP JUMPDEST CODESIZE PUSH2 0x2827 JUMP JUMPDEST PUSH2 0x2862 SWAP2 POP RETURNDATASIZE DUP1 PUSH1 0x0 DUP4 RETURNDATACOPY PUSH2 0x25B5 DUP2 DUP4 PUSH2 0x1546 JUMP JUMPDEST CODESIZE PUSH2 0x27ED JUMP JUMPDEST PUSH1 0x0 SWAP3 PUSH1 0x1 PUSH1 0x1 PUSH1 0xA0 SHL SUB SWAP1 SWAP2 AND SWAP2 SWAP1 DUP3 ISZERO PUSH2 0x2041 JUMPI DUP1 CALLDATALOAD DUP1 ISZERO PUSH2 0x203A JUMPI DUP1 TIMESTAMP GT PUSH2 0x2028 JUMPI PUSH2 0x2899 PUSH1 0x20 DUP4 ADD PUSH2 0x267B JUMP JUMPDEST SWAP2 DUP5 EXTCODESIZE ISZERO PUSH2 0x28F2 JUMPI PUSH1 0x40 DUP1 MLOAD PUSH4 0xD505ACCF PUSH1 0xE0 SHL DUP2 MSTORE CALLER PUSH1 0x4 DUP3 ADD MSTORE ADDRESS PUSH1 0x24 DUP3 ADD MSTORE PUSH1 0x44 DUP2 ADD SWAP6 SWAP1 SWAP6 MSTORE PUSH1 0x64 DUP6 ADD SWAP3 SWAP1 SWAP3 MSTORE PUSH1 0xFF SWAP1 SWAP3 AND PUSH1 0x84 DUP5 ADD MSTORE DUP2 ADD CALLDATALOAD PUSH1 0xA4 DUP4 ADD MSTORE PUSH1 0x60 ADD CALLDATALOAD PUSH1 0xC4 DUP3 ADD MSTORE DUP3 DUP2 DUP1 PUSH1 0xE4 DUP2 ADD PUSH2 0x1FE3 JUMP JUMPDEST DUP6 DUP1 REVERT JUMPDEST SWAP1 PUSH1 0x20 DUP3 ADD SWAP1 PUSH1 0x1 PUSH1 0x1 PUSH1 0xA0 SHL SUB PUSH2 0x290D DUP4 PUSH2 0x1E9B JUMP JUMPDEST AND ISZERO PUSH2 0x2041 JUMPI PUSH2 0x291C DUP4 PUSH2 0x1E9B JUMP JUMPDEST PUSH1 0x1 PUSH1 0x1 PUSH1 0xA0 SHL SUB SWAP2 DUP3 AND SWAP2 AND SUB PUSH2 0x2A64 JUMPI PUSH1 0x1 PUSH1 0x1 PUSH1 0xA0 SHL SUB PUSH2 0x293F DUP3 PUSH2 0x1E9B JUMP JUMPDEST PUSH1 0x40 DUP1 MLOAD PUSH4 0x23B872DD PUSH1 0xE0 SHL DUP2 MSTORE CALLER PUSH1 0x4 DUP3 ADD MSTORE ADDRESS PUSH1 0x24 DUP3 ADD MSTORE SWAP1 DUP6 ADD CALLDATALOAD PUSH1 0xFF DUP2 SWAP1 SAR SWAP1 DUP2 ADD XOR PUSH1 0x44 DUP3 ADD DUP2 SWAP1 MSTORE SWAP6 SWAP3 SWAP1 SWAP2 PUSH1 0x20 SWAP2 DUP4 SWAP2 PUSH1 0x64 SWAP2 DUP4 SWAP2 PUSH1 0x0 SWAP2 AND GAS CALL DUP1 ISZERO PUSH2 0x21F JUMPI PUSH2 0x2A47 JUMPI JUMPDEST POP ISZERO PUSH2 0x29F0 JUMPI PUSH2 0x211E SWAP3 PUSH1 0x20 SWAP3 SWAP1 SWAP2 PUSH2 0x29B8 SWAP1 PUSH1 0x1 PUSH1 0x1 PUSH1 0xA0 SHL SUB SWAP1 PUSH2 0x29B1 SWAP1 PUSH2 0x1E9B JUMP JUMPDEST AND SWAP2 PUSH2 0x1E9B JUMP JUMPDEST PUSH1 0x40 MLOAD PUSH4 0xA9059CBB PUSH1 0xE0 SHL DUP2 MSTORE PUSH1 0x1 PUSH1 0x1 PUSH1 0xA0 SHL SUB SWAP1 SWAP2 AND PUSH1 0x4 DUP3 ADD MSTORE PUSH1 0x24 DUP2 ADD SWAP3 SWAP1 SWAP3 MSTORE SWAP1 SWAP3 DUP4 SWAP2 SWAP1 DUP3 SWAP1 PUSH1 0x0 SWAP1 DUP3 SWAP1 PUSH1 0x44 DUP3 ADD SWAP1 JUMP JUMPDEST PUSH2 0x211E SWAP3 PUSH1 0x20 SWAP3 SWAP1 SWAP2 PUSH2 0x2A0F SWAP1 PUSH1 0x1 PUSH1 0x1 PUSH1 0xA0 SHL SUB SWAP1 PUSH2 0x29B1 SWAP1 PUSH2 0x1E9B JUMP JUMPDEST PUSH1 0x40 MLOAD PUSH4 0x95EA7B3 PUSH1 0xE0 SHL DUP2 MSTORE PUSH1 0x1 PUSH1 0x1 PUSH1 0xA0 SHL SUB SWAP1 SWAP2 AND PUSH1 0x4 DUP3 ADD MSTORE PUSH1 0x24 DUP2 ADD SWAP3 SWAP1 SWAP3 MSTORE SWAP1 SWAP3 DUP4 SWAP2 SWAP1 DUP3 SWAP1 PUSH1 0x0 SWAP1 DUP3 SWAP1 PUSH1 0x44 DUP3 ADD SWAP1 JUMP JUMPDEST PUSH2 0x2A5F SWAP1 PUSH1 0x20 RETURNDATASIZE PUSH1 0x20 GT PUSH2 0x218 JUMPI PUSH2 0x209 DUP2 DUP4 PUSH2 0x1546 JUMP JUMPDEST PUSH2 0x298C JUMP JUMPDEST PUSH2 0x2A70 PUSH2 0x2A76 SWAP2 PUSH2 0x1E9B JUMP JUMPDEST SWAP2 PUSH2 0x1E9B JUMP JUMPDEST PUSH4 0x5876E711 PUSH1 0xE0 SHL PUSH1 0x0 SWAP1 DUP2 MSTORE PUSH1 0x1 PUSH1 0x1 PUSH1 0xA0 SHL SUB SWAP3 DUP4 AND PUSH1 0x4 MSTORE SWAP2 AND PUSH1 0x24 MSTORE PUSH1 0x44 SWAP1 REVERT JUMPDEST PUSH1 0x20 DUP2 ADD PUSH1 0x1 PUSH1 0x1 PUSH1 0xA0 SHL SUB PUSH2 0x2AB0 DUP3 PUSH2 0x1E9B JUMP JUMPDEST AND PUSH2 0x2AF2 JUMPI POP PUSH1 0x0 SWAP1 DUP2 SWAP1 DUP2 SWAP1 DUP2 SWAP1 PUSH1 0x40 PUSH1 0x1 PUSH1 0x1 PUSH1 0xA0 SHL SUB PUSH2 0x2AD2 DUP4 PUSH2 0x1E9B JUMP JUMPDEST AND SWAP2 ADD CALLDATALOAD SWAP1 DUP2 PUSH1 0xFF SAR DUP1 SWAP3 ADD SWAP2 DUP4 SWAP3 DUP2 DUP2 EQ PUSH2 0x2206 JUMPI XOR SWAP2 CALL ISZERO PUSH2 0x21F JUMPI JUMP JUMPDEST PUSH1 0x20 SWAP1 PUSH1 0x0 SWAP1 PUSH1 0x1 PUSH1 0x1 PUSH1 0xA0 SHL SUB SWAP1 PUSH2 0x2B0A SWAP1 PUSH2 0x1E9B JUMP JUMPDEST AND PUSH1 0x40 PUSH2 0x2B16 DUP6 PUSH2 0x1E9B JUMP JUMPDEST PUSH1 0x40 MLOAD PUSH4 0xA9059CBB PUSH1 0xE0 SHL DUP2 MSTORE PUSH1 0x1 PUSH1 0x1 PUSH1 0xA0 SHL SUB SWAP1 SWAP2 AND PUSH1 0x4 DUP3 ADD MSTORE SWAP5 ADD CALLDATALOAD PUSH1 0xFF DUP2 SWAP1 SAR SWAP1 DUP2 ADD XOR PUSH1 0x24 DUP6 ADD MSTORE DUP4 SWAP2 DUP3 SWAP1 DUP2 PUSH1 0x44 DUP2 ADD PUSH2 0x211E JUMP JUMPDEST PUSH1 0x20 DUP2 ADD SWAP1 PUSH1 0x1 PUSH1 0x1 PUSH1 0xA0 SHL SUB PUSH2 0x2B68 DUP4 PUSH2 0x1E9B JUMP JUMPDEST PUSH1 0x0 SWAP2 AND PUSH2 0x2BC6 JUMPI POP PUSH2 0x2B7A DUP2 PUSH2 0x1E9B JUMP JUMPDEST BALANCE JUMPDEST PUSH1 0x40 DUP3 ADD CALLDATALOAD SWAP3 DUP4 PUSH1 0xFF SAR DUP1 DUP6 ADD XOR DUP3 LT PUSH2 0x2B96 JUMPI POP POP POP POP JUMP JUMPDEST SWAP1 PUSH2 0x2BAC PUSH2 0x2BA6 PUSH2 0x26B SWAP4 PUSH2 0x1E9B JUMP JUMPDEST SWAP4 PUSH2 0x1E9B JUMP JUMPDEST SWAP4 PUSH1 0x40 MLOAD SWAP5 DUP6 SWAP5 PUSH4 0xD87031F9 PUSH1 0xE0 SHL DUP7 MSTORE PUSH1 0x4 DUP7 ADD PUSH2 0x1E4F JUMP JUMPDEST PUSH1 0x1 PUSH1 0x1 PUSH1 0xA0 SHL SUB PUSH2 0x2BD7 DUP5 PUSH2 0x1E9B JUMP JUMPDEST AND PUSH1 0x20 PUSH2 0x2BE3 DUP5 PUSH2 0x1E9B JUMP JUMPDEST PUSH1 0x40 MLOAD PUSH4 0x70A08231 PUSH1 0xE0 SHL DUP2 MSTORE PUSH1 0x1 PUSH1 0x1 PUSH1 0xA0 SHL SUB SWAP1 SWAP2 AND PUSH1 0x4 DUP3 ADD MSTORE SWAP2 DUP3 SWAP1 PUSH1 0x24 SWAP1 DUP3 SWAP1 GAS STATICCALL SWAP2 DUP3 ISZERO PUSH2 0x233A JUMPI DUP1 SWAP3 PUSH2 0x2C1F JUMPI JUMPDEST POP POP PUSH2 0x2B7C JUMP JUMPDEST SWAP1 SWAP2 POP PUSH1 0x20 DUP3 RETURNDATASIZE PUSH1 0x20 GT PUSH2 0x2C4C JUMPI JUMPDEST DUP2 PUSH2 0x2C3B PUSH1 0x20 SWAP4 DUP4 PUSH2 0x1546 JUMP JUMPDEST DUP2 ADD SUB SLT PUSH2 0x232F JUMPI POP MLOAD CODESIZE DUP1 PUSH2 0x2C18 JUMP JUMPDEST RETURNDATASIZE SWAP2 POP PUSH2 0x2C2E JUMP INVALID LOG2 PUSH5 0x6970667358 0x22 SLT KECCAK256 0xE0 0xC OR DUP8 SGT JUMP 0xEC 0x4E DUP3 NUMBER 0xB9 0x2C TSTORE 0xD8 0xA6 MCOPY 0xB7 SLT 0xAB SWAP12 0xEE 0xD PUSH12 0xA4FE120373C8A39E5B64736F PUSH13 0x634300081B0033000000000000 "
        },
        "methodIdentifiers": {
          "permitAndProxyCall((address,address,int256)[],(address,address,int256)[],(uint256,uint8,bytes32,bytes32)[],bool[],address,bytes,(address,address,int256)[])": "3323a156",
          "permitAndProxyCallCalldata((address,address,int256)[],(address,address,int256)[],(uint256,uint8,bytes32,bytes32)[],bool[],address,bytes,(address,address,int256)[])": "d9bcc7a7",
          "permitAndProxyCallCalldataDiffs((address,address,int256)[],(address,address,int256)[],(uint256,uint8,bytes32,bytes32)[],bool[],address,bytes,(address,address,int256)[])": "cc337344",
          "permitAndProxyCallDiffs((address,address,int256)[],(address,address,int256)[],(uint256,uint8,bytes32,bytes32)[],bool[],address,bytes,(address,address,int256)[])": "87094efb",
          "permitAndProxyCallMetadata(((address,address,int256),string,uint8)[],((address,address,int256),string,uint8)[],(uint256,uint8,bytes32,bytes32)[],bool[],address,bytes,((address,address,int256),string,uint8)[])": "6a93f918",
          "permitAndProxyCallMetadataCalldata(((address,address,int256),string,uint8)[],((address,address,int256),string,uint8)[],(uint256,uint8,bytes32,bytes32)[],bool[],address,bytes,((address,address,int256),string,uint8)[])": "87429738",
          "permitAndProxyCallMetadataCalldataDiffs(((address,address,int256),string,uint8)[],((address,address,int256),string,uint8)[],(uint256,uint8,bytes32,bytes32)[],bool[],address,bytes,((address,address,int256),string,uint8)[])": "ccb583cf",
          "permitAndProxyCallMetadataDiffs(((address,address,int256),string,uint8)[],((address,address,int256),string,uint8)[],(uint256,uint8,bytes32,bytes32)[],bool[],address,bytes,((address,address,int256),string,uint8)[])": "aba3b64d"
        }
      },
      "userdoc": {
        "errors": {
          "CallFailed(address,bytes,bytes)": [
            {
              "notice": "Error thrown when a call fails"
            }
          ],
          "InsufficientBalance(address,address,int256,uint256)": [
            {
              "notice": "Error thrown when a balance is insufficient"
            }
          ],
          "InvalidMetadata(address,string,uint8,string,uint8)": [
            {
              "notice": "Error thrown when metadata is invalid"
            }
          ],
          "InvalidTransferFlagsLength(uint256,uint256)": [
            {
              "notice": "Error thrown when useTransferFlags length does not match approvals length"
            }
          ],
          "MaliciousApproveTarget(address,address)": [
            {
              "notice": "Error thrown when trying to approve tokens to an address other than callTarget"
            }
          ],
          "UnexpectedBalanceDiff(address,address,int256,int256)": [
            {
              "notice": "Error when actual diff != expected"
            }
          ]
        },
        "kind": "user",
        "methods": {
          "permitAndProxyCall((address,address,int256)[],(address,address,int256)[],(uint256,uint8,bytes32,bytes32)[],bool[],address,bytes,(address,address,int256)[])": {
            "notice": "Proxy call to a target contract with specified balances and approvals using permits"
          },
          "permitAndProxyCallCalldata((address,address,int256)[],(address,address,int256)[],(uint256,uint8,bytes32,bytes32)[],bool[],address,bytes,(address,address,int256)[])": {
            "notice": "Calldata version of proxyCall with permits"
          },
          "permitAndProxyCallCalldataDiffs((address,address,int256)[],(address,address,int256)[],(uint256,uint8,bytes32,bytes32)[],bool[],address,bytes,(address,address,int256)[])": {
            "notice": "Calldata version of proxyCall with balance diffs and permits"
          },
          "permitAndProxyCallDiffs((address,address,int256)[],(address,address,int256)[],(uint256,uint8,bytes32,bytes32)[],bool[],address,bytes,(address,address,int256)[])": {
            "notice": "Proxy call with balance diffs and permits"
          },
          "permitAndProxyCallMetadata(((address,address,int256),string,uint8)[],((address,address,int256),string,uint8)[],(uint256,uint8,bytes32,bytes32)[],bool[],address,bytes,((address,address,int256),string,uint8)[])": {
            "notice": "Proxy call with metadata and permits"
          },
          "permitAndProxyCallMetadataCalldata(((address,address,int256),string,uint8)[],((address,address,int256),string,uint8)[],(uint256,uint8,bytes32,bytes32)[],bool[],address,bytes,((address,address,int256),string,uint8)[])": {
            "notice": "Calldata version of proxyCall with metadata and permits"
          },
          "permitAndProxyCallMetadataCalldataDiffs(((address,address,int256),string,uint8)[],((address,address,int256),string,uint8)[],(uint256,uint8,bytes32,bytes32)[],bool[],address,bytes,((address,address,int256),string,uint8)[])": {
            "notice": "Calldata version of proxyCall with metadata diffs and permits"
          },
          "permitAndProxyCallMetadataDiffs(((address,address,int256),string,uint8)[],((address,address,int256),string,uint8)[],(uint256,uint8,bytes32,bytes32)[],bool[],address,bytes,((address,address,int256),string,uint8)[])": {
            "notice": "Proxy call with metadata diffs and permits"
          }
        },
        "notice": "Proxy contract for calling contracts with specified balances and approvals",
        "version": 1
      }
    }
  }
}