{
  "contracts/SafeRouter.sol": {
    "SafeRouter": {
      "abi": [
        {
          "inputs": [
            {
              "internalType": "uint256",
              "name": "provided",
              "type": "uint256"
            },
            {
              "internalType": "uint256",
              "name": "threshold",
              "type": "uint256"
            }
          ],
          "name": "InsufficientSafeSignatures",
          "type": "error"
        },
        {
          "inputs": [
            {
              "internalType": "address",
              "name": "token",
              "type": "address"
            },
            {
              "internalType": "string",
              "name": "expectedSymbol",
              "type": "string"
            },
            {
              "internalType": "uint8",
              "name": "expectedDecimals",
              "type": "uint8"
            },
            {
              "internalType": "string",
              "name": "actualSymbol",
              "type": "string"
            },
            {
              "internalType": "uint8",
              "name": "actualDecimals",
              "type": "uint8"
            }
          ],
          "name": "InvalidMetadata",
          "type": "error"
        },
        {
          "inputs": [
            {
              "internalType": "uint256",
              "name": "position",
              "type": "uint256"
            },
            {
              "internalType": "uint256",
              "name": "signatureCount",
              "type": "uint256"
            }
          ],
          "name": "InvalidRouterSignaturePosition",
          "type": "error"
        },
        {
          "inputs": [
            {
              "internalType": "uint256",
              "name": "threshold",
              "type": "uint256"
            }
          ],
          "name": "InvalidSafeThreshold",
          "type": "error"
        },
        {
          "inputs": [
            {
              "internalType": "uint256",
              "name": "length",
              "type": "uint256"
            }
          ],
          "name": "InvalidSignaturesLength",
          "type": "error"
        },
        {
          "inputs": [
            {
              "internalType": "uint256",
              "name": "metaLength",
              "type": "uint256"
            },
            {
              "internalType": "uint256",
              "name": "balancesLength",
              "type": "uint256"
            }
          ],
          "name": "MetadataBalancesLengthMismatch",
          "type": "error"
        },
        {
          "inputs": [
            {
              "internalType": "address",
              "name": "caller",
              "type": "address"
            },
            {
              "internalType": "address",
              "name": "safe",
              "type": "address"
            }
          ],
          "name": "NotSafeOwner",
          "type": "error"
        },
        {
          "inputs": [
            {
              "internalType": "address",
              "name": "router",
              "type": "address"
            },
            {
              "internalType": "address",
              "name": "safe",
              "type": "address"
            }
          ],
          "name": "RouterNotSafeOwner",
          "type": "error"
        },
        {
          "inputs": [
            {
              "internalType": "address",
              "name": "safe",
              "type": "address"
            },
            {
              "internalType": "address",
              "name": "target",
              "type": "address"
            }
          ],
          "name": "SafeExecutionFailed",
          "type": "error"
        },
        {
          "inputs": [],
          "name": "UnauthorizedSafeExecution",
          "type": "error"
        },
        {
          "inputs": [
            {
              "internalType": "enum Enum.Operation",
              "name": "operation",
              "type": "uint8"
            }
          ],
          "name": "UnsupportedSafeOperation",
          "type": "error"
        },
        {
          "inputs": [
            {
              "internalType": "contract ISafe",
              "name": "safe",
              "type": "address"
            },
            {
              "components": [
                {
                  "internalType": "address",
                  "name": "to",
                  "type": "address"
                },
                {
                  "internalType": "uint256",
                  "name": "value",
                  "type": "uint256"
                },
                {
                  "internalType": "bytes",
                  "name": "data",
                  "type": "bytes"
                },
                {
                  "internalType": "enum Enum.Operation",
                  "name": "operation",
                  "type": "uint8"
                },
                {
                  "internalType": "uint256",
                  "name": "safeTxGas",
                  "type": "uint256"
                },
                {
                  "internalType": "uint256",
                  "name": "baseGas",
                  "type": "uint256"
                },
                {
                  "internalType": "uint256",
                  "name": "gasPrice",
                  "type": "uint256"
                },
                {
                  "internalType": "address",
                  "name": "gasToken",
                  "type": "address"
                },
                {
                  "internalType": "address payable",
                  "name": "refundReceiver",
                  "type": "address"
                },
                {
                  "internalType": "bytes",
                  "name": "signatures",
                  "type": "bytes"
                },
                {
                  "internalType": "uint256",
                  "name": "routerSigPosition",
                  "type": "uint256"
                }
              ],
              "internalType": "struct SafeRouter.SafeTx",
              "name": "safeTx",
              "type": "tuple"
            }
          ],
          "name": "executeSafeTransaction",
          "outputs": [],
          "stateMutability": "nonpayable",
          "type": "function"
        },
        {
          "inputs": [
            {
              "internalType": "contract IBalanceProxy",
              "name": "balanceProxy",
              "type": "address"
            },
            {
              "components": [
                {
                  "internalType": "address",
                  "name": "target",
                  "type": "address"
                },
                {
                  "internalType": "address",
                  "name": "token",
                  "type": "address"
                },
                {
                  "internalType": "int256",
                  "name": "balance",
                  "type": "int256"
                }
              ],
              "internalType": "struct IBalanceProxy.Balance[]",
              "name": "diffs",
              "type": "tuple[]"
            },
            {
              "internalType": "contract ISafe",
              "name": "safe",
              "type": "address"
            },
            {
              "components": [
                {
                  "internalType": "address",
                  "name": "to",
                  "type": "address"
                },
                {
                  "internalType": "uint256",
                  "name": "value",
                  "type": "uint256"
                },
                {
                  "internalType": "bytes",
                  "name": "data",
                  "type": "bytes"
                },
                {
                  "internalType": "enum Enum.Operation",
                  "name": "operation",
                  "type": "uint8"
                },
                {
                  "internalType": "uint256",
                  "name": "safeTxGas",
                  "type": "uint256"
                },
                {
                  "internalType": "uint256",
                  "name": "baseGas",
                  "type": "uint256"
                },
                {
                  "internalType": "uint256",
                  "name": "gasPrice",
                  "type": "uint256"
                },
                {
                  "internalType": "address",
                  "name": "gasToken",
                  "type": "address"
                },
                {
                  "internalType": "address payable",
                  "name": "refundReceiver",
                  "type": "address"
                },
                {
                  "internalType": "bytes",
                  "name": "signatures",
                  "type": "bytes"
                },
                {
                  "internalType": "uint256",
                  "name": "routerSigPosition",
                  "type": "uint256"
                }
              ],
              "internalType": "struct SafeRouter.SafeTx",
              "name": "safeTx",
              "type": "tuple"
            }
          ],
          "name": "safeExecuteWithDiffs",
          "outputs": [],
          "stateMutability": "nonpayable",
          "type": "function"
        },
        {
          "inputs": [
            {
              "internalType": "contract IBalanceProxy",
              "name": "balanceProxy",
              "type": "address"
            },
            {
              "components": [
                {
                  "internalType": "string",
                  "name": "symbol",
                  "type": "string"
                },
                {
                  "internalType": "uint8",
                  "name": "decimals",
                  "type": "uint8"
                }
              ],
              "internalType": "struct BalanceMetadata[]",
              "name": "meta",
              "type": "tuple[]"
            },
            {
              "components": [
                {
                  "internalType": "address",
                  "name": "target",
                  "type": "address"
                },
                {
                  "internalType": "address",
                  "name": "token",
                  "type": "address"
                },
                {
                  "internalType": "int256",
                  "name": "balance",
                  "type": "int256"
                }
              ],
              "internalType": "struct IBalanceProxy.Balance[]",
              "name": "diffs",
              "type": "tuple[]"
            },
            {
              "internalType": "contract ISafe",
              "name": "safe",
              "type": "address"
            },
            {
              "components": [
                {
                  "internalType": "address",
                  "name": "to",
                  "type": "address"
                },
                {
                  "internalType": "uint256",
                  "name": "value",
                  "type": "uint256"
                },
                {
                  "internalType": "bytes",
                  "name": "data",
                  "type": "bytes"
                },
                {
                  "internalType": "enum Enum.Operation",
                  "name": "operation",
                  "type": "uint8"
                },
                {
                  "internalType": "uint256",
                  "name": "safeTxGas",
                  "type": "uint256"
                },
                {
                  "internalType": "uint256",
                  "name": "baseGas",
                  "type": "uint256"
                },
                {
                  "internalType": "uint256",
                  "name": "gasPrice",
                  "type": "uint256"
                },
                {
                  "internalType": "address",
                  "name": "gasToken",
                  "type": "address"
                },
                {
                  "internalType": "address payable",
                  "name": "refundReceiver",
                  "type": "address"
                },
                {
                  "internalType": "bytes",
                  "name": "signatures",
                  "type": "bytes"
                },
                {
                  "internalType": "uint256",
                  "name": "routerSigPosition",
                  "type": "uint256"
                }
              ],
              "internalType": "struct SafeRouter.SafeTx",
              "name": "safeTx",
              "type": "tuple"
            }
          ],
          "name": "safeExecuteWithDiffsMeta",
          "outputs": [],
          "stateMutability": "nonpayable",
          "type": "function"
        },
        {
          "inputs": [
            {
              "internalType": "contract IBalanceProxy",
              "name": "balanceProxy",
              "type": "address"
            },
            {
              "components": [
                {
                  "internalType": "address",
                  "name": "target",
                  "type": "address"
                },
                {
                  "internalType": "address",
                  "name": "token",
                  "type": "address"
                },
                {
                  "internalType": "int256",
                  "name": "balance",
                  "type": "int256"
                }
              ],
              "internalType": "struct IBalanceProxy.Balance[]",
              "name": "postBalances",
              "type": "tuple[]"
            },
            {
              "internalType": "contract ISafe",
              "name": "safe",
              "type": "address"
            },
            {
              "components": [
                {
                  "internalType": "address",
                  "name": "to",
                  "type": "address"
                },
                {
                  "internalType": "uint256",
                  "name": "value",
                  "type": "uint256"
                },
                {
                  "internalType": "bytes",
                  "name": "data",
                  "type": "bytes"
                },
                {
                  "internalType": "enum Enum.Operation",
                  "name": "operation",
                  "type": "uint8"
                },
                {
                  "internalType": "uint256",
                  "name": "safeTxGas",
                  "type": "uint256"
                },
                {
                  "internalType": "uint256",
                  "name": "baseGas",
                  "type": "uint256"
                },
                {
                  "internalType": "uint256",
                  "name": "gasPrice",
                  "type": "uint256"
                },
                {
                  "internalType": "address",
                  "name": "gasToken",
                  "type": "address"
                },
                {
                  "internalType": "address payable",
                  "name": "refundReceiver",
                  "type": "address"
                },
                {
                  "internalType": "bytes",
                  "name": "signatures",
                  "type": "bytes"
                },
                {
                  "internalType": "uint256",
                  "name": "routerSigPosition",
                  "type": "uint256"
                }
              ],
              "internalType": "struct SafeRouter.SafeTx",
              "name": "safeTx",
              "type": "tuple"
            }
          ],
          "name": "safeExecuteWithPostBalances",
          "outputs": [],
          "stateMutability": "nonpayable",
          "type": "function"
        },
        {
          "inputs": [
            {
              "internalType": "contract IBalanceProxy",
              "name": "balanceProxy",
              "type": "address"
            },
            {
              "components": [
                {
                  "internalType": "string",
                  "name": "symbol",
                  "type": "string"
                },
                {
                  "internalType": "uint8",
                  "name": "decimals",
                  "type": "uint8"
                }
              ],
              "internalType": "struct BalanceMetadata[]",
              "name": "meta",
              "type": "tuple[]"
            },
            {
              "components": [
                {
                  "internalType": "address",
                  "name": "target",
                  "type": "address"
                },
                {
                  "internalType": "address",
                  "name": "token",
                  "type": "address"
                },
                {
                  "internalType": "int256",
                  "name": "balance",
                  "type": "int256"
                }
              ],
              "internalType": "struct IBalanceProxy.Balance[]",
              "name": "postBalances",
              "type": "tuple[]"
            },
            {
              "internalType": "contract ISafe",
              "name": "safe",
              "type": "address"
            },
            {
              "components": [
                {
                  "internalType": "address",
                  "name": "to",
                  "type": "address"
                },
                {
                  "internalType": "uint256",
                  "name": "value",
                  "type": "uint256"
                },
                {
                  "internalType": "bytes",
                  "name": "data",
                  "type": "bytes"
                },
                {
                  "internalType": "enum Enum.Operation",
                  "name": "operation",
                  "type": "uint8"
                },
                {
                  "internalType": "uint256",
                  "name": "safeTxGas",
                  "type": "uint256"
                },
                {
                  "internalType": "uint256",
                  "name": "baseGas",
                  "type": "uint256"
                },
                {
                  "internalType": "uint256",
                  "name": "gasPrice",
                  "type": "uint256"
                },
                {
                  "internalType": "address",
                  "name": "gasToken",
                  "type": "address"
                },
                {
                  "internalType": "address payable",
                  "name": "refundReceiver",
                  "type": "address"
                },
                {
                  "internalType": "bytes",
                  "name": "signatures",
                  "type": "bytes"
                },
                {
                  "internalType": "uint256",
                  "name": "routerSigPosition",
                  "type": "uint256"
                }
              ],
              "internalType": "struct SafeRouter.SafeTx",
              "name": "safeTx",
              "type": "tuple"
            }
          ],
          "name": "safeExecuteWithPostBalancesMeta",
          "outputs": [],
          "stateMutability": "nonpayable",
          "type": "function"
        }
      ],
      "devdoc": {
        "kind": "dev",
        "methods": {},
        "version": 1
      },
      "evm": {
        "bytecode": {
          "linkReferences": {},
          "object": "608080604052346015576111e3908161001b8239f35b600080fdfe6080604052600436101561001257600080fd5b60003560e01c80634674b94114610450578063510818c0146104285780637ce6cc45146103fb578063e48215b2146103bf5763ece10c061461005357600080fd5b34610352576040366003190112610352576004356001600160a01b03811680820361035257602435906001600160401b0382116103525781600401926101606003198436030112610352576100d084916100c2604051938492637670860360e11b60208501526024840161065e565b03601f198101835282610756565b6100dd600054913361117a565b036103ae576100f0610124830184610885565b9261014481013591604051631cea46b760e31b8152602081600481885afa9081156103a25760009161036d575b50600019810190811161035757604051602081019030825260006040820152600160f81b606082015260418152610155606182610756565b60418302928084046041149015171561035757604186029580870460411490151715610357578786116103525760009783871161034e57831161034a57916101c591602089869589806101dc990195039586948b6040519c8d9a878c013789019285840194855251938491610a3e565b01019182370186815203601f198101845283610756565b6101e585610a2a565b6101f26044830187610885565b929093606482013591600283101561034a5761021060e48201610a2a565b6101048201356001600160a01b038116929083900361034657916102c5939160c46020989796946102846102796040519c8d9b8c9b63353b090160e11b8d5260018060a01b031660048d0152602485013560248d015261014060448d01526101448c019161061a565b9660648a019061063b565b6084818101359089015260a48082013590890152013560c48701526001600160a01b031660e486015261010485015283820360031901610124850152610ad7565b038186865af190811561033b57839161030c575b50156102e3575080f35b6102ee604493610a2a565b6371995c9d60e11b83526004919091526001600160a01b0316602452fd5b61032e915060203d602011610334575b6103268183610756565b81019061078d565b386102d9565b503d61031c565b6040513d85823e3d90fd5b8980fd5b8780fd5b8880fd5b600080fd5b634e487b7160e01b600052601160045260246000fd5b906020823d60201161039a575b8161038760209383610756565b810103126103975750513861011d565b80fd5b3d915061037a565b6040513d6000823e3d90fd5b63f8ffbe2f60e01b60005260046000fd5b34610352576103f96103f46103d3366104a8565b96919592819481966103e589946107a5565b6103ef8a886108b7565b610afc565b61110a565b005b34610352576103f961040c3661056b565b93610419829493946107a5565b61042385836108b7565b611053565b34610352576103f96104393661056b565b93610446829493946107a5565b6103f485836108b7565b34610352576103f96104236103d3366104a8565b35906001600160a01b038216820361035257565b9181601f84011215610352578235916001600160401b038311610352576020808501946060850201011161035257565b60a0600319820112610352576004356001600160a01b03811681036103525791602435916001600160401b0383116103525780602384011215610352578260040135926001600160401b038411610352578160248560051b830101116103525760240192916044356001600160401b038111610352578261052b91600401610478565b909290916064356001600160a01b03811681036103525791608435906001600160401b038211610352576101609082900360031901126103525760040190565b6080600319820112610352576004356001600160a01b038116810361035257916024356001600160401b03811161035257826105a991600401610478565b909290916044356001600160a01b03811681036103525791606435906001600160401b038211610352576101609082900360031901126103525760040190565b9035601e19823603018112156103525701602081359101916001600160401b03821161035257813603831361035257565b908060209392818452848401376000828201840152601f01601f1916010190565b9060028210156106485752565b634e487b7160e01b600052602160045260246000fd5b6001600160a01b039182168152604060208201529061067c83610464565b166040820152602082013560608201526106af61069c60408401846105e9565b61016060808501526101a084019161061a565b60608301356002811015610352576106cb9060a084019061063b565b608083013560c083015260a083013560e083015260c083013561010083015260018060a01b036106fd60e08501610464565b166101208301526101008301356001600160a01b03811691908290036103525761074d61014091610180938386015261073a6101208701876105e9565b868303603f19016101608801529061061a565b93013591015290565b90601f801991011681019081106001600160401b0382111761077757604052565b634e487b7160e01b600052604160045260246000fd5b90816020910312610352575180151581036103525790565b6040516317aa5fb760e11b81523360048201526001600160a01b039190911690602081602481855afa9081156103a257600091610866575b501561084e576040516317aa5fb760e11b8152306004820152602081602481855afa9081156103a25760009161082f575b50156108175750565b63663cd0c560e11b6000523060045260245260446000fd5b610848915060203d602011610334576103268183610756565b3861080e565b634451317160e11b6000523360045260245260446000fd5b61087f915060203d602011610334576103268183610756565b386107dd565b903590601e198136030182121561035257018035906001600160401b0382116103525760200191813603831361035257565b606082013560028110801561035257816109eb575050604051631cea46b760e31b81529190602090839060049082906001600160a01b03165afa9182156103a2576000926109b7575b50600282106109a2576101208101604161091a8284610885565b90500661098357600019830192831161035757604161093c6101409284610885565b90500491013582811161096c5750818110610955575050565b633562c20f60e11b60005260045260245260446000fd5b636fe59b1d60e11b60005260045260245260446000fd5b61098c91610885565b9050630137b8c960e21b60005260045260246000fd5b50630bbeff0160e11b60005260045260246000fd5b90916020823d6020116109e3575b816109d260209383610756565b810103126103975750519038610900565b3d91506109c5565b63b284b01b60e01b600052156106485760045260246000fd5b9190811015610a14576060020190565b634e487b7160e01b600052603260045260246000fd5b356001600160a01b03811681036103525790565b60005b838110610a515750506000910152565b8181015183820152602001610a41565b909291926001600160401b0381116107775760405191610a8b601f8301601f191660200184610756565b829482845282820111610352576020610aa5930190610a3e565b565b9190811015610a145760051b81013590603e1981360301821215610352570190565b3560ff811681036103525790565b90602091610af081518092818552858086019101610a3e565b601f01601f1916010190565b919091838303610dc65760005b838110610b17575050505050565b60006001600160a01b03610b376020610b31858a89610a04565b01610a2a565b16610c9e57506040610b4b81519182610756565b600381526208aa8960eb1b60208201526012905b6040516020810190610b8d6020828551610b7c8187858a01610a3e565b81010301601f198101835282610756565b519020610ba4610b9e858988610aa7565b80610885565b610bcc602060405183819483830196873781016000838201520301601f198101835282610756565b51902014801590610c7f575b610be6575050600101610b09565b60ff610c5c610c286020610c2287610c1a610b9e828e9f868a9e9c9f610c749e610c1393610b3192610a04565b9e8b610aa7565b9d9098610aa7565b01610ac9565b604051635591851960e01b81526001600160a01b0390991660048a015260a060248a0152979889989460a48a01919061061a565b92166044870152858203600319016064870152610ad7565b911660848301520390fd5b5060ff610c926020610c22868a89610aa7565b1660ff83161415610bd8565b6004816001600160a01b03610cb96020610b31878c8b610a04565b16604051928380926395d89b4160e01b82525afa918215610dba578092610d62575b506004905060206001600160a01b03610cf982610b31878c8b610a04565b166040519283809263313ce56760e01b82525afa9081156103a257600091610d23575b5090610b5f565b6020813d8211610d5a575b81610d3b60209383610756565b81010312610d5657519060ff82168203610397575038610d1c565b5080fd5b3d9150610d2e565b9091503d8082843e610d748184610756565b820191602081840312610d56578051906001600160401b038211610db657019082601f8301121561039757508051610daf9291602001610a61565b3880610cdb565b8280fd5b604051903d90823e3d90fd5b5050630a7df64d60e41b60005260045260245260446000fd5b60405190606082018281106001600160401b038211176107775760405260006040838281528260208201520152565b60405190610e1d602083610756565b60008083528290805b818110610e3257505050565b6040519060408201918083106001600160401b0384111761077757602092604052610e5b610ddf565b815260008382015282828601015201610e26565b60405190610e7e602083610756565b600080835282815b828110610e9257505050565b602090610e9d610ddf565b82828501015201610e86565b602081830312610352578051906001600160401b03821161035257019080601f83011215610352578151610edf92602001610a61565b90565b94919390938060a0870160a088525260c08601949060005b8181106110055750505084840360208601526020808451958681520193019360005b818110610faf5750506001600160a01b031660408501528382036060850152610f459250610ad7565b9060808183039101526020808351928381520192019060005b818110610f6b5750505090565b9091926020606082610fa460019488516040809160018060a01b03815116845260018060a01b0360208201511660208501520151910152565b019401929101610f5e565b9091929360206080600192828951610fec8382516040809160018060a01b03815116845260018060a01b0360208201511660208501520151910152565b0151151560608201520196019101949392919094610f1c565b909192939495606080600192838060a01b0361102088610464565b168152838060a01b0361103560208901610464565b16602082015260408781013590820152019796959401929101610efa565b61108760009492611079604051978892637670860360e11b60208501526024840161065e565b03601f198101875286610756565b6001600160a01b03169061109b858361117a565b8455836110a6610e0e565b916110d16110b2610e6f565b60405163890e3add60e01b815298899788968795309260048801610ee2565b03925af180156103a2576110e7575b5060008055565b611103903d806000833e6110fb8183610756565b810190610ea9565b50386110e0565b61113060009492611079604051978892637670860360e11b60208501526024840161065e565b6001600160a01b031690611144858361117a565b84558361114f610e0e565b916110d161115b610e6f565b60405163ce9506f960e01b815298899788968795309260048801610ee2565b906111a76100c291604051928391602083019560018060a01b031686526040808401526060830190610ad7565b5190209056fea2646970667358221220e3c0e1658c59afdb0aa2d7b01c9d21cf65830f8022c2ef1ca2c3be270814037064736f6c634300081b0033",
          "opcodes": "PUSH1 0x80 DUP1 PUSH1 0x40 MSTORE CALLVALUE PUSH1 0x15 JUMPI PUSH2 0x11E3 SWAP1 DUP2 PUSH2 0x1B DUP3 CODECOPY RETURN JUMPDEST PUSH1 0x0 DUP1 REVERT INVALID PUSH1 0x80 PUSH1 0x40 MSTORE PUSH1 0x4 CALLDATASIZE LT ISZERO PUSH2 0x12 JUMPI PUSH1 0x0 DUP1 REVERT JUMPDEST PUSH1 0x0 CALLDATALOAD PUSH1 0xE0 SHR DUP1 PUSH4 0x4674B941 EQ PUSH2 0x450 JUMPI DUP1 PUSH4 0x510818C0 EQ PUSH2 0x428 JUMPI DUP1 PUSH4 0x7CE6CC45 EQ PUSH2 0x3FB JUMPI DUP1 PUSH4 0xE48215B2 EQ PUSH2 0x3BF JUMPI PUSH4 0xECE10C06 EQ PUSH2 0x53 JUMPI PUSH1 0x0 DUP1 REVERT JUMPDEST CALLVALUE PUSH2 0x352 JUMPI PUSH1 0x40 CALLDATASIZE PUSH1 0x3 NOT ADD SLT PUSH2 0x352 JUMPI PUSH1 0x4 CALLDATALOAD PUSH1 0x1 PUSH1 0x1 PUSH1 0xA0 SHL SUB DUP2 AND DUP1 DUP3 SUB PUSH2 0x352 JUMPI PUSH1 0x24 CALLDATALOAD SWAP1 PUSH1 0x1 PUSH1 0x1 PUSH1 0x40 SHL SUB DUP3 GT PUSH2 0x352 JUMPI DUP2 PUSH1 0x4 ADD SWAP3 PUSH2 0x160 PUSH1 0x3 NOT DUP5 CALLDATASIZE SUB ADD SLT PUSH2 0x352 JUMPI PUSH2 0xD0 DUP5 SWAP2 PUSH2 0xC2 PUSH1 0x40 MLOAD SWAP4 DUP5 SWAP3 PUSH4 0x76708603 PUSH1 0xE1 SHL PUSH1 0x20 DUP6 ADD MSTORE PUSH1 0x24 DUP5 ADD PUSH2 0x65E JUMP JUMPDEST SUB PUSH1 0x1F NOT DUP2 ADD DUP4 MSTORE DUP3 PUSH2 0x756 JUMP JUMPDEST PUSH2 0xDD PUSH1 0x0 SLOAD SWAP2 CALLER PUSH2 0x117A JUMP JUMPDEST SUB PUSH2 0x3AE JUMPI PUSH2 0xF0 PUSH2 0x124 DUP4 ADD DUP5 PUSH2 0x885 JUMP JUMPDEST SWAP3 PUSH2 0x144 DUP2 ADD CALLDATALOAD SWAP2 PUSH1 0x40 MLOAD PUSH4 0x1CEA46B7 PUSH1 0xE3 SHL DUP2 MSTORE PUSH1 0x20 DUP2 PUSH1 0x4 DUP2 DUP9 GAS STATICCALL SWAP1 DUP2 ISZERO PUSH2 0x3A2 JUMPI PUSH1 0x0 SWAP2 PUSH2 0x36D JUMPI JUMPDEST POP PUSH1 0x0 NOT DUP2 ADD SWAP1 DUP2 GT PUSH2 0x357 JUMPI PUSH1 0x40 MLOAD PUSH1 0x20 DUP2 ADD SWAP1 ADDRESS DUP3 MSTORE PUSH1 0x0 PUSH1 0x40 DUP3 ADD MSTORE PUSH1 0x1 PUSH1 0xF8 SHL PUSH1 0x60 DUP3 ADD MSTORE PUSH1 0x41 DUP2 MSTORE PUSH2 0x155 PUSH1 0x61 DUP3 PUSH2 0x756 JUMP JUMPDEST PUSH1 0x41 DUP4 MUL SWAP3 DUP1 DUP5 DIV PUSH1 0x41 EQ SWAP1 ISZERO OR ISZERO PUSH2 0x357 JUMPI PUSH1 0x41 DUP7 MUL SWAP6 DUP1 DUP8 DIV PUSH1 0x41 EQ SWAP1 ISZERO OR ISZERO PUSH2 0x357 JUMPI DUP8 DUP7 GT PUSH2 0x352 JUMPI PUSH1 0x0 SWAP8 DUP4 DUP8 GT PUSH2 0x34E JUMPI DUP4 GT PUSH2 0x34A JUMPI SWAP2 PUSH2 0x1C5 SWAP2 PUSH1 0x20 DUP10 DUP7 SWAP6 DUP10 DUP1 PUSH2 0x1DC SWAP10 ADD SWAP6 SUB SWAP6 DUP7 SWAP5 DUP12 PUSH1 0x40 MLOAD SWAP13 DUP14 SWAP11 DUP8 DUP13 ADD CALLDATACOPY DUP10 ADD SWAP3 DUP6 DUP5 ADD SWAP5 DUP6 MSTORE MLOAD SWAP4 DUP5 SWAP2 PUSH2 0xA3E JUMP JUMPDEST ADD ADD SWAP2 DUP3 CALLDATACOPY ADD DUP7 DUP2 MSTORE SUB PUSH1 0x1F NOT DUP2 ADD DUP5 MSTORE DUP4 PUSH2 0x756 JUMP JUMPDEST PUSH2 0x1E5 DUP6 PUSH2 0xA2A JUMP JUMPDEST PUSH2 0x1F2 PUSH1 0x44 DUP4 ADD DUP8 PUSH2 0x885 JUMP JUMPDEST SWAP3 SWAP1 SWAP4 PUSH1 0x64 DUP3 ADD CALLDATALOAD SWAP2 PUSH1 0x2 DUP4 LT ISZERO PUSH2 0x34A JUMPI PUSH2 0x210 PUSH1 0xE4 DUP3 ADD PUSH2 0xA2A JUMP JUMPDEST PUSH2 0x104 DUP3 ADD CALLDATALOAD PUSH1 0x1 PUSH1 0x1 PUSH1 0xA0 SHL SUB DUP2 AND SWAP3 SWAP1 DUP4 SWAP1 SUB PUSH2 0x346 JUMPI SWAP2 PUSH2 0x2C5 SWAP4 SWAP2 PUSH1 0xC4 PUSH1 0x20 SWAP9 SWAP8 SWAP7 SWAP5 PUSH2 0x284 PUSH2 0x279 PUSH1 0x40 MLOAD SWAP13 DUP14 SWAP12 DUP13 SWAP12 PUSH4 0x353B0901 PUSH1 0xE1 SHL DUP14 MSTORE PUSH1 0x1 DUP1 PUSH1 0xA0 SHL SUB AND PUSH1 0x4 DUP14 ADD MSTORE PUSH1 0x24 DUP6 ADD CALLDATALOAD PUSH1 0x24 DUP14 ADD MSTORE PUSH2 0x140 PUSH1 0x44 DUP14 ADD MSTORE PUSH2 0x144 DUP13 ADD SWAP2 PUSH2 0x61A JUMP JUMPDEST SWAP7 PUSH1 0x64 DUP11 ADD SWAP1 PUSH2 0x63B JUMP JUMPDEST PUSH1 0x84 DUP2 DUP2 ADD CALLDATALOAD SWAP1 DUP10 ADD MSTORE PUSH1 0xA4 DUP1 DUP3 ADD CALLDATALOAD SWAP1 DUP10 ADD MSTORE ADD CALLDATALOAD PUSH1 0xC4 DUP8 ADD MSTORE PUSH1 0x1 PUSH1 0x1 PUSH1 0xA0 SHL SUB AND PUSH1 0xE4 DUP7 ADD MSTORE PUSH2 0x104 DUP6 ADD MSTORE DUP4 DUP3 SUB PUSH1 0x3 NOT ADD PUSH2 0x124 DUP6 ADD MSTORE PUSH2 0xAD7 JUMP JUMPDEST SUB DUP2 DUP7 DUP7 GAS CALL SWAP1 DUP2 ISZERO PUSH2 0x33B JUMPI DUP4 SWAP2 PUSH2 0x30C JUMPI JUMPDEST POP ISZERO PUSH2 0x2E3 JUMPI POP DUP1 RETURN JUMPDEST PUSH2 0x2EE PUSH1 0x44 SWAP4 PUSH2 0xA2A JUMP JUMPDEST PUSH4 0x71995C9D PUSH1 0xE1 SHL DUP4 MSTORE PUSH1 0x4 SWAP2 SWAP1 SWAP2 MSTORE PUSH1 0x1 PUSH1 0x1 PUSH1 0xA0 SHL SUB AND PUSH1 0x24 MSTORE REVERT JUMPDEST PUSH2 0x32E SWAP2 POP PUSH1 0x20 RETURNDATASIZE PUSH1 0x20 GT PUSH2 0x334 JUMPI JUMPDEST PUSH2 0x326 DUP2 DUP4 PUSH2 0x756 JUMP JUMPDEST DUP2 ADD SWAP1 PUSH2 0x78D JUMP JUMPDEST CODESIZE PUSH2 0x2D9 JUMP JUMPDEST POP RETURNDATASIZE PUSH2 0x31C JUMP JUMPDEST PUSH1 0x40 MLOAD RETURNDATASIZE DUP6 DUP3 RETURNDATACOPY RETURNDATASIZE SWAP1 REVERT JUMPDEST DUP10 DUP1 REVERT JUMPDEST DUP8 DUP1 REVERT JUMPDEST DUP9 DUP1 REVERT JUMPDEST PUSH1 0x0 DUP1 REVERT JUMPDEST PUSH4 0x4E487B71 PUSH1 0xE0 SHL PUSH1 0x0 MSTORE PUSH1 0x11 PUSH1 0x4 MSTORE PUSH1 0x24 PUSH1 0x0 REVERT JUMPDEST SWAP1 PUSH1 0x20 DUP3 RETURNDATASIZE PUSH1 0x20 GT PUSH2 0x39A JUMPI JUMPDEST DUP2 PUSH2 0x387 PUSH1 0x20 SWAP4 DUP4 PUSH2 0x756 JUMP JUMPDEST DUP2 ADD SUB SLT PUSH2 0x397 JUMPI POP MLOAD CODESIZE PUSH2 0x11D JUMP JUMPDEST DUP1 REVERT JUMPDEST RETURNDATASIZE SWAP2 POP PUSH2 0x37A JUMP JUMPDEST PUSH1 0x40 MLOAD RETURNDATASIZE PUSH1 0x0 DUP3 RETURNDATACOPY RETURNDATASIZE SWAP1 REVERT JUMPDEST PUSH4 0xF8FFBE2F PUSH1 0xE0 SHL PUSH1 0x0 MSTORE PUSH1 0x4 PUSH1 0x0 REVERT JUMPDEST CALLVALUE PUSH2 0x352 JUMPI PUSH2 0x3F9 PUSH2 0x3F4 PUSH2 0x3D3 CALLDATASIZE PUSH2 0x4A8 JUMP JUMPDEST SWAP7 SWAP2 SWAP6 SWAP3 DUP2 SWAP5 DUP2 SWAP7 PUSH2 0x3E5 DUP10 SWAP5 PUSH2 0x7A5 JUMP JUMPDEST PUSH2 0x3EF DUP11 DUP9 PUSH2 0x8B7 JUMP JUMPDEST PUSH2 0xAFC JUMP JUMPDEST PUSH2 0x110A JUMP JUMPDEST STOP JUMPDEST CALLVALUE PUSH2 0x352 JUMPI PUSH2 0x3F9 PUSH2 0x40C CALLDATASIZE PUSH2 0x56B JUMP JUMPDEST SWAP4 PUSH2 0x419 DUP3 SWAP5 SWAP4 SWAP5 PUSH2 0x7A5 JUMP JUMPDEST PUSH2 0x423 DUP6 DUP4 PUSH2 0x8B7 JUMP JUMPDEST PUSH2 0x1053 JUMP JUMPDEST CALLVALUE PUSH2 0x352 JUMPI PUSH2 0x3F9 PUSH2 0x439 CALLDATASIZE PUSH2 0x56B JUMP JUMPDEST SWAP4 PUSH2 0x446 DUP3 SWAP5 SWAP4 SWAP5 PUSH2 0x7A5 JUMP JUMPDEST PUSH2 0x3F4 DUP6 DUP4 PUSH2 0x8B7 JUMP JUMPDEST CALLVALUE PUSH2 0x352 JUMPI PUSH2 0x3F9 PUSH2 0x423 PUSH2 0x3D3 CALLDATASIZE PUSH2 0x4A8 JUMP JUMPDEST CALLDATALOAD SWAP1 PUSH1 0x1 PUSH1 0x1 PUSH1 0xA0 SHL SUB DUP3 AND DUP3 SUB PUSH2 0x352 JUMPI JUMP JUMPDEST SWAP2 DUP2 PUSH1 0x1F DUP5 ADD SLT ISZERO PUSH2 0x352 JUMPI DUP3 CALLDATALOAD SWAP2 PUSH1 0x1 PUSH1 0x1 PUSH1 0x40 SHL SUB DUP4 GT PUSH2 0x352 JUMPI PUSH1 0x20 DUP1 DUP6 ADD SWAP5 PUSH1 0x60 DUP6 MUL ADD ADD GT PUSH2 0x352 JUMPI JUMP JUMPDEST PUSH1 0xA0 PUSH1 0x3 NOT DUP3 ADD SLT PUSH2 0x352 JUMPI PUSH1 0x4 CALLDATALOAD PUSH1 0x1 PUSH1 0x1 PUSH1 0xA0 SHL SUB DUP2 AND DUP2 SUB PUSH2 0x352 JUMPI SWAP2 PUSH1 0x24 CALLDATALOAD SWAP2 PUSH1 0x1 PUSH1 0x1 PUSH1 0x40 SHL SUB DUP4 GT PUSH2 0x352 JUMPI DUP1 PUSH1 0x23 DUP5 ADD SLT ISZERO PUSH2 0x352 JUMPI DUP3 PUSH1 0x4 ADD CALLDATALOAD SWAP3 PUSH1 0x1 PUSH1 0x1 PUSH1 0x40 SHL SUB DUP5 GT PUSH2 0x352 JUMPI DUP2 PUSH1 0x24 DUP6 PUSH1 0x5 SHL DUP4 ADD ADD GT PUSH2 0x352 JUMPI PUSH1 0x24 ADD SWAP3 SWAP2 PUSH1 0x44 CALLDATALOAD PUSH1 0x1 PUSH1 0x1 PUSH1 0x40 SHL SUB DUP2 GT PUSH2 0x352 JUMPI DUP3 PUSH2 0x52B SWAP2 PUSH1 0x4 ADD PUSH2 0x478 JUMP JUMPDEST SWAP1 SWAP3 SWAP1 SWAP2 PUSH1 0x64 CALLDATALOAD PUSH1 0x1 PUSH1 0x1 PUSH1 0xA0 SHL SUB DUP2 AND DUP2 SUB PUSH2 0x352 JUMPI SWAP2 PUSH1 0x84 CALLDATALOAD SWAP1 PUSH1 0x1 PUSH1 0x1 PUSH1 0x40 SHL SUB DUP3 GT PUSH2 0x352 JUMPI PUSH2 0x160 SWAP1 DUP3 SWAP1 SUB PUSH1 0x3 NOT ADD SLT PUSH2 0x352 JUMPI PUSH1 0x4 ADD SWAP1 JUMP JUMPDEST PUSH1 0x80 PUSH1 0x3 NOT DUP3 ADD SLT PUSH2 0x352 JUMPI PUSH1 0x4 CALLDATALOAD PUSH1 0x1 PUSH1 0x1 PUSH1 0xA0 SHL SUB DUP2 AND DUP2 SUB PUSH2 0x352 JUMPI SWAP2 PUSH1 0x24 CALLDATALOAD PUSH1 0x1 PUSH1 0x1 PUSH1 0x40 SHL SUB DUP2 GT PUSH2 0x352 JUMPI DUP3 PUSH2 0x5A9 SWAP2 PUSH1 0x4 ADD PUSH2 0x478 JUMP JUMPDEST SWAP1 SWAP3 SWAP1 SWAP2 PUSH1 0x44 CALLDATALOAD PUSH1 0x1 PUSH1 0x1 PUSH1 0xA0 SHL SUB DUP2 AND DUP2 SUB PUSH2 0x352 JUMPI SWAP2 PUSH1 0x64 CALLDATALOAD SWAP1 PUSH1 0x1 PUSH1 0x1 PUSH1 0x40 SHL SUB DUP3 GT PUSH2 0x352 JUMPI PUSH2 0x160 SWAP1 DUP3 SWAP1 SUB PUSH1 0x3 NOT ADD SLT PUSH2 0x352 JUMPI PUSH1 0x4 ADD SWAP1 JUMP JUMPDEST SWAP1 CALLDATALOAD PUSH1 0x1E NOT DUP3 CALLDATASIZE SUB ADD DUP2 SLT ISZERO PUSH2 0x352 JUMPI ADD PUSH1 0x20 DUP2 CALLDATALOAD SWAP2 ADD SWAP2 PUSH1 0x1 PUSH1 0x1 PUSH1 0x40 SHL SUB DUP3 GT PUSH2 0x352 JUMPI DUP2 CALLDATASIZE SUB DUP4 SGT PUSH2 0x352 JUMPI JUMP JUMPDEST SWAP1 DUP1 PUSH1 0x20 SWAP4 SWAP3 DUP2 DUP5 MSTORE DUP5 DUP5 ADD CALLDATACOPY PUSH1 0x0 DUP3 DUP3 ADD DUP5 ADD MSTORE PUSH1 0x1F ADD PUSH1 0x1F NOT AND ADD ADD SWAP1 JUMP JUMPDEST SWAP1 PUSH1 0x2 DUP3 LT ISZERO PUSH2 0x648 JUMPI MSTORE JUMP JUMPDEST PUSH4 0x4E487B71 PUSH1 0xE0 SHL PUSH1 0x0 MSTORE PUSH1 0x21 PUSH1 0x4 MSTORE PUSH1 0x24 PUSH1 0x0 REVERT JUMPDEST PUSH1 0x1 PUSH1 0x1 PUSH1 0xA0 SHL SUB SWAP2 DUP3 AND DUP2 MSTORE PUSH1 0x40 PUSH1 0x20 DUP3 ADD MSTORE SWAP1 PUSH2 0x67C DUP4 PUSH2 0x464 JUMP JUMPDEST AND PUSH1 0x40 DUP3 ADD MSTORE PUSH1 0x20 DUP3 ADD CALLDATALOAD PUSH1 0x60 DUP3 ADD MSTORE PUSH2 0x6AF PUSH2 0x69C PUSH1 0x40 DUP5 ADD DUP5 PUSH2 0x5E9 JUMP JUMPDEST PUSH2 0x160 PUSH1 0x80 DUP6 ADD MSTORE PUSH2 0x1A0 DUP5 ADD SWAP2 PUSH2 0x61A JUMP JUMPDEST PUSH1 0x60 DUP4 ADD CALLDATALOAD PUSH1 0x2 DUP2 LT ISZERO PUSH2 0x352 JUMPI PUSH2 0x6CB SWAP1 PUSH1 0xA0 DUP5 ADD SWAP1 PUSH2 0x63B JUMP JUMPDEST PUSH1 0x80 DUP4 ADD CALLDATALOAD PUSH1 0xC0 DUP4 ADD MSTORE PUSH1 0xA0 DUP4 ADD CALLDATALOAD PUSH1 0xE0 DUP4 ADD MSTORE PUSH1 0xC0 DUP4 ADD CALLDATALOAD PUSH2 0x100 DUP4 ADD MSTORE PUSH1 0x1 DUP1 PUSH1 0xA0 SHL SUB PUSH2 0x6FD PUSH1 0xE0 DUP6 ADD PUSH2 0x464 JUMP JUMPDEST AND PUSH2 0x120 DUP4 ADD MSTORE PUSH2 0x100 DUP4 ADD CALLDATALOAD PUSH1 0x1 PUSH1 0x1 PUSH1 0xA0 SHL SUB DUP2 AND SWAP2 SWAP1 DUP3 SWAP1 SUB PUSH2 0x352 JUMPI PUSH2 0x74D PUSH2 0x140 SWAP2 PUSH2 0x180 SWAP4 DUP4 DUP7 ADD MSTORE PUSH2 0x73A PUSH2 0x120 DUP8 ADD DUP8 PUSH2 0x5E9 JUMP JUMPDEST DUP7 DUP4 SUB PUSH1 0x3F NOT ADD PUSH2 0x160 DUP9 ADD MSTORE SWAP1 PUSH2 0x61A JUMP JUMPDEST SWAP4 ADD CALLDATALOAD SWAP2 ADD MSTORE SWAP1 JUMP JUMPDEST SWAP1 PUSH1 0x1F DUP1 NOT SWAP2 ADD AND DUP2 ADD SWAP1 DUP2 LT PUSH1 0x1 PUSH1 0x1 PUSH1 0x40 SHL SUB DUP3 GT OR PUSH2 0x777 JUMPI PUSH1 0x40 MSTORE JUMP JUMPDEST PUSH4 0x4E487B71 PUSH1 0xE0 SHL PUSH1 0x0 MSTORE PUSH1 0x41 PUSH1 0x4 MSTORE PUSH1 0x24 PUSH1 0x0 REVERT JUMPDEST SWAP1 DUP2 PUSH1 0x20 SWAP2 SUB SLT PUSH2 0x352 JUMPI MLOAD DUP1 ISZERO ISZERO DUP2 SUB PUSH2 0x352 JUMPI SWAP1 JUMP JUMPDEST PUSH1 0x40 MLOAD PUSH4 0x17AA5FB7 PUSH1 0xE1 SHL DUP2 MSTORE CALLER PUSH1 0x4 DUP3 ADD MSTORE PUSH1 0x1 PUSH1 0x1 PUSH1 0xA0 SHL SUB SWAP2 SWAP1 SWAP2 AND SWAP1 PUSH1 0x20 DUP2 PUSH1 0x24 DUP2 DUP6 GAS STATICCALL SWAP1 DUP2 ISZERO PUSH2 0x3A2 JUMPI PUSH1 0x0 SWAP2 PUSH2 0x866 JUMPI JUMPDEST POP ISZERO PUSH2 0x84E JUMPI PUSH1 0x40 MLOAD PUSH4 0x17AA5FB7 PUSH1 0xE1 SHL DUP2 MSTORE ADDRESS PUSH1 0x4 DUP3 ADD MSTORE PUSH1 0x20 DUP2 PUSH1 0x24 DUP2 DUP6 GAS STATICCALL SWAP1 DUP2 ISZERO PUSH2 0x3A2 JUMPI PUSH1 0x0 SWAP2 PUSH2 0x82F JUMPI JUMPDEST POP ISZERO PUSH2 0x817 JUMPI POP JUMP JUMPDEST PUSH4 0x663CD0C5 PUSH1 0xE1 SHL PUSH1 0x0 MSTORE ADDRESS PUSH1 0x4 MSTORE PUSH1 0x24 MSTORE PUSH1 0x44 PUSH1 0x0 REVERT JUMPDEST PUSH2 0x848 SWAP2 POP PUSH1 0x20 RETURNDATASIZE PUSH1 0x20 GT PUSH2 0x334 JUMPI PUSH2 0x326 DUP2 DUP4 PUSH2 0x756 JUMP JUMPDEST CODESIZE PUSH2 0x80E JUMP JUMPDEST PUSH4 0x44513171 PUSH1 0xE1 SHL PUSH1 0x0 MSTORE CALLER PUSH1 0x4 MSTORE PUSH1 0x24 MSTORE PUSH1 0x44 PUSH1 0x0 REVERT JUMPDEST PUSH2 0x87F SWAP2 POP PUSH1 0x20 RETURNDATASIZE PUSH1 0x20 GT PUSH2 0x334 JUMPI PUSH2 0x326 DUP2 DUP4 PUSH2 0x756 JUMP JUMPDEST CODESIZE PUSH2 0x7DD JUMP JUMPDEST SWAP1 CALLDATALOAD SWAP1 PUSH1 0x1E NOT DUP2 CALLDATASIZE SUB ADD DUP3 SLT ISZERO PUSH2 0x352 JUMPI ADD DUP1 CALLDATALOAD SWAP1 PUSH1 0x1 PUSH1 0x1 PUSH1 0x40 SHL SUB DUP3 GT PUSH2 0x352 JUMPI PUSH1 0x20 ADD SWAP2 DUP2 CALLDATASIZE SUB DUP4 SGT PUSH2 0x352 JUMPI JUMP JUMPDEST PUSH1 0x60 DUP3 ADD CALLDATALOAD PUSH1 0x2 DUP2 LT DUP1 ISZERO PUSH2 0x352 JUMPI DUP2 PUSH2 0x9EB JUMPI POP POP PUSH1 0x40 MLOAD PUSH4 0x1CEA46B7 PUSH1 0xE3 SHL DUP2 MSTORE SWAP2 SWAP1 PUSH1 0x20 SWAP1 DUP4 SWAP1 PUSH1 0x4 SWAP1 DUP3 SWAP1 PUSH1 0x1 PUSH1 0x1 PUSH1 0xA0 SHL SUB AND GAS STATICCALL SWAP2 DUP3 ISZERO PUSH2 0x3A2 JUMPI PUSH1 0x0 SWAP3 PUSH2 0x9B7 JUMPI JUMPDEST POP PUSH1 0x2 DUP3 LT PUSH2 0x9A2 JUMPI PUSH2 0x120 DUP2 ADD PUSH1 0x41 PUSH2 0x91A DUP3 DUP5 PUSH2 0x885 JUMP JUMPDEST SWAP1 POP MOD PUSH2 0x983 JUMPI PUSH1 0x0 NOT DUP4 ADD SWAP3 DUP4 GT PUSH2 0x357 JUMPI PUSH1 0x41 PUSH2 0x93C PUSH2 0x140 SWAP3 DUP5 PUSH2 0x885 JUMP JUMPDEST SWAP1 POP DIV SWAP2 ADD CALLDATALOAD DUP3 DUP2 GT PUSH2 0x96C JUMPI POP DUP2 DUP2 LT PUSH2 0x955 JUMPI POP POP JUMP JUMPDEST PUSH4 0x3562C20F PUSH1 0xE1 SHL PUSH1 0x0 MSTORE PUSH1 0x4 MSTORE PUSH1 0x24 MSTORE PUSH1 0x44 PUSH1 0x0 REVERT JUMPDEST PUSH4 0x6FE59B1D PUSH1 0xE1 SHL PUSH1 0x0 MSTORE PUSH1 0x4 MSTORE PUSH1 0x24 MSTORE PUSH1 0x44 PUSH1 0x0 REVERT JUMPDEST PUSH2 0x98C SWAP2 PUSH2 0x885 JUMP JUMPDEST SWAP1 POP PUSH4 0x137B8C9 PUSH1 0xE2 SHL PUSH1 0x0 MSTORE PUSH1 0x4 MSTORE PUSH1 0x24 PUSH1 0x0 REVERT JUMPDEST POP PUSH4 0xBBEFF01 PUSH1 0xE1 SHL PUSH1 0x0 MSTORE PUSH1 0x4 MSTORE PUSH1 0x24 PUSH1 0x0 REVERT JUMPDEST SWAP1 SWAP2 PUSH1 0x20 DUP3 RETURNDATASIZE PUSH1 0x20 GT PUSH2 0x9E3 JUMPI JUMPDEST DUP2 PUSH2 0x9D2 PUSH1 0x20 SWAP4 DUP4 PUSH2 0x756 JUMP JUMPDEST DUP2 ADD SUB SLT PUSH2 0x397 JUMPI POP MLOAD SWAP1 CODESIZE PUSH2 0x900 JUMP JUMPDEST RETURNDATASIZE SWAP2 POP PUSH2 0x9C5 JUMP JUMPDEST PUSH4 0xB284B01B PUSH1 0xE0 SHL PUSH1 0x0 MSTORE ISZERO PUSH2 0x648 JUMPI PUSH1 0x4 MSTORE PUSH1 0x24 PUSH1 0x0 REVERT JUMPDEST SWAP2 SWAP1 DUP2 LT ISZERO PUSH2 0xA14 JUMPI PUSH1 0x60 MUL ADD SWAP1 JUMP JUMPDEST PUSH4 0x4E487B71 PUSH1 0xE0 SHL PUSH1 0x0 MSTORE PUSH1 0x32 PUSH1 0x4 MSTORE PUSH1 0x24 PUSH1 0x0 REVERT JUMPDEST CALLDATALOAD PUSH1 0x1 PUSH1 0x1 PUSH1 0xA0 SHL SUB DUP2 AND DUP2 SUB PUSH2 0x352 JUMPI SWAP1 JUMP JUMPDEST PUSH1 0x0 JUMPDEST DUP4 DUP2 LT PUSH2 0xA51 JUMPI POP POP PUSH1 0x0 SWAP2 ADD MSTORE JUMP JUMPDEST DUP2 DUP2 ADD MLOAD DUP4 DUP3 ADD MSTORE PUSH1 0x20 ADD PUSH2 0xA41 JUMP JUMPDEST SWAP1 SWAP3 SWAP2 SWAP3 PUSH1 0x1 PUSH1 0x1 PUSH1 0x40 SHL SUB DUP2 GT PUSH2 0x777 JUMPI PUSH1 0x40 MLOAD SWAP2 PUSH2 0xA8B PUSH1 0x1F DUP4 ADD PUSH1 0x1F NOT AND PUSH1 0x20 ADD DUP5 PUSH2 0x756 JUMP JUMPDEST DUP3 SWAP5 DUP3 DUP5 MSTORE DUP3 DUP3 ADD GT PUSH2 0x352 JUMPI PUSH1 0x20 PUSH2 0xAA5 SWAP4 ADD SWAP1 PUSH2 0xA3E JUMP JUMPDEST JUMP JUMPDEST SWAP2 SWAP1 DUP2 LT ISZERO PUSH2 0xA14 JUMPI PUSH1 0x5 SHL DUP2 ADD CALLDATALOAD SWAP1 PUSH1 0x3E NOT DUP2 CALLDATASIZE SUB ADD DUP3 SLT ISZERO PUSH2 0x352 JUMPI ADD SWAP1 JUMP JUMPDEST CALLDATALOAD PUSH1 0xFF DUP2 AND DUP2 SUB PUSH2 0x352 JUMPI SWAP1 JUMP JUMPDEST SWAP1 PUSH1 0x20 SWAP2 PUSH2 0xAF0 DUP2 MLOAD DUP1 SWAP3 DUP2 DUP6 MSTORE DUP6 DUP1 DUP7 ADD SWAP2 ADD PUSH2 0xA3E JUMP JUMPDEST PUSH1 0x1F ADD PUSH1 0x1F NOT AND ADD ADD SWAP1 JUMP JUMPDEST SWAP2 SWAP1 SWAP2 DUP4 DUP4 SUB PUSH2 0xDC6 JUMPI PUSH1 0x0 JUMPDEST DUP4 DUP2 LT PUSH2 0xB17 JUMPI POP POP POP POP POP JUMP JUMPDEST PUSH1 0x0 PUSH1 0x1 PUSH1 0x1 PUSH1 0xA0 SHL SUB PUSH2 0xB37 PUSH1 0x20 PUSH2 0xB31 DUP6 DUP11 DUP10 PUSH2 0xA04 JUMP JUMPDEST ADD PUSH2 0xA2A JUMP JUMPDEST AND PUSH2 0xC9E JUMPI POP PUSH1 0x40 PUSH2 0xB4B DUP2 MLOAD SWAP2 DUP3 PUSH2 0x756 JUMP JUMPDEST PUSH1 0x3 DUP2 MSTORE PUSH3 0x8AA89 PUSH1 0xEB SHL PUSH1 0x20 DUP3 ADD MSTORE PUSH1 0x12 SWAP1 JUMPDEST PUSH1 0x40 MLOAD PUSH1 0x20 DUP2 ADD SWAP1 PUSH2 0xB8D PUSH1 0x20 DUP3 DUP6 MLOAD PUSH2 0xB7C DUP2 DUP8 DUP6 DUP11 ADD PUSH2 0xA3E JUMP JUMPDEST DUP2 ADD SUB ADD PUSH1 0x1F NOT DUP2 ADD DUP4 MSTORE DUP3 PUSH2 0x756 JUMP JUMPDEST MLOAD SWAP1 KECCAK256 PUSH2 0xBA4 PUSH2 0xB9E DUP6 DUP10 DUP9 PUSH2 0xAA7 JUMP JUMPDEST DUP1 PUSH2 0x885 JUMP JUMPDEST PUSH2 0xBCC PUSH1 0x20 PUSH1 0x40 MLOAD DUP4 DUP2 SWAP5 DUP4 DUP4 ADD SWAP7 DUP8 CALLDATACOPY DUP2 ADD PUSH1 0x0 DUP4 DUP3 ADD MSTORE SUB ADD PUSH1 0x1F NOT DUP2 ADD DUP4 MSTORE DUP3 PUSH2 0x756 JUMP JUMPDEST MLOAD SWAP1 KECCAK256 EQ DUP1 ISZERO SWAP1 PUSH2 0xC7F JUMPI JUMPDEST PUSH2 0xBE6 JUMPI POP POP PUSH1 0x1 ADD PUSH2 0xB09 JUMP JUMPDEST PUSH1 0xFF PUSH2 0xC5C PUSH2 0xC28 PUSH1 0x20 PUSH2 0xC22 DUP8 PUSH2 0xC1A PUSH2 0xB9E DUP3 DUP15 SWAP16 DUP7 DUP11 SWAP15 SWAP13 SWAP16 PUSH2 0xC74 SWAP15 PUSH2 0xC13 SWAP4 PUSH2 0xB31 SWAP3 PUSH2 0xA04 JUMP JUMPDEST SWAP15 DUP12 PUSH2 0xAA7 JUMP JUMPDEST SWAP14 SWAP1 SWAP9 PUSH2 0xAA7 JUMP JUMPDEST ADD PUSH2 0xAC9 JUMP JUMPDEST PUSH1 0x40 MLOAD PUSH4 0x55918519 PUSH1 0xE0 SHL DUP2 MSTORE PUSH1 0x1 PUSH1 0x1 PUSH1 0xA0 SHL SUB SWAP1 SWAP10 AND PUSH1 0x4 DUP11 ADD MSTORE PUSH1 0xA0 PUSH1 0x24 DUP11 ADD MSTORE SWAP8 SWAP9 DUP10 SWAP9 SWAP5 PUSH1 0xA4 DUP11 ADD SWAP2 SWAP1 PUSH2 0x61A JUMP JUMPDEST SWAP3 AND PUSH1 0x44 DUP8 ADD MSTORE DUP6 DUP3 SUB PUSH1 0x3 NOT ADD PUSH1 0x64 DUP8 ADD MSTORE PUSH2 0xAD7 JUMP JUMPDEST SWAP2 AND PUSH1 0x84 DUP4 ADD MSTORE SUB SWAP1 REVERT JUMPDEST POP PUSH1 0xFF PUSH2 0xC92 PUSH1 0x20 PUSH2 0xC22 DUP7 DUP11 DUP10 PUSH2 0xAA7 JUMP JUMPDEST AND PUSH1 0xFF DUP4 AND EQ ISZERO PUSH2 0xBD8 JUMP JUMPDEST PUSH1 0x4 DUP2 PUSH1 0x1 PUSH1 0x1 PUSH1 0xA0 SHL SUB PUSH2 0xCB9 PUSH1 0x20 PUSH2 0xB31 DUP8 DUP13 DUP12 PUSH2 0xA04 JUMP JUMPDEST AND PUSH1 0x40 MLOAD SWAP3 DUP4 DUP1 SWAP3 PUSH4 0x95D89B41 PUSH1 0xE0 SHL DUP3 MSTORE GAS STATICCALL SWAP2 DUP3 ISZERO PUSH2 0xDBA JUMPI DUP1 SWAP3 PUSH2 0xD62 JUMPI JUMPDEST POP PUSH1 0x4 SWAP1 POP PUSH1 0x20 PUSH1 0x1 PUSH1 0x1 PUSH1 0xA0 SHL SUB PUSH2 0xCF9 DUP3 PUSH2 0xB31 DUP8 DUP13 DUP12 PUSH2 0xA04 JUMP JUMPDEST AND PUSH1 0x40 MLOAD SWAP3 DUP4 DUP1 SWAP3 PUSH4 0x313CE567 PUSH1 0xE0 SHL DUP3 MSTORE GAS STATICCALL SWAP1 DUP2 ISZERO PUSH2 0x3A2 JUMPI PUSH1 0x0 SWAP2 PUSH2 0xD23 JUMPI JUMPDEST POP SWAP1 PUSH2 0xB5F JUMP JUMPDEST PUSH1 0x20 DUP2 RETURNDATASIZE DUP3 GT PUSH2 0xD5A JUMPI JUMPDEST DUP2 PUSH2 0xD3B PUSH1 0x20 SWAP4 DUP4 PUSH2 0x756 JUMP JUMPDEST DUP2 ADD SUB SLT PUSH2 0xD56 JUMPI MLOAD SWAP1 PUSH1 0xFF DUP3 AND DUP3 SUB PUSH2 0x397 JUMPI POP CODESIZE PUSH2 0xD1C JUMP JUMPDEST POP DUP1 REVERT JUMPDEST RETURNDATASIZE SWAP2 POP PUSH2 0xD2E JUMP JUMPDEST SWAP1 SWAP2 POP RETURNDATASIZE DUP1 DUP3 DUP5 RETURNDATACOPY PUSH2 0xD74 DUP2 DUP5 PUSH2 0x756 JUMP JUMPDEST DUP3 ADD SWAP2 PUSH1 0x20 DUP2 DUP5 SUB SLT PUSH2 0xD56 JUMPI DUP1 MLOAD SWAP1 PUSH1 0x1 PUSH1 0x1 PUSH1 0x40 SHL SUB DUP3 GT PUSH2 0xDB6 JUMPI ADD SWAP1 DUP3 PUSH1 0x1F DUP4 ADD SLT ISZERO PUSH2 0x397 JUMPI POP DUP1 MLOAD PUSH2 0xDAF SWAP3 SWAP2 PUSH1 0x20 ADD PUSH2 0xA61 JUMP JUMPDEST CODESIZE DUP1 PUSH2 0xCDB JUMP JUMPDEST DUP3 DUP1 REVERT JUMPDEST PUSH1 0x40 MLOAD SWAP1 RETURNDATASIZE SWAP1 DUP3 RETURNDATACOPY RETURNDATASIZE SWAP1 REVERT JUMPDEST POP POP PUSH4 0xA7DF64D PUSH1 0xE4 SHL PUSH1 0x0 MSTORE PUSH1 0x4 MSTORE PUSH1 0x24 MSTORE PUSH1 0x44 PUSH1 0x0 REVERT JUMPDEST PUSH1 0x40 MLOAD SWAP1 PUSH1 0x60 DUP3 ADD DUP3 DUP2 LT PUSH1 0x1 PUSH1 0x1 PUSH1 0x40 SHL SUB DUP3 GT OR PUSH2 0x777 JUMPI PUSH1 0x40 MSTORE PUSH1 0x0 PUSH1 0x40 DUP4 DUP3 DUP2 MSTORE DUP3 PUSH1 0x20 DUP3 ADD MSTORE ADD MSTORE JUMP JUMPDEST PUSH1 0x40 MLOAD SWAP1 PUSH2 0xE1D PUSH1 0x20 DUP4 PUSH2 0x756 JUMP JUMPDEST PUSH1 0x0 DUP1 DUP4 MSTORE DUP3 SWAP1 DUP1 JUMPDEST DUP2 DUP2 LT PUSH2 0xE32 JUMPI POP POP POP JUMP JUMPDEST PUSH1 0x40 MLOAD SWAP1 PUSH1 0x40 DUP3 ADD SWAP2 DUP1 DUP4 LT PUSH1 0x1 PUSH1 0x1 PUSH1 0x40 SHL SUB DUP5 GT OR PUSH2 0x777 JUMPI PUSH1 0x20 SWAP3 PUSH1 0x40 MSTORE PUSH2 0xE5B PUSH2 0xDDF JUMP JUMPDEST DUP2 MSTORE PUSH1 0x0 DUP4 DUP3 ADD MSTORE DUP3 DUP3 DUP7 ADD ADD MSTORE ADD PUSH2 0xE26 JUMP JUMPDEST PUSH1 0x40 MLOAD SWAP1 PUSH2 0xE7E PUSH1 0x20 DUP4 PUSH2 0x756 JUMP JUMPDEST PUSH1 0x0 DUP1 DUP4 MSTORE DUP3 DUP2 JUMPDEST DUP3 DUP2 LT PUSH2 0xE92 JUMPI POP POP POP JUMP JUMPDEST PUSH1 0x20 SWAP1 PUSH2 0xE9D PUSH2 0xDDF JUMP JUMPDEST DUP3 DUP3 DUP6 ADD ADD MSTORE ADD PUSH2 0xE86 JUMP JUMPDEST PUSH1 0x20 DUP2 DUP4 SUB SLT PUSH2 0x352 JUMPI DUP1 MLOAD SWAP1 PUSH1 0x1 PUSH1 0x1 PUSH1 0x40 SHL SUB DUP3 GT PUSH2 0x352 JUMPI ADD SWAP1 DUP1 PUSH1 0x1F DUP4 ADD SLT ISZERO PUSH2 0x352 JUMPI DUP2 MLOAD PUSH2 0xEDF SWAP3 PUSH1 0x20 ADD PUSH2 0xA61 JUMP JUMPDEST SWAP1 JUMP JUMPDEST SWAP5 SWAP2 SWAP4 SWAP1 SWAP4 DUP1 PUSH1 0xA0 DUP8 ADD PUSH1 0xA0 DUP9 MSTORE MSTORE PUSH1 0xC0 DUP7 ADD SWAP5 SWAP1 PUSH1 0x0 JUMPDEST DUP2 DUP2 LT PUSH2 0x1005 JUMPI POP POP POP DUP5 DUP5 SUB PUSH1 0x20 DUP7 ADD MSTORE PUSH1 0x20 DUP1 DUP5 MLOAD SWAP6 DUP7 DUP2 MSTORE ADD SWAP4 ADD SWAP4 PUSH1 0x0 JUMPDEST DUP2 DUP2 LT PUSH2 0xFAF JUMPI POP POP PUSH1 0x1 PUSH1 0x1 PUSH1 0xA0 SHL SUB AND PUSH1 0x40 DUP6 ADD MSTORE DUP4 DUP3 SUB PUSH1 0x60 DUP6 ADD MSTORE PUSH2 0xF45 SWAP3 POP PUSH2 0xAD7 JUMP JUMPDEST SWAP1 PUSH1 0x80 DUP2 DUP4 SUB SWAP2 ADD MSTORE PUSH1 0x20 DUP1 DUP4 MLOAD SWAP3 DUP4 DUP2 MSTORE ADD SWAP3 ADD SWAP1 PUSH1 0x0 JUMPDEST DUP2 DUP2 LT PUSH2 0xF6B JUMPI POP POP POP SWAP1 JUMP JUMPDEST SWAP1 SWAP2 SWAP3 PUSH1 0x20 PUSH1 0x60 DUP3 PUSH2 0xFA4 PUSH1 0x1 SWAP5 DUP9 MLOAD PUSH1 0x40 DUP1 SWAP2 PUSH1 0x1 DUP1 PUSH1 0xA0 SHL SUB DUP2 MLOAD AND DUP5 MSTORE PUSH1 0x1 DUP1 PUSH1 0xA0 SHL SUB PUSH1 0x20 DUP3 ADD MLOAD AND PUSH1 0x20 DUP6 ADD MSTORE ADD MLOAD SWAP2 ADD MSTORE JUMP JUMPDEST ADD SWAP5 ADD SWAP3 SWAP2 ADD PUSH2 0xF5E JUMP JUMPDEST SWAP1 SWAP2 SWAP3 SWAP4 PUSH1 0x20 PUSH1 0x80 PUSH1 0x1 SWAP3 DUP3 DUP10 MLOAD PUSH2 0xFEC DUP4 DUP3 MLOAD PUSH1 0x40 DUP1 SWAP2 PUSH1 0x1 DUP1 PUSH1 0xA0 SHL SUB DUP2 MLOAD AND DUP5 MSTORE PUSH1 0x1 DUP1 PUSH1 0xA0 SHL SUB PUSH1 0x20 DUP3 ADD MLOAD AND PUSH1 0x20 DUP6 ADD MSTORE ADD MLOAD SWAP2 ADD MSTORE JUMP JUMPDEST ADD MLOAD ISZERO ISZERO PUSH1 0x60 DUP3 ADD MSTORE ADD SWAP7 ADD SWAP2 ADD SWAP5 SWAP4 SWAP3 SWAP2 SWAP1 SWAP5 PUSH2 0xF1C JUMP JUMPDEST SWAP1 SWAP2 SWAP3 SWAP4 SWAP5 SWAP6 PUSH1 0x60 DUP1 PUSH1 0x1 SWAP3 DUP4 DUP1 PUSH1 0xA0 SHL SUB PUSH2 0x1020 DUP9 PUSH2 0x464 JUMP JUMPDEST AND DUP2 MSTORE DUP4 DUP1 PUSH1 0xA0 SHL SUB PUSH2 0x1035 PUSH1 0x20 DUP10 ADD PUSH2 0x464 JUMP JUMPDEST AND PUSH1 0x20 DUP3 ADD MSTORE PUSH1 0x40 DUP8 DUP2 ADD CALLDATALOAD SWAP1 DUP3 ADD MSTORE ADD SWAP8 SWAP7 SWAP6 SWAP5 ADD SWAP3 SWAP2 ADD PUSH2 0xEFA JUMP JUMPDEST PUSH2 0x1087 PUSH1 0x0 SWAP5 SWAP3 PUSH2 0x1079 PUSH1 0x40 MLOAD SWAP8 DUP9 SWAP3 PUSH4 0x76708603 PUSH1 0xE1 SHL PUSH1 0x20 DUP6 ADD MSTORE PUSH1 0x24 DUP5 ADD PUSH2 0x65E JUMP JUMPDEST SUB PUSH1 0x1F NOT DUP2 ADD DUP8 MSTORE DUP7 PUSH2 0x756 JUMP JUMPDEST PUSH1 0x1 PUSH1 0x1 PUSH1 0xA0 SHL SUB AND SWAP1 PUSH2 0x109B DUP6 DUP4 PUSH2 0x117A JUMP JUMPDEST DUP5 SSTORE DUP4 PUSH2 0x10A6 PUSH2 0xE0E JUMP JUMPDEST SWAP2 PUSH2 0x10D1 PUSH2 0x10B2 PUSH2 0xE6F JUMP JUMPDEST PUSH1 0x40 MLOAD PUSH4 0x890E3ADD PUSH1 0xE0 SHL DUP2 MSTORE SWAP9 DUP10 SWAP8 DUP9 SWAP7 DUP8 SWAP6 ADDRESS SWAP3 PUSH1 0x4 DUP9 ADD PUSH2 0xEE2 JUMP JUMPDEST SUB SWAP3 GAS CALL DUP1 ISZERO PUSH2 0x3A2 JUMPI PUSH2 0x10E7 JUMPI JUMPDEST POP PUSH1 0x0 DUP1 SSTORE JUMP JUMPDEST PUSH2 0x1103 SWAP1 RETURNDATASIZE DUP1 PUSH1 0x0 DUP4 RETURNDATACOPY PUSH2 0x10FB DUP2 DUP4 PUSH2 0x756 JUMP JUMPDEST DUP2 ADD SWAP1 PUSH2 0xEA9 JUMP JUMPDEST POP CODESIZE PUSH2 0x10E0 JUMP JUMPDEST PUSH2 0x1130 PUSH1 0x0 SWAP5 SWAP3 PUSH2 0x1079 PUSH1 0x40 MLOAD SWAP8 DUP9 SWAP3 PUSH4 0x76708603 PUSH1 0xE1 SHL PUSH1 0x20 DUP6 ADD MSTORE PUSH1 0x24 DUP5 ADD PUSH2 0x65E JUMP JUMPDEST PUSH1 0x1 PUSH1 0x1 PUSH1 0xA0 SHL SUB AND SWAP1 PUSH2 0x1144 DUP6 DUP4 PUSH2 0x117A JUMP JUMPDEST DUP5 SSTORE DUP4 PUSH2 0x114F PUSH2 0xE0E JUMP JUMPDEST SWAP2 PUSH2 0x10D1 PUSH2 0x115B PUSH2 0xE6F JUMP JUMPDEST PUSH1 0x40 MLOAD PUSH4 0xCE9506F9 PUSH1 0xE0 SHL DUP2 MSTORE SWAP9 DUP10 SWAP8 DUP9 SWAP7 DUP8 SWAP6 ADDRESS SWAP3 PUSH1 0x4 DUP9 ADD PUSH2 0xEE2 JUMP JUMPDEST SWAP1 PUSH2 0x11A7 PUSH2 0xC2 SWAP2 PUSH1 0x40 MLOAD SWAP3 DUP4 SWAP2 PUSH1 0x20 DUP4 ADD SWAP6 PUSH1 0x1 DUP1 PUSH1 0xA0 SHL SUB AND DUP7 MSTORE PUSH1 0x40 DUP1 DUP5 ADD MSTORE PUSH1 0x60 DUP4 ADD SWAP1 PUSH2 0xAD7 JUMP JUMPDEST MLOAD SWAP1 KECCAK256 SWAP1 JUMP INVALID LOG2 PUSH5 0x6970667358 0x22 SLT KECCAK256 0xE3 0xC0 0xE1 PUSH6 0x8C59AFDB0AA2 0xD7 0xB0 SHR SWAP14 0x21 0xCF PUSH6 0x830F8022C2EF SHR LOG2 0xC3 0xBE 0x27 ADDMOD EQ SUB PUSH17 0x64736F6C634300081B0033000000000000 "
        },
        "methodIdentifiers": {
          "executeSafeTransaction(address,(address,uint256,bytes,uint8,uint256,uint256,uint256,address,address,bytes,uint256))": "ece10c06",
          "safeExecuteWithDiffs(address,(address,address,int256)[],address,(address,uint256,bytes,uint8,uint256,uint256,uint256,address,address,bytes,uint256))": "7ce6cc45",
          "safeExecuteWithDiffsMeta(address,(string,uint8)[],(address,address,int256)[],address,(address,uint256,bytes,uint8,uint256,uint256,uint256,address,address,bytes,uint256))": "4674b941",
          "safeExecuteWithPostBalances(address,(address,address,int256)[],address,(address,uint256,bytes,uint8,uint256,uint256,uint256,address,address,bytes,uint256))": "510818c0",
          "safeExecuteWithPostBalancesMeta(address,(string,uint8)[],(address,address,int256)[],address,(address,uint256,bytes,uint8,uint256,uint256,uint256,address,address,bytes,uint256))": "e48215b2"
        }
      },
      "userdoc": {
        "kind": "user",
        "methods": {},
        "version": 1
      }
    }
  }
}