{
  "contracts/mocks/SafeMock.sol": {
    "SafeMock": {
      "abi": [
        {
          "inputs": [
            {
              "internalType": "address",
              "name": "owner",
              "type": "address"
            }
          ],
          "name": "addOwner",
          "outputs": [],
          "stateMutability": "nonpayable",
          "type": "function"
        },
        {
          "inputs": [
            {
              "internalType": "bytes32",
              "name": "safeTxHash",
              "type": "bytes32"
            }
          ],
          "name": "approveHash",
          "outputs": [],
          "stateMutability": "nonpayable",
          "type": "function"
        },
        {
          "inputs": [
            {
              "internalType": "address",
              "name": "",
              "type": "address"
            },
            {
              "internalType": "bytes32",
              "name": "",
              "type": "bytes32"
            }
          ],
          "name": "approvedHashes",
          "outputs": [
            {
              "internalType": "uint256",
              "name": "",
              "type": "uint256"
            }
          ],
          "stateMutability": "view",
          "type": "function"
        },
        {
          "inputs": [
            {
              "internalType": "bytes32",
              "name": "safeTxHash",
              "type": "bytes32"
            },
            {
              "internalType": "bytes",
              "name": "",
              "type": "bytes"
            },
            {
              "internalType": "bytes",
              "name": "signatures",
              "type": "bytes"
            },
            {
              "internalType": "uint256",
              "name": "requiredSignatures",
              "type": "uint256"
            }
          ],
          "name": "checkNSignatures",
          "outputs": [],
          "stateMutability": "view",
          "type": "function"
        },
        {
          "inputs": [],
          "name": "domainSeparator",
          "outputs": [
            {
              "internalType": "bytes32",
              "name": "",
              "type": "bytes32"
            }
          ],
          "stateMutability": "view",
          "type": "function"
        },
        {
          "inputs": [
            {
              "internalType": "address",
              "name": "to",
              "type": "address"
            },
            {
              "internalType": "uint256",
              "name": "value",
              "type": "uint256"
            },
            {
              "internalType": "bytes",
              "name": "data",
              "type": "bytes"
            },
            {
              "internalType": "enum Enum.Operation",
              "name": "operation",
              "type": "uint8"
            },
            {
              "internalType": "uint256",
              "name": "safeTxGas",
              "type": "uint256"
            },
            {
              "internalType": "uint256",
              "name": "baseGas",
              "type": "uint256"
            },
            {
              "internalType": "uint256",
              "name": "gasPrice",
              "type": "uint256"
            },
            {
              "internalType": "address",
              "name": "gasToken",
              "type": "address"
            },
            {
              "internalType": "address payable",
              "name": "refundReceiver",
              "type": "address"
            },
            {
              "internalType": "bytes",
              "name": "signatures",
              "type": "bytes"
            }
          ],
          "name": "execTransaction",
          "outputs": [
            {
              "internalType": "bool",
              "name": "success",
              "type": "bool"
            }
          ],
          "stateMutability": "payable",
          "type": "function"
        },
        {
          "inputs": [],
          "name": "getThreshold",
          "outputs": [
            {
              "internalType": "uint256",
              "name": "",
              "type": "uint256"
            }
          ],
          "stateMutability": "view",
          "type": "function"
        },
        {
          "inputs": [
            {
              "internalType": "address",
              "name": "to",
              "type": "address"
            },
            {
              "internalType": "uint256",
              "name": "value",
              "type": "uint256"
            },
            {
              "internalType": "bytes",
              "name": "data",
              "type": "bytes"
            },
            {
              "internalType": "enum Enum.Operation",
              "name": "operation",
              "type": "uint8"
            },
            {
              "internalType": "uint256",
              "name": "safeTxGas",
              "type": "uint256"
            },
            {
              "internalType": "uint256",
              "name": "baseGas",
              "type": "uint256"
            },
            {
              "internalType": "uint256",
              "name": "gasPrice",
              "type": "uint256"
            },
            {
              "internalType": "address",
              "name": "gasToken",
              "type": "address"
            },
            {
              "internalType": "address",
              "name": "refundReceiver",
              "type": "address"
            },
            {
              "internalType": "uint256",
              "name": "_nonce",
              "type": "uint256"
            }
          ],
          "name": "getTransactionHash",
          "outputs": [
            {
              "internalType": "bytes32",
              "name": "",
              "type": "bytes32"
            }
          ],
          "stateMutability": "view",
          "type": "function"
        },
        {
          "inputs": [
            {
              "internalType": "address",
              "name": "owner",
              "type": "address"
            }
          ],
          "name": "isOwner",
          "outputs": [
            {
              "internalType": "bool",
              "name": "",
              "type": "bool"
            }
          ],
          "stateMutability": "view",
          "type": "function"
        },
        {
          "inputs": [],
          "name": "lastSignatureOwner",
          "outputs": [
            {
              "internalType": "address",
              "name": "",
              "type": "address"
            }
          ],
          "stateMutability": "view",
          "type": "function"
        },
        {
          "inputs": [],
          "name": "lastSignaturesLength",
          "outputs": [
            {
              "internalType": "uint256",
              "name": "",
              "type": "uint256"
            }
          ],
          "stateMutability": "view",
          "type": "function"
        },
        {
          "inputs": [],
          "name": "nonce",
          "outputs": [
            {
              "internalType": "uint256",
              "name": "",
              "type": "uint256"
            }
          ],
          "stateMutability": "view",
          "type": "function"
        },
        {
          "inputs": [
            {
              "internalType": "uint256",
              "name": "threshold",
              "type": "uint256"
            }
          ],
          "name": "setThreshold",
          "outputs": [],
          "stateMutability": "nonpayable",
          "type": "function"
        },
        {
          "stateMutability": "payable",
          "type": "receive"
        }
      ],
      "devdoc": {
        "kind": "dev",
        "methods": {},
        "version": 1
      },
      "evm": {
        "bytecode": {
          "linkReferences": {},
          "object": "60808060405234601a576001600255610c3990816100208239f35b600080fdfe6080604052600436101561001b575b361561001957600080fd5b005b60003560e01c806312fb68e0146100eb5780632f54bf6e146100e6578063616cd3d7146100e15780636a761202146100dc5780637065cb48146100d75780637d832974146100d2578063960bfe04146100cd578063affed0e0146100c8578063d4d9bdcd146100c3578063d8d11f78146100be578063e75235b8146100b9578063ec8c5982146100b45763f698da250361000e57610581565b610558565b61053a565b610490565b61040e565b6103f0565b6103d7565b61038a565b610349565b6102a3565b610276565b610234565b6101a3565b634e487b7160e01b600052604160045260246000fd5b90601f8019910116810190811067ffffffffffffffff82111761012857604052565b6100f0565b67ffffffffffffffff811161012857601f01601f191660200190565b9291926101558261012d565b916101636040519384610106565b829481845281830111610180578281602093846000960137010152565b600080fd5b9080601f83011215610180578160206101a093359101610149565b90565b346101805760803660031901126101805760043560243567ffffffffffffffff8111610180576101d7903690600401610185565b506044359067ffffffffffffffff8211610180576101fc610019923690600401610185565b6064359133610abb565b6001600160a01b0381160361018057565b60e4359061022482610206565b565b610104359061022482610206565b346101805760203660031901126101805760043561025181610206565b60018060a01b03166000526000602052602060ff604060002054166040519015158152f35b34610180576000366003190112610180576020600454604051908152f35b60643590600282101561018057565b610140366003190112610180576004356102bc81610206565b6024359060443567ffffffffffffffff8111610180576102e0903690600401610185565b906102e9610294565b60843560c43560a4356102fa610217565b92610303610226565b94610124359767ffffffffffffffff8911610180576103459961032d6103339a3690600401610185565b98610741565b60405190151581529081906020820190565b0390f35b346101805760203660031901126101805760043561036681610206565b6001600160a01b03166000908152602081905260409020805460ff19166001179055005b34610180576040366003190112610180576004356103a781610206565b6024359060018060a01b031660005260016020526040600020906000526020526020604060002054604051908152f35b3461018057602036600319011261018057600435600255005b34610180576000366003190112610180576020600354604051908152f35b346101805760203660031901126101805760043533600052600060205260ff60406000205416156104635761045d61001991336000526001602052604060002090600052602052604060002090565b60019055565b60405162461bcd60e51b8152602060048201526005602482015264047533033360dc1b6044820152606490fd5b3461018057610140366003190112610180576004356104ae81610206565b60243560443567ffffffffffffffff811161018057366023820112156101805780600401359167ffffffffffffffff8311610180573660248484010111610180576103459361052a936104ff610294565b60843560a4359160c43593610512610217565b9561051b610226565b976024610124359a0191610853565b6040519081529081906020820190565b34610180576000366003190112610180576020600254604051908152f35b34610180576000366003190112610180576005546040516001600160a01b039091168152602090f35b3461018057600036600319011261018057602061059c610959565b604051908152f35b600211156105ae57565b634e487b7160e01b600052602160045260246000fd5b156105cb57565b60405162461bcd60e51b815260206004820152601360248201527214d85999535bd8dace881bdb9b1e4810d85b1b606a1b6044820152606490fd5b90816020910312610180575190565b9060028210156105ae5752565b969399979491909a9895929a60018060a01b031687526020870152610140604087015289518061014088015260005b8181106106c457506101209798999a50916106af9391610690610160856000826106c09b9a988d010152601f80199101168a01019c60608a0190610615565b608088015260a087015260c08601526001600160a01b031660e0850152565b6001600160a01b0316610100830152565b0152565b80602080928e010151610160828b01015201610651565b6040513d6000823e3d90fd5b634e487b7160e01b600052601160045260246000fd5b600019811461070c5760010190565b6106e7565b3d1561073c573d906107228261012d565b916107306040519384610106565b82523d6000602084013e565b606090565b9596869394999891959297610755866105a4565b61075f86156105c4565b600354936040519b8c97631b1a23ef60e31b89528b8a60048b01996107839a610622565b03853091815a93602094fa94851561084e576107c7600096956107b888976107e994899161081f575b50826002549133610abb565b6107c28151600455565b610bc9565b60018060a01b03166bffffffffffffffffffffffff60a01b6005541617600555565b6107fc6107f76003546106fd565b600355565b602083519301915af19061080e610711565b82156108175750565b602081519101fd5b610841915060203d602011610847575b6108398183610106565b810190610606565b386107ac565b503d61082f565b6106db565b9691946108cf6109459a9561087b6109539b969d98999499610873610959565b9e3691610149565b602081519101206040519960208b019b7fbb8310d486368db6bd6f849402fdd73ad53d316b5a4b2644ad6efe0f941286d88d5260018060a01b031660408c015260608b015260808a015260a0890190610615565b60c087015260e08601526101008501526001600160a01b039081166101208501521661014083015261016080830191909152815261090f61018082610106565b519020604051601960f81b60208201908152600160f81b6021830152602282019590955260428101919091529182906062820190565b03601f198101835282610106565b51902090565b60405160208101907f47e79534a245952e8b16893a336b85a3d9ea9fa8c573f3d803afb92a79469218825246604082015230606082015260608152610953608082610106565b9060418202918083046041149015171561070c57565b156109bc57565b60405162461bcd60e51b8152602060048201526005602482015264047533032360dc1b6044820152606490fd5b602001908160201161070c57565b156109fe57565b60405162461bcd60e51b815260206004820152602760248201527f536166654d6f636b3a206f6e6c7920617070726f7665642068617368207369676044820152666e61747572657360c81b6064820152608490fd5b15610a5a57565b60405162461bcd60e51b8152602060048201526005602482015264475330323560d81b6044820152606490fd5b15610a8e57565b60405162461bcd60e51b815260206004820152600560248201526423a998191b60d91b6044820152606490fd5b9190610ad28251610acb8661099f565b11156109b5565b600091825b858410610ae657505050505050565b600190610afa610af58661099f565b6109e9565b8301610b1983610b136040845194015160001a60ff1690565b146109f7565b828060a01b03169081838060a01b038816148015610b8c575b610b3b90610a53565b828060a01b0316811180610b5b575b610b5390610a87565b930192610ad7565b50610b53610b85610b7e8360018060a01b03166000526000602052604060002090565b5460ff1690565b9050610b4a565b50610b3b610bbf86610bb08560018060a01b03166000526001602052604060002090565b90600052602052604060002090565b5415159050610b32565b80519060418210610bfc57604019820182811161070c5760201983011061070c570160201901516001600160a01b031690565b505060009056fea2646970667358221220b33f940f968ed8298f46c0f30acb4edc50eefac896664e9690b1501eef0cdb9c64736f6c634300081b0033",
          "opcodes": "PUSH1 0x80 DUP1 PUSH1 0x40 MSTORE CALLVALUE PUSH1 0x1A JUMPI PUSH1 0x1 PUSH1 0x2 SSTORE PUSH2 0xC39 SWAP1 DUP2 PUSH2 0x20 DUP3 CODECOPY RETURN JUMPDEST PUSH1 0x0 DUP1 REVERT INVALID PUSH1 0x80 PUSH1 0x40 MSTORE PUSH1 0x4 CALLDATASIZE LT ISZERO PUSH2 0x1B JUMPI JUMPDEST CALLDATASIZE ISZERO PUSH2 0x19 JUMPI PUSH1 0x0 DUP1 REVERT JUMPDEST STOP JUMPDEST PUSH1 0x0 CALLDATALOAD PUSH1 0xE0 SHR DUP1 PUSH4 0x12FB68E0 EQ PUSH2 0xEB JUMPI DUP1 PUSH4 0x2F54BF6E EQ PUSH2 0xE6 JUMPI DUP1 PUSH4 0x616CD3D7 EQ PUSH2 0xE1 JUMPI DUP1 PUSH4 0x6A761202 EQ PUSH2 0xDC JUMPI DUP1 PUSH4 0x7065CB48 EQ PUSH2 0xD7 JUMPI DUP1 PUSH4 0x7D832974 EQ PUSH2 0xD2 JUMPI DUP1 PUSH4 0x960BFE04 EQ PUSH2 0xCD JUMPI DUP1 PUSH4 0xAFFED0E0 EQ PUSH2 0xC8 JUMPI DUP1 PUSH4 0xD4D9BDCD EQ PUSH2 0xC3 JUMPI DUP1 PUSH4 0xD8D11F78 EQ PUSH2 0xBE JUMPI DUP1 PUSH4 0xE75235B8 EQ PUSH2 0xB9 JUMPI DUP1 PUSH4 0xEC8C5982 EQ PUSH2 0xB4 JUMPI PUSH4 0xF698DA25 SUB PUSH2 0xE JUMPI PUSH2 0x581 JUMP JUMPDEST PUSH2 0x558 JUMP JUMPDEST PUSH2 0x53A JUMP JUMPDEST PUSH2 0x490 JUMP JUMPDEST PUSH2 0x40E JUMP JUMPDEST PUSH2 0x3F0 JUMP JUMPDEST PUSH2 0x3D7 JUMP JUMPDEST PUSH2 0x38A JUMP JUMPDEST PUSH2 0x349 JUMP JUMPDEST PUSH2 0x2A3 JUMP JUMPDEST PUSH2 0x276 JUMP JUMPDEST PUSH2 0x234 JUMP JUMPDEST PUSH2 0x1A3 JUMP JUMPDEST PUSH4 0x4E487B71 PUSH1 0xE0 SHL PUSH1 0x0 MSTORE PUSH1 0x41 PUSH1 0x4 MSTORE PUSH1 0x24 PUSH1 0x0 REVERT JUMPDEST SWAP1 PUSH1 0x1F DUP1 NOT SWAP2 ADD AND DUP2 ADD SWAP1 DUP2 LT PUSH8 0xFFFFFFFFFFFFFFFF DUP3 GT OR PUSH2 0x128 JUMPI PUSH1 0x40 MSTORE JUMP JUMPDEST PUSH2 0xF0 JUMP JUMPDEST PUSH8 0xFFFFFFFFFFFFFFFF DUP2 GT PUSH2 0x128 JUMPI PUSH1 0x1F ADD PUSH1 0x1F NOT AND PUSH1 0x20 ADD SWAP1 JUMP JUMPDEST SWAP3 SWAP2 SWAP3 PUSH2 0x155 DUP3 PUSH2 0x12D JUMP JUMPDEST SWAP2 PUSH2 0x163 PUSH1 0x40 MLOAD SWAP4 DUP5 PUSH2 0x106 JUMP JUMPDEST DUP3 SWAP5 DUP2 DUP5 MSTORE DUP2 DUP4 ADD GT PUSH2 0x180 JUMPI DUP3 DUP2 PUSH1 0x20 SWAP4 DUP5 PUSH1 0x0 SWAP7 ADD CALLDATACOPY ADD ADD MSTORE JUMP JUMPDEST PUSH1 0x0 DUP1 REVERT JUMPDEST SWAP1 DUP1 PUSH1 0x1F DUP4 ADD SLT ISZERO PUSH2 0x180 JUMPI DUP2 PUSH1 0x20 PUSH2 0x1A0 SWAP4 CALLDATALOAD SWAP2 ADD PUSH2 0x149 JUMP JUMPDEST SWAP1 JUMP JUMPDEST CALLVALUE PUSH2 0x180 JUMPI PUSH1 0x80 CALLDATASIZE PUSH1 0x3 NOT ADD SLT PUSH2 0x180 JUMPI PUSH1 0x4 CALLDATALOAD PUSH1 0x24 CALLDATALOAD PUSH8 0xFFFFFFFFFFFFFFFF DUP2 GT PUSH2 0x180 JUMPI PUSH2 0x1D7 SWAP1 CALLDATASIZE SWAP1 PUSH1 0x4 ADD PUSH2 0x185 JUMP JUMPDEST POP PUSH1 0x44 CALLDATALOAD SWAP1 PUSH8 0xFFFFFFFFFFFFFFFF DUP3 GT PUSH2 0x180 JUMPI PUSH2 0x1FC PUSH2 0x19 SWAP3 CALLDATASIZE SWAP1 PUSH1 0x4 ADD PUSH2 0x185 JUMP JUMPDEST PUSH1 0x64 CALLDATALOAD SWAP2 CALLER PUSH2 0xABB JUMP JUMPDEST PUSH1 0x1 PUSH1 0x1 PUSH1 0xA0 SHL SUB DUP2 AND SUB PUSH2 0x180 JUMPI JUMP JUMPDEST PUSH1 0xE4 CALLDATALOAD SWAP1 PUSH2 0x224 DUP3 PUSH2 0x206 JUMP JUMPDEST JUMP JUMPDEST PUSH2 0x104 CALLDATALOAD SWAP1 PUSH2 0x224 DUP3 PUSH2 0x206 JUMP JUMPDEST CALLVALUE PUSH2 0x180 JUMPI PUSH1 0x20 CALLDATASIZE PUSH1 0x3 NOT ADD SLT PUSH2 0x180 JUMPI PUSH1 0x4 CALLDATALOAD PUSH2 0x251 DUP2 PUSH2 0x206 JUMP JUMPDEST PUSH1 0x1 DUP1 PUSH1 0xA0 SHL SUB AND PUSH1 0x0 MSTORE PUSH1 0x0 PUSH1 0x20 MSTORE PUSH1 0x20 PUSH1 0xFF PUSH1 0x40 PUSH1 0x0 KECCAK256 SLOAD AND PUSH1 0x40 MLOAD SWAP1 ISZERO ISZERO DUP2 MSTORE RETURN JUMPDEST CALLVALUE PUSH2 0x180 JUMPI PUSH1 0x0 CALLDATASIZE PUSH1 0x3 NOT ADD SLT PUSH2 0x180 JUMPI PUSH1 0x20 PUSH1 0x4 SLOAD PUSH1 0x40 MLOAD SWAP1 DUP2 MSTORE RETURN JUMPDEST PUSH1 0x64 CALLDATALOAD SWAP1 PUSH1 0x2 DUP3 LT ISZERO PUSH2 0x180 JUMPI JUMP JUMPDEST PUSH2 0x140 CALLDATASIZE PUSH1 0x3 NOT ADD SLT PUSH2 0x180 JUMPI PUSH1 0x4 CALLDATALOAD PUSH2 0x2BC DUP2 PUSH2 0x206 JUMP JUMPDEST PUSH1 0x24 CALLDATALOAD SWAP1 PUSH1 0x44 CALLDATALOAD PUSH8 0xFFFFFFFFFFFFFFFF DUP2 GT PUSH2 0x180 JUMPI PUSH2 0x2E0 SWAP1 CALLDATASIZE SWAP1 PUSH1 0x4 ADD PUSH2 0x185 JUMP JUMPDEST SWAP1 PUSH2 0x2E9 PUSH2 0x294 JUMP JUMPDEST PUSH1 0x84 CALLDATALOAD PUSH1 0xC4 CALLDATALOAD PUSH1 0xA4 CALLDATALOAD PUSH2 0x2FA PUSH2 0x217 JUMP JUMPDEST SWAP3 PUSH2 0x303 PUSH2 0x226 JUMP JUMPDEST SWAP5 PUSH2 0x124 CALLDATALOAD SWAP8 PUSH8 0xFFFFFFFFFFFFFFFF DUP10 GT PUSH2 0x180 JUMPI PUSH2 0x345 SWAP10 PUSH2 0x32D PUSH2 0x333 SWAP11 CALLDATASIZE SWAP1 PUSH1 0x4 ADD PUSH2 0x185 JUMP JUMPDEST SWAP9 PUSH2 0x741 JUMP JUMPDEST PUSH1 0x40 MLOAD SWAP1 ISZERO ISZERO DUP2 MSTORE SWAP1 DUP2 SWAP1 PUSH1 0x20 DUP3 ADD SWAP1 JUMP JUMPDEST SUB SWAP1 RETURN JUMPDEST CALLVALUE PUSH2 0x180 JUMPI PUSH1 0x20 CALLDATASIZE PUSH1 0x3 NOT ADD SLT PUSH2 0x180 JUMPI PUSH1 0x4 CALLDATALOAD PUSH2 0x366 DUP2 PUSH2 0x206 JUMP JUMPDEST PUSH1 0x1 PUSH1 0x1 PUSH1 0xA0 SHL SUB AND PUSH1 0x0 SWAP1 DUP2 MSTORE PUSH1 0x20 DUP2 SWAP1 MSTORE PUSH1 0x40 SWAP1 KECCAK256 DUP1 SLOAD PUSH1 0xFF NOT AND PUSH1 0x1 OR SWAP1 SSTORE STOP JUMPDEST CALLVALUE PUSH2 0x180 JUMPI PUSH1 0x40 CALLDATASIZE PUSH1 0x3 NOT ADD SLT PUSH2 0x180 JUMPI PUSH1 0x4 CALLDATALOAD PUSH2 0x3A7 DUP2 PUSH2 0x206 JUMP JUMPDEST PUSH1 0x24 CALLDATALOAD SWAP1 PUSH1 0x1 DUP1 PUSH1 0xA0 SHL SUB AND PUSH1 0x0 MSTORE PUSH1 0x1 PUSH1 0x20 MSTORE PUSH1 0x40 PUSH1 0x0 KECCAK256 SWAP1 PUSH1 0x0 MSTORE PUSH1 0x20 MSTORE PUSH1 0x20 PUSH1 0x40 PUSH1 0x0 KECCAK256 SLOAD PUSH1 0x40 MLOAD SWAP1 DUP2 MSTORE RETURN JUMPDEST CALLVALUE PUSH2 0x180 JUMPI PUSH1 0x20 CALLDATASIZE PUSH1 0x3 NOT ADD SLT PUSH2 0x180 JUMPI PUSH1 0x4 CALLDATALOAD PUSH1 0x2 SSTORE STOP JUMPDEST CALLVALUE PUSH2 0x180 JUMPI PUSH1 0x0 CALLDATASIZE PUSH1 0x3 NOT ADD SLT PUSH2 0x180 JUMPI PUSH1 0x20 PUSH1 0x3 SLOAD PUSH1 0x40 MLOAD SWAP1 DUP2 MSTORE RETURN JUMPDEST CALLVALUE PUSH2 0x180 JUMPI PUSH1 0x20 CALLDATASIZE PUSH1 0x3 NOT ADD SLT PUSH2 0x180 JUMPI PUSH1 0x4 CALLDATALOAD CALLER PUSH1 0x0 MSTORE PUSH1 0x0 PUSH1 0x20 MSTORE PUSH1 0xFF PUSH1 0x40 PUSH1 0x0 KECCAK256 SLOAD AND ISZERO PUSH2 0x463 JUMPI PUSH2 0x45D PUSH2 0x19 SWAP2 CALLER PUSH1 0x0 MSTORE PUSH1 0x1 PUSH1 0x20 MSTORE PUSH1 0x40 PUSH1 0x0 KECCAK256 SWAP1 PUSH1 0x0 MSTORE PUSH1 0x20 MSTORE PUSH1 0x40 PUSH1 0x0 KECCAK256 SWAP1 JUMP JUMPDEST PUSH1 0x1 SWAP1 SSTORE JUMP JUMPDEST PUSH1 0x40 MLOAD PUSH3 0x461BCD PUSH1 0xE5 SHL DUP2 MSTORE PUSH1 0x20 PUSH1 0x4 DUP3 ADD MSTORE PUSH1 0x5 PUSH1 0x24 DUP3 ADD MSTORE PUSH5 0x475330333 PUSH1 0xDC SHL PUSH1 0x44 DUP3 ADD MSTORE PUSH1 0x64 SWAP1 REVERT JUMPDEST CALLVALUE PUSH2 0x180 JUMPI PUSH2 0x140 CALLDATASIZE PUSH1 0x3 NOT ADD SLT PUSH2 0x180 JUMPI PUSH1 0x4 CALLDATALOAD PUSH2 0x4AE DUP2 PUSH2 0x206 JUMP JUMPDEST PUSH1 0x24 CALLDATALOAD PUSH1 0x44 CALLDATALOAD PUSH8 0xFFFFFFFFFFFFFFFF DUP2 GT PUSH2 0x180 JUMPI CALLDATASIZE PUSH1 0x23 DUP3 ADD SLT ISZERO PUSH2 0x180 JUMPI DUP1 PUSH1 0x4 ADD CALLDATALOAD SWAP2 PUSH8 0xFFFFFFFFFFFFFFFF DUP4 GT PUSH2 0x180 JUMPI CALLDATASIZE PUSH1 0x24 DUP5 DUP5 ADD ADD GT PUSH2 0x180 JUMPI PUSH2 0x345 SWAP4 PUSH2 0x52A SWAP4 PUSH2 0x4FF PUSH2 0x294 JUMP JUMPDEST PUSH1 0x84 CALLDATALOAD PUSH1 0xA4 CALLDATALOAD SWAP2 PUSH1 0xC4 CALLDATALOAD SWAP4 PUSH2 0x512 PUSH2 0x217 JUMP JUMPDEST SWAP6 PUSH2 0x51B PUSH2 0x226 JUMP JUMPDEST SWAP8 PUSH1 0x24 PUSH2 0x124 CALLDATALOAD SWAP11 ADD SWAP2 PUSH2 0x853 JUMP JUMPDEST PUSH1 0x40 MLOAD SWAP1 DUP2 MSTORE SWAP1 DUP2 SWAP1 PUSH1 0x20 DUP3 ADD SWAP1 JUMP JUMPDEST CALLVALUE PUSH2 0x180 JUMPI PUSH1 0x0 CALLDATASIZE PUSH1 0x3 NOT ADD SLT PUSH2 0x180 JUMPI PUSH1 0x20 PUSH1 0x2 SLOAD PUSH1 0x40 MLOAD SWAP1 DUP2 MSTORE RETURN JUMPDEST CALLVALUE PUSH2 0x180 JUMPI PUSH1 0x0 CALLDATASIZE PUSH1 0x3 NOT ADD SLT PUSH2 0x180 JUMPI PUSH1 0x5 SLOAD PUSH1 0x40 MLOAD PUSH1 0x1 PUSH1 0x1 PUSH1 0xA0 SHL SUB SWAP1 SWAP2 AND DUP2 MSTORE PUSH1 0x20 SWAP1 RETURN JUMPDEST CALLVALUE PUSH2 0x180 JUMPI PUSH1 0x0 CALLDATASIZE PUSH1 0x3 NOT ADD SLT PUSH2 0x180 JUMPI PUSH1 0x20 PUSH2 0x59C PUSH2 0x959 JUMP JUMPDEST PUSH1 0x40 MLOAD SWAP1 DUP2 MSTORE RETURN JUMPDEST PUSH1 0x2 GT ISZERO PUSH2 0x5AE JUMPI JUMP JUMPDEST PUSH4 0x4E487B71 PUSH1 0xE0 SHL PUSH1 0x0 MSTORE PUSH1 0x21 PUSH1 0x4 MSTORE PUSH1 0x24 PUSH1 0x0 REVERT JUMPDEST ISZERO PUSH2 0x5CB JUMPI JUMP JUMPDEST PUSH1 0x40 MLOAD PUSH3 0x461BCD PUSH1 0xE5 SHL DUP2 MSTORE PUSH1 0x20 PUSH1 0x4 DUP3 ADD MSTORE PUSH1 0x13 PUSH1 0x24 DUP3 ADD MSTORE PUSH19 0x14D85999535BD8DACE881BDB9B1E4810D85B1B PUSH1 0x6A SHL PUSH1 0x44 DUP3 ADD MSTORE PUSH1 0x64 SWAP1 REVERT JUMPDEST SWAP1 DUP2 PUSH1 0x20 SWAP2 SUB SLT PUSH2 0x180 JUMPI MLOAD SWAP1 JUMP JUMPDEST SWAP1 PUSH1 0x2 DUP3 LT ISZERO PUSH2 0x5AE JUMPI MSTORE JUMP JUMPDEST SWAP7 SWAP4 SWAP10 SWAP8 SWAP5 SWAP2 SWAP1 SWAP11 SWAP9 SWAP6 SWAP3 SWAP11 PUSH1 0x1 DUP1 PUSH1 0xA0 SHL SUB AND DUP8 MSTORE PUSH1 0x20 DUP8 ADD MSTORE PUSH2 0x140 PUSH1 0x40 DUP8 ADD MSTORE DUP10 MLOAD DUP1 PUSH2 0x140 DUP9 ADD MSTORE PUSH1 0x0 JUMPDEST DUP2 DUP2 LT PUSH2 0x6C4 JUMPI POP PUSH2 0x120 SWAP8 SWAP9 SWAP10 SWAP11 POP SWAP2 PUSH2 0x6AF SWAP4 SWAP2 PUSH2 0x690 PUSH2 0x160 DUP6 PUSH1 0x0 DUP3 PUSH2 0x6C0 SWAP12 SWAP11 SWAP9 DUP14 ADD ADD MSTORE PUSH1 0x1F DUP1 NOT SWAP2 ADD AND DUP11 ADD ADD SWAP13 PUSH1 0x60 DUP11 ADD SWAP1 PUSH2 0x615 JUMP JUMPDEST PUSH1 0x80 DUP9 ADD MSTORE PUSH1 0xA0 DUP8 ADD MSTORE PUSH1 0xC0 DUP7 ADD MSTORE PUSH1 0x1 PUSH1 0x1 PUSH1 0xA0 SHL SUB AND PUSH1 0xE0 DUP6 ADD MSTORE JUMP JUMPDEST PUSH1 0x1 PUSH1 0x1 PUSH1 0xA0 SHL SUB AND PUSH2 0x100 DUP4 ADD MSTORE JUMP JUMPDEST ADD MSTORE JUMP JUMPDEST DUP1 PUSH1 0x20 DUP1 SWAP3 DUP15 ADD ADD MLOAD PUSH2 0x160 DUP3 DUP12 ADD ADD MSTORE ADD PUSH2 0x651 JUMP JUMPDEST PUSH1 0x40 MLOAD RETURNDATASIZE PUSH1 0x0 DUP3 RETURNDATACOPY RETURNDATASIZE SWAP1 REVERT JUMPDEST PUSH4 0x4E487B71 PUSH1 0xE0 SHL PUSH1 0x0 MSTORE PUSH1 0x11 PUSH1 0x4 MSTORE PUSH1 0x24 PUSH1 0x0 REVERT JUMPDEST PUSH1 0x0 NOT DUP2 EQ PUSH2 0x70C JUMPI PUSH1 0x1 ADD SWAP1 JUMP JUMPDEST PUSH2 0x6E7 JUMP JUMPDEST RETURNDATASIZE ISZERO PUSH2 0x73C JUMPI RETURNDATASIZE SWAP1 PUSH2 0x722 DUP3 PUSH2 0x12D JUMP JUMPDEST SWAP2 PUSH2 0x730 PUSH1 0x40 MLOAD SWAP4 DUP5 PUSH2 0x106 JUMP JUMPDEST DUP3 MSTORE RETURNDATASIZE PUSH1 0x0 PUSH1 0x20 DUP5 ADD RETURNDATACOPY JUMP JUMPDEST PUSH1 0x60 SWAP1 JUMP JUMPDEST SWAP6 SWAP7 DUP7 SWAP4 SWAP5 SWAP10 SWAP9 SWAP2 SWAP6 SWAP3 SWAP8 PUSH2 0x755 DUP7 PUSH2 0x5A4 JUMP JUMPDEST PUSH2 0x75F DUP7 ISZERO PUSH2 0x5C4 JUMP JUMPDEST PUSH1 0x3 SLOAD SWAP4 PUSH1 0x40 MLOAD SWAP12 DUP13 SWAP8 PUSH4 0x1B1A23EF PUSH1 0xE3 SHL DUP10 MSTORE DUP12 DUP11 PUSH1 0x4 DUP12 ADD SWAP10 PUSH2 0x783 SWAP11 PUSH2 0x622 JUMP JUMPDEST SUB DUP6 ADDRESS SWAP2 DUP2 GAS SWAP4 PUSH1 0x20 SWAP5 STATICCALL SWAP5 DUP6 ISZERO PUSH2 0x84E JUMPI PUSH2 0x7C7 PUSH1 0x0 SWAP7 SWAP6 PUSH2 0x7B8 DUP9 SWAP8 PUSH2 0x7E9 SWAP5 DUP10 SWAP2 PUSH2 0x81F JUMPI JUMPDEST POP DUP3 PUSH1 0x2 SLOAD SWAP2 CALLER PUSH2 0xABB JUMP JUMPDEST PUSH2 0x7C2 DUP2 MLOAD PUSH1 0x4 SSTORE JUMP JUMPDEST PUSH2 0xBC9 JUMP JUMPDEST PUSH1 0x1 DUP1 PUSH1 0xA0 SHL SUB AND PUSH12 0xFFFFFFFFFFFFFFFFFFFFFFFF PUSH1 0xA0 SHL PUSH1 0x5 SLOAD AND OR PUSH1 0x5 SSTORE JUMP JUMPDEST PUSH2 0x7FC PUSH2 0x7F7 PUSH1 0x3 SLOAD PUSH2 0x6FD JUMP JUMPDEST PUSH1 0x3 SSTORE JUMP JUMPDEST PUSH1 0x20 DUP4 MLOAD SWAP4 ADD SWAP2 GAS CALL SWAP1 PUSH2 0x80E PUSH2 0x711 JUMP JUMPDEST DUP3 ISZERO PUSH2 0x817 JUMPI POP JUMP JUMPDEST PUSH1 0x20 DUP2 MLOAD SWAP2 ADD REVERT JUMPDEST PUSH2 0x841 SWAP2 POP PUSH1 0x20 RETURNDATASIZE PUSH1 0x20 GT PUSH2 0x847 JUMPI JUMPDEST PUSH2 0x839 DUP2 DUP4 PUSH2 0x106 JUMP JUMPDEST DUP2 ADD SWAP1 PUSH2 0x606 JUMP JUMPDEST CODESIZE PUSH2 0x7AC JUMP JUMPDEST POP RETURNDATASIZE PUSH2 0x82F JUMP JUMPDEST PUSH2 0x6DB JUMP JUMPDEST SWAP7 SWAP2 SWAP5 PUSH2 0x8CF PUSH2 0x945 SWAP11 SWAP6 PUSH2 0x87B PUSH2 0x953 SWAP12 SWAP7 SWAP14 SWAP9 SWAP10 SWAP5 SWAP10 PUSH2 0x873 PUSH2 0x959 JUMP JUMPDEST SWAP15 CALLDATASIZE SWAP2 PUSH2 0x149 JUMP JUMPDEST PUSH1 0x20 DUP2 MLOAD SWAP2 ADD KECCAK256 PUSH1 0x40 MLOAD SWAP10 PUSH1 0x20 DUP12 ADD SWAP12 PUSH32 0xBB8310D486368DB6BD6F849402FDD73AD53D316B5A4B2644AD6EFE0F941286D8 DUP14 MSTORE PUSH1 0x1 DUP1 PUSH1 0xA0 SHL SUB AND PUSH1 0x40 DUP13 ADD MSTORE PUSH1 0x60 DUP12 ADD MSTORE PUSH1 0x80 DUP11 ADD MSTORE PUSH1 0xA0 DUP10 ADD SWAP1 PUSH2 0x615 JUMP JUMPDEST PUSH1 0xC0 DUP8 ADD MSTORE PUSH1 0xE0 DUP7 ADD MSTORE PUSH2 0x100 DUP6 ADD MSTORE PUSH1 0x1 PUSH1 0x1 PUSH1 0xA0 SHL SUB SWAP1 DUP2 AND PUSH2 0x120 DUP6 ADD MSTORE AND PUSH2 0x140 DUP4 ADD MSTORE PUSH2 0x160 DUP1 DUP4 ADD SWAP2 SWAP1 SWAP2 MSTORE DUP2 MSTORE PUSH2 0x90F PUSH2 0x180 DUP3 PUSH2 0x106 JUMP JUMPDEST MLOAD SWAP1 KECCAK256 PUSH1 0x40 MLOAD PUSH1 0x19 PUSH1 0xF8 SHL PUSH1 0x20 DUP3 ADD SWAP1 DUP2 MSTORE PUSH1 0x1 PUSH1 0xF8 SHL PUSH1 0x21 DUP4 ADD MSTORE PUSH1 0x22 DUP3 ADD SWAP6 SWAP1 SWAP6 MSTORE PUSH1 0x42 DUP2 ADD SWAP2 SWAP1 SWAP2 MSTORE SWAP2 DUP3 SWAP1 PUSH1 0x62 DUP3 ADD SWAP1 JUMP JUMPDEST SUB PUSH1 0x1F NOT DUP2 ADD DUP4 MSTORE DUP3 PUSH2 0x106 JUMP JUMPDEST MLOAD SWAP1 KECCAK256 SWAP1 JUMP JUMPDEST PUSH1 0x40 MLOAD PUSH1 0x20 DUP2 ADD SWAP1 PUSH32 0x47E79534A245952E8B16893A336B85A3D9EA9FA8C573F3D803AFB92A79469218 DUP3 MSTORE CHAINID PUSH1 0x40 DUP3 ADD MSTORE ADDRESS PUSH1 0x60 DUP3 ADD MSTORE PUSH1 0x60 DUP2 MSTORE PUSH2 0x953 PUSH1 0x80 DUP3 PUSH2 0x106 JUMP JUMPDEST SWAP1 PUSH1 0x41 DUP3 MUL SWAP2 DUP1 DUP4 DIV PUSH1 0x41 EQ SWAP1 ISZERO OR ISZERO PUSH2 0x70C JUMPI JUMP JUMPDEST ISZERO PUSH2 0x9BC JUMPI JUMP JUMPDEST PUSH1 0x40 MLOAD PUSH3 0x461BCD PUSH1 0xE5 SHL DUP2 MSTORE PUSH1 0x20 PUSH1 0x4 DUP3 ADD MSTORE PUSH1 0x5 PUSH1 0x24 DUP3 ADD MSTORE PUSH5 0x475330323 PUSH1 0xDC SHL PUSH1 0x44 DUP3 ADD MSTORE PUSH1 0x64 SWAP1 REVERT JUMPDEST PUSH1 0x20 ADD SWAP1 DUP2 PUSH1 0x20 GT PUSH2 0x70C JUMPI JUMP JUMPDEST ISZERO PUSH2 0x9FE JUMPI JUMP JUMPDEST PUSH1 0x40 MLOAD PUSH3 0x461BCD PUSH1 0xE5 SHL DUP2 MSTORE PUSH1 0x20 PUSH1 0x4 DUP3 ADD MSTORE PUSH1 0x27 PUSH1 0x24 DUP3 ADD MSTORE PUSH32 0x536166654D6F636B3A206F6E6C7920617070726F766564206861736820736967 PUSH1 0x44 DUP3 ADD MSTORE PUSH7 0x6E617475726573 PUSH1 0xC8 SHL PUSH1 0x64 DUP3 ADD MSTORE PUSH1 0x84 SWAP1 REVERT JUMPDEST ISZERO PUSH2 0xA5A JUMPI JUMP JUMPDEST PUSH1 0x40 MLOAD PUSH3 0x461BCD PUSH1 0xE5 SHL DUP2 MSTORE PUSH1 0x20 PUSH1 0x4 DUP3 ADD MSTORE PUSH1 0x5 PUSH1 0x24 DUP3 ADD MSTORE PUSH5 0x4753303235 PUSH1 0xD8 SHL PUSH1 0x44 DUP3 ADD MSTORE PUSH1 0x64 SWAP1 REVERT JUMPDEST ISZERO PUSH2 0xA8E JUMPI JUMP JUMPDEST PUSH1 0x40 MLOAD PUSH3 0x461BCD PUSH1 0xE5 SHL DUP2 MSTORE PUSH1 0x20 PUSH1 0x4 DUP3 ADD MSTORE PUSH1 0x5 PUSH1 0x24 DUP3 ADD MSTORE PUSH5 0x23A998191B PUSH1 0xD9 SHL PUSH1 0x44 DUP3 ADD MSTORE PUSH1 0x64 SWAP1 REVERT JUMPDEST SWAP2 SWAP1 PUSH2 0xAD2 DUP3 MLOAD PUSH2 0xACB DUP7 PUSH2 0x99F JUMP JUMPDEST GT ISZERO PUSH2 0x9B5 JUMP JUMPDEST PUSH1 0x0 SWAP2 DUP3 JUMPDEST DUP6 DUP5 LT PUSH2 0xAE6 JUMPI POP POP POP POP POP POP JUMP JUMPDEST PUSH1 0x1 SWAP1 PUSH2 0xAFA PUSH2 0xAF5 DUP7 PUSH2 0x99F JUMP JUMPDEST PUSH2 0x9E9 JUMP JUMPDEST DUP4 ADD PUSH2 0xB19 DUP4 PUSH2 0xB13 PUSH1 0x40 DUP5 MLOAD SWAP5 ADD MLOAD PUSH1 0x0 BYTE PUSH1 0xFF AND SWAP1 JUMP JUMPDEST EQ PUSH2 0x9F7 JUMP JUMPDEST DUP3 DUP1 PUSH1 0xA0 SHL SUB AND SWAP1 DUP2 DUP4 DUP1 PUSH1 0xA0 SHL SUB DUP9 AND EQ DUP1 ISZERO PUSH2 0xB8C JUMPI JUMPDEST PUSH2 0xB3B SWAP1 PUSH2 0xA53 JUMP JUMPDEST DUP3 DUP1 PUSH1 0xA0 SHL SUB AND DUP2 GT DUP1 PUSH2 0xB5B JUMPI JUMPDEST PUSH2 0xB53 SWAP1 PUSH2 0xA87 JUMP JUMPDEST SWAP4 ADD SWAP3 PUSH2 0xAD7 JUMP JUMPDEST POP PUSH2 0xB53 PUSH2 0xB85 PUSH2 0xB7E DUP4 PUSH1 0x1 DUP1 PUSH1 0xA0 SHL SUB AND PUSH1 0x0 MSTORE PUSH1 0x0 PUSH1 0x20 MSTORE PUSH1 0x40 PUSH1 0x0 KECCAK256 SWAP1 JUMP JUMPDEST SLOAD PUSH1 0xFF AND SWAP1 JUMP JUMPDEST SWAP1 POP PUSH2 0xB4A JUMP JUMPDEST POP PUSH2 0xB3B PUSH2 0xBBF DUP7 PUSH2 0xBB0 DUP6 PUSH1 0x1 DUP1 PUSH1 0xA0 SHL SUB AND PUSH1 0x0 MSTORE PUSH1 0x1 PUSH1 0x20 MSTORE PUSH1 0x40 PUSH1 0x0 KECCAK256 SWAP1 JUMP JUMPDEST SWAP1 PUSH1 0x0 MSTORE PUSH1 0x20 MSTORE PUSH1 0x40 PUSH1 0x0 KECCAK256 SWAP1 JUMP JUMPDEST SLOAD ISZERO ISZERO SWAP1 POP PUSH2 0xB32 JUMP JUMPDEST DUP1 MLOAD SWAP1 PUSH1 0x41 DUP3 LT PUSH2 0xBFC JUMPI PUSH1 0x40 NOT DUP3 ADD DUP3 DUP2 GT PUSH2 0x70C JUMPI PUSH1 0x20 NOT DUP4 ADD LT PUSH2 0x70C JUMPI ADD PUSH1 0x20 NOT ADD MLOAD PUSH1 0x1 PUSH1 0x1 PUSH1 0xA0 SHL SUB AND SWAP1 JUMP JUMPDEST POP POP PUSH1 0x0 SWAP1 JUMP INVALID LOG2 PUSH5 0x6970667358 0x22 SLT KECCAK256 0xB3 EXTCODEHASH SWAP5 0xF SWAP7 DUP15 0xD8 0x29 DUP16 CHAINID 0xC0 RETURN EXP 0xCB 0x4E 0xDC POP 0xEE STATICCALL 0xC8 SWAP7 PUSH7 0x4E9690B1501EEF 0xC 0xDB SWAP13 PUSH5 0x736F6C6343 STOP ADDMOD SHL STOP CALLER "
        },
        "methodIdentifiers": {
          "addOwner(address)": "7065cb48",
          "approveHash(bytes32)": "d4d9bdcd",
          "approvedHashes(address,bytes32)": "7d832974",
          "checkNSignatures(bytes32,bytes,bytes,uint256)": "12fb68e0",
          "domainSeparator()": "f698da25",
          "execTransaction(address,uint256,bytes,uint8,uint256,uint256,uint256,address,address,bytes)": "6a761202",
          "getThreshold()": "e75235b8",
          "getTransactionHash(address,uint256,bytes,uint8,uint256,uint256,uint256,address,address,uint256)": "d8d11f78",
          "isOwner(address)": "2f54bf6e",
          "lastSignatureOwner()": "ec8c5982",
          "lastSignaturesLength()": "616cd3d7",
          "nonce()": "affed0e0",
          "setThreshold(uint256)": "960bfe04"
        }
      },
      "userdoc": {
        "kind": "user",
        "methods": {},
        "version": 1
      }
    }
  }
}