{
  "contracts/BalanceProxy.sol": {
    "BalanceProxy": {
      "abi": [
        {
          "inputs": [
            {
              "internalType": "address",
              "name": "target",
              "type": "address"
            },
            {
              "internalType": "bytes",
              "name": "data",
              "type": "bytes"
            },
            {
              "internalType": "bytes",
              "name": "returnData",
              "type": "bytes"
            }
          ],
          "name": "CallFailed",
          "type": "error"
        },
        {
          "inputs": [
            {
              "internalType": "address",
              "name": "target",
              "type": "address"
            },
            {
              "internalType": "bytes4",
              "name": "selector",
              "type": "bytes4"
            }
          ],
          "name": "DangerousTokenCall",
          "type": "error"
        },
        {
          "inputs": [
            {
              "internalType": "address",
              "name": "token",
              "type": "address"
            },
            {
              "internalType": "address",
              "name": "target",
              "type": "address"
            },
            {
              "internalType": "int256",
              "name": "balance",
              "type": "int256"
            },
            {
              "internalType": "uint256",
              "name": "actual",
              "type": "uint256"
            }
          ],
          "name": "InsufficientBalance",
          "type": "error"
        },
        {
          "inputs": [
            {
              "internalType": "address",
              "name": "token",
              "type": "address"
            },
            {
              "internalType": "string",
              "name": "expectedSymbol",
              "type": "string"
            },
            {
              "internalType": "uint8",
              "name": "expectedDecimals",
              "type": "uint8"
            },
            {
              "internalType": "string",
              "name": "actualSymbol",
              "type": "string"
            },
            {
              "internalType": "uint8",
              "name": "actualDecimals",
              "type": "uint8"
            }
          ],
          "name": "InvalidMetadata",
          "type": "error"
        },
        {
          "inputs": [
            {
              "internalType": "uint256",
              "name": "flagsLength",
              "type": "uint256"
            },
            {
              "internalType": "uint256",
              "name": "approvalsLength",
              "type": "uint256"
            }
          ],
          "name": "InvalidTransferFlagsLength",
          "type": "error"
        },
        {
          "inputs": [
            {
              "internalType": "address",
              "name": "token",
              "type": "address"
            },
            {
              "internalType": "address",
              "name": "target",
              "type": "address"
            }
          ],
          "name": "MaliciousApproveTarget",
          "type": "error"
        },
        {
          "inputs": [
            {
              "internalType": "address",
              "name": "token",
              "type": "address"
            },
            {
              "internalType": "address",
              "name": "target",
              "type": "address"
            },
            {
              "internalType": "int256",
              "name": "expected",
              "type": "int256"
            },
            {
              "internalType": "int256",
              "name": "actual",
              "type": "int256"
            }
          ],
          "name": "UnexpectedBalanceDiff",
          "type": "error"
        },
        {
          "inputs": [
            {
              "components": [
                {
                  "internalType": "address",
                  "name": "target",
                  "type": "address"
                },
                {
                  "internalType": "address",
                  "name": "token",
                  "type": "address"
                },
                {
                  "internalType": "int256",
                  "name": "balance",
                  "type": "int256"
                }
              ],
              "internalType": "struct IBalanceProxy.Balance[]",
              "name": "postBalances",
              "type": "tuple[]"
            },
            {
              "components": [
                {
                  "internalType": "address",
                  "name": "target",
                  "type": "address"
                },
                {
                  "internalType": "address",
                  "name": "token",
                  "type": "address"
                },
                {
                  "internalType": "int256",
                  "name": "balance",
                  "type": "int256"
                }
              ],
              "internalType": "struct IBalanceProxy.Balance[]",
              "name": "approvals",
              "type": "tuple[]"
            },
            {
              "internalType": "bool[]",
              "name": "useTransferFlags",
              "type": "bool[]"
            },
            {
              "internalType": "address",
              "name": "target",
              "type": "address"
            },
            {
              "internalType": "bytes",
              "name": "data",
              "type": "bytes"
            },
            {
              "components": [
                {
                  "internalType": "address",
                  "name": "target",
                  "type": "address"
                },
                {
                  "internalType": "address",
                  "name": "token",
                  "type": "address"
                },
                {
                  "internalType": "int256",
                  "name": "balance",
                  "type": "int256"
                }
              ],
              "internalType": "struct IBalanceProxy.Balance[]",
              "name": "withdrawals",
              "type": "tuple[]"
            }
          ],
          "name": "proxyCall",
          "outputs": [
            {
              "internalType": "bytes",
              "name": "",
              "type": "bytes"
            }
          ],
          "stateMutability": "payable",
          "type": "function"
        },
        {
          "inputs": [
            {
              "components": [
                {
                  "internalType": "address",
                  "name": "target",
                  "type": "address"
                },
                {
                  "internalType": "address",
                  "name": "token",
                  "type": "address"
                },
                {
                  "internalType": "int256",
                  "name": "balance",
                  "type": "int256"
                }
              ],
              "internalType": "struct IBalanceProxy.Balance[]",
              "name": "postBalances",
              "type": "tuple[]"
            },
            {
              "components": [
                {
                  "internalType": "address",
                  "name": "target",
                  "type": "address"
                },
                {
                  "internalType": "address",
                  "name": "token",
                  "type": "address"
                },
                {
                  "internalType": "int256",
                  "name": "balance",
                  "type": "int256"
                }
              ],
              "internalType": "struct IBalanceProxy.Balance[]",
              "name": "approvals",
              "type": "tuple[]"
            },
            {
              "internalType": "bool[]",
              "name": "useTransferFlags",
              "type": "bool[]"
            },
            {
              "internalType": "address",
              "name": "target",
              "type": "address"
            },
            {
              "internalType": "bytes",
              "name": "data",
              "type": "bytes"
            },
            {
              "components": [
                {
                  "internalType": "address",
                  "name": "target",
                  "type": "address"
                },
                {
                  "internalType": "address",
                  "name": "token",
                  "type": "address"
                },
                {
                  "internalType": "int256",
                  "name": "balance",
                  "type": "int256"
                }
              ],
              "internalType": "struct IBalanceProxy.Balance[]",
              "name": "withdrawals",
              "type": "tuple[]"
            }
          ],
          "name": "proxyCallCalldata",
          "outputs": [
            {
              "internalType": "bytes",
              "name": "",
              "type": "bytes"
            }
          ],
          "stateMutability": "payable",
          "type": "function"
        },
        {
          "inputs": [
            {
              "components": [
                {
                  "internalType": "address",
                  "name": "target",
                  "type": "address"
                },
                {
                  "internalType": "address",
                  "name": "token",
                  "type": "address"
                },
                {
                  "internalType": "int256",
                  "name": "balance",
                  "type": "int256"
                }
              ],
              "internalType": "struct IBalanceProxy.Balance[]",
              "name": "diffs",
              "type": "tuple[]"
            },
            {
              "components": [
                {
                  "internalType": "address",
                  "name": "target",
                  "type": "address"
                },
                {
                  "internalType": "address",
                  "name": "token",
                  "type": "address"
                },
                {
                  "internalType": "int256",
                  "name": "balance",
                  "type": "int256"
                }
              ],
              "internalType": "struct IBalanceProxy.Balance[]",
              "name": "approvals",
              "type": "tuple[]"
            },
            {
              "internalType": "bool[]",
              "name": "useTransferFlags",
              "type": "bool[]"
            },
            {
              "internalType": "address",
              "name": "target",
              "type": "address"
            },
            {
              "internalType": "bytes",
              "name": "data",
              "type": "bytes"
            },
            {
              "components": [
                {
                  "internalType": "address",
                  "name": "target",
                  "type": "address"
                },
                {
                  "internalType": "address",
                  "name": "token",
                  "type": "address"
                },
                {
                  "internalType": "int256",
                  "name": "balance",
                  "type": "int256"
                }
              ],
              "internalType": "struct IBalanceProxy.Balance[]",
              "name": "withdrawals",
              "type": "tuple[]"
            }
          ],
          "name": "proxyCallCalldataDiffs",
          "outputs": [
            {
              "internalType": "bytes",
              "name": "",
              "type": "bytes"
            }
          ],
          "stateMutability": "payable",
          "type": "function"
        },
        {
          "inputs": [
            {
              "components": [
                {
                  "internalType": "address",
                  "name": "target",
                  "type": "address"
                },
                {
                  "internalType": "address",
                  "name": "token",
                  "type": "address"
                },
                {
                  "internalType": "int256",
                  "name": "balance",
                  "type": "int256"
                }
              ],
              "internalType": "struct IBalanceProxy.Balance[]",
              "name": "diffs",
              "type": "tuple[]"
            },
            {
              "components": [
                {
                  "internalType": "address",
                  "name": "target",
                  "type": "address"
                },
                {
                  "internalType": "address",
                  "name": "token",
                  "type": "address"
                },
                {
                  "internalType": "int256",
                  "name": "balance",
                  "type": "int256"
                }
              ],
              "internalType": "struct IBalanceProxy.Balance[]",
              "name": "approvals",
              "type": "tuple[]"
            },
            {
              "internalType": "bool[]",
              "name": "useTransferFlags",
              "type": "bool[]"
            },
            {
              "internalType": "address",
              "name": "target",
              "type": "address"
            },
            {
              "internalType": "bytes",
              "name": "data",
              "type": "bytes"
            },
            {
              "components": [
                {
                  "internalType": "address",
                  "name": "target",
                  "type": "address"
                },
                {
                  "internalType": "address",
                  "name": "token",
                  "type": "address"
                },
                {
                  "internalType": "int256",
                  "name": "balance",
                  "type": "int256"
                }
              ],
              "internalType": "struct IBalanceProxy.Balance[]",
              "name": "withdrawals",
              "type": "tuple[]"
            }
          ],
          "name": "proxyCallDiffs",
          "outputs": [
            {
              "internalType": "bytes",
              "name": "",
              "type": "bytes"
            }
          ],
          "stateMutability": "payable",
          "type": "function"
        },
        {
          "inputs": [
            {
              "components": [
                {
                  "components": [
                    {
                      "internalType": "address",
                      "name": "target",
                      "type": "address"
                    },
                    {
                      "internalType": "address",
                      "name": "token",
                      "type": "address"
                    },
                    {
                      "internalType": "int256",
                      "name": "balance",
                      "type": "int256"
                    }
                  ],
                  "internalType": "struct IBalanceProxy.Balance",
                  "name": "balance",
                  "type": "tuple"
                },
                {
                  "internalType": "string",
                  "name": "symbol",
                  "type": "string"
                },
                {
                  "internalType": "uint8",
                  "name": "decimals",
                  "type": "uint8"
                }
              ],
              "internalType": "struct IBalanceProxy.BalanceMetadata[]",
              "name": "postBalances",
              "type": "tuple[]"
            },
            {
              "components": [
                {
                  "components": [
                    {
                      "internalType": "address",
                      "name": "target",
                      "type": "address"
                    },
                    {
                      "internalType": "address",
                      "name": "token",
                      "type": "address"
                    },
                    {
                      "internalType": "int256",
                      "name": "balance",
                      "type": "int256"
                    }
                  ],
                  "internalType": "struct IBalanceProxy.Balance",
                  "name": "balance",
                  "type": "tuple"
                },
                {
                  "internalType": "string",
                  "name": "symbol",
                  "type": "string"
                },
                {
                  "internalType": "uint8",
                  "name": "decimals",
                  "type": "uint8"
                }
              ],
              "internalType": "struct IBalanceProxy.BalanceMetadata[]",
              "name": "approvals",
              "type": "tuple[]"
            },
            {
              "internalType": "bool[]",
              "name": "useTransferFlags",
              "type": "bool[]"
            },
            {
              "internalType": "address",
              "name": "target",
              "type": "address"
            },
            {
              "internalType": "bytes",
              "name": "data",
              "type": "bytes"
            },
            {
              "components": [
                {
                  "components": [
                    {
                      "internalType": "address",
                      "name": "target",
                      "type": "address"
                    },
                    {
                      "internalType": "address",
                      "name": "token",
                      "type": "address"
                    },
                    {
                      "internalType": "int256",
                      "name": "balance",
                      "type": "int256"
                    }
                  ],
                  "internalType": "struct IBalanceProxy.Balance",
                  "name": "balance",
                  "type": "tuple"
                },
                {
                  "internalType": "string",
                  "name": "symbol",
                  "type": "string"
                },
                {
                  "internalType": "uint8",
                  "name": "decimals",
                  "type": "uint8"
                }
              ],
              "internalType": "struct IBalanceProxy.BalanceMetadata[]",
              "name": "withdrawals",
              "type": "tuple[]"
            }
          ],
          "name": "proxyCallMetadata",
          "outputs": [
            {
              "internalType": "bytes",
              "name": "",
              "type": "bytes"
            }
          ],
          "stateMutability": "payable",
          "type": "function"
        },
        {
          "inputs": [
            {
              "components": [
                {
                  "components": [
                    {
                      "internalType": "address",
                      "name": "target",
                      "type": "address"
                    },
                    {
                      "internalType": "address",
                      "name": "token",
                      "type": "address"
                    },
                    {
                      "internalType": "int256",
                      "name": "balance",
                      "type": "int256"
                    }
                  ],
                  "internalType": "struct IBalanceProxy.Balance",
                  "name": "balance",
                  "type": "tuple"
                },
                {
                  "internalType": "string",
                  "name": "symbol",
                  "type": "string"
                },
                {
                  "internalType": "uint8",
                  "name": "decimals",
                  "type": "uint8"
                }
              ],
              "internalType": "struct IBalanceProxy.BalanceMetadata[]",
              "name": "postBalances",
              "type": "tuple[]"
            },
            {
              "components": [
                {
                  "components": [
                    {
                      "internalType": "address",
                      "name": "target",
                      "type": "address"
                    },
                    {
                      "internalType": "address",
                      "name": "token",
                      "type": "address"
                    },
                    {
                      "internalType": "int256",
                      "name": "balance",
                      "type": "int256"
                    }
                  ],
                  "internalType": "struct IBalanceProxy.Balance",
                  "name": "balance",
                  "type": "tuple"
                },
                {
                  "internalType": "string",
                  "name": "symbol",
                  "type": "string"
                },
                {
                  "internalType": "uint8",
                  "name": "decimals",
                  "type": "uint8"
                }
              ],
              "internalType": "struct IBalanceProxy.BalanceMetadata[]",
              "name": "approvals",
              "type": "tuple[]"
            },
            {
              "internalType": "bool[]",
              "name": "useTransferFlags",
              "type": "bool[]"
            },
            {
              "internalType": "address",
              "name": "target",
              "type": "address"
            },
            {
              "internalType": "bytes",
              "name": "data",
              "type": "bytes"
            },
            {
              "components": [
                {
                  "components": [
                    {
                      "internalType": "address",
                      "name": "target",
                      "type": "address"
                    },
                    {
                      "internalType": "address",
                      "name": "token",
                      "type": "address"
                    },
                    {
                      "internalType": "int256",
                      "name": "balance",
                      "type": "int256"
                    }
                  ],
                  "internalType": "struct IBalanceProxy.Balance",
                  "name": "balance",
                  "type": "tuple"
                },
                {
                  "internalType": "string",
                  "name": "symbol",
                  "type": "string"
                },
                {
                  "internalType": "uint8",
                  "name": "decimals",
                  "type": "uint8"
                }
              ],
              "internalType": "struct IBalanceProxy.BalanceMetadata[]",
              "name": "withdrawals",
              "type": "tuple[]"
            }
          ],
          "name": "proxyCallMetadataCalldata",
          "outputs": [
            {
              "internalType": "bytes",
              "name": "",
              "type": "bytes"
            }
          ],
          "stateMutability": "payable",
          "type": "function"
        },
        {
          "inputs": [
            {
              "components": [
                {
                  "components": [
                    {
                      "internalType": "address",
                      "name": "target",
                      "type": "address"
                    },
                    {
                      "internalType": "address",
                      "name": "token",
                      "type": "address"
                    },
                    {
                      "internalType": "int256",
                      "name": "balance",
                      "type": "int256"
                    }
                  ],
                  "internalType": "struct IBalanceProxy.Balance",
                  "name": "balance",
                  "type": "tuple"
                },
                {
                  "internalType": "string",
                  "name": "symbol",
                  "type": "string"
                },
                {
                  "internalType": "uint8",
                  "name": "decimals",
                  "type": "uint8"
                }
              ],
              "internalType": "struct IBalanceProxy.BalanceMetadata[]",
              "name": "diffs",
              "type": "tuple[]"
            },
            {
              "components": [
                {
                  "components": [
                    {
                      "internalType": "address",
                      "name": "target",
                      "type": "address"
                    },
                    {
                      "internalType": "address",
                      "name": "token",
                      "type": "address"
                    },
                    {
                      "internalType": "int256",
                      "name": "balance",
                      "type": "int256"
                    }
                  ],
                  "internalType": "struct IBalanceProxy.Balance",
                  "name": "balance",
                  "type": "tuple"
                },
                {
                  "internalType": "string",
                  "name": "symbol",
                  "type": "string"
                },
                {
                  "internalType": "uint8",
                  "name": "decimals",
                  "type": "uint8"
                }
              ],
              "internalType": "struct IBalanceProxy.BalanceMetadata[]",
              "name": "approvals",
              "type": "tuple[]"
            },
            {
              "internalType": "bool[]",
              "name": "useTransferFlags",
              "type": "bool[]"
            },
            {
              "internalType": "address",
              "name": "target",
              "type": "address"
            },
            {
              "internalType": "bytes",
              "name": "data",
              "type": "bytes"
            },
            {
              "components": [
                {
                  "components": [
                    {
                      "internalType": "address",
                      "name": "target",
                      "type": "address"
                    },
                    {
                      "internalType": "address",
                      "name": "token",
                      "type": "address"
                    },
                    {
                      "internalType": "int256",
                      "name": "balance",
                      "type": "int256"
                    }
                  ],
                  "internalType": "struct IBalanceProxy.Balance",
                  "name": "balance",
                  "type": "tuple"
                },
                {
                  "internalType": "string",
                  "name": "symbol",
                  "type": "string"
                },
                {
                  "internalType": "uint8",
                  "name": "decimals",
                  "type": "uint8"
                }
              ],
              "internalType": "struct IBalanceProxy.BalanceMetadata[]",
              "name": "withdrawals",
              "type": "tuple[]"
            }
          ],
          "name": "proxyCallMetadataCalldataDiffs",
          "outputs": [
            {
              "internalType": "bytes",
              "name": "",
              "type": "bytes"
            }
          ],
          "stateMutability": "payable",
          "type": "function"
        },
        {
          "inputs": [
            {
              "components": [
                {
                  "components": [
                    {
                      "internalType": "address",
                      "name": "target",
                      "type": "address"
                    },
                    {
                      "internalType": "address",
                      "name": "token",
                      "type": "address"
                    },
                    {
                      "internalType": "int256",
                      "name": "balance",
                      "type": "int256"
                    }
                  ],
                  "internalType": "struct IBalanceProxy.Balance",
                  "name": "balance",
                  "type": "tuple"
                },
                {
                  "internalType": "string",
                  "name": "symbol",
                  "type": "string"
                },
                {
                  "internalType": "uint8",
                  "name": "decimals",
                  "type": "uint8"
                }
              ],
              "internalType": "struct IBalanceProxy.BalanceMetadata[]",
              "name": "diffs",
              "type": "tuple[]"
            },
            {
              "components": [
                {
                  "components": [
                    {
                      "internalType": "address",
                      "name": "target",
                      "type": "address"
                    },
                    {
                      "internalType": "address",
                      "name": "token",
                      "type": "address"
                    },
                    {
                      "internalType": "int256",
                      "name": "balance",
                      "type": "int256"
                    }
                  ],
                  "internalType": "struct IBalanceProxy.Balance",
                  "name": "balance",
                  "type": "tuple"
                },
                {
                  "internalType": "string",
                  "name": "symbol",
                  "type": "string"
                },
                {
                  "internalType": "uint8",
                  "name": "decimals",
                  "type": "uint8"
                }
              ],
              "internalType": "struct IBalanceProxy.BalanceMetadata[]",
              "name": "approvals",
              "type": "tuple[]"
            },
            {
              "internalType": "bool[]",
              "name": "useTransferFlags",
              "type": "bool[]"
            },
            {
              "internalType": "address",
              "name": "target",
              "type": "address"
            },
            {
              "internalType": "bytes",
              "name": "data",
              "type": "bytes"
            },
            {
              "components": [
                {
                  "components": [
                    {
                      "internalType": "address",
                      "name": "target",
                      "type": "address"
                    },
                    {
                      "internalType": "address",
                      "name": "token",
                      "type": "address"
                    },
                    {
                      "internalType": "int256",
                      "name": "balance",
                      "type": "int256"
                    }
                  ],
                  "internalType": "struct IBalanceProxy.Balance",
                  "name": "balance",
                  "type": "tuple"
                },
                {
                  "internalType": "string",
                  "name": "symbol",
                  "type": "string"
                },
                {
                  "internalType": "uint8",
                  "name": "decimals",
                  "type": "uint8"
                }
              ],
              "internalType": "struct IBalanceProxy.BalanceMetadata[]",
              "name": "withdrawals",
              "type": "tuple[]"
            }
          ],
          "name": "proxyCallMetadataDiffs",
          "outputs": [
            {
              "internalType": "bytes",
              "name": "",
              "type": "bytes"
            }
          ],
          "stateMutability": "payable",
          "type": "function"
        },
        {
          "stateMutability": "payable",
          "type": "receive"
        }
      ],
      "devdoc": {
        "details": "This contract is used to proxy calls to a target contract with specified balances and approvals",
        "errors": {
          "CallFailed(address,bytes,bytes)": [
            {
              "params": {
                "data": "Data passed to the target contract",
                "returnData": "Return data from the target contract",
                "target": "Target address"
              }
            }
          ],
          "DangerousTokenCall(address,bytes4)": [
            {
              "params": {
                "selector": "Function selector being called",
                "target": "Target address"
              }
            }
          ],
          "InsufficientBalance(address,address,int256,uint256)": [
            {
              "params": {
                "balance": "Balance",
                "target": "Target address",
                "token": "Token address"
              }
            }
          ],
          "InvalidMetadata(address,string,uint8,string,uint8)": [
            {
              "params": {
                "actualDecimals": "Actual decimals of the token",
                "actualSymbol": "Actual symbol of the token",
                "expectedDecimals": "Expected decimals of the token",
                "expectedSymbol": "Expected symbol of the token",
                "token": "Token address"
              }
            }
          ],
          "InvalidTransferFlagsLength(uint256,uint256)": [
            {
              "params": {
                "approvalsLength": "Length of approvals array",
                "flagsLength": "Length of useTransferFlags array"
              }
            }
          ],
          "MaliciousApproveTarget(address,address)": [
            {
              "params": {
                "target": "Malicious target address",
                "token": "Token address"
              }
            }
          ],
          "UnexpectedBalanceDiff(address,address,int256,int256)": [
            {
              "params": {
                "actual": "Actual diff",
                "expected": "Expected diff",
                "target": "Target address",
                "token": "Token address"
              }
            }
          ]
        },
        "kind": "dev",
        "methods": {
          "proxyCall((address,address,int256)[],(address,address,int256)[],bool[],address,bytes,(address,address,int256)[])": {
            "params": {
              "approvals": "Approvals to make before the call",
              "data": "Data to pass to the target contract",
              "postBalances": "Balances to check after the call",
              "target": "Target contract to call",
              "useTransferFlags": "Flags to determine whether to transfer or approve for each approval",
              "withdrawals": "Withdrawals to make after the call"
            },
            "returns": {
              "_0": "Result of the call"
            }
          },
          "proxyCallCalldata((address,address,int256)[],(address,address,int256)[],bool[],address,bytes,(address,address,int256)[])": {
            "params": {
              "approvals": "Approvals to make before the call",
              "data": "Data to pass to the target contract",
              "postBalances": "Balances to check after the call",
              "target": "Target contract to call",
              "useTransferFlags": "Flags to determine whether to transfer or approve for each approval",
              "withdrawals": "Withdrawals to make after the call"
            },
            "returns": {
              "_0": "result Result of the call"
            }
          },
          "proxyCallCalldataDiffs((address,address,int256)[],(address,address,int256)[],bool[],address,bytes,(address,address,int256)[])": {
            "params": {
              "approvals": "Approvals to make before the call",
              "data": "Data to pass to the target contract",
              "diffs": "Balances to check after the call",
              "target": "Target contract to call",
              "useTransferFlags": "Flags to determine whether to transfer or approve for each approval",
              "withdrawals": "Withdrawals to make after the call"
            },
            "returns": {
              "_0": "result Result of the call"
            }
          },
          "proxyCallDiffs((address,address,int256)[],(address,address,int256)[],bool[],address,bytes,(address,address,int256)[])": {
            "params": {
              "approvals": "Approvals to make before the call",
              "data": "Data to pass to the target contract",
              "diffs": "Balances to check after the call",
              "target": "Target contract to call",
              "useTransferFlags": "Flags to determine whether to transfer or approve for each approval",
              "withdrawals": "Withdrawals to make after the call"
            },
            "returns": {
              "_0": "Result of the call"
            }
          },
          "proxyCallMetadata(((address,address,int256),string,uint8)[],((address,address,int256),string,uint8)[],bool[],address,bytes,((address,address,int256),string,uint8)[])": {
            "params": {
              "approvals": "Approvals to make before the call",
              "data": "Data to pass to the target contract",
              "postBalances": "Balances to check after the call",
              "target": "Target contract to call",
              "useTransferFlags": "Flags to determine whether to transfer or approve for each approval",
              "withdrawals": "Withdrawals to make after the call"
            },
            "returns": {
              "_0": "Result of the call"
            }
          },
          "proxyCallMetadataCalldata(((address,address,int256),string,uint8)[],((address,address,int256),string,uint8)[],bool[],address,bytes,((address,address,int256),string,uint8)[])": {
            "params": {
              "approvals": "Approvals to make before the call",
              "data": "Data to pass to the target contract",
              "postBalances": "Balances to check after the call",
              "target": "Target contract to call",
              "useTransferFlags": "Flags to determine whether to transfer or approve for each approval",
              "withdrawals": "Withdrawals to make after the call"
            },
            "returns": {
              "_0": "result Result of the call"
            }
          },
          "proxyCallMetadataCalldataDiffs(((address,address,int256),string,uint8)[],((address,address,int256),string,uint8)[],bool[],address,bytes,((address,address,int256),string,uint8)[])": {
            "params": {
              "approvals": "Approvals to make before the call",
              "data": "Data to pass to the target contract",
              "diffs": "Balances to check after the call",
              "target": "Target contract to call",
              "withdrawals": "Withdrawals to make after the call"
            },
            "returns": {
              "_0": "result Result of the call"
            }
          },
          "proxyCallMetadataDiffs(((address,address,int256),string,uint8)[],((address,address,int256),string,uint8)[],bool[],address,bytes,((address,address,int256),string,uint8)[])": {
            "params": {
              "approvals": "Approvals to make before the call",
              "data": "Data to pass to the target contract",
              "diffs": "Balances to check after the call",
              "target": "Target contract to call",
              "useTransferFlags": "Flags to determine whether to transfer or approve for each approval",
              "withdrawals": "Withdrawals to make after the call"
            },
            "returns": {
              "_0": "Result of the call"
            }
          }
        },
        "title": "BalanceProxy",
        "version": 1
      },
      "evm": {
        "bytecode": {
          "linkReferences": {},
          "object": "608080604052346015576120e3908161001b8239f35b600080fdfe6080604052600436101561001b575b361561001957600080fd5b005b60003560e01c80630955b47214610aec5780634cbcaad514610a015780635636b2831461088757806356fecb92146106c5578063617ac6db146105da5780638af12e87146103df578063ec6c86061461019b5763fbab98fa0361000e576100813661104c565b9093919294855183519081810361018457505061009e8585611c0d565b60005b83518110156100d557806100cf6100ba600193876113e0565b51876100c6848c6113e0565b51151591611c38565b016100a1565b5091509260008082516020840134875af1926100ef611305565b931561016357505060005b835181101561011f5780610119610113600193876113e0565b51611d90565b016100fa565b509060005b8251811015610149578061014361013d600193866113e0565b51611fcc565b01610124565b6040516020808252819061015f90820185610d48565b0390f35b61018084604051938493630881f24f60e31b85526004850161144d565b0390fd5b632aa9338d60e21b60005260045260245260446000fd5b6101a436610c5a565b9487819a9899939a979297959495036103c6576101c28a8686611475565b6000988b6101cf8a61139a565b9a5b8b8b80831061038f575050505060005b81811061035057505050505060008060405189858237808a8101838152039034855af19661020d611305565b97156103325750505060005b8181106103035750505060005b818110610243576040516020808252819061015f90820187610d48565b61028961027861025f602061025985878b6112b0565b016113cc565b61027261026d85878b6112b0565b6113cc565b90611b87565b61028283866113e0565b51906113f4565b8060ff1d604061029a84868a6112b0565b01358060ff1d809101189080830118106102b75750600101610226565b85935060406102e8836102d3602061025961018097898b6112b0565b956102e261026d83838b6112b0565b976112b0565b0135604051948594637ec440e760e11b865260048601611423565b8061031961031460019385876112b0565b611596565b61032c6103278285876112b0565b6119b4565b01610219565b8761018091604051948594630881f24f60e31b865260048601611356565b8061036161031460019385896112b0565b61038961036f8285896112b0565b8861038361037e85898b6112e8565b6112f8565b916117cd565b016101e1565b826103b78561027261026d84866103b16020610259846103bd9b60019f6112b0565b946112b0565b926113e0565b52018c906101d1565b8890632aa9338d60e21b60005260045260245260446000fd5b6103e8366111f5565b90939483518651908181036101845750506104038584611c0d565b60009080516104118161139a565b925b81811061059a575060005b885181101561045d578061043d6104376001938c6113e0565b51611e3e565b61045761044a828c6113e0565b5151886100c6848c6113e0565b0161041e565b5084908760008082516020840134875af192610477611305565b931561016357505060005b85518110156104b5578061049b610437600193896113e0565b6104af6104a882896113e0565b5151611d90565b01610482565b508360005b8281106104d7576040516020808252819061015f90820187610d48565b61051c6105126001600160a01b0360206104f1858a6113e0565b51510151166001600160a01b03610508858a6113e0565b5151511690611b87565b61028283856113e0565b604061052883886113e0565b51510151811261053b57506001016104ba565b85919061018090604061057d6001600160a01b03602061055b87896113e0565b5151015116946001600160a01b0361057382896113e0565b51515116966113e0565b51510151604051637ec440e760e11b815294859460048601611423565b6001906105c96001600160a01b0360206105b484886113e0565b5151015116838060a01b0361050884886113e0565b6105d382876113e0565b5201610413565b6105e3366111f5565b909391929485518351908181036101845750506106008585611c0d565b60005b835181101561063c578061061c610437600193876113e0565b61063661062982876113e0565b5151876100c6848c6113e0565b01610603565b5091509260008082516020840134875af192610656611305565b931561016357505060005b835181101561068d578061067a610437600193876113e0565b6106876104a882876113e0565b01610661565b509060005b825181101561014957806106ab610437600193866113e0565b6106bf6106b882866113e0565b5151611fcc565b01610692565b6106ce3661104c565b90939483518651908181036101845750506106e98584611c0d565b60009080516106f78161139a565b925b818110610848575060005b885181101561072f578061072961071d6001938c6113e0565b51886100c6848c6113e0565b01610704565b5084908760008082516020840134875af192610749611305565b931561016357505060005b8551811015610773578061076d610113600193896113e0565b01610754565b508360005b828110610795576040516020808252819061015f90820187610d48565b6107ce6105126001600160a01b0360206107af858a6113e0565b510151166001600160a01b036107c5858a6113e0565b51511690611b87565b60406107da83886113e0565b51015181126107ec5750600101610778565b85919061018090604061082c6001600160a01b03602061080c87896113e0565b51015116946001600160a01b0361082382896113e0565b515116966113e0565b510151604051637ec440e760e11b815294859460048601611423565b6001906108766001600160a01b03602061086284886113e0565b51015116838060a01b036107c584886113e0565b61088082876113e0565b52016106f9565b61089036610d9d565b9487819a9899939a979297959495036103c6576108ae8a8686611475565b6000988b6108bb8a61139a565b9a5b8b8b8083106109d0575050505060005b8181106109b957505050505060008060405189858237808a8101838152039034855af1966108f9611305565b97156103325750505060005b8181106109a25750505060005b81811061092f576040516020808252819061015f90820187610d48565b610953610278610945602061025985878b61138a565b61027261026d85878b61138a565b604061096083858961138a565b013581126109715750600101610912565b85935060406102e88361098d602061025961018097898b61138a565b9561099c61026d83838b61138a565b9761138a565b806109b3610327600193858761138a565b01610905565b806109ca61036f600193858961138a565b016108cd565b826103b78561027261026d84866109f26020610259846109f89b60019f61138a565b9461138a565b52018c906108bd565b610a0a36610d9d565b959199989792949096808203610ad457610a258b8787611475565b60005b818110610abd57505050505060008060405189858237808a8101838152039034855af196610a54611305565b97156103325750505060005b818110610aa65750505060005b818110610a8a576040516020808252819061015f90820187610d48565b80610aa0610a9b600193858761138a565b611a76565b01610a6d565b80610ab7610327600193858761138a565b01610a60565b80610ace61036f600193858961138a565b01610a28565b90632aa9338d60e21b60005260045260245260446000fd5b610af536610c5a565b959199989792949096808203610ad457610b108b8787611475565b60005b818110610bbf57505050505060008060405189858237808a8101838152039034855af196610b3f611305565b97156103325750505060005b818110610b9a5750505060005b818110610b75576040516020808252819061015f90820187610d48565b80610b8661031460019385876112b0565b610b94610a9b8285876112b0565b01610b58565b80610bab61031460019385876112b0565b610bb96103278285876112b0565b01610b4b565b80610bd061031460019385896112b0565b610bde61036f8285896112b0565b01610b13565b9181601f84011215610c14578235916001600160401b038311610c14576020808501948460051b010111610c1457565b600080fd5b35906001600160a01b0382168203610c1457565b9181601f84011215610c14578235916001600160401b038311610c145760208381860195010111610c1457565b9060c0600319830112610c14576004356001600160401b038111610c145782610c8591600401610be4565b929092916024356001600160401b038111610c145782610ca791600401610be4565b929092916044356001600160401b038111610c145782610cc991600401610be4565b909290916064356001600160a01b0381168103610c1457916084356001600160401b038111610c145781610cff91600401610c2d565b9290929160a435906001600160401b038211610c1457610d2191600401610be4565b9091565b60005b838110610d385750506000910152565b8181015183820152602001610d28565b90602091610d6181518092818552858086019101610d25565b601f01601f1916010190565b9181601f84011215610c14578235916001600160401b038311610c145760208085019460608502010111610c1457565b9060c0600319830112610c14576004356001600160401b038111610c145782610dc891600401610d6d565b929092916024356001600160401b038111610c145782610dea91600401610d6d565b929092916044356001600160401b038111610c145782610e0c91600401610be4565b909290916064356001600160a01b0381168103610c1457916084356001600160401b038111610c145781610e4291600401610c2d565b9290929160a435906001600160401b038211610c1457610d2191600401610d6d565b606081019081106001600160401b03821117610e7f57604052565b634e487b7160e01b600052604160045260246000fd5b90601f801991011681019081106001600160401b03821117610e7f57604052565b6001600160401b038111610e7f5760051b60200190565b9190826060910312610c1457604051610ee581610e64565b6040808294610ef381610c19565b8452610f0160208201610c19565b60208501520135910152565b81601f82011215610c14578035610f2381610eb6565b92610f316040519485610e95565b81845260206060818601930284010192818411610c1457602001915b838310610f5b575050505090565b6020606091610f6a8486610ecd565b815201920191610f4d565b9080601f83011215610c1457813590610f8d82610eb6565b92610f9b6040519485610e95565b82845260208085019360051b820101918211610c1457602001915b818310610fc35750505090565b82358015158103610c1457815260209283019201610fb6565b6001600160401b038111610e7f57601f01601f191660200190565b92919261100382610fdc565b916110116040519384610e95565b829481845281830111610c14578281602093846000960137010152565b9080601f83011215610c145781602061104993359101610ff7565b90565b9060c0600319830112610c14576004356001600160401b038111610c14578261107791600401610f0d565b916024356001600160401b038111610c14578161109691600401610f0d565b916044356001600160401b038111610c1457826110b591600401610f75565b916064356001600160a01b0381168103610c1457916084356001600160401b038111610c1457826110e89160040161102e565b9160a435906001600160401b038211610c145761104991600401610f0d565b9080601f83011215610c145781359161111f83610eb6565b9261112d6040519485610e95565b80845260208085019160051b83010191838311610c145760208101915b83831061115957505050505090565b82356001600160401b038111610c145782019060a0828703601f190112610c14576040519161118783610e64565b6111948760208301610ecd565b835260808101356001600160401b038111610c14576020908201019087601f83011215610c14576111cd8883602060a095359101610ff7565b602085015201359060ff82168203610c1457826020939260408594015281520192019161114a565b9060c0600319830112610c14576004356001600160401b038111610c14578261122091600401611107565b916024356001600160401b038111610c14578161123f91600401611107565b916044356001600160401b038111610c14578261125e91600401610f75565b916064356001600160a01b0381168103610c1457916084356001600160401b038111610c1457826112919160040161102e565b9160a435906001600160401b038211610c145761104991600401611107565b91908110156112d25760051b81013590609e1981360301821215610c14570190565b634e487b7160e01b600052603260045260246000fd5b91908110156112d25760051b0190565b358015158103610c145790565b3d15611330573d9061131682610fdc565b916113246040519384610e95565b82523d6000602084013e565b606090565b908060209392818452848401376000828201840152601f01601f1916010190565b9291611049949261137c9260018060a01b03168552606060208601526060850191611335565b916040818403910152610d48565b91908110156112d2576060020190565b906113a482610eb6565b6113b16040519182610e95565b82815280926113c2601f1991610eb6565b0190602036910137565b356001600160a01b0381168103610c145790565b80518210156112d25760209160051b010190565b8181039291600013801582851316918412161761140d57565b634e487b7160e01b600052601160045260246000fd5b6001600160a01b039182168152911660208201526040810191909152606081019190915260800190565b6001600160a01b03909116815260606020820181905261104993919261137c91840190610d48565b916004116114ba57356001600160e01b031916906323b872dd60e01b821461149b575050565b632ad238e560e01b60005260018060a01b031660045260245260446000fd5b5050565b602081830312610c14578051906001600160401b038211610c14570181601f82011215610c145780516114f081610fdc565b926114fe6040519485610e95565b81845260208284010111610c14576110499160208085019101610d25565b90816020910312610c14575160ff81168103610c145790565b60405190611544604083610e95565b600382526208aa8960eb1b6020830152565b903590601e1981360301821215610c1457018035906001600160401b038211610c1457602001918136038313610c1457565b3560ff81168103610c145790565b60208101906001600160a01b036115ac836113cc565b166116de576115b9611535565b906012915b60405160208101906115ec60208285516115db8187858a01610d25565b81010301601f198101835282610e95565b5190209360608301946115ff8685611556565b611627602060405183819483830196873781016000838201520301601f198101835282610e95565b519020148015906116c3575b61163e575050505050565b60809550916116b89160ff6116a061166c61166361165c84986113cc565b9986611556565b9a909501611588565b604051635591851960e01b81526001600160a01b0390991660048a015260a060248a0152979889989460a48a019190611335565b92166044870152858203600319016064870152610d48565b911660848301520390fd5b5060ff6116d260808501611588565b1660ff85161415611633565b600460006001600160a01b036116f3856113cc565b16604051928380926395d89b4160e01b82525afa90811561178657600091611792575b5090600460206001600160a01b0361172d866113cc565b166040519283809263313ce56760e01b82525afa90811561178657600091611757575b50916115be565b611779915060203d60201161177f575b6117718183610e95565b81019061151c565b38611750565b503d611767565b6040513d6000823e3d90fd5b6117af91503d806000833e6117a78183610e95565b8101906114be565b38611716565b90816020910312610c1457518015158103610c145790565b9060208201906001600160a01b036117e4836113cc565b16156119ae576117f3836113cc565b6001600160a01b03918216911603611977576001600160a01b03611816826113cc565b604080516323b872dd60e01b81523360048201523060248201529085013560ff81901d90810118604482018190529592909160209183916064918391600091165af180156117865761195a575b5015611903576118c792602092909161188f906001600160a01b0390611888906113cc565b16916113cc565b60405163a9059cbb60e01b81526001600160a01b03909116600482015260248101929092529092839190829060009082906044820190565b03925af18015611786576118d85750565b6118f99060203d6020116118fc575b6118f18183610e95565b8101906117b5565b50565b503d6118e7565b6118c7926020929091611922906001600160a01b0390611888906113cc565b60405163095ea7b360e01b81526001600160a01b03909116600482015260248101929092529092839190829060009082906044820190565b6119729060203d6020116118fc576118f18183610e95565b611863565b611983611989916113cc565b916113cc565b635876e71160e01b60009081526001600160a01b039283166004529116602452604490fd5b50505050565b602081016001600160a01b036119c9826113cc565b16611a16575060009081908190819060406001600160a01b036119eb836113cc565b16910135908160ff1d809201918392818114611a0c575b1891f11561178657565b6108fc9350611a02565b6020906000906001600160a01b0390611a2e906113cc565b166040611a3a856113cc565b60405163a9059cbb60e01b81526001600160a01b03909116600482015294013560ff81901d9081011860248501528391829081604481016118c7565b60208101906001600160a01b03611a8c836113cc565b60009116611aea5750611a9e816113cc565b315b6040820135928360ff1d808501188210611aba5750505050565b90611ad0611aca610180936113cc565b936113cc565b9360405194859463d87031f960e01b865260048601611423565b6001600160a01b03611afb846113cc565b166020611b07846113cc565b6040516370a0823160e01b81526001600160a01b03909116600482015291829060249082905afa918215611b7b578092611b43575b5050611aa0565b9091506020823d602011611b73575b81611b5f60209383610e95565b81010312611b705750513880611b3c565b80fd5b3d9150611b52565b604051903d90823e3d90fd5b6000906001600160a01b031680611b9e5750503190565b6040516370a0823160e01b81526001600160a01b039093166004840152909190602090829060249082905afa918215611b7b578092611bdc57505090565b9091506020823d602011611c05575b81611bf860209383610e95565b81010312611b7057505190565b3d9150611beb565b9060048151106114ba57602001516001600160e01b031916906323b872dd60e01b821461149b575050565b602081018051909392906001600160a01b03168015611d895782516001600160a01b0390811692168203611d7257505082516040828101805191516323b872dd60e01b815233600482015230602482015260ff83901d92830190921860448301529490939291602090859060649082906000906001600160a01b03165af192831561178657602094600094611d57575b508314611d1357519051935160405163a9059cbb60e01b81526001600160a01b03958616600482015260ff82901d9182019091186024820152938492911690829081604481016118c7565b519051935160405163095ea7b360e01b81526001600160a01b03958616600482015260ff82901d9182019091186024820152938492911690829081604481016118c7565b611d6d90863d88116118fc576118f18183610e95565b611cc8565b635876e71160e01b60005260045260245260446000fd5b5050505050565b60208101516001600160a01b031680611dd55750600080808093604060018060a01b03825116910151908160ff1d809201918392818114611a0c571891f11561178657565b8151604092830151925163a9059cbb60e01b81526001600160a01b03909116600482015260ff83901d9283019092186024830152602090829081600081604481016118c7565b602081519101519060208110611e2f575090565b6000199060200360031b1b1690565b8051602001516001600160a01b031680611f2c5750611e5b611535565b60125b611e80604051611e7b60208286516115db81848401858b01610d25565b611e1b565b916020840192611ea78451611e7b6020604051836115db8295518092858086019101610d25565b14801590611f18575b611eba5750505050565b6116b860ff9182604060018060a01b036020895101511696519701511690611f01604051978897635591851960e01b8952600489015260a0602489015260a4880190610d48565b916044870152600319868303016064870152610d48565b5060ff60408501511660ff83161415611eb0565b6000600491604051928380926395d89b4160e01b82525afa90811561178657600091611fb1575b50815160209081015160405163313ce56760e01b81529190829060049082906001600160a01b03165afa90811561178657600091611f92575b50611e5e565b611fab915060203d60201161177f576117718183610e95565b38611f8c565b611fc691503d806000833e6117a78183610e95565b38611f53565b6020810180519091906000906001600160a01b03168061203d57505080516001600160a01b0316315b6040820151928360ff1d80850118821061200f5750505050565b51915160405163d87031f960e01b815293849361018093926001600160a01b03908116911660048601611423565b602060018060a01b038451166024604051809481936370a0823160e01b835260048301525afa918215611b7b578092612078575b5050611ff5565b9091506020823d6020116120a5575b8161209460209383610e95565b81010312611b705750513880612071565b3d915061208756fea2646970667358221220fd2dd0894d93dcb4605f92385692be4e8bf46c5d79a9c6af4dbcd3161d601e9464736f6c634300081b0033",
          "opcodes": "PUSH1 0x80 DUP1 PUSH1 0x40 MSTORE CALLVALUE PUSH1 0x15 JUMPI PUSH2 0x20E3 SWAP1 DUP2 PUSH2 0x1B DUP3 CODECOPY RETURN JUMPDEST PUSH1 0x0 DUP1 REVERT INVALID PUSH1 0x80 PUSH1 0x40 MSTORE PUSH1 0x4 CALLDATASIZE LT ISZERO PUSH2 0x1B JUMPI JUMPDEST CALLDATASIZE ISZERO PUSH2 0x19 JUMPI PUSH1 0x0 DUP1 REVERT JUMPDEST STOP JUMPDEST PUSH1 0x0 CALLDATALOAD PUSH1 0xE0 SHR DUP1 PUSH4 0x955B472 EQ PUSH2 0xAEC JUMPI DUP1 PUSH4 0x4CBCAAD5 EQ PUSH2 0xA01 JUMPI DUP1 PUSH4 0x5636B283 EQ PUSH2 0x887 JUMPI DUP1 PUSH4 0x56FECB92 EQ PUSH2 0x6C5 JUMPI DUP1 PUSH4 0x617AC6DB EQ PUSH2 0x5DA JUMPI DUP1 PUSH4 0x8AF12E87 EQ PUSH2 0x3DF JUMPI DUP1 PUSH4 0xEC6C8606 EQ PUSH2 0x19B JUMPI PUSH4 0xFBAB98FA SUB PUSH2 0xE JUMPI PUSH2 0x81 CALLDATASIZE PUSH2 0x104C JUMP JUMPDEST SWAP1 SWAP4 SWAP2 SWAP3 SWAP5 DUP6 MLOAD DUP4 MLOAD SWAP1 DUP2 DUP2 SUB PUSH2 0x184 JUMPI POP POP PUSH2 0x9E DUP6 DUP6 PUSH2 0x1C0D JUMP JUMPDEST PUSH1 0x0 JUMPDEST DUP4 MLOAD DUP2 LT ISZERO PUSH2 0xD5 JUMPI DUP1 PUSH2 0xCF PUSH2 0xBA PUSH1 0x1 SWAP4 DUP8 PUSH2 0x13E0 JUMP JUMPDEST MLOAD DUP8 PUSH2 0xC6 DUP5 DUP13 PUSH2 0x13E0 JUMP JUMPDEST MLOAD ISZERO ISZERO SWAP2 PUSH2 0x1C38 JUMP JUMPDEST ADD PUSH2 0xA1 JUMP JUMPDEST POP SWAP2 POP SWAP3 PUSH1 0x0 DUP1 DUP3 MLOAD PUSH1 0x20 DUP5 ADD CALLVALUE DUP8 GAS CALL SWAP3 PUSH2 0xEF PUSH2 0x1305 JUMP JUMPDEST SWAP4 ISZERO PUSH2 0x163 JUMPI POP POP PUSH1 0x0 JUMPDEST DUP4 MLOAD DUP2 LT ISZERO PUSH2 0x11F JUMPI DUP1 PUSH2 0x119 PUSH2 0x113 PUSH1 0x1 SWAP4 DUP8 PUSH2 0x13E0 JUMP JUMPDEST MLOAD PUSH2 0x1D90 JUMP JUMPDEST ADD PUSH2 0xFA JUMP JUMPDEST POP SWAP1 PUSH1 0x0 JUMPDEST DUP3 MLOAD DUP2 LT ISZERO PUSH2 0x149 JUMPI DUP1 PUSH2 0x143 PUSH2 0x13D PUSH1 0x1 SWAP4 DUP7 PUSH2 0x13E0 JUMP JUMPDEST MLOAD PUSH2 0x1FCC JUMP JUMPDEST ADD PUSH2 0x124 JUMP JUMPDEST PUSH1 0x40 MLOAD PUSH1 0x20 DUP1 DUP3 MSTORE DUP2 SWAP1 PUSH2 0x15F SWAP1 DUP3 ADD DUP6 PUSH2 0xD48 JUMP JUMPDEST SUB SWAP1 RETURN JUMPDEST PUSH2 0x180 DUP5 PUSH1 0x40 MLOAD SWAP4 DUP5 SWAP4 PUSH4 0x881F24F PUSH1 0xE3 SHL DUP6 MSTORE PUSH1 0x4 DUP6 ADD PUSH2 0x144D JUMP JUMPDEST SUB SWAP1 REVERT JUMPDEST PUSH4 0x2AA9338D PUSH1 0xE2 SHL PUSH1 0x0 MSTORE PUSH1 0x4 MSTORE PUSH1 0x24 MSTORE PUSH1 0x44 PUSH1 0x0 REVERT JUMPDEST PUSH2 0x1A4 CALLDATASIZE PUSH2 0xC5A JUMP JUMPDEST SWAP5 DUP8 DUP2 SWAP11 SWAP9 SWAP10 SWAP4 SWAP11 SWAP8 SWAP3 SWAP8 SWAP6 SWAP5 SWAP6 SUB PUSH2 0x3C6 JUMPI PUSH2 0x1C2 DUP11 DUP7 DUP7 PUSH2 0x1475 JUMP JUMPDEST PUSH1 0x0 SWAP9 DUP12 PUSH2 0x1CF DUP11 PUSH2 0x139A JUMP JUMPDEST SWAP11 JUMPDEST DUP12 DUP12 DUP1 DUP4 LT PUSH2 0x38F JUMPI POP POP POP POP PUSH1 0x0 JUMPDEST DUP2 DUP2 LT PUSH2 0x350 JUMPI POP POP POP POP POP PUSH1 0x0 DUP1 PUSH1 0x40 MLOAD DUP10 DUP6 DUP3 CALLDATACOPY DUP1 DUP11 DUP2 ADD DUP4 DUP2 MSTORE SUB SWAP1 CALLVALUE DUP6 GAS CALL SWAP7 PUSH2 0x20D PUSH2 0x1305 JUMP JUMPDEST SWAP8 ISZERO PUSH2 0x332 JUMPI POP POP POP PUSH1 0x0 JUMPDEST DUP2 DUP2 LT PUSH2 0x303 JUMPI POP POP POP PUSH1 0x0 JUMPDEST DUP2 DUP2 LT PUSH2 0x243 JUMPI PUSH1 0x40 MLOAD PUSH1 0x20 DUP1 DUP3 MSTORE DUP2 SWAP1 PUSH2 0x15F SWAP1 DUP3 ADD DUP8 PUSH2 0xD48 JUMP JUMPDEST PUSH2 0x289 PUSH2 0x278 PUSH2 0x25F PUSH1 0x20 PUSH2 0x259 DUP6 DUP8 DUP12 PUSH2 0x12B0 JUMP JUMPDEST ADD PUSH2 0x13CC JUMP JUMPDEST PUSH2 0x272 PUSH2 0x26D DUP6 DUP8 DUP12 PUSH2 0x12B0 JUMP JUMPDEST PUSH2 0x13CC JUMP JUMPDEST SWAP1 PUSH2 0x1B87 JUMP JUMPDEST PUSH2 0x282 DUP4 DUP7 PUSH2 0x13E0 JUMP JUMPDEST MLOAD SWAP1 PUSH2 0x13F4 JUMP JUMPDEST DUP1 PUSH1 0xFF SAR PUSH1 0x40 PUSH2 0x29A DUP5 DUP7 DUP11 PUSH2 0x12B0 JUMP JUMPDEST ADD CALLDATALOAD DUP1 PUSH1 0xFF SAR DUP1 SWAP2 ADD XOR SWAP1 DUP1 DUP4 ADD XOR LT PUSH2 0x2B7 JUMPI POP PUSH1 0x1 ADD PUSH2 0x226 JUMP JUMPDEST DUP6 SWAP4 POP PUSH1 0x40 PUSH2 0x2E8 DUP4 PUSH2 0x2D3 PUSH1 0x20 PUSH2 0x259 PUSH2 0x180 SWAP8 DUP10 DUP12 PUSH2 0x12B0 JUMP JUMPDEST SWAP6 PUSH2 0x2E2 PUSH2 0x26D DUP4 DUP4 DUP12 PUSH2 0x12B0 JUMP JUMPDEST SWAP8 PUSH2 0x12B0 JUMP JUMPDEST ADD CALLDATALOAD PUSH1 0x40 MLOAD SWAP5 DUP6 SWAP5 PUSH4 0x7EC440E7 PUSH1 0xE1 SHL DUP7 MSTORE PUSH1 0x4 DUP7 ADD PUSH2 0x1423 JUMP JUMPDEST DUP1 PUSH2 0x319 PUSH2 0x314 PUSH1 0x1 SWAP4 DUP6 DUP8 PUSH2 0x12B0 JUMP JUMPDEST PUSH2 0x1596 JUMP JUMPDEST PUSH2 0x32C PUSH2 0x327 DUP3 DUP6 DUP8 PUSH2 0x12B0 JUMP JUMPDEST PUSH2 0x19B4 JUMP JUMPDEST ADD PUSH2 0x219 JUMP JUMPDEST DUP8 PUSH2 0x180 SWAP2 PUSH1 0x40 MLOAD SWAP5 DUP6 SWAP5 PUSH4 0x881F24F PUSH1 0xE3 SHL DUP7 MSTORE PUSH1 0x4 DUP7 ADD PUSH2 0x1356 JUMP JUMPDEST DUP1 PUSH2 0x361 PUSH2 0x314 PUSH1 0x1 SWAP4 DUP6 DUP10 PUSH2 0x12B0 JUMP JUMPDEST PUSH2 0x389 PUSH2 0x36F DUP3 DUP6 DUP10 PUSH2 0x12B0 JUMP JUMPDEST DUP9 PUSH2 0x383 PUSH2 0x37E DUP6 DUP10 DUP12 PUSH2 0x12E8 JUMP JUMPDEST PUSH2 0x12F8 JUMP JUMPDEST SWAP2 PUSH2 0x17CD JUMP JUMPDEST ADD PUSH2 0x1E1 JUMP JUMPDEST DUP3 PUSH2 0x3B7 DUP6 PUSH2 0x272 PUSH2 0x26D DUP5 DUP7 PUSH2 0x3B1 PUSH1 0x20 PUSH2 0x259 DUP5 PUSH2 0x3BD SWAP12 PUSH1 0x1 SWAP16 PUSH2 0x12B0 JUMP JUMPDEST SWAP5 PUSH2 0x12B0 JUMP JUMPDEST SWAP3 PUSH2 0x13E0 JUMP JUMPDEST MSTORE ADD DUP13 SWAP1 PUSH2 0x1D1 JUMP JUMPDEST DUP9 SWAP1 PUSH4 0x2AA9338D PUSH1 0xE2 SHL PUSH1 0x0 MSTORE PUSH1 0x4 MSTORE PUSH1 0x24 MSTORE PUSH1 0x44 PUSH1 0x0 REVERT JUMPDEST PUSH2 0x3E8 CALLDATASIZE PUSH2 0x11F5 JUMP JUMPDEST SWAP1 SWAP4 SWAP5 DUP4 MLOAD DUP7 MLOAD SWAP1 DUP2 DUP2 SUB PUSH2 0x184 JUMPI POP POP PUSH2 0x403 DUP6 DUP5 PUSH2 0x1C0D JUMP JUMPDEST PUSH1 0x0 SWAP1 DUP1 MLOAD PUSH2 0x411 DUP2 PUSH2 0x139A JUMP JUMPDEST SWAP3 JUMPDEST DUP2 DUP2 LT PUSH2 0x59A JUMPI POP PUSH1 0x0 JUMPDEST DUP9 MLOAD DUP2 LT ISZERO PUSH2 0x45D JUMPI DUP1 PUSH2 0x43D PUSH2 0x437 PUSH1 0x1 SWAP4 DUP13 PUSH2 0x13E0 JUMP JUMPDEST MLOAD PUSH2 0x1E3E JUMP JUMPDEST PUSH2 0x457 PUSH2 0x44A DUP3 DUP13 PUSH2 0x13E0 JUMP JUMPDEST MLOAD MLOAD DUP9 PUSH2 0xC6 DUP5 DUP13 PUSH2 0x13E0 JUMP JUMPDEST ADD PUSH2 0x41E JUMP JUMPDEST POP DUP5 SWAP1 DUP8 PUSH1 0x0 DUP1 DUP3 MLOAD PUSH1 0x20 DUP5 ADD CALLVALUE DUP8 GAS CALL SWAP3 PUSH2 0x477 PUSH2 0x1305 JUMP JUMPDEST SWAP4 ISZERO PUSH2 0x163 JUMPI POP POP PUSH1 0x0 JUMPDEST DUP6 MLOAD DUP2 LT ISZERO PUSH2 0x4B5 JUMPI DUP1 PUSH2 0x49B PUSH2 0x437 PUSH1 0x1 SWAP4 DUP10 PUSH2 0x13E0 JUMP JUMPDEST PUSH2 0x4AF PUSH2 0x4A8 DUP3 DUP10 PUSH2 0x13E0 JUMP JUMPDEST MLOAD MLOAD PUSH2 0x1D90 JUMP JUMPDEST ADD PUSH2 0x482 JUMP JUMPDEST POP DUP4 PUSH1 0x0 JUMPDEST DUP3 DUP2 LT PUSH2 0x4D7 JUMPI PUSH1 0x40 MLOAD PUSH1 0x20 DUP1 DUP3 MSTORE DUP2 SWAP1 PUSH2 0x15F SWAP1 DUP3 ADD DUP8 PUSH2 0xD48 JUMP JUMPDEST PUSH2 0x51C PUSH2 0x512 PUSH1 0x1 PUSH1 0x1 PUSH1 0xA0 SHL SUB PUSH1 0x20 PUSH2 0x4F1 DUP6 DUP11 PUSH2 0x13E0 JUMP JUMPDEST MLOAD MLOAD ADD MLOAD AND PUSH1 0x1 PUSH1 0x1 PUSH1 0xA0 SHL SUB PUSH2 0x508 DUP6 DUP11 PUSH2 0x13E0 JUMP JUMPDEST MLOAD MLOAD MLOAD AND SWAP1 PUSH2 0x1B87 JUMP JUMPDEST PUSH2 0x282 DUP4 DUP6 PUSH2 0x13E0 JUMP JUMPDEST PUSH1 0x40 PUSH2 0x528 DUP4 DUP9 PUSH2 0x13E0 JUMP JUMPDEST MLOAD MLOAD ADD MLOAD DUP2 SLT PUSH2 0x53B JUMPI POP PUSH1 0x1 ADD PUSH2 0x4BA JUMP JUMPDEST DUP6 SWAP2 SWAP1 PUSH2 0x180 SWAP1 PUSH1 0x40 PUSH2 0x57D PUSH1 0x1 PUSH1 0x1 PUSH1 0xA0 SHL SUB PUSH1 0x20 PUSH2 0x55B DUP8 DUP10 PUSH2 0x13E0 JUMP JUMPDEST MLOAD MLOAD ADD MLOAD AND SWAP5 PUSH1 0x1 PUSH1 0x1 PUSH1 0xA0 SHL SUB PUSH2 0x573 DUP3 DUP10 PUSH2 0x13E0 JUMP JUMPDEST MLOAD MLOAD MLOAD AND SWAP7 PUSH2 0x13E0 JUMP JUMPDEST MLOAD MLOAD ADD MLOAD PUSH1 0x40 MLOAD PUSH4 0x7EC440E7 PUSH1 0xE1 SHL DUP2 MSTORE SWAP5 DUP6 SWAP5 PUSH1 0x4 DUP7 ADD PUSH2 0x1423 JUMP JUMPDEST PUSH1 0x1 SWAP1 PUSH2 0x5C9 PUSH1 0x1 PUSH1 0x1 PUSH1 0xA0 SHL SUB PUSH1 0x20 PUSH2 0x5B4 DUP5 DUP9 PUSH2 0x13E0 JUMP JUMPDEST MLOAD MLOAD ADD MLOAD AND DUP4 DUP1 PUSH1 0xA0 SHL SUB PUSH2 0x508 DUP5 DUP9 PUSH2 0x13E0 JUMP JUMPDEST PUSH2 0x5D3 DUP3 DUP8 PUSH2 0x13E0 JUMP JUMPDEST MSTORE ADD PUSH2 0x413 JUMP JUMPDEST PUSH2 0x5E3 CALLDATASIZE PUSH2 0x11F5 JUMP JUMPDEST SWAP1 SWAP4 SWAP2 SWAP3 SWAP5 DUP6 MLOAD DUP4 MLOAD SWAP1 DUP2 DUP2 SUB PUSH2 0x184 JUMPI POP POP PUSH2 0x600 DUP6 DUP6 PUSH2 0x1C0D JUMP JUMPDEST PUSH1 0x0 JUMPDEST DUP4 MLOAD DUP2 LT ISZERO PUSH2 0x63C JUMPI DUP1 PUSH2 0x61C PUSH2 0x437 PUSH1 0x1 SWAP4 DUP8 PUSH2 0x13E0 JUMP JUMPDEST PUSH2 0x636 PUSH2 0x629 DUP3 DUP8 PUSH2 0x13E0 JUMP JUMPDEST MLOAD MLOAD DUP8 PUSH2 0xC6 DUP5 DUP13 PUSH2 0x13E0 JUMP JUMPDEST ADD PUSH2 0x603 JUMP JUMPDEST POP SWAP2 POP SWAP3 PUSH1 0x0 DUP1 DUP3 MLOAD PUSH1 0x20 DUP5 ADD CALLVALUE DUP8 GAS CALL SWAP3 PUSH2 0x656 PUSH2 0x1305 JUMP JUMPDEST SWAP4 ISZERO PUSH2 0x163 JUMPI POP POP PUSH1 0x0 JUMPDEST DUP4 MLOAD DUP2 LT ISZERO PUSH2 0x68D JUMPI DUP1 PUSH2 0x67A PUSH2 0x437 PUSH1 0x1 SWAP4 DUP8 PUSH2 0x13E0 JUMP JUMPDEST PUSH2 0x687 PUSH2 0x4A8 DUP3 DUP8 PUSH2 0x13E0 JUMP JUMPDEST ADD PUSH2 0x661 JUMP JUMPDEST POP SWAP1 PUSH1 0x0 JUMPDEST DUP3 MLOAD DUP2 LT ISZERO PUSH2 0x149 JUMPI DUP1 PUSH2 0x6AB PUSH2 0x437 PUSH1 0x1 SWAP4 DUP7 PUSH2 0x13E0 JUMP JUMPDEST PUSH2 0x6BF PUSH2 0x6B8 DUP3 DUP7 PUSH2 0x13E0 JUMP JUMPDEST MLOAD MLOAD PUSH2 0x1FCC JUMP JUMPDEST ADD PUSH2 0x692 JUMP JUMPDEST PUSH2 0x6CE CALLDATASIZE PUSH2 0x104C JUMP JUMPDEST SWAP1 SWAP4 SWAP5 DUP4 MLOAD DUP7 MLOAD SWAP1 DUP2 DUP2 SUB PUSH2 0x184 JUMPI POP POP PUSH2 0x6E9 DUP6 DUP5 PUSH2 0x1C0D JUMP JUMPDEST PUSH1 0x0 SWAP1 DUP1 MLOAD PUSH2 0x6F7 DUP2 PUSH2 0x139A JUMP JUMPDEST SWAP3 JUMPDEST DUP2 DUP2 LT PUSH2 0x848 JUMPI POP PUSH1 0x0 JUMPDEST DUP9 MLOAD DUP2 LT ISZERO PUSH2 0x72F JUMPI DUP1 PUSH2 0x729 PUSH2 0x71D PUSH1 0x1 SWAP4 DUP13 PUSH2 0x13E0 JUMP JUMPDEST MLOAD DUP9 PUSH2 0xC6 DUP5 DUP13 PUSH2 0x13E0 JUMP JUMPDEST ADD PUSH2 0x704 JUMP JUMPDEST POP DUP5 SWAP1 DUP8 PUSH1 0x0 DUP1 DUP3 MLOAD PUSH1 0x20 DUP5 ADD CALLVALUE DUP8 GAS CALL SWAP3 PUSH2 0x749 PUSH2 0x1305 JUMP JUMPDEST SWAP4 ISZERO PUSH2 0x163 JUMPI POP POP PUSH1 0x0 JUMPDEST DUP6 MLOAD DUP2 LT ISZERO PUSH2 0x773 JUMPI DUP1 PUSH2 0x76D PUSH2 0x113 PUSH1 0x1 SWAP4 DUP10 PUSH2 0x13E0 JUMP JUMPDEST ADD PUSH2 0x754 JUMP JUMPDEST POP DUP4 PUSH1 0x0 JUMPDEST DUP3 DUP2 LT PUSH2 0x795 JUMPI PUSH1 0x40 MLOAD PUSH1 0x20 DUP1 DUP3 MSTORE DUP2 SWAP1 PUSH2 0x15F SWAP1 DUP3 ADD DUP8 PUSH2 0xD48 JUMP JUMPDEST PUSH2 0x7CE PUSH2 0x512 PUSH1 0x1 PUSH1 0x1 PUSH1 0xA0 SHL SUB PUSH1 0x20 PUSH2 0x7AF DUP6 DUP11 PUSH2 0x13E0 JUMP JUMPDEST MLOAD ADD MLOAD AND PUSH1 0x1 PUSH1 0x1 PUSH1 0xA0 SHL SUB PUSH2 0x7C5 DUP6 DUP11 PUSH2 0x13E0 JUMP JUMPDEST MLOAD MLOAD AND SWAP1 PUSH2 0x1B87 JUMP JUMPDEST PUSH1 0x40 PUSH2 0x7DA DUP4 DUP9 PUSH2 0x13E0 JUMP JUMPDEST MLOAD ADD MLOAD DUP2 SLT PUSH2 0x7EC JUMPI POP PUSH1 0x1 ADD PUSH2 0x778 JUMP JUMPDEST DUP6 SWAP2 SWAP1 PUSH2 0x180 SWAP1 PUSH1 0x40 PUSH2 0x82C PUSH1 0x1 PUSH1 0x1 PUSH1 0xA0 SHL SUB PUSH1 0x20 PUSH2 0x80C DUP8 DUP10 PUSH2 0x13E0 JUMP JUMPDEST MLOAD ADD MLOAD AND SWAP5 PUSH1 0x1 PUSH1 0x1 PUSH1 0xA0 SHL SUB PUSH2 0x823 DUP3 DUP10 PUSH2 0x13E0 JUMP JUMPDEST MLOAD MLOAD AND SWAP7 PUSH2 0x13E0 JUMP JUMPDEST MLOAD ADD MLOAD PUSH1 0x40 MLOAD PUSH4 0x7EC440E7 PUSH1 0xE1 SHL DUP2 MSTORE SWAP5 DUP6 SWAP5 PUSH1 0x4 DUP7 ADD PUSH2 0x1423 JUMP JUMPDEST PUSH1 0x1 SWAP1 PUSH2 0x876 PUSH1 0x1 PUSH1 0x1 PUSH1 0xA0 SHL SUB PUSH1 0x20 PUSH2 0x862 DUP5 DUP9 PUSH2 0x13E0 JUMP JUMPDEST MLOAD ADD MLOAD AND DUP4 DUP1 PUSH1 0xA0 SHL SUB PUSH2 0x7C5 DUP5 DUP9 PUSH2 0x13E0 JUMP JUMPDEST PUSH2 0x880 DUP3 DUP8 PUSH2 0x13E0 JUMP JUMPDEST MSTORE ADD PUSH2 0x6F9 JUMP JUMPDEST PUSH2 0x890 CALLDATASIZE PUSH2 0xD9D JUMP JUMPDEST SWAP5 DUP8 DUP2 SWAP11 SWAP9 SWAP10 SWAP4 SWAP11 SWAP8 SWAP3 SWAP8 SWAP6 SWAP5 SWAP6 SUB PUSH2 0x3C6 JUMPI PUSH2 0x8AE DUP11 DUP7 DUP7 PUSH2 0x1475 JUMP JUMPDEST PUSH1 0x0 SWAP9 DUP12 PUSH2 0x8BB DUP11 PUSH2 0x139A JUMP JUMPDEST SWAP11 JUMPDEST DUP12 DUP12 DUP1 DUP4 LT PUSH2 0x9D0 JUMPI POP POP POP POP PUSH1 0x0 JUMPDEST DUP2 DUP2 LT PUSH2 0x9B9 JUMPI POP POP POP POP POP PUSH1 0x0 DUP1 PUSH1 0x40 MLOAD DUP10 DUP6 DUP3 CALLDATACOPY DUP1 DUP11 DUP2 ADD DUP4 DUP2 MSTORE SUB SWAP1 CALLVALUE DUP6 GAS CALL SWAP7 PUSH2 0x8F9 PUSH2 0x1305 JUMP JUMPDEST SWAP8 ISZERO PUSH2 0x332 JUMPI POP POP POP PUSH1 0x0 JUMPDEST DUP2 DUP2 LT PUSH2 0x9A2 JUMPI POP POP POP PUSH1 0x0 JUMPDEST DUP2 DUP2 LT PUSH2 0x92F JUMPI PUSH1 0x40 MLOAD PUSH1 0x20 DUP1 DUP3 MSTORE DUP2 SWAP1 PUSH2 0x15F SWAP1 DUP3 ADD DUP8 PUSH2 0xD48 JUMP JUMPDEST PUSH2 0x953 PUSH2 0x278 PUSH2 0x945 PUSH1 0x20 PUSH2 0x259 DUP6 DUP8 DUP12 PUSH2 0x138A JUMP JUMPDEST PUSH2 0x272 PUSH2 0x26D DUP6 DUP8 DUP12 PUSH2 0x138A JUMP JUMPDEST PUSH1 0x40 PUSH2 0x960 DUP4 DUP6 DUP10 PUSH2 0x138A JUMP JUMPDEST ADD CALLDATALOAD DUP2 SLT PUSH2 0x971 JUMPI POP PUSH1 0x1 ADD PUSH2 0x912 JUMP JUMPDEST DUP6 SWAP4 POP PUSH1 0x40 PUSH2 0x2E8 DUP4 PUSH2 0x98D PUSH1 0x20 PUSH2 0x259 PUSH2 0x180 SWAP8 DUP10 DUP12 PUSH2 0x138A JUMP JUMPDEST SWAP6 PUSH2 0x99C PUSH2 0x26D DUP4 DUP4 DUP12 PUSH2 0x138A JUMP JUMPDEST SWAP8 PUSH2 0x138A JUMP JUMPDEST DUP1 PUSH2 0x9B3 PUSH2 0x327 PUSH1 0x1 SWAP4 DUP6 DUP8 PUSH2 0x138A JUMP JUMPDEST ADD PUSH2 0x905 JUMP JUMPDEST DUP1 PUSH2 0x9CA PUSH2 0x36F PUSH1 0x1 SWAP4 DUP6 DUP10 PUSH2 0x138A JUMP JUMPDEST ADD PUSH2 0x8CD JUMP JUMPDEST DUP3 PUSH2 0x3B7 DUP6 PUSH2 0x272 PUSH2 0x26D DUP5 DUP7 PUSH2 0x9F2 PUSH1 0x20 PUSH2 0x259 DUP5 PUSH2 0x9F8 SWAP12 PUSH1 0x1 SWAP16 PUSH2 0x138A JUMP JUMPDEST SWAP5 PUSH2 0x138A JUMP JUMPDEST MSTORE ADD DUP13 SWAP1 PUSH2 0x8BD JUMP JUMPDEST PUSH2 0xA0A CALLDATASIZE PUSH2 0xD9D JUMP JUMPDEST SWAP6 SWAP2 SWAP10 SWAP9 SWAP8 SWAP3 SWAP5 SWAP1 SWAP7 DUP1 DUP3 SUB PUSH2 0xAD4 JUMPI PUSH2 0xA25 DUP12 DUP8 DUP8 PUSH2 0x1475 JUMP JUMPDEST PUSH1 0x0 JUMPDEST DUP2 DUP2 LT PUSH2 0xABD JUMPI POP POP POP POP POP PUSH1 0x0 DUP1 PUSH1 0x40 MLOAD DUP10 DUP6 DUP3 CALLDATACOPY DUP1 DUP11 DUP2 ADD DUP4 DUP2 MSTORE SUB SWAP1 CALLVALUE DUP6 GAS CALL SWAP7 PUSH2 0xA54 PUSH2 0x1305 JUMP JUMPDEST SWAP8 ISZERO PUSH2 0x332 JUMPI POP POP POP PUSH1 0x0 JUMPDEST DUP2 DUP2 LT PUSH2 0xAA6 JUMPI POP POP POP PUSH1 0x0 JUMPDEST DUP2 DUP2 LT PUSH2 0xA8A JUMPI PUSH1 0x40 MLOAD PUSH1 0x20 DUP1 DUP3 MSTORE DUP2 SWAP1 PUSH2 0x15F SWAP1 DUP3 ADD DUP8 PUSH2 0xD48 JUMP JUMPDEST DUP1 PUSH2 0xAA0 PUSH2 0xA9B PUSH1 0x1 SWAP4 DUP6 DUP8 PUSH2 0x138A JUMP JUMPDEST PUSH2 0x1A76 JUMP JUMPDEST ADD PUSH2 0xA6D JUMP JUMPDEST DUP1 PUSH2 0xAB7 PUSH2 0x327 PUSH1 0x1 SWAP4 DUP6 DUP8 PUSH2 0x138A JUMP JUMPDEST ADD PUSH2 0xA60 JUMP JUMPDEST DUP1 PUSH2 0xACE PUSH2 0x36F PUSH1 0x1 SWAP4 DUP6 DUP10 PUSH2 0x138A JUMP JUMPDEST ADD PUSH2 0xA28 JUMP JUMPDEST SWAP1 PUSH4 0x2AA9338D PUSH1 0xE2 SHL PUSH1 0x0 MSTORE PUSH1 0x4 MSTORE PUSH1 0x24 MSTORE PUSH1 0x44 PUSH1 0x0 REVERT JUMPDEST PUSH2 0xAF5 CALLDATASIZE PUSH2 0xC5A JUMP JUMPDEST SWAP6 SWAP2 SWAP10 SWAP9 SWAP8 SWAP3 SWAP5 SWAP1 SWAP7 DUP1 DUP3 SUB PUSH2 0xAD4 JUMPI PUSH2 0xB10 DUP12 DUP8 DUP8 PUSH2 0x1475 JUMP JUMPDEST PUSH1 0x0 JUMPDEST DUP2 DUP2 LT PUSH2 0xBBF JUMPI POP POP POP POP POP PUSH1 0x0 DUP1 PUSH1 0x40 MLOAD DUP10 DUP6 DUP3 CALLDATACOPY DUP1 DUP11 DUP2 ADD DUP4 DUP2 MSTORE SUB SWAP1 CALLVALUE DUP6 GAS CALL SWAP7 PUSH2 0xB3F PUSH2 0x1305 JUMP JUMPDEST SWAP8 ISZERO PUSH2 0x332 JUMPI POP POP POP PUSH1 0x0 JUMPDEST DUP2 DUP2 LT PUSH2 0xB9A JUMPI POP POP POP PUSH1 0x0 JUMPDEST DUP2 DUP2 LT PUSH2 0xB75 JUMPI PUSH1 0x40 MLOAD PUSH1 0x20 DUP1 DUP3 MSTORE DUP2 SWAP1 PUSH2 0x15F SWAP1 DUP3 ADD DUP8 PUSH2 0xD48 JUMP JUMPDEST DUP1 PUSH2 0xB86 PUSH2 0x314 PUSH1 0x1 SWAP4 DUP6 DUP8 PUSH2 0x12B0 JUMP JUMPDEST PUSH2 0xB94 PUSH2 0xA9B DUP3 DUP6 DUP8 PUSH2 0x12B0 JUMP JUMPDEST ADD PUSH2 0xB58 JUMP JUMPDEST DUP1 PUSH2 0xBAB PUSH2 0x314 PUSH1 0x1 SWAP4 DUP6 DUP8 PUSH2 0x12B0 JUMP JUMPDEST PUSH2 0xBB9 PUSH2 0x327 DUP3 DUP6 DUP8 PUSH2 0x12B0 JUMP JUMPDEST ADD PUSH2 0xB4B JUMP JUMPDEST DUP1 PUSH2 0xBD0 PUSH2 0x314 PUSH1 0x1 SWAP4 DUP6 DUP10 PUSH2 0x12B0 JUMP JUMPDEST PUSH2 0xBDE PUSH2 0x36F DUP3 DUP6 DUP10 PUSH2 0x12B0 JUMP JUMPDEST ADD PUSH2 0xB13 JUMP JUMPDEST SWAP2 DUP2 PUSH1 0x1F DUP5 ADD SLT ISZERO PUSH2 0xC14 JUMPI DUP3 CALLDATALOAD SWAP2 PUSH1 0x1 PUSH1 0x1 PUSH1 0x40 SHL SUB DUP4 GT PUSH2 0xC14 JUMPI PUSH1 0x20 DUP1 DUP6 ADD SWAP5 DUP5 PUSH1 0x5 SHL ADD ADD GT PUSH2 0xC14 JUMPI JUMP JUMPDEST PUSH1 0x0 DUP1 REVERT JUMPDEST CALLDATALOAD SWAP1 PUSH1 0x1 PUSH1 0x1 PUSH1 0xA0 SHL SUB DUP3 AND DUP3 SUB PUSH2 0xC14 JUMPI JUMP JUMPDEST SWAP2 DUP2 PUSH1 0x1F DUP5 ADD SLT ISZERO PUSH2 0xC14 JUMPI DUP3 CALLDATALOAD SWAP2 PUSH1 0x1 PUSH1 0x1 PUSH1 0x40 SHL SUB DUP4 GT PUSH2 0xC14 JUMPI PUSH1 0x20 DUP4 DUP2 DUP7 ADD SWAP6 ADD ADD GT PUSH2 0xC14 JUMPI JUMP JUMPDEST SWAP1 PUSH1 0xC0 PUSH1 0x3 NOT DUP4 ADD SLT PUSH2 0xC14 JUMPI PUSH1 0x4 CALLDATALOAD PUSH1 0x1 PUSH1 0x1 PUSH1 0x40 SHL SUB DUP2 GT PUSH2 0xC14 JUMPI DUP3 PUSH2 0xC85 SWAP2 PUSH1 0x4 ADD PUSH2 0xBE4 JUMP JUMPDEST SWAP3 SWAP1 SWAP3 SWAP2 PUSH1 0x24 CALLDATALOAD PUSH1 0x1 PUSH1 0x1 PUSH1 0x40 SHL SUB DUP2 GT PUSH2 0xC14 JUMPI DUP3 PUSH2 0xCA7 SWAP2 PUSH1 0x4 ADD PUSH2 0xBE4 JUMP JUMPDEST SWAP3 SWAP1 SWAP3 SWAP2 PUSH1 0x44 CALLDATALOAD PUSH1 0x1 PUSH1 0x1 PUSH1 0x40 SHL SUB DUP2 GT PUSH2 0xC14 JUMPI DUP3 PUSH2 0xCC9 SWAP2 PUSH1 0x4 ADD PUSH2 0xBE4 JUMP JUMPDEST SWAP1 SWAP3 SWAP1 SWAP2 PUSH1 0x64 CALLDATALOAD PUSH1 0x1 PUSH1 0x1 PUSH1 0xA0 SHL SUB DUP2 AND DUP2 SUB PUSH2 0xC14 JUMPI SWAP2 PUSH1 0x84 CALLDATALOAD PUSH1 0x1 PUSH1 0x1 PUSH1 0x40 SHL SUB DUP2 GT PUSH2 0xC14 JUMPI DUP2 PUSH2 0xCFF SWAP2 PUSH1 0x4 ADD PUSH2 0xC2D JUMP JUMPDEST SWAP3 SWAP1 SWAP3 SWAP2 PUSH1 0xA4 CALLDATALOAD SWAP1 PUSH1 0x1 PUSH1 0x1 PUSH1 0x40 SHL SUB DUP3 GT PUSH2 0xC14 JUMPI PUSH2 0xD21 SWAP2 PUSH1 0x4 ADD PUSH2 0xBE4 JUMP JUMPDEST SWAP1 SWAP2 JUMP JUMPDEST PUSH1 0x0 JUMPDEST DUP4 DUP2 LT PUSH2 0xD38 JUMPI POP POP PUSH1 0x0 SWAP2 ADD MSTORE JUMP JUMPDEST DUP2 DUP2 ADD MLOAD DUP4 DUP3 ADD MSTORE PUSH1 0x20 ADD PUSH2 0xD28 JUMP JUMPDEST SWAP1 PUSH1 0x20 SWAP2 PUSH2 0xD61 DUP2 MLOAD DUP1 SWAP3 DUP2 DUP6 MSTORE DUP6 DUP1 DUP7 ADD SWAP2 ADD PUSH2 0xD25 JUMP JUMPDEST PUSH1 0x1F ADD PUSH1 0x1F NOT AND ADD ADD SWAP1 JUMP JUMPDEST SWAP2 DUP2 PUSH1 0x1F DUP5 ADD SLT ISZERO PUSH2 0xC14 JUMPI DUP3 CALLDATALOAD SWAP2 PUSH1 0x1 PUSH1 0x1 PUSH1 0x40 SHL SUB DUP4 GT PUSH2 0xC14 JUMPI PUSH1 0x20 DUP1 DUP6 ADD SWAP5 PUSH1 0x60 DUP6 MUL ADD ADD GT PUSH2 0xC14 JUMPI JUMP JUMPDEST SWAP1 PUSH1 0xC0 PUSH1 0x3 NOT DUP4 ADD SLT PUSH2 0xC14 JUMPI PUSH1 0x4 CALLDATALOAD PUSH1 0x1 PUSH1 0x1 PUSH1 0x40 SHL SUB DUP2 GT PUSH2 0xC14 JUMPI DUP3 PUSH2 0xDC8 SWAP2 PUSH1 0x4 ADD PUSH2 0xD6D JUMP JUMPDEST SWAP3 SWAP1 SWAP3 SWAP2 PUSH1 0x24 CALLDATALOAD PUSH1 0x1 PUSH1 0x1 PUSH1 0x40 SHL SUB DUP2 GT PUSH2 0xC14 JUMPI DUP3 PUSH2 0xDEA SWAP2 PUSH1 0x4 ADD PUSH2 0xD6D JUMP JUMPDEST SWAP3 SWAP1 SWAP3 SWAP2 PUSH1 0x44 CALLDATALOAD PUSH1 0x1 PUSH1 0x1 PUSH1 0x40 SHL SUB DUP2 GT PUSH2 0xC14 JUMPI DUP3 PUSH2 0xE0C SWAP2 PUSH1 0x4 ADD PUSH2 0xBE4 JUMP JUMPDEST SWAP1 SWAP3 SWAP1 SWAP2 PUSH1 0x64 CALLDATALOAD PUSH1 0x1 PUSH1 0x1 PUSH1 0xA0 SHL SUB DUP2 AND DUP2 SUB PUSH2 0xC14 JUMPI SWAP2 PUSH1 0x84 CALLDATALOAD PUSH1 0x1 PUSH1 0x1 PUSH1 0x40 SHL SUB DUP2 GT PUSH2 0xC14 JUMPI DUP2 PUSH2 0xE42 SWAP2 PUSH1 0x4 ADD PUSH2 0xC2D JUMP JUMPDEST SWAP3 SWAP1 SWAP3 SWAP2 PUSH1 0xA4 CALLDATALOAD SWAP1 PUSH1 0x1 PUSH1 0x1 PUSH1 0x40 SHL SUB DUP3 GT PUSH2 0xC14 JUMPI PUSH2 0xD21 SWAP2 PUSH1 0x4 ADD PUSH2 0xD6D JUMP JUMPDEST PUSH1 0x60 DUP2 ADD SWAP1 DUP2 LT PUSH1 0x1 PUSH1 0x1 PUSH1 0x40 SHL SUB DUP3 GT OR PUSH2 0xE7F JUMPI PUSH1 0x40 MSTORE JUMP JUMPDEST PUSH4 0x4E487B71 PUSH1 0xE0 SHL PUSH1 0x0 MSTORE PUSH1 0x41 PUSH1 0x4 MSTORE PUSH1 0x24 PUSH1 0x0 REVERT JUMPDEST SWAP1 PUSH1 0x1F DUP1 NOT SWAP2 ADD AND DUP2 ADD SWAP1 DUP2 LT PUSH1 0x1 PUSH1 0x1 PUSH1 0x40 SHL SUB DUP3 GT OR PUSH2 0xE7F JUMPI PUSH1 0x40 MSTORE JUMP JUMPDEST PUSH1 0x1 PUSH1 0x1 PUSH1 0x40 SHL SUB DUP2 GT PUSH2 0xE7F JUMPI PUSH1 0x5 SHL PUSH1 0x20 ADD SWAP1 JUMP JUMPDEST SWAP2 SWAP1 DUP3 PUSH1 0x60 SWAP2 SUB SLT PUSH2 0xC14 JUMPI PUSH1 0x40 MLOAD PUSH2 0xEE5 DUP2 PUSH2 0xE64 JUMP JUMPDEST PUSH1 0x40 DUP1 DUP3 SWAP5 PUSH2 0xEF3 DUP2 PUSH2 0xC19 JUMP JUMPDEST DUP5 MSTORE PUSH2 0xF01 PUSH1 0x20 DUP3 ADD PUSH2 0xC19 JUMP JUMPDEST PUSH1 0x20 DUP6 ADD MSTORE ADD CALLDATALOAD SWAP2 ADD MSTORE JUMP JUMPDEST DUP2 PUSH1 0x1F DUP3 ADD SLT ISZERO PUSH2 0xC14 JUMPI DUP1 CALLDATALOAD PUSH2 0xF23 DUP2 PUSH2 0xEB6 JUMP JUMPDEST SWAP3 PUSH2 0xF31 PUSH1 0x40 MLOAD SWAP5 DUP6 PUSH2 0xE95 JUMP JUMPDEST DUP2 DUP5 MSTORE PUSH1 0x20 PUSH1 0x60 DUP2 DUP7 ADD SWAP4 MUL DUP5 ADD ADD SWAP3 DUP2 DUP5 GT PUSH2 0xC14 JUMPI PUSH1 0x20 ADD SWAP2 JUMPDEST DUP4 DUP4 LT PUSH2 0xF5B JUMPI POP POP POP POP SWAP1 JUMP JUMPDEST PUSH1 0x20 PUSH1 0x60 SWAP2 PUSH2 0xF6A DUP5 DUP7 PUSH2 0xECD JUMP JUMPDEST DUP2 MSTORE ADD SWAP3 ADD SWAP2 PUSH2 0xF4D JUMP JUMPDEST SWAP1 DUP1 PUSH1 0x1F DUP4 ADD SLT ISZERO PUSH2 0xC14 JUMPI DUP2 CALLDATALOAD SWAP1 PUSH2 0xF8D DUP3 PUSH2 0xEB6 JUMP JUMPDEST SWAP3 PUSH2 0xF9B PUSH1 0x40 MLOAD SWAP5 DUP6 PUSH2 0xE95 JUMP JUMPDEST DUP3 DUP5 MSTORE PUSH1 0x20 DUP1 DUP6 ADD SWAP4 PUSH1 0x5 SHL DUP3 ADD ADD SWAP2 DUP3 GT PUSH2 0xC14 JUMPI PUSH1 0x20 ADD SWAP2 JUMPDEST DUP2 DUP4 LT PUSH2 0xFC3 JUMPI POP POP POP SWAP1 JUMP JUMPDEST DUP3 CALLDATALOAD DUP1 ISZERO ISZERO DUP2 SUB PUSH2 0xC14 JUMPI DUP2 MSTORE PUSH1 0x20 SWAP3 DUP4 ADD SWAP3 ADD PUSH2 0xFB6 JUMP JUMPDEST PUSH1 0x1 PUSH1 0x1 PUSH1 0x40 SHL SUB DUP2 GT PUSH2 0xE7F JUMPI PUSH1 0x1F ADD PUSH1 0x1F NOT AND PUSH1 0x20 ADD SWAP1 JUMP JUMPDEST SWAP3 SWAP2 SWAP3 PUSH2 0x1003 DUP3 PUSH2 0xFDC JUMP JUMPDEST SWAP2 PUSH2 0x1011 PUSH1 0x40 MLOAD SWAP4 DUP5 PUSH2 0xE95 JUMP JUMPDEST DUP3 SWAP5 DUP2 DUP5 MSTORE DUP2 DUP4 ADD GT PUSH2 0xC14 JUMPI DUP3 DUP2 PUSH1 0x20 SWAP4 DUP5 PUSH1 0x0 SWAP7 ADD CALLDATACOPY ADD ADD MSTORE JUMP JUMPDEST SWAP1 DUP1 PUSH1 0x1F DUP4 ADD SLT ISZERO PUSH2 0xC14 JUMPI DUP2 PUSH1 0x20 PUSH2 0x1049 SWAP4 CALLDATALOAD SWAP2 ADD PUSH2 0xFF7 JUMP JUMPDEST SWAP1 JUMP JUMPDEST SWAP1 PUSH1 0xC0 PUSH1 0x3 NOT DUP4 ADD SLT PUSH2 0xC14 JUMPI PUSH1 0x4 CALLDATALOAD PUSH1 0x1 PUSH1 0x1 PUSH1 0x40 SHL SUB DUP2 GT PUSH2 0xC14 JUMPI DUP3 PUSH2 0x1077 SWAP2 PUSH1 0x4 ADD PUSH2 0xF0D JUMP JUMPDEST SWAP2 PUSH1 0x24 CALLDATALOAD PUSH1 0x1 PUSH1 0x1 PUSH1 0x40 SHL SUB DUP2 GT PUSH2 0xC14 JUMPI DUP2 PUSH2 0x1096 SWAP2 PUSH1 0x4 ADD PUSH2 0xF0D JUMP JUMPDEST SWAP2 PUSH1 0x44 CALLDATALOAD PUSH1 0x1 PUSH1 0x1 PUSH1 0x40 SHL SUB DUP2 GT PUSH2 0xC14 JUMPI DUP3 PUSH2 0x10B5 SWAP2 PUSH1 0x4 ADD PUSH2 0xF75 JUMP JUMPDEST SWAP2 PUSH1 0x64 CALLDATALOAD PUSH1 0x1 PUSH1 0x1 PUSH1 0xA0 SHL SUB DUP2 AND DUP2 SUB PUSH2 0xC14 JUMPI SWAP2 PUSH1 0x84 CALLDATALOAD PUSH1 0x1 PUSH1 0x1 PUSH1 0x40 SHL SUB DUP2 GT PUSH2 0xC14 JUMPI DUP3 PUSH2 0x10E8 SWAP2 PUSH1 0x4 ADD PUSH2 0x102E JUMP JUMPDEST SWAP2 PUSH1 0xA4 CALLDATALOAD SWAP1 PUSH1 0x1 PUSH1 0x1 PUSH1 0x40 SHL SUB DUP3 GT PUSH2 0xC14 JUMPI PUSH2 0x1049 SWAP2 PUSH1 0x4 ADD PUSH2 0xF0D JUMP JUMPDEST SWAP1 DUP1 PUSH1 0x1F DUP4 ADD SLT ISZERO PUSH2 0xC14 JUMPI DUP2 CALLDATALOAD SWAP2 PUSH2 0x111F DUP4 PUSH2 0xEB6 JUMP JUMPDEST SWAP3 PUSH2 0x112D PUSH1 0x40 MLOAD SWAP5 DUP6 PUSH2 0xE95 JUMP JUMPDEST DUP1 DUP5 MSTORE PUSH1 0x20 DUP1 DUP6 ADD SWAP2 PUSH1 0x5 SHL DUP4 ADD ADD SWAP2 DUP4 DUP4 GT PUSH2 0xC14 JUMPI PUSH1 0x20 DUP2 ADD SWAP2 JUMPDEST DUP4 DUP4 LT PUSH2 0x1159 JUMPI POP POP POP POP POP SWAP1 JUMP JUMPDEST DUP3 CALLDATALOAD PUSH1 0x1 PUSH1 0x1 PUSH1 0x40 SHL SUB DUP2 GT PUSH2 0xC14 JUMPI DUP3 ADD SWAP1 PUSH1 0xA0 DUP3 DUP8 SUB PUSH1 0x1F NOT ADD SLT PUSH2 0xC14 JUMPI PUSH1 0x40 MLOAD SWAP2 PUSH2 0x1187 DUP4 PUSH2 0xE64 JUMP JUMPDEST PUSH2 0x1194 DUP8 PUSH1 0x20 DUP4 ADD PUSH2 0xECD JUMP JUMPDEST DUP4 MSTORE PUSH1 0x80 DUP2 ADD CALLDATALOAD PUSH1 0x1 PUSH1 0x1 PUSH1 0x40 SHL SUB DUP2 GT PUSH2 0xC14 JUMPI PUSH1 0x20 SWAP1 DUP3 ADD ADD SWAP1 DUP8 PUSH1 0x1F DUP4 ADD SLT ISZERO PUSH2 0xC14 JUMPI PUSH2 0x11CD DUP9 DUP4 PUSH1 0x20 PUSH1 0xA0 SWAP6 CALLDATALOAD SWAP2 ADD PUSH2 0xFF7 JUMP JUMPDEST PUSH1 0x20 DUP6 ADD MSTORE ADD CALLDATALOAD SWAP1 PUSH1 0xFF DUP3 AND DUP3 SUB PUSH2 0xC14 JUMPI DUP3 PUSH1 0x20 SWAP4 SWAP3 PUSH1 0x40 DUP6 SWAP5 ADD MSTORE DUP2 MSTORE ADD SWAP3 ADD SWAP2 PUSH2 0x114A JUMP JUMPDEST SWAP1 PUSH1 0xC0 PUSH1 0x3 NOT DUP4 ADD SLT PUSH2 0xC14 JUMPI PUSH1 0x4 CALLDATALOAD PUSH1 0x1 PUSH1 0x1 PUSH1 0x40 SHL SUB DUP2 GT PUSH2 0xC14 JUMPI DUP3 PUSH2 0x1220 SWAP2 PUSH1 0x4 ADD PUSH2 0x1107 JUMP JUMPDEST SWAP2 PUSH1 0x24 CALLDATALOAD PUSH1 0x1 PUSH1 0x1 PUSH1 0x40 SHL SUB DUP2 GT PUSH2 0xC14 JUMPI DUP2 PUSH2 0x123F SWAP2 PUSH1 0x4 ADD PUSH2 0x1107 JUMP JUMPDEST SWAP2 PUSH1 0x44 CALLDATALOAD PUSH1 0x1 PUSH1 0x1 PUSH1 0x40 SHL SUB DUP2 GT PUSH2 0xC14 JUMPI DUP3 PUSH2 0x125E SWAP2 PUSH1 0x4 ADD PUSH2 0xF75 JUMP JUMPDEST SWAP2 PUSH1 0x64 CALLDATALOAD PUSH1 0x1 PUSH1 0x1 PUSH1 0xA0 SHL SUB DUP2 AND DUP2 SUB PUSH2 0xC14 JUMPI SWAP2 PUSH1 0x84 CALLDATALOAD PUSH1 0x1 PUSH1 0x1 PUSH1 0x40 SHL SUB DUP2 GT PUSH2 0xC14 JUMPI DUP3 PUSH2 0x1291 SWAP2 PUSH1 0x4 ADD PUSH2 0x102E JUMP JUMPDEST SWAP2 PUSH1 0xA4 CALLDATALOAD SWAP1 PUSH1 0x1 PUSH1 0x1 PUSH1 0x40 SHL SUB DUP3 GT PUSH2 0xC14 JUMPI PUSH2 0x1049 SWAP2 PUSH1 0x4 ADD PUSH2 0x1107 JUMP JUMPDEST SWAP2 SWAP1 DUP2 LT ISZERO PUSH2 0x12D2 JUMPI PUSH1 0x5 SHL DUP2 ADD CALLDATALOAD SWAP1 PUSH1 0x9E NOT DUP2 CALLDATASIZE SUB ADD DUP3 SLT ISZERO PUSH2 0xC14 JUMPI ADD SWAP1 JUMP JUMPDEST PUSH4 0x4E487B71 PUSH1 0xE0 SHL PUSH1 0x0 MSTORE PUSH1 0x32 PUSH1 0x4 MSTORE PUSH1 0x24 PUSH1 0x0 REVERT JUMPDEST SWAP2 SWAP1 DUP2 LT ISZERO PUSH2 0x12D2 JUMPI PUSH1 0x5 SHL ADD SWAP1 JUMP JUMPDEST CALLDATALOAD DUP1 ISZERO ISZERO DUP2 SUB PUSH2 0xC14 JUMPI SWAP1 JUMP JUMPDEST RETURNDATASIZE ISZERO PUSH2 0x1330 JUMPI RETURNDATASIZE SWAP1 PUSH2 0x1316 DUP3 PUSH2 0xFDC JUMP JUMPDEST SWAP2 PUSH2 0x1324 PUSH1 0x40 MLOAD SWAP4 DUP5 PUSH2 0xE95 JUMP JUMPDEST DUP3 MSTORE RETURNDATASIZE PUSH1 0x0 PUSH1 0x20 DUP5 ADD RETURNDATACOPY JUMP JUMPDEST PUSH1 0x60 SWAP1 JUMP JUMPDEST SWAP1 DUP1 PUSH1 0x20 SWAP4 SWAP3 DUP2 DUP5 MSTORE DUP5 DUP5 ADD CALLDATACOPY PUSH1 0x0 DUP3 DUP3 ADD DUP5 ADD MSTORE PUSH1 0x1F ADD PUSH1 0x1F NOT AND ADD ADD SWAP1 JUMP JUMPDEST SWAP3 SWAP2 PUSH2 0x1049 SWAP5 SWAP3 PUSH2 0x137C SWAP3 PUSH1 0x1 DUP1 PUSH1 0xA0 SHL SUB AND DUP6 MSTORE PUSH1 0x60 PUSH1 0x20 DUP7 ADD MSTORE PUSH1 0x60 DUP6 ADD SWAP2 PUSH2 0x1335 JUMP JUMPDEST SWAP2 PUSH1 0x40 DUP2 DUP5 SUB SWAP2 ADD MSTORE PUSH2 0xD48 JUMP JUMPDEST SWAP2 SWAP1 DUP2 LT ISZERO PUSH2 0x12D2 JUMPI PUSH1 0x60 MUL ADD SWAP1 JUMP JUMPDEST SWAP1 PUSH2 0x13A4 DUP3 PUSH2 0xEB6 JUMP JUMPDEST PUSH2 0x13B1 PUSH1 0x40 MLOAD SWAP2 DUP3 PUSH2 0xE95 JUMP JUMPDEST DUP3 DUP2 MSTORE DUP1 SWAP3 PUSH2 0x13C2 PUSH1 0x1F NOT SWAP2 PUSH2 0xEB6 JUMP JUMPDEST ADD SWAP1 PUSH1 0x20 CALLDATASIZE SWAP2 ADD CALLDATACOPY JUMP JUMPDEST CALLDATALOAD PUSH1 0x1 PUSH1 0x1 PUSH1 0xA0 SHL SUB DUP2 AND DUP2 SUB PUSH2 0xC14 JUMPI SWAP1 JUMP JUMPDEST DUP1 MLOAD DUP3 LT ISZERO PUSH2 0x12D2 JUMPI PUSH1 0x20 SWAP2 PUSH1 0x5 SHL ADD ADD SWAP1 JUMP JUMPDEST DUP2 DUP2 SUB SWAP3 SWAP2 PUSH1 0x0 SGT DUP1 ISZERO DUP3 DUP6 SGT AND SWAP2 DUP5 SLT AND OR PUSH2 0x140D JUMPI JUMP JUMPDEST PUSH4 0x4E487B71 PUSH1 0xE0 SHL PUSH1 0x0 MSTORE PUSH1 0x11 PUSH1 0x4 MSTORE PUSH1 0x24 PUSH1 0x0 REVERT JUMPDEST PUSH1 0x1 PUSH1 0x1 PUSH1 0xA0 SHL SUB SWAP2 DUP3 AND DUP2 MSTORE SWAP2 AND PUSH1 0x20 DUP3 ADD MSTORE PUSH1 0x40 DUP2 ADD SWAP2 SWAP1 SWAP2 MSTORE PUSH1 0x60 DUP2 ADD SWAP2 SWAP1 SWAP2 MSTORE PUSH1 0x80 ADD SWAP1 JUMP JUMPDEST PUSH1 0x1 PUSH1 0x1 PUSH1 0xA0 SHL SUB SWAP1 SWAP2 AND DUP2 MSTORE PUSH1 0x60 PUSH1 0x20 DUP3 ADD DUP2 SWAP1 MSTORE PUSH2 0x1049 SWAP4 SWAP2 SWAP3 PUSH2 0x137C SWAP2 DUP5 ADD SWAP1 PUSH2 0xD48 JUMP JUMPDEST SWAP2 PUSH1 0x4 GT PUSH2 0x14BA JUMPI CALLDATALOAD PUSH1 0x1 PUSH1 0x1 PUSH1 0xE0 SHL SUB NOT AND SWAP1 PUSH4 0x23B872DD PUSH1 0xE0 SHL DUP3 EQ PUSH2 0x149B JUMPI POP POP JUMP JUMPDEST PUSH4 0x2AD238E5 PUSH1 0xE0 SHL PUSH1 0x0 MSTORE PUSH1 0x1 DUP1 PUSH1 0xA0 SHL SUB AND PUSH1 0x4 MSTORE PUSH1 0x24 MSTORE PUSH1 0x44 PUSH1 0x0 REVERT JUMPDEST POP POP JUMP JUMPDEST PUSH1 0x20 DUP2 DUP4 SUB SLT PUSH2 0xC14 JUMPI DUP1 MLOAD SWAP1 PUSH1 0x1 PUSH1 0x1 PUSH1 0x40 SHL SUB DUP3 GT PUSH2 0xC14 JUMPI ADD DUP2 PUSH1 0x1F DUP3 ADD SLT ISZERO PUSH2 0xC14 JUMPI DUP1 MLOAD PUSH2 0x14F0 DUP2 PUSH2 0xFDC JUMP JUMPDEST SWAP3 PUSH2 0x14FE PUSH1 0x40 MLOAD SWAP5 DUP6 PUSH2 0xE95 JUMP JUMPDEST DUP2 DUP5 MSTORE PUSH1 0x20 DUP3 DUP5 ADD ADD GT PUSH2 0xC14 JUMPI PUSH2 0x1049 SWAP2 PUSH1 0x20 DUP1 DUP6 ADD SWAP2 ADD PUSH2 0xD25 JUMP JUMPDEST SWAP1 DUP2 PUSH1 0x20 SWAP2 SUB SLT PUSH2 0xC14 JUMPI MLOAD PUSH1 0xFF DUP2 AND DUP2 SUB PUSH2 0xC14 JUMPI SWAP1 JUMP JUMPDEST PUSH1 0x40 MLOAD SWAP1 PUSH2 0x1544 PUSH1 0x40 DUP4 PUSH2 0xE95 JUMP JUMPDEST PUSH1 0x3 DUP3 MSTORE PUSH3 0x8AA89 PUSH1 0xEB SHL PUSH1 0x20 DUP4 ADD MSTORE JUMP JUMPDEST SWAP1 CALLDATALOAD SWAP1 PUSH1 0x1E NOT DUP2 CALLDATASIZE SUB ADD DUP3 SLT ISZERO PUSH2 0xC14 JUMPI ADD DUP1 CALLDATALOAD SWAP1 PUSH1 0x1 PUSH1 0x1 PUSH1 0x40 SHL SUB DUP3 GT PUSH2 0xC14 JUMPI PUSH1 0x20 ADD SWAP2 DUP2 CALLDATASIZE SUB DUP4 SGT PUSH2 0xC14 JUMPI JUMP JUMPDEST CALLDATALOAD PUSH1 0xFF DUP2 AND DUP2 SUB PUSH2 0xC14 JUMPI SWAP1 JUMP JUMPDEST PUSH1 0x20 DUP2 ADD SWAP1 PUSH1 0x1 PUSH1 0x1 PUSH1 0xA0 SHL SUB PUSH2 0x15AC DUP4 PUSH2 0x13CC JUMP JUMPDEST AND PUSH2 0x16DE JUMPI PUSH2 0x15B9 PUSH2 0x1535 JUMP JUMPDEST SWAP1 PUSH1 0x12 SWAP2 JUMPDEST PUSH1 0x40 MLOAD PUSH1 0x20 DUP2 ADD SWAP1 PUSH2 0x15EC PUSH1 0x20 DUP3 DUP6 MLOAD PUSH2 0x15DB DUP2 DUP8 DUP6 DUP11 ADD PUSH2 0xD25 JUMP JUMPDEST DUP2 ADD SUB ADD PUSH1 0x1F NOT DUP2 ADD DUP4 MSTORE DUP3 PUSH2 0xE95 JUMP JUMPDEST MLOAD SWAP1 KECCAK256 SWAP4 PUSH1 0x60 DUP4 ADD SWAP5 PUSH2 0x15FF DUP7 DUP6 PUSH2 0x1556 JUMP JUMPDEST PUSH2 0x1627 PUSH1 0x20 PUSH1 0x40 MLOAD DUP4 DUP2 SWAP5 DUP4 DUP4 ADD SWAP7 DUP8 CALLDATACOPY DUP2 ADD PUSH1 0x0 DUP4 DUP3 ADD MSTORE SUB ADD PUSH1 0x1F NOT DUP2 ADD DUP4 MSTORE DUP3 PUSH2 0xE95 JUMP JUMPDEST MLOAD SWAP1 KECCAK256 EQ DUP1 ISZERO SWAP1 PUSH2 0x16C3 JUMPI JUMPDEST PUSH2 0x163E JUMPI POP POP POP POP POP JUMP JUMPDEST PUSH1 0x80 SWAP6 POP SWAP2 PUSH2 0x16B8 SWAP2 PUSH1 0xFF PUSH2 0x16A0 PUSH2 0x166C PUSH2 0x1663 PUSH2 0x165C DUP5 SWAP9 PUSH2 0x13CC JUMP JUMPDEST SWAP10 DUP7 PUSH2 0x1556 JUMP JUMPDEST SWAP11 SWAP1 SWAP6 ADD PUSH2 0x1588 JUMP JUMPDEST PUSH1 0x40 MLOAD PUSH4 0x55918519 PUSH1 0xE0 SHL DUP2 MSTORE PUSH1 0x1 PUSH1 0x1 PUSH1 0xA0 SHL SUB SWAP1 SWAP10 AND PUSH1 0x4 DUP11 ADD MSTORE PUSH1 0xA0 PUSH1 0x24 DUP11 ADD MSTORE SWAP8 SWAP9 DUP10 SWAP9 SWAP5 PUSH1 0xA4 DUP11 ADD SWAP2 SWAP1 PUSH2 0x1335 JUMP JUMPDEST SWAP3 AND PUSH1 0x44 DUP8 ADD MSTORE DUP6 DUP3 SUB PUSH1 0x3 NOT ADD PUSH1 0x64 DUP8 ADD MSTORE PUSH2 0xD48 JUMP JUMPDEST SWAP2 AND PUSH1 0x84 DUP4 ADD MSTORE SUB SWAP1 REVERT JUMPDEST POP PUSH1 0xFF PUSH2 0x16D2 PUSH1 0x80 DUP6 ADD PUSH2 0x1588 JUMP JUMPDEST AND PUSH1 0xFF DUP6 AND EQ ISZERO PUSH2 0x1633 JUMP JUMPDEST PUSH1 0x4 PUSH1 0x0 PUSH1 0x1 PUSH1 0x1 PUSH1 0xA0 SHL SUB PUSH2 0x16F3 DUP6 PUSH2 0x13CC JUMP JUMPDEST AND PUSH1 0x40 MLOAD SWAP3 DUP4 DUP1 SWAP3 PUSH4 0x95D89B41 PUSH1 0xE0 SHL DUP3 MSTORE GAS STATICCALL SWAP1 DUP2 ISZERO PUSH2 0x1786 JUMPI PUSH1 0x0 SWAP2 PUSH2 0x1792 JUMPI JUMPDEST POP SWAP1 PUSH1 0x4 PUSH1 0x20 PUSH1 0x1 PUSH1 0x1 PUSH1 0xA0 SHL SUB PUSH2 0x172D DUP7 PUSH2 0x13CC JUMP JUMPDEST AND PUSH1 0x40 MLOAD SWAP3 DUP4 DUP1 SWAP3 PUSH4 0x313CE567 PUSH1 0xE0 SHL DUP3 MSTORE GAS STATICCALL SWAP1 DUP2 ISZERO PUSH2 0x1786 JUMPI PUSH1 0x0 SWAP2 PUSH2 0x1757 JUMPI JUMPDEST POP SWAP2 PUSH2 0x15BE JUMP JUMPDEST PUSH2 0x1779 SWAP2 POP PUSH1 0x20 RETURNDATASIZE PUSH1 0x20 GT PUSH2 0x177F JUMPI JUMPDEST PUSH2 0x1771 DUP2 DUP4 PUSH2 0xE95 JUMP JUMPDEST DUP2 ADD SWAP1 PUSH2 0x151C JUMP JUMPDEST CODESIZE PUSH2 0x1750 JUMP JUMPDEST POP RETURNDATASIZE PUSH2 0x1767 JUMP JUMPDEST PUSH1 0x40 MLOAD RETURNDATASIZE PUSH1 0x0 DUP3 RETURNDATACOPY RETURNDATASIZE SWAP1 REVERT JUMPDEST PUSH2 0x17AF SWAP2 POP RETURNDATASIZE DUP1 PUSH1 0x0 DUP4 RETURNDATACOPY PUSH2 0x17A7 DUP2 DUP4 PUSH2 0xE95 JUMP JUMPDEST DUP2 ADD SWAP1 PUSH2 0x14BE JUMP JUMPDEST CODESIZE PUSH2 0x1716 JUMP JUMPDEST SWAP1 DUP2 PUSH1 0x20 SWAP2 SUB SLT PUSH2 0xC14 JUMPI MLOAD DUP1 ISZERO ISZERO DUP2 SUB PUSH2 0xC14 JUMPI SWAP1 JUMP JUMPDEST SWAP1 PUSH1 0x20 DUP3 ADD SWAP1 PUSH1 0x1 PUSH1 0x1 PUSH1 0xA0 SHL SUB PUSH2 0x17E4 DUP4 PUSH2 0x13CC JUMP JUMPDEST AND ISZERO PUSH2 0x19AE JUMPI PUSH2 0x17F3 DUP4 PUSH2 0x13CC JUMP JUMPDEST PUSH1 0x1 PUSH1 0x1 PUSH1 0xA0 SHL SUB SWAP2 DUP3 AND SWAP2 AND SUB PUSH2 0x1977 JUMPI PUSH1 0x1 PUSH1 0x1 PUSH1 0xA0 SHL SUB PUSH2 0x1816 DUP3 PUSH2 0x13CC JUMP JUMPDEST PUSH1 0x40 DUP1 MLOAD PUSH4 0x23B872DD PUSH1 0xE0 SHL DUP2 MSTORE CALLER PUSH1 0x4 DUP3 ADD MSTORE ADDRESS PUSH1 0x24 DUP3 ADD MSTORE SWAP1 DUP6 ADD CALLDATALOAD PUSH1 0xFF DUP2 SWAP1 SAR SWAP1 DUP2 ADD XOR PUSH1 0x44 DUP3 ADD DUP2 SWAP1 MSTORE SWAP6 SWAP3 SWAP1 SWAP2 PUSH1 0x20 SWAP2 DUP4 SWAP2 PUSH1 0x64 SWAP2 DUP4 SWAP2 PUSH1 0x0 SWAP2 AND GAS CALL DUP1 ISZERO PUSH2 0x1786 JUMPI PUSH2 0x195A JUMPI JUMPDEST POP ISZERO PUSH2 0x1903 JUMPI PUSH2 0x18C7 SWAP3 PUSH1 0x20 SWAP3 SWAP1 SWAP2 PUSH2 0x188F SWAP1 PUSH1 0x1 PUSH1 0x1 PUSH1 0xA0 SHL SUB SWAP1 PUSH2 0x1888 SWAP1 PUSH2 0x13CC JUMP JUMPDEST AND SWAP2 PUSH2 0x13CC JUMP JUMPDEST PUSH1 0x40 MLOAD PUSH4 0xA9059CBB PUSH1 0xE0 SHL DUP2 MSTORE PUSH1 0x1 PUSH1 0x1 PUSH1 0xA0 SHL SUB SWAP1 SWAP2 AND PUSH1 0x4 DUP3 ADD MSTORE PUSH1 0x24 DUP2 ADD SWAP3 SWAP1 SWAP3 MSTORE SWAP1 SWAP3 DUP4 SWAP2 SWAP1 DUP3 SWAP1 PUSH1 0x0 SWAP1 DUP3 SWAP1 PUSH1 0x44 DUP3 ADD SWAP1 JUMP JUMPDEST SUB SWAP3 GAS CALL DUP1 ISZERO PUSH2 0x1786 JUMPI PUSH2 0x18D8 JUMPI POP JUMP JUMPDEST PUSH2 0x18F9 SWAP1 PUSH1 0x20 RETURNDATASIZE PUSH1 0x20 GT PUSH2 0x18FC JUMPI JUMPDEST PUSH2 0x18F1 DUP2 DUP4 PUSH2 0xE95 JUMP JUMPDEST DUP2 ADD SWAP1 PUSH2 0x17B5 JUMP JUMPDEST POP JUMP JUMPDEST POP RETURNDATASIZE PUSH2 0x18E7 JUMP JUMPDEST PUSH2 0x18C7 SWAP3 PUSH1 0x20 SWAP3 SWAP1 SWAP2 PUSH2 0x1922 SWAP1 PUSH1 0x1 PUSH1 0x1 PUSH1 0xA0 SHL SUB SWAP1 PUSH2 0x1888 SWAP1 PUSH2 0x13CC JUMP JUMPDEST PUSH1 0x40 MLOAD PUSH4 0x95EA7B3 PUSH1 0xE0 SHL DUP2 MSTORE PUSH1 0x1 PUSH1 0x1 PUSH1 0xA0 SHL SUB SWAP1 SWAP2 AND PUSH1 0x4 DUP3 ADD MSTORE PUSH1 0x24 DUP2 ADD SWAP3 SWAP1 SWAP3 MSTORE SWAP1 SWAP3 DUP4 SWAP2 SWAP1 DUP3 SWAP1 PUSH1 0x0 SWAP1 DUP3 SWAP1 PUSH1 0x44 DUP3 ADD SWAP1 JUMP JUMPDEST PUSH2 0x1972 SWAP1 PUSH1 0x20 RETURNDATASIZE PUSH1 0x20 GT PUSH2 0x18FC JUMPI PUSH2 0x18F1 DUP2 DUP4 PUSH2 0xE95 JUMP JUMPDEST PUSH2 0x1863 JUMP JUMPDEST PUSH2 0x1983 PUSH2 0x1989 SWAP2 PUSH2 0x13CC JUMP JUMPDEST SWAP2 PUSH2 0x13CC JUMP JUMPDEST PUSH4 0x5876E711 PUSH1 0xE0 SHL PUSH1 0x0 SWAP1 DUP2 MSTORE PUSH1 0x1 PUSH1 0x1 PUSH1 0xA0 SHL SUB SWAP3 DUP4 AND PUSH1 0x4 MSTORE SWAP2 AND PUSH1 0x24 MSTORE PUSH1 0x44 SWAP1 REVERT JUMPDEST POP POP POP POP JUMP JUMPDEST PUSH1 0x20 DUP2 ADD PUSH1 0x1 PUSH1 0x1 PUSH1 0xA0 SHL SUB PUSH2 0x19C9 DUP3 PUSH2 0x13CC JUMP JUMPDEST AND PUSH2 0x1A16 JUMPI POP PUSH1 0x0 SWAP1 DUP2 SWAP1 DUP2 SWAP1 DUP2 SWAP1 PUSH1 0x40 PUSH1 0x1 PUSH1 0x1 PUSH1 0xA0 SHL SUB PUSH2 0x19EB DUP4 PUSH2 0x13CC JUMP JUMPDEST AND SWAP2 ADD CALLDATALOAD SWAP1 DUP2 PUSH1 0xFF SAR DUP1 SWAP3 ADD SWAP2 DUP4 SWAP3 DUP2 DUP2 EQ PUSH2 0x1A0C JUMPI JUMPDEST XOR SWAP2 CALL ISZERO PUSH2 0x1786 JUMPI JUMP JUMPDEST PUSH2 0x8FC SWAP4 POP PUSH2 0x1A02 JUMP JUMPDEST PUSH1 0x20 SWAP1 PUSH1 0x0 SWAP1 PUSH1 0x1 PUSH1 0x1 PUSH1 0xA0 SHL SUB SWAP1 PUSH2 0x1A2E SWAP1 PUSH2 0x13CC JUMP JUMPDEST AND PUSH1 0x40 PUSH2 0x1A3A DUP6 PUSH2 0x13CC JUMP JUMPDEST PUSH1 0x40 MLOAD PUSH4 0xA9059CBB PUSH1 0xE0 SHL DUP2 MSTORE PUSH1 0x1 PUSH1 0x1 PUSH1 0xA0 SHL SUB SWAP1 SWAP2 AND PUSH1 0x4 DUP3 ADD MSTORE SWAP5 ADD CALLDATALOAD PUSH1 0xFF DUP2 SWAP1 SAR SWAP1 DUP2 ADD XOR PUSH1 0x24 DUP6 ADD MSTORE DUP4 SWAP2 DUP3 SWAP1 DUP2 PUSH1 0x44 DUP2 ADD PUSH2 0x18C7 JUMP JUMPDEST PUSH1 0x20 DUP2 ADD SWAP1 PUSH1 0x1 PUSH1 0x1 PUSH1 0xA0 SHL SUB PUSH2 0x1A8C DUP4 PUSH2 0x13CC JUMP JUMPDEST PUSH1 0x0 SWAP2 AND PUSH2 0x1AEA JUMPI POP PUSH2 0x1A9E DUP2 PUSH2 0x13CC JUMP JUMPDEST BALANCE JUMPDEST PUSH1 0x40 DUP3 ADD CALLDATALOAD SWAP3 DUP4 PUSH1 0xFF SAR DUP1 DUP6 ADD XOR DUP3 LT PUSH2 0x1ABA JUMPI POP POP POP POP JUMP JUMPDEST SWAP1 PUSH2 0x1AD0 PUSH2 0x1ACA PUSH2 0x180 SWAP4 PUSH2 0x13CC JUMP JUMPDEST SWAP4 PUSH2 0x13CC JUMP JUMPDEST SWAP4 PUSH1 0x40 MLOAD SWAP5 DUP6 SWAP5 PUSH4 0xD87031F9 PUSH1 0xE0 SHL DUP7 MSTORE PUSH1 0x4 DUP7 ADD PUSH2 0x1423 JUMP JUMPDEST PUSH1 0x1 PUSH1 0x1 PUSH1 0xA0 SHL SUB PUSH2 0x1AFB DUP5 PUSH2 0x13CC JUMP JUMPDEST AND PUSH1 0x20 PUSH2 0x1B07 DUP5 PUSH2 0x13CC JUMP JUMPDEST PUSH1 0x40 MLOAD PUSH4 0x70A08231 PUSH1 0xE0 SHL DUP2 MSTORE PUSH1 0x1 PUSH1 0x1 PUSH1 0xA0 SHL SUB SWAP1 SWAP2 AND PUSH1 0x4 DUP3 ADD MSTORE SWAP2 DUP3 SWAP1 PUSH1 0x24 SWAP1 DUP3 SWAP1 GAS STATICCALL SWAP2 DUP3 ISZERO PUSH2 0x1B7B JUMPI DUP1 SWAP3 PUSH2 0x1B43 JUMPI JUMPDEST POP POP PUSH2 0x1AA0 JUMP JUMPDEST SWAP1 SWAP2 POP PUSH1 0x20 DUP3 RETURNDATASIZE PUSH1 0x20 GT PUSH2 0x1B73 JUMPI JUMPDEST DUP2 PUSH2 0x1B5F PUSH1 0x20 SWAP4 DUP4 PUSH2 0xE95 JUMP JUMPDEST DUP2 ADD SUB SLT PUSH2 0x1B70 JUMPI POP MLOAD CODESIZE DUP1 PUSH2 0x1B3C JUMP JUMPDEST DUP1 REVERT JUMPDEST RETURNDATASIZE SWAP2 POP PUSH2 0x1B52 JUMP JUMPDEST PUSH1 0x40 MLOAD SWAP1 RETURNDATASIZE SWAP1 DUP3 RETURNDATACOPY RETURNDATASIZE SWAP1 REVERT JUMPDEST PUSH1 0x0 SWAP1 PUSH1 0x1 PUSH1 0x1 PUSH1 0xA0 SHL SUB AND DUP1 PUSH2 0x1B9E JUMPI POP POP BALANCE SWAP1 JUMP JUMPDEST PUSH1 0x40 MLOAD PUSH4 0x70A08231 PUSH1 0xE0 SHL DUP2 MSTORE PUSH1 0x1 PUSH1 0x1 PUSH1 0xA0 SHL SUB SWAP1 SWAP4 AND PUSH1 0x4 DUP5 ADD MSTORE SWAP1 SWAP2 SWAP1 PUSH1 0x20 SWAP1 DUP3 SWAP1 PUSH1 0x24 SWAP1 DUP3 SWAP1 GAS STATICCALL SWAP2 DUP3 ISZERO PUSH2 0x1B7B JUMPI DUP1 SWAP3 PUSH2 0x1BDC JUMPI POP POP SWAP1 JUMP JUMPDEST SWAP1 SWAP2 POP PUSH1 0x20 DUP3 RETURNDATASIZE PUSH1 0x20 GT PUSH2 0x1C05 JUMPI JUMPDEST DUP2 PUSH2 0x1BF8 PUSH1 0x20 SWAP4 DUP4 PUSH2 0xE95 JUMP JUMPDEST DUP2 ADD SUB SLT PUSH2 0x1B70 JUMPI POP MLOAD SWAP1 JUMP JUMPDEST RETURNDATASIZE SWAP2 POP PUSH2 0x1BEB JUMP JUMPDEST SWAP1 PUSH1 0x4 DUP2 MLOAD LT PUSH2 0x14BA JUMPI PUSH1 0x20 ADD MLOAD PUSH1 0x1 PUSH1 0x1 PUSH1 0xE0 SHL SUB NOT AND SWAP1 PUSH4 0x23B872DD PUSH1 0xE0 SHL DUP3 EQ PUSH2 0x149B JUMPI POP POP JUMP JUMPDEST PUSH1 0x20 DUP2 ADD DUP1 MLOAD SWAP1 SWAP4 SWAP3 SWAP1 PUSH1 0x1 PUSH1 0x1 PUSH1 0xA0 SHL SUB AND DUP1 ISZERO PUSH2 0x1D89 JUMPI DUP3 MLOAD PUSH1 0x1 PUSH1 0x1 PUSH1 0xA0 SHL SUB SWAP1 DUP2 AND SWAP3 AND DUP3 SUB PUSH2 0x1D72 JUMPI POP POP DUP3 MLOAD PUSH1 0x40 DUP3 DUP2 ADD DUP1 MLOAD SWAP2 MLOAD PUSH4 0x23B872DD PUSH1 0xE0 SHL DUP2 MSTORE CALLER PUSH1 0x4 DUP3 ADD MSTORE ADDRESS PUSH1 0x24 DUP3 ADD MSTORE PUSH1 0xFF DUP4 SWAP1 SAR SWAP3 DUP4 ADD SWAP1 SWAP3 XOR PUSH1 0x44 DUP4 ADD MSTORE SWAP5 SWAP1 SWAP4 SWAP3 SWAP2 PUSH1 0x20 SWAP1 DUP6 SWAP1 PUSH1 0x64 SWAP1 DUP3 SWAP1 PUSH1 0x0 SWAP1 PUSH1 0x1 PUSH1 0x1 PUSH1 0xA0 SHL SUB AND GAS CALL SWAP3 DUP4 ISZERO PUSH2 0x1786 JUMPI PUSH1 0x20 SWAP5 PUSH1 0x0 SWAP5 PUSH2 0x1D57 JUMPI JUMPDEST POP DUP4 EQ PUSH2 0x1D13 JUMPI MLOAD SWAP1 MLOAD SWAP4 MLOAD PUSH1 0x40 MLOAD PUSH4 0xA9059CBB PUSH1 0xE0 SHL DUP2 MSTORE PUSH1 0x1 PUSH1 0x1 PUSH1 0xA0 SHL SUB SWAP6 DUP7 AND PUSH1 0x4 DUP3 ADD MSTORE PUSH1 0xFF DUP3 SWAP1 SAR SWAP2 DUP3 ADD SWAP1 SWAP2 XOR PUSH1 0x24 DUP3 ADD MSTORE SWAP4 DUP5 SWAP3 SWAP2 AND SWAP1 DUP3 SWAP1 DUP2 PUSH1 0x44 DUP2 ADD PUSH2 0x18C7 JUMP JUMPDEST MLOAD SWAP1 MLOAD SWAP4 MLOAD PUSH1 0x40 MLOAD PUSH4 0x95EA7B3 PUSH1 0xE0 SHL DUP2 MSTORE PUSH1 0x1 PUSH1 0x1 PUSH1 0xA0 SHL SUB SWAP6 DUP7 AND PUSH1 0x4 DUP3 ADD MSTORE PUSH1 0xFF DUP3 SWAP1 SAR SWAP2 DUP3 ADD SWAP1 SWAP2 XOR PUSH1 0x24 DUP3 ADD MSTORE SWAP4 DUP5 SWAP3 SWAP2 AND SWAP1 DUP3 SWAP1 DUP2 PUSH1 0x44 DUP2 ADD PUSH2 0x18C7 JUMP JUMPDEST PUSH2 0x1D6D SWAP1 DUP7 RETURNDATASIZE DUP9 GT PUSH2 0x18FC JUMPI PUSH2 0x18F1 DUP2 DUP4 PUSH2 0xE95 JUMP JUMPDEST PUSH2 0x1CC8 JUMP JUMPDEST PUSH4 0x5876E711 PUSH1 0xE0 SHL PUSH1 0x0 MSTORE PUSH1 0x4 MSTORE PUSH1 0x24 MSTORE PUSH1 0x44 PUSH1 0x0 REVERT JUMPDEST POP POP POP POP POP JUMP JUMPDEST PUSH1 0x20 DUP2 ADD MLOAD PUSH1 0x1 PUSH1 0x1 PUSH1 0xA0 SHL SUB AND DUP1 PUSH2 0x1DD5 JUMPI POP PUSH1 0x0 DUP1 DUP1 DUP1 SWAP4 PUSH1 0x40 PUSH1 0x1 DUP1 PUSH1 0xA0 SHL SUB DUP3 MLOAD AND SWAP2 ADD MLOAD SWAP1 DUP2 PUSH1 0xFF SAR DUP1 SWAP3 ADD SWAP2 DUP4 SWAP3 DUP2 DUP2 EQ PUSH2 0x1A0C JUMPI XOR SWAP2 CALL ISZERO PUSH2 0x1786 JUMPI JUMP JUMPDEST DUP2 MLOAD PUSH1 0x40 SWAP3 DUP4 ADD MLOAD SWAP3 MLOAD PUSH4 0xA9059CBB PUSH1 0xE0 SHL DUP2 MSTORE PUSH1 0x1 PUSH1 0x1 PUSH1 0xA0 SHL SUB SWAP1 SWAP2 AND PUSH1 0x4 DUP3 ADD MSTORE PUSH1 0xFF DUP4 SWAP1 SAR SWAP3 DUP4 ADD SWAP1 SWAP3 XOR PUSH1 0x24 DUP4 ADD MSTORE PUSH1 0x20 SWAP1 DUP3 SWAP1 DUP2 PUSH1 0x0 DUP2 PUSH1 0x44 DUP2 ADD PUSH2 0x18C7 JUMP JUMPDEST PUSH1 0x20 DUP2 MLOAD SWAP2 ADD MLOAD SWAP1 PUSH1 0x20 DUP2 LT PUSH2 0x1E2F JUMPI POP SWAP1 JUMP JUMPDEST PUSH1 0x0 NOT SWAP1 PUSH1 0x20 SUB PUSH1 0x3 SHL SHL AND SWAP1 JUMP JUMPDEST DUP1 MLOAD PUSH1 0x20 ADD MLOAD PUSH1 0x1 PUSH1 0x1 PUSH1 0xA0 SHL SUB AND DUP1 PUSH2 0x1F2C JUMPI POP PUSH2 0x1E5B PUSH2 0x1535 JUMP JUMPDEST PUSH1 0x12 JUMPDEST PUSH2 0x1E80 PUSH1 0x40 MLOAD PUSH2 0x1E7B PUSH1 0x20 DUP3 DUP7 MLOAD PUSH2 0x15DB DUP2 DUP5 DUP5 ADD DUP6 DUP12 ADD PUSH2 0xD25 JUMP JUMPDEST PUSH2 0x1E1B JUMP JUMPDEST SWAP2 PUSH1 0x20 DUP5 ADD SWAP3 PUSH2 0x1EA7 DUP5 MLOAD PUSH2 0x1E7B PUSH1 0x20 PUSH1 0x40 MLOAD DUP4 PUSH2 0x15DB DUP3 SWAP6 MLOAD DUP1 SWAP3 DUP6 DUP1 DUP7 ADD SWAP2 ADD PUSH2 0xD25 JUMP JUMPDEST EQ DUP1 ISZERO SWAP1 PUSH2 0x1F18 JUMPI JUMPDEST PUSH2 0x1EBA JUMPI POP POP POP POP JUMP JUMPDEST PUSH2 0x16B8 PUSH1 0xFF SWAP2 DUP3 PUSH1 0x40 PUSH1 0x1 DUP1 PUSH1 0xA0 SHL SUB PUSH1 0x20 DUP10 MLOAD ADD MLOAD AND SWAP7 MLOAD SWAP8 ADD MLOAD AND SWAP1 PUSH2 0x1F01 PUSH1 0x40 MLOAD SWAP8 DUP9 SWAP8 PUSH4 0x55918519 PUSH1 0xE0 SHL DUP10 MSTORE PUSH1 0x4 DUP10 ADD MSTORE PUSH1 0xA0 PUSH1 0x24 DUP10 ADD MSTORE PUSH1 0xA4 DUP9 ADD SWAP1 PUSH2 0xD48 JUMP JUMPDEST SWAP2 PUSH1 0x44 DUP8 ADD MSTORE PUSH1 0x3 NOT DUP7 DUP4 SUB ADD PUSH1 0x64 DUP8 ADD MSTORE PUSH2 0xD48 JUMP JUMPDEST POP PUSH1 0xFF PUSH1 0x40 DUP6 ADD MLOAD AND PUSH1 0xFF DUP4 AND EQ ISZERO PUSH2 0x1EB0 JUMP JUMPDEST PUSH1 0x0 PUSH1 0x4 SWAP2 PUSH1 0x40 MLOAD SWAP3 DUP4 DUP1 SWAP3 PUSH4 0x95D89B41 PUSH1 0xE0 SHL DUP3 MSTORE GAS STATICCALL SWAP1 DUP2 ISZERO PUSH2 0x1786 JUMPI PUSH1 0x0 SWAP2 PUSH2 0x1FB1 JUMPI JUMPDEST POP DUP2 MLOAD PUSH1 0x20 SWAP1 DUP2 ADD MLOAD PUSH1 0x40 MLOAD PUSH4 0x313CE567 PUSH1 0xE0 SHL DUP2 MSTORE SWAP2 SWAP1 DUP3 SWAP1 PUSH1 0x4 SWAP1 DUP3 SWAP1 PUSH1 0x1 PUSH1 0x1 PUSH1 0xA0 SHL SUB AND GAS STATICCALL SWAP1 DUP2 ISZERO PUSH2 0x1786 JUMPI PUSH1 0x0 SWAP2 PUSH2 0x1F92 JUMPI JUMPDEST POP PUSH2 0x1E5E JUMP JUMPDEST PUSH2 0x1FAB SWAP2 POP PUSH1 0x20 RETURNDATASIZE PUSH1 0x20 GT PUSH2 0x177F JUMPI PUSH2 0x1771 DUP2 DUP4 PUSH2 0xE95 JUMP JUMPDEST CODESIZE PUSH2 0x1F8C JUMP JUMPDEST PUSH2 0x1FC6 SWAP2 POP RETURNDATASIZE DUP1 PUSH1 0x0 DUP4 RETURNDATACOPY PUSH2 0x17A7 DUP2 DUP4 PUSH2 0xE95 JUMP JUMPDEST CODESIZE PUSH2 0x1F53 JUMP JUMPDEST PUSH1 0x20 DUP2 ADD DUP1 MLOAD SWAP1 SWAP2 SWAP1 PUSH1 0x0 SWAP1 PUSH1 0x1 PUSH1 0x1 PUSH1 0xA0 SHL SUB AND DUP1 PUSH2 0x203D JUMPI POP POP DUP1 MLOAD PUSH1 0x1 PUSH1 0x1 PUSH1 0xA0 SHL SUB AND BALANCE JUMPDEST PUSH1 0x40 DUP3 ADD MLOAD SWAP3 DUP4 PUSH1 0xFF SAR DUP1 DUP6 ADD XOR DUP3 LT PUSH2 0x200F JUMPI POP POP POP POP JUMP JUMPDEST MLOAD SWAP2 MLOAD PUSH1 0x40 MLOAD PUSH4 0xD87031F9 PUSH1 0xE0 SHL DUP2 MSTORE SWAP4 DUP5 SWAP4 PUSH2 0x180 SWAP4 SWAP3 PUSH1 0x1 PUSH1 0x1 PUSH1 0xA0 SHL SUB SWAP1 DUP2 AND SWAP2 AND PUSH1 0x4 DUP7 ADD PUSH2 0x1423 JUMP JUMPDEST PUSH1 0x20 PUSH1 0x1 DUP1 PUSH1 0xA0 SHL SUB DUP5 MLOAD AND PUSH1 0x24 PUSH1 0x40 MLOAD DUP1 SWAP5 DUP2 SWAP4 PUSH4 0x70A08231 PUSH1 0xE0 SHL DUP4 MSTORE PUSH1 0x4 DUP4 ADD MSTORE GAS STATICCALL SWAP2 DUP3 ISZERO PUSH2 0x1B7B JUMPI DUP1 SWAP3 PUSH2 0x2078 JUMPI JUMPDEST POP POP PUSH2 0x1FF5 JUMP JUMPDEST SWAP1 SWAP2 POP PUSH1 0x20 DUP3 RETURNDATASIZE PUSH1 0x20 GT PUSH2 0x20A5 JUMPI JUMPDEST DUP2 PUSH2 0x2094 PUSH1 0x20 SWAP4 DUP4 PUSH2 0xE95 JUMP JUMPDEST DUP2 ADD SUB SLT PUSH2 0x1B70 JUMPI POP MLOAD CODESIZE DUP1 PUSH2 0x2071 JUMP JUMPDEST RETURNDATASIZE SWAP2 POP PUSH2 0x2087 JUMP INVALID LOG2 PUSH5 0x6970667358 0x22 SLT KECCAK256 REVERT 0x2D 0xD0 DUP10 0x4D SWAP4 0xDC 0xB4 PUSH1 0x5F SWAP3 CODESIZE JUMP SWAP3 0xBE 0x4E DUP12 DELEGATECALL PUSH13 0x5D79A9C6AF4DBCD3161D601E94 PUSH5 0x736F6C6343 STOP ADDMOD SHL STOP CALLER "
        },
        "methodIdentifiers": {
          "proxyCall((address,address,int256)[],(address,address,int256)[],bool[],address,bytes,(address,address,int256)[])": "fbab98fa",
          "proxyCallCalldata((address,address,int256)[],(address,address,int256)[],bool[],address,bytes,(address,address,int256)[])": "4cbcaad5",
          "proxyCallCalldataDiffs((address,address,int256)[],(address,address,int256)[],bool[],address,bytes,(address,address,int256)[])": "5636b283",
          "proxyCallDiffs((address,address,int256)[],(address,address,int256)[],bool[],address,bytes,(address,address,int256)[])": "56fecb92",
          "proxyCallMetadata(((address,address,int256),string,uint8)[],((address,address,int256),string,uint8)[],bool[],address,bytes,((address,address,int256),string,uint8)[])": "617ac6db",
          "proxyCallMetadataCalldata(((address,address,int256),string,uint8)[],((address,address,int256),string,uint8)[],bool[],address,bytes,((address,address,int256),string,uint8)[])": "0955b472",
          "proxyCallMetadataCalldataDiffs(((address,address,int256),string,uint8)[],((address,address,int256),string,uint8)[],bool[],address,bytes,((address,address,int256),string,uint8)[])": "ec6c8606",
          "proxyCallMetadataDiffs(((address,address,int256),string,uint8)[],((address,address,int256),string,uint8)[],bool[],address,bytes,((address,address,int256),string,uint8)[])": "8af12e87"
        }
      },
      "userdoc": {
        "errors": {
          "CallFailed(address,bytes,bytes)": [
            {
              "notice": "Error thrown when a call fails"
            }
          ],
          "DangerousTokenCall(address,bytes4)": [
            {
              "notice": "Error thrown when trying to call a dangerous token function on a token from approvals"
            }
          ],
          "InsufficientBalance(address,address,int256,uint256)": [
            {
              "notice": "Error thrown when a balance is insufficient"
            }
          ],
          "InvalidMetadata(address,string,uint8,string,uint8)": [
            {
              "notice": "Error thrown when metadata is invalid"
            }
          ],
          "InvalidTransferFlagsLength(uint256,uint256)": [
            {
              "notice": "Error thrown when useTransferFlags length does not match approvals length"
            }
          ],
          "MaliciousApproveTarget(address,address)": [
            {
              "notice": "Error thrown when trying to approve tokens to an address other than callTarget"
            }
          ],
          "UnexpectedBalanceDiff(address,address,int256,int256)": [
            {
              "notice": "Error when actual diff != expected"
            }
          ]
        },
        "kind": "user",
        "methods": {
          "proxyCall((address,address,int256)[],(address,address,int256)[],bool[],address,bytes,(address,address,int256)[])": {
            "notice": "Proxy call to a target contract with specified balances and approvals"
          },
          "proxyCallCalldata((address,address,int256)[],(address,address,int256)[],bool[],address,bytes,(address,address,int256)[])": {
            "notice": "Calldata version of proxy call to a target contract with specified balances and approvals"
          },
          "proxyCallCalldataDiffs((address,address,int256)[],(address,address,int256)[],bool[],address,bytes,(address,address,int256)[])": {
            "notice": "Calldata version of proxy call to a target contract with specified balances and approvals"
          },
          "proxyCallDiffs((address,address,int256)[],(address,address,int256)[],bool[],address,bytes,(address,address,int256)[])": {
            "notice": "Proxy call to a target contract with specified balances and approvals"
          },
          "proxyCallMetadata(((address,address,int256),string,uint8)[],((address,address,int256),string,uint8)[],bool[],address,bytes,((address,address,int256),string,uint8)[])": {
            "notice": "Proxy call to a target contract with specified balances and approvals"
          },
          "proxyCallMetadataCalldata(((address,address,int256),string,uint8)[],((address,address,int256),string,uint8)[],bool[],address,bytes,((address,address,int256),string,uint8)[])": {
            "notice": "Calldata version of proxy call to a target contract with specified balances and approvals"
          },
          "proxyCallMetadataCalldataDiffs(((address,address,int256),string,uint8)[],((address,address,int256),string,uint8)[],bool[],address,bytes,((address,address,int256),string,uint8)[])": {
            "notice": "Calldata version of proxy call to a target contract with specified balances and approvals"
          },
          "proxyCallMetadataDiffs(((address,address,int256),string,uint8)[],((address,address,int256),string,uint8)[],bool[],address,bytes,((address,address,int256),string,uint8)[])": {
            "notice": "Proxy call to a target contract with specified balances and approvals"
          }
        },
        "notice": "Proxy contract for calling contracts with specified balances and approvals",
        "version": 1
      }
    }
  }
}