{
  "_format": "hh-sol-artifact-1",
  "contractName": "BalanceProxy",
  "sourceName": "contracts/BalanceProxy.sol",
  "abi": [
    {
      "inputs": [
        {
          "internalType": "address",
          "name": "target",
          "type": "address"
        },
        {
          "internalType": "bytes",
          "name": "data",
          "type": "bytes"
        },
        {
          "internalType": "bytes",
          "name": "returnData",
          "type": "bytes"
        }
      ],
      "name": "CallFailed",
      "type": "error"
    },
    {
      "inputs": [
        {
          "internalType": "address",
          "name": "target",
          "type": "address"
        },
        {
          "internalType": "bytes4",
          "name": "selector",
          "type": "bytes4"
        }
      ],
      "name": "DangerousTokenCall",
      "type": "error"
    },
    {
      "inputs": [
        {
          "internalType": "address",
          "name": "token",
          "type": "address"
        },
        {
          "internalType": "address",
          "name": "target",
          "type": "address"
        },
        {
          "internalType": "int256",
          "name": "balance",
          "type": "int256"
        },
        {
          "internalType": "uint256",
          "name": "actual",
          "type": "uint256"
        }
      ],
      "name": "InsufficientBalance",
      "type": "error"
    },
    {
      "inputs": [
        {
          "internalType": "address",
          "name": "token",
          "type": "address"
        },
        {
          "internalType": "string",
          "name": "expectedSymbol",
          "type": "string"
        },
        {
          "internalType": "uint8",
          "name": "expectedDecimals",
          "type": "uint8"
        },
        {
          "internalType": "string",
          "name": "actualSymbol",
          "type": "string"
        },
        {
          "internalType": "uint8",
          "name": "actualDecimals",
          "type": "uint8"
        }
      ],
      "name": "InvalidMetadata",
      "type": "error"
    },
    {
      "inputs": [
        {
          "internalType": "uint256",
          "name": "flagsLength",
          "type": "uint256"
        },
        {
          "internalType": "uint256",
          "name": "approvalsLength",
          "type": "uint256"
        }
      ],
      "name": "InvalidTransferFlagsLength",
      "type": "error"
    },
    {
      "inputs": [
        {
          "internalType": "address",
          "name": "token",
          "type": "address"
        },
        {
          "internalType": "address",
          "name": "target",
          "type": "address"
        }
      ],
      "name": "MaliciousApproveTarget",
      "type": "error"
    },
    {
      "inputs": [
        {
          "internalType": "address",
          "name": "token",
          "type": "address"
        },
        {
          "internalType": "address",
          "name": "target",
          "type": "address"
        },
        {
          "internalType": "int256",
          "name": "expected",
          "type": "int256"
        },
        {
          "internalType": "int256",
          "name": "actual",
          "type": "int256"
        }
      ],
      "name": "UnexpectedBalanceDiff",
      "type": "error"
    },
    {
      "inputs": [
        {
          "components": [
            {
              "internalType": "address",
              "name": "target",
              "type": "address"
            },
            {
              "internalType": "address",
              "name": "token",
              "type": "address"
            },
            {
              "internalType": "int256",
              "name": "balance",
              "type": "int256"
            }
          ],
          "internalType": "struct IBalanceProxy.Balance[]",
          "name": "postBalances",
          "type": "tuple[]"
        },
        {
          "components": [
            {
              "internalType": "address",
              "name": "target",
              "type": "address"
            },
            {
              "internalType": "address",
              "name": "token",
              "type": "address"
            },
            {
              "internalType": "int256",
              "name": "balance",
              "type": "int256"
            }
          ],
          "internalType": "struct IBalanceProxy.Balance[]",
          "name": "approvals",
          "type": "tuple[]"
        },
        {
          "internalType": "bool[]",
          "name": "useTransferFlags",
          "type": "bool[]"
        },
        {
          "internalType": "address",
          "name": "target",
          "type": "address"
        },
        {
          "internalType": "bytes",
          "name": "data",
          "type": "bytes"
        },
        {
          "components": [
            {
              "internalType": "address",
              "name": "target",
              "type": "address"
            },
            {
              "internalType": "address",
              "name": "token",
              "type": "address"
            },
            {
              "internalType": "int256",
              "name": "balance",
              "type": "int256"
            }
          ],
          "internalType": "struct IBalanceProxy.Balance[]",
          "name": "withdrawals",
          "type": "tuple[]"
        }
      ],
      "name": "proxyCall",
      "outputs": [
        {
          "internalType": "bytes",
          "name": "",
          "type": "bytes"
        }
      ],
      "stateMutability": "payable",
      "type": "function"
    },
    {
      "inputs": [
        {
          "components": [
            {
              "internalType": "address",
              "name": "target",
              "type": "address"
            },
            {
              "internalType": "address",
              "name": "token",
              "type": "address"
            },
            {
              "internalType": "int256",
              "name": "balance",
              "type": "int256"
            }
          ],
          "internalType": "struct IBalanceProxy.Balance[]",
          "name": "postBalances",
          "type": "tuple[]"
        },
        {
          "components": [
            {
              "internalType": "address",
              "name": "target",
              "type": "address"
            },
            {
              "internalType": "address",
              "name": "token",
              "type": "address"
            },
            {
              "internalType": "int256",
              "name": "balance",
              "type": "int256"
            }
          ],
          "internalType": "struct IBalanceProxy.Balance[]",
          "name": "approvals",
          "type": "tuple[]"
        },
        {
          "internalType": "bool[]",
          "name": "useTransferFlags",
          "type": "bool[]"
        },
        {
          "internalType": "address",
          "name": "target",
          "type": "address"
        },
        {
          "internalType": "bytes",
          "name": "data",
          "type": "bytes"
        },
        {
          "components": [
            {
              "internalType": "address",
              "name": "target",
              "type": "address"
            },
            {
              "internalType": "address",
              "name": "token",
              "type": "address"
            },
            {
              "internalType": "int256",
              "name": "balance",
              "type": "int256"
            }
          ],
          "internalType": "struct IBalanceProxy.Balance[]",
          "name": "withdrawals",
          "type": "tuple[]"
        }
      ],
      "name": "proxyCallCalldata",
      "outputs": [
        {
          "internalType": "bytes",
          "name": "",
          "type": "bytes"
        }
      ],
      "stateMutability": "payable",
      "type": "function"
    },
    {
      "inputs": [
        {
          "components": [
            {
              "internalType": "address",
              "name": "target",
              "type": "address"
            },
            {
              "internalType": "address",
              "name": "token",
              "type": "address"
            },
            {
              "internalType": "int256",
              "name": "balance",
              "type": "int256"
            }
          ],
          "internalType": "struct IBalanceProxy.Balance[]",
          "name": "diffs",
          "type": "tuple[]"
        },
        {
          "components": [
            {
              "internalType": "address",
              "name": "target",
              "type": "address"
            },
            {
              "internalType": "address",
              "name": "token",
              "type": "address"
            },
            {
              "internalType": "int256",
              "name": "balance",
              "type": "int256"
            }
          ],
          "internalType": "struct IBalanceProxy.Balance[]",
          "name": "approvals",
          "type": "tuple[]"
        },
        {
          "internalType": "bool[]",
          "name": "useTransferFlags",
          "type": "bool[]"
        },
        {
          "internalType": "address",
          "name": "target",
          "type": "address"
        },
        {
          "internalType": "bytes",
          "name": "data",
          "type": "bytes"
        },
        {
          "components": [
            {
              "internalType": "address",
              "name": "target",
              "type": "address"
            },
            {
              "internalType": "address",
              "name": "token",
              "type": "address"
            },
            {
              "internalType": "int256",
              "name": "balance",
              "type": "int256"
            }
          ],
          "internalType": "struct IBalanceProxy.Balance[]",
          "name": "withdrawals",
          "type": "tuple[]"
        }
      ],
      "name": "proxyCallCalldataDiffs",
      "outputs": [
        {
          "internalType": "bytes",
          "name": "",
          "type": "bytes"
        }
      ],
      "stateMutability": "payable",
      "type": "function"
    },
    {
      "inputs": [
        {
          "components": [
            {
              "internalType": "address",
              "name": "target",
              "type": "address"
            },
            {
              "internalType": "address",
              "name": "token",
              "type": "address"
            },
            {
              "internalType": "int256",
              "name": "balance",
              "type": "int256"
            }
          ],
          "internalType": "struct IBalanceProxy.Balance[]",
          "name": "diffs",
          "type": "tuple[]"
        },
        {
          "components": [
            {
              "internalType": "address",
              "name": "target",
              "type": "address"
            },
            {
              "internalType": "address",
              "name": "token",
              "type": "address"
            },
            {
              "internalType": "int256",
              "name": "balance",
              "type": "int256"
            }
          ],
          "internalType": "struct IBalanceProxy.Balance[]",
          "name": "approvals",
          "type": "tuple[]"
        },
        {
          "internalType": "bool[]",
          "name": "useTransferFlags",
          "type": "bool[]"
        },
        {
          "internalType": "address",
          "name": "target",
          "type": "address"
        },
        {
          "internalType": "bytes",
          "name": "data",
          "type": "bytes"
        },
        {
          "components": [
            {
              "internalType": "address",
              "name": "target",
              "type": "address"
            },
            {
              "internalType": "address",
              "name": "token",
              "type": "address"
            },
            {
              "internalType": "int256",
              "name": "balance",
              "type": "int256"
            }
          ],
          "internalType": "struct IBalanceProxy.Balance[]",
          "name": "withdrawals",
          "type": "tuple[]"
        }
      ],
      "name": "proxyCallDiffs",
      "outputs": [
        {
          "internalType": "bytes",
          "name": "",
          "type": "bytes"
        }
      ],
      "stateMutability": "payable",
      "type": "function"
    },
    {
      "inputs": [
        {
          "components": [
            {
              "components": [
                {
                  "internalType": "address",
                  "name": "target",
                  "type": "address"
                },
                {
                  "internalType": "address",
                  "name": "token",
                  "type": "address"
                },
                {
                  "internalType": "int256",
                  "name": "balance",
                  "type": "int256"
                }
              ],
              "internalType": "struct IBalanceProxy.Balance",
              "name": "balance",
              "type": "tuple"
            },
            {
              "internalType": "string",
              "name": "symbol",
              "type": "string"
            },
            {
              "internalType": "uint8",
              "name": "decimals",
              "type": "uint8"
            }
          ],
          "internalType": "struct IBalanceProxy.BalanceMetadata[]",
          "name": "postBalances",
          "type": "tuple[]"
        },
        {
          "components": [
            {
              "components": [
                {
                  "internalType": "address",
                  "name": "target",
                  "type": "address"
                },
                {
                  "internalType": "address",
                  "name": "token",
                  "type": "address"
                },
                {
                  "internalType": "int256",
                  "name": "balance",
                  "type": "int256"
                }
              ],
              "internalType": "struct IBalanceProxy.Balance",
              "name": "balance",
              "type": "tuple"
            },
            {
              "internalType": "string",
              "name": "symbol",
              "type": "string"
            },
            {
              "internalType": "uint8",
              "name": "decimals",
              "type": "uint8"
            }
          ],
          "internalType": "struct IBalanceProxy.BalanceMetadata[]",
          "name": "approvals",
          "type": "tuple[]"
        },
        {
          "internalType": "bool[]",
          "name": "useTransferFlags",
          "type": "bool[]"
        },
        {
          "internalType": "address",
          "name": "target",
          "type": "address"
        },
        {
          "internalType": "bytes",
          "name": "data",
          "type": "bytes"
        },
        {
          "components": [
            {
              "components": [
                {
                  "internalType": "address",
                  "name": "target",
                  "type": "address"
                },
                {
                  "internalType": "address",
                  "name": "token",
                  "type": "address"
                },
                {
                  "internalType": "int256",
                  "name": "balance",
                  "type": "int256"
                }
              ],
              "internalType": "struct IBalanceProxy.Balance",
              "name": "balance",
              "type": "tuple"
            },
            {
              "internalType": "string",
              "name": "symbol",
              "type": "string"
            },
            {
              "internalType": "uint8",
              "name": "decimals",
              "type": "uint8"
            }
          ],
          "internalType": "struct IBalanceProxy.BalanceMetadata[]",
          "name": "withdrawals",
          "type": "tuple[]"
        }
      ],
      "name": "proxyCallMetadata",
      "outputs": [
        {
          "internalType": "bytes",
          "name": "",
          "type": "bytes"
        }
      ],
      "stateMutability": "payable",
      "type": "function"
    },
    {
      "inputs": [
        {
          "components": [
            {
              "components": [
                {
                  "internalType": "address",
                  "name": "target",
                  "type": "address"
                },
                {
                  "internalType": "address",
                  "name": "token",
                  "type": "address"
                },
                {
                  "internalType": "int256",
                  "name": "balance",
                  "type": "int256"
                }
              ],
              "internalType": "struct IBalanceProxy.Balance",
              "name": "balance",
              "type": "tuple"
            },
            {
              "internalType": "string",
              "name": "symbol",
              "type": "string"
            },
            {
              "internalType": "uint8",
              "name": "decimals",
              "type": "uint8"
            }
          ],
          "internalType": "struct IBalanceProxy.BalanceMetadata[]",
          "name": "postBalances",
          "type": "tuple[]"
        },
        {
          "components": [
            {
              "components": [
                {
                  "internalType": "address",
                  "name": "target",
                  "type": "address"
                },
                {
                  "internalType": "address",
                  "name": "token",
                  "type": "address"
                },
                {
                  "internalType": "int256",
                  "name": "balance",
                  "type": "int256"
                }
              ],
              "internalType": "struct IBalanceProxy.Balance",
              "name": "balance",
              "type": "tuple"
            },
            {
              "internalType": "string",
              "name": "symbol",
              "type": "string"
            },
            {
              "internalType": "uint8",
              "name": "decimals",
              "type": "uint8"
            }
          ],
          "internalType": "struct IBalanceProxy.BalanceMetadata[]",
          "name": "approvals",
          "type": "tuple[]"
        },
        {
          "internalType": "bool[]",
          "name": "useTransferFlags",
          "type": "bool[]"
        },
        {
          "internalType": "address",
          "name": "target",
          "type": "address"
        },
        {
          "internalType": "bytes",
          "name": "data",
          "type": "bytes"
        },
        {
          "components": [
            {
              "components": [
                {
                  "internalType": "address",
                  "name": "target",
                  "type": "address"
                },
                {
                  "internalType": "address",
                  "name": "token",
                  "type": "address"
                },
                {
                  "internalType": "int256",
                  "name": "balance",
                  "type": "int256"
                }
              ],
              "internalType": "struct IBalanceProxy.Balance",
              "name": "balance",
              "type": "tuple"
            },
            {
              "internalType": "string",
              "name": "symbol",
              "type": "string"
            },
            {
              "internalType": "uint8",
              "name": "decimals",
              "type": "uint8"
            }
          ],
          "internalType": "struct IBalanceProxy.BalanceMetadata[]",
          "name": "withdrawals",
          "type": "tuple[]"
        }
      ],
      "name": "proxyCallMetadataCalldata",
      "outputs": [
        {
          "internalType": "bytes",
          "name": "",
          "type": "bytes"
        }
      ],
      "stateMutability": "payable",
      "type": "function"
    },
    {
      "inputs": [
        {
          "components": [
            {
              "components": [
                {
                  "internalType": "address",
                  "name": "target",
                  "type": "address"
                },
                {
                  "internalType": "address",
                  "name": "token",
                  "type": "address"
                },
                {
                  "internalType": "int256",
                  "name": "balance",
                  "type": "int256"
                }
              ],
              "internalType": "struct IBalanceProxy.Balance",
              "name": "balance",
              "type": "tuple"
            },
            {
              "internalType": "string",
              "name": "symbol",
              "type": "string"
            },
            {
              "internalType": "uint8",
              "name": "decimals",
              "type": "uint8"
            }
          ],
          "internalType": "struct IBalanceProxy.BalanceMetadata[]",
          "name": "diffs",
          "type": "tuple[]"
        },
        {
          "components": [
            {
              "components": [
                {
                  "internalType": "address",
                  "name": "target",
                  "type": "address"
                },
                {
                  "internalType": "address",
                  "name": "token",
                  "type": "address"
                },
                {
                  "internalType": "int256",
                  "name": "balance",
                  "type": "int256"
                }
              ],
              "internalType": "struct IBalanceProxy.Balance",
              "name": "balance",
              "type": "tuple"
            },
            {
              "internalType": "string",
              "name": "symbol",
              "type": "string"
            },
            {
              "internalType": "uint8",
              "name": "decimals",
              "type": "uint8"
            }
          ],
          "internalType": "struct IBalanceProxy.BalanceMetadata[]",
          "name": "approvals",
          "type": "tuple[]"
        },
        {
          "internalType": "bool[]",
          "name": "useTransferFlags",
          "type": "bool[]"
        },
        {
          "internalType": "address",
          "name": "target",
          "type": "address"
        },
        {
          "internalType": "bytes",
          "name": "data",
          "type": "bytes"
        },
        {
          "components": [
            {
              "components": [
                {
                  "internalType": "address",
                  "name": "target",
                  "type": "address"
                },
                {
                  "internalType": "address",
                  "name": "token",
                  "type": "address"
                },
                {
                  "internalType": "int256",
                  "name": "balance",
                  "type": "int256"
                }
              ],
              "internalType": "struct IBalanceProxy.Balance",
              "name": "balance",
              "type": "tuple"
            },
            {
              "internalType": "string",
              "name": "symbol",
              "type": "string"
            },
            {
              "internalType": "uint8",
              "name": "decimals",
              "type": "uint8"
            }
          ],
          "internalType": "struct IBalanceProxy.BalanceMetadata[]",
          "name": "withdrawals",
          "type": "tuple[]"
        }
      ],
      "name": "proxyCallMetadataCalldataDiffs",
      "outputs": [
        {
          "internalType": "bytes",
          "name": "",
          "type": "bytes"
        }
      ],
      "stateMutability": "payable",
      "type": "function"
    },
    {
      "inputs": [
        {
          "components": [
            {
              "components": [
                {
                  "internalType": "address",
                  "name": "target",
                  "type": "address"
                },
                {
                  "internalType": "address",
                  "name": "token",
                  "type": "address"
                },
                {
                  "internalType": "int256",
                  "name": "balance",
                  "type": "int256"
                }
              ],
              "internalType": "struct IBalanceProxy.Balance",
              "name": "balance",
              "type": "tuple"
            },
            {
              "internalType": "string",
              "name": "symbol",
              "type": "string"
            },
            {
              "internalType": "uint8",
              "name": "decimals",
              "type": "uint8"
            }
          ],
          "internalType": "struct IBalanceProxy.BalanceMetadata[]",
          "name": "diffs",
          "type": "tuple[]"
        },
        {
          "components": [
            {
              "components": [
                {
                  "internalType": "address",
                  "name": "target",
                  "type": "address"
                },
                {
                  "internalType": "address",
                  "name": "token",
                  "type": "address"
                },
                {
                  "internalType": "int256",
                  "name": "balance",
                  "type": "int256"
                }
              ],
              "internalType": "struct IBalanceProxy.Balance",
              "name": "balance",
              "type": "tuple"
            },
            {
              "internalType": "string",
              "name": "symbol",
              "type": "string"
            },
            {
              "internalType": "uint8",
              "name": "decimals",
              "type": "uint8"
            }
          ],
          "internalType": "struct IBalanceProxy.BalanceMetadata[]",
          "name": "approvals",
          "type": "tuple[]"
        },
        {
          "internalType": "bool[]",
          "name": "useTransferFlags",
          "type": "bool[]"
        },
        {
          "internalType": "address",
          "name": "target",
          "type": "address"
        },
        {
          "internalType": "bytes",
          "name": "data",
          "type": "bytes"
        },
        {
          "components": [
            {
              "components": [
                {
                  "internalType": "address",
                  "name": "target",
                  "type": "address"
                },
                {
                  "internalType": "address",
                  "name": "token",
                  "type": "address"
                },
                {
                  "internalType": "int256",
                  "name": "balance",
                  "type": "int256"
                }
              ],
              "internalType": "struct IBalanceProxy.Balance",
              "name": "balance",
              "type": "tuple"
            },
            {
              "internalType": "string",
              "name": "symbol",
              "type": "string"
            },
            {
              "internalType": "uint8",
              "name": "decimals",
              "type": "uint8"
            }
          ],
          "internalType": "struct IBalanceProxy.BalanceMetadata[]",
          "name": "withdrawals",
          "type": "tuple[]"
        }
      ],
      "name": "proxyCallMetadataDiffs",
      "outputs": [
        {
          "internalType": "bytes",
          "name": "",
          "type": "bytes"
        }
      ],
      "stateMutability": "payable",
      "type": "function"
    },
    {
      "stateMutability": "payable",
      "type": "receive"
    }
  ],
  "bytecode": "0x608080604052346015576120e3908161001b8239f35b600080fdfe6080604052600436101561001b575b361561001957600080fd5b005b60003560e01c80630955b47214610aec5780634cbcaad514610a015780635636b2831461088757806356fecb92146106c5578063617ac6db146105da5780638af12e87146103df578063ec6c86061461019b5763fbab98fa0361000e576100813661104c565b9093919294855183519081810361018457505061009e8585611c0d565b60005b83518110156100d557806100cf6100ba600193876113e0565b51876100c6848c6113e0565b51151591611c38565b016100a1565b5091509260008082516020840134875af1926100ef611305565b931561016357505060005b835181101561011f5780610119610113600193876113e0565b51611d90565b016100fa565b509060005b8251811015610149578061014361013d600193866113e0565b51611fcc565b01610124565b6040516020808252819061015f90820185610d48565b0390f35b61018084604051938493630881f24f60e31b85526004850161144d565b0390fd5b632aa9338d60e21b60005260045260245260446000fd5b6101a436610c5a565b9487819a9899939a979297959495036103c6576101c28a8686611475565b6000988b6101cf8a61139a565b9a5b8b8b80831061038f575050505060005b81811061035057505050505060008060405189858237808a8101838152039034855af19661020d611305565b97156103325750505060005b8181106103035750505060005b818110610243576040516020808252819061015f90820187610d48565b61028961027861025f602061025985878b6112b0565b016113cc565b61027261026d85878b6112b0565b6113cc565b90611b87565b61028283866113e0565b51906113f4565b8060ff1d604061029a84868a6112b0565b01358060ff1d809101189080830118106102b75750600101610226565b85935060406102e8836102d3602061025961018097898b6112b0565b956102e261026d83838b6112b0565b976112b0565b0135604051948594637ec440e760e11b865260048601611423565b8061031961031460019385876112b0565b611596565b61032c6103278285876112b0565b6119b4565b01610219565b8761018091604051948594630881f24f60e31b865260048601611356565b8061036161031460019385896112b0565b61038961036f8285896112b0565b8861038361037e85898b6112e8565b6112f8565b916117cd565b016101e1565b826103b78561027261026d84866103b16020610259846103bd9b60019f6112b0565b946112b0565b926113e0565b52018c906101d1565b8890632aa9338d60e21b60005260045260245260446000fd5b6103e8366111f5565b90939483518651908181036101845750506104038584611c0d565b60009080516104118161139a565b925b81811061059a575060005b885181101561045d578061043d6104376001938c6113e0565b51611e3e565b61045761044a828c6113e0565b5151886100c6848c6113e0565b0161041e565b5084908760008082516020840134875af192610477611305565b931561016357505060005b85518110156104b5578061049b610437600193896113e0565b6104af6104a882896113e0565b5151611d90565b01610482565b508360005b8281106104d7576040516020808252819061015f90820187610d48565b61051c6105126001600160a01b0360206104f1858a6113e0565b51510151166001600160a01b03610508858a6113e0565b5151511690611b87565b61028283856113e0565b604061052883886113e0565b51510151811261053b57506001016104ba565b85919061018090604061057d6001600160a01b03602061055b87896113e0565b5151015116946001600160a01b0361057382896113e0565b51515116966113e0565b51510151604051637ec440e760e11b815294859460048601611423565b6001906105c96001600160a01b0360206105b484886113e0565b5151015116838060a01b0361050884886113e0565b6105d382876113e0565b5201610413565b6105e3366111f5565b909391929485518351908181036101845750506106008585611c0d565b60005b835181101561063c578061061c610437600193876113e0565b61063661062982876113e0565b5151876100c6848c6113e0565b01610603565b5091509260008082516020840134875af192610656611305565b931561016357505060005b835181101561068d578061067a610437600193876113e0565b6106876104a882876113e0565b01610661565b509060005b825181101561014957806106ab610437600193866113e0565b6106bf6106b882866113e0565b5151611fcc565b01610692565b6106ce3661104c565b90939483518651908181036101845750506106e98584611c0d565b60009080516106f78161139a565b925b818110610848575060005b885181101561072f578061072961071d6001938c6113e0565b51886100c6848c6113e0565b01610704565b5084908760008082516020840134875af192610749611305565b931561016357505060005b8551811015610773578061076d610113600193896113e0565b01610754565b508360005b828110610795576040516020808252819061015f90820187610d48565b6107ce6105126001600160a01b0360206107af858a6113e0565b510151166001600160a01b036107c5858a6113e0565b51511690611b87565b60406107da83886113e0565b51015181126107ec5750600101610778565b85919061018090604061082c6001600160a01b03602061080c87896113e0565b51015116946001600160a01b0361082382896113e0565b515116966113e0565b510151604051637ec440e760e11b815294859460048601611423565b6001906108766001600160a01b03602061086284886113e0565b51015116838060a01b036107c584886113e0565b61088082876113e0565b52016106f9565b61089036610d9d565b9487819a9899939a979297959495036103c6576108ae8a8686611475565b6000988b6108bb8a61139a565b9a5b8b8b8083106109d0575050505060005b8181106109b957505050505060008060405189858237808a8101838152039034855af1966108f9611305565b97156103325750505060005b8181106109a25750505060005b81811061092f576040516020808252819061015f90820187610d48565b610953610278610945602061025985878b61138a565b61027261026d85878b61138a565b604061096083858961138a565b013581126109715750600101610912565b85935060406102e88361098d602061025961018097898b61138a565b9561099c61026d83838b61138a565b9761138a565b806109b3610327600193858761138a565b01610905565b806109ca61036f600193858961138a565b016108cd565b826103b78561027261026d84866109f26020610259846109f89b60019f61138a565b9461138a565b52018c906108bd565b610a0a36610d9d565b959199989792949096808203610ad457610a258b8787611475565b60005b818110610abd57505050505060008060405189858237808a8101838152039034855af196610a54611305565b97156103325750505060005b818110610aa65750505060005b818110610a8a576040516020808252819061015f90820187610d48565b80610aa0610a9b600193858761138a565b611a76565b01610a6d565b80610ab7610327600193858761138a565b01610a60565b80610ace61036f600193858961138a565b01610a28565b90632aa9338d60e21b60005260045260245260446000fd5b610af536610c5a565b959199989792949096808203610ad457610b108b8787611475565b60005b818110610bbf57505050505060008060405189858237808a8101838152039034855af196610b3f611305565b97156103325750505060005b818110610b9a5750505060005b818110610b75576040516020808252819061015f90820187610d48565b80610b8661031460019385876112b0565b610b94610a9b8285876112b0565b01610b58565b80610bab61031460019385876112b0565b610bb96103278285876112b0565b01610b4b565b80610bd061031460019385896112b0565b610bde61036f8285896112b0565b01610b13565b9181601f84011215610c14578235916001600160401b038311610c14576020808501948460051b010111610c1457565b600080fd5b35906001600160a01b0382168203610c1457565b9181601f84011215610c14578235916001600160401b038311610c145760208381860195010111610c1457565b9060c0600319830112610c14576004356001600160401b038111610c145782610c8591600401610be4565b929092916024356001600160401b038111610c145782610ca791600401610be4565b929092916044356001600160401b038111610c145782610cc991600401610be4565b909290916064356001600160a01b0381168103610c1457916084356001600160401b038111610c145781610cff91600401610c2d565b9290929160a435906001600160401b038211610c1457610d2191600401610be4565b9091565b60005b838110610d385750506000910152565b8181015183820152602001610d28565b90602091610d6181518092818552858086019101610d25565b601f01601f1916010190565b9181601f84011215610c14578235916001600160401b038311610c145760208085019460608502010111610c1457565b9060c0600319830112610c14576004356001600160401b038111610c145782610dc891600401610d6d565b929092916024356001600160401b038111610c145782610dea91600401610d6d565b929092916044356001600160401b038111610c145782610e0c91600401610be4565b909290916064356001600160a01b0381168103610c1457916084356001600160401b038111610c145781610e4291600401610c2d565b9290929160a435906001600160401b038211610c1457610d2191600401610d6d565b606081019081106001600160401b03821117610e7f57604052565b634e487b7160e01b600052604160045260246000fd5b90601f801991011681019081106001600160401b03821117610e7f57604052565b6001600160401b038111610e7f5760051b60200190565b9190826060910312610c1457604051610ee581610e64565b6040808294610ef381610c19565b8452610f0160208201610c19565b60208501520135910152565b81601f82011215610c14578035610f2381610eb6565b92610f316040519485610e95565b81845260206060818601930284010192818411610c1457602001915b838310610f5b575050505090565b6020606091610f6a8486610ecd565b815201920191610f4d565b9080601f83011215610c1457813590610f8d82610eb6565b92610f9b6040519485610e95565b82845260208085019360051b820101918211610c1457602001915b818310610fc35750505090565b82358015158103610c1457815260209283019201610fb6565b6001600160401b038111610e7f57601f01601f191660200190565b92919261100382610fdc565b916110116040519384610e95565b829481845281830111610c14578281602093846000960137010152565b9080601f83011215610c145781602061104993359101610ff7565b90565b9060c0600319830112610c14576004356001600160401b038111610c14578261107791600401610f0d565b916024356001600160401b038111610c14578161109691600401610f0d565b916044356001600160401b038111610c1457826110b591600401610f75565b916064356001600160a01b0381168103610c1457916084356001600160401b038111610c1457826110e89160040161102e565b9160a435906001600160401b038211610c145761104991600401610f0d565b9080601f83011215610c145781359161111f83610eb6565b9261112d6040519485610e95565b80845260208085019160051b83010191838311610c145760208101915b83831061115957505050505090565b82356001600160401b038111610c145782019060a0828703601f190112610c14576040519161118783610e64565b6111948760208301610ecd565b835260808101356001600160401b038111610c14576020908201019087601f83011215610c14576111cd8883602060a095359101610ff7565b602085015201359060ff82168203610c1457826020939260408594015281520192019161114a565b9060c0600319830112610c14576004356001600160401b038111610c14578261122091600401611107565b916024356001600160401b038111610c14578161123f91600401611107565b916044356001600160401b038111610c14578261125e91600401610f75565b916064356001600160a01b0381168103610c1457916084356001600160401b038111610c1457826112919160040161102e565b9160a435906001600160401b038211610c145761104991600401611107565b91908110156112d25760051b81013590609e1981360301821215610c14570190565b634e487b7160e01b600052603260045260246000fd5b91908110156112d25760051b0190565b358015158103610c145790565b3d15611330573d9061131682610fdc565b916113246040519384610e95565b82523d6000602084013e565b606090565b908060209392818452848401376000828201840152601f01601f1916010190565b9291611049949261137c9260018060a01b03168552606060208601526060850191611335565b916040818403910152610d48565b91908110156112d2576060020190565b906113a482610eb6565b6113b16040519182610e95565b82815280926113c2601f1991610eb6565b0190602036910137565b356001600160a01b0381168103610c145790565b80518210156112d25760209160051b010190565b8181039291600013801582851316918412161761140d57565b634e487b7160e01b600052601160045260246000fd5b6001600160a01b039182168152911660208201526040810191909152606081019190915260800190565b6001600160a01b03909116815260606020820181905261104993919261137c91840190610d48565b916004116114ba57356001600160e01b031916906323b872dd60e01b821461149b575050565b632ad238e560e01b60005260018060a01b031660045260245260446000fd5b5050565b602081830312610c14578051906001600160401b038211610c14570181601f82011215610c145780516114f081610fdc565b926114fe6040519485610e95565b81845260208284010111610c14576110499160208085019101610d25565b90816020910312610c14575160ff81168103610c145790565b60405190611544604083610e95565b600382526208aa8960eb1b6020830152565b903590601e1981360301821215610c1457018035906001600160401b038211610c1457602001918136038313610c1457565b3560ff81168103610c145790565b60208101906001600160a01b036115ac836113cc565b166116de576115b9611535565b906012915b60405160208101906115ec60208285516115db8187858a01610d25565b81010301601f198101835282610e95565b5190209360608301946115ff8685611556565b611627602060405183819483830196873781016000838201520301601f198101835282610e95565b519020148015906116c3575b61163e575050505050565b60809550916116b89160ff6116a061166c61166361165c84986113cc565b9986611556565b9a909501611588565b604051635591851960e01b81526001600160a01b0390991660048a015260a060248a0152979889989460a48a019190611335565b92166044870152858203600319016064870152610d48565b911660848301520390fd5b5060ff6116d260808501611588565b1660ff85161415611633565b600460006001600160a01b036116f3856113cc565b16604051928380926395d89b4160e01b82525afa90811561178657600091611792575b5090600460206001600160a01b0361172d866113cc565b166040519283809263313ce56760e01b82525afa90811561178657600091611757575b50916115be565b611779915060203d60201161177f575b6117718183610e95565b81019061151c565b38611750565b503d611767565b6040513d6000823e3d90fd5b6117af91503d806000833e6117a78183610e95565b8101906114be565b38611716565b90816020910312610c1457518015158103610c145790565b9060208201906001600160a01b036117e4836113cc565b16156119ae576117f3836113cc565b6001600160a01b03918216911603611977576001600160a01b03611816826113cc565b604080516323b872dd60e01b81523360048201523060248201529085013560ff81901d90810118604482018190529592909160209183916064918391600091165af180156117865761195a575b5015611903576118c792602092909161188f906001600160a01b0390611888906113cc565b16916113cc565b60405163a9059cbb60e01b81526001600160a01b03909116600482015260248101929092529092839190829060009082906044820190565b03925af18015611786576118d85750565b6118f99060203d6020116118fc575b6118f18183610e95565b8101906117b5565b50565b503d6118e7565b6118c7926020929091611922906001600160a01b0390611888906113cc565b60405163095ea7b360e01b81526001600160a01b03909116600482015260248101929092529092839190829060009082906044820190565b6119729060203d6020116118fc576118f18183610e95565b611863565b611983611989916113cc565b916113cc565b635876e71160e01b60009081526001600160a01b039283166004529116602452604490fd5b50505050565b602081016001600160a01b036119c9826113cc565b16611a16575060009081908190819060406001600160a01b036119eb836113cc565b16910135908160ff1d809201918392818114611a0c575b1891f11561178657565b6108fc9350611a02565b6020906000906001600160a01b0390611a2e906113cc565b166040611a3a856113cc565b60405163a9059cbb60e01b81526001600160a01b03909116600482015294013560ff81901d9081011860248501528391829081604481016118c7565b60208101906001600160a01b03611a8c836113cc565b60009116611aea5750611a9e816113cc565b315b6040820135928360ff1d808501188210611aba5750505050565b90611ad0611aca610180936113cc565b936113cc565b9360405194859463d87031f960e01b865260048601611423565b6001600160a01b03611afb846113cc565b166020611b07846113cc565b6040516370a0823160e01b81526001600160a01b03909116600482015291829060249082905afa918215611b7b578092611b43575b5050611aa0565b9091506020823d602011611b73575b81611b5f60209383610e95565b81010312611b705750513880611b3c565b80fd5b3d9150611b52565b604051903d90823e3d90fd5b6000906001600160a01b031680611b9e5750503190565b6040516370a0823160e01b81526001600160a01b039093166004840152909190602090829060249082905afa918215611b7b578092611bdc57505090565b9091506020823d602011611c05575b81611bf860209383610e95565b81010312611b7057505190565b3d9150611beb565b9060048151106114ba57602001516001600160e01b031916906323b872dd60e01b821461149b575050565b602081018051909392906001600160a01b03168015611d895782516001600160a01b0390811692168203611d7257505082516040828101805191516323b872dd60e01b815233600482015230602482015260ff83901d92830190921860448301529490939291602090859060649082906000906001600160a01b03165af192831561178657602094600094611d57575b508314611d1357519051935160405163a9059cbb60e01b81526001600160a01b03958616600482015260ff82901d9182019091186024820152938492911690829081604481016118c7565b519051935160405163095ea7b360e01b81526001600160a01b03958616600482015260ff82901d9182019091186024820152938492911690829081604481016118c7565b611d6d90863d88116118fc576118f18183610e95565b611cc8565b635876e71160e01b60005260045260245260446000fd5b5050505050565b60208101516001600160a01b031680611dd55750600080808093604060018060a01b03825116910151908160ff1d809201918392818114611a0c571891f11561178657565b8151604092830151925163a9059cbb60e01b81526001600160a01b03909116600482015260ff83901d9283019092186024830152602090829081600081604481016118c7565b602081519101519060208110611e2f575090565b6000199060200360031b1b1690565b8051602001516001600160a01b031680611f2c5750611e5b611535565b60125b611e80604051611e7b60208286516115db81848401858b01610d25565b611e1b565b916020840192611ea78451611e7b6020604051836115db8295518092858086019101610d25565b14801590611f18575b611eba5750505050565b6116b860ff9182604060018060a01b036020895101511696519701511690611f01604051978897635591851960e01b8952600489015260a0602489015260a4880190610d48565b916044870152600319868303016064870152610d48565b5060ff60408501511660ff83161415611eb0565b6000600491604051928380926395d89b4160e01b82525afa90811561178657600091611fb1575b50815160209081015160405163313ce56760e01b81529190829060049082906001600160a01b03165afa90811561178657600091611f92575b50611e5e565b611fab915060203d60201161177f576117718183610e95565b38611f8c565b611fc691503d806000833e6117a78183610e95565b38611f53565b6020810180519091906000906001600160a01b03168061203d57505080516001600160a01b0316315b6040820151928360ff1d80850118821061200f5750505050565b51915160405163d87031f960e01b815293849361018093926001600160a01b03908116911660048601611423565b602060018060a01b038451166024604051809481936370a0823160e01b835260048301525afa918215611b7b578092612078575b5050611ff5565b9091506020823d6020116120a5575b8161209460209383610e95565b81010312611b705750513880612071565b3d915061208756fea2646970667358221220fd2dd0894d93dcb4605f92385692be4e8bf46c5d79a9c6af4dbcd3161d601e9464736f6c634300081b0033",
  "linkReferences": {},
  "deployedLinkReferences": {}
}