{
  "contracts/ApproveRouter.sol": {
    "ApproveRouter": {
      "abi": [
        {
          "inputs": [
            {
              "internalType": "address",
              "name": "token",
              "type": "address"
            },
            {
              "internalType": "string",
              "name": "expectedSymbol",
              "type": "string"
            },
            {
              "internalType": "uint8",
              "name": "expectedDecimals",
              "type": "uint8"
            },
            {
              "internalType": "string",
              "name": "actualSymbol",
              "type": "string"
            },
            {
              "internalType": "uint8",
              "name": "actualDecimals",
              "type": "uint8"
            }
          ],
          "name": "InvalidMetadata",
          "type": "error"
        },
        {
          "inputs": [
            {
              "internalType": "contract IBalanceProxy",
              "name": "balanceProxy",
              "type": "address"
            },
            {
              "components": [
                {
                  "internalType": "address",
                  "name": "target",
                  "type": "address"
                },
                {
                  "internalType": "address",
                  "name": "token",
                  "type": "address"
                },
                {
                  "internalType": "int256",
                  "name": "balance",
                  "type": "int256"
                }
              ],
              "internalType": "struct IBalanceProxy.Balance[]",
              "name": "postBalances",
              "type": "tuple[]"
            },
            {
              "components": [
                {
                  "components": [
                    {
                      "internalType": "address",
                      "name": "target",
                      "type": "address"
                    },
                    {
                      "internalType": "address",
                      "name": "token",
                      "type": "address"
                    },
                    {
                      "internalType": "int256",
                      "name": "balance",
                      "type": "int256"
                    }
                  ],
                  "internalType": "struct IBalanceProxy.Balance",
                  "name": "balance",
                  "type": "tuple"
                },
                {
                  "internalType": "bool",
                  "name": "useTransfer",
                  "type": "bool"
                }
              ],
              "internalType": "struct IBalanceProxy.Approval[]",
              "name": "approvals",
              "type": "tuple[]"
            },
            {
              "internalType": "address",
              "name": "target",
              "type": "address"
            },
            {
              "internalType": "bytes",
              "name": "data",
              "type": "bytes"
            },
            {
              "components": [
                {
                  "internalType": "address",
                  "name": "target",
                  "type": "address"
                },
                {
                  "internalType": "address",
                  "name": "token",
                  "type": "address"
                },
                {
                  "internalType": "int256",
                  "name": "balance",
                  "type": "int256"
                }
              ],
              "internalType": "struct IBalanceProxy.Balance[]",
              "name": "withdrawals",
              "type": "tuple[]"
            }
          ],
          "name": "approveProxyCall",
          "outputs": [
            {
              "internalType": "bytes",
              "name": "",
              "type": "bytes"
            }
          ],
          "stateMutability": "payable",
          "type": "function"
        },
        {
          "inputs": [
            {
              "internalType": "contract IBalanceProxy",
              "name": "balanceProxy",
              "type": "address"
            },
            {
              "components": [
                {
                  "internalType": "address",
                  "name": "target",
                  "type": "address"
                },
                {
                  "internalType": "address",
                  "name": "token",
                  "type": "address"
                },
                {
                  "internalType": "int256",
                  "name": "balance",
                  "type": "int256"
                }
              ],
              "internalType": "struct IBalanceProxy.Balance[]",
              "name": "diffs",
              "type": "tuple[]"
            },
            {
              "components": [
                {
                  "components": [
                    {
                      "internalType": "address",
                      "name": "target",
                      "type": "address"
                    },
                    {
                      "internalType": "address",
                      "name": "token",
                      "type": "address"
                    },
                    {
                      "internalType": "int256",
                      "name": "balance",
                      "type": "int256"
                    }
                  ],
                  "internalType": "struct IBalanceProxy.Balance",
                  "name": "balance",
                  "type": "tuple"
                },
                {
                  "internalType": "bool",
                  "name": "useTransfer",
                  "type": "bool"
                }
              ],
              "internalType": "struct IBalanceProxy.Approval[]",
              "name": "approvals",
              "type": "tuple[]"
            },
            {
              "internalType": "address",
              "name": "target",
              "type": "address"
            },
            {
              "internalType": "bytes",
              "name": "data",
              "type": "bytes"
            },
            {
              "components": [
                {
                  "internalType": "address",
                  "name": "target",
                  "type": "address"
                },
                {
                  "internalType": "address",
                  "name": "token",
                  "type": "address"
                },
                {
                  "internalType": "int256",
                  "name": "balance",
                  "type": "int256"
                }
              ],
              "internalType": "struct IBalanceProxy.Balance[]",
              "name": "withdrawals",
              "type": "tuple[]"
            }
          ],
          "name": "approveProxyCallDiffs",
          "outputs": [
            {
              "internalType": "bytes",
              "name": "",
              "type": "bytes"
            }
          ],
          "stateMutability": "payable",
          "type": "function"
        },
        {
          "inputs": [
            {
              "internalType": "contract IBalanceProxy",
              "name": "balanceProxy",
              "type": "address"
            },
            {
              "components": [
                {
                  "components": [
                    {
                      "internalType": "address",
                      "name": "target",
                      "type": "address"
                    },
                    {
                      "internalType": "address",
                      "name": "token",
                      "type": "address"
                    },
                    {
                      "internalType": "int256",
                      "name": "balance",
                      "type": "int256"
                    }
                  ],
                  "internalType": "struct IBalanceProxy.Balance",
                  "name": "balance",
                  "type": "tuple"
                },
                {
                  "internalType": "string",
                  "name": "symbol",
                  "type": "string"
                },
                {
                  "internalType": "uint8",
                  "name": "decimals",
                  "type": "uint8"
                }
              ],
              "internalType": "struct BalanceMetadata[]",
              "name": "meta",
              "type": "tuple[]"
            },
            {
              "components": [
                {
                  "components": [
                    {
                      "internalType": "address",
                      "name": "target",
                      "type": "address"
                    },
                    {
                      "internalType": "address",
                      "name": "token",
                      "type": "address"
                    },
                    {
                      "internalType": "int256",
                      "name": "balance",
                      "type": "int256"
                    }
                  ],
                  "internalType": "struct IBalanceProxy.Balance",
                  "name": "balance",
                  "type": "tuple"
                },
                {
                  "internalType": "bool",
                  "name": "useTransfer",
                  "type": "bool"
                }
              ],
              "internalType": "struct IBalanceProxy.Approval[]",
              "name": "approvals",
              "type": "tuple[]"
            },
            {
              "internalType": "address",
              "name": "target",
              "type": "address"
            },
            {
              "internalType": "bytes",
              "name": "data",
              "type": "bytes"
            },
            {
              "components": [
                {
                  "internalType": "address",
                  "name": "target",
                  "type": "address"
                },
                {
                  "internalType": "address",
                  "name": "token",
                  "type": "address"
                },
                {
                  "internalType": "int256",
                  "name": "balance",
                  "type": "int256"
                }
              ],
              "internalType": "struct IBalanceProxy.Balance[]",
              "name": "withdrawals",
              "type": "tuple[]"
            }
          ],
          "name": "approveProxyCallDiffsWithMeta",
          "outputs": [
            {
              "internalType": "bytes",
              "name": "",
              "type": "bytes"
            }
          ],
          "stateMutability": "payable",
          "type": "function"
        },
        {
          "inputs": [
            {
              "internalType": "contract IBalanceProxy",
              "name": "balanceProxy",
              "type": "address"
            },
            {
              "components": [
                {
                  "components": [
                    {
                      "internalType": "address",
                      "name": "target",
                      "type": "address"
                    },
                    {
                      "internalType": "address",
                      "name": "token",
                      "type": "address"
                    },
                    {
                      "internalType": "int256",
                      "name": "balance",
                      "type": "int256"
                    }
                  ],
                  "internalType": "struct IBalanceProxy.Balance",
                  "name": "balance",
                  "type": "tuple"
                },
                {
                  "internalType": "string",
                  "name": "symbol",
                  "type": "string"
                },
                {
                  "internalType": "uint8",
                  "name": "decimals",
                  "type": "uint8"
                }
              ],
              "internalType": "struct BalanceMetadata[]",
              "name": "meta",
              "type": "tuple[]"
            },
            {
              "components": [
                {
                  "components": [
                    {
                      "internalType": "address",
                      "name": "target",
                      "type": "address"
                    },
                    {
                      "internalType": "address",
                      "name": "token",
                      "type": "address"
                    },
                    {
                      "internalType": "int256",
                      "name": "balance",
                      "type": "int256"
                    }
                  ],
                  "internalType": "struct IBalanceProxy.Balance",
                  "name": "balance",
                  "type": "tuple"
                },
                {
                  "internalType": "bool",
                  "name": "useTransfer",
                  "type": "bool"
                }
              ],
              "internalType": "struct IBalanceProxy.Approval[]",
              "name": "approvals",
              "type": "tuple[]"
            },
            {
              "internalType": "address",
              "name": "target",
              "type": "address"
            },
            {
              "internalType": "bytes",
              "name": "data",
              "type": "bytes"
            },
            {
              "components": [
                {
                  "internalType": "address",
                  "name": "target",
                  "type": "address"
                },
                {
                  "internalType": "address",
                  "name": "token",
                  "type": "address"
                },
                {
                  "internalType": "int256",
                  "name": "balance",
                  "type": "int256"
                }
              ],
              "internalType": "struct IBalanceProxy.Balance[]",
              "name": "withdrawals",
              "type": "tuple[]"
            }
          ],
          "name": "approveProxyCallWithMeta",
          "outputs": [
            {
              "internalType": "bytes",
              "name": "",
              "type": "bytes"
            }
          ],
          "stateMutability": "payable",
          "type": "function"
        }
      ],
      "devdoc": {
        "kind": "dev",
        "methods": {},
        "title": "ApproveRouter",
        "version": 1
      },
      "evm": {
        "bytecode": {
          "linkReferences": {},
          "object": "60808060405234601557610d1d908161001b8239f35b600080fdfe6080604052600436101561001257600080fd5b60003560e01c8063b3375fd6146102f7578063c67072701461025d578063d82199ff1461019b5763e5d77b3c1461004857600080fd5b610051366107cc565b929492936001600160a01b039093169290919060005b865181101561011f578060206100cb6100826000948b61082a565b51516040808201519184015190516323b872dd60e01b81523360048201526001600160a01b038b8116602483015260448201939093529586939190921691839182906064820190565b03925af1918215610113576001926100e5575b5001610067565b6101059060203d811161010c575b6100fd81836103fd565b810190610854565b50386100de565b503d6100f3565b6040513d6000823e3d90fd5b50928560009394610147876040519788968795869563ce9506f960e01b875260048701610a9d565b039134905af180156101135761017491600091610178575b506040519182916020835260208301906107a7565b0390f35b61019591503d806000833e61018d81836103fd565b8101906108a3565b8261015f565b6101a4366105f4565b9060009592955b85518110156101d057806101ca6101c46001938961082a565b51610aca565b016101ab565b5090916001600160a01b031690858560005b8651811015610235578060206101fd6100826000948b61082a565b03925af191821561011357600192610217575b50016101e2565b61022e9060203d811161010c576100fd81836103fd565b5088610210565b5092856000939461014787604051978896879586956369889ec560e11b8752600487016109a9565b610266366107cc565b929492936001600160a01b039093169290919060005b86518110156102cf578060206102976100826000948b61082a565b03925af1918215610113576001926102b1575b500161027c565b6102c89060203d811161010c576100fd81836103fd565b50886102aa565b50928560009394610147876040519788968795869563890e3add60e01b875260048701610a9d565b610300366105f4565b9060009592955b855181101561032657806103206101c46001938961082a565b01610307565b5090916001600160a01b031690858560005b865181101561038b578060206103536100826000948b61082a565b03925af19182156101135760019261036d575b5001610338565b6103849060203d811161010c576100fd81836103fd565b5088610366565b50928560009394610147876040519788968795869563086c628560e41b8752600487016109a9565b35906001600160a01b03821682036103c757565b600080fd5b606081019081106001600160401b038211176103e757604052565b634e487b7160e01b600052604160045260246000fd5b90601f801991011681019081106001600160401b038211176103e757604052565b6001600160401b0381116103e75760051b60200190565b91908260609103126103c75760405161044d816103cc565b604080829461045b816103b3565b8452610469602082016103b3565b60208501520135910152565b6001600160401b0381116103e757601f01601f191660200190565b92919261049c82610475565b916104aa60405193846103fd565b8294818452818301116103c7578281602093846000960137010152565b9080601f830112156103c7578135916104df8361041e565b926104ed60405194856103fd565b80845260208085019160071b830101918383116103c757602001905b828210610517575050505090565b6080828503126103c75760405190604082018281106001600160401b038211176103e7576040526105488584610435565b825260608301359081151582036103c75782602092836080950152815201910190610509565b9080601f830112156103c75781602061058993359101610490565b90565b81601f820112156103c75780356105a28161041e565b926105b060405194856103fd565b818452602060608186019302840101928184116103c757602001915b8383106105da575050505090565b60206060916105e98486610435565b8152019201916105cc565b9060c06003198301126103c7576004356001600160a01b03811681036103c757916024356001600160401b0381116103c757816023820112156103c7578060040135906106408261041e565b9161064e60405193846103fd565b8083526024602084019160051b830101918483116103c75760248101915b8383106106e85750505050916044356001600160401b0381116103c75782610696916004016104c7565b916064356001600160a01b03811681036103c757916084356001600160401b0381116103c757826106c99160040161056e565b9160a435906001600160401b0382116103c7576105899160040161058c565b82356001600160401b0381116103c75782019060a082880360231901126103c75760405191610716836103cc565b6107238860248301610435565b835260848101356001600160401b0381116103c7576024908201019088601f830112156103c75761075c8983602060a495359101610490565b602085015201359060ff821682036103c757826020939260408594015281520192019161066c565b60005b8381106107975750506000910152565b8181015183820152602001610787565b906020916107c081518092818552858086019101610784565b601f01601f1916010190565b9060c06003198301126103c7576004356001600160a01b03811681036103c757916024356001600160401b0381116103c7578161080b9160040161058c565b916044356001600160401b0381116103c75782610696916004016104c7565b805182101561083e5760209160051b010190565b634e487b7160e01b600052603260045260246000fd5b908160209103126103c7575180151581036103c75790565b9092919261087981610475565b9161088760405193846103fd565b8294828452828201116103c75760206108a1930190610784565b565b6020818303126103c7578051906001600160401b0382116103c757019080601f830112156103c75781516105899260200161086c565b906020808351928381520192019060005b8181106108f75750505090565b909192602060806001928287516109338382516040809160018060a01b03815116845260018060a01b0360208201511660208501520151910152565b0151151560608201520194019291016108ea565b906020808351928381520192019060005b8181106109655750505090565b909192602060608261099e60019488516040809160018060a01b03815116845260018060a01b0360208201511660208501520151910152565b019401929101610958565b9390959492919560a0850160a08652815180915260c0860190602060c08260051b8901019301916000905b828210610a255750505050906109fa82610589979887610a1796950360208901526108d9565b6001600160a01b03909216604086015284820360608601526107a7565b916080818403910152610947565b9091929360208060019260bf198c8203018552875190610a6a8183516040809160018060a01b03815116845260018060a01b0360208201511660208501520151910152565b608060ff6040610a888686015160a0606087015260a08601906107a7565b940151169101529601920192019092916109d4565b936109fa610a1793610abc61058998969460a0895260a0890190610947565b9087820360208901526108d9565b8051602001516001600160a01b031680610be95750604051610aed6040826103fd565b600381526208aa8960eb1b602082015260125b6040516020810190610b2e6020828651610b1d8187858b01610784565b81010301601f1981018352826103fd565b5190209160208401928351604051610b5660208281610b1d8183019687815193849201610784565b51902014801590610bd5575b610b6c5750505050565b610bca60ff9182604060018060a01b036020895101511696519701511690610bb3604051978897635591851960e01b8952600489015260a0602489015260a48801906107a7565b9160448701526003198683030160648701526107a7565b911660848301520390fd5b5060ff60408501511660ff83161415610b62565b6000600491604051928380926395d89b4160e01b82525afa90811561011357600091610c92575b50815160209081015160405163313ce56760e01b81529190829060049082906001600160a01b03165afa90811561011357600091610c4f575b50610b00565b6020813d602011610c8a575b81610c68602093836103fd565b81010312610c8657519060ff82168203610c83575038610c49565b80fd5b5080fd5b3d9150610c5b565b903d8082843e610ca281846103fd565b820191602081840312610c86578051906001600160401b038211610ce357019082601f83011215610c8357508051610cdd929160200161086c565b38610c10565b8280fdfea264697066735822122007d0832bd4ee2340a3ab19979c6e6736651853001d212bf7a3dcaf1b7feeb1be64736f6c634300081b0033",
          "opcodes": "PUSH1 0x80 DUP1 PUSH1 0x40 MSTORE CALLVALUE PUSH1 0x15 JUMPI PUSH2 0xD1D SWAP1 DUP2 PUSH2 0x1B DUP3 CODECOPY RETURN JUMPDEST PUSH1 0x0 DUP1 REVERT INVALID PUSH1 0x80 PUSH1 0x40 MSTORE PUSH1 0x4 CALLDATASIZE LT ISZERO PUSH2 0x12 JUMPI PUSH1 0x0 DUP1 REVERT JUMPDEST PUSH1 0x0 CALLDATALOAD PUSH1 0xE0 SHR DUP1 PUSH4 0xB3375FD6 EQ PUSH2 0x2F7 JUMPI DUP1 PUSH4 0xC6707270 EQ PUSH2 0x25D JUMPI DUP1 PUSH4 0xD82199FF EQ PUSH2 0x19B JUMPI PUSH4 0xE5D77B3C EQ PUSH2 0x48 JUMPI PUSH1 0x0 DUP1 REVERT JUMPDEST PUSH2 0x51 CALLDATASIZE PUSH2 0x7CC JUMP JUMPDEST SWAP3 SWAP5 SWAP3 SWAP4 PUSH1 0x1 PUSH1 0x1 PUSH1 0xA0 SHL SUB SWAP1 SWAP4 AND SWAP3 SWAP1 SWAP2 SWAP1 PUSH1 0x0 JUMPDEST DUP7 MLOAD DUP2 LT ISZERO PUSH2 0x11F JUMPI DUP1 PUSH1 0x20 PUSH2 0xCB PUSH2 0x82 PUSH1 0x0 SWAP5 DUP12 PUSH2 0x82A JUMP JUMPDEST MLOAD MLOAD PUSH1 0x40 DUP1 DUP3 ADD MLOAD SWAP2 DUP5 ADD MLOAD SWAP1 MLOAD PUSH4 0x23B872DD PUSH1 0xE0 SHL DUP2 MSTORE CALLER PUSH1 0x4 DUP3 ADD MSTORE PUSH1 0x1 PUSH1 0x1 PUSH1 0xA0 SHL SUB DUP12 DUP2 AND PUSH1 0x24 DUP4 ADD MSTORE PUSH1 0x44 DUP3 ADD SWAP4 SWAP1 SWAP4 MSTORE SWAP6 DUP7 SWAP4 SWAP2 SWAP1 SWAP3 AND SWAP2 DUP4 SWAP2 DUP3 SWAP1 PUSH1 0x64 DUP3 ADD SWAP1 JUMP JUMPDEST SUB SWAP3 GAS CALL SWAP2 DUP3 ISZERO PUSH2 0x113 JUMPI PUSH1 0x1 SWAP3 PUSH2 0xE5 JUMPI JUMPDEST POP ADD PUSH2 0x67 JUMP JUMPDEST PUSH2 0x105 SWAP1 PUSH1 0x20 RETURNDATASIZE DUP2 GT PUSH2 0x10C JUMPI JUMPDEST PUSH2 0xFD DUP2 DUP4 PUSH2 0x3FD JUMP JUMPDEST DUP2 ADD SWAP1 PUSH2 0x854 JUMP JUMPDEST POP CODESIZE PUSH2 0xDE JUMP JUMPDEST POP RETURNDATASIZE PUSH2 0xF3 JUMP JUMPDEST PUSH1 0x40 MLOAD RETURNDATASIZE PUSH1 0x0 DUP3 RETURNDATACOPY RETURNDATASIZE SWAP1 REVERT JUMPDEST POP SWAP3 DUP6 PUSH1 0x0 SWAP4 SWAP5 PUSH2 0x147 DUP8 PUSH1 0x40 MLOAD SWAP8 DUP9 SWAP7 DUP8 SWAP6 DUP7 SWAP6 PUSH4 0xCE9506F9 PUSH1 0xE0 SHL DUP8 MSTORE PUSH1 0x4 DUP8 ADD PUSH2 0xA9D JUMP JUMPDEST SUB SWAP2 CALLVALUE SWAP1 GAS CALL DUP1 ISZERO PUSH2 0x113 JUMPI PUSH2 0x174 SWAP2 PUSH1 0x0 SWAP2 PUSH2 0x178 JUMPI JUMPDEST POP PUSH1 0x40 MLOAD SWAP2 DUP3 SWAP2 PUSH1 0x20 DUP4 MSTORE PUSH1 0x20 DUP4 ADD SWAP1 PUSH2 0x7A7 JUMP JUMPDEST SUB SWAP1 RETURN JUMPDEST PUSH2 0x195 SWAP2 POP RETURNDATASIZE DUP1 PUSH1 0x0 DUP4 RETURNDATACOPY PUSH2 0x18D DUP2 DUP4 PUSH2 0x3FD JUMP JUMPDEST DUP2 ADD SWAP1 PUSH2 0x8A3 JUMP JUMPDEST DUP3 PUSH2 0x15F JUMP JUMPDEST PUSH2 0x1A4 CALLDATASIZE PUSH2 0x5F4 JUMP JUMPDEST SWAP1 PUSH1 0x0 SWAP6 SWAP3 SWAP6 JUMPDEST DUP6 MLOAD DUP2 LT ISZERO PUSH2 0x1D0 JUMPI DUP1 PUSH2 0x1CA PUSH2 0x1C4 PUSH1 0x1 SWAP4 DUP10 PUSH2 0x82A JUMP JUMPDEST MLOAD PUSH2 0xACA JUMP JUMPDEST ADD PUSH2 0x1AB JUMP JUMPDEST POP SWAP1 SWAP2 PUSH1 0x1 PUSH1 0x1 PUSH1 0xA0 SHL SUB AND SWAP1 DUP6 DUP6 PUSH1 0x0 JUMPDEST DUP7 MLOAD DUP2 LT ISZERO PUSH2 0x235 JUMPI DUP1 PUSH1 0x20 PUSH2 0x1FD PUSH2 0x82 PUSH1 0x0 SWAP5 DUP12 PUSH2 0x82A JUMP JUMPDEST SUB SWAP3 GAS CALL SWAP2 DUP3 ISZERO PUSH2 0x113 JUMPI PUSH1 0x1 SWAP3 PUSH2 0x217 JUMPI JUMPDEST POP ADD PUSH2 0x1E2 JUMP JUMPDEST PUSH2 0x22E SWAP1 PUSH1 0x20 RETURNDATASIZE DUP2 GT PUSH2 0x10C JUMPI PUSH2 0xFD DUP2 DUP4 PUSH2 0x3FD JUMP JUMPDEST POP DUP9 PUSH2 0x210 JUMP JUMPDEST POP SWAP3 DUP6 PUSH1 0x0 SWAP4 SWAP5 PUSH2 0x147 DUP8 PUSH1 0x40 MLOAD SWAP8 DUP9 SWAP7 DUP8 SWAP6 DUP7 SWAP6 PUSH4 0x69889EC5 PUSH1 0xE1 SHL DUP8 MSTORE PUSH1 0x4 DUP8 ADD PUSH2 0x9A9 JUMP JUMPDEST PUSH2 0x266 CALLDATASIZE PUSH2 0x7CC JUMP JUMPDEST SWAP3 SWAP5 SWAP3 SWAP4 PUSH1 0x1 PUSH1 0x1 PUSH1 0xA0 SHL SUB SWAP1 SWAP4 AND SWAP3 SWAP1 SWAP2 SWAP1 PUSH1 0x0 JUMPDEST DUP7 MLOAD DUP2 LT ISZERO PUSH2 0x2CF JUMPI DUP1 PUSH1 0x20 PUSH2 0x297 PUSH2 0x82 PUSH1 0x0 SWAP5 DUP12 PUSH2 0x82A JUMP JUMPDEST SUB SWAP3 GAS CALL SWAP2 DUP3 ISZERO PUSH2 0x113 JUMPI PUSH1 0x1 SWAP3 PUSH2 0x2B1 JUMPI JUMPDEST POP ADD PUSH2 0x27C JUMP JUMPDEST PUSH2 0x2C8 SWAP1 PUSH1 0x20 RETURNDATASIZE DUP2 GT PUSH2 0x10C JUMPI PUSH2 0xFD DUP2 DUP4 PUSH2 0x3FD JUMP JUMPDEST POP DUP9 PUSH2 0x2AA JUMP JUMPDEST POP SWAP3 DUP6 PUSH1 0x0 SWAP4 SWAP5 PUSH2 0x147 DUP8 PUSH1 0x40 MLOAD SWAP8 DUP9 SWAP7 DUP8 SWAP6 DUP7 SWAP6 PUSH4 0x890E3ADD PUSH1 0xE0 SHL DUP8 MSTORE PUSH1 0x4 DUP8 ADD PUSH2 0xA9D JUMP JUMPDEST PUSH2 0x300 CALLDATASIZE PUSH2 0x5F4 JUMP JUMPDEST SWAP1 PUSH1 0x0 SWAP6 SWAP3 SWAP6 JUMPDEST DUP6 MLOAD DUP2 LT ISZERO PUSH2 0x326 JUMPI DUP1 PUSH2 0x320 PUSH2 0x1C4 PUSH1 0x1 SWAP4 DUP10 PUSH2 0x82A JUMP JUMPDEST ADD PUSH2 0x307 JUMP JUMPDEST POP SWAP1 SWAP2 PUSH1 0x1 PUSH1 0x1 PUSH1 0xA0 SHL SUB AND SWAP1 DUP6 DUP6 PUSH1 0x0 JUMPDEST DUP7 MLOAD DUP2 LT ISZERO PUSH2 0x38B JUMPI DUP1 PUSH1 0x20 PUSH2 0x353 PUSH2 0x82 PUSH1 0x0 SWAP5 DUP12 PUSH2 0x82A JUMP JUMPDEST SUB SWAP3 GAS CALL SWAP2 DUP3 ISZERO PUSH2 0x113 JUMPI PUSH1 0x1 SWAP3 PUSH2 0x36D JUMPI JUMPDEST POP ADD PUSH2 0x338 JUMP JUMPDEST PUSH2 0x384 SWAP1 PUSH1 0x20 RETURNDATASIZE DUP2 GT PUSH2 0x10C JUMPI PUSH2 0xFD DUP2 DUP4 PUSH2 0x3FD JUMP JUMPDEST POP DUP9 PUSH2 0x366 JUMP JUMPDEST POP SWAP3 DUP6 PUSH1 0x0 SWAP4 SWAP5 PUSH2 0x147 DUP8 PUSH1 0x40 MLOAD SWAP8 DUP9 SWAP7 DUP8 SWAP6 DUP7 SWAP6 PUSH4 0x86C6285 PUSH1 0xE4 SHL DUP8 MSTORE PUSH1 0x4 DUP8 ADD PUSH2 0x9A9 JUMP JUMPDEST CALLDATALOAD SWAP1 PUSH1 0x1 PUSH1 0x1 PUSH1 0xA0 SHL SUB DUP3 AND DUP3 SUB PUSH2 0x3C7 JUMPI JUMP JUMPDEST PUSH1 0x0 DUP1 REVERT JUMPDEST PUSH1 0x60 DUP2 ADD SWAP1 DUP2 LT PUSH1 0x1 PUSH1 0x1 PUSH1 0x40 SHL SUB DUP3 GT OR PUSH2 0x3E7 JUMPI PUSH1 0x40 MSTORE JUMP JUMPDEST PUSH4 0x4E487B71 PUSH1 0xE0 SHL PUSH1 0x0 MSTORE PUSH1 0x41 PUSH1 0x4 MSTORE PUSH1 0x24 PUSH1 0x0 REVERT JUMPDEST SWAP1 PUSH1 0x1F DUP1 NOT SWAP2 ADD AND DUP2 ADD SWAP1 DUP2 LT PUSH1 0x1 PUSH1 0x1 PUSH1 0x40 SHL SUB DUP3 GT OR PUSH2 0x3E7 JUMPI PUSH1 0x40 MSTORE JUMP JUMPDEST PUSH1 0x1 PUSH1 0x1 PUSH1 0x40 SHL SUB DUP2 GT PUSH2 0x3E7 JUMPI PUSH1 0x5 SHL PUSH1 0x20 ADD SWAP1 JUMP JUMPDEST SWAP2 SWAP1 DUP3 PUSH1 0x60 SWAP2 SUB SLT PUSH2 0x3C7 JUMPI PUSH1 0x40 MLOAD PUSH2 0x44D DUP2 PUSH2 0x3CC JUMP JUMPDEST PUSH1 0x40 DUP1 DUP3 SWAP5 PUSH2 0x45B DUP2 PUSH2 0x3B3 JUMP JUMPDEST DUP5 MSTORE PUSH2 0x469 PUSH1 0x20 DUP3 ADD PUSH2 0x3B3 JUMP JUMPDEST PUSH1 0x20 DUP6 ADD MSTORE ADD CALLDATALOAD SWAP2 ADD MSTORE JUMP JUMPDEST PUSH1 0x1 PUSH1 0x1 PUSH1 0x40 SHL SUB DUP2 GT PUSH2 0x3E7 JUMPI PUSH1 0x1F ADD PUSH1 0x1F NOT AND PUSH1 0x20 ADD SWAP1 JUMP JUMPDEST SWAP3 SWAP2 SWAP3 PUSH2 0x49C DUP3 PUSH2 0x475 JUMP JUMPDEST SWAP2 PUSH2 0x4AA PUSH1 0x40 MLOAD SWAP4 DUP5 PUSH2 0x3FD JUMP JUMPDEST DUP3 SWAP5 DUP2 DUP5 MSTORE DUP2 DUP4 ADD GT PUSH2 0x3C7 JUMPI DUP3 DUP2 PUSH1 0x20 SWAP4 DUP5 PUSH1 0x0 SWAP7 ADD CALLDATACOPY ADD ADD MSTORE JUMP JUMPDEST SWAP1 DUP1 PUSH1 0x1F DUP4 ADD SLT ISZERO PUSH2 0x3C7 JUMPI DUP2 CALLDATALOAD SWAP2 PUSH2 0x4DF DUP4 PUSH2 0x41E JUMP JUMPDEST SWAP3 PUSH2 0x4ED PUSH1 0x40 MLOAD SWAP5 DUP6 PUSH2 0x3FD JUMP JUMPDEST DUP1 DUP5 MSTORE PUSH1 0x20 DUP1 DUP6 ADD SWAP2 PUSH1 0x7 SHL DUP4 ADD ADD SWAP2 DUP4 DUP4 GT PUSH2 0x3C7 JUMPI PUSH1 0x20 ADD SWAP1 JUMPDEST DUP3 DUP3 LT PUSH2 0x517 JUMPI POP POP POP POP SWAP1 JUMP JUMPDEST PUSH1 0x80 DUP3 DUP6 SUB SLT PUSH2 0x3C7 JUMPI PUSH1 0x40 MLOAD SWAP1 PUSH1 0x40 DUP3 ADD DUP3 DUP2 LT PUSH1 0x1 PUSH1 0x1 PUSH1 0x40 SHL SUB DUP3 GT OR PUSH2 0x3E7 JUMPI PUSH1 0x40 MSTORE PUSH2 0x548 DUP6 DUP5 PUSH2 0x435 JUMP JUMPDEST DUP3 MSTORE PUSH1 0x60 DUP4 ADD CALLDATALOAD SWAP1 DUP2 ISZERO ISZERO DUP3 SUB PUSH2 0x3C7 JUMPI DUP3 PUSH1 0x20 SWAP3 DUP4 PUSH1 0x80 SWAP6 ADD MSTORE DUP2 MSTORE ADD SWAP2 ADD SWAP1 PUSH2 0x509 JUMP JUMPDEST SWAP1 DUP1 PUSH1 0x1F DUP4 ADD SLT ISZERO PUSH2 0x3C7 JUMPI DUP2 PUSH1 0x20 PUSH2 0x589 SWAP4 CALLDATALOAD SWAP2 ADD PUSH2 0x490 JUMP JUMPDEST SWAP1 JUMP JUMPDEST DUP2 PUSH1 0x1F DUP3 ADD SLT ISZERO PUSH2 0x3C7 JUMPI DUP1 CALLDATALOAD PUSH2 0x5A2 DUP2 PUSH2 0x41E JUMP JUMPDEST SWAP3 PUSH2 0x5B0 PUSH1 0x40 MLOAD SWAP5 DUP6 PUSH2 0x3FD JUMP JUMPDEST DUP2 DUP5 MSTORE PUSH1 0x20 PUSH1 0x60 DUP2 DUP7 ADD SWAP4 MUL DUP5 ADD ADD SWAP3 DUP2 DUP5 GT PUSH2 0x3C7 JUMPI PUSH1 0x20 ADD SWAP2 JUMPDEST DUP4 DUP4 LT PUSH2 0x5DA JUMPI POP POP POP POP SWAP1 JUMP JUMPDEST PUSH1 0x20 PUSH1 0x60 SWAP2 PUSH2 0x5E9 DUP5 DUP7 PUSH2 0x435 JUMP JUMPDEST DUP2 MSTORE ADD SWAP3 ADD SWAP2 PUSH2 0x5CC JUMP JUMPDEST SWAP1 PUSH1 0xC0 PUSH1 0x3 NOT DUP4 ADD SLT PUSH2 0x3C7 JUMPI PUSH1 0x4 CALLDATALOAD PUSH1 0x1 PUSH1 0x1 PUSH1 0xA0 SHL SUB DUP2 AND DUP2 SUB PUSH2 0x3C7 JUMPI SWAP2 PUSH1 0x24 CALLDATALOAD PUSH1 0x1 PUSH1 0x1 PUSH1 0x40 SHL SUB DUP2 GT PUSH2 0x3C7 JUMPI DUP2 PUSH1 0x23 DUP3 ADD SLT ISZERO PUSH2 0x3C7 JUMPI DUP1 PUSH1 0x4 ADD CALLDATALOAD SWAP1 PUSH2 0x640 DUP3 PUSH2 0x41E JUMP JUMPDEST SWAP2 PUSH2 0x64E PUSH1 0x40 MLOAD SWAP4 DUP5 PUSH2 0x3FD JUMP JUMPDEST DUP1 DUP4 MSTORE PUSH1 0x24 PUSH1 0x20 DUP5 ADD SWAP2 PUSH1 0x5 SHL DUP4 ADD ADD SWAP2 DUP5 DUP4 GT PUSH2 0x3C7 JUMPI PUSH1 0x24 DUP2 ADD SWAP2 JUMPDEST DUP4 DUP4 LT PUSH2 0x6E8 JUMPI POP POP POP POP SWAP2 PUSH1 0x44 CALLDATALOAD PUSH1 0x1 PUSH1 0x1 PUSH1 0x40 SHL SUB DUP2 GT PUSH2 0x3C7 JUMPI DUP3 PUSH2 0x696 SWAP2 PUSH1 0x4 ADD PUSH2 0x4C7 JUMP JUMPDEST SWAP2 PUSH1 0x64 CALLDATALOAD PUSH1 0x1 PUSH1 0x1 PUSH1 0xA0 SHL SUB DUP2 AND DUP2 SUB PUSH2 0x3C7 JUMPI SWAP2 PUSH1 0x84 CALLDATALOAD PUSH1 0x1 PUSH1 0x1 PUSH1 0x40 SHL SUB DUP2 GT PUSH2 0x3C7 JUMPI DUP3 PUSH2 0x6C9 SWAP2 PUSH1 0x4 ADD PUSH2 0x56E JUMP JUMPDEST SWAP2 PUSH1 0xA4 CALLDATALOAD SWAP1 PUSH1 0x1 PUSH1 0x1 PUSH1 0x40 SHL SUB DUP3 GT PUSH2 0x3C7 JUMPI PUSH2 0x589 SWAP2 PUSH1 0x4 ADD PUSH2 0x58C JUMP JUMPDEST DUP3 CALLDATALOAD PUSH1 0x1 PUSH1 0x1 PUSH1 0x40 SHL SUB DUP2 GT PUSH2 0x3C7 JUMPI DUP3 ADD SWAP1 PUSH1 0xA0 DUP3 DUP9 SUB PUSH1 0x23 NOT ADD SLT PUSH2 0x3C7 JUMPI PUSH1 0x40 MLOAD SWAP2 PUSH2 0x716 DUP4 PUSH2 0x3CC JUMP JUMPDEST PUSH2 0x723 DUP9 PUSH1 0x24 DUP4 ADD PUSH2 0x435 JUMP JUMPDEST DUP4 MSTORE PUSH1 0x84 DUP2 ADD CALLDATALOAD PUSH1 0x1 PUSH1 0x1 PUSH1 0x40 SHL SUB DUP2 GT PUSH2 0x3C7 JUMPI PUSH1 0x24 SWAP1 DUP3 ADD ADD SWAP1 DUP9 PUSH1 0x1F DUP4 ADD SLT ISZERO PUSH2 0x3C7 JUMPI PUSH2 0x75C DUP10 DUP4 PUSH1 0x20 PUSH1 0xA4 SWAP6 CALLDATALOAD SWAP2 ADD PUSH2 0x490 JUMP JUMPDEST PUSH1 0x20 DUP6 ADD MSTORE ADD CALLDATALOAD SWAP1 PUSH1 0xFF DUP3 AND DUP3 SUB PUSH2 0x3C7 JUMPI DUP3 PUSH1 0x20 SWAP4 SWAP3 PUSH1 0x40 DUP6 SWAP5 ADD MSTORE DUP2 MSTORE ADD SWAP3 ADD SWAP2 PUSH2 0x66C JUMP JUMPDEST PUSH1 0x0 JUMPDEST DUP4 DUP2 LT PUSH2 0x797 JUMPI POP POP PUSH1 0x0 SWAP2 ADD MSTORE JUMP JUMPDEST DUP2 DUP2 ADD MLOAD DUP4 DUP3 ADD MSTORE PUSH1 0x20 ADD PUSH2 0x787 JUMP JUMPDEST SWAP1 PUSH1 0x20 SWAP2 PUSH2 0x7C0 DUP2 MLOAD DUP1 SWAP3 DUP2 DUP6 MSTORE DUP6 DUP1 DUP7 ADD SWAP2 ADD PUSH2 0x784 JUMP JUMPDEST PUSH1 0x1F ADD PUSH1 0x1F NOT AND ADD ADD SWAP1 JUMP JUMPDEST SWAP1 PUSH1 0xC0 PUSH1 0x3 NOT DUP4 ADD SLT PUSH2 0x3C7 JUMPI PUSH1 0x4 CALLDATALOAD PUSH1 0x1 PUSH1 0x1 PUSH1 0xA0 SHL SUB DUP2 AND DUP2 SUB PUSH2 0x3C7 JUMPI SWAP2 PUSH1 0x24 CALLDATALOAD PUSH1 0x1 PUSH1 0x1 PUSH1 0x40 SHL SUB DUP2 GT PUSH2 0x3C7 JUMPI DUP2 PUSH2 0x80B SWAP2 PUSH1 0x4 ADD PUSH2 0x58C JUMP JUMPDEST SWAP2 PUSH1 0x44 CALLDATALOAD PUSH1 0x1 PUSH1 0x1 PUSH1 0x40 SHL SUB DUP2 GT PUSH2 0x3C7 JUMPI DUP3 PUSH2 0x696 SWAP2 PUSH1 0x4 ADD PUSH2 0x4C7 JUMP JUMPDEST DUP1 MLOAD DUP3 LT ISZERO PUSH2 0x83E JUMPI PUSH1 0x20 SWAP2 PUSH1 0x5 SHL ADD ADD SWAP1 JUMP JUMPDEST PUSH4 0x4E487B71 PUSH1 0xE0 SHL PUSH1 0x0 MSTORE PUSH1 0x32 PUSH1 0x4 MSTORE PUSH1 0x24 PUSH1 0x0 REVERT JUMPDEST SWAP1 DUP2 PUSH1 0x20 SWAP2 SUB SLT PUSH2 0x3C7 JUMPI MLOAD DUP1 ISZERO ISZERO DUP2 SUB PUSH2 0x3C7 JUMPI SWAP1 JUMP JUMPDEST SWAP1 SWAP3 SWAP2 SWAP3 PUSH2 0x879 DUP2 PUSH2 0x475 JUMP JUMPDEST SWAP2 PUSH2 0x887 PUSH1 0x40 MLOAD SWAP4 DUP5 PUSH2 0x3FD JUMP JUMPDEST DUP3 SWAP5 DUP3 DUP5 MSTORE DUP3 DUP3 ADD GT PUSH2 0x3C7 JUMPI PUSH1 0x20 PUSH2 0x8A1 SWAP4 ADD SWAP1 PUSH2 0x784 JUMP JUMPDEST JUMP JUMPDEST PUSH1 0x20 DUP2 DUP4 SUB SLT PUSH2 0x3C7 JUMPI DUP1 MLOAD SWAP1 PUSH1 0x1 PUSH1 0x1 PUSH1 0x40 SHL SUB DUP3 GT PUSH2 0x3C7 JUMPI ADD SWAP1 DUP1 PUSH1 0x1F DUP4 ADD SLT ISZERO PUSH2 0x3C7 JUMPI DUP2 MLOAD PUSH2 0x589 SWAP3 PUSH1 0x20 ADD PUSH2 0x86C JUMP JUMPDEST SWAP1 PUSH1 0x20 DUP1 DUP4 MLOAD SWAP3 DUP4 DUP2 MSTORE ADD SWAP3 ADD SWAP1 PUSH1 0x0 JUMPDEST DUP2 DUP2 LT PUSH2 0x8F7 JUMPI POP POP POP SWAP1 JUMP JUMPDEST SWAP1 SWAP2 SWAP3 PUSH1 0x20 PUSH1 0x80 PUSH1 0x1 SWAP3 DUP3 DUP8 MLOAD PUSH2 0x933 DUP4 DUP3 MLOAD PUSH1 0x40 DUP1 SWAP2 PUSH1 0x1 DUP1 PUSH1 0xA0 SHL SUB DUP2 MLOAD AND DUP5 MSTORE PUSH1 0x1 DUP1 PUSH1 0xA0 SHL SUB PUSH1 0x20 DUP3 ADD MLOAD AND PUSH1 0x20 DUP6 ADD MSTORE ADD MLOAD SWAP2 ADD MSTORE JUMP JUMPDEST ADD MLOAD ISZERO ISZERO PUSH1 0x60 DUP3 ADD MSTORE ADD SWAP5 ADD SWAP3 SWAP2 ADD PUSH2 0x8EA JUMP JUMPDEST SWAP1 PUSH1 0x20 DUP1 DUP4 MLOAD SWAP3 DUP4 DUP2 MSTORE ADD SWAP3 ADD SWAP1 PUSH1 0x0 JUMPDEST DUP2 DUP2 LT PUSH2 0x965 JUMPI POP POP POP SWAP1 JUMP JUMPDEST SWAP1 SWAP2 SWAP3 PUSH1 0x20 PUSH1 0x60 DUP3 PUSH2 0x99E PUSH1 0x1 SWAP5 DUP9 MLOAD PUSH1 0x40 DUP1 SWAP2 PUSH1 0x1 DUP1 PUSH1 0xA0 SHL SUB DUP2 MLOAD AND DUP5 MSTORE PUSH1 0x1 DUP1 PUSH1 0xA0 SHL SUB PUSH1 0x20 DUP3 ADD MLOAD AND PUSH1 0x20 DUP6 ADD MSTORE ADD MLOAD SWAP2 ADD MSTORE JUMP JUMPDEST ADD SWAP5 ADD SWAP3 SWAP2 ADD PUSH2 0x958 JUMP JUMPDEST SWAP4 SWAP1 SWAP6 SWAP5 SWAP3 SWAP2 SWAP6 PUSH1 0xA0 DUP6 ADD PUSH1 0xA0 DUP7 MSTORE DUP2 MLOAD DUP1 SWAP2 MSTORE PUSH1 0xC0 DUP7 ADD SWAP1 PUSH1 0x20 PUSH1 0xC0 DUP3 PUSH1 0x5 SHL DUP10 ADD ADD SWAP4 ADD SWAP2 PUSH1 0x0 SWAP1 JUMPDEST DUP3 DUP3 LT PUSH2 0xA25 JUMPI POP POP POP POP SWAP1 PUSH2 0x9FA DUP3 PUSH2 0x589 SWAP8 SWAP9 DUP8 PUSH2 0xA17 SWAP7 SWAP6 SUB PUSH1 0x20 DUP10 ADD MSTORE PUSH2 0x8D9 JUMP JUMPDEST PUSH1 0x1 PUSH1 0x1 PUSH1 0xA0 SHL SUB SWAP1 SWAP3 AND PUSH1 0x40 DUP7 ADD MSTORE DUP5 DUP3 SUB PUSH1 0x60 DUP7 ADD MSTORE PUSH2 0x7A7 JUMP JUMPDEST SWAP2 PUSH1 0x80 DUP2 DUP5 SUB SWAP2 ADD MSTORE PUSH2 0x947 JUMP JUMPDEST SWAP1 SWAP2 SWAP3 SWAP4 PUSH1 0x20 DUP1 PUSH1 0x1 SWAP3 PUSH1 0xBF NOT DUP13 DUP3 SUB ADD DUP6 MSTORE DUP8 MLOAD SWAP1 PUSH2 0xA6A DUP2 DUP4 MLOAD PUSH1 0x40 DUP1 SWAP2 PUSH1 0x1 DUP1 PUSH1 0xA0 SHL SUB DUP2 MLOAD AND DUP5 MSTORE PUSH1 0x1 DUP1 PUSH1 0xA0 SHL SUB PUSH1 0x20 DUP3 ADD MLOAD AND PUSH1 0x20 DUP6 ADD MSTORE ADD MLOAD SWAP2 ADD MSTORE JUMP JUMPDEST PUSH1 0x80 PUSH1 0xFF PUSH1 0x40 PUSH2 0xA88 DUP7 DUP7 ADD MLOAD PUSH1 0xA0 PUSH1 0x60 DUP8 ADD MSTORE PUSH1 0xA0 DUP7 ADD SWAP1 PUSH2 0x7A7 JUMP JUMPDEST SWAP5 ADD MLOAD AND SWAP2 ADD MSTORE SWAP7 ADD SWAP3 ADD SWAP3 ADD SWAP1 SWAP3 SWAP2 PUSH2 0x9D4 JUMP JUMPDEST SWAP4 PUSH2 0x9FA PUSH2 0xA17 SWAP4 PUSH2 0xABC PUSH2 0x589 SWAP9 SWAP7 SWAP5 PUSH1 0xA0 DUP10 MSTORE PUSH1 0xA0 DUP10 ADD SWAP1 PUSH2 0x947 JUMP JUMPDEST SWAP1 DUP8 DUP3 SUB PUSH1 0x20 DUP10 ADD MSTORE PUSH2 0x8D9 JUMP JUMPDEST DUP1 MLOAD PUSH1 0x20 ADD MLOAD PUSH1 0x1 PUSH1 0x1 PUSH1 0xA0 SHL SUB AND DUP1 PUSH2 0xBE9 JUMPI POP PUSH1 0x40 MLOAD PUSH2 0xAED PUSH1 0x40 DUP3 PUSH2 0x3FD JUMP JUMPDEST PUSH1 0x3 DUP2 MSTORE PUSH3 0x8AA89 PUSH1 0xEB SHL PUSH1 0x20 DUP3 ADD MSTORE PUSH1 0x12 JUMPDEST PUSH1 0x40 MLOAD PUSH1 0x20 DUP2 ADD SWAP1 PUSH2 0xB2E PUSH1 0x20 DUP3 DUP7 MLOAD PUSH2 0xB1D DUP2 DUP8 DUP6 DUP12 ADD PUSH2 0x784 JUMP JUMPDEST DUP2 ADD SUB ADD PUSH1 0x1F NOT DUP2 ADD DUP4 MSTORE DUP3 PUSH2 0x3FD JUMP JUMPDEST MLOAD SWAP1 KECCAK256 SWAP2 PUSH1 0x20 DUP5 ADD SWAP3 DUP4 MLOAD PUSH1 0x40 MLOAD PUSH2 0xB56 PUSH1 0x20 DUP3 DUP2 PUSH2 0xB1D DUP2 DUP4 ADD SWAP7 DUP8 DUP2 MLOAD SWAP4 DUP5 SWAP3 ADD PUSH2 0x784 JUMP JUMPDEST MLOAD SWAP1 KECCAK256 EQ DUP1 ISZERO SWAP1 PUSH2 0xBD5 JUMPI JUMPDEST PUSH2 0xB6C JUMPI POP POP POP POP JUMP JUMPDEST PUSH2 0xBCA PUSH1 0xFF SWAP2 DUP3 PUSH1 0x40 PUSH1 0x1 DUP1 PUSH1 0xA0 SHL SUB PUSH1 0x20 DUP10 MLOAD ADD MLOAD AND SWAP7 MLOAD SWAP8 ADD MLOAD AND SWAP1 PUSH2 0xBB3 PUSH1 0x40 MLOAD SWAP8 DUP9 SWAP8 PUSH4 0x55918519 PUSH1 0xE0 SHL DUP10 MSTORE PUSH1 0x4 DUP10 ADD MSTORE PUSH1 0xA0 PUSH1 0x24 DUP10 ADD MSTORE PUSH1 0xA4 DUP9 ADD SWAP1 PUSH2 0x7A7 JUMP JUMPDEST SWAP2 PUSH1 0x44 DUP8 ADD MSTORE PUSH1 0x3 NOT DUP7 DUP4 SUB ADD PUSH1 0x64 DUP8 ADD MSTORE PUSH2 0x7A7 JUMP JUMPDEST SWAP2 AND PUSH1 0x84 DUP4 ADD MSTORE SUB SWAP1 REVERT JUMPDEST POP PUSH1 0xFF PUSH1 0x40 DUP6 ADD MLOAD AND PUSH1 0xFF DUP4 AND EQ ISZERO PUSH2 0xB62 JUMP JUMPDEST PUSH1 0x0 PUSH1 0x4 SWAP2 PUSH1 0x40 MLOAD SWAP3 DUP4 DUP1 SWAP3 PUSH4 0x95D89B41 PUSH1 0xE0 SHL DUP3 MSTORE GAS STATICCALL SWAP1 DUP2 ISZERO PUSH2 0x113 JUMPI PUSH1 0x0 SWAP2 PUSH2 0xC92 JUMPI JUMPDEST POP DUP2 MLOAD PUSH1 0x20 SWAP1 DUP2 ADD MLOAD PUSH1 0x40 MLOAD PUSH4 0x313CE567 PUSH1 0xE0 SHL DUP2 MSTORE SWAP2 SWAP1 DUP3 SWAP1 PUSH1 0x4 SWAP1 DUP3 SWAP1 PUSH1 0x1 PUSH1 0x1 PUSH1 0xA0 SHL SUB AND GAS STATICCALL SWAP1 DUP2 ISZERO PUSH2 0x113 JUMPI PUSH1 0x0 SWAP2 PUSH2 0xC4F JUMPI JUMPDEST POP PUSH2 0xB00 JUMP JUMPDEST PUSH1 0x20 DUP2 RETURNDATASIZE PUSH1 0x20 GT PUSH2 0xC8A JUMPI JUMPDEST DUP2 PUSH2 0xC68 PUSH1 0x20 SWAP4 DUP4 PUSH2 0x3FD JUMP JUMPDEST DUP2 ADD SUB SLT PUSH2 0xC86 JUMPI MLOAD SWAP1 PUSH1 0xFF DUP3 AND DUP3 SUB PUSH2 0xC83 JUMPI POP CODESIZE PUSH2 0xC49 JUMP JUMPDEST DUP1 REVERT JUMPDEST POP DUP1 REVERT JUMPDEST RETURNDATASIZE SWAP2 POP PUSH2 0xC5B JUMP JUMPDEST SWAP1 RETURNDATASIZE DUP1 DUP3 DUP5 RETURNDATACOPY PUSH2 0xCA2 DUP2 DUP5 PUSH2 0x3FD JUMP JUMPDEST DUP3 ADD SWAP2 PUSH1 0x20 DUP2 DUP5 SUB SLT PUSH2 0xC86 JUMPI DUP1 MLOAD SWAP1 PUSH1 0x1 PUSH1 0x1 PUSH1 0x40 SHL SUB DUP3 GT PUSH2 0xCE3 JUMPI ADD SWAP1 DUP3 PUSH1 0x1F DUP4 ADD SLT ISZERO PUSH2 0xC83 JUMPI POP DUP1 MLOAD PUSH2 0xCDD SWAP3 SWAP2 PUSH1 0x20 ADD PUSH2 0x86C JUMP JUMPDEST CODESIZE PUSH2 0xC10 JUMP JUMPDEST DUP3 DUP1 REVERT INVALID LOG2 PUSH5 0x6970667358 0x22 SLT KECCAK256 SMOD 0xD0 DUP4 0x2B 0xD4 0xEE 0x23 BLOCKHASH LOG3 0xAB NOT SWAP8 SWAP13 PUSH15 0x6736651853001D212BF7A3DCAF1B7F 0xEE 0xB1 0xBE PUSH5 0x736F6C6343 STOP ADDMOD SHL STOP CALLER "
        },
        "methodIdentifiers": {
          "approveProxyCall(address,(address,address,int256)[],((address,address,int256),bool)[],address,bytes,(address,address,int256)[])": "e5d77b3c",
          "approveProxyCallDiffs(address,(address,address,int256)[],((address,address,int256),bool)[],address,bytes,(address,address,int256)[])": "c6707270",
          "approveProxyCallDiffsWithMeta(address,((address,address,int256),string,uint8)[],((address,address,int256),bool)[],address,bytes,(address,address,int256)[])": "b3375fd6",
          "approveProxyCallWithMeta(address,((address,address,int256),string,uint8)[],((address,address,int256),bool)[],address,bytes,(address,address,int256)[])": "d82199ff"
        }
      },
      "userdoc": {
        "errors": {
          "InvalidMetadata(address,string,uint8,string,uint8)": [
            {
              "notice": "Error thrown when metadata doesn't match actual token properties"
            }
          ]
        },
        "kind": "user",
        "methods": {
          "approveProxyCall(address,(address,address,int256)[],((address,address,int256),bool)[],address,bytes,(address,address,int256)[])": {
            "notice": "Execute proxyCall with pre-approved tokens (router as spender)"
          },
          "approveProxyCallDiffs(address,(address,address,int256)[],((address,address,int256),bool)[],address,bytes,(address,address,int256)[])": {
            "notice": "proxyCallDiffs with pre-approved tokens"
          },
          "approveProxyCallDiffsWithMeta(address,((address,address,int256),string,uint8)[],((address,address,int256),bool)[],address,bytes,(address,address,int256)[])": {
            "notice": "proxyCallDiffs with pre-approved tokens and calldata metadata (metadata is ignored on-chain)"
          },
          "approveProxyCallWithMeta(address,((address,address,int256),string,uint8)[],((address,address,int256),bool)[],address,bytes,(address,address,int256)[])": {
            "notice": "Execute proxyCall with pre-approved tokens and calldata metadata (metadata is ignored on-chain)"
          }
        },
        "notice": "Handles allowance + pull tokens then delegates to BalanceProxy core",
        "version": 1
      }
    }
  }
}