{
  "contracts/mocks/ReenterTargetMock.sol": {
    "ReenterTargetMock": {
      "abi": [
        {
          "inputs": [
            {
              "internalType": "address",
              "name": "_proxy",
              "type": "address"
            }
          ],
          "stateMutability": "nonpayable",
          "type": "constructor"
        },
        {
          "stateMutability": "payable",
          "type": "fallback"
        },
        {
          "inputs": [],
          "name": "attack",
          "outputs": [],
          "stateMutability": "nonpayable",
          "type": "function"
        },
        {
          "inputs": [],
          "name": "proxy",
          "outputs": [
            {
              "internalType": "contract IBalanceProxy",
              "name": "",
              "type": "address"
            }
          ],
          "stateMutability": "view",
          "type": "function"
        },
        {
          "stateMutability": "payable",
          "type": "receive"
        }
      ],
      "devdoc": {
        "kind": "dev",
        "methods": {},
        "version": 1
      },
      "evm": {
        "bytecode": {
          "linkReferences": {},
          "object": "608034607057601f61035938819003918201601f19168301916001600160401b03831184841017607557808492602094604052833981010312607057516001600160a01b03811690819003607057600080546001600160a01b0319169190911790556040516102cd908161008c8239f35b600080fd5b634e487b7160e01b600052604160045260246000fdfe608080604052600436101561001057005b60003560e01c9081639e5faafc1461005d575063ec5568891461002f57005b34610058576000366003190112610058576000546040516001600160a01b039091168152602090f35b600080fd5b346100585760003660031901126100585760005463ce9506f960e01b825260a060048301526001600160a01b03168161009860a48201610235565b600319828203016024830152602060605191828152019060809060005b8181106101bf5750505091816000816100ef60208397306044850152601c8482036003198101606487015286835201608485015201610235565b03925af180156101b3576100ff57005b3d806000833e61010f8183610213565b8101906020818303126100585780519067ffffffffffffffff821161005857019080601f830112156100585781519067ffffffffffffffff821161019d5760405190610165601f8401601f191660200183610213565b828252602083850101116100585760005b82811061018857506000910160200152005b80602080928601015182828501015201610176565b634e487b7160e01b600052604160045260246000fd5b6040513d6000823e3d90fd5b91935091602060806001928287516101fc8382516040809160018060a01b03815116845260018060a01b0360208201511660208501520151910152565b0151151560608201520194019101918593926100b5565b90601f8019910116810190811067ffffffffffffffff82111761019d57604052565b602060605191828152019060809060005b8181106102535750505090565b909192602060608261028c60019488516040809160018060a01b03815116845260018060a01b0360208201511660208501520151910152565b01940192910161024656fea26469706673582212208ef8a0446379472e9c2c700348d812569a4fcd1a27e489176976d440b4cd959864736f6c634300081b0033",
          "opcodes": "PUSH1 0x80 CALLVALUE PUSH1 0x70 JUMPI PUSH1 0x1F PUSH2 0x359 CODESIZE DUP2 SWAP1 SUB SWAP2 DUP3 ADD PUSH1 0x1F NOT AND DUP4 ADD SWAP2 PUSH1 0x1 PUSH1 0x1 PUSH1 0x40 SHL SUB DUP4 GT DUP5 DUP5 LT OR PUSH1 0x75 JUMPI DUP1 DUP5 SWAP3 PUSH1 0x20 SWAP5 PUSH1 0x40 MSTORE DUP4 CODECOPY DUP2 ADD SUB SLT PUSH1 0x70 JUMPI MLOAD PUSH1 0x1 PUSH1 0x1 PUSH1 0xA0 SHL SUB DUP2 AND SWAP1 DUP2 SWAP1 SUB PUSH1 0x70 JUMPI PUSH1 0x0 DUP1 SLOAD PUSH1 0x1 PUSH1 0x1 PUSH1 0xA0 SHL SUB NOT AND SWAP2 SWAP1 SWAP2 OR SWAP1 SSTORE PUSH1 0x40 MLOAD PUSH2 0x2CD SWAP1 DUP2 PUSH2 0x8C DUP3 CODECOPY RETURN JUMPDEST PUSH1 0x0 DUP1 REVERT JUMPDEST PUSH4 0x4E487B71 PUSH1 0xE0 SHL PUSH1 0x0 MSTORE PUSH1 0x41 PUSH1 0x4 MSTORE PUSH1 0x24 PUSH1 0x0 REVERT INVALID PUSH1 0x80 DUP1 PUSH1 0x40 MSTORE PUSH1 0x4 CALLDATASIZE LT ISZERO PUSH2 0x10 JUMPI STOP JUMPDEST PUSH1 0x0 CALLDATALOAD PUSH1 0xE0 SHR SWAP1 DUP2 PUSH4 0x9E5FAAFC EQ PUSH2 0x5D JUMPI POP PUSH4 0xEC556889 EQ PUSH2 0x2F JUMPI STOP JUMPDEST CALLVALUE PUSH2 0x58 JUMPI PUSH1 0x0 CALLDATASIZE PUSH1 0x3 NOT ADD SLT PUSH2 0x58 JUMPI PUSH1 0x0 SLOAD PUSH1 0x40 MLOAD PUSH1 0x1 PUSH1 0x1 PUSH1 0xA0 SHL SUB SWAP1 SWAP2 AND DUP2 MSTORE PUSH1 0x20 SWAP1 RETURN JUMPDEST PUSH1 0x0 DUP1 REVERT JUMPDEST CALLVALUE PUSH2 0x58 JUMPI PUSH1 0x0 CALLDATASIZE PUSH1 0x3 NOT ADD SLT PUSH2 0x58 JUMPI PUSH1 0x0 SLOAD PUSH4 0xCE9506F9 PUSH1 0xE0 SHL DUP3 MSTORE PUSH1 0xA0 PUSH1 0x4 DUP4 ADD MSTORE PUSH1 0x1 PUSH1 0x1 PUSH1 0xA0 SHL SUB AND DUP2 PUSH2 0x98 PUSH1 0xA4 DUP3 ADD PUSH2 0x235 JUMP JUMPDEST PUSH1 0x3 NOT DUP3 DUP3 SUB ADD PUSH1 0x24 DUP4 ADD MSTORE PUSH1 0x20 PUSH1 0x60 MLOAD SWAP2 DUP3 DUP2 MSTORE ADD SWAP1 PUSH1 0x80 SWAP1 PUSH1 0x0 JUMPDEST DUP2 DUP2 LT PUSH2 0x1BF JUMPI POP POP POP SWAP2 DUP2 PUSH1 0x0 DUP2 PUSH2 0xEF PUSH1 0x20 DUP4 SWAP8 ADDRESS PUSH1 0x44 DUP6 ADD MSTORE PUSH1 0x1C DUP5 DUP3 SUB PUSH1 0x3 NOT DUP2 ADD PUSH1 0x64 DUP8 ADD MSTORE DUP7 DUP4 MSTORE ADD PUSH1 0x84 DUP6 ADD MSTORE ADD PUSH2 0x235 JUMP JUMPDEST SUB SWAP3 GAS CALL DUP1 ISZERO PUSH2 0x1B3 JUMPI PUSH2 0xFF JUMPI STOP JUMPDEST RETURNDATASIZE DUP1 PUSH1 0x0 DUP4 RETURNDATACOPY PUSH2 0x10F DUP2 DUP4 PUSH2 0x213 JUMP JUMPDEST DUP2 ADD SWAP1 PUSH1 0x20 DUP2 DUP4 SUB SLT PUSH2 0x58 JUMPI DUP1 MLOAD SWAP1 PUSH8 0xFFFFFFFFFFFFFFFF DUP3 GT PUSH2 0x58 JUMPI ADD SWAP1 DUP1 PUSH1 0x1F DUP4 ADD SLT ISZERO PUSH2 0x58 JUMPI DUP2 MLOAD SWAP1 PUSH8 0xFFFFFFFFFFFFFFFF DUP3 GT PUSH2 0x19D JUMPI PUSH1 0x40 MLOAD SWAP1 PUSH2 0x165 PUSH1 0x1F DUP5 ADD PUSH1 0x1F NOT AND PUSH1 0x20 ADD DUP4 PUSH2 0x213 JUMP JUMPDEST DUP3 DUP3 MSTORE PUSH1 0x20 DUP4 DUP6 ADD ADD GT PUSH2 0x58 JUMPI PUSH1 0x0 JUMPDEST DUP3 DUP2 LT PUSH2 0x188 JUMPI POP PUSH1 0x0 SWAP2 ADD PUSH1 0x20 ADD MSTORE STOP JUMPDEST DUP1 PUSH1 0x20 DUP1 SWAP3 DUP7 ADD ADD MLOAD DUP3 DUP3 DUP6 ADD ADD MSTORE ADD PUSH2 0x176 JUMP JUMPDEST PUSH4 0x4E487B71 PUSH1 0xE0 SHL PUSH1 0x0 MSTORE PUSH1 0x41 PUSH1 0x4 MSTORE PUSH1 0x24 PUSH1 0x0 REVERT JUMPDEST PUSH1 0x40 MLOAD RETURNDATASIZE PUSH1 0x0 DUP3 RETURNDATACOPY RETURNDATASIZE SWAP1 REVERT JUMPDEST SWAP2 SWAP4 POP SWAP2 PUSH1 0x20 PUSH1 0x80 PUSH1 0x1 SWAP3 DUP3 DUP8 MLOAD PUSH2 0x1FC DUP4 DUP3 MLOAD PUSH1 0x40 DUP1 SWAP2 PUSH1 0x1 DUP1 PUSH1 0xA0 SHL SUB DUP2 MLOAD AND DUP5 MSTORE PUSH1 0x1 DUP1 PUSH1 0xA0 SHL SUB PUSH1 0x20 DUP3 ADD MLOAD AND PUSH1 0x20 DUP6 ADD MSTORE ADD MLOAD SWAP2 ADD MSTORE JUMP JUMPDEST ADD MLOAD ISZERO ISZERO PUSH1 0x60 DUP3 ADD MSTORE ADD SWAP5 ADD SWAP2 ADD SWAP2 DUP6 SWAP4 SWAP3 PUSH2 0xB5 JUMP JUMPDEST SWAP1 PUSH1 0x1F DUP1 NOT SWAP2 ADD AND DUP2 ADD SWAP1 DUP2 LT PUSH8 0xFFFFFFFFFFFFFFFF DUP3 GT OR PUSH2 0x19D JUMPI PUSH1 0x40 MSTORE JUMP JUMPDEST PUSH1 0x20 PUSH1 0x60 MLOAD SWAP2 DUP3 DUP2 MSTORE ADD SWAP1 PUSH1 0x80 SWAP1 PUSH1 0x0 JUMPDEST DUP2 DUP2 LT PUSH2 0x253 JUMPI POP POP POP SWAP1 JUMP JUMPDEST SWAP1 SWAP2 SWAP3 PUSH1 0x20 PUSH1 0x60 DUP3 PUSH2 0x28C PUSH1 0x1 SWAP5 DUP9 MLOAD PUSH1 0x40 DUP1 SWAP2 PUSH1 0x1 DUP1 PUSH1 0xA0 SHL SUB DUP2 MLOAD AND DUP5 MSTORE PUSH1 0x1 DUP1 PUSH1 0xA0 SHL SUB PUSH1 0x20 DUP3 ADD MLOAD AND PUSH1 0x20 DUP6 ADD MSTORE ADD MLOAD SWAP2 ADD MSTORE JUMP JUMPDEST ADD SWAP5 ADD SWAP3 SWAP2 ADD PUSH2 0x246 JUMP INVALID LOG2 PUSH5 0x6970667358 0x22 SLT KECCAK256 DUP15 0xF8 LOG0 PREVRANDAO PUSH4 0x79472E9C 0x2C PUSH17 0x348D812569A4FCD1A27E489176976D440 0xB4 0xCD SWAP6 SWAP9 PUSH5 0x736F6C6343 STOP ADDMOD SHL STOP CALLER "
        },
        "methodIdentifiers": {
          "attack()": "9e5faafc",
          "proxy()": "ec556889"
        }
      },
      "userdoc": {
        "kind": "user",
        "methods": {},
        "version": 1
      }
    }
  }
}