{
  "contracts/PermitRouter.sol": {
    "PermitRouter": {
      "abi": [
        {
          "inputs": [
            {
              "internalType": "address",
              "name": "token",
              "type": "address"
            },
            {
              "internalType": "string",
              "name": "expectedSymbol",
              "type": "string"
            },
            {
              "internalType": "uint8",
              "name": "expectedDecimals",
              "type": "uint8"
            },
            {
              "internalType": "string",
              "name": "actualSymbol",
              "type": "string"
            },
            {
              "internalType": "uint8",
              "name": "actualDecimals",
              "type": "uint8"
            }
          ],
          "name": "InvalidMetadata",
          "type": "error"
        },
        {
          "inputs": [
            {
              "internalType": "uint256",
              "name": "permitsLength",
              "type": "uint256"
            },
            {
              "internalType": "uint256",
              "name": "approvalsLength",
              "type": "uint256"
            }
          ],
          "name": "PermitsLengthMismatch",
          "type": "error"
        },
        {
          "inputs": [
            {
              "internalType": "contract IBalanceProxy",
              "name": "balanceProxy",
              "type": "address"
            },
            {
              "components": [
                {
                  "internalType": "address",
                  "name": "target",
                  "type": "address"
                },
                {
                  "internalType": "address",
                  "name": "token",
                  "type": "address"
                },
                {
                  "internalType": "int256",
                  "name": "balance",
                  "type": "int256"
                }
              ],
              "internalType": "struct IBalanceProxy.Balance[]",
              "name": "postBalances",
              "type": "tuple[]"
            },
            {
              "components": [
                {
                  "components": [
                    {
                      "internalType": "address",
                      "name": "target",
                      "type": "address"
                    },
                    {
                      "internalType": "address",
                      "name": "token",
                      "type": "address"
                    },
                    {
                      "internalType": "int256",
                      "name": "balance",
                      "type": "int256"
                    }
                  ],
                  "internalType": "struct IBalanceProxy.Balance",
                  "name": "balance",
                  "type": "tuple"
                },
                {
                  "internalType": "bool",
                  "name": "useTransfer",
                  "type": "bool"
                }
              ],
              "internalType": "struct IBalanceProxy.Approval[]",
              "name": "approvals",
              "type": "tuple[]"
            },
            {
              "components": [
                {
                  "internalType": "uint256",
                  "name": "deadline",
                  "type": "uint256"
                },
                {
                  "internalType": "uint8",
                  "name": "v",
                  "type": "uint8"
                },
                {
                  "internalType": "bytes32",
                  "name": "r",
                  "type": "bytes32"
                },
                {
                  "internalType": "bytes32",
                  "name": "s",
                  "type": "bytes32"
                }
              ],
              "internalType": "struct PermitData[]",
              "name": "permits",
              "type": "tuple[]"
            },
            {
              "internalType": "address",
              "name": "target",
              "type": "address"
            },
            {
              "internalType": "bytes",
              "name": "data",
              "type": "bytes"
            },
            {
              "components": [
                {
                  "internalType": "address",
                  "name": "target",
                  "type": "address"
                },
                {
                  "internalType": "address",
                  "name": "token",
                  "type": "address"
                },
                {
                  "internalType": "int256",
                  "name": "balance",
                  "type": "int256"
                }
              ],
              "internalType": "struct IBalanceProxy.Balance[]",
              "name": "withdrawals",
              "type": "tuple[]"
            }
          ],
          "name": "permitProxyCall",
          "outputs": [
            {
              "internalType": "bytes",
              "name": "",
              "type": "bytes"
            }
          ],
          "stateMutability": "payable",
          "type": "function"
        },
        {
          "inputs": [
            {
              "internalType": "contract IBalanceProxy",
              "name": "balanceProxy",
              "type": "address"
            },
            {
              "components": [
                {
                  "internalType": "address",
                  "name": "target",
                  "type": "address"
                },
                {
                  "internalType": "address",
                  "name": "token",
                  "type": "address"
                },
                {
                  "internalType": "int256",
                  "name": "balance",
                  "type": "int256"
                }
              ],
              "internalType": "struct IBalanceProxy.Balance[]",
              "name": "diffs",
              "type": "tuple[]"
            },
            {
              "components": [
                {
                  "components": [
                    {
                      "internalType": "address",
                      "name": "target",
                      "type": "address"
                    },
                    {
                      "internalType": "address",
                      "name": "token",
                      "type": "address"
                    },
                    {
                      "internalType": "int256",
                      "name": "balance",
                      "type": "int256"
                    }
                  ],
                  "internalType": "struct IBalanceProxy.Balance",
                  "name": "balance",
                  "type": "tuple"
                },
                {
                  "internalType": "bool",
                  "name": "useTransfer",
                  "type": "bool"
                }
              ],
              "internalType": "struct IBalanceProxy.Approval[]",
              "name": "approvals",
              "type": "tuple[]"
            },
            {
              "components": [
                {
                  "internalType": "uint256",
                  "name": "deadline",
                  "type": "uint256"
                },
                {
                  "internalType": "uint8",
                  "name": "v",
                  "type": "uint8"
                },
                {
                  "internalType": "bytes32",
                  "name": "r",
                  "type": "bytes32"
                },
                {
                  "internalType": "bytes32",
                  "name": "s",
                  "type": "bytes32"
                }
              ],
              "internalType": "struct PermitData[]",
              "name": "permits",
              "type": "tuple[]"
            },
            {
              "internalType": "address",
              "name": "target",
              "type": "address"
            },
            {
              "internalType": "bytes",
              "name": "data",
              "type": "bytes"
            },
            {
              "components": [
                {
                  "internalType": "address",
                  "name": "target",
                  "type": "address"
                },
                {
                  "internalType": "address",
                  "name": "token",
                  "type": "address"
                },
                {
                  "internalType": "int256",
                  "name": "balance",
                  "type": "int256"
                }
              ],
              "internalType": "struct IBalanceProxy.Balance[]",
              "name": "withdrawals",
              "type": "tuple[]"
            }
          ],
          "name": "permitProxyCallDiffs",
          "outputs": [
            {
              "internalType": "bytes",
              "name": "",
              "type": "bytes"
            }
          ],
          "stateMutability": "payable",
          "type": "function"
        },
        {
          "inputs": [
            {
              "internalType": "contract IBalanceProxy",
              "name": "balanceProxy",
              "type": "address"
            },
            {
              "components": [
                {
                  "components": [
                    {
                      "internalType": "address",
                      "name": "target",
                      "type": "address"
                    },
                    {
                      "internalType": "address",
                      "name": "token",
                      "type": "address"
                    },
                    {
                      "internalType": "int256",
                      "name": "balance",
                      "type": "int256"
                    }
                  ],
                  "internalType": "struct IBalanceProxy.Balance",
                  "name": "balance",
                  "type": "tuple"
                },
                {
                  "internalType": "string",
                  "name": "symbol",
                  "type": "string"
                },
                {
                  "internalType": "uint8",
                  "name": "decimals",
                  "type": "uint8"
                }
              ],
              "internalType": "struct BalanceMetadata[]",
              "name": "meta",
              "type": "tuple[]"
            },
            {
              "components": [
                {
                  "components": [
                    {
                      "internalType": "address",
                      "name": "target",
                      "type": "address"
                    },
                    {
                      "internalType": "address",
                      "name": "token",
                      "type": "address"
                    },
                    {
                      "internalType": "int256",
                      "name": "balance",
                      "type": "int256"
                    }
                  ],
                  "internalType": "struct IBalanceProxy.Balance",
                  "name": "balance",
                  "type": "tuple"
                },
                {
                  "internalType": "bool",
                  "name": "useTransfer",
                  "type": "bool"
                }
              ],
              "internalType": "struct IBalanceProxy.Approval[]",
              "name": "approvals",
              "type": "tuple[]"
            },
            {
              "components": [
                {
                  "internalType": "uint256",
                  "name": "deadline",
                  "type": "uint256"
                },
                {
                  "internalType": "uint8",
                  "name": "v",
                  "type": "uint8"
                },
                {
                  "internalType": "bytes32",
                  "name": "r",
                  "type": "bytes32"
                },
                {
                  "internalType": "bytes32",
                  "name": "s",
                  "type": "bytes32"
                }
              ],
              "internalType": "struct PermitData[]",
              "name": "permits",
              "type": "tuple[]"
            },
            {
              "internalType": "address",
              "name": "target",
              "type": "address"
            },
            {
              "internalType": "bytes",
              "name": "data",
              "type": "bytes"
            },
            {
              "components": [
                {
                  "internalType": "address",
                  "name": "target",
                  "type": "address"
                },
                {
                  "internalType": "address",
                  "name": "token",
                  "type": "address"
                },
                {
                  "internalType": "int256",
                  "name": "balance",
                  "type": "int256"
                }
              ],
              "internalType": "struct IBalanceProxy.Balance[]",
              "name": "withdrawals",
              "type": "tuple[]"
            }
          ],
          "name": "permitProxyCallDiffsWithMeta",
          "outputs": [
            {
              "internalType": "bytes",
              "name": "",
              "type": "bytes"
            }
          ],
          "stateMutability": "payable",
          "type": "function"
        },
        {
          "inputs": [
            {
              "internalType": "contract IBalanceProxy",
              "name": "balanceProxy",
              "type": "address"
            },
            {
              "components": [
                {
                  "components": [
                    {
                      "internalType": "address",
                      "name": "target",
                      "type": "address"
                    },
                    {
                      "internalType": "address",
                      "name": "token",
                      "type": "address"
                    },
                    {
                      "internalType": "int256",
                      "name": "balance",
                      "type": "int256"
                    }
                  ],
                  "internalType": "struct IBalanceProxy.Balance",
                  "name": "balance",
                  "type": "tuple"
                },
                {
                  "internalType": "string",
                  "name": "symbol",
                  "type": "string"
                },
                {
                  "internalType": "uint8",
                  "name": "decimals",
                  "type": "uint8"
                }
              ],
              "internalType": "struct BalanceMetadata[]",
              "name": "meta",
              "type": "tuple[]"
            },
            {
              "components": [
                {
                  "components": [
                    {
                      "internalType": "address",
                      "name": "target",
                      "type": "address"
                    },
                    {
                      "internalType": "address",
                      "name": "token",
                      "type": "address"
                    },
                    {
                      "internalType": "int256",
                      "name": "balance",
                      "type": "int256"
                    }
                  ],
                  "internalType": "struct IBalanceProxy.Balance",
                  "name": "balance",
                  "type": "tuple"
                },
                {
                  "internalType": "bool",
                  "name": "useTransfer",
                  "type": "bool"
                }
              ],
              "internalType": "struct IBalanceProxy.Approval[]",
              "name": "approvals",
              "type": "tuple[]"
            },
            {
              "components": [
                {
                  "internalType": "uint256",
                  "name": "deadline",
                  "type": "uint256"
                },
                {
                  "internalType": "uint8",
                  "name": "v",
                  "type": "uint8"
                },
                {
                  "internalType": "bytes32",
                  "name": "r",
                  "type": "bytes32"
                },
                {
                  "internalType": "bytes32",
                  "name": "s",
                  "type": "bytes32"
                }
              ],
              "internalType": "struct PermitData[]",
              "name": "permits",
              "type": "tuple[]"
            },
            {
              "internalType": "address",
              "name": "target",
              "type": "address"
            },
            {
              "internalType": "bytes",
              "name": "data",
              "type": "bytes"
            },
            {
              "components": [
                {
                  "internalType": "address",
                  "name": "target",
                  "type": "address"
                },
                {
                  "internalType": "address",
                  "name": "token",
                  "type": "address"
                },
                {
                  "internalType": "int256",
                  "name": "balance",
                  "type": "int256"
                }
              ],
              "internalType": "struct IBalanceProxy.Balance[]",
              "name": "withdrawals",
              "type": "tuple[]"
            }
          ],
          "name": "permitProxyCallWithMeta",
          "outputs": [
            {
              "internalType": "bytes",
              "name": "",
              "type": "bytes"
            }
          ],
          "stateMutability": "payable",
          "type": "function"
        }
      ],
      "devdoc": {
        "errors": {
          "PermitsLengthMismatch(uint256,uint256)": [
            {
              "params": {
                "approvalsLength": "The length of the approvals array",
                "permitsLength": "The length of the permits array"
              }
            }
          ]
        },
        "kind": "dev",
        "methods": {},
        "title": "PermitRouter",
        "version": 1
      },
      "evm": {
        "bytecode": {
          "linkReferences": {},
          "object": "6080806040523460155761117e908161001b8239f35b600080fdfe6080604052600436101561001257600080fd5b60003560e01c8063029a2053146105a8578063329d0233146104265780633bb77a9d146102465763bf10e28e1461004857600080fd5b610051366109ff565b95928492949591955193815185810361022d57506001600160a01b03169360005b81811061010057505060405163890e3add60e01b8152966000968896879586956100a0955060048701610e0a565b039134905af180156100f4576100cd916000916100d1575b50604051918291602083526020830190610af0565b0390f35b6100ee91503d806000833e6100e6818361074b565b810190610d04565b386100b8565b6040513d6000823e3d90fd5b61010a8186610c4a565b5151906040820151602061011e8387610c4a565b51930180518451602086015160408701516060909701519693949391926001600160a01b03169060ff16813b1561022857600080946101766040519a8b968795869463d505accf60e01b86528b303360048901610c74565b03925af19182156100f4576101cf94602093610217575b50516040516323b872dd60e01b81523360048201526001600160a01b038b81166024830152604482019390935294859290911690829060009082906064820190565b03925af19182156100f4576001926101e9575b5001610072565b6102099060203d8111610210575b610201818361074b565b810190610cb5565b50386101e2565b503d6101f7565b60006102229161074b565b3861018d565b600080fd5b85906341d6d1af60e01b60005260045260245260446000fd5b61024f36610b15565b93600096919395965b875181101561027d57806102776102716001938b610c4a565b51610f2b565b01610258565b508686825193815185810361022d57506001600160a01b03169360005b81811061030f5750506040516369889ec560e11b8152966000968896879586956102c8955060048701610e62565b039134905af180156100f4576100cd916000916102f45750604051918291602083526020830190610af0565b61030991503d806000833e6100e6818361074b565b826100b8565b6103198186610c4a565b5151906040820151602061032d8387610c4a565b51930180518451602086015160408701516060909701519693949391926001600160a01b03169060ff16813b1561022857600080946103856040519a8b968795869463d505accf60e01b86528b303360048901610c74565b03925af19182156100f4576103dd946020936104155750516040516323b872dd60e01b81523360048201526001600160a01b038b81166024830152604482019390935294859290911690829060009082906064820190565b03925af19182156100f4576001926103f7575b500161029a565b61040e9060203d811161021057610201818361074b565b508a6103f0565b60006104209161074b565b8d61018d565b61042f36610b15565b93600096919395965b875181101561045757806104516102716001938b610c4a565b01610438565b508686825193815185810361022d57506001600160a01b03169360005b8181106104a257505060405163086c628560e41b8152966000968896879586956102c8955060048701610e62565b6104ac8186610c4a565b515190604082015160206104c08387610c4a565b51930180518451602086015160408701516060909701519693949391926001600160a01b03169060ff16813b1561022857600080946105186040519a8b968795869463d505accf60e01b86528b303360048901610c74565b03925af19182156100f457610570946020936104155750516040516323b872dd60e01b81523360048201526001600160a01b038b81166024830152604482019390935294859290911690829060009082906064820190565b03925af19182156100f45760019261058a575b5001610474565b6105a19060203d811161021057610201818361074b565b508a610583565b6105b1366109ff565b95928492949591955193815185810361022d57506001600160a01b03169360005b81811061060057505060405163ce9506f960e01b8152966000968896879586956102c8955060048701610e0a565b61060a8186610c4a565b5151906040820151602061061e8387610c4a565b51930180518451602086015160408701516060909701519693949391926001600160a01b03169060ff16813b1561022857600080946106766040519a8b968795869463d505accf60e01b86528b303360048901610c74565b03925af19182156100f4576106ce946020936104155750516040516323b872dd60e01b81523360048201526001600160a01b038b81166024830152604482019390935294859290911690829060009082906064820190565b03925af19182156100f4576001926106e8575b50016105d2565b6106ff9060203d811161021057610201818361074b565b508a6106e1565b35906001600160a01b038216820361022857565b606081019081106001600160401b0382111761073557604052565b634e487b7160e01b600052604160045260246000fd5b90601f801991011681019081106001600160401b0382111761073557604052565b6001600160401b0381116107355760051b60200190565b91908260609103126102285760405161079b8161071a565b60408082946107a981610706565b84526107b760208201610706565b60208501520135910152565b81601f820112156102285780356107d98161076c565b926107e7604051948561074b565b8184526020606081860193028401019281841161022857602001915b838310610811575050505090565b60206060916108208486610783565b815201920191610803565b9080601f83011215610228578135916108438361076c565b92610851604051948561074b565b80845260208085019160071b8301019183831161022857602001905b82821061087b575050505090565b6080828503126102285760405190604082018281106001600160401b03821117610735576040526108ac8584610783565b82526060830135908115158203610228578260209283608095015281520191019061086d565b359060ff8216820361022857565b81601f82011215610228578035906108f78261076c565b92610905604051948561074b565b82845260208085019360071b8301019181831161022857602001925b82841061092f575050505090565b608084830312610228576040519060808201908282106001600160401b03831117610735576080926020926040528635815261096c8388016108d2565b838201526040870135604082015260608701356060820152815201930192610921565b6001600160401b03811161073557601f01601f191660200190565b9291926109b68261098f565b916109c4604051938461074b565b829481845281830111610228578281602093846000960137010152565b9080601f83011215610228578160206109fc933591016109aa565b90565b60e0600319820112610228576004356001600160a01b038116810361022857916024356001600160401b0381116102285782610a3d916004016107c3565b916044356001600160401b0381116102285781610a5c9160040161082b565b916064356001600160401b0381116102285782610a7b916004016108e0565b916084356001600160a01b0381168103610228579160a4356001600160401b0381116102285782610aae916004016109e1565b9160c435906001600160401b038211610228576109fc916004016107c3565b60005b838110610ae05750506000910152565b8181015183820152602001610ad0565b90602091610b0981518092818552858086019101610acd565b601f01601f1916010190565b60e0600319820112610228576004356001600160a01b038116810361022857916024356001600160401b038111610228578260238201121561022857806004013590610b608261076c565b91610b6e604051938461074b565b8083526024602084019160051b830101918583116102285760248101915b838310610bb65750505050916044356001600160401b0381116102285781610a5c9160040161082b565b82356001600160401b0381116102285782019060a082890360231901126102285760405190610be48261071a565b610bf18960248501610783565b825260848301356001600160401b038111610228576024908401019189601f8401121561022857610c3a60a4602095610c308d878980993591016109aa565b86850152016108d2565b6040820152815201920191610b8c565b8051821015610c5e5760209160051b010190565b634e487b7160e01b600052603260045260246000fd5b9360c095919897969360ff9360e087019a60018060a01b0316875260018060a01b031660208701526040860152606085015216608083015260a08201520152565b90816020910312610228575180151581036102285790565b90929192610cda8161098f565b91610ce8604051938461074b565b829482845282820111610228576020610d02930190610acd565b565b602081830312610228578051906001600160401b03821161022857019080601f830112156102285781516109fc92602001610ccd565b906020808351928381520192019060005b818110610d585750505090565b9091926020606082610d9160019488516040809160018060a01b03815116845260018060a01b0360208201511660208501520151910152565b019401929101610d4b565b906020808351928381520192019060005b818110610dba5750505090565b90919260206080600192828751610df68382516040809160018060a01b03815116845260018060a01b0360208201511660208501520151910152565b015115156060820152019401929101610dad565b93610e37610e5493610e296109fc98969460a0895260a0890190610d3a565b908782036020890152610d9c565b6001600160a01b0390921660408601528482036060860152610af0565b916080818403910152610d3a565b9390959492919560a0850160a08652815180915260c0860190602060c08260051b8901019301916000905b828210610eb3575050505090610e37826109fc979887610e549695036020890152610d9c565b9091929360208060019260bf198c8203018552875190610ef88183516040809160018060a01b03815116845260018060a01b0360208201511660208501520151910152565b608060ff6040610f168686015160a0606087015260a0860190610af0565b94015116910152960192019201909291610e8d565b8051602001516001600160a01b03168061104a5750604051610f4e60408261074b565b600381526208aa8960eb1b602082015260125b6040516020810190610f8f6020828651610f7e8187858b01610acd565b81010301601f19810183528261074b565b5190209160208401928351604051610fb760208281610f7e8183019687815193849201610acd565b51902014801590611036575b610fcd5750505050565b61102b60ff9182604060018060a01b036020895101511696519701511690611014604051978897635591851960e01b8952600489015260a0602489015260a4880190610af0565b916044870152600319868303016064870152610af0565b911660848301520390fd5b5060ff60408501511660ff83161415610fc3565b6000600491604051928380926395d89b4160e01b82525afa9081156100f4576000916110f3575b50815160209081015160405163313ce56760e01b81529190829060049082906001600160a01b03165afa9081156100f4576000916110b0575b50610f61565b6020813d6020116110eb575b816110c96020938361074b565b810103126110e757519060ff821682036110e45750386110aa565b80fd5b5080fd5b3d91506110bc565b903d8082843e611103818461074b565b8201916020818403126110e7578051906001600160401b03821161114457019082601f830112156110e45750805161113e9291602001610ccd565b38611071565b8280fdfea26469706673582212208776956ccf897a0065740e785dbb05d302e287cb219557b6da1d9fc7b5e6d6d964736f6c634300081b0033",
          "opcodes": "PUSH1 0x80 DUP1 PUSH1 0x40 MSTORE CALLVALUE PUSH1 0x15 JUMPI PUSH2 0x117E SWAP1 DUP2 PUSH2 0x1B DUP3 CODECOPY RETURN JUMPDEST PUSH1 0x0 DUP1 REVERT INVALID PUSH1 0x80 PUSH1 0x40 MSTORE PUSH1 0x4 CALLDATASIZE LT ISZERO PUSH2 0x12 JUMPI PUSH1 0x0 DUP1 REVERT JUMPDEST PUSH1 0x0 CALLDATALOAD PUSH1 0xE0 SHR DUP1 PUSH4 0x29A2053 EQ PUSH2 0x5A8 JUMPI DUP1 PUSH4 0x329D0233 EQ PUSH2 0x426 JUMPI DUP1 PUSH4 0x3BB77A9D EQ PUSH2 0x246 JUMPI PUSH4 0xBF10E28E EQ PUSH2 0x48 JUMPI PUSH1 0x0 DUP1 REVERT JUMPDEST PUSH2 0x51 CALLDATASIZE PUSH2 0x9FF JUMP JUMPDEST SWAP6 SWAP3 DUP5 SWAP3 SWAP5 SWAP6 SWAP2 SWAP6 MLOAD SWAP4 DUP2 MLOAD DUP6 DUP2 SUB PUSH2 0x22D JUMPI POP PUSH1 0x1 PUSH1 0x1 PUSH1 0xA0 SHL SUB AND SWAP4 PUSH1 0x0 JUMPDEST DUP2 DUP2 LT PUSH2 0x100 JUMPI POP POP PUSH1 0x40 MLOAD PUSH4 0x890E3ADD PUSH1 0xE0 SHL DUP2 MSTORE SWAP7 PUSH1 0x0 SWAP7 DUP9 SWAP7 DUP8 SWAP6 DUP7 SWAP6 PUSH2 0xA0 SWAP6 POP PUSH1 0x4 DUP8 ADD PUSH2 0xE0A JUMP JUMPDEST SUB SWAP2 CALLVALUE SWAP1 GAS CALL DUP1 ISZERO PUSH2 0xF4 JUMPI PUSH2 0xCD SWAP2 PUSH1 0x0 SWAP2 PUSH2 0xD1 JUMPI JUMPDEST POP PUSH1 0x40 MLOAD SWAP2 DUP3 SWAP2 PUSH1 0x20 DUP4 MSTORE PUSH1 0x20 DUP4 ADD SWAP1 PUSH2 0xAF0 JUMP JUMPDEST SUB SWAP1 RETURN JUMPDEST PUSH2 0xEE SWAP2 POP RETURNDATASIZE DUP1 PUSH1 0x0 DUP4 RETURNDATACOPY PUSH2 0xE6 DUP2 DUP4 PUSH2 0x74B JUMP JUMPDEST DUP2 ADD SWAP1 PUSH2 0xD04 JUMP JUMPDEST CODESIZE PUSH2 0xB8 JUMP JUMPDEST PUSH1 0x40 MLOAD RETURNDATASIZE PUSH1 0x0 DUP3 RETURNDATACOPY RETURNDATASIZE SWAP1 REVERT JUMPDEST PUSH2 0x10A DUP2 DUP7 PUSH2 0xC4A JUMP JUMPDEST MLOAD MLOAD SWAP1 PUSH1 0x40 DUP3 ADD MLOAD PUSH1 0x20 PUSH2 0x11E DUP4 DUP8 PUSH2 0xC4A JUMP JUMPDEST MLOAD SWAP4 ADD DUP1 MLOAD DUP5 MLOAD PUSH1 0x20 DUP7 ADD MLOAD PUSH1 0x40 DUP8 ADD MLOAD PUSH1 0x60 SWAP1 SWAP8 ADD MLOAD SWAP7 SWAP4 SWAP5 SWAP4 SWAP2 SWAP3 PUSH1 0x1 PUSH1 0x1 PUSH1 0xA0 SHL SUB AND SWAP1 PUSH1 0xFF AND DUP2 EXTCODESIZE ISZERO PUSH2 0x228 JUMPI PUSH1 0x0 DUP1 SWAP5 PUSH2 0x176 PUSH1 0x40 MLOAD SWAP11 DUP12 SWAP7 DUP8 SWAP6 DUP7 SWAP5 PUSH4 0xD505ACCF PUSH1 0xE0 SHL DUP7 MSTORE DUP12 ADDRESS CALLER PUSH1 0x4 DUP10 ADD PUSH2 0xC74 JUMP JUMPDEST SUB SWAP3 GAS CALL SWAP2 DUP3 ISZERO PUSH2 0xF4 JUMPI PUSH2 0x1CF SWAP5 PUSH1 0x20 SWAP4 PUSH2 0x217 JUMPI JUMPDEST POP MLOAD PUSH1 0x40 MLOAD PUSH4 0x23B872DD PUSH1 0xE0 SHL DUP2 MSTORE CALLER PUSH1 0x4 DUP3 ADD MSTORE PUSH1 0x1 PUSH1 0x1 PUSH1 0xA0 SHL SUB DUP12 DUP2 AND PUSH1 0x24 DUP4 ADD MSTORE PUSH1 0x44 DUP3 ADD SWAP4 SWAP1 SWAP4 MSTORE SWAP5 DUP6 SWAP3 SWAP1 SWAP2 AND SWAP1 DUP3 SWAP1 PUSH1 0x0 SWAP1 DUP3 SWAP1 PUSH1 0x64 DUP3 ADD SWAP1 JUMP JUMPDEST SUB SWAP3 GAS CALL SWAP2 DUP3 ISZERO PUSH2 0xF4 JUMPI PUSH1 0x1 SWAP3 PUSH2 0x1E9 JUMPI JUMPDEST POP ADD PUSH2 0x72 JUMP JUMPDEST PUSH2 0x209 SWAP1 PUSH1 0x20 RETURNDATASIZE DUP2 GT PUSH2 0x210 JUMPI JUMPDEST PUSH2 0x201 DUP2 DUP4 PUSH2 0x74B JUMP JUMPDEST DUP2 ADD SWAP1 PUSH2 0xCB5 JUMP JUMPDEST POP CODESIZE PUSH2 0x1E2 JUMP JUMPDEST POP RETURNDATASIZE PUSH2 0x1F7 JUMP JUMPDEST PUSH1 0x0 PUSH2 0x222 SWAP2 PUSH2 0x74B JUMP JUMPDEST CODESIZE PUSH2 0x18D JUMP JUMPDEST PUSH1 0x0 DUP1 REVERT JUMPDEST DUP6 SWAP1 PUSH4 0x41D6D1AF PUSH1 0xE0 SHL PUSH1 0x0 MSTORE PUSH1 0x4 MSTORE PUSH1 0x24 MSTORE PUSH1 0x44 PUSH1 0x0 REVERT JUMPDEST PUSH2 0x24F CALLDATASIZE PUSH2 0xB15 JUMP JUMPDEST SWAP4 PUSH1 0x0 SWAP7 SWAP2 SWAP4 SWAP6 SWAP7 JUMPDEST DUP8 MLOAD DUP2 LT ISZERO PUSH2 0x27D JUMPI DUP1 PUSH2 0x277 PUSH2 0x271 PUSH1 0x1 SWAP4 DUP12 PUSH2 0xC4A JUMP JUMPDEST MLOAD PUSH2 0xF2B JUMP JUMPDEST ADD PUSH2 0x258 JUMP JUMPDEST POP DUP7 DUP7 DUP3 MLOAD SWAP4 DUP2 MLOAD DUP6 DUP2 SUB PUSH2 0x22D JUMPI POP PUSH1 0x1 PUSH1 0x1 PUSH1 0xA0 SHL SUB AND SWAP4 PUSH1 0x0 JUMPDEST DUP2 DUP2 LT PUSH2 0x30F JUMPI POP POP PUSH1 0x40 MLOAD PUSH4 0x69889EC5 PUSH1 0xE1 SHL DUP2 MSTORE SWAP7 PUSH1 0x0 SWAP7 DUP9 SWAP7 DUP8 SWAP6 DUP7 SWAP6 PUSH2 0x2C8 SWAP6 POP PUSH1 0x4 DUP8 ADD PUSH2 0xE62 JUMP JUMPDEST SUB SWAP2 CALLVALUE SWAP1 GAS CALL DUP1 ISZERO PUSH2 0xF4 JUMPI PUSH2 0xCD SWAP2 PUSH1 0x0 SWAP2 PUSH2 0x2F4 JUMPI POP PUSH1 0x40 MLOAD SWAP2 DUP3 SWAP2 PUSH1 0x20 DUP4 MSTORE PUSH1 0x20 DUP4 ADD SWAP1 PUSH2 0xAF0 JUMP JUMPDEST PUSH2 0x309 SWAP2 POP RETURNDATASIZE DUP1 PUSH1 0x0 DUP4 RETURNDATACOPY PUSH2 0xE6 DUP2 DUP4 PUSH2 0x74B JUMP JUMPDEST DUP3 PUSH2 0xB8 JUMP JUMPDEST PUSH2 0x319 DUP2 DUP7 PUSH2 0xC4A JUMP JUMPDEST MLOAD MLOAD SWAP1 PUSH1 0x40 DUP3 ADD MLOAD PUSH1 0x20 PUSH2 0x32D DUP4 DUP8 PUSH2 0xC4A JUMP JUMPDEST MLOAD SWAP4 ADD DUP1 MLOAD DUP5 MLOAD PUSH1 0x20 DUP7 ADD MLOAD PUSH1 0x40 DUP8 ADD MLOAD PUSH1 0x60 SWAP1 SWAP8 ADD MLOAD SWAP7 SWAP4 SWAP5 SWAP4 SWAP2 SWAP3 PUSH1 0x1 PUSH1 0x1 PUSH1 0xA0 SHL SUB AND SWAP1 PUSH1 0xFF AND DUP2 EXTCODESIZE ISZERO PUSH2 0x228 JUMPI PUSH1 0x0 DUP1 SWAP5 PUSH2 0x385 PUSH1 0x40 MLOAD SWAP11 DUP12 SWAP7 DUP8 SWAP6 DUP7 SWAP5 PUSH4 0xD505ACCF PUSH1 0xE0 SHL DUP7 MSTORE DUP12 ADDRESS CALLER PUSH1 0x4 DUP10 ADD PUSH2 0xC74 JUMP JUMPDEST SUB SWAP3 GAS CALL SWAP2 DUP3 ISZERO PUSH2 0xF4 JUMPI PUSH2 0x3DD SWAP5 PUSH1 0x20 SWAP4 PUSH2 0x415 JUMPI POP MLOAD PUSH1 0x40 MLOAD PUSH4 0x23B872DD PUSH1 0xE0 SHL DUP2 MSTORE CALLER PUSH1 0x4 DUP3 ADD MSTORE PUSH1 0x1 PUSH1 0x1 PUSH1 0xA0 SHL SUB DUP12 DUP2 AND PUSH1 0x24 DUP4 ADD MSTORE PUSH1 0x44 DUP3 ADD SWAP4 SWAP1 SWAP4 MSTORE SWAP5 DUP6 SWAP3 SWAP1 SWAP2 AND SWAP1 DUP3 SWAP1 PUSH1 0x0 SWAP1 DUP3 SWAP1 PUSH1 0x64 DUP3 ADD SWAP1 JUMP JUMPDEST SUB SWAP3 GAS CALL SWAP2 DUP3 ISZERO PUSH2 0xF4 JUMPI PUSH1 0x1 SWAP3 PUSH2 0x3F7 JUMPI JUMPDEST POP ADD PUSH2 0x29A JUMP JUMPDEST PUSH2 0x40E SWAP1 PUSH1 0x20 RETURNDATASIZE DUP2 GT PUSH2 0x210 JUMPI PUSH2 0x201 DUP2 DUP4 PUSH2 0x74B JUMP JUMPDEST POP DUP11 PUSH2 0x3F0 JUMP JUMPDEST PUSH1 0x0 PUSH2 0x420 SWAP2 PUSH2 0x74B JUMP JUMPDEST DUP14 PUSH2 0x18D JUMP JUMPDEST PUSH2 0x42F CALLDATASIZE PUSH2 0xB15 JUMP JUMPDEST SWAP4 PUSH1 0x0 SWAP7 SWAP2 SWAP4 SWAP6 SWAP7 JUMPDEST DUP8 MLOAD DUP2 LT ISZERO PUSH2 0x457 JUMPI DUP1 PUSH2 0x451 PUSH2 0x271 PUSH1 0x1 SWAP4 DUP12 PUSH2 0xC4A JUMP JUMPDEST ADD PUSH2 0x438 JUMP JUMPDEST POP DUP7 DUP7 DUP3 MLOAD SWAP4 DUP2 MLOAD DUP6 DUP2 SUB PUSH2 0x22D JUMPI POP PUSH1 0x1 PUSH1 0x1 PUSH1 0xA0 SHL SUB AND SWAP4 PUSH1 0x0 JUMPDEST DUP2 DUP2 LT PUSH2 0x4A2 JUMPI POP POP PUSH1 0x40 MLOAD PUSH4 0x86C6285 PUSH1 0xE4 SHL DUP2 MSTORE SWAP7 PUSH1 0x0 SWAP7 DUP9 SWAP7 DUP8 SWAP6 DUP7 SWAP6 PUSH2 0x2C8 SWAP6 POP PUSH1 0x4 DUP8 ADD PUSH2 0xE62 JUMP JUMPDEST PUSH2 0x4AC DUP2 DUP7 PUSH2 0xC4A JUMP JUMPDEST MLOAD MLOAD SWAP1 PUSH1 0x40 DUP3 ADD MLOAD PUSH1 0x20 PUSH2 0x4C0 DUP4 DUP8 PUSH2 0xC4A JUMP JUMPDEST MLOAD SWAP4 ADD DUP1 MLOAD DUP5 MLOAD PUSH1 0x20 DUP7 ADD MLOAD PUSH1 0x40 DUP8 ADD MLOAD PUSH1 0x60 SWAP1 SWAP8 ADD MLOAD SWAP7 SWAP4 SWAP5 SWAP4 SWAP2 SWAP3 PUSH1 0x1 PUSH1 0x1 PUSH1 0xA0 SHL SUB AND SWAP1 PUSH1 0xFF AND DUP2 EXTCODESIZE ISZERO PUSH2 0x228 JUMPI PUSH1 0x0 DUP1 SWAP5 PUSH2 0x518 PUSH1 0x40 MLOAD SWAP11 DUP12 SWAP7 DUP8 SWAP6 DUP7 SWAP5 PUSH4 0xD505ACCF PUSH1 0xE0 SHL DUP7 MSTORE DUP12 ADDRESS CALLER PUSH1 0x4 DUP10 ADD PUSH2 0xC74 JUMP JUMPDEST SUB SWAP3 GAS CALL SWAP2 DUP3 ISZERO PUSH2 0xF4 JUMPI PUSH2 0x570 SWAP5 PUSH1 0x20 SWAP4 PUSH2 0x415 JUMPI POP MLOAD PUSH1 0x40 MLOAD PUSH4 0x23B872DD PUSH1 0xE0 SHL DUP2 MSTORE CALLER PUSH1 0x4 DUP3 ADD MSTORE PUSH1 0x1 PUSH1 0x1 PUSH1 0xA0 SHL SUB DUP12 DUP2 AND PUSH1 0x24 DUP4 ADD MSTORE PUSH1 0x44 DUP3 ADD SWAP4 SWAP1 SWAP4 MSTORE SWAP5 DUP6 SWAP3 SWAP1 SWAP2 AND SWAP1 DUP3 SWAP1 PUSH1 0x0 SWAP1 DUP3 SWAP1 PUSH1 0x64 DUP3 ADD SWAP1 JUMP JUMPDEST SUB SWAP3 GAS CALL SWAP2 DUP3 ISZERO PUSH2 0xF4 JUMPI PUSH1 0x1 SWAP3 PUSH2 0x58A JUMPI JUMPDEST POP ADD PUSH2 0x474 JUMP JUMPDEST PUSH2 0x5A1 SWAP1 PUSH1 0x20 RETURNDATASIZE DUP2 GT PUSH2 0x210 JUMPI PUSH2 0x201 DUP2 DUP4 PUSH2 0x74B JUMP JUMPDEST POP DUP11 PUSH2 0x583 JUMP JUMPDEST PUSH2 0x5B1 CALLDATASIZE PUSH2 0x9FF JUMP JUMPDEST SWAP6 SWAP3 DUP5 SWAP3 SWAP5 SWAP6 SWAP2 SWAP6 MLOAD SWAP4 DUP2 MLOAD DUP6 DUP2 SUB PUSH2 0x22D JUMPI POP PUSH1 0x1 PUSH1 0x1 PUSH1 0xA0 SHL SUB AND SWAP4 PUSH1 0x0 JUMPDEST DUP2 DUP2 LT PUSH2 0x600 JUMPI POP POP PUSH1 0x40 MLOAD PUSH4 0xCE9506F9 PUSH1 0xE0 SHL DUP2 MSTORE SWAP7 PUSH1 0x0 SWAP7 DUP9 SWAP7 DUP8 SWAP6 DUP7 SWAP6 PUSH2 0x2C8 SWAP6 POP PUSH1 0x4 DUP8 ADD PUSH2 0xE0A JUMP JUMPDEST PUSH2 0x60A DUP2 DUP7 PUSH2 0xC4A JUMP JUMPDEST MLOAD MLOAD SWAP1 PUSH1 0x40 DUP3 ADD MLOAD PUSH1 0x20 PUSH2 0x61E DUP4 DUP8 PUSH2 0xC4A JUMP JUMPDEST MLOAD SWAP4 ADD DUP1 MLOAD DUP5 MLOAD PUSH1 0x20 DUP7 ADD MLOAD PUSH1 0x40 DUP8 ADD MLOAD PUSH1 0x60 SWAP1 SWAP8 ADD MLOAD SWAP7 SWAP4 SWAP5 SWAP4 SWAP2 SWAP3 PUSH1 0x1 PUSH1 0x1 PUSH1 0xA0 SHL SUB AND SWAP1 PUSH1 0xFF AND DUP2 EXTCODESIZE ISZERO PUSH2 0x228 JUMPI PUSH1 0x0 DUP1 SWAP5 PUSH2 0x676 PUSH1 0x40 MLOAD SWAP11 DUP12 SWAP7 DUP8 SWAP6 DUP7 SWAP5 PUSH4 0xD505ACCF PUSH1 0xE0 SHL DUP7 MSTORE DUP12 ADDRESS CALLER PUSH1 0x4 DUP10 ADD PUSH2 0xC74 JUMP JUMPDEST SUB SWAP3 GAS CALL SWAP2 DUP3 ISZERO PUSH2 0xF4 JUMPI PUSH2 0x6CE SWAP5 PUSH1 0x20 SWAP4 PUSH2 0x415 JUMPI POP MLOAD PUSH1 0x40 MLOAD PUSH4 0x23B872DD PUSH1 0xE0 SHL DUP2 MSTORE CALLER PUSH1 0x4 DUP3 ADD MSTORE PUSH1 0x1 PUSH1 0x1 PUSH1 0xA0 SHL SUB DUP12 DUP2 AND PUSH1 0x24 DUP4 ADD MSTORE PUSH1 0x44 DUP3 ADD SWAP4 SWAP1 SWAP4 MSTORE SWAP5 DUP6 SWAP3 SWAP1 SWAP2 AND SWAP1 DUP3 SWAP1 PUSH1 0x0 SWAP1 DUP3 SWAP1 PUSH1 0x64 DUP3 ADD SWAP1 JUMP JUMPDEST SUB SWAP3 GAS CALL SWAP2 DUP3 ISZERO PUSH2 0xF4 JUMPI PUSH1 0x1 SWAP3 PUSH2 0x6E8 JUMPI JUMPDEST POP ADD PUSH2 0x5D2 JUMP JUMPDEST PUSH2 0x6FF SWAP1 PUSH1 0x20 RETURNDATASIZE DUP2 GT PUSH2 0x210 JUMPI PUSH2 0x201 DUP2 DUP4 PUSH2 0x74B JUMP JUMPDEST POP DUP11 PUSH2 0x6E1 JUMP JUMPDEST CALLDATALOAD SWAP1 PUSH1 0x1 PUSH1 0x1 PUSH1 0xA0 SHL SUB DUP3 AND DUP3 SUB PUSH2 0x228 JUMPI JUMP JUMPDEST PUSH1 0x60 DUP2 ADD SWAP1 DUP2 LT PUSH1 0x1 PUSH1 0x1 PUSH1 0x40 SHL SUB DUP3 GT OR PUSH2 0x735 JUMPI PUSH1 0x40 MSTORE JUMP JUMPDEST PUSH4 0x4E487B71 PUSH1 0xE0 SHL PUSH1 0x0 MSTORE PUSH1 0x41 PUSH1 0x4 MSTORE PUSH1 0x24 PUSH1 0x0 REVERT JUMPDEST SWAP1 PUSH1 0x1F DUP1 NOT SWAP2 ADD AND DUP2 ADD SWAP1 DUP2 LT PUSH1 0x1 PUSH1 0x1 PUSH1 0x40 SHL SUB DUP3 GT OR PUSH2 0x735 JUMPI PUSH1 0x40 MSTORE JUMP JUMPDEST PUSH1 0x1 PUSH1 0x1 PUSH1 0x40 SHL SUB DUP2 GT PUSH2 0x735 JUMPI PUSH1 0x5 SHL PUSH1 0x20 ADD SWAP1 JUMP JUMPDEST SWAP2 SWAP1 DUP3 PUSH1 0x60 SWAP2 SUB SLT PUSH2 0x228 JUMPI PUSH1 0x40 MLOAD PUSH2 0x79B DUP2 PUSH2 0x71A JUMP JUMPDEST PUSH1 0x40 DUP1 DUP3 SWAP5 PUSH2 0x7A9 DUP2 PUSH2 0x706 JUMP JUMPDEST DUP5 MSTORE PUSH2 0x7B7 PUSH1 0x20 DUP3 ADD PUSH2 0x706 JUMP JUMPDEST PUSH1 0x20 DUP6 ADD MSTORE ADD CALLDATALOAD SWAP2 ADD MSTORE JUMP JUMPDEST DUP2 PUSH1 0x1F DUP3 ADD SLT ISZERO PUSH2 0x228 JUMPI DUP1 CALLDATALOAD PUSH2 0x7D9 DUP2 PUSH2 0x76C JUMP JUMPDEST SWAP3 PUSH2 0x7E7 PUSH1 0x40 MLOAD SWAP5 DUP6 PUSH2 0x74B JUMP JUMPDEST DUP2 DUP5 MSTORE PUSH1 0x20 PUSH1 0x60 DUP2 DUP7 ADD SWAP4 MUL DUP5 ADD ADD SWAP3 DUP2 DUP5 GT PUSH2 0x228 JUMPI PUSH1 0x20 ADD SWAP2 JUMPDEST DUP4 DUP4 LT PUSH2 0x811 JUMPI POP POP POP POP SWAP1 JUMP JUMPDEST PUSH1 0x20 PUSH1 0x60 SWAP2 PUSH2 0x820 DUP5 DUP7 PUSH2 0x783 JUMP JUMPDEST DUP2 MSTORE ADD SWAP3 ADD SWAP2 PUSH2 0x803 JUMP JUMPDEST SWAP1 DUP1 PUSH1 0x1F DUP4 ADD SLT ISZERO PUSH2 0x228 JUMPI DUP2 CALLDATALOAD SWAP2 PUSH2 0x843 DUP4 PUSH2 0x76C JUMP JUMPDEST SWAP3 PUSH2 0x851 PUSH1 0x40 MLOAD SWAP5 DUP6 PUSH2 0x74B JUMP JUMPDEST DUP1 DUP5 MSTORE PUSH1 0x20 DUP1 DUP6 ADD SWAP2 PUSH1 0x7 SHL DUP4 ADD ADD SWAP2 DUP4 DUP4 GT PUSH2 0x228 JUMPI PUSH1 0x20 ADD SWAP1 JUMPDEST DUP3 DUP3 LT PUSH2 0x87B JUMPI POP POP POP POP SWAP1 JUMP JUMPDEST PUSH1 0x80 DUP3 DUP6 SUB SLT PUSH2 0x228 JUMPI PUSH1 0x40 MLOAD SWAP1 PUSH1 0x40 DUP3 ADD DUP3 DUP2 LT PUSH1 0x1 PUSH1 0x1 PUSH1 0x40 SHL SUB DUP3 GT OR PUSH2 0x735 JUMPI PUSH1 0x40 MSTORE PUSH2 0x8AC DUP6 DUP5 PUSH2 0x783 JUMP JUMPDEST DUP3 MSTORE PUSH1 0x60 DUP4 ADD CALLDATALOAD SWAP1 DUP2 ISZERO ISZERO DUP3 SUB PUSH2 0x228 JUMPI DUP3 PUSH1 0x20 SWAP3 DUP4 PUSH1 0x80 SWAP6 ADD MSTORE DUP2 MSTORE ADD SWAP2 ADD SWAP1 PUSH2 0x86D JUMP JUMPDEST CALLDATALOAD SWAP1 PUSH1 0xFF DUP3 AND DUP3 SUB PUSH2 0x228 JUMPI JUMP JUMPDEST DUP2 PUSH1 0x1F DUP3 ADD SLT ISZERO PUSH2 0x228 JUMPI DUP1 CALLDATALOAD SWAP1 PUSH2 0x8F7 DUP3 PUSH2 0x76C JUMP JUMPDEST SWAP3 PUSH2 0x905 PUSH1 0x40 MLOAD SWAP5 DUP6 PUSH2 0x74B JUMP JUMPDEST DUP3 DUP5 MSTORE PUSH1 0x20 DUP1 DUP6 ADD SWAP4 PUSH1 0x7 SHL DUP4 ADD ADD SWAP2 DUP2 DUP4 GT PUSH2 0x228 JUMPI PUSH1 0x20 ADD SWAP3 JUMPDEST DUP3 DUP5 LT PUSH2 0x92F JUMPI POP POP POP POP SWAP1 JUMP JUMPDEST PUSH1 0x80 DUP5 DUP4 SUB SLT PUSH2 0x228 JUMPI PUSH1 0x40 MLOAD SWAP1 PUSH1 0x80 DUP3 ADD SWAP1 DUP3 DUP3 LT PUSH1 0x1 PUSH1 0x1 PUSH1 0x40 SHL SUB DUP4 GT OR PUSH2 0x735 JUMPI PUSH1 0x80 SWAP3 PUSH1 0x20 SWAP3 PUSH1 0x40 MSTORE DUP7 CALLDATALOAD DUP2 MSTORE PUSH2 0x96C DUP4 DUP9 ADD PUSH2 0x8D2 JUMP JUMPDEST DUP4 DUP3 ADD MSTORE PUSH1 0x40 DUP8 ADD CALLDATALOAD PUSH1 0x40 DUP3 ADD MSTORE PUSH1 0x60 DUP8 ADD CALLDATALOAD PUSH1 0x60 DUP3 ADD MSTORE DUP2 MSTORE ADD SWAP4 ADD SWAP3 PUSH2 0x921 JUMP JUMPDEST PUSH1 0x1 PUSH1 0x1 PUSH1 0x40 SHL SUB DUP2 GT PUSH2 0x735 JUMPI PUSH1 0x1F ADD PUSH1 0x1F NOT AND PUSH1 0x20 ADD SWAP1 JUMP JUMPDEST SWAP3 SWAP2 SWAP3 PUSH2 0x9B6 DUP3 PUSH2 0x98F JUMP JUMPDEST SWAP2 PUSH2 0x9C4 PUSH1 0x40 MLOAD SWAP4 DUP5 PUSH2 0x74B JUMP JUMPDEST DUP3 SWAP5 DUP2 DUP5 MSTORE DUP2 DUP4 ADD GT PUSH2 0x228 JUMPI DUP3 DUP2 PUSH1 0x20 SWAP4 DUP5 PUSH1 0x0 SWAP7 ADD CALLDATACOPY ADD ADD MSTORE JUMP JUMPDEST SWAP1 DUP1 PUSH1 0x1F DUP4 ADD SLT ISZERO PUSH2 0x228 JUMPI DUP2 PUSH1 0x20 PUSH2 0x9FC SWAP4 CALLDATALOAD SWAP2 ADD PUSH2 0x9AA JUMP JUMPDEST SWAP1 JUMP JUMPDEST PUSH1 0xE0 PUSH1 0x3 NOT DUP3 ADD SLT PUSH2 0x228 JUMPI PUSH1 0x4 CALLDATALOAD PUSH1 0x1 PUSH1 0x1 PUSH1 0xA0 SHL SUB DUP2 AND DUP2 SUB PUSH2 0x228 JUMPI SWAP2 PUSH1 0x24 CALLDATALOAD PUSH1 0x1 PUSH1 0x1 PUSH1 0x40 SHL SUB DUP2 GT PUSH2 0x228 JUMPI DUP3 PUSH2 0xA3D SWAP2 PUSH1 0x4 ADD PUSH2 0x7C3 JUMP JUMPDEST SWAP2 PUSH1 0x44 CALLDATALOAD PUSH1 0x1 PUSH1 0x1 PUSH1 0x40 SHL SUB DUP2 GT PUSH2 0x228 JUMPI DUP2 PUSH2 0xA5C SWAP2 PUSH1 0x4 ADD PUSH2 0x82B JUMP JUMPDEST SWAP2 PUSH1 0x64 CALLDATALOAD PUSH1 0x1 PUSH1 0x1 PUSH1 0x40 SHL SUB DUP2 GT PUSH2 0x228 JUMPI DUP3 PUSH2 0xA7B SWAP2 PUSH1 0x4 ADD PUSH2 0x8E0 JUMP JUMPDEST SWAP2 PUSH1 0x84 CALLDATALOAD PUSH1 0x1 PUSH1 0x1 PUSH1 0xA0 SHL SUB DUP2 AND DUP2 SUB PUSH2 0x228 JUMPI SWAP2 PUSH1 0xA4 CALLDATALOAD PUSH1 0x1 PUSH1 0x1 PUSH1 0x40 SHL SUB DUP2 GT PUSH2 0x228 JUMPI DUP3 PUSH2 0xAAE SWAP2 PUSH1 0x4 ADD PUSH2 0x9E1 JUMP JUMPDEST SWAP2 PUSH1 0xC4 CALLDATALOAD SWAP1 PUSH1 0x1 PUSH1 0x1 PUSH1 0x40 SHL SUB DUP3 GT PUSH2 0x228 JUMPI PUSH2 0x9FC SWAP2 PUSH1 0x4 ADD PUSH2 0x7C3 JUMP JUMPDEST PUSH1 0x0 JUMPDEST DUP4 DUP2 LT PUSH2 0xAE0 JUMPI POP POP PUSH1 0x0 SWAP2 ADD MSTORE JUMP JUMPDEST DUP2 DUP2 ADD MLOAD DUP4 DUP3 ADD MSTORE PUSH1 0x20 ADD PUSH2 0xAD0 JUMP JUMPDEST SWAP1 PUSH1 0x20 SWAP2 PUSH2 0xB09 DUP2 MLOAD DUP1 SWAP3 DUP2 DUP6 MSTORE DUP6 DUP1 DUP7 ADD SWAP2 ADD PUSH2 0xACD JUMP JUMPDEST PUSH1 0x1F ADD PUSH1 0x1F NOT AND ADD ADD SWAP1 JUMP JUMPDEST PUSH1 0xE0 PUSH1 0x3 NOT DUP3 ADD SLT PUSH2 0x228 JUMPI PUSH1 0x4 CALLDATALOAD PUSH1 0x1 PUSH1 0x1 PUSH1 0xA0 SHL SUB DUP2 AND DUP2 SUB PUSH2 0x228 JUMPI SWAP2 PUSH1 0x24 CALLDATALOAD PUSH1 0x1 PUSH1 0x1 PUSH1 0x40 SHL SUB DUP2 GT PUSH2 0x228 JUMPI DUP3 PUSH1 0x23 DUP3 ADD SLT ISZERO PUSH2 0x228 JUMPI DUP1 PUSH1 0x4 ADD CALLDATALOAD SWAP1 PUSH2 0xB60 DUP3 PUSH2 0x76C JUMP JUMPDEST SWAP2 PUSH2 0xB6E PUSH1 0x40 MLOAD SWAP4 DUP5 PUSH2 0x74B JUMP JUMPDEST DUP1 DUP4 MSTORE PUSH1 0x24 PUSH1 0x20 DUP5 ADD SWAP2 PUSH1 0x5 SHL DUP4 ADD ADD SWAP2 DUP6 DUP4 GT PUSH2 0x228 JUMPI PUSH1 0x24 DUP2 ADD SWAP2 JUMPDEST DUP4 DUP4 LT PUSH2 0xBB6 JUMPI POP POP POP POP SWAP2 PUSH1 0x44 CALLDATALOAD PUSH1 0x1 PUSH1 0x1 PUSH1 0x40 SHL SUB DUP2 GT PUSH2 0x228 JUMPI DUP2 PUSH2 0xA5C SWAP2 PUSH1 0x4 ADD PUSH2 0x82B JUMP JUMPDEST DUP3 CALLDATALOAD PUSH1 0x1 PUSH1 0x1 PUSH1 0x40 SHL SUB DUP2 GT PUSH2 0x228 JUMPI DUP3 ADD SWAP1 PUSH1 0xA0 DUP3 DUP10 SUB PUSH1 0x23 NOT ADD SLT PUSH2 0x228 JUMPI PUSH1 0x40 MLOAD SWAP1 PUSH2 0xBE4 DUP3 PUSH2 0x71A JUMP JUMPDEST PUSH2 0xBF1 DUP10 PUSH1 0x24 DUP6 ADD PUSH2 0x783 JUMP JUMPDEST DUP3 MSTORE PUSH1 0x84 DUP4 ADD CALLDATALOAD PUSH1 0x1 PUSH1 0x1 PUSH1 0x40 SHL SUB DUP2 GT PUSH2 0x228 JUMPI PUSH1 0x24 SWAP1 DUP5 ADD ADD SWAP2 DUP10 PUSH1 0x1F DUP5 ADD SLT ISZERO PUSH2 0x228 JUMPI PUSH2 0xC3A PUSH1 0xA4 PUSH1 0x20 SWAP6 PUSH2 0xC30 DUP14 DUP8 DUP10 DUP1 SWAP10 CALLDATALOAD SWAP2 ADD PUSH2 0x9AA JUMP JUMPDEST DUP7 DUP6 ADD MSTORE ADD PUSH2 0x8D2 JUMP JUMPDEST PUSH1 0x40 DUP3 ADD MSTORE DUP2 MSTORE ADD SWAP3 ADD SWAP2 PUSH2 0xB8C JUMP JUMPDEST DUP1 MLOAD DUP3 LT ISZERO PUSH2 0xC5E JUMPI PUSH1 0x20 SWAP2 PUSH1 0x5 SHL ADD ADD SWAP1 JUMP JUMPDEST PUSH4 0x4E487B71 PUSH1 0xE0 SHL PUSH1 0x0 MSTORE PUSH1 0x32 PUSH1 0x4 MSTORE PUSH1 0x24 PUSH1 0x0 REVERT JUMPDEST SWAP4 PUSH1 0xC0 SWAP6 SWAP2 SWAP9 SWAP8 SWAP7 SWAP4 PUSH1 0xFF SWAP4 PUSH1 0xE0 DUP8 ADD SWAP11 PUSH1 0x1 DUP1 PUSH1 0xA0 SHL SUB AND DUP8 MSTORE PUSH1 0x1 DUP1 PUSH1 0xA0 SHL SUB AND PUSH1 0x20 DUP8 ADD MSTORE PUSH1 0x40 DUP7 ADD MSTORE PUSH1 0x60 DUP6 ADD MSTORE AND PUSH1 0x80 DUP4 ADD MSTORE PUSH1 0xA0 DUP3 ADD MSTORE ADD MSTORE JUMP JUMPDEST SWAP1 DUP2 PUSH1 0x20 SWAP2 SUB SLT PUSH2 0x228 JUMPI MLOAD DUP1 ISZERO ISZERO DUP2 SUB PUSH2 0x228 JUMPI SWAP1 JUMP JUMPDEST SWAP1 SWAP3 SWAP2 SWAP3 PUSH2 0xCDA DUP2 PUSH2 0x98F JUMP JUMPDEST SWAP2 PUSH2 0xCE8 PUSH1 0x40 MLOAD SWAP4 DUP5 PUSH2 0x74B JUMP JUMPDEST DUP3 SWAP5 DUP3 DUP5 MSTORE DUP3 DUP3 ADD GT PUSH2 0x228 JUMPI PUSH1 0x20 PUSH2 0xD02 SWAP4 ADD SWAP1 PUSH2 0xACD JUMP JUMPDEST JUMP JUMPDEST PUSH1 0x20 DUP2 DUP4 SUB SLT PUSH2 0x228 JUMPI DUP1 MLOAD SWAP1 PUSH1 0x1 PUSH1 0x1 PUSH1 0x40 SHL SUB DUP3 GT PUSH2 0x228 JUMPI ADD SWAP1 DUP1 PUSH1 0x1F DUP4 ADD SLT ISZERO PUSH2 0x228 JUMPI DUP2 MLOAD PUSH2 0x9FC SWAP3 PUSH1 0x20 ADD PUSH2 0xCCD JUMP JUMPDEST SWAP1 PUSH1 0x20 DUP1 DUP4 MLOAD SWAP3 DUP4 DUP2 MSTORE ADD SWAP3 ADD SWAP1 PUSH1 0x0 JUMPDEST DUP2 DUP2 LT PUSH2 0xD58 JUMPI POP POP POP SWAP1 JUMP JUMPDEST SWAP1 SWAP2 SWAP3 PUSH1 0x20 PUSH1 0x60 DUP3 PUSH2 0xD91 PUSH1 0x1 SWAP5 DUP9 MLOAD PUSH1 0x40 DUP1 SWAP2 PUSH1 0x1 DUP1 PUSH1 0xA0 SHL SUB DUP2 MLOAD AND DUP5 MSTORE PUSH1 0x1 DUP1 PUSH1 0xA0 SHL SUB PUSH1 0x20 DUP3 ADD MLOAD AND PUSH1 0x20 DUP6 ADD MSTORE ADD MLOAD SWAP2 ADD MSTORE JUMP JUMPDEST ADD SWAP5 ADD SWAP3 SWAP2 ADD PUSH2 0xD4B JUMP JUMPDEST SWAP1 PUSH1 0x20 DUP1 DUP4 MLOAD SWAP3 DUP4 DUP2 MSTORE ADD SWAP3 ADD SWAP1 PUSH1 0x0 JUMPDEST DUP2 DUP2 LT PUSH2 0xDBA JUMPI POP POP POP SWAP1 JUMP JUMPDEST SWAP1 SWAP2 SWAP3 PUSH1 0x20 PUSH1 0x80 PUSH1 0x1 SWAP3 DUP3 DUP8 MLOAD PUSH2 0xDF6 DUP4 DUP3 MLOAD PUSH1 0x40 DUP1 SWAP2 PUSH1 0x1 DUP1 PUSH1 0xA0 SHL SUB DUP2 MLOAD AND DUP5 MSTORE PUSH1 0x1 DUP1 PUSH1 0xA0 SHL SUB PUSH1 0x20 DUP3 ADD MLOAD AND PUSH1 0x20 DUP6 ADD MSTORE ADD MLOAD SWAP2 ADD MSTORE JUMP JUMPDEST ADD MLOAD ISZERO ISZERO PUSH1 0x60 DUP3 ADD MSTORE ADD SWAP5 ADD SWAP3 SWAP2 ADD PUSH2 0xDAD JUMP JUMPDEST SWAP4 PUSH2 0xE37 PUSH2 0xE54 SWAP4 PUSH2 0xE29 PUSH2 0x9FC SWAP9 SWAP7 SWAP5 PUSH1 0xA0 DUP10 MSTORE PUSH1 0xA0 DUP10 ADD SWAP1 PUSH2 0xD3A JUMP JUMPDEST SWAP1 DUP8 DUP3 SUB PUSH1 0x20 DUP10 ADD MSTORE PUSH2 0xD9C JUMP JUMPDEST PUSH1 0x1 PUSH1 0x1 PUSH1 0xA0 SHL SUB SWAP1 SWAP3 AND PUSH1 0x40 DUP7 ADD MSTORE DUP5 DUP3 SUB PUSH1 0x60 DUP7 ADD MSTORE PUSH2 0xAF0 JUMP JUMPDEST SWAP2 PUSH1 0x80 DUP2 DUP5 SUB SWAP2 ADD MSTORE PUSH2 0xD3A JUMP JUMPDEST SWAP4 SWAP1 SWAP6 SWAP5 SWAP3 SWAP2 SWAP6 PUSH1 0xA0 DUP6 ADD PUSH1 0xA0 DUP7 MSTORE DUP2 MLOAD DUP1 SWAP2 MSTORE PUSH1 0xC0 DUP7 ADD SWAP1 PUSH1 0x20 PUSH1 0xC0 DUP3 PUSH1 0x5 SHL DUP10 ADD ADD SWAP4 ADD SWAP2 PUSH1 0x0 SWAP1 JUMPDEST DUP3 DUP3 LT PUSH2 0xEB3 JUMPI POP POP POP POP SWAP1 PUSH2 0xE37 DUP3 PUSH2 0x9FC SWAP8 SWAP9 DUP8 PUSH2 0xE54 SWAP7 SWAP6 SUB PUSH1 0x20 DUP10 ADD MSTORE PUSH2 0xD9C JUMP JUMPDEST SWAP1 SWAP2 SWAP3 SWAP4 PUSH1 0x20 DUP1 PUSH1 0x1 SWAP3 PUSH1 0xBF NOT DUP13 DUP3 SUB ADD DUP6 MSTORE DUP8 MLOAD SWAP1 PUSH2 0xEF8 DUP2 DUP4 MLOAD PUSH1 0x40 DUP1 SWAP2 PUSH1 0x1 DUP1 PUSH1 0xA0 SHL SUB DUP2 MLOAD AND DUP5 MSTORE PUSH1 0x1 DUP1 PUSH1 0xA0 SHL SUB PUSH1 0x20 DUP3 ADD MLOAD AND PUSH1 0x20 DUP6 ADD MSTORE ADD MLOAD SWAP2 ADD MSTORE JUMP JUMPDEST PUSH1 0x80 PUSH1 0xFF PUSH1 0x40 PUSH2 0xF16 DUP7 DUP7 ADD MLOAD PUSH1 0xA0 PUSH1 0x60 DUP8 ADD MSTORE PUSH1 0xA0 DUP7 ADD SWAP1 PUSH2 0xAF0 JUMP JUMPDEST SWAP5 ADD MLOAD AND SWAP2 ADD MSTORE SWAP7 ADD SWAP3 ADD SWAP3 ADD SWAP1 SWAP3 SWAP2 PUSH2 0xE8D JUMP JUMPDEST DUP1 MLOAD PUSH1 0x20 ADD MLOAD PUSH1 0x1 PUSH1 0x1 PUSH1 0xA0 SHL SUB AND DUP1 PUSH2 0x104A JUMPI POP PUSH1 0x40 MLOAD PUSH2 0xF4E PUSH1 0x40 DUP3 PUSH2 0x74B JUMP JUMPDEST PUSH1 0x3 DUP2 MSTORE PUSH3 0x8AA89 PUSH1 0xEB SHL PUSH1 0x20 DUP3 ADD MSTORE PUSH1 0x12 JUMPDEST PUSH1 0x40 MLOAD PUSH1 0x20 DUP2 ADD SWAP1 PUSH2 0xF8F PUSH1 0x20 DUP3 DUP7 MLOAD PUSH2 0xF7E DUP2 DUP8 DUP6 DUP12 ADD PUSH2 0xACD JUMP JUMPDEST DUP2 ADD SUB ADD PUSH1 0x1F NOT DUP2 ADD DUP4 MSTORE DUP3 PUSH2 0x74B JUMP JUMPDEST MLOAD SWAP1 KECCAK256 SWAP2 PUSH1 0x20 DUP5 ADD SWAP3 DUP4 MLOAD PUSH1 0x40 MLOAD PUSH2 0xFB7 PUSH1 0x20 DUP3 DUP2 PUSH2 0xF7E DUP2 DUP4 ADD SWAP7 DUP8 DUP2 MLOAD SWAP4 DUP5 SWAP3 ADD PUSH2 0xACD JUMP JUMPDEST MLOAD SWAP1 KECCAK256 EQ DUP1 ISZERO SWAP1 PUSH2 0x1036 JUMPI JUMPDEST PUSH2 0xFCD JUMPI POP POP POP POP JUMP JUMPDEST PUSH2 0x102B PUSH1 0xFF SWAP2 DUP3 PUSH1 0x40 PUSH1 0x1 DUP1 PUSH1 0xA0 SHL SUB PUSH1 0x20 DUP10 MLOAD ADD MLOAD AND SWAP7 MLOAD SWAP8 ADD MLOAD AND SWAP1 PUSH2 0x1014 PUSH1 0x40 MLOAD SWAP8 DUP9 SWAP8 PUSH4 0x55918519 PUSH1 0xE0 SHL DUP10 MSTORE PUSH1 0x4 DUP10 ADD MSTORE PUSH1 0xA0 PUSH1 0x24 DUP10 ADD MSTORE PUSH1 0xA4 DUP9 ADD SWAP1 PUSH2 0xAF0 JUMP JUMPDEST SWAP2 PUSH1 0x44 DUP8 ADD MSTORE PUSH1 0x3 NOT DUP7 DUP4 SUB ADD PUSH1 0x64 DUP8 ADD MSTORE PUSH2 0xAF0 JUMP JUMPDEST SWAP2 AND PUSH1 0x84 DUP4 ADD MSTORE SUB SWAP1 REVERT JUMPDEST POP PUSH1 0xFF PUSH1 0x40 DUP6 ADD MLOAD AND PUSH1 0xFF DUP4 AND EQ ISZERO PUSH2 0xFC3 JUMP JUMPDEST PUSH1 0x0 PUSH1 0x4 SWAP2 PUSH1 0x40 MLOAD SWAP3 DUP4 DUP1 SWAP3 PUSH4 0x95D89B41 PUSH1 0xE0 SHL DUP3 MSTORE GAS STATICCALL SWAP1 DUP2 ISZERO PUSH2 0xF4 JUMPI PUSH1 0x0 SWAP2 PUSH2 0x10F3 JUMPI JUMPDEST POP DUP2 MLOAD PUSH1 0x20 SWAP1 DUP2 ADD MLOAD PUSH1 0x40 MLOAD PUSH4 0x313CE567 PUSH1 0xE0 SHL DUP2 MSTORE SWAP2 SWAP1 DUP3 SWAP1 PUSH1 0x4 SWAP1 DUP3 SWAP1 PUSH1 0x1 PUSH1 0x1 PUSH1 0xA0 SHL SUB AND GAS STATICCALL SWAP1 DUP2 ISZERO PUSH2 0xF4 JUMPI PUSH1 0x0 SWAP2 PUSH2 0x10B0 JUMPI JUMPDEST POP PUSH2 0xF61 JUMP JUMPDEST PUSH1 0x20 DUP2 RETURNDATASIZE PUSH1 0x20 GT PUSH2 0x10EB JUMPI JUMPDEST DUP2 PUSH2 0x10C9 PUSH1 0x20 SWAP4 DUP4 PUSH2 0x74B JUMP JUMPDEST DUP2 ADD SUB SLT PUSH2 0x10E7 JUMPI MLOAD SWAP1 PUSH1 0xFF DUP3 AND DUP3 SUB PUSH2 0x10E4 JUMPI POP CODESIZE PUSH2 0x10AA JUMP JUMPDEST DUP1 REVERT JUMPDEST POP DUP1 REVERT JUMPDEST RETURNDATASIZE SWAP2 POP PUSH2 0x10BC JUMP JUMPDEST SWAP1 RETURNDATASIZE DUP1 DUP3 DUP5 RETURNDATACOPY PUSH2 0x1103 DUP2 DUP5 PUSH2 0x74B JUMP JUMPDEST DUP3 ADD SWAP2 PUSH1 0x20 DUP2 DUP5 SUB SLT PUSH2 0x10E7 JUMPI DUP1 MLOAD SWAP1 PUSH1 0x1 PUSH1 0x1 PUSH1 0x40 SHL SUB DUP3 GT PUSH2 0x1144 JUMPI ADD SWAP1 DUP3 PUSH1 0x1F DUP4 ADD SLT ISZERO PUSH2 0x10E4 JUMPI POP DUP1 MLOAD PUSH2 0x113E SWAP3 SWAP2 PUSH1 0x20 ADD PUSH2 0xCCD JUMP JUMPDEST CODESIZE PUSH2 0x1071 JUMP JUMPDEST DUP3 DUP1 REVERT INVALID LOG2 PUSH5 0x6970667358 0x22 SLT KECCAK256 DUP8 PUSH23 0x956CCF897A0065740E785DBB05D302E287CB219557B6DA SAR SWAP16 0xC7 0xB5 0xE6 0xD6 0xD9 PUSH5 0x736F6C6343 STOP ADDMOD SHL STOP CALLER "
        },
        "methodIdentifiers": {
          "permitProxyCall(address,(address,address,int256)[],((address,address,int256),bool)[],(uint256,uint8,bytes32,bytes32)[],address,bytes,(address,address,int256)[])": "029a2053",
          "permitProxyCallDiffs(address,(address,address,int256)[],((address,address,int256),bool)[],(uint256,uint8,bytes32,bytes32)[],address,bytes,(address,address,int256)[])": "bf10e28e",
          "permitProxyCallDiffsWithMeta(address,((address,address,int256),string,uint8)[],((address,address,int256),bool)[],(uint256,uint8,bytes32,bytes32)[],address,bytes,(address,address,int256)[])": "329d0233",
          "permitProxyCallWithMeta(address,((address,address,int256),string,uint8)[],((address,address,int256),bool)[],(uint256,uint8,bytes32,bytes32)[],address,bytes,(address,address,int256)[])": "3bb77a9d"
        }
      },
      "userdoc": {
        "errors": {
          "InvalidMetadata(address,string,uint8,string,uint8)": [
            {
              "notice": "Error thrown when metadata doesn't match actual token properties"
            }
          ],
          "PermitsLengthMismatch(uint256,uint256)": [
            {
              "notice": "Error thrown when permits array length doesn't match approvals array length"
            }
          ]
        },
        "kind": "user",
        "methods": {
          "permitProxyCall(address,(address,address,int256)[],((address,address,int256),bool)[],(uint256,uint8,bytes32,bytes32)[],address,bytes,(address,address,int256)[])": {
            "notice": "Execute proxyCall with permits"
          },
          "permitProxyCallDiffs(address,(address,address,int256)[],((address,address,int256),bool)[],(uint256,uint8,bytes32,bytes32)[],address,bytes,(address,address,int256)[])": {
            "notice": "proxyCallDiffs with permits"
          },
          "permitProxyCallDiffsWithMeta(address,((address,address,int256),string,uint8)[],((address,address,int256),bool)[],(uint256,uint8,bytes32,bytes32)[],address,bytes,(address,address,int256)[])": {
            "notice": "proxyCallDiffs with permits and calldata metadata (metadata is ignored on-chain)"
          },
          "permitProxyCallWithMeta(address,((address,address,int256),string,uint8)[],((address,address,int256),bool)[],(uint256,uint8,bytes32,bytes32)[],address,bytes,(address,address,int256)[])": {
            "notice": "Execute proxyCall with permits and calldata metadata (metadata is ignored on-chain)"
          }
        },
        "notice": "Handles permit + pull tokens then delegates to BalanceProxy core",
        "version": 1
      }
    }
  }
}