{
  "contracts/mocks/BalanceProxyTester.sol": {
    "BalanceProxyTester": {
      "abi": [
        {
          "inputs": [
            {
              "internalType": "address",
              "name": "target",
              "type": "address"
            },
            {
              "internalType": "bytes",
              "name": "data",
              "type": "bytes"
            },
            {
              "internalType": "bytes",
              "name": "returnData",
              "type": "bytes"
            }
          ],
          "name": "CallFailed",
          "type": "error"
        },
        {
          "inputs": [
            {
              "internalType": "address",
              "name": "token",
              "type": "address"
            },
            {
              "internalType": "address",
              "name": "target",
              "type": "address"
            },
            {
              "internalType": "int256",
              "name": "balance",
              "type": "int256"
            },
            {
              "internalType": "uint256",
              "name": "actual",
              "type": "uint256"
            }
          ],
          "name": "InsufficientBalance",
          "type": "error"
        },
        {
          "inputs": [
            {
              "internalType": "address",
              "name": "token",
              "type": "address"
            },
            {
              "internalType": "string",
              "name": "expectedSymbol",
              "type": "string"
            },
            {
              "internalType": "uint8",
              "name": "expectedDecimals",
              "type": "uint8"
            },
            {
              "internalType": "string",
              "name": "actualSymbol",
              "type": "string"
            },
            {
              "internalType": "uint8",
              "name": "actualDecimals",
              "type": "uint8"
            }
          ],
          "name": "InvalidMetadata",
          "type": "error"
        },
        {
          "inputs": [
            {
              "internalType": "address",
              "name": "token",
              "type": "address"
            },
            {
              "internalType": "address",
              "name": "target",
              "type": "address"
            }
          ],
          "name": "MaliciousApproveTarget",
          "type": "error"
        },
        {
          "inputs": [
            {
              "internalType": "int256",
              "name": "amount",
              "type": "int256"
            }
          ],
          "name": "NegativeApprovalAmount",
          "type": "error"
        },
        {
          "inputs": [],
          "name": "ReentrancyGuardReentrantCall",
          "type": "error"
        },
        {
          "inputs": [
            {
              "internalType": "address",
              "name": "token",
              "type": "address"
            },
            {
              "internalType": "address",
              "name": "target",
              "type": "address"
            },
            {
              "internalType": "int256",
              "name": "expected",
              "type": "int256"
            },
            {
              "internalType": "int256",
              "name": "actual",
              "type": "int256"
            }
          ],
          "name": "UnexpectedBalanceDiff",
          "type": "error"
        },
        {
          "inputs": [
            {
              "components": [
                {
                  "internalType": "address",
                  "name": "target",
                  "type": "address"
                },
                {
                  "internalType": "address",
                  "name": "token",
                  "type": "address"
                },
                {
                  "internalType": "int256",
                  "name": "balance",
                  "type": "int256"
                }
              ],
              "internalType": "struct IBalanceProxy.Balance",
              "name": "balance",
              "type": "tuple"
            }
          ],
          "name": "exposeBalanceCheckCalldata",
          "outputs": [],
          "stateMutability": "view",
          "type": "function"
        },
        {
          "inputs": [
            {
              "components": [
                {
                  "internalType": "address",
                  "name": "target",
                  "type": "address"
                },
                {
                  "internalType": "address",
                  "name": "token",
                  "type": "address"
                },
                {
                  "internalType": "int256",
                  "name": "balance",
                  "type": "int256"
                }
              ],
              "internalType": "struct IBalanceProxy.Balance[]",
              "name": "postBalances",
              "type": "tuple[]"
            },
            {
              "components": [
                {
                  "components": [
                    {
                      "internalType": "address",
                      "name": "target",
                      "type": "address"
                    },
                    {
                      "internalType": "address",
                      "name": "token",
                      "type": "address"
                    },
                    {
                      "internalType": "int256",
                      "name": "balance",
                      "type": "int256"
                    }
                  ],
                  "internalType": "struct IBalanceProxy.Balance",
                  "name": "balance",
                  "type": "tuple"
                },
                {
                  "internalType": "bool",
                  "name": "useTransfer",
                  "type": "bool"
                }
              ],
              "internalType": "struct IBalanceProxy.Approval[]",
              "name": "approvals",
              "type": "tuple[]"
            },
            {
              "internalType": "address",
              "name": "target",
              "type": "address"
            },
            {
              "internalType": "bytes",
              "name": "data",
              "type": "bytes"
            },
            {
              "components": [
                {
                  "internalType": "address",
                  "name": "target",
                  "type": "address"
                },
                {
                  "internalType": "address",
                  "name": "token",
                  "type": "address"
                },
                {
                  "internalType": "int256",
                  "name": "balance",
                  "type": "int256"
                }
              ],
              "internalType": "struct IBalanceProxy.Balance[]",
              "name": "withdrawals",
              "type": "tuple[]"
            }
          ],
          "name": "proxyCall",
          "outputs": [
            {
              "internalType": "bytes",
              "name": "",
              "type": "bytes"
            }
          ],
          "stateMutability": "payable",
          "type": "function"
        },
        {
          "inputs": [
            {
              "components": [
                {
                  "internalType": "address",
                  "name": "target",
                  "type": "address"
                },
                {
                  "internalType": "address",
                  "name": "token",
                  "type": "address"
                },
                {
                  "internalType": "int256",
                  "name": "balance",
                  "type": "int256"
                }
              ],
              "internalType": "struct IBalanceProxy.Balance[]",
              "name": "diffs",
              "type": "tuple[]"
            },
            {
              "components": [
                {
                  "components": [
                    {
                      "internalType": "address",
                      "name": "target",
                      "type": "address"
                    },
                    {
                      "internalType": "address",
                      "name": "token",
                      "type": "address"
                    },
                    {
                      "internalType": "int256",
                      "name": "balance",
                      "type": "int256"
                    }
                  ],
                  "internalType": "struct IBalanceProxy.Balance",
                  "name": "balance",
                  "type": "tuple"
                },
                {
                  "internalType": "bool",
                  "name": "useTransfer",
                  "type": "bool"
                }
              ],
              "internalType": "struct IBalanceProxy.Approval[]",
              "name": "approvals",
              "type": "tuple[]"
            },
            {
              "internalType": "address",
              "name": "target",
              "type": "address"
            },
            {
              "internalType": "bytes",
              "name": "data",
              "type": "bytes"
            },
            {
              "components": [
                {
                  "internalType": "address",
                  "name": "target",
                  "type": "address"
                },
                {
                  "internalType": "address",
                  "name": "token",
                  "type": "address"
                },
                {
                  "internalType": "int256",
                  "name": "balance",
                  "type": "int256"
                }
              ],
              "internalType": "struct IBalanceProxy.Balance[]",
              "name": "withdrawals",
              "type": "tuple[]"
            }
          ],
          "name": "proxyCallDiffs",
          "outputs": [
            {
              "internalType": "bytes",
              "name": "",
              "type": "bytes"
            }
          ],
          "stateMutability": "payable",
          "type": "function"
        },
        {
          "inputs": [
            {
              "components": [
                {
                  "components": [
                    {
                      "internalType": "address",
                      "name": "target",
                      "type": "address"
                    },
                    {
                      "internalType": "address",
                      "name": "token",
                      "type": "address"
                    },
                    {
                      "internalType": "int256",
                      "name": "balance",
                      "type": "int256"
                    }
                  ],
                  "internalType": "struct IBalanceProxy.Balance",
                  "name": "balance",
                  "type": "tuple"
                },
                {
                  "internalType": "string",
                  "name": "symbol",
                  "type": "string"
                },
                {
                  "internalType": "uint8",
                  "name": "decimals",
                  "type": "uint8"
                }
              ],
              "internalType": "struct BalanceMetadata[]",
              "name": "meta",
              "type": "tuple[]"
            },
            {
              "components": [
                {
                  "components": [
                    {
                      "internalType": "address",
                      "name": "target",
                      "type": "address"
                    },
                    {
                      "internalType": "address",
                      "name": "token",
                      "type": "address"
                    },
                    {
                      "internalType": "int256",
                      "name": "balance",
                      "type": "int256"
                    }
                  ],
                  "internalType": "struct IBalanceProxy.Balance",
                  "name": "balance",
                  "type": "tuple"
                },
                {
                  "internalType": "bool",
                  "name": "useTransfer",
                  "type": "bool"
                }
              ],
              "internalType": "struct IBalanceProxy.Approval[]",
              "name": "approvals",
              "type": "tuple[]"
            },
            {
              "internalType": "address",
              "name": "target",
              "type": "address"
            },
            {
              "internalType": "bytes",
              "name": "data",
              "type": "bytes"
            },
            {
              "components": [
                {
                  "internalType": "address",
                  "name": "target",
                  "type": "address"
                },
                {
                  "internalType": "address",
                  "name": "token",
                  "type": "address"
                },
                {
                  "internalType": "int256",
                  "name": "balance",
                  "type": "int256"
                }
              ],
              "internalType": "struct IBalanceProxy.Balance[]",
              "name": "withdrawals",
              "type": "tuple[]"
            }
          ],
          "name": "proxyCallDiffsMeta",
          "outputs": [
            {
              "internalType": "bytes",
              "name": "",
              "type": "bytes"
            }
          ],
          "stateMutability": "payable",
          "type": "function"
        },
        {
          "inputs": [
            {
              "components": [
                {
                  "components": [
                    {
                      "internalType": "address",
                      "name": "target",
                      "type": "address"
                    },
                    {
                      "internalType": "address",
                      "name": "token",
                      "type": "address"
                    },
                    {
                      "internalType": "int256",
                      "name": "balance",
                      "type": "int256"
                    }
                  ],
                  "internalType": "struct IBalanceProxy.Balance",
                  "name": "balance",
                  "type": "tuple"
                },
                {
                  "internalType": "string",
                  "name": "symbol",
                  "type": "string"
                },
                {
                  "internalType": "uint8",
                  "name": "decimals",
                  "type": "uint8"
                }
              ],
              "internalType": "struct BalanceMetadata[]",
              "name": "meta",
              "type": "tuple[]"
            },
            {
              "components": [
                {
                  "components": [
                    {
                      "internalType": "address",
                      "name": "target",
                      "type": "address"
                    },
                    {
                      "internalType": "address",
                      "name": "token",
                      "type": "address"
                    },
                    {
                      "internalType": "int256",
                      "name": "balance",
                      "type": "int256"
                    }
                  ],
                  "internalType": "struct IBalanceProxy.Balance",
                  "name": "balance",
                  "type": "tuple"
                },
                {
                  "internalType": "bool",
                  "name": "useTransfer",
                  "type": "bool"
                }
              ],
              "internalType": "struct IBalanceProxy.Approval[]",
              "name": "approvals",
              "type": "tuple[]"
            },
            {
              "internalType": "address",
              "name": "target",
              "type": "address"
            },
            {
              "internalType": "bytes",
              "name": "data",
              "type": "bytes"
            },
            {
              "components": [
                {
                  "internalType": "address",
                  "name": "target",
                  "type": "address"
                },
                {
                  "internalType": "address",
                  "name": "token",
                  "type": "address"
                },
                {
                  "internalType": "int256",
                  "name": "balance",
                  "type": "int256"
                }
              ],
              "internalType": "struct IBalanceProxy.Balance[]",
              "name": "withdrawals",
              "type": "tuple[]"
            }
          ],
          "name": "proxyCallMeta",
          "outputs": [
            {
              "internalType": "bytes",
              "name": "",
              "type": "bytes"
            }
          ],
          "stateMutability": "payable",
          "type": "function"
        },
        {
          "stateMutability": "payable",
          "type": "receive"
        }
      ],
      "devdoc": {
        "errors": {
          "ReentrancyGuardReentrantCall()": [
            {
              "details": "Unauthorized reentrant call."
            }
          ]
        },
        "kind": "dev",
        "methods": {
          "proxyCallDiffsMeta(((address,address,int256),string,uint8)[],((address,address,int256),bool)[],address,bytes,(address,address,int256)[])": {
            "details": "Metadata validation is performed by the router before calling this function"
          },
          "proxyCallMeta(((address,address,int256),string,uint8)[],((address,address,int256),bool)[],address,bytes,(address,address,int256)[])": {
            "details": "Metadata validation is performed by the router before calling this function"
          }
        },
        "version": 1
      },
      "evm": {
        "bytecode": {
          "linkReferences": {},
          "object": "60808060405234601a576001600055610f6f90816100208239f35b600080fdfe6080604052600436101561001b575b361561001957600080fd5b005b60003560e01c806386c62850146104c1578063890e3add146103045780638f873b73146101f2578063ce9506f91461014b5763d3113d8a0361000e5761006036610874565b909361006d939293610b94565b60005b835181101561009657806100908661008a60019488610aab565b51610c63565b01610070565b5091509260008082516020840134875af1926100b0610ad5565b931561012a57505060005b83518110156100e057806100da6100d460019387610aab565b51610d96565b016100bb565b509060005b825181101561010b57806101056100fe60019386610aab565b5151610e58565b016100e5565b600160005560405160208082528190610126908201856109ef565b0390f35b61014784604051938493630881f24f60e31b855260048501610b05565b0390fd5b61015436610a30565b9093610161939293610b94565b60005b8351811015610184578061017e8661008a60019488610aab565b01610164565b5091509260008082516020840134875af19261019e610ad5565b931561012a57505060005b83518110156101c857806101c26100d460019387610aab565b016101a9565b509060005b825181101561010b57806101ec6101e660019386610aab565b51610e58565b016101cd565b346102ff5760603660031901126102ff5760006001600160a01b03610215610e2c565b1661026857610222610e42565b315b604435908160ff1d80830118811061023a578280f35b610147610245610e2c565b9161024e610e42565b9360405194859463d87031f960e01b865260048601610b6a565b6001600160a01b03610278610e2c565b166020610283610e42565b6040516370a0823160e01b81526001600160a01b03909116600482015291829060249082905afa9081156102f45782916102be575b50610224565b90506020813d6020116102ec575b816102d960209383610669565b810103126102e85751826102b8565b5080fd5b3d91506102cc565b6040513d84823e3d90fd5b600080fd5b61030d36610a30565b909293610318610b94565b600090805161032681610a79565b925b818110610482575060005b8751811015610353578061034d8761008a6001948c610aab565b01610333565b5084908660008082516020840134875af19261036d610ad5565b931561012a57505060005b855181101561039757806103916100d460019389610aab565b01610378565b508360005b8281106103be57600160005560405160208082528190610126908201876109ef565b6104086103f76001600160a01b0360206103d8858a610aab565b510151166001600160a01b036103ee858a610aab565b51511690610bb6565b6104018385610aab565b5190610b3b565b60406104148388610aab565b5101518112610426575060010161039c565b8591906101479060406104666001600160a01b0360206104468789610aab565b51015116946001600160a01b0361045d8289610aab565b51511696610aab565b510151604051637ec440e760e11b815294859460048601610b6a565b6001906104b06001600160a01b03602061049c8488610aab565b51015116838060a01b036103ee8488610aab565b6104ba8287610aab565b5201610328565b6104ca36610874565b9092936104d5610b94565b600081516104e281610a79565b915b8181106105fc575060005b875181101561050f57806105098761008a6001948c610aab565b016104ef565b5084908660008082516020840134875af192610529610ad5565b931561012a57505060005b8551811015610553578061054d6100d460019389610aab565b01610534565b508360005b82811061057a57600160005560405160208082528190610126908201876109ef565b6105848183610aab565b515160208101805182519192916105b5916105ab916001600160a01b039081169116610bb6565b610401858a610aab565b6040820151928382126105ce5750505050600101610558565b519151604051637ec440e760e11b815293849361014793926001600160a01b03908116911660048601610b6a565b8061062761060c60019387610aab565b51516020810151905160a085901b8590039081169116610bb6565b6106318286610aab565b52016104e4565b606081019081106001600160401b0382111761065357604052565b634e487b7160e01b600052604160045260246000fd5b90601f801991011681019081106001600160401b0382111761065357604052565b6001600160401b0381116106535760051b60200190565b35906001600160a01b03821682036102ff57565b91908260609103126102ff576040516106cd81610638565b60408082946106db816106a1565b84526106e9602082016106a1565b60208501520135910152565b6001600160401b03811161065357601f01601f191660200190565b92919261071c826106f5565b9161072a6040519384610669565b8294818452818301116102ff578281602093846000960137010152565b9080601f830112156102ff5781359161075f8361068a565b9261076d6040519485610669565b80845260208085019160071b830101918383116102ff57602001905b828210610797575050505090565b6080828503126102ff5760405190604082018281106001600160401b03821117610653576040526107c885846106b5565b825260608301359081151582036102ff5782602092836080950152815201910190610789565b9080601f830112156102ff5781602061080993359101610710565b90565b81601f820112156102ff5780356108228161068a565b926108306040519485610669565b818452602060608186019302840101928184116102ff57602001915b83831061085a575050505090565b602060609161086984866106b5565b81520192019161084c565b60a06003198201126102ff576004356001600160401b0381116102ff57816023820112156102ff578060040135906108ab8261068a565b916108b96040519384610669565b8083526024602084019160051b830101918483116102ff5760248101915b8383106109535750505050916024356001600160401b0381116102ff578261090191600401610747565b916044356001600160a01b03811681036102ff57916064356001600160401b0381116102ff5782610934916004016107ee565b91608435906001600160401b0382116102ff576108099160040161080c565b82356001600160401b0381116102ff5782019060a082880360231901126102ff576040519161098183610638565b61098e88602483016106b5565b835260848101356001600160401b0381116102ff576024908201019088601f830112156102ff576109c78983602060a495359101610710565b602085015201359060ff821682036102ff5782602093926040859401528152019201916108d7565b919082519283825260005b848110610a1b575050826000602080949584010152601f8019910116010190565b806020809284010151828286010152016109fa565b60a06003198201126102ff576004356001600160401b0381116102ff5781610a5a9160040161080c565b916024356001600160401b0381116102ff578261090191600401610747565b90610a838261068a565b610a906040519182610669565b8281528092610aa1601f199161068a565b0190602036910137565b8051821015610abf5760209160051b010190565b634e487b7160e01b600052603260045260246000fd5b3d15610b00573d90610ae6826106f5565b91610af46040519384610669565b82523d6000602084013e565b606090565b6001600160a01b039091168152606060208201819052610809939192610b2d918401906109ef565b9160408184039101526109ef565b81810392916000138015828513169184121617610b5457565b634e487b7160e01b600052601160045260246000fd5b6001600160a01b039182168152911660208201526040810191909152606081019190915260800190565b600260005414610ba5576002600055565b633ee5aeb560e01b60005260046000fd5b6000906001600160a01b031680610bcd5750503190565b6040516370a0823160e01b81526001600160a01b039093166004840152909190602090829060249082905afa918215610c3f578092610c0b57505090565b9091506020823d602011610c37575b81610c2760209383610669565b81010312610c3457505190565b80fd5b3d9150610c1a565b604051903d90823e3d90fd5b908160209103126102ff575180151581036102ff5790565b80518051919290916001600160a01b0390811691168103610d71575060408101805160008112610d5d5750516020929092015115610d1e57602081810151915160405163a9059cbb60e01b81526001600160a01b0391821660048201526024810194909452909183911681600081604481015b03925af18015610d1257610ce75750565b610d089060203d602011610d0b575b610d008183610669565b810190610c4b565b50565b503d610cf6565b6040513d6000823e3d90fd5b602081810151915160405163095ea7b360e01b81526001600160a01b039182166004820152602481019490945290918391168160008160448101610cd6565b63303b302960e11b60005260045260246000fd5b90602060018060a01b0391015116635876e71160e01b60005260045260245260446000fd5b60208101516001600160a01b031680610de65750600080808093604060018060a01b03825116910151908160ff1d809201918392818114610ddc575b1891f115610d1257565b6108fc9350610dd2565b8151604092830151925163a9059cbb60e01b81526001600160a01b03909116600482015260ff83901d928301909218602483015260209082908160008160448101610cd6565b6024356001600160a01b03811681036102ff5790565b6004356001600160a01b03811681036102ff5790565b6020810180519091906000906001600160a01b031680610ec957505080516001600160a01b0316315b6040820151928360ff1d808501188210610e9b5750505050565b51915160405163d87031f960e01b815293849361014793926001600160a01b03908116911660048601610b6a565b602060018060a01b038451166024604051809481936370a0823160e01b835260048301525afa918215610c3f578092610f04575b5050610e81565b9091506020823d602011610f31575b81610f2060209383610669565b81010312610c345750513880610efd565b3d9150610f1356fea26469706673582212204317c2185e14bb1a8a3459bf74b7ef2a91d88df3b1747f98cfa3d59194d205bd64736f6c634300081b0033",
          "opcodes": "PUSH1 0x80 DUP1 PUSH1 0x40 MSTORE CALLVALUE PUSH1 0x1A JUMPI PUSH1 0x1 PUSH1 0x0 SSTORE PUSH2 0xF6F SWAP1 DUP2 PUSH2 0x20 DUP3 CODECOPY RETURN JUMPDEST PUSH1 0x0 DUP1 REVERT INVALID PUSH1 0x80 PUSH1 0x40 MSTORE PUSH1 0x4 CALLDATASIZE LT ISZERO PUSH2 0x1B JUMPI JUMPDEST CALLDATASIZE ISZERO PUSH2 0x19 JUMPI PUSH1 0x0 DUP1 REVERT JUMPDEST STOP JUMPDEST PUSH1 0x0 CALLDATALOAD PUSH1 0xE0 SHR DUP1 PUSH4 0x86C62850 EQ PUSH2 0x4C1 JUMPI DUP1 PUSH4 0x890E3ADD EQ PUSH2 0x304 JUMPI DUP1 PUSH4 0x8F873B73 EQ PUSH2 0x1F2 JUMPI DUP1 PUSH4 0xCE9506F9 EQ PUSH2 0x14B JUMPI PUSH4 0xD3113D8A SUB PUSH2 0xE JUMPI PUSH2 0x60 CALLDATASIZE PUSH2 0x874 JUMP JUMPDEST SWAP1 SWAP4 PUSH2 0x6D SWAP4 SWAP3 SWAP4 PUSH2 0xB94 JUMP JUMPDEST PUSH1 0x0 JUMPDEST DUP4 MLOAD DUP2 LT ISZERO PUSH2 0x96 JUMPI DUP1 PUSH2 0x90 DUP7 PUSH2 0x8A PUSH1 0x1 SWAP5 DUP9 PUSH2 0xAAB JUMP JUMPDEST MLOAD PUSH2 0xC63 JUMP JUMPDEST ADD PUSH2 0x70 JUMP JUMPDEST POP SWAP2 POP SWAP3 PUSH1 0x0 DUP1 DUP3 MLOAD PUSH1 0x20 DUP5 ADD CALLVALUE DUP8 GAS CALL SWAP3 PUSH2 0xB0 PUSH2 0xAD5 JUMP JUMPDEST SWAP4 ISZERO PUSH2 0x12A JUMPI POP POP PUSH1 0x0 JUMPDEST DUP4 MLOAD DUP2 LT ISZERO PUSH2 0xE0 JUMPI DUP1 PUSH2 0xDA PUSH2 0xD4 PUSH1 0x1 SWAP4 DUP8 PUSH2 0xAAB JUMP JUMPDEST MLOAD PUSH2 0xD96 JUMP JUMPDEST ADD PUSH2 0xBB JUMP JUMPDEST POP SWAP1 PUSH1 0x0 JUMPDEST DUP3 MLOAD DUP2 LT ISZERO PUSH2 0x10B JUMPI DUP1 PUSH2 0x105 PUSH2 0xFE PUSH1 0x1 SWAP4 DUP7 PUSH2 0xAAB JUMP JUMPDEST MLOAD MLOAD PUSH2 0xE58 JUMP JUMPDEST ADD PUSH2 0xE5 JUMP JUMPDEST PUSH1 0x1 PUSH1 0x0 SSTORE PUSH1 0x40 MLOAD PUSH1 0x20 DUP1 DUP3 MSTORE DUP2 SWAP1 PUSH2 0x126 SWAP1 DUP3 ADD DUP6 PUSH2 0x9EF JUMP JUMPDEST SUB SWAP1 RETURN JUMPDEST PUSH2 0x147 DUP5 PUSH1 0x40 MLOAD SWAP4 DUP5 SWAP4 PUSH4 0x881F24F PUSH1 0xE3 SHL DUP6 MSTORE PUSH1 0x4 DUP6 ADD PUSH2 0xB05 JUMP JUMPDEST SUB SWAP1 REVERT JUMPDEST PUSH2 0x154 CALLDATASIZE PUSH2 0xA30 JUMP JUMPDEST SWAP1 SWAP4 PUSH2 0x161 SWAP4 SWAP3 SWAP4 PUSH2 0xB94 JUMP JUMPDEST PUSH1 0x0 JUMPDEST DUP4 MLOAD DUP2 LT ISZERO PUSH2 0x184 JUMPI DUP1 PUSH2 0x17E DUP7 PUSH2 0x8A PUSH1 0x1 SWAP5 DUP9 PUSH2 0xAAB JUMP JUMPDEST ADD PUSH2 0x164 JUMP JUMPDEST POP SWAP2 POP SWAP3 PUSH1 0x0 DUP1 DUP3 MLOAD PUSH1 0x20 DUP5 ADD CALLVALUE DUP8 GAS CALL SWAP3 PUSH2 0x19E PUSH2 0xAD5 JUMP JUMPDEST SWAP4 ISZERO PUSH2 0x12A JUMPI POP POP PUSH1 0x0 JUMPDEST DUP4 MLOAD DUP2 LT ISZERO PUSH2 0x1C8 JUMPI DUP1 PUSH2 0x1C2 PUSH2 0xD4 PUSH1 0x1 SWAP4 DUP8 PUSH2 0xAAB JUMP JUMPDEST ADD PUSH2 0x1A9 JUMP JUMPDEST POP SWAP1 PUSH1 0x0 JUMPDEST DUP3 MLOAD DUP2 LT ISZERO PUSH2 0x10B JUMPI DUP1 PUSH2 0x1EC PUSH2 0x1E6 PUSH1 0x1 SWAP4 DUP7 PUSH2 0xAAB JUMP JUMPDEST MLOAD PUSH2 0xE58 JUMP JUMPDEST ADD PUSH2 0x1CD JUMP JUMPDEST CALLVALUE PUSH2 0x2FF JUMPI PUSH1 0x60 CALLDATASIZE PUSH1 0x3 NOT ADD SLT PUSH2 0x2FF JUMPI PUSH1 0x0 PUSH1 0x1 PUSH1 0x1 PUSH1 0xA0 SHL SUB PUSH2 0x215 PUSH2 0xE2C JUMP JUMPDEST AND PUSH2 0x268 JUMPI PUSH2 0x222 PUSH2 0xE42 JUMP JUMPDEST BALANCE JUMPDEST PUSH1 0x44 CALLDATALOAD SWAP1 DUP2 PUSH1 0xFF SAR DUP1 DUP4 ADD XOR DUP2 LT PUSH2 0x23A JUMPI DUP3 DUP1 RETURN JUMPDEST PUSH2 0x147 PUSH2 0x245 PUSH2 0xE2C JUMP JUMPDEST SWAP2 PUSH2 0x24E PUSH2 0xE42 JUMP JUMPDEST SWAP4 PUSH1 0x40 MLOAD SWAP5 DUP6 SWAP5 PUSH4 0xD87031F9 PUSH1 0xE0 SHL DUP7 MSTORE PUSH1 0x4 DUP7 ADD PUSH2 0xB6A JUMP JUMPDEST PUSH1 0x1 PUSH1 0x1 PUSH1 0xA0 SHL SUB PUSH2 0x278 PUSH2 0xE2C JUMP JUMPDEST AND PUSH1 0x20 PUSH2 0x283 PUSH2 0xE42 JUMP JUMPDEST PUSH1 0x40 MLOAD PUSH4 0x70A08231 PUSH1 0xE0 SHL DUP2 MSTORE PUSH1 0x1 PUSH1 0x1 PUSH1 0xA0 SHL SUB SWAP1 SWAP2 AND PUSH1 0x4 DUP3 ADD MSTORE SWAP2 DUP3 SWAP1 PUSH1 0x24 SWAP1 DUP3 SWAP1 GAS STATICCALL SWAP1 DUP2 ISZERO PUSH2 0x2F4 JUMPI DUP3 SWAP2 PUSH2 0x2BE JUMPI JUMPDEST POP PUSH2 0x224 JUMP JUMPDEST SWAP1 POP PUSH1 0x20 DUP2 RETURNDATASIZE PUSH1 0x20 GT PUSH2 0x2EC JUMPI JUMPDEST DUP2 PUSH2 0x2D9 PUSH1 0x20 SWAP4 DUP4 PUSH2 0x669 JUMP JUMPDEST DUP2 ADD SUB SLT PUSH2 0x2E8 JUMPI MLOAD DUP3 PUSH2 0x2B8 JUMP JUMPDEST POP DUP1 REVERT JUMPDEST RETURNDATASIZE SWAP2 POP PUSH2 0x2CC JUMP JUMPDEST PUSH1 0x40 MLOAD RETURNDATASIZE DUP5 DUP3 RETURNDATACOPY RETURNDATASIZE SWAP1 REVERT JUMPDEST PUSH1 0x0 DUP1 REVERT JUMPDEST PUSH2 0x30D CALLDATASIZE PUSH2 0xA30 JUMP JUMPDEST SWAP1 SWAP3 SWAP4 PUSH2 0x318 PUSH2 0xB94 JUMP JUMPDEST PUSH1 0x0 SWAP1 DUP1 MLOAD PUSH2 0x326 DUP2 PUSH2 0xA79 JUMP JUMPDEST SWAP3 JUMPDEST DUP2 DUP2 LT PUSH2 0x482 JUMPI POP PUSH1 0x0 JUMPDEST DUP8 MLOAD DUP2 LT ISZERO PUSH2 0x353 JUMPI DUP1 PUSH2 0x34D DUP8 PUSH2 0x8A PUSH1 0x1 SWAP5 DUP13 PUSH2 0xAAB JUMP JUMPDEST ADD PUSH2 0x333 JUMP JUMPDEST POP DUP5 SWAP1 DUP7 PUSH1 0x0 DUP1 DUP3 MLOAD PUSH1 0x20 DUP5 ADD CALLVALUE DUP8 GAS CALL SWAP3 PUSH2 0x36D PUSH2 0xAD5 JUMP JUMPDEST SWAP4 ISZERO PUSH2 0x12A JUMPI POP POP PUSH1 0x0 JUMPDEST DUP6 MLOAD DUP2 LT ISZERO PUSH2 0x397 JUMPI DUP1 PUSH2 0x391 PUSH2 0xD4 PUSH1 0x1 SWAP4 DUP10 PUSH2 0xAAB JUMP JUMPDEST ADD PUSH2 0x378 JUMP JUMPDEST POP DUP4 PUSH1 0x0 JUMPDEST DUP3 DUP2 LT PUSH2 0x3BE JUMPI PUSH1 0x1 PUSH1 0x0 SSTORE PUSH1 0x40 MLOAD PUSH1 0x20 DUP1 DUP3 MSTORE DUP2 SWAP1 PUSH2 0x126 SWAP1 DUP3 ADD DUP8 PUSH2 0x9EF JUMP JUMPDEST PUSH2 0x408 PUSH2 0x3F7 PUSH1 0x1 PUSH1 0x1 PUSH1 0xA0 SHL SUB PUSH1 0x20 PUSH2 0x3D8 DUP6 DUP11 PUSH2 0xAAB JUMP JUMPDEST MLOAD ADD MLOAD AND PUSH1 0x1 PUSH1 0x1 PUSH1 0xA0 SHL SUB PUSH2 0x3EE DUP6 DUP11 PUSH2 0xAAB JUMP JUMPDEST MLOAD MLOAD AND SWAP1 PUSH2 0xBB6 JUMP JUMPDEST PUSH2 0x401 DUP4 DUP6 PUSH2 0xAAB JUMP JUMPDEST MLOAD SWAP1 PUSH2 0xB3B JUMP JUMPDEST PUSH1 0x40 PUSH2 0x414 DUP4 DUP9 PUSH2 0xAAB JUMP JUMPDEST MLOAD ADD MLOAD DUP2 SLT PUSH2 0x426 JUMPI POP PUSH1 0x1 ADD PUSH2 0x39C JUMP JUMPDEST DUP6 SWAP2 SWAP1 PUSH2 0x147 SWAP1 PUSH1 0x40 PUSH2 0x466 PUSH1 0x1 PUSH1 0x1 PUSH1 0xA0 SHL SUB PUSH1 0x20 PUSH2 0x446 DUP8 DUP10 PUSH2 0xAAB JUMP JUMPDEST MLOAD ADD MLOAD AND SWAP5 PUSH1 0x1 PUSH1 0x1 PUSH1 0xA0 SHL SUB PUSH2 0x45D DUP3 DUP10 PUSH2 0xAAB JUMP JUMPDEST MLOAD MLOAD AND SWAP7 PUSH2 0xAAB JUMP JUMPDEST MLOAD ADD MLOAD PUSH1 0x40 MLOAD PUSH4 0x7EC440E7 PUSH1 0xE1 SHL DUP2 MSTORE SWAP5 DUP6 SWAP5 PUSH1 0x4 DUP7 ADD PUSH2 0xB6A JUMP JUMPDEST PUSH1 0x1 SWAP1 PUSH2 0x4B0 PUSH1 0x1 PUSH1 0x1 PUSH1 0xA0 SHL SUB PUSH1 0x20 PUSH2 0x49C DUP5 DUP9 PUSH2 0xAAB JUMP JUMPDEST MLOAD ADD MLOAD AND DUP4 DUP1 PUSH1 0xA0 SHL SUB PUSH2 0x3EE DUP5 DUP9 PUSH2 0xAAB JUMP JUMPDEST PUSH2 0x4BA DUP3 DUP8 PUSH2 0xAAB JUMP JUMPDEST MSTORE ADD PUSH2 0x328 JUMP JUMPDEST PUSH2 0x4CA CALLDATASIZE PUSH2 0x874 JUMP JUMPDEST SWAP1 SWAP3 SWAP4 PUSH2 0x4D5 PUSH2 0xB94 JUMP JUMPDEST PUSH1 0x0 DUP2 MLOAD PUSH2 0x4E2 DUP2 PUSH2 0xA79 JUMP JUMPDEST SWAP2 JUMPDEST DUP2 DUP2 LT PUSH2 0x5FC JUMPI POP PUSH1 0x0 JUMPDEST DUP8 MLOAD DUP2 LT ISZERO PUSH2 0x50F JUMPI DUP1 PUSH2 0x509 DUP8 PUSH2 0x8A PUSH1 0x1 SWAP5 DUP13 PUSH2 0xAAB JUMP JUMPDEST ADD PUSH2 0x4EF JUMP JUMPDEST POP DUP5 SWAP1 DUP7 PUSH1 0x0 DUP1 DUP3 MLOAD PUSH1 0x20 DUP5 ADD CALLVALUE DUP8 GAS CALL SWAP3 PUSH2 0x529 PUSH2 0xAD5 JUMP JUMPDEST SWAP4 ISZERO PUSH2 0x12A JUMPI POP POP PUSH1 0x0 JUMPDEST DUP6 MLOAD DUP2 LT ISZERO PUSH2 0x553 JUMPI DUP1 PUSH2 0x54D PUSH2 0xD4 PUSH1 0x1 SWAP4 DUP10 PUSH2 0xAAB JUMP JUMPDEST ADD PUSH2 0x534 JUMP JUMPDEST POP DUP4 PUSH1 0x0 JUMPDEST DUP3 DUP2 LT PUSH2 0x57A JUMPI PUSH1 0x1 PUSH1 0x0 SSTORE PUSH1 0x40 MLOAD PUSH1 0x20 DUP1 DUP3 MSTORE DUP2 SWAP1 PUSH2 0x126 SWAP1 DUP3 ADD DUP8 PUSH2 0x9EF JUMP JUMPDEST PUSH2 0x584 DUP2 DUP4 PUSH2 0xAAB JUMP JUMPDEST MLOAD MLOAD PUSH1 0x20 DUP2 ADD DUP1 MLOAD DUP3 MLOAD SWAP2 SWAP3 SWAP2 PUSH2 0x5B5 SWAP2 PUSH2 0x5AB SWAP2 PUSH1 0x1 PUSH1 0x1 PUSH1 0xA0 SHL SUB SWAP1 DUP2 AND SWAP2 AND PUSH2 0xBB6 JUMP JUMPDEST PUSH2 0x401 DUP6 DUP11 PUSH2 0xAAB JUMP JUMPDEST PUSH1 0x40 DUP3 ADD MLOAD SWAP3 DUP4 DUP3 SLT PUSH2 0x5CE JUMPI POP POP POP POP PUSH1 0x1 ADD PUSH2 0x558 JUMP JUMPDEST MLOAD SWAP2 MLOAD PUSH1 0x40 MLOAD PUSH4 0x7EC440E7 PUSH1 0xE1 SHL DUP2 MSTORE SWAP4 DUP5 SWAP4 PUSH2 0x147 SWAP4 SWAP3 PUSH1 0x1 PUSH1 0x1 PUSH1 0xA0 SHL SUB SWAP1 DUP2 AND SWAP2 AND PUSH1 0x4 DUP7 ADD PUSH2 0xB6A JUMP JUMPDEST DUP1 PUSH2 0x627 PUSH2 0x60C PUSH1 0x1 SWAP4 DUP8 PUSH2 0xAAB JUMP JUMPDEST MLOAD MLOAD PUSH1 0x20 DUP2 ADD MLOAD SWAP1 MLOAD PUSH1 0xA0 DUP6 SWAP1 SHL DUP6 SWAP1 SUB SWAP1 DUP2 AND SWAP2 AND PUSH2 0xBB6 JUMP JUMPDEST PUSH2 0x631 DUP3 DUP7 PUSH2 0xAAB JUMP JUMPDEST MSTORE ADD PUSH2 0x4E4 JUMP JUMPDEST PUSH1 0x60 DUP2 ADD SWAP1 DUP2 LT PUSH1 0x1 PUSH1 0x1 PUSH1 0x40 SHL SUB DUP3 GT OR PUSH2 0x653 JUMPI PUSH1 0x40 MSTORE JUMP JUMPDEST PUSH4 0x4E487B71 PUSH1 0xE0 SHL PUSH1 0x0 MSTORE PUSH1 0x41 PUSH1 0x4 MSTORE PUSH1 0x24 PUSH1 0x0 REVERT JUMPDEST SWAP1 PUSH1 0x1F DUP1 NOT SWAP2 ADD AND DUP2 ADD SWAP1 DUP2 LT PUSH1 0x1 PUSH1 0x1 PUSH1 0x40 SHL SUB DUP3 GT OR PUSH2 0x653 JUMPI PUSH1 0x40 MSTORE JUMP JUMPDEST PUSH1 0x1 PUSH1 0x1 PUSH1 0x40 SHL SUB DUP2 GT PUSH2 0x653 JUMPI PUSH1 0x5 SHL PUSH1 0x20 ADD SWAP1 JUMP JUMPDEST CALLDATALOAD SWAP1 PUSH1 0x1 PUSH1 0x1 PUSH1 0xA0 SHL SUB DUP3 AND DUP3 SUB PUSH2 0x2FF JUMPI JUMP JUMPDEST SWAP2 SWAP1 DUP3 PUSH1 0x60 SWAP2 SUB SLT PUSH2 0x2FF JUMPI PUSH1 0x40 MLOAD PUSH2 0x6CD DUP2 PUSH2 0x638 JUMP JUMPDEST PUSH1 0x40 DUP1 DUP3 SWAP5 PUSH2 0x6DB DUP2 PUSH2 0x6A1 JUMP JUMPDEST DUP5 MSTORE PUSH2 0x6E9 PUSH1 0x20 DUP3 ADD PUSH2 0x6A1 JUMP JUMPDEST PUSH1 0x20 DUP6 ADD MSTORE ADD CALLDATALOAD SWAP2 ADD MSTORE JUMP JUMPDEST PUSH1 0x1 PUSH1 0x1 PUSH1 0x40 SHL SUB DUP2 GT PUSH2 0x653 JUMPI PUSH1 0x1F ADD PUSH1 0x1F NOT AND PUSH1 0x20 ADD SWAP1 JUMP JUMPDEST SWAP3 SWAP2 SWAP3 PUSH2 0x71C DUP3 PUSH2 0x6F5 JUMP JUMPDEST SWAP2 PUSH2 0x72A PUSH1 0x40 MLOAD SWAP4 DUP5 PUSH2 0x669 JUMP JUMPDEST DUP3 SWAP5 DUP2 DUP5 MSTORE DUP2 DUP4 ADD GT PUSH2 0x2FF JUMPI DUP3 DUP2 PUSH1 0x20 SWAP4 DUP5 PUSH1 0x0 SWAP7 ADD CALLDATACOPY ADD ADD MSTORE JUMP JUMPDEST SWAP1 DUP1 PUSH1 0x1F DUP4 ADD SLT ISZERO PUSH2 0x2FF JUMPI DUP2 CALLDATALOAD SWAP2 PUSH2 0x75F DUP4 PUSH2 0x68A JUMP JUMPDEST SWAP3 PUSH2 0x76D PUSH1 0x40 MLOAD SWAP5 DUP6 PUSH2 0x669 JUMP JUMPDEST DUP1 DUP5 MSTORE PUSH1 0x20 DUP1 DUP6 ADD SWAP2 PUSH1 0x7 SHL DUP4 ADD ADD SWAP2 DUP4 DUP4 GT PUSH2 0x2FF JUMPI PUSH1 0x20 ADD SWAP1 JUMPDEST DUP3 DUP3 LT PUSH2 0x797 JUMPI POP POP POP POP SWAP1 JUMP JUMPDEST PUSH1 0x80 DUP3 DUP6 SUB SLT PUSH2 0x2FF JUMPI PUSH1 0x40 MLOAD SWAP1 PUSH1 0x40 DUP3 ADD DUP3 DUP2 LT PUSH1 0x1 PUSH1 0x1 PUSH1 0x40 SHL SUB DUP3 GT OR PUSH2 0x653 JUMPI PUSH1 0x40 MSTORE PUSH2 0x7C8 DUP6 DUP5 PUSH2 0x6B5 JUMP JUMPDEST DUP3 MSTORE PUSH1 0x60 DUP4 ADD CALLDATALOAD SWAP1 DUP2 ISZERO ISZERO DUP3 SUB PUSH2 0x2FF JUMPI DUP3 PUSH1 0x20 SWAP3 DUP4 PUSH1 0x80 SWAP6 ADD MSTORE DUP2 MSTORE ADD SWAP2 ADD SWAP1 PUSH2 0x789 JUMP JUMPDEST SWAP1 DUP1 PUSH1 0x1F DUP4 ADD SLT ISZERO PUSH2 0x2FF JUMPI DUP2 PUSH1 0x20 PUSH2 0x809 SWAP4 CALLDATALOAD SWAP2 ADD PUSH2 0x710 JUMP JUMPDEST SWAP1 JUMP JUMPDEST DUP2 PUSH1 0x1F DUP3 ADD SLT ISZERO PUSH2 0x2FF JUMPI DUP1 CALLDATALOAD PUSH2 0x822 DUP2 PUSH2 0x68A JUMP JUMPDEST SWAP3 PUSH2 0x830 PUSH1 0x40 MLOAD SWAP5 DUP6 PUSH2 0x669 JUMP JUMPDEST DUP2 DUP5 MSTORE PUSH1 0x20 PUSH1 0x60 DUP2 DUP7 ADD SWAP4 MUL DUP5 ADD ADD SWAP3 DUP2 DUP5 GT PUSH2 0x2FF JUMPI PUSH1 0x20 ADD SWAP2 JUMPDEST DUP4 DUP4 LT PUSH2 0x85A JUMPI POP POP POP POP SWAP1 JUMP JUMPDEST PUSH1 0x20 PUSH1 0x60 SWAP2 PUSH2 0x869 DUP5 DUP7 PUSH2 0x6B5 JUMP JUMPDEST DUP2 MSTORE ADD SWAP3 ADD SWAP2 PUSH2 0x84C JUMP JUMPDEST PUSH1 0xA0 PUSH1 0x3 NOT DUP3 ADD SLT PUSH2 0x2FF JUMPI PUSH1 0x4 CALLDATALOAD PUSH1 0x1 PUSH1 0x1 PUSH1 0x40 SHL SUB DUP2 GT PUSH2 0x2FF JUMPI DUP2 PUSH1 0x23 DUP3 ADD SLT ISZERO PUSH2 0x2FF JUMPI DUP1 PUSH1 0x4 ADD CALLDATALOAD SWAP1 PUSH2 0x8AB DUP3 PUSH2 0x68A JUMP JUMPDEST SWAP2 PUSH2 0x8B9 PUSH1 0x40 MLOAD SWAP4 DUP5 PUSH2 0x669 JUMP JUMPDEST DUP1 DUP4 MSTORE PUSH1 0x24 PUSH1 0x20 DUP5 ADD SWAP2 PUSH1 0x5 SHL DUP4 ADD ADD SWAP2 DUP5 DUP4 GT PUSH2 0x2FF JUMPI PUSH1 0x24 DUP2 ADD SWAP2 JUMPDEST DUP4 DUP4 LT PUSH2 0x953 JUMPI POP POP POP POP SWAP2 PUSH1 0x24 CALLDATALOAD PUSH1 0x1 PUSH1 0x1 PUSH1 0x40 SHL SUB DUP2 GT PUSH2 0x2FF JUMPI DUP3 PUSH2 0x901 SWAP2 PUSH1 0x4 ADD PUSH2 0x747 JUMP JUMPDEST SWAP2 PUSH1 0x44 CALLDATALOAD PUSH1 0x1 PUSH1 0x1 PUSH1 0xA0 SHL SUB DUP2 AND DUP2 SUB PUSH2 0x2FF JUMPI SWAP2 PUSH1 0x64 CALLDATALOAD PUSH1 0x1 PUSH1 0x1 PUSH1 0x40 SHL SUB DUP2 GT PUSH2 0x2FF JUMPI DUP3 PUSH2 0x934 SWAP2 PUSH1 0x4 ADD PUSH2 0x7EE JUMP JUMPDEST SWAP2 PUSH1 0x84 CALLDATALOAD SWAP1 PUSH1 0x1 PUSH1 0x1 PUSH1 0x40 SHL SUB DUP3 GT PUSH2 0x2FF JUMPI PUSH2 0x809 SWAP2 PUSH1 0x4 ADD PUSH2 0x80C JUMP JUMPDEST DUP3 CALLDATALOAD PUSH1 0x1 PUSH1 0x1 PUSH1 0x40 SHL SUB DUP2 GT PUSH2 0x2FF JUMPI DUP3 ADD SWAP1 PUSH1 0xA0 DUP3 DUP9 SUB PUSH1 0x23 NOT ADD SLT PUSH2 0x2FF JUMPI PUSH1 0x40 MLOAD SWAP2 PUSH2 0x981 DUP4 PUSH2 0x638 JUMP JUMPDEST PUSH2 0x98E DUP9 PUSH1 0x24 DUP4 ADD PUSH2 0x6B5 JUMP JUMPDEST DUP4 MSTORE PUSH1 0x84 DUP2 ADD CALLDATALOAD PUSH1 0x1 PUSH1 0x1 PUSH1 0x40 SHL SUB DUP2 GT PUSH2 0x2FF JUMPI PUSH1 0x24 SWAP1 DUP3 ADD ADD SWAP1 DUP9 PUSH1 0x1F DUP4 ADD SLT ISZERO PUSH2 0x2FF JUMPI PUSH2 0x9C7 DUP10 DUP4 PUSH1 0x20 PUSH1 0xA4 SWAP6 CALLDATALOAD SWAP2 ADD PUSH2 0x710 JUMP JUMPDEST PUSH1 0x20 DUP6 ADD MSTORE ADD CALLDATALOAD SWAP1 PUSH1 0xFF DUP3 AND DUP3 SUB PUSH2 0x2FF JUMPI DUP3 PUSH1 0x20 SWAP4 SWAP3 PUSH1 0x40 DUP6 SWAP5 ADD MSTORE DUP2 MSTORE ADD SWAP3 ADD SWAP2 PUSH2 0x8D7 JUMP JUMPDEST SWAP2 SWAP1 DUP3 MLOAD SWAP3 DUP4 DUP3 MSTORE PUSH1 0x0 JUMPDEST DUP5 DUP2 LT PUSH2 0xA1B JUMPI POP POP DUP3 PUSH1 0x0 PUSH1 0x20 DUP1 SWAP5 SWAP6 DUP5 ADD ADD MSTORE PUSH1 0x1F DUP1 NOT SWAP2 ADD AND ADD ADD SWAP1 JUMP JUMPDEST DUP1 PUSH1 0x20 DUP1 SWAP3 DUP5 ADD ADD MLOAD DUP3 DUP3 DUP7 ADD ADD MSTORE ADD PUSH2 0x9FA JUMP JUMPDEST PUSH1 0xA0 PUSH1 0x3 NOT DUP3 ADD SLT PUSH2 0x2FF JUMPI PUSH1 0x4 CALLDATALOAD PUSH1 0x1 PUSH1 0x1 PUSH1 0x40 SHL SUB DUP2 GT PUSH2 0x2FF JUMPI DUP2 PUSH2 0xA5A SWAP2 PUSH1 0x4 ADD PUSH2 0x80C JUMP JUMPDEST SWAP2 PUSH1 0x24 CALLDATALOAD PUSH1 0x1 PUSH1 0x1 PUSH1 0x40 SHL SUB DUP2 GT PUSH2 0x2FF JUMPI DUP3 PUSH2 0x901 SWAP2 PUSH1 0x4 ADD PUSH2 0x747 JUMP JUMPDEST SWAP1 PUSH2 0xA83 DUP3 PUSH2 0x68A JUMP JUMPDEST PUSH2 0xA90 PUSH1 0x40 MLOAD SWAP2 DUP3 PUSH2 0x669 JUMP JUMPDEST DUP3 DUP2 MSTORE DUP1 SWAP3 PUSH2 0xAA1 PUSH1 0x1F NOT SWAP2 PUSH2 0x68A JUMP JUMPDEST ADD SWAP1 PUSH1 0x20 CALLDATASIZE SWAP2 ADD CALLDATACOPY JUMP JUMPDEST DUP1 MLOAD DUP3 LT ISZERO PUSH2 0xABF JUMPI PUSH1 0x20 SWAP2 PUSH1 0x5 SHL ADD ADD SWAP1 JUMP JUMPDEST PUSH4 0x4E487B71 PUSH1 0xE0 SHL PUSH1 0x0 MSTORE PUSH1 0x32 PUSH1 0x4 MSTORE PUSH1 0x24 PUSH1 0x0 REVERT JUMPDEST RETURNDATASIZE ISZERO PUSH2 0xB00 JUMPI RETURNDATASIZE SWAP1 PUSH2 0xAE6 DUP3 PUSH2 0x6F5 JUMP JUMPDEST SWAP2 PUSH2 0xAF4 PUSH1 0x40 MLOAD SWAP4 DUP5 PUSH2 0x669 JUMP JUMPDEST DUP3 MSTORE RETURNDATASIZE PUSH1 0x0 PUSH1 0x20 DUP5 ADD RETURNDATACOPY JUMP JUMPDEST PUSH1 0x60 SWAP1 JUMP JUMPDEST PUSH1 0x1 PUSH1 0x1 PUSH1 0xA0 SHL SUB SWAP1 SWAP2 AND DUP2 MSTORE PUSH1 0x60 PUSH1 0x20 DUP3 ADD DUP2 SWAP1 MSTORE PUSH2 0x809 SWAP4 SWAP2 SWAP3 PUSH2 0xB2D SWAP2 DUP5 ADD SWAP1 PUSH2 0x9EF JUMP JUMPDEST SWAP2 PUSH1 0x40 DUP2 DUP5 SUB SWAP2 ADD MSTORE PUSH2 0x9EF JUMP JUMPDEST DUP2 DUP2 SUB SWAP3 SWAP2 PUSH1 0x0 SGT DUP1 ISZERO DUP3 DUP6 SGT AND SWAP2 DUP5 SLT AND OR PUSH2 0xB54 JUMPI JUMP JUMPDEST PUSH4 0x4E487B71 PUSH1 0xE0 SHL PUSH1 0x0 MSTORE PUSH1 0x11 PUSH1 0x4 MSTORE PUSH1 0x24 PUSH1 0x0 REVERT JUMPDEST PUSH1 0x1 PUSH1 0x1 PUSH1 0xA0 SHL SUB SWAP2 DUP3 AND DUP2 MSTORE SWAP2 AND PUSH1 0x20 DUP3 ADD MSTORE PUSH1 0x40 DUP2 ADD SWAP2 SWAP1 SWAP2 MSTORE PUSH1 0x60 DUP2 ADD SWAP2 SWAP1 SWAP2 MSTORE PUSH1 0x80 ADD SWAP1 JUMP JUMPDEST PUSH1 0x2 PUSH1 0x0 SLOAD EQ PUSH2 0xBA5 JUMPI PUSH1 0x2 PUSH1 0x0 SSTORE JUMP JUMPDEST PUSH4 0x3EE5AEB5 PUSH1 0xE0 SHL PUSH1 0x0 MSTORE PUSH1 0x4 PUSH1 0x0 REVERT JUMPDEST PUSH1 0x0 SWAP1 PUSH1 0x1 PUSH1 0x1 PUSH1 0xA0 SHL SUB AND DUP1 PUSH2 0xBCD JUMPI POP POP BALANCE SWAP1 JUMP JUMPDEST PUSH1 0x40 MLOAD PUSH4 0x70A08231 PUSH1 0xE0 SHL DUP2 MSTORE PUSH1 0x1 PUSH1 0x1 PUSH1 0xA0 SHL SUB SWAP1 SWAP4 AND PUSH1 0x4 DUP5 ADD MSTORE SWAP1 SWAP2 SWAP1 PUSH1 0x20 SWAP1 DUP3 SWAP1 PUSH1 0x24 SWAP1 DUP3 SWAP1 GAS STATICCALL SWAP2 DUP3 ISZERO PUSH2 0xC3F JUMPI DUP1 SWAP3 PUSH2 0xC0B JUMPI POP POP SWAP1 JUMP JUMPDEST SWAP1 SWAP2 POP PUSH1 0x20 DUP3 RETURNDATASIZE PUSH1 0x20 GT PUSH2 0xC37 JUMPI JUMPDEST DUP2 PUSH2 0xC27 PUSH1 0x20 SWAP4 DUP4 PUSH2 0x669 JUMP JUMPDEST DUP2 ADD SUB SLT PUSH2 0xC34 JUMPI POP MLOAD SWAP1 JUMP JUMPDEST DUP1 REVERT JUMPDEST RETURNDATASIZE SWAP2 POP PUSH2 0xC1A JUMP JUMPDEST PUSH1 0x40 MLOAD SWAP1 RETURNDATASIZE SWAP1 DUP3 RETURNDATACOPY RETURNDATASIZE SWAP1 REVERT JUMPDEST SWAP1 DUP2 PUSH1 0x20 SWAP2 SUB SLT PUSH2 0x2FF JUMPI MLOAD DUP1 ISZERO ISZERO DUP2 SUB PUSH2 0x2FF JUMPI SWAP1 JUMP JUMPDEST DUP1 MLOAD DUP1 MLOAD SWAP2 SWAP3 SWAP1 SWAP2 PUSH1 0x1 PUSH1 0x1 PUSH1 0xA0 SHL SUB SWAP1 DUP2 AND SWAP2 AND DUP2 SUB PUSH2 0xD71 JUMPI POP PUSH1 0x40 DUP2 ADD DUP1 MLOAD PUSH1 0x0 DUP2 SLT PUSH2 0xD5D JUMPI POP MLOAD PUSH1 0x20 SWAP3 SWAP1 SWAP3 ADD MLOAD ISZERO PUSH2 0xD1E JUMPI PUSH1 0x20 DUP2 DUP2 ADD MLOAD SWAP2 MLOAD PUSH1 0x40 MLOAD PUSH4 0xA9059CBB PUSH1 0xE0 SHL DUP2 MSTORE PUSH1 0x1 PUSH1 0x1 PUSH1 0xA0 SHL SUB SWAP2 DUP3 AND PUSH1 0x4 DUP3 ADD MSTORE PUSH1 0x24 DUP2 ADD SWAP5 SWAP1 SWAP5 MSTORE SWAP1 SWAP2 DUP4 SWAP2 AND DUP2 PUSH1 0x0 DUP2 PUSH1 0x44 DUP2 ADD JUMPDEST SUB SWAP3 GAS CALL DUP1 ISZERO PUSH2 0xD12 JUMPI PUSH2 0xCE7 JUMPI POP JUMP JUMPDEST PUSH2 0xD08 SWAP1 PUSH1 0x20 RETURNDATASIZE PUSH1 0x20 GT PUSH2 0xD0B JUMPI JUMPDEST PUSH2 0xD00 DUP2 DUP4 PUSH2 0x669 JUMP JUMPDEST DUP2 ADD SWAP1 PUSH2 0xC4B JUMP JUMPDEST POP JUMP JUMPDEST POP RETURNDATASIZE PUSH2 0xCF6 JUMP JUMPDEST PUSH1 0x40 MLOAD RETURNDATASIZE PUSH1 0x0 DUP3 RETURNDATACOPY RETURNDATASIZE SWAP1 REVERT JUMPDEST PUSH1 0x20 DUP2 DUP2 ADD MLOAD SWAP2 MLOAD PUSH1 0x40 MLOAD PUSH4 0x95EA7B3 PUSH1 0xE0 SHL DUP2 MSTORE PUSH1 0x1 PUSH1 0x1 PUSH1 0xA0 SHL SUB SWAP2 DUP3 AND PUSH1 0x4 DUP3 ADD MSTORE PUSH1 0x24 DUP2 ADD SWAP5 SWAP1 SWAP5 MSTORE SWAP1 SWAP2 DUP4 SWAP2 AND DUP2 PUSH1 0x0 DUP2 PUSH1 0x44 DUP2 ADD PUSH2 0xCD6 JUMP JUMPDEST PUSH4 0x303B3029 PUSH1 0xE1 SHL PUSH1 0x0 MSTORE PUSH1 0x4 MSTORE PUSH1 0x24 PUSH1 0x0 REVERT JUMPDEST SWAP1 PUSH1 0x20 PUSH1 0x1 DUP1 PUSH1 0xA0 SHL SUB SWAP2 ADD MLOAD AND PUSH4 0x5876E711 PUSH1 0xE0 SHL PUSH1 0x0 MSTORE PUSH1 0x4 MSTORE PUSH1 0x24 MSTORE PUSH1 0x44 PUSH1 0x0 REVERT JUMPDEST PUSH1 0x20 DUP2 ADD MLOAD PUSH1 0x1 PUSH1 0x1 PUSH1 0xA0 SHL SUB AND DUP1 PUSH2 0xDE6 JUMPI POP PUSH1 0x0 DUP1 DUP1 DUP1 SWAP4 PUSH1 0x40 PUSH1 0x1 DUP1 PUSH1 0xA0 SHL SUB DUP3 MLOAD AND SWAP2 ADD MLOAD SWAP1 DUP2 PUSH1 0xFF SAR DUP1 SWAP3 ADD SWAP2 DUP4 SWAP3 DUP2 DUP2 EQ PUSH2 0xDDC JUMPI JUMPDEST XOR SWAP2 CALL ISZERO PUSH2 0xD12 JUMPI JUMP JUMPDEST PUSH2 0x8FC SWAP4 POP PUSH2 0xDD2 JUMP JUMPDEST DUP2 MLOAD PUSH1 0x40 SWAP3 DUP4 ADD MLOAD SWAP3 MLOAD PUSH4 0xA9059CBB PUSH1 0xE0 SHL DUP2 MSTORE PUSH1 0x1 PUSH1 0x1 PUSH1 0xA0 SHL SUB SWAP1 SWAP2 AND PUSH1 0x4 DUP3 ADD MSTORE PUSH1 0xFF DUP4 SWAP1 SAR SWAP3 DUP4 ADD SWAP1 SWAP3 XOR PUSH1 0x24 DUP4 ADD MSTORE PUSH1 0x20 SWAP1 DUP3 SWAP1 DUP2 PUSH1 0x0 DUP2 PUSH1 0x44 DUP2 ADD PUSH2 0xCD6 JUMP JUMPDEST PUSH1 0x24 CALLDATALOAD PUSH1 0x1 PUSH1 0x1 PUSH1 0xA0 SHL SUB DUP2 AND DUP2 SUB PUSH2 0x2FF JUMPI SWAP1 JUMP JUMPDEST PUSH1 0x4 CALLDATALOAD PUSH1 0x1 PUSH1 0x1 PUSH1 0xA0 SHL SUB DUP2 AND DUP2 SUB PUSH2 0x2FF JUMPI SWAP1 JUMP JUMPDEST PUSH1 0x20 DUP2 ADD DUP1 MLOAD SWAP1 SWAP2 SWAP1 PUSH1 0x0 SWAP1 PUSH1 0x1 PUSH1 0x1 PUSH1 0xA0 SHL SUB AND DUP1 PUSH2 0xEC9 JUMPI POP POP DUP1 MLOAD PUSH1 0x1 PUSH1 0x1 PUSH1 0xA0 SHL SUB AND BALANCE JUMPDEST PUSH1 0x40 DUP3 ADD MLOAD SWAP3 DUP4 PUSH1 0xFF SAR DUP1 DUP6 ADD XOR DUP3 LT PUSH2 0xE9B JUMPI POP POP POP POP JUMP JUMPDEST MLOAD SWAP2 MLOAD PUSH1 0x40 MLOAD PUSH4 0xD87031F9 PUSH1 0xE0 SHL DUP2 MSTORE SWAP4 DUP5 SWAP4 PUSH2 0x147 SWAP4 SWAP3 PUSH1 0x1 PUSH1 0x1 PUSH1 0xA0 SHL SUB SWAP1 DUP2 AND SWAP2 AND PUSH1 0x4 DUP7 ADD PUSH2 0xB6A JUMP JUMPDEST PUSH1 0x20 PUSH1 0x1 DUP1 PUSH1 0xA0 SHL SUB DUP5 MLOAD AND PUSH1 0x24 PUSH1 0x40 MLOAD DUP1 SWAP5 DUP2 SWAP4 PUSH4 0x70A08231 PUSH1 0xE0 SHL DUP4 MSTORE PUSH1 0x4 DUP4 ADD MSTORE GAS STATICCALL SWAP2 DUP3 ISZERO PUSH2 0xC3F JUMPI DUP1 SWAP3 PUSH2 0xF04 JUMPI JUMPDEST POP POP PUSH2 0xE81 JUMP JUMPDEST SWAP1 SWAP2 POP PUSH1 0x20 DUP3 RETURNDATASIZE PUSH1 0x20 GT PUSH2 0xF31 JUMPI JUMPDEST DUP2 PUSH2 0xF20 PUSH1 0x20 SWAP4 DUP4 PUSH2 0x669 JUMP JUMPDEST DUP2 ADD SUB SLT PUSH2 0xC34 JUMPI POP MLOAD CODESIZE DUP1 PUSH2 0xEFD JUMP JUMPDEST RETURNDATASIZE SWAP2 POP PUSH2 0xF13 JUMP INVALID LOG2 PUSH5 0x6970667358 0x22 SLT KECCAK256 NUMBER OR 0xC2 XOR MCOPY EQ 0xBB BYTE DUP11 CALLVALUE MSIZE 0xBF PUSH21 0xB7EF2A91D88DF3B1747F98CFA3D59194D205BD6473 PUSH16 0x6C634300081B00330000000000000000 "
        },
        "methodIdentifiers": {
          "exposeBalanceCheckCalldata((address,address,int256))": "8f873b73",
          "proxyCall((address,address,int256)[],((address,address,int256),bool)[],address,bytes,(address,address,int256)[])": "ce9506f9",
          "proxyCallDiffs((address,address,int256)[],((address,address,int256),bool)[],address,bytes,(address,address,int256)[])": "890e3add",
          "proxyCallDiffsMeta(((address,address,int256),string,uint8)[],((address,address,int256),bool)[],address,bytes,(address,address,int256)[])": "86c62850",
          "proxyCallMeta(((address,address,int256),string,uint8)[],((address,address,int256),bool)[],address,bytes,(address,address,int256)[])": "d3113d8a"
        }
      },
      "userdoc": {
        "errors": {
          "CallFailed(address,bytes,bytes)": [
            {
              "notice": "Error thrown when a call fails"
            }
          ],
          "InsufficientBalance(address,address,int256,uint256)": [
            {
              "notice": "Error thrown when a balance is insufficient"
            }
          ],
          "InvalidMetadata(address,string,uint8,string,uint8)": [
            {
              "notice": "Error thrown when metadata doesn't match actual token properties"
            }
          ],
          "MaliciousApproveTarget(address,address)": [
            {
              "notice": "Error thrown when trying to approve/transfer to an address other than callTarget"
            }
          ],
          "NegativeApprovalAmount(int256)": [
            {
              "notice": "Error thrown when an approval amount is negative"
            }
          ],
          "UnexpectedBalanceDiff(address,address,int256,int256)": [
            {
              "notice": "Error when actual diff != expected"
            }
          ]
        },
        "kind": "user",
        "methods": {
          "proxyCall((address,address,int256)[],((address,address,int256),bool)[],address,bytes,(address,address,int256)[])": {
            "notice": "Proxy call to a target contract with specified post-balance checks"
          },
          "proxyCallDiffs((address,address,int256)[],((address,address,int256),bool)[],address,bytes,(address,address,int256)[])": {
            "notice": "Proxy call with balance diffs"
          },
          "proxyCallDiffsMeta(((address,address,int256),string,uint8)[],((address,address,int256),bool)[],address,bytes,(address,address,int256)[])": {
            "notice": "Proxy call with balance diffs provided in metadata"
          },
          "proxyCallMeta(((address,address,int256),string,uint8)[],((address,address,int256),bool)[],address,bytes,(address,address,int256)[])": {
            "notice": "Proxy call to a target contract with metadata"
          }
        },
        "notice": "Test helper exposing internal view checks for coverage",
        "version": 1
      }
    }
  }
}