{
  "contracts/BalanceProxy.sol": {
    "BalanceProxy": {
      "abi": [
        {
          "inputs": [
            {
              "internalType": "address",
              "name": "target",
              "type": "address"
            },
            {
              "internalType": "bytes",
              "name": "data",
              "type": "bytes"
            }
          ],
          "name": "CallFailed",
          "type": "error"
        },
        {
          "inputs": [
            {
              "internalType": "address",
              "name": "token",
              "type": "address"
            },
            {
              "internalType": "address",
              "name": "target",
              "type": "address"
            },
            {
              "internalType": "uint256",
              "name": "balance",
              "type": "uint256"
            },
            {
              "internalType": "uint256",
              "name": "actual",
              "type": "uint256"
            }
          ],
          "name": "InsufficientBalance",
          "type": "error"
        },
        {
          "inputs": [
            {
              "internalType": "address",
              "name": "token",
              "type": "address"
            },
            {
              "internalType": "string",
              "name": "expectedSymbol",
              "type": "string"
            },
            {
              "internalType": "uint8",
              "name": "expectedDecimals",
              "type": "uint8"
            },
            {
              "internalType": "string",
              "name": "actualSymbol",
              "type": "string"
            },
            {
              "internalType": "uint8",
              "name": "actualDecimals",
              "type": "uint8"
            }
          ],
          "name": "InvalidMetadata",
          "type": "error"
        },
        {
          "inputs": [
            {
              "components": [
                {
                  "internalType": "address",
                  "name": "target",
                  "type": "address"
                },
                {
                  "internalType": "address",
                  "name": "token",
                  "type": "address"
                },
                {
                  "internalType": "uint256",
                  "name": "balance",
                  "type": "uint256"
                }
              ],
              "internalType": "struct IBalanceProxy.Balance[]",
              "name": "postBalances",
              "type": "tuple[]"
            },
            {
              "components": [
                {
                  "internalType": "address",
                  "name": "target",
                  "type": "address"
                },
                {
                  "internalType": "address",
                  "name": "token",
                  "type": "address"
                },
                {
                  "internalType": "uint256",
                  "name": "balance",
                  "type": "uint256"
                }
              ],
              "internalType": "struct IBalanceProxy.Balance[]",
              "name": "preBalances",
              "type": "tuple[]"
            },
            {
              "components": [
                {
                  "internalType": "address",
                  "name": "target",
                  "type": "address"
                },
                {
                  "internalType": "address",
                  "name": "token",
                  "type": "address"
                },
                {
                  "internalType": "uint256",
                  "name": "balance",
                  "type": "uint256"
                }
              ],
              "internalType": "struct IBalanceProxy.Balance[]",
              "name": "approvals",
              "type": "tuple[]"
            },
            {
              "internalType": "address",
              "name": "target",
              "type": "address"
            },
            {
              "internalType": "bytes",
              "name": "data",
              "type": "bytes"
            },
            {
              "components": [
                {
                  "internalType": "address",
                  "name": "target",
                  "type": "address"
                },
                {
                  "internalType": "address",
                  "name": "token",
                  "type": "address"
                },
                {
                  "internalType": "uint256",
                  "name": "balance",
                  "type": "uint256"
                }
              ],
              "internalType": "struct IBalanceProxy.Balance[]",
              "name": "withdrawals",
              "type": "tuple[]"
            }
          ],
          "name": "proxyCall",
          "outputs": [
            {
              "internalType": "bytes",
              "name": "",
              "type": "bytes"
            }
          ],
          "stateMutability": "payable",
          "type": "function"
        },
        {
          "inputs": [
            {
              "components": [
                {
                  "internalType": "address",
                  "name": "target",
                  "type": "address"
                },
                {
                  "internalType": "address",
                  "name": "token",
                  "type": "address"
                },
                {
                  "internalType": "uint256",
                  "name": "balance",
                  "type": "uint256"
                }
              ],
              "internalType": "struct IBalanceProxy.Balance[]",
              "name": "postBalances",
              "type": "tuple[]"
            },
            {
              "components": [
                {
                  "internalType": "address",
                  "name": "target",
                  "type": "address"
                },
                {
                  "internalType": "address",
                  "name": "token",
                  "type": "address"
                },
                {
                  "internalType": "uint256",
                  "name": "balance",
                  "type": "uint256"
                }
              ],
              "internalType": "struct IBalanceProxy.Balance[]",
              "name": "preBalances",
              "type": "tuple[]"
            },
            {
              "components": [
                {
                  "internalType": "address",
                  "name": "target",
                  "type": "address"
                },
                {
                  "internalType": "address",
                  "name": "token",
                  "type": "address"
                },
                {
                  "internalType": "uint256",
                  "name": "balance",
                  "type": "uint256"
                }
              ],
              "internalType": "struct IBalanceProxy.Balance[]",
              "name": "approvals",
              "type": "tuple[]"
            },
            {
              "internalType": "address",
              "name": "target",
              "type": "address"
            },
            {
              "internalType": "bytes",
              "name": "data",
              "type": "bytes"
            },
            {
              "components": [
                {
                  "internalType": "address",
                  "name": "target",
                  "type": "address"
                },
                {
                  "internalType": "address",
                  "name": "token",
                  "type": "address"
                },
                {
                  "internalType": "uint256",
                  "name": "balance",
                  "type": "uint256"
                }
              ],
              "internalType": "struct IBalanceProxy.Balance[]",
              "name": "withdrawals",
              "type": "tuple[]"
            }
          ],
          "name": "proxyCallCalldata",
          "outputs": [
            {
              "internalType": "bytes",
              "name": "",
              "type": "bytes"
            }
          ],
          "stateMutability": "payable",
          "type": "function"
        },
        {
          "inputs": [
            {
              "components": [
                {
                  "components": [
                    {
                      "internalType": "address",
                      "name": "target",
                      "type": "address"
                    },
                    {
                      "internalType": "address",
                      "name": "token",
                      "type": "address"
                    },
                    {
                      "internalType": "uint256",
                      "name": "balance",
                      "type": "uint256"
                    }
                  ],
                  "internalType": "struct IBalanceProxy.Balance",
                  "name": "balance",
                  "type": "tuple"
                },
                {
                  "internalType": "string",
                  "name": "symbol",
                  "type": "string"
                },
                {
                  "internalType": "uint8",
                  "name": "decimals",
                  "type": "uint8"
                }
              ],
              "internalType": "struct IBalanceProxy.BalanceMetadata[]",
              "name": "postBalances",
              "type": "tuple[]"
            },
            {
              "components": [
                {
                  "components": [
                    {
                      "internalType": "address",
                      "name": "target",
                      "type": "address"
                    },
                    {
                      "internalType": "address",
                      "name": "token",
                      "type": "address"
                    },
                    {
                      "internalType": "uint256",
                      "name": "balance",
                      "type": "uint256"
                    }
                  ],
                  "internalType": "struct IBalanceProxy.Balance",
                  "name": "balance",
                  "type": "tuple"
                },
                {
                  "internalType": "string",
                  "name": "symbol",
                  "type": "string"
                },
                {
                  "internalType": "uint8",
                  "name": "decimals",
                  "type": "uint8"
                }
              ],
              "internalType": "struct IBalanceProxy.BalanceMetadata[]",
              "name": "preBalances",
              "type": "tuple[]"
            },
            {
              "components": [
                {
                  "components": [
                    {
                      "internalType": "address",
                      "name": "target",
                      "type": "address"
                    },
                    {
                      "internalType": "address",
                      "name": "token",
                      "type": "address"
                    },
                    {
                      "internalType": "uint256",
                      "name": "balance",
                      "type": "uint256"
                    }
                  ],
                  "internalType": "struct IBalanceProxy.Balance",
                  "name": "balance",
                  "type": "tuple"
                },
                {
                  "internalType": "string",
                  "name": "symbol",
                  "type": "string"
                },
                {
                  "internalType": "uint8",
                  "name": "decimals",
                  "type": "uint8"
                }
              ],
              "internalType": "struct IBalanceProxy.BalanceMetadata[]",
              "name": "approvals",
              "type": "tuple[]"
            },
            {
              "internalType": "address",
              "name": "target",
              "type": "address"
            },
            {
              "internalType": "bytes",
              "name": "data",
              "type": "bytes"
            },
            {
              "components": [
                {
                  "components": [
                    {
                      "internalType": "address",
                      "name": "target",
                      "type": "address"
                    },
                    {
                      "internalType": "address",
                      "name": "token",
                      "type": "address"
                    },
                    {
                      "internalType": "uint256",
                      "name": "balance",
                      "type": "uint256"
                    }
                  ],
                  "internalType": "struct IBalanceProxy.Balance",
                  "name": "balance",
                  "type": "tuple"
                },
                {
                  "internalType": "string",
                  "name": "symbol",
                  "type": "string"
                },
                {
                  "internalType": "uint8",
                  "name": "decimals",
                  "type": "uint8"
                }
              ],
              "internalType": "struct IBalanceProxy.BalanceMetadata[]",
              "name": "withdrawals",
              "type": "tuple[]"
            }
          ],
          "name": "proxyCallMetadata",
          "outputs": [
            {
              "internalType": "bytes",
              "name": "",
              "type": "bytes"
            }
          ],
          "stateMutability": "payable",
          "type": "function"
        },
        {
          "inputs": [
            {
              "components": [
                {
                  "components": [
                    {
                      "internalType": "address",
                      "name": "target",
                      "type": "address"
                    },
                    {
                      "internalType": "address",
                      "name": "token",
                      "type": "address"
                    },
                    {
                      "internalType": "uint256",
                      "name": "balance",
                      "type": "uint256"
                    }
                  ],
                  "internalType": "struct IBalanceProxy.Balance",
                  "name": "balance",
                  "type": "tuple"
                },
                {
                  "internalType": "string",
                  "name": "symbol",
                  "type": "string"
                },
                {
                  "internalType": "uint8",
                  "name": "decimals",
                  "type": "uint8"
                }
              ],
              "internalType": "struct IBalanceProxy.BalanceMetadata[]",
              "name": "postBalances",
              "type": "tuple[]"
            },
            {
              "components": [
                {
                  "components": [
                    {
                      "internalType": "address",
                      "name": "target",
                      "type": "address"
                    },
                    {
                      "internalType": "address",
                      "name": "token",
                      "type": "address"
                    },
                    {
                      "internalType": "uint256",
                      "name": "balance",
                      "type": "uint256"
                    }
                  ],
                  "internalType": "struct IBalanceProxy.Balance",
                  "name": "balance",
                  "type": "tuple"
                },
                {
                  "internalType": "string",
                  "name": "symbol",
                  "type": "string"
                },
                {
                  "internalType": "uint8",
                  "name": "decimals",
                  "type": "uint8"
                }
              ],
              "internalType": "struct IBalanceProxy.BalanceMetadata[]",
              "name": "preBalances",
              "type": "tuple[]"
            },
            {
              "components": [
                {
                  "components": [
                    {
                      "internalType": "address",
                      "name": "target",
                      "type": "address"
                    },
                    {
                      "internalType": "address",
                      "name": "token",
                      "type": "address"
                    },
                    {
                      "internalType": "uint256",
                      "name": "balance",
                      "type": "uint256"
                    }
                  ],
                  "internalType": "struct IBalanceProxy.Balance",
                  "name": "balance",
                  "type": "tuple"
                },
                {
                  "internalType": "string",
                  "name": "symbol",
                  "type": "string"
                },
                {
                  "internalType": "uint8",
                  "name": "decimals",
                  "type": "uint8"
                }
              ],
              "internalType": "struct IBalanceProxy.BalanceMetadata[]",
              "name": "approvals",
              "type": "tuple[]"
            },
            {
              "internalType": "address",
              "name": "target",
              "type": "address"
            },
            {
              "internalType": "bytes",
              "name": "data",
              "type": "bytes"
            },
            {
              "components": [
                {
                  "components": [
                    {
                      "internalType": "address",
                      "name": "target",
                      "type": "address"
                    },
                    {
                      "internalType": "address",
                      "name": "token",
                      "type": "address"
                    },
                    {
                      "internalType": "uint256",
                      "name": "balance",
                      "type": "uint256"
                    }
                  ],
                  "internalType": "struct IBalanceProxy.Balance",
                  "name": "balance",
                  "type": "tuple"
                },
                {
                  "internalType": "string",
                  "name": "symbol",
                  "type": "string"
                },
                {
                  "internalType": "uint8",
                  "name": "decimals",
                  "type": "uint8"
                }
              ],
              "internalType": "struct IBalanceProxy.BalanceMetadata[]",
              "name": "withdrawals",
              "type": "tuple[]"
            }
          ],
          "name": "proxyCallMetadataCalldata",
          "outputs": [
            {
              "internalType": "bytes",
              "name": "",
              "type": "bytes"
            }
          ],
          "stateMutability": "payable",
          "type": "function"
        },
        {
          "stateMutability": "payable",
          "type": "receive"
        }
      ],
      "devdoc": {
        "details": "This contract is used to proxy calls to a target contract with specified balances and approvals",
        "errors": {
          "CallFailed(address,bytes)": [
            {
              "params": {
                "data": "Data passed to the target contract",
                "target": "Target address"
              }
            }
          ],
          "InsufficientBalance(address,address,uint256,uint256)": [
            {
              "params": {
                "balance": "Balance",
                "target": "Target address",
                "token": "Token address"
              }
            }
          ],
          "InvalidMetadata(address,string,uint8,string,uint8)": [
            {
              "params": {
                "actualDecimals": "Actual decimals of the token",
                "actualSymbol": "Actual symbol of the token",
                "expectedDecimals": "Expected decimals of the token",
                "expectedSymbol": "Expected symbol of the token",
                "token": "Token address"
              }
            }
          ]
        },
        "kind": "dev",
        "methods": {
          "proxyCall((address,address,uint256)[],(address,address,uint256)[],(address,address,uint256)[],address,bytes,(address,address,uint256)[])": {
            "params": {
              "approvals": "Approvals to make before the call",
              "data": "Data to pass to the target contract",
              "postBalances": "Balances to check after the call",
              "preBalances": "Balances to check before the call",
              "target": "Target contract to call",
              "withdrawals": "Withdrawals to make after the call"
            },
            "returns": {
              "_0": "Result of the call"
            }
          },
          "proxyCallCalldata((address,address,uint256)[],(address,address,uint256)[],(address,address,uint256)[],address,bytes,(address,address,uint256)[])": {
            "params": {
              "approvals": "Approvals to make before the call",
              "data": "Data to pass to the target contract",
              "postBalances": "Balances to check after the call",
              "preBalances": "Balances to check before the call",
              "target": "Target contract to call",
              "withdrawals": "Withdrawals to make after the call"
            },
            "returns": {
              "_0": "result Result of the call"
            }
          },
          "proxyCallMetadata(((address,address,uint256),string,uint8)[],((address,address,uint256),string,uint8)[],((address,address,uint256),string,uint8)[],address,bytes,((address,address,uint256),string,uint8)[])": {
            "params": {
              "approvals": "Approvals to make before the call",
              "data": "Data to pass to the target contract",
              "postBalances": "Balances to check after the call",
              "preBalances": "Balances to check before the call",
              "target": "Target contract to call",
              "withdrawals": "Withdrawals to make after the call"
            },
            "returns": {
              "_0": "Result of the call"
            }
          },
          "proxyCallMetadataCalldata(((address,address,uint256),string,uint8)[],((address,address,uint256),string,uint8)[],((address,address,uint256),string,uint8)[],address,bytes,((address,address,uint256),string,uint8)[])": {
            "params": {
              "approvals": "Approvals to make before the call",
              "data": "Data to pass to the target contract",
              "postBalances": "Balances to check after the call",
              "preBalances": "Balances to check before the call",
              "target": "Target contract to call",
              "withdrawals": "Withdrawals to make after the call"
            },
            "returns": {
              "_0": "result Result of the call"
            }
          }
        },
        "title": "BalanceProxy",
        "version": 1
      },
      "evm": {
        "bytecode": {
          "linkReferences": {},
          "object": "6080604052348015600f57600080fd5b50611bc78061001f6000396000f3fe6080604052600436106100435760003560e01c806328390a5e1461004f57806351db8049146100785780638d0a4e101461008b578063cfe745431461009e57600080fd5b3661004a57005b600080fd5b61006261005d366004611310565b6100b1565b60405161006f9190611456565b60405180910390f35b6100626100863660046114d1565b610291565b610062610099366004611646565b6103ee565b6100626100ac3660046117a2565b610557565b606060005b865181101561010f576100e18782815181106100d4576100d46118a0565b602002602001015161073d565b6101078782815181106100f6576100f66118a0565b6020026020010151600001516108fe565b6001016100b6565b5060005b855181101561015f576101318682815181106100d4576100d46118a0565b610157868281518110610146576101466118a0565b6020026020010151600001516109ef565b600101610113565b600080866001600160a01b0316348760405161017b91906118b6565b60006040518083038185875af1925050503d80600081146101b8576040519150601f19603f3d011682016040523d82523d6000602084013e6101bd565b606091505b5091509150816101ed578686604051636c544f3360e01b81526004016101e49291906118d2565b60405180910390fd5b600092505b8451831015610241576102108584815181106100d4576100d46118a0565b610236858481518110610225576102256118a0565b602002602001015160000151610b09565b6001909201916101f2565b600092505b8951831015610284576102648a84815181106100d4576100d46118a0565b6102798a84815181106100f6576100f66118a0565b600190920191610246565b9998505050505050505050565b606060005b86518110156102c9576102c18782815181106102b4576102b46118a0565b60200260200101516108fe565b600101610296565b5060005b8551811015610300576102f88682815181106102eb576102eb6118a0565b60200260200101516109ef565b6001016102cd565b600080866001600160a01b0316348760405161031c91906118b6565b60006040518083038185875af1925050503d8060008114610359576040519150601f19603f3d011682016040523d82523d6000602084013e61035e565b606091505b509150915081610385578686604051636c544f3360e01b81526004016101e49291906118d2565b600092505b84518310156103c0576103b58584815181106103a8576103a86118a0565b6020026020010151610b09565b60019092019161038a565b600092505b8951831015610284576103e38a84815181106102b4576102b46118a0565b6001909201916103c5565b606060005b898110156104235761041b8b8b83818110610410576104106118a0565b905060600201610b9d565b6001016103f3565b5060005b878110156104575761044f898983818110610444576104446118a0565b905060600201610cd7565b600101610427565b600080886001600160a01b03163489896040516104759291906118fe565b60006040518083038185875af1925050503d80600081146104b2576040519150601f19603f3d011682016040523d82523d6000602084013e6104b7565b606091505b5091509150816104e057888888604051636c544f3360e01b81526004016101e493929190611937565b600092505b848310156105185761050d868685818110610502576105026118a0565b905060600201610de7565b6001909201916104e5565b600092505b8d8310156105455761053a8f8f85818110610410576104106118a0565b60019092019161051d565b9e9d5050505050505050505050505050565b606060005b898110156105c4576105908b8b83818110610579576105796118a0565b905060200281019061058b9190611965565b610e7b565b6105bc8b8b838181106105a5576105a56118a0565b90506020028101906105b79190611965565b610b9d565b60010161055c565b5060005b87811015610619576105e5898983818110610579576105796118a0565b6106118989838181106105fa576105fa6118a0565b905060200281019061060c9190611965565b610cd7565b6001016105c8565b600080886001600160a01b03163489896040516106379291906118fe565b60006040518083038185875af1925050503d8060008114610674576040519150601f19603f3d011682016040523d82523d6000602084013e610679565b606091505b5091509150816106a257888888604051636c544f3360e01b81526004016101e493929190611937565b600092505b848310156106fb576106c4868685818110610579576105796118a0565b6106f08686858181106106d9576106d96118a0565b90506020028101906106eb9190611965565b610de7565b6001909201916106a7565b600092505b8d8310156105455761071d8f8f85818110610579576105796118a0565b6107328f8f858181106105a5576105a56118a0565b600190920191610700565b8051602001516060906000906001600160a01b031661077957505060408051808201909152600381526208aa8960eb1b60208201526012610856565b8260000151602001516001600160a01b03166395d89b416040518163ffffffff1660e01b8152600401600060405180830381865afa1580156107bf573d6000803e3d6000fd5b505050506040513d6000823e601f3d908101601f191682016040526107e7919081019061197b565b91508260000151602001516001600160a01b031663313ce5676040518163ffffffff1660e01b8152600401602060405180830381865afa15801561082f573d6000803e3d6000fd5b505050506040513d601f19601f8201168201806040525081019061085391906119e8565b90505b60208084015160405161086992016118b6565b60405160208183030381529060405261088190611a05565b8260405160200161089291906118b6565b6040516020818303038152906040526108aa90611a05565b1415806108c15750826040015160ff168160ff1614155b156108f957826000015160200151836020015184604001518484604051635591851960e01b81526004016101e4959493929190611a2c565b505050565b60208101516000906001600160a01b03161561098a57602082015182516040516370a0823160e01b81526001600160a01b0391821660048201529116906370a0823190602401602060405180830381865afa158015610961573d6000803e3d6000fd5b505050506040513d601f19601f820116820180604052508101906109859190611a81565b610997565b81516001600160a01b0316315b905081604001518110156109eb5760208201518251604080850151905163861da4bd60e01b81526001600160a01b0393841660048201529290911660248301526044820152606481018290526084016101e4565b5050565b60208101516001600160a01b0316610a045750565b602081015160408083015190516323b872dd60e01b815233600482015230602482015260448101919091526001600160a01b03909116906323b872dd906064016020604051808303816000875af1158015610a63573d6000803e3d6000fd5b505050506040513d601f19601f82011682018060405250810190610a879190611a9a565b5060208101518151604080840151905163095ea7b360e01b81526001600160a01b039283166004820152602481019190915291169063095ea7b3906044015b6020604051808303816000875af1158015610ae5573d6000803e3d6000fd5b505050506040513d601f19601f820116820180604052508101906109eb9190611a9a565b60208101516001600160a01b0316610b5857805160408083015190516001600160a01b039092169181156108fc0291906000818181858888f193505050501580156109eb573d6000803e3d6000fd5b60208101518151604080840151905163a9059cbb60e01b81526001600160a01b039283166004820152602481019190915291169063a9059cbb90604401610ac6565b50565b600080610bb06040840160208501611abc565b6001600160a01b031614610c5657610bce6040830160208401611abc565b6001600160a01b03166370a08231610be96020850185611abc565b6040516001600160e01b031960e084901b1681526001600160a01b039091166004820152602401602060405180830381865afa158015610c2d573d6000803e3d6000fd5b505050506040513d601f19601f82011682018060405250810190610c519190611a81565b610c6e565b610c636020830183611abc565b6001600160a01b0316315b905081604001358110156109eb57610c8c6040830160208401611abc565b610c996020840184611abc565b6040805163861da4bd60e01b81526001600160a01b0393841660048201529290911660248301528301356044820152606481018290526084016101e4565b6000610ce96040830160208401611abc565b6001600160a01b031603610cfa5750565b610d0a6040820160208301611abc565b604080516323b872dd60e01b81523360048201523060248201529083013560448201526001600160a01b0391909116906323b872dd906064016020604051808303816000875af1158015610d62573d6000803e3d6000fd5b505050506040513d601f19601f82011682018060405250810190610d869190611a9a565b50610d976040820160208301611abc565b6001600160a01b031663095ea7b3610db26020840184611abc565b604080516001600160e01b031960e085901b1681526001600160a01b0390921660048301528401356024820152604401610ac6565b6000610df96040830160208401611abc565b6001600160a01b031603610e5057610e146020820182611abc565b6001600160a01b03166108fc82604001359081150290604051600060405180830381858888f193505050501580156109eb573d6000803e3d6000fd5b610e606040820160208301611abc565b6001600160a01b031663a9059cbb610db26020840184611abc565b6060600080610e906040850160208601611abc565b6001600160a01b031603610ec157505060408051808201909152600381526208aa8960eb1b60208201526012610fac565b610ed16040840160208501611abc565b6001600160a01b03166395d89b416040518163ffffffff1660e01b8152600401600060405180830381865afa158015610f0e573d6000803e3d6000fd5b505050506040513d6000823e601f3d908101601f19168201604052610f36919081019061197b565b9150610f486040840160208501611abc565b6001600160a01b031663313ce5676040518163ffffffff1660e01b8152600401602060405180830381865afa158015610f85573d6000803e3d6000fd5b505050506040513d601f19601f82011682018060405250810190610fa991906119e8565b90505b610fb96060840184611ad7565b604051602001610fca9291906118fe565b6040516020818303038152906040528051906020012082604051602001610ff191906118b6565b60405160208183030381529060405280519060200120141580611029575061101f60a0840160808501611b1d565b60ff168160ff1614155b156108f95761103e6040840160208501611abc565b61104b6060850185611ad7565b61105b60a0870160808801611b1d565b8585604051635591851960e01b81526004016101e496959493929190611b3a565b634e487b7160e01b600052604160045260246000fd5b604051606081016001600160401b03811182821017156110b4576110b461107c565b60405290565b604051601f8201601f191681016001600160401b03811182821017156110e2576110e261107c565b604052919050565b60006001600160401b038211156111035761110361107c565b5060051b60200190565b80356001600160a01b038116811461112457600080fd5b919050565b60006060828403121561113b57600080fd5b611143611092565b905061114e8261110d565b815261115c6020830161110d565b60208201526040820135604082015292915050565b60006001600160401b0382111561118a5761118a61107c565b50601f01601f191660200190565b60006111ab6111a684611171565b6110ba565b90508281528383830111156111bf57600080fd5b828260208301376000602084830101529392505050565b60ff81168114610b9a57600080fd5b600082601f8301126111f657600080fd5b81356112046111a6826110ea565b8082825260208201915060208360051b86010192508583111561122657600080fd5b602085015b838110156112df5780356001600160401b0381111561124957600080fd5b860160a0818903601f1901121561125f57600080fd5b611267611092565b6112748960208401611129565b815260808201356001600160401b0381111561128f57600080fd5b82016020810190603f018a136112a457600080fd5b6112b38a823560208401611198565b60208301525060a082013591506112c9826111d6565b604081019190915283526020928301920161122b565b5095945050505050565b600082601f8301126112fa57600080fd5b61130983833560208501611198565b9392505050565b60008060008060008060c0878903121561132957600080fd5b86356001600160401b0381111561133f57600080fd5b61134b89828a016111e5565b96505060208701356001600160401b0381111561136757600080fd5b61137389828a016111e5565b95505060408701356001600160401b0381111561138f57600080fd5b61139b89828a016111e5565b9450506113aa6060880161110d565b925060808701356001600160401b038111156113c557600080fd5b6113d189828a016112e9565b92505060a08701356001600160401b038111156113ed57600080fd5b6113f989828a016111e5565b9150509295509295509295565b60005b83811015611421578181015183820152602001611409565b50506000910152565b60008151808452611442816020860160208601611406565b601f01601f19169290920160200192915050565b602081526000611309602083018461142a565b600082601f83011261147a57600080fd5b81356114886111a6826110ea565b808282526020820191506020606084028601019250858311156114aa57600080fd5b602085015b838110156112df576114c18782611129565b83526020909201916060016114af565b60008060008060008060c087890312156114ea57600080fd5b86356001600160401b0381111561150057600080fd5b61150c89828a01611469565b96505060208701356001600160401b0381111561152857600080fd5b61153489828a01611469565b95505060408701356001600160401b0381111561155057600080fd5b61155c89828a01611469565b94505061156b6060880161110d565b925060808701356001600160401b0381111561158657600080fd5b61159289828a016112e9565b92505060a08701356001600160401b038111156115ae57600080fd5b6113f989828a01611469565b60008083601f8401126115cc57600080fd5b5081356001600160401b038111156115e357600080fd5b6020830191508360206060830285010111156115fe57600080fd5b9250929050565b60008083601f84011261161757600080fd5b5081356001600160401b0381111561162e57600080fd5b6020830191508360208285010111156115fe57600080fd5b600080600080600080600080600080600060c08c8e03121561166757600080fd5b8b356001600160401b0381111561167d57600080fd5b6116898e828f016115ba565b909c509a505060208c01356001600160401b038111156116a857600080fd5b6116b48e828f016115ba565b909a5098505060408c01356001600160401b038111156116d357600080fd5b6116df8e828f016115ba565b90985096506116f2905060608d0161110d565b945060808c01356001600160401b0381111561170d57600080fd5b6117198e828f01611605565b90955093505060a08c01356001600160401b0381111561173857600080fd5b6117448e828f016115ba565b915080935050809150509295989b509295989b9093969950565b60008083601f84011261177057600080fd5b5081356001600160401b0381111561178757600080fd5b6020830191508360208260051b85010111156115fe57600080fd5b600080600080600080600080600080600060c08c8e0312156117c357600080fd5b8b356001600160401b038111156117d957600080fd5b6117e58e828f0161175e565b909c509a505060208c01356001600160401b0381111561180457600080fd5b6118108e828f0161175e565b909a5098505060408c01356001600160401b0381111561182f57600080fd5b61183b8e828f0161175e565b909850965061184e905060608d0161110d565b945060808c01356001600160401b0381111561186957600080fd5b6118758e828f01611605565b90955093505060a08c01356001600160401b0381111561189457600080fd5b6117448e828f0161175e565b634e487b7160e01b600052603260045260246000fd5b600082516118c8818460208701611406565b9190910192915050565b6001600160a01b03831681526040602082018190526000906118f69083018461142a565b949350505050565b8183823760009101908152919050565b81835281816020850137506000828201602090810191909152601f909101601f19169091010190565b6001600160a01b038416815260406020820181905260009061195c908301848661190e565b95945050505050565b60008235609e198336030181126118c857600080fd5b60006020828403121561198d57600080fd5b81516001600160401b038111156119a357600080fd5b8201601f810184136119b457600080fd5b80516119c26111a682611171565b8181528560208385010111156119d757600080fd5b61195c826020830160208601611406565b6000602082840312156119fa57600080fd5b8151611309816111d6565b80516020808301519190811015611a26576000198160200360031b1b821691505b50919050565b6001600160a01b038616815260a060208201819052600090611a509083018761142a565b60ff861660408401528281036060840152611a6b818661142a565b91505060ff831660808301529695505050505050565b600060208284031215611a9357600080fd5b5051919050565b600060208284031215611aac57600080fd5b8151801515811461130957600080fd5b600060208284031215611ace57600080fd5b6113098261110d565b6000808335601e19843603018112611aee57600080fd5b8301803591506001600160401b03821115611b0857600080fd5b6020019150368190038213156115fe57600080fd5b600060208284031215611b2f57600080fd5b8135611309816111d6565b6001600160a01b038716815260a060208201819052600090611b5f908301878961190e565b60ff861660408401528281036060840152611b7a818661142a565b91505060ff8316608083015297965050505050505056fea26469706673582212204716f048fb87359d166d3e13631634555cda68a5659bfff2500d4a54aec3678664736f6c634300081b0033",
          "opcodes": "PUSH1 0x80 PUSH1 0x40 MSTORE CALLVALUE DUP1 ISZERO PUSH1 0xF JUMPI PUSH1 0x0 DUP1 REVERT JUMPDEST POP PUSH2 0x1BC7 DUP1 PUSH2 0x1F PUSH1 0x0 CODECOPY PUSH1 0x0 RETURN INVALID PUSH1 0x80 PUSH1 0x40 MSTORE PUSH1 0x4 CALLDATASIZE LT PUSH2 0x43 JUMPI PUSH1 0x0 CALLDATALOAD PUSH1 0xE0 SHR DUP1 PUSH4 0x28390A5E EQ PUSH2 0x4F JUMPI DUP1 PUSH4 0x51DB8049 EQ PUSH2 0x78 JUMPI DUP1 PUSH4 0x8D0A4E10 EQ PUSH2 0x8B JUMPI DUP1 PUSH4 0xCFE74543 EQ PUSH2 0x9E JUMPI PUSH1 0x0 DUP1 REVERT JUMPDEST CALLDATASIZE PUSH2 0x4A JUMPI STOP JUMPDEST PUSH1 0x0 DUP1 REVERT JUMPDEST PUSH2 0x62 PUSH2 0x5D CALLDATASIZE PUSH1 0x4 PUSH2 0x1310 JUMP JUMPDEST PUSH2 0xB1 JUMP JUMPDEST PUSH1 0x40 MLOAD PUSH2 0x6F SWAP2 SWAP1 PUSH2 0x1456 JUMP JUMPDEST PUSH1 0x40 MLOAD DUP1 SWAP2 SUB SWAP1 RETURN JUMPDEST PUSH2 0x62 PUSH2 0x86 CALLDATASIZE PUSH1 0x4 PUSH2 0x14D1 JUMP JUMPDEST PUSH2 0x291 JUMP JUMPDEST PUSH2 0x62 PUSH2 0x99 CALLDATASIZE PUSH1 0x4 PUSH2 0x1646 JUMP JUMPDEST PUSH2 0x3EE JUMP JUMPDEST PUSH2 0x62 PUSH2 0xAC CALLDATASIZE PUSH1 0x4 PUSH2 0x17A2 JUMP JUMPDEST PUSH2 0x557 JUMP JUMPDEST PUSH1 0x60 PUSH1 0x0 JUMPDEST DUP7 MLOAD DUP2 LT ISZERO PUSH2 0x10F JUMPI PUSH2 0xE1 DUP8 DUP3 DUP2 MLOAD DUP2 LT PUSH2 0xD4 JUMPI PUSH2 0xD4 PUSH2 0x18A0 JUMP JUMPDEST PUSH1 0x20 MUL PUSH1 0x20 ADD ADD MLOAD PUSH2 0x73D JUMP JUMPDEST PUSH2 0x107 DUP8 DUP3 DUP2 MLOAD DUP2 LT PUSH2 0xF6 JUMPI PUSH2 0xF6 PUSH2 0x18A0 JUMP JUMPDEST PUSH1 0x20 MUL PUSH1 0x20 ADD ADD MLOAD PUSH1 0x0 ADD MLOAD PUSH2 0x8FE JUMP JUMPDEST PUSH1 0x1 ADD PUSH2 0xB6 JUMP JUMPDEST POP PUSH1 0x0 JUMPDEST DUP6 MLOAD DUP2 LT ISZERO PUSH2 0x15F JUMPI PUSH2 0x131 DUP7 DUP3 DUP2 MLOAD DUP2 LT PUSH2 0xD4 JUMPI PUSH2 0xD4 PUSH2 0x18A0 JUMP JUMPDEST PUSH2 0x157 DUP7 DUP3 DUP2 MLOAD DUP2 LT PUSH2 0x146 JUMPI PUSH2 0x146 PUSH2 0x18A0 JUMP JUMPDEST PUSH1 0x20 MUL PUSH1 0x20 ADD ADD MLOAD PUSH1 0x0 ADD MLOAD PUSH2 0x9EF JUMP JUMPDEST PUSH1 0x1 ADD PUSH2 0x113 JUMP JUMPDEST PUSH1 0x0 DUP1 DUP7 PUSH1 0x1 PUSH1 0x1 PUSH1 0xA0 SHL SUB AND CALLVALUE DUP8 PUSH1 0x40 MLOAD PUSH2 0x17B SWAP2 SWAP1 PUSH2 0x18B6 JUMP JUMPDEST PUSH1 0x0 PUSH1 0x40 MLOAD DUP1 DUP4 SUB DUP2 DUP6 DUP8 GAS CALL SWAP3 POP POP POP RETURNDATASIZE DUP1 PUSH1 0x0 DUP2 EQ PUSH2 0x1B8 JUMPI PUSH1 0x40 MLOAD SWAP2 POP PUSH1 0x1F NOT PUSH1 0x3F RETURNDATASIZE ADD AND DUP3 ADD PUSH1 0x40 MSTORE RETURNDATASIZE DUP3 MSTORE RETURNDATASIZE PUSH1 0x0 PUSH1 0x20 DUP5 ADD RETURNDATACOPY PUSH2 0x1BD JUMP JUMPDEST PUSH1 0x60 SWAP2 POP JUMPDEST POP SWAP2 POP SWAP2 POP DUP2 PUSH2 0x1ED JUMPI DUP7 DUP7 PUSH1 0x40 MLOAD PUSH4 0x6C544F33 PUSH1 0xE0 SHL DUP2 MSTORE PUSH1 0x4 ADD PUSH2 0x1E4 SWAP3 SWAP2 SWAP1 PUSH2 0x18D2 JUMP JUMPDEST PUSH1 0x40 MLOAD DUP1 SWAP2 SUB SWAP1 REVERT JUMPDEST PUSH1 0x0 SWAP3 POP JUMPDEST DUP5 MLOAD DUP4 LT ISZERO PUSH2 0x241 JUMPI PUSH2 0x210 DUP6 DUP5 DUP2 MLOAD DUP2 LT PUSH2 0xD4 JUMPI PUSH2 0xD4 PUSH2 0x18A0 JUMP JUMPDEST PUSH2 0x236 DUP6 DUP5 DUP2 MLOAD DUP2 LT PUSH2 0x225 JUMPI PUSH2 0x225 PUSH2 0x18A0 JUMP JUMPDEST PUSH1 0x20 MUL PUSH1 0x20 ADD ADD MLOAD PUSH1 0x0 ADD MLOAD PUSH2 0xB09 JUMP JUMPDEST PUSH1 0x1 SWAP1 SWAP3 ADD SWAP2 PUSH2 0x1F2 JUMP JUMPDEST PUSH1 0x0 SWAP3 POP JUMPDEST DUP10 MLOAD DUP4 LT ISZERO PUSH2 0x284 JUMPI PUSH2 0x264 DUP11 DUP5 DUP2 MLOAD DUP2 LT PUSH2 0xD4 JUMPI PUSH2 0xD4 PUSH2 0x18A0 JUMP JUMPDEST PUSH2 0x279 DUP11 DUP5 DUP2 MLOAD DUP2 LT PUSH2 0xF6 JUMPI PUSH2 0xF6 PUSH2 0x18A0 JUMP JUMPDEST PUSH1 0x1 SWAP1 SWAP3 ADD SWAP2 PUSH2 0x246 JUMP JUMPDEST SWAP10 SWAP9 POP POP POP POP POP POP POP POP POP JUMP JUMPDEST PUSH1 0x60 PUSH1 0x0 JUMPDEST DUP7 MLOAD DUP2 LT ISZERO PUSH2 0x2C9 JUMPI PUSH2 0x2C1 DUP8 DUP3 DUP2 MLOAD DUP2 LT PUSH2 0x2B4 JUMPI PUSH2 0x2B4 PUSH2 0x18A0 JUMP JUMPDEST PUSH1 0x20 MUL PUSH1 0x20 ADD ADD MLOAD PUSH2 0x8FE JUMP JUMPDEST PUSH1 0x1 ADD PUSH2 0x296 JUMP JUMPDEST POP PUSH1 0x0 JUMPDEST DUP6 MLOAD DUP2 LT ISZERO PUSH2 0x300 JUMPI PUSH2 0x2F8 DUP7 DUP3 DUP2 MLOAD DUP2 LT PUSH2 0x2EB JUMPI PUSH2 0x2EB PUSH2 0x18A0 JUMP JUMPDEST PUSH1 0x20 MUL PUSH1 0x20 ADD ADD MLOAD PUSH2 0x9EF JUMP JUMPDEST PUSH1 0x1 ADD PUSH2 0x2CD JUMP JUMPDEST PUSH1 0x0 DUP1 DUP7 PUSH1 0x1 PUSH1 0x1 PUSH1 0xA0 SHL SUB AND CALLVALUE DUP8 PUSH1 0x40 MLOAD PUSH2 0x31C SWAP2 SWAP1 PUSH2 0x18B6 JUMP JUMPDEST PUSH1 0x0 PUSH1 0x40 MLOAD DUP1 DUP4 SUB DUP2 DUP6 DUP8 GAS CALL SWAP3 POP POP POP RETURNDATASIZE DUP1 PUSH1 0x0 DUP2 EQ PUSH2 0x359 JUMPI PUSH1 0x40 MLOAD SWAP2 POP PUSH1 0x1F NOT PUSH1 0x3F RETURNDATASIZE ADD AND DUP3 ADD PUSH1 0x40 MSTORE RETURNDATASIZE DUP3 MSTORE RETURNDATASIZE PUSH1 0x0 PUSH1 0x20 DUP5 ADD RETURNDATACOPY PUSH2 0x35E JUMP JUMPDEST PUSH1 0x60 SWAP2 POP JUMPDEST POP SWAP2 POP SWAP2 POP DUP2 PUSH2 0x385 JUMPI DUP7 DUP7 PUSH1 0x40 MLOAD PUSH4 0x6C544F33 PUSH1 0xE0 SHL DUP2 MSTORE PUSH1 0x4 ADD PUSH2 0x1E4 SWAP3 SWAP2 SWAP1 PUSH2 0x18D2 JUMP JUMPDEST PUSH1 0x0 SWAP3 POP JUMPDEST DUP5 MLOAD DUP4 LT ISZERO PUSH2 0x3C0 JUMPI PUSH2 0x3B5 DUP6 DUP5 DUP2 MLOAD DUP2 LT PUSH2 0x3A8 JUMPI PUSH2 0x3A8 PUSH2 0x18A0 JUMP JUMPDEST PUSH1 0x20 MUL PUSH1 0x20 ADD ADD MLOAD PUSH2 0xB09 JUMP JUMPDEST PUSH1 0x1 SWAP1 SWAP3 ADD SWAP2 PUSH2 0x38A JUMP JUMPDEST PUSH1 0x0 SWAP3 POP JUMPDEST DUP10 MLOAD DUP4 LT ISZERO PUSH2 0x284 JUMPI PUSH2 0x3E3 DUP11 DUP5 DUP2 MLOAD DUP2 LT PUSH2 0x2B4 JUMPI PUSH2 0x2B4 PUSH2 0x18A0 JUMP JUMPDEST PUSH1 0x1 SWAP1 SWAP3 ADD SWAP2 PUSH2 0x3C5 JUMP JUMPDEST PUSH1 0x60 PUSH1 0x0 JUMPDEST DUP10 DUP2 LT ISZERO PUSH2 0x423 JUMPI PUSH2 0x41B DUP12 DUP12 DUP4 DUP2 DUP2 LT PUSH2 0x410 JUMPI PUSH2 0x410 PUSH2 0x18A0 JUMP JUMPDEST SWAP1 POP PUSH1 0x60 MUL ADD PUSH2 0xB9D JUMP JUMPDEST PUSH1 0x1 ADD PUSH2 0x3F3 JUMP JUMPDEST POP PUSH1 0x0 JUMPDEST DUP8 DUP2 LT ISZERO PUSH2 0x457 JUMPI PUSH2 0x44F DUP10 DUP10 DUP4 DUP2 DUP2 LT PUSH2 0x444 JUMPI PUSH2 0x444 PUSH2 0x18A0 JUMP JUMPDEST SWAP1 POP PUSH1 0x60 MUL ADD PUSH2 0xCD7 JUMP JUMPDEST PUSH1 0x1 ADD PUSH2 0x427 JUMP JUMPDEST PUSH1 0x0 DUP1 DUP9 PUSH1 0x1 PUSH1 0x1 PUSH1 0xA0 SHL SUB AND CALLVALUE DUP10 DUP10 PUSH1 0x40 MLOAD PUSH2 0x475 SWAP3 SWAP2 SWAP1 PUSH2 0x18FE JUMP JUMPDEST PUSH1 0x0 PUSH1 0x40 MLOAD DUP1 DUP4 SUB DUP2 DUP6 DUP8 GAS CALL SWAP3 POP POP POP RETURNDATASIZE DUP1 PUSH1 0x0 DUP2 EQ PUSH2 0x4B2 JUMPI PUSH1 0x40 MLOAD SWAP2 POP PUSH1 0x1F NOT PUSH1 0x3F RETURNDATASIZE ADD AND DUP3 ADD PUSH1 0x40 MSTORE RETURNDATASIZE DUP3 MSTORE RETURNDATASIZE PUSH1 0x0 PUSH1 0x20 DUP5 ADD RETURNDATACOPY PUSH2 0x4B7 JUMP JUMPDEST PUSH1 0x60 SWAP2 POP JUMPDEST POP SWAP2 POP SWAP2 POP DUP2 PUSH2 0x4E0 JUMPI DUP9 DUP9 DUP9 PUSH1 0x40 MLOAD PUSH4 0x6C544F33 PUSH1 0xE0 SHL DUP2 MSTORE PUSH1 0x4 ADD PUSH2 0x1E4 SWAP4 SWAP3 SWAP2 SWAP1 PUSH2 0x1937 JUMP JUMPDEST PUSH1 0x0 SWAP3 POP JUMPDEST DUP5 DUP4 LT ISZERO PUSH2 0x518 JUMPI PUSH2 0x50D DUP7 DUP7 DUP6 DUP2 DUP2 LT PUSH2 0x502 JUMPI PUSH2 0x502 PUSH2 0x18A0 JUMP JUMPDEST SWAP1 POP PUSH1 0x60 MUL ADD PUSH2 0xDE7 JUMP JUMPDEST PUSH1 0x1 SWAP1 SWAP3 ADD SWAP2 PUSH2 0x4E5 JUMP JUMPDEST PUSH1 0x0 SWAP3 POP JUMPDEST DUP14 DUP4 LT ISZERO PUSH2 0x545 JUMPI PUSH2 0x53A DUP16 DUP16 DUP6 DUP2 DUP2 LT PUSH2 0x410 JUMPI PUSH2 0x410 PUSH2 0x18A0 JUMP JUMPDEST PUSH1 0x1 SWAP1 SWAP3 ADD SWAP2 PUSH2 0x51D JUMP JUMPDEST SWAP15 SWAP14 POP POP POP POP POP POP POP POP POP POP POP POP POP POP JUMP JUMPDEST PUSH1 0x60 PUSH1 0x0 JUMPDEST DUP10 DUP2 LT ISZERO PUSH2 0x5C4 JUMPI PUSH2 0x590 DUP12 DUP12 DUP4 DUP2 DUP2 LT PUSH2 0x579 JUMPI PUSH2 0x579 PUSH2 0x18A0 JUMP JUMPDEST SWAP1 POP PUSH1 0x20 MUL DUP2 ADD SWAP1 PUSH2 0x58B SWAP2 SWAP1 PUSH2 0x1965 JUMP JUMPDEST PUSH2 0xE7B JUMP JUMPDEST PUSH2 0x5BC DUP12 DUP12 DUP4 DUP2 DUP2 LT PUSH2 0x5A5 JUMPI PUSH2 0x5A5 PUSH2 0x18A0 JUMP JUMPDEST SWAP1 POP PUSH1 0x20 MUL DUP2 ADD SWAP1 PUSH2 0x5B7 SWAP2 SWAP1 PUSH2 0x1965 JUMP JUMPDEST PUSH2 0xB9D JUMP JUMPDEST PUSH1 0x1 ADD PUSH2 0x55C JUMP JUMPDEST POP PUSH1 0x0 JUMPDEST DUP8 DUP2 LT ISZERO PUSH2 0x619 JUMPI PUSH2 0x5E5 DUP10 DUP10 DUP4 DUP2 DUP2 LT PUSH2 0x579 JUMPI PUSH2 0x579 PUSH2 0x18A0 JUMP JUMPDEST PUSH2 0x611 DUP10 DUP10 DUP4 DUP2 DUP2 LT PUSH2 0x5FA JUMPI PUSH2 0x5FA PUSH2 0x18A0 JUMP JUMPDEST SWAP1 POP PUSH1 0x20 MUL DUP2 ADD SWAP1 PUSH2 0x60C SWAP2 SWAP1 PUSH2 0x1965 JUMP JUMPDEST PUSH2 0xCD7 JUMP JUMPDEST PUSH1 0x1 ADD PUSH2 0x5C8 JUMP JUMPDEST PUSH1 0x0 DUP1 DUP9 PUSH1 0x1 PUSH1 0x1 PUSH1 0xA0 SHL SUB AND CALLVALUE DUP10 DUP10 PUSH1 0x40 MLOAD PUSH2 0x637 SWAP3 SWAP2 SWAP1 PUSH2 0x18FE JUMP JUMPDEST PUSH1 0x0 PUSH1 0x40 MLOAD DUP1 DUP4 SUB DUP2 DUP6 DUP8 GAS CALL SWAP3 POP POP POP RETURNDATASIZE DUP1 PUSH1 0x0 DUP2 EQ PUSH2 0x674 JUMPI PUSH1 0x40 MLOAD SWAP2 POP PUSH1 0x1F NOT PUSH1 0x3F RETURNDATASIZE ADD AND DUP3 ADD PUSH1 0x40 MSTORE RETURNDATASIZE DUP3 MSTORE RETURNDATASIZE PUSH1 0x0 PUSH1 0x20 DUP5 ADD RETURNDATACOPY PUSH2 0x679 JUMP JUMPDEST PUSH1 0x60 SWAP2 POP JUMPDEST POP SWAP2 POP SWAP2 POP DUP2 PUSH2 0x6A2 JUMPI DUP9 DUP9 DUP9 PUSH1 0x40 MLOAD PUSH4 0x6C544F33 PUSH1 0xE0 SHL DUP2 MSTORE PUSH1 0x4 ADD PUSH2 0x1E4 SWAP4 SWAP3 SWAP2 SWAP1 PUSH2 0x1937 JUMP JUMPDEST PUSH1 0x0 SWAP3 POP JUMPDEST DUP5 DUP4 LT ISZERO PUSH2 0x6FB JUMPI PUSH2 0x6C4 DUP7 DUP7 DUP6 DUP2 DUP2 LT PUSH2 0x579 JUMPI PUSH2 0x579 PUSH2 0x18A0 JUMP JUMPDEST PUSH2 0x6F0 DUP7 DUP7 DUP6 DUP2 DUP2 LT PUSH2 0x6D9 JUMPI PUSH2 0x6D9 PUSH2 0x18A0 JUMP JUMPDEST SWAP1 POP PUSH1 0x20 MUL DUP2 ADD SWAP1 PUSH2 0x6EB SWAP2 SWAP1 PUSH2 0x1965 JUMP JUMPDEST PUSH2 0xDE7 JUMP JUMPDEST PUSH1 0x1 SWAP1 SWAP3 ADD SWAP2 PUSH2 0x6A7 JUMP JUMPDEST PUSH1 0x0 SWAP3 POP JUMPDEST DUP14 DUP4 LT ISZERO PUSH2 0x545 JUMPI PUSH2 0x71D DUP16 DUP16 DUP6 DUP2 DUP2 LT PUSH2 0x579 JUMPI PUSH2 0x579 PUSH2 0x18A0 JUMP JUMPDEST PUSH2 0x732 DUP16 DUP16 DUP6 DUP2 DUP2 LT PUSH2 0x5A5 JUMPI PUSH2 0x5A5 PUSH2 0x18A0 JUMP JUMPDEST PUSH1 0x1 SWAP1 SWAP3 ADD SWAP2 PUSH2 0x700 JUMP JUMPDEST DUP1 MLOAD PUSH1 0x20 ADD MLOAD PUSH1 0x60 SWAP1 PUSH1 0x0 SWAP1 PUSH1 0x1 PUSH1 0x1 PUSH1 0xA0 SHL SUB AND PUSH2 0x779 JUMPI POP POP PUSH1 0x40 DUP1 MLOAD DUP1 DUP3 ADD SWAP1 SWAP2 MSTORE PUSH1 0x3 DUP2 MSTORE PUSH3 0x8AA89 PUSH1 0xEB SHL PUSH1 0x20 DUP3 ADD MSTORE PUSH1 0x12 PUSH2 0x856 JUMP JUMPDEST DUP3 PUSH1 0x0 ADD MLOAD PUSH1 0x20 ADD MLOAD PUSH1 0x1 PUSH1 0x1 PUSH1 0xA0 SHL SUB AND PUSH4 0x95D89B41 PUSH1 0x40 MLOAD DUP2 PUSH4 0xFFFFFFFF AND PUSH1 0xE0 SHL DUP2 MSTORE PUSH1 0x4 ADD PUSH1 0x0 PUSH1 0x40 MLOAD DUP1 DUP4 SUB DUP2 DUP7 GAS STATICCALL ISZERO DUP1 ISZERO PUSH2 0x7BF JUMPI RETURNDATASIZE PUSH1 0x0 DUP1 RETURNDATACOPY RETURNDATASIZE PUSH1 0x0 REVERT JUMPDEST POP POP POP POP PUSH1 0x40 MLOAD RETURNDATASIZE PUSH1 0x0 DUP3 RETURNDATACOPY PUSH1 0x1F RETURNDATASIZE SWAP1 DUP2 ADD PUSH1 0x1F NOT AND DUP3 ADD PUSH1 0x40 MSTORE PUSH2 0x7E7 SWAP2 SWAP1 DUP2 ADD SWAP1 PUSH2 0x197B JUMP JUMPDEST SWAP2 POP DUP3 PUSH1 0x0 ADD MLOAD PUSH1 0x20 ADD MLOAD PUSH1 0x1 PUSH1 0x1 PUSH1 0xA0 SHL SUB AND PUSH4 0x313CE567 PUSH1 0x40 MLOAD DUP2 PUSH4 0xFFFFFFFF AND PUSH1 0xE0 SHL DUP2 MSTORE PUSH1 0x4 ADD PUSH1 0x20 PUSH1 0x40 MLOAD DUP1 DUP4 SUB DUP2 DUP7 GAS STATICCALL ISZERO DUP1 ISZERO PUSH2 0x82F JUMPI RETURNDATASIZE PUSH1 0x0 DUP1 RETURNDATACOPY RETURNDATASIZE PUSH1 0x0 REVERT JUMPDEST POP POP POP POP PUSH1 0x40 MLOAD RETURNDATASIZE PUSH1 0x1F NOT PUSH1 0x1F DUP3 ADD AND DUP3 ADD DUP1 PUSH1 0x40 MSTORE POP DUP2 ADD SWAP1 PUSH2 0x853 SWAP2 SWAP1 PUSH2 0x19E8 JUMP JUMPDEST SWAP1 POP JUMPDEST PUSH1 0x20 DUP1 DUP5 ADD MLOAD PUSH1 0x40 MLOAD PUSH2 0x869 SWAP3 ADD PUSH2 0x18B6 JUMP JUMPDEST PUSH1 0x40 MLOAD PUSH1 0x20 DUP2 DUP4 SUB SUB DUP2 MSTORE SWAP1 PUSH1 0x40 MSTORE PUSH2 0x881 SWAP1 PUSH2 0x1A05 JUMP JUMPDEST DUP3 PUSH1 0x40 MLOAD PUSH1 0x20 ADD PUSH2 0x892 SWAP2 SWAP1 PUSH2 0x18B6 JUMP JUMPDEST PUSH1 0x40 MLOAD PUSH1 0x20 DUP2 DUP4 SUB SUB DUP2 MSTORE SWAP1 PUSH1 0x40 MSTORE PUSH2 0x8AA SWAP1 PUSH2 0x1A05 JUMP JUMPDEST EQ ISZERO DUP1 PUSH2 0x8C1 JUMPI POP DUP3 PUSH1 0x40 ADD MLOAD PUSH1 0xFF AND DUP2 PUSH1 0xFF AND EQ ISZERO JUMPDEST ISZERO PUSH2 0x8F9 JUMPI DUP3 PUSH1 0x0 ADD MLOAD PUSH1 0x20 ADD MLOAD DUP4 PUSH1 0x20 ADD MLOAD DUP5 PUSH1 0x40 ADD MLOAD DUP5 DUP5 PUSH1 0x40 MLOAD PUSH4 0x55918519 PUSH1 0xE0 SHL DUP2 MSTORE PUSH1 0x4 ADD PUSH2 0x1E4 SWAP6 SWAP5 SWAP4 SWAP3 SWAP2 SWAP1 PUSH2 0x1A2C JUMP JUMPDEST POP POP POP JUMP JUMPDEST PUSH1 0x20 DUP2 ADD MLOAD PUSH1 0x0 SWAP1 PUSH1 0x1 PUSH1 0x1 PUSH1 0xA0 SHL SUB AND ISZERO PUSH2 0x98A JUMPI PUSH1 0x20 DUP3 ADD MLOAD DUP3 MLOAD PUSH1 0x40 MLOAD PUSH4 0x70A08231 PUSH1 0xE0 SHL DUP2 MSTORE PUSH1 0x1 PUSH1 0x1 PUSH1 0xA0 SHL SUB SWAP2 DUP3 AND PUSH1 0x4 DUP3 ADD MSTORE SWAP2 AND SWAP1 PUSH4 0x70A08231 SWAP1 PUSH1 0x24 ADD PUSH1 0x20 PUSH1 0x40 MLOAD DUP1 DUP4 SUB DUP2 DUP7 GAS STATICCALL ISZERO DUP1 ISZERO PUSH2 0x961 JUMPI RETURNDATASIZE PUSH1 0x0 DUP1 RETURNDATACOPY RETURNDATASIZE PUSH1 0x0 REVERT JUMPDEST POP POP POP POP PUSH1 0x40 MLOAD RETURNDATASIZE PUSH1 0x1F NOT PUSH1 0x1F DUP3 ADD AND DUP3 ADD DUP1 PUSH1 0x40 MSTORE POP DUP2 ADD SWAP1 PUSH2 0x985 SWAP2 SWAP1 PUSH2 0x1A81 JUMP JUMPDEST PUSH2 0x997 JUMP JUMPDEST DUP2 MLOAD PUSH1 0x1 PUSH1 0x1 PUSH1 0xA0 SHL SUB AND BALANCE JUMPDEST SWAP1 POP DUP2 PUSH1 0x40 ADD MLOAD DUP2 LT ISZERO PUSH2 0x9EB JUMPI PUSH1 0x20 DUP3 ADD MLOAD DUP3 MLOAD PUSH1 0x40 DUP1 DUP6 ADD MLOAD SWAP1 MLOAD PUSH4 0x861DA4BD PUSH1 0xE0 SHL DUP2 MSTORE PUSH1 0x1 PUSH1 0x1 PUSH1 0xA0 SHL SUB SWAP4 DUP5 AND PUSH1 0x4 DUP3 ADD MSTORE SWAP3 SWAP1 SWAP2 AND PUSH1 0x24 DUP4 ADD MSTORE PUSH1 0x44 DUP3 ADD MSTORE PUSH1 0x64 DUP2 ADD DUP3 SWAP1 MSTORE PUSH1 0x84 ADD PUSH2 0x1E4 JUMP JUMPDEST POP POP JUMP JUMPDEST PUSH1 0x20 DUP2 ADD MLOAD PUSH1 0x1 PUSH1 0x1 PUSH1 0xA0 SHL SUB AND PUSH2 0xA04 JUMPI POP JUMP JUMPDEST PUSH1 0x20 DUP2 ADD MLOAD PUSH1 0x40 DUP1 DUP4 ADD MLOAD SWAP1 MLOAD PUSH4 0x23B872DD PUSH1 0xE0 SHL DUP2 MSTORE CALLER PUSH1 0x4 DUP3 ADD MSTORE ADDRESS PUSH1 0x24 DUP3 ADD MSTORE PUSH1 0x44 DUP2 ADD SWAP2 SWAP1 SWAP2 MSTORE PUSH1 0x1 PUSH1 0x1 PUSH1 0xA0 SHL SUB SWAP1 SWAP2 AND SWAP1 PUSH4 0x23B872DD SWAP1 PUSH1 0x64 ADD PUSH1 0x20 PUSH1 0x40 MLOAD DUP1 DUP4 SUB DUP2 PUSH1 0x0 DUP8 GAS CALL ISZERO DUP1 ISZERO PUSH2 0xA63 JUMPI RETURNDATASIZE PUSH1 0x0 DUP1 RETURNDATACOPY RETURNDATASIZE PUSH1 0x0 REVERT JUMPDEST POP POP POP POP PUSH1 0x40 MLOAD RETURNDATASIZE PUSH1 0x1F NOT PUSH1 0x1F DUP3 ADD AND DUP3 ADD DUP1 PUSH1 0x40 MSTORE POP DUP2 ADD SWAP1 PUSH2 0xA87 SWAP2 SWAP1 PUSH2 0x1A9A JUMP JUMPDEST POP PUSH1 0x20 DUP2 ADD MLOAD DUP2 MLOAD PUSH1 0x40 DUP1 DUP5 ADD MLOAD SWAP1 MLOAD PUSH4 0x95EA7B3 PUSH1 0xE0 SHL DUP2 MSTORE PUSH1 0x1 PUSH1 0x1 PUSH1 0xA0 SHL SUB SWAP3 DUP4 AND PUSH1 0x4 DUP3 ADD MSTORE PUSH1 0x24 DUP2 ADD SWAP2 SWAP1 SWAP2 MSTORE SWAP2 AND SWAP1 PUSH4 0x95EA7B3 SWAP1 PUSH1 0x44 ADD JUMPDEST PUSH1 0x20 PUSH1 0x40 MLOAD DUP1 DUP4 SUB DUP2 PUSH1 0x0 DUP8 GAS CALL ISZERO DUP1 ISZERO PUSH2 0xAE5 JUMPI RETURNDATASIZE PUSH1 0x0 DUP1 RETURNDATACOPY RETURNDATASIZE PUSH1 0x0 REVERT JUMPDEST POP POP POP POP PUSH1 0x40 MLOAD RETURNDATASIZE PUSH1 0x1F NOT PUSH1 0x1F DUP3 ADD AND DUP3 ADD DUP1 PUSH1 0x40 MSTORE POP DUP2 ADD SWAP1 PUSH2 0x9EB SWAP2 SWAP1 PUSH2 0x1A9A JUMP JUMPDEST PUSH1 0x20 DUP2 ADD MLOAD PUSH1 0x1 PUSH1 0x1 PUSH1 0xA0 SHL SUB AND PUSH2 0xB58 JUMPI DUP1 MLOAD PUSH1 0x40 DUP1 DUP4 ADD MLOAD SWAP1 MLOAD PUSH1 0x1 PUSH1 0x1 PUSH1 0xA0 SHL SUB SWAP1 SWAP3 AND SWAP2 DUP2 ISZERO PUSH2 0x8FC MUL SWAP2 SWAP1 PUSH1 0x0 DUP2 DUP2 DUP2 DUP6 DUP9 DUP9 CALL SWAP4 POP POP POP POP ISZERO DUP1 ISZERO PUSH2 0x9EB JUMPI RETURNDATASIZE PUSH1 0x0 DUP1 RETURNDATACOPY RETURNDATASIZE PUSH1 0x0 REVERT JUMPDEST PUSH1 0x20 DUP2 ADD MLOAD DUP2 MLOAD PUSH1 0x40 DUP1 DUP5 ADD MLOAD SWAP1 MLOAD PUSH4 0xA9059CBB PUSH1 0xE0 SHL DUP2 MSTORE PUSH1 0x1 PUSH1 0x1 PUSH1 0xA0 SHL SUB SWAP3 DUP4 AND PUSH1 0x4 DUP3 ADD MSTORE PUSH1 0x24 DUP2 ADD SWAP2 SWAP1 SWAP2 MSTORE SWAP2 AND SWAP1 PUSH4 0xA9059CBB SWAP1 PUSH1 0x44 ADD PUSH2 0xAC6 JUMP JUMPDEST POP JUMP JUMPDEST PUSH1 0x0 DUP1 PUSH2 0xBB0 PUSH1 0x40 DUP5 ADD PUSH1 0x20 DUP6 ADD PUSH2 0x1ABC JUMP JUMPDEST PUSH1 0x1 PUSH1 0x1 PUSH1 0xA0 SHL SUB AND EQ PUSH2 0xC56 JUMPI PUSH2 0xBCE PUSH1 0x40 DUP4 ADD PUSH1 0x20 DUP5 ADD PUSH2 0x1ABC JUMP JUMPDEST PUSH1 0x1 PUSH1 0x1 PUSH1 0xA0 SHL SUB AND PUSH4 0x70A08231 PUSH2 0xBE9 PUSH1 0x20 DUP6 ADD DUP6 PUSH2 0x1ABC JUMP JUMPDEST PUSH1 0x40 MLOAD PUSH1 0x1 PUSH1 0x1 PUSH1 0xE0 SHL SUB NOT PUSH1 0xE0 DUP5 SWAP1 SHL AND DUP2 MSTORE PUSH1 0x1 PUSH1 0x1 PUSH1 0xA0 SHL SUB SWAP1 SWAP2 AND PUSH1 0x4 DUP3 ADD MSTORE PUSH1 0x24 ADD PUSH1 0x20 PUSH1 0x40 MLOAD DUP1 DUP4 SUB DUP2 DUP7 GAS STATICCALL ISZERO DUP1 ISZERO PUSH2 0xC2D JUMPI RETURNDATASIZE PUSH1 0x0 DUP1 RETURNDATACOPY RETURNDATASIZE PUSH1 0x0 REVERT JUMPDEST POP POP POP POP PUSH1 0x40 MLOAD RETURNDATASIZE PUSH1 0x1F NOT PUSH1 0x1F DUP3 ADD AND DUP3 ADD DUP1 PUSH1 0x40 MSTORE POP DUP2 ADD SWAP1 PUSH2 0xC51 SWAP2 SWAP1 PUSH2 0x1A81 JUMP JUMPDEST PUSH2 0xC6E JUMP JUMPDEST PUSH2 0xC63 PUSH1 0x20 DUP4 ADD DUP4 PUSH2 0x1ABC JUMP JUMPDEST PUSH1 0x1 PUSH1 0x1 PUSH1 0xA0 SHL SUB AND BALANCE JUMPDEST SWAP1 POP DUP2 PUSH1 0x40 ADD CALLDATALOAD DUP2 LT ISZERO PUSH2 0x9EB JUMPI PUSH2 0xC8C PUSH1 0x40 DUP4 ADD PUSH1 0x20 DUP5 ADD PUSH2 0x1ABC JUMP JUMPDEST PUSH2 0xC99 PUSH1 0x20 DUP5 ADD DUP5 PUSH2 0x1ABC JUMP JUMPDEST PUSH1 0x40 DUP1 MLOAD PUSH4 0x861DA4BD PUSH1 0xE0 SHL DUP2 MSTORE PUSH1 0x1 PUSH1 0x1 PUSH1 0xA0 SHL SUB SWAP4 DUP5 AND PUSH1 0x4 DUP3 ADD MSTORE SWAP3 SWAP1 SWAP2 AND PUSH1 0x24 DUP4 ADD MSTORE DUP4 ADD CALLDATALOAD PUSH1 0x44 DUP3 ADD MSTORE PUSH1 0x64 DUP2 ADD DUP3 SWAP1 MSTORE PUSH1 0x84 ADD PUSH2 0x1E4 JUMP JUMPDEST PUSH1 0x0 PUSH2 0xCE9 PUSH1 0x40 DUP4 ADD PUSH1 0x20 DUP5 ADD PUSH2 0x1ABC JUMP JUMPDEST PUSH1 0x1 PUSH1 0x1 PUSH1 0xA0 SHL SUB AND SUB PUSH2 0xCFA JUMPI POP JUMP JUMPDEST PUSH2 0xD0A PUSH1 0x40 DUP3 ADD PUSH1 0x20 DUP4 ADD PUSH2 0x1ABC JUMP JUMPDEST PUSH1 0x40 DUP1 MLOAD PUSH4 0x23B872DD PUSH1 0xE0 SHL DUP2 MSTORE CALLER PUSH1 0x4 DUP3 ADD MSTORE ADDRESS PUSH1 0x24 DUP3 ADD MSTORE SWAP1 DUP4 ADD CALLDATALOAD PUSH1 0x44 DUP3 ADD MSTORE PUSH1 0x1 PUSH1 0x1 PUSH1 0xA0 SHL SUB SWAP2 SWAP1 SWAP2 AND SWAP1 PUSH4 0x23B872DD SWAP1 PUSH1 0x64 ADD PUSH1 0x20 PUSH1 0x40 MLOAD DUP1 DUP4 SUB DUP2 PUSH1 0x0 DUP8 GAS CALL ISZERO DUP1 ISZERO PUSH2 0xD62 JUMPI RETURNDATASIZE PUSH1 0x0 DUP1 RETURNDATACOPY RETURNDATASIZE PUSH1 0x0 REVERT JUMPDEST POP POP POP POP PUSH1 0x40 MLOAD RETURNDATASIZE PUSH1 0x1F NOT PUSH1 0x1F DUP3 ADD AND DUP3 ADD DUP1 PUSH1 0x40 MSTORE POP DUP2 ADD SWAP1 PUSH2 0xD86 SWAP2 SWAP1 PUSH2 0x1A9A JUMP JUMPDEST POP PUSH2 0xD97 PUSH1 0x40 DUP3 ADD PUSH1 0x20 DUP4 ADD PUSH2 0x1ABC JUMP JUMPDEST PUSH1 0x1 PUSH1 0x1 PUSH1 0xA0 SHL SUB AND PUSH4 0x95EA7B3 PUSH2 0xDB2 PUSH1 0x20 DUP5 ADD DUP5 PUSH2 0x1ABC JUMP JUMPDEST PUSH1 0x40 DUP1 MLOAD PUSH1 0x1 PUSH1 0x1 PUSH1 0xE0 SHL SUB NOT PUSH1 0xE0 DUP6 SWAP1 SHL AND DUP2 MSTORE PUSH1 0x1 PUSH1 0x1 PUSH1 0xA0 SHL SUB SWAP1 SWAP3 AND PUSH1 0x4 DUP4 ADD MSTORE DUP5 ADD CALLDATALOAD PUSH1 0x24 DUP3 ADD MSTORE PUSH1 0x44 ADD PUSH2 0xAC6 JUMP JUMPDEST PUSH1 0x0 PUSH2 0xDF9 PUSH1 0x40 DUP4 ADD PUSH1 0x20 DUP5 ADD PUSH2 0x1ABC JUMP JUMPDEST PUSH1 0x1 PUSH1 0x1 PUSH1 0xA0 SHL SUB AND SUB PUSH2 0xE50 JUMPI PUSH2 0xE14 PUSH1 0x20 DUP3 ADD DUP3 PUSH2 0x1ABC JUMP JUMPDEST PUSH1 0x1 PUSH1 0x1 PUSH1 0xA0 SHL SUB AND PUSH2 0x8FC DUP3 PUSH1 0x40 ADD CALLDATALOAD SWAP1 DUP2 ISZERO MUL SWAP1 PUSH1 0x40 MLOAD PUSH1 0x0 PUSH1 0x40 MLOAD DUP1 DUP4 SUB DUP2 DUP6 DUP9 DUP9 CALL SWAP4 POP POP POP POP ISZERO DUP1 ISZERO PUSH2 0x9EB JUMPI RETURNDATASIZE PUSH1 0x0 DUP1 RETURNDATACOPY RETURNDATASIZE PUSH1 0x0 REVERT JUMPDEST PUSH2 0xE60 PUSH1 0x40 DUP3 ADD PUSH1 0x20 DUP4 ADD PUSH2 0x1ABC JUMP JUMPDEST PUSH1 0x1 PUSH1 0x1 PUSH1 0xA0 SHL SUB AND PUSH4 0xA9059CBB PUSH2 0xDB2 PUSH1 0x20 DUP5 ADD DUP5 PUSH2 0x1ABC JUMP JUMPDEST PUSH1 0x60 PUSH1 0x0 DUP1 PUSH2 0xE90 PUSH1 0x40 DUP6 ADD PUSH1 0x20 DUP7 ADD PUSH2 0x1ABC JUMP JUMPDEST PUSH1 0x1 PUSH1 0x1 PUSH1 0xA0 SHL SUB AND SUB PUSH2 0xEC1 JUMPI POP POP PUSH1 0x40 DUP1 MLOAD DUP1 DUP3 ADD SWAP1 SWAP2 MSTORE PUSH1 0x3 DUP2 MSTORE PUSH3 0x8AA89 PUSH1 0xEB SHL PUSH1 0x20 DUP3 ADD MSTORE PUSH1 0x12 PUSH2 0xFAC JUMP JUMPDEST PUSH2 0xED1 PUSH1 0x40 DUP5 ADD PUSH1 0x20 DUP6 ADD PUSH2 0x1ABC JUMP JUMPDEST PUSH1 0x1 PUSH1 0x1 PUSH1 0xA0 SHL SUB AND PUSH4 0x95D89B41 PUSH1 0x40 MLOAD DUP2 PUSH4 0xFFFFFFFF AND PUSH1 0xE0 SHL DUP2 MSTORE PUSH1 0x4 ADD PUSH1 0x0 PUSH1 0x40 MLOAD DUP1 DUP4 SUB DUP2 DUP7 GAS STATICCALL ISZERO DUP1 ISZERO PUSH2 0xF0E JUMPI RETURNDATASIZE PUSH1 0x0 DUP1 RETURNDATACOPY RETURNDATASIZE PUSH1 0x0 REVERT JUMPDEST POP POP POP POP PUSH1 0x40 MLOAD RETURNDATASIZE PUSH1 0x0 DUP3 RETURNDATACOPY PUSH1 0x1F RETURNDATASIZE SWAP1 DUP2 ADD PUSH1 0x1F NOT AND DUP3 ADD PUSH1 0x40 MSTORE PUSH2 0xF36 SWAP2 SWAP1 DUP2 ADD SWAP1 PUSH2 0x197B JUMP JUMPDEST SWAP2 POP PUSH2 0xF48 PUSH1 0x40 DUP5 ADD PUSH1 0x20 DUP6 ADD PUSH2 0x1ABC JUMP JUMPDEST PUSH1 0x1 PUSH1 0x1 PUSH1 0xA0 SHL SUB AND PUSH4 0x313CE567 PUSH1 0x40 MLOAD DUP2 PUSH4 0xFFFFFFFF AND PUSH1 0xE0 SHL DUP2 MSTORE PUSH1 0x4 ADD PUSH1 0x20 PUSH1 0x40 MLOAD DUP1 DUP4 SUB DUP2 DUP7 GAS STATICCALL ISZERO DUP1 ISZERO PUSH2 0xF85 JUMPI RETURNDATASIZE PUSH1 0x0 DUP1 RETURNDATACOPY RETURNDATASIZE PUSH1 0x0 REVERT JUMPDEST POP POP POP POP PUSH1 0x40 MLOAD RETURNDATASIZE PUSH1 0x1F NOT PUSH1 0x1F DUP3 ADD AND DUP3 ADD DUP1 PUSH1 0x40 MSTORE POP DUP2 ADD SWAP1 PUSH2 0xFA9 SWAP2 SWAP1 PUSH2 0x19E8 JUMP JUMPDEST SWAP1 POP JUMPDEST PUSH2 0xFB9 PUSH1 0x60 DUP5 ADD DUP5 PUSH2 0x1AD7 JUMP JUMPDEST PUSH1 0x40 MLOAD PUSH1 0x20 ADD PUSH2 0xFCA SWAP3 SWAP2 SWAP1 PUSH2 0x18FE JUMP JUMPDEST PUSH1 0x40 MLOAD PUSH1 0x20 DUP2 DUP4 SUB SUB DUP2 MSTORE SWAP1 PUSH1 0x40 MSTORE DUP1 MLOAD SWAP1 PUSH1 0x20 ADD KECCAK256 DUP3 PUSH1 0x40 MLOAD PUSH1 0x20 ADD PUSH2 0xFF1 SWAP2 SWAP1 PUSH2 0x18B6 JUMP JUMPDEST PUSH1 0x40 MLOAD PUSH1 0x20 DUP2 DUP4 SUB SUB DUP2 MSTORE SWAP1 PUSH1 0x40 MSTORE DUP1 MLOAD SWAP1 PUSH1 0x20 ADD KECCAK256 EQ ISZERO DUP1 PUSH2 0x1029 JUMPI POP PUSH2 0x101F PUSH1 0xA0 DUP5 ADD PUSH1 0x80 DUP6 ADD PUSH2 0x1B1D JUMP JUMPDEST PUSH1 0xFF AND DUP2 PUSH1 0xFF AND EQ ISZERO JUMPDEST ISZERO PUSH2 0x8F9 JUMPI PUSH2 0x103E PUSH1 0x40 DUP5 ADD PUSH1 0x20 DUP6 ADD PUSH2 0x1ABC JUMP JUMPDEST PUSH2 0x104B PUSH1 0x60 DUP6 ADD DUP6 PUSH2 0x1AD7 JUMP JUMPDEST PUSH2 0x105B PUSH1 0xA0 DUP8 ADD PUSH1 0x80 DUP9 ADD PUSH2 0x1B1D JUMP JUMPDEST DUP6 DUP6 PUSH1 0x40 MLOAD PUSH4 0x55918519 PUSH1 0xE0 SHL DUP2 MSTORE PUSH1 0x4 ADD PUSH2 0x1E4 SWAP7 SWAP6 SWAP5 SWAP4 SWAP3 SWAP2 SWAP1 PUSH2 0x1B3A JUMP JUMPDEST PUSH4 0x4E487B71 PUSH1 0xE0 SHL PUSH1 0x0 MSTORE PUSH1 0x41 PUSH1 0x4 MSTORE PUSH1 0x24 PUSH1 0x0 REVERT JUMPDEST PUSH1 0x40 MLOAD PUSH1 0x60 DUP2 ADD PUSH1 0x1 PUSH1 0x1 PUSH1 0x40 SHL SUB DUP2 GT DUP3 DUP3 LT OR ISZERO PUSH2 0x10B4 JUMPI PUSH2 0x10B4 PUSH2 0x107C JUMP JUMPDEST PUSH1 0x40 MSTORE SWAP1 JUMP JUMPDEST PUSH1 0x40 MLOAD PUSH1 0x1F DUP3 ADD PUSH1 0x1F NOT AND DUP2 ADD PUSH1 0x1 PUSH1 0x1 PUSH1 0x40 SHL SUB DUP2 GT DUP3 DUP3 LT OR ISZERO PUSH2 0x10E2 JUMPI PUSH2 0x10E2 PUSH2 0x107C JUMP JUMPDEST PUSH1 0x40 MSTORE SWAP2 SWAP1 POP JUMP JUMPDEST PUSH1 0x0 PUSH1 0x1 PUSH1 0x1 PUSH1 0x40 SHL SUB DUP3 GT ISZERO PUSH2 0x1103 JUMPI PUSH2 0x1103 PUSH2 0x107C JUMP JUMPDEST POP PUSH1 0x5 SHL PUSH1 0x20 ADD SWAP1 JUMP JUMPDEST DUP1 CALLDATALOAD PUSH1 0x1 PUSH1 0x1 PUSH1 0xA0 SHL SUB DUP2 AND DUP2 EQ PUSH2 0x1124 JUMPI PUSH1 0x0 DUP1 REVERT JUMPDEST SWAP2 SWAP1 POP JUMP JUMPDEST PUSH1 0x0 PUSH1 0x60 DUP3 DUP5 SUB SLT ISZERO PUSH2 0x113B JUMPI PUSH1 0x0 DUP1 REVERT JUMPDEST PUSH2 0x1143 PUSH2 0x1092 JUMP JUMPDEST SWAP1 POP PUSH2 0x114E DUP3 PUSH2 0x110D JUMP JUMPDEST DUP2 MSTORE PUSH2 0x115C PUSH1 0x20 DUP4 ADD PUSH2 0x110D JUMP JUMPDEST PUSH1 0x20 DUP3 ADD MSTORE PUSH1 0x40 DUP3 ADD CALLDATALOAD PUSH1 0x40 DUP3 ADD MSTORE SWAP3 SWAP2 POP POP JUMP JUMPDEST PUSH1 0x0 PUSH1 0x1 PUSH1 0x1 PUSH1 0x40 SHL SUB DUP3 GT ISZERO PUSH2 0x118A JUMPI PUSH2 0x118A PUSH2 0x107C JUMP JUMPDEST POP PUSH1 0x1F ADD PUSH1 0x1F NOT AND PUSH1 0x20 ADD SWAP1 JUMP JUMPDEST PUSH1 0x0 PUSH2 0x11AB PUSH2 0x11A6 DUP5 PUSH2 0x1171 JUMP JUMPDEST PUSH2 0x10BA JUMP JUMPDEST SWAP1 POP DUP3 DUP2 MSTORE DUP4 DUP4 DUP4 ADD GT ISZERO PUSH2 0x11BF JUMPI PUSH1 0x0 DUP1 REVERT JUMPDEST DUP3 DUP3 PUSH1 0x20 DUP4 ADD CALLDATACOPY PUSH1 0x0 PUSH1 0x20 DUP5 DUP4 ADD ADD MSTORE SWAP4 SWAP3 POP POP POP JUMP JUMPDEST PUSH1 0xFF DUP2 AND DUP2 EQ PUSH2 0xB9A JUMPI PUSH1 0x0 DUP1 REVERT JUMPDEST PUSH1 0x0 DUP3 PUSH1 0x1F DUP4 ADD SLT PUSH2 0x11F6 JUMPI PUSH1 0x0 DUP1 REVERT JUMPDEST DUP2 CALLDATALOAD PUSH2 0x1204 PUSH2 0x11A6 DUP3 PUSH2 0x10EA JUMP JUMPDEST DUP1 DUP3 DUP3 MSTORE PUSH1 0x20 DUP3 ADD SWAP2 POP PUSH1 0x20 DUP4 PUSH1 0x5 SHL DUP7 ADD ADD SWAP3 POP DUP6 DUP4 GT ISZERO PUSH2 0x1226 JUMPI PUSH1 0x0 DUP1 REVERT JUMPDEST PUSH1 0x20 DUP6 ADD JUMPDEST DUP4 DUP2 LT ISZERO PUSH2 0x12DF JUMPI DUP1 CALLDATALOAD PUSH1 0x1 PUSH1 0x1 PUSH1 0x40 SHL SUB DUP2 GT ISZERO PUSH2 0x1249 JUMPI PUSH1 0x0 DUP1 REVERT JUMPDEST DUP7 ADD PUSH1 0xA0 DUP2 DUP10 SUB PUSH1 0x1F NOT ADD SLT ISZERO PUSH2 0x125F JUMPI PUSH1 0x0 DUP1 REVERT JUMPDEST PUSH2 0x1267 PUSH2 0x1092 JUMP JUMPDEST PUSH2 0x1274 DUP10 PUSH1 0x20 DUP5 ADD PUSH2 0x1129 JUMP JUMPDEST DUP2 MSTORE PUSH1 0x80 DUP3 ADD CALLDATALOAD PUSH1 0x1 PUSH1 0x1 PUSH1 0x40 SHL SUB DUP2 GT ISZERO PUSH2 0x128F JUMPI PUSH1 0x0 DUP1 REVERT JUMPDEST DUP3 ADD PUSH1 0x20 DUP2 ADD SWAP1 PUSH1 0x3F ADD DUP11 SGT PUSH2 0x12A4 JUMPI PUSH1 0x0 DUP1 REVERT JUMPDEST PUSH2 0x12B3 DUP11 DUP3 CALLDATALOAD PUSH1 0x20 DUP5 ADD PUSH2 0x1198 JUMP JUMPDEST PUSH1 0x20 DUP4 ADD MSTORE POP PUSH1 0xA0 DUP3 ADD CALLDATALOAD SWAP2 POP PUSH2 0x12C9 DUP3 PUSH2 0x11D6 JUMP JUMPDEST PUSH1 0x40 DUP2 ADD SWAP2 SWAP1 SWAP2 MSTORE DUP4 MSTORE PUSH1 0x20 SWAP3 DUP4 ADD SWAP3 ADD PUSH2 0x122B JUMP JUMPDEST POP SWAP6 SWAP5 POP POP POP POP POP JUMP JUMPDEST PUSH1 0x0 DUP3 PUSH1 0x1F DUP4 ADD SLT PUSH2 0x12FA JUMPI PUSH1 0x0 DUP1 REVERT JUMPDEST PUSH2 0x1309 DUP4 DUP4 CALLDATALOAD PUSH1 0x20 DUP6 ADD PUSH2 0x1198 JUMP JUMPDEST SWAP4 SWAP3 POP POP POP JUMP JUMPDEST PUSH1 0x0 DUP1 PUSH1 0x0 DUP1 PUSH1 0x0 DUP1 PUSH1 0xC0 DUP8 DUP10 SUB SLT ISZERO PUSH2 0x1329 JUMPI PUSH1 0x0 DUP1 REVERT JUMPDEST DUP7 CALLDATALOAD PUSH1 0x1 PUSH1 0x1 PUSH1 0x40 SHL SUB DUP2 GT ISZERO PUSH2 0x133F JUMPI PUSH1 0x0 DUP1 REVERT JUMPDEST PUSH2 0x134B DUP10 DUP3 DUP11 ADD PUSH2 0x11E5 JUMP JUMPDEST SWAP7 POP POP PUSH1 0x20 DUP8 ADD CALLDATALOAD PUSH1 0x1 PUSH1 0x1 PUSH1 0x40 SHL SUB DUP2 GT ISZERO PUSH2 0x1367 JUMPI PUSH1 0x0 DUP1 REVERT JUMPDEST PUSH2 0x1373 DUP10 DUP3 DUP11 ADD PUSH2 0x11E5 JUMP JUMPDEST SWAP6 POP POP PUSH1 0x40 DUP8 ADD CALLDATALOAD PUSH1 0x1 PUSH1 0x1 PUSH1 0x40 SHL SUB DUP2 GT ISZERO PUSH2 0x138F JUMPI PUSH1 0x0 DUP1 REVERT JUMPDEST PUSH2 0x139B DUP10 DUP3 DUP11 ADD PUSH2 0x11E5 JUMP JUMPDEST SWAP5 POP POP PUSH2 0x13AA PUSH1 0x60 DUP9 ADD PUSH2 0x110D JUMP JUMPDEST SWAP3 POP PUSH1 0x80 DUP8 ADD CALLDATALOAD PUSH1 0x1 PUSH1 0x1 PUSH1 0x40 SHL SUB DUP2 GT ISZERO PUSH2 0x13C5 JUMPI PUSH1 0x0 DUP1 REVERT JUMPDEST PUSH2 0x13D1 DUP10 DUP3 DUP11 ADD PUSH2 0x12E9 JUMP JUMPDEST SWAP3 POP POP PUSH1 0xA0 DUP8 ADD CALLDATALOAD PUSH1 0x1 PUSH1 0x1 PUSH1 0x40 SHL SUB DUP2 GT ISZERO PUSH2 0x13ED JUMPI PUSH1 0x0 DUP1 REVERT JUMPDEST PUSH2 0x13F9 DUP10 DUP3 DUP11 ADD PUSH2 0x11E5 JUMP JUMPDEST SWAP2 POP POP SWAP3 SWAP6 POP SWAP3 SWAP6 POP SWAP3 SWAP6 JUMP JUMPDEST PUSH1 0x0 JUMPDEST DUP4 DUP2 LT ISZERO PUSH2 0x1421 JUMPI DUP2 DUP2 ADD MLOAD DUP4 DUP3 ADD MSTORE PUSH1 0x20 ADD PUSH2 0x1409 JUMP JUMPDEST POP POP PUSH1 0x0 SWAP2 ADD MSTORE JUMP JUMPDEST PUSH1 0x0 DUP2 MLOAD DUP1 DUP5 MSTORE PUSH2 0x1442 DUP2 PUSH1 0x20 DUP7 ADD PUSH1 0x20 DUP7 ADD PUSH2 0x1406 JUMP JUMPDEST PUSH1 0x1F ADD PUSH1 0x1F NOT AND SWAP3 SWAP1 SWAP3 ADD PUSH1 0x20 ADD SWAP3 SWAP2 POP POP JUMP JUMPDEST PUSH1 0x20 DUP2 MSTORE PUSH1 0x0 PUSH2 0x1309 PUSH1 0x20 DUP4 ADD DUP5 PUSH2 0x142A JUMP JUMPDEST PUSH1 0x0 DUP3 PUSH1 0x1F DUP4 ADD SLT PUSH2 0x147A JUMPI PUSH1 0x0 DUP1 REVERT JUMPDEST DUP2 CALLDATALOAD PUSH2 0x1488 PUSH2 0x11A6 DUP3 PUSH2 0x10EA JUMP JUMPDEST DUP1 DUP3 DUP3 MSTORE PUSH1 0x20 DUP3 ADD SWAP2 POP PUSH1 0x20 PUSH1 0x60 DUP5 MUL DUP7 ADD ADD SWAP3 POP DUP6 DUP4 GT ISZERO PUSH2 0x14AA JUMPI PUSH1 0x0 DUP1 REVERT JUMPDEST PUSH1 0x20 DUP6 ADD JUMPDEST DUP4 DUP2 LT ISZERO PUSH2 0x12DF JUMPI PUSH2 0x14C1 DUP8 DUP3 PUSH2 0x1129 JUMP JUMPDEST DUP4 MSTORE PUSH1 0x20 SWAP1 SWAP3 ADD SWAP2 PUSH1 0x60 ADD PUSH2 0x14AF JUMP JUMPDEST PUSH1 0x0 DUP1 PUSH1 0x0 DUP1 PUSH1 0x0 DUP1 PUSH1 0xC0 DUP8 DUP10 SUB SLT ISZERO PUSH2 0x14EA JUMPI PUSH1 0x0 DUP1 REVERT JUMPDEST DUP7 CALLDATALOAD PUSH1 0x1 PUSH1 0x1 PUSH1 0x40 SHL SUB DUP2 GT ISZERO PUSH2 0x1500 JUMPI PUSH1 0x0 DUP1 REVERT JUMPDEST PUSH2 0x150C DUP10 DUP3 DUP11 ADD PUSH2 0x1469 JUMP JUMPDEST SWAP7 POP POP PUSH1 0x20 DUP8 ADD CALLDATALOAD PUSH1 0x1 PUSH1 0x1 PUSH1 0x40 SHL SUB DUP2 GT ISZERO PUSH2 0x1528 JUMPI PUSH1 0x0 DUP1 REVERT JUMPDEST PUSH2 0x1534 DUP10 DUP3 DUP11 ADD PUSH2 0x1469 JUMP JUMPDEST SWAP6 POP POP PUSH1 0x40 DUP8 ADD CALLDATALOAD PUSH1 0x1 PUSH1 0x1 PUSH1 0x40 SHL SUB DUP2 GT ISZERO PUSH2 0x1550 JUMPI PUSH1 0x0 DUP1 REVERT JUMPDEST PUSH2 0x155C DUP10 DUP3 DUP11 ADD PUSH2 0x1469 JUMP JUMPDEST SWAP5 POP POP PUSH2 0x156B PUSH1 0x60 DUP9 ADD PUSH2 0x110D JUMP JUMPDEST SWAP3 POP PUSH1 0x80 DUP8 ADD CALLDATALOAD PUSH1 0x1 PUSH1 0x1 PUSH1 0x40 SHL SUB DUP2 GT ISZERO PUSH2 0x1586 JUMPI PUSH1 0x0 DUP1 REVERT JUMPDEST PUSH2 0x1592 DUP10 DUP3 DUP11 ADD PUSH2 0x12E9 JUMP JUMPDEST SWAP3 POP POP PUSH1 0xA0 DUP8 ADD CALLDATALOAD PUSH1 0x1 PUSH1 0x1 PUSH1 0x40 SHL SUB DUP2 GT ISZERO PUSH2 0x15AE JUMPI PUSH1 0x0 DUP1 REVERT JUMPDEST PUSH2 0x13F9 DUP10 DUP3 DUP11 ADD PUSH2 0x1469 JUMP JUMPDEST PUSH1 0x0 DUP1 DUP4 PUSH1 0x1F DUP5 ADD SLT PUSH2 0x15CC JUMPI PUSH1 0x0 DUP1 REVERT JUMPDEST POP DUP2 CALLDATALOAD PUSH1 0x1 PUSH1 0x1 PUSH1 0x40 SHL SUB DUP2 GT ISZERO PUSH2 0x15E3 JUMPI PUSH1 0x0 DUP1 REVERT JUMPDEST PUSH1 0x20 DUP4 ADD SWAP2 POP DUP4 PUSH1 0x20 PUSH1 0x60 DUP4 MUL DUP6 ADD ADD GT ISZERO PUSH2 0x15FE JUMPI PUSH1 0x0 DUP1 REVERT JUMPDEST SWAP3 POP SWAP3 SWAP1 POP JUMP JUMPDEST PUSH1 0x0 DUP1 DUP4 PUSH1 0x1F DUP5 ADD SLT PUSH2 0x1617 JUMPI PUSH1 0x0 DUP1 REVERT JUMPDEST POP DUP2 CALLDATALOAD PUSH1 0x1 PUSH1 0x1 PUSH1 0x40 SHL SUB DUP2 GT ISZERO PUSH2 0x162E JUMPI PUSH1 0x0 DUP1 REVERT JUMPDEST PUSH1 0x20 DUP4 ADD SWAP2 POP DUP4 PUSH1 0x20 DUP3 DUP6 ADD ADD GT ISZERO PUSH2 0x15FE JUMPI PUSH1 0x0 DUP1 REVERT JUMPDEST PUSH1 0x0 DUP1 PUSH1 0x0 DUP1 PUSH1 0x0 DUP1 PUSH1 0x0 DUP1 PUSH1 0x0 DUP1 PUSH1 0x0 PUSH1 0xC0 DUP13 DUP15 SUB SLT ISZERO PUSH2 0x1667 JUMPI PUSH1 0x0 DUP1 REVERT JUMPDEST DUP12 CALLDATALOAD PUSH1 0x1 PUSH1 0x1 PUSH1 0x40 SHL SUB DUP2 GT ISZERO PUSH2 0x167D JUMPI PUSH1 0x0 DUP1 REVERT JUMPDEST PUSH2 0x1689 DUP15 DUP3 DUP16 ADD PUSH2 0x15BA JUMP JUMPDEST SWAP1 SWAP13 POP SWAP11 POP POP PUSH1 0x20 DUP13 ADD CALLDATALOAD PUSH1 0x1 PUSH1 0x1 PUSH1 0x40 SHL SUB DUP2 GT ISZERO PUSH2 0x16A8 JUMPI PUSH1 0x0 DUP1 REVERT JUMPDEST PUSH2 0x16B4 DUP15 DUP3 DUP16 ADD PUSH2 0x15BA JUMP JUMPDEST SWAP1 SWAP11 POP SWAP9 POP POP PUSH1 0x40 DUP13 ADD CALLDATALOAD PUSH1 0x1 PUSH1 0x1 PUSH1 0x40 SHL SUB DUP2 GT ISZERO PUSH2 0x16D3 JUMPI PUSH1 0x0 DUP1 REVERT JUMPDEST PUSH2 0x16DF DUP15 DUP3 DUP16 ADD PUSH2 0x15BA JUMP JUMPDEST SWAP1 SWAP9 POP SWAP7 POP PUSH2 0x16F2 SWAP1 POP PUSH1 0x60 DUP14 ADD PUSH2 0x110D JUMP JUMPDEST SWAP5 POP PUSH1 0x80 DUP13 ADD CALLDATALOAD PUSH1 0x1 PUSH1 0x1 PUSH1 0x40 SHL SUB DUP2 GT ISZERO PUSH2 0x170D JUMPI PUSH1 0x0 DUP1 REVERT JUMPDEST PUSH2 0x1719 DUP15 DUP3 DUP16 ADD PUSH2 0x1605 JUMP JUMPDEST SWAP1 SWAP6 POP SWAP4 POP POP PUSH1 0xA0 DUP13 ADD CALLDATALOAD PUSH1 0x1 PUSH1 0x1 PUSH1 0x40 SHL SUB DUP2 GT ISZERO PUSH2 0x1738 JUMPI PUSH1 0x0 DUP1 REVERT JUMPDEST PUSH2 0x1744 DUP15 DUP3 DUP16 ADD PUSH2 0x15BA JUMP JUMPDEST SWAP2 POP DUP1 SWAP4 POP POP DUP1 SWAP2 POP POP SWAP3 SWAP6 SWAP9 SWAP12 POP SWAP3 SWAP6 SWAP9 SWAP12 SWAP1 SWAP4 SWAP7 SWAP10 POP JUMP JUMPDEST PUSH1 0x0 DUP1 DUP4 PUSH1 0x1F DUP5 ADD SLT PUSH2 0x1770 JUMPI PUSH1 0x0 DUP1 REVERT JUMPDEST POP DUP2 CALLDATALOAD PUSH1 0x1 PUSH1 0x1 PUSH1 0x40 SHL SUB DUP2 GT ISZERO PUSH2 0x1787 JUMPI PUSH1 0x0 DUP1 REVERT JUMPDEST PUSH1 0x20 DUP4 ADD SWAP2 POP DUP4 PUSH1 0x20 DUP3 PUSH1 0x5 SHL DUP6 ADD ADD GT ISZERO PUSH2 0x15FE JUMPI PUSH1 0x0 DUP1 REVERT JUMPDEST PUSH1 0x0 DUP1 PUSH1 0x0 DUP1 PUSH1 0x0 DUP1 PUSH1 0x0 DUP1 PUSH1 0x0 DUP1 PUSH1 0x0 PUSH1 0xC0 DUP13 DUP15 SUB SLT ISZERO PUSH2 0x17C3 JUMPI PUSH1 0x0 DUP1 REVERT JUMPDEST DUP12 CALLDATALOAD PUSH1 0x1 PUSH1 0x1 PUSH1 0x40 SHL SUB DUP2 GT ISZERO PUSH2 0x17D9 JUMPI PUSH1 0x0 DUP1 REVERT JUMPDEST PUSH2 0x17E5 DUP15 DUP3 DUP16 ADD PUSH2 0x175E JUMP JUMPDEST SWAP1 SWAP13 POP SWAP11 POP POP PUSH1 0x20 DUP13 ADD CALLDATALOAD PUSH1 0x1 PUSH1 0x1 PUSH1 0x40 SHL SUB DUP2 GT ISZERO PUSH2 0x1804 JUMPI PUSH1 0x0 DUP1 REVERT JUMPDEST PUSH2 0x1810 DUP15 DUP3 DUP16 ADD PUSH2 0x175E JUMP JUMPDEST SWAP1 SWAP11 POP SWAP9 POP POP PUSH1 0x40 DUP13 ADD CALLDATALOAD PUSH1 0x1 PUSH1 0x1 PUSH1 0x40 SHL SUB DUP2 GT ISZERO PUSH2 0x182F JUMPI PUSH1 0x0 DUP1 REVERT JUMPDEST PUSH2 0x183B DUP15 DUP3 DUP16 ADD PUSH2 0x175E JUMP JUMPDEST SWAP1 SWAP9 POP SWAP7 POP PUSH2 0x184E SWAP1 POP PUSH1 0x60 DUP14 ADD PUSH2 0x110D JUMP JUMPDEST SWAP5 POP PUSH1 0x80 DUP13 ADD CALLDATALOAD PUSH1 0x1 PUSH1 0x1 PUSH1 0x40 SHL SUB DUP2 GT ISZERO PUSH2 0x1869 JUMPI PUSH1 0x0 DUP1 REVERT JUMPDEST PUSH2 0x1875 DUP15 DUP3 DUP16 ADD PUSH2 0x1605 JUMP JUMPDEST SWAP1 SWAP6 POP SWAP4 POP POP PUSH1 0xA0 DUP13 ADD CALLDATALOAD PUSH1 0x1 PUSH1 0x1 PUSH1 0x40 SHL SUB DUP2 GT ISZERO PUSH2 0x1894 JUMPI PUSH1 0x0 DUP1 REVERT JUMPDEST PUSH2 0x1744 DUP15 DUP3 DUP16 ADD PUSH2 0x175E JUMP JUMPDEST PUSH4 0x4E487B71 PUSH1 0xE0 SHL PUSH1 0x0 MSTORE PUSH1 0x32 PUSH1 0x4 MSTORE PUSH1 0x24 PUSH1 0x0 REVERT JUMPDEST PUSH1 0x0 DUP3 MLOAD PUSH2 0x18C8 DUP2 DUP5 PUSH1 0x20 DUP8 ADD PUSH2 0x1406 JUMP JUMPDEST SWAP2 SWAP1 SWAP2 ADD SWAP3 SWAP2 POP POP JUMP JUMPDEST PUSH1 0x1 PUSH1 0x1 PUSH1 0xA0 SHL SUB DUP4 AND DUP2 MSTORE PUSH1 0x40 PUSH1 0x20 DUP3 ADD DUP2 SWAP1 MSTORE PUSH1 0x0 SWAP1 PUSH2 0x18F6 SWAP1 DUP4 ADD DUP5 PUSH2 0x142A JUMP JUMPDEST SWAP5 SWAP4 POP POP POP POP JUMP JUMPDEST DUP2 DUP4 DUP3 CALLDATACOPY PUSH1 0x0 SWAP2 ADD SWAP1 DUP2 MSTORE SWAP2 SWAP1 POP JUMP JUMPDEST DUP2 DUP4 MSTORE DUP2 DUP2 PUSH1 0x20 DUP6 ADD CALLDATACOPY POP PUSH1 0x0 DUP3 DUP3 ADD PUSH1 0x20 SWAP1 DUP2 ADD SWAP2 SWAP1 SWAP2 MSTORE PUSH1 0x1F SWAP1 SWAP2 ADD PUSH1 0x1F NOT AND SWAP1 SWAP2 ADD ADD SWAP1 JUMP JUMPDEST PUSH1 0x1 PUSH1 0x1 PUSH1 0xA0 SHL SUB DUP5 AND DUP2 MSTORE PUSH1 0x40 PUSH1 0x20 DUP3 ADD DUP2 SWAP1 MSTORE PUSH1 0x0 SWAP1 PUSH2 0x195C SWAP1 DUP4 ADD DUP5 DUP7 PUSH2 0x190E JUMP JUMPDEST SWAP6 SWAP5 POP POP POP POP POP JUMP JUMPDEST PUSH1 0x0 DUP3 CALLDATALOAD PUSH1 0x9E NOT DUP4 CALLDATASIZE SUB ADD DUP2 SLT PUSH2 0x18C8 JUMPI PUSH1 0x0 DUP1 REVERT JUMPDEST PUSH1 0x0 PUSH1 0x20 DUP3 DUP5 SUB SLT ISZERO PUSH2 0x198D JUMPI PUSH1 0x0 DUP1 REVERT JUMPDEST DUP2 MLOAD PUSH1 0x1 PUSH1 0x1 PUSH1 0x40 SHL SUB DUP2 GT ISZERO PUSH2 0x19A3 JUMPI PUSH1 0x0 DUP1 REVERT JUMPDEST DUP3 ADD PUSH1 0x1F DUP2 ADD DUP5 SGT PUSH2 0x19B4 JUMPI PUSH1 0x0 DUP1 REVERT JUMPDEST DUP1 MLOAD PUSH2 0x19C2 PUSH2 0x11A6 DUP3 PUSH2 0x1171 JUMP JUMPDEST DUP2 DUP2 MSTORE DUP6 PUSH1 0x20 DUP4 DUP6 ADD ADD GT ISZERO PUSH2 0x19D7 JUMPI PUSH1 0x0 DUP1 REVERT JUMPDEST PUSH2 0x195C DUP3 PUSH1 0x20 DUP4 ADD PUSH1 0x20 DUP7 ADD PUSH2 0x1406 JUMP JUMPDEST PUSH1 0x0 PUSH1 0x20 DUP3 DUP5 SUB SLT ISZERO PUSH2 0x19FA JUMPI PUSH1 0x0 DUP1 REVERT JUMPDEST DUP2 MLOAD PUSH2 0x1309 DUP2 PUSH2 0x11D6 JUMP JUMPDEST DUP1 MLOAD PUSH1 0x20 DUP1 DUP4 ADD MLOAD SWAP2 SWAP1 DUP2 LT ISZERO PUSH2 0x1A26 JUMPI PUSH1 0x0 NOT DUP2 PUSH1 0x20 SUB PUSH1 0x3 SHL SHL DUP3 AND SWAP2 POP JUMPDEST POP SWAP2 SWAP1 POP JUMP JUMPDEST PUSH1 0x1 PUSH1 0x1 PUSH1 0xA0 SHL SUB DUP7 AND DUP2 MSTORE PUSH1 0xA0 PUSH1 0x20 DUP3 ADD DUP2 SWAP1 MSTORE PUSH1 0x0 SWAP1 PUSH2 0x1A50 SWAP1 DUP4 ADD DUP8 PUSH2 0x142A JUMP JUMPDEST PUSH1 0xFF DUP7 AND PUSH1 0x40 DUP5 ADD MSTORE DUP3 DUP2 SUB PUSH1 0x60 DUP5 ADD MSTORE PUSH2 0x1A6B DUP2 DUP7 PUSH2 0x142A JUMP JUMPDEST SWAP2 POP POP PUSH1 0xFF DUP4 AND PUSH1 0x80 DUP4 ADD MSTORE SWAP7 SWAP6 POP POP POP POP POP POP JUMP JUMPDEST PUSH1 0x0 PUSH1 0x20 DUP3 DUP5 SUB SLT ISZERO PUSH2 0x1A93 JUMPI PUSH1 0x0 DUP1 REVERT JUMPDEST POP MLOAD SWAP2 SWAP1 POP JUMP JUMPDEST PUSH1 0x0 PUSH1 0x20 DUP3 DUP5 SUB SLT ISZERO PUSH2 0x1AAC JUMPI PUSH1 0x0 DUP1 REVERT JUMPDEST DUP2 MLOAD DUP1 ISZERO ISZERO DUP2 EQ PUSH2 0x1309 JUMPI PUSH1 0x0 DUP1 REVERT JUMPDEST PUSH1 0x0 PUSH1 0x20 DUP3 DUP5 SUB SLT ISZERO PUSH2 0x1ACE JUMPI PUSH1 0x0 DUP1 REVERT JUMPDEST PUSH2 0x1309 DUP3 PUSH2 0x110D JUMP JUMPDEST PUSH1 0x0 DUP1 DUP4 CALLDATALOAD PUSH1 0x1E NOT DUP5 CALLDATASIZE SUB ADD DUP2 SLT PUSH2 0x1AEE JUMPI PUSH1 0x0 DUP1 REVERT JUMPDEST DUP4 ADD DUP1 CALLDATALOAD SWAP2 POP PUSH1 0x1 PUSH1 0x1 PUSH1 0x40 SHL SUB DUP3 GT ISZERO PUSH2 0x1B08 JUMPI PUSH1 0x0 DUP1 REVERT JUMPDEST PUSH1 0x20 ADD SWAP2 POP CALLDATASIZE DUP2 SWAP1 SUB DUP3 SGT ISZERO PUSH2 0x15FE JUMPI PUSH1 0x0 DUP1 REVERT JUMPDEST PUSH1 0x0 PUSH1 0x20 DUP3 DUP5 SUB SLT ISZERO PUSH2 0x1B2F JUMPI PUSH1 0x0 DUP1 REVERT JUMPDEST DUP2 CALLDATALOAD PUSH2 0x1309 DUP2 PUSH2 0x11D6 JUMP JUMPDEST PUSH1 0x1 PUSH1 0x1 PUSH1 0xA0 SHL SUB DUP8 AND DUP2 MSTORE PUSH1 0xA0 PUSH1 0x20 DUP3 ADD DUP2 SWAP1 MSTORE PUSH1 0x0 SWAP1 PUSH2 0x1B5F SWAP1 DUP4 ADD DUP8 DUP10 PUSH2 0x190E JUMP JUMPDEST PUSH1 0xFF DUP7 AND PUSH1 0x40 DUP5 ADD MSTORE DUP3 DUP2 SUB PUSH1 0x60 DUP5 ADD MSTORE PUSH2 0x1B7A DUP2 DUP7 PUSH2 0x142A JUMP JUMPDEST SWAP2 POP POP PUSH1 0xFF DUP4 AND PUSH1 0x80 DUP4 ADD MSTORE SWAP8 SWAP7 POP POP POP POP POP POP POP JUMP INVALID LOG2 PUSH5 0x6970667358 0x22 SLT KECCAK256 SELFBALANCE AND CREATE BASEFEE 0xFB DUP8 CALLDATALOAD SWAP14 AND PUSH14 0x3E13631634555CDA68A5659BFFF2 POP 0xD BLOBBASEFEE SLOAD 0xAE 0xC3 PUSH8 0x8664736F6C634300 ADDMOD SHL STOP CALLER "
        },
        "methodIdentifiers": {
          "proxyCall((address,address,uint256)[],(address,address,uint256)[],(address,address,uint256)[],address,bytes,(address,address,uint256)[])": "51db8049",
          "proxyCallCalldata((address,address,uint256)[],(address,address,uint256)[],(address,address,uint256)[],address,bytes,(address,address,uint256)[])": "8d0a4e10",
          "proxyCallMetadata(((address,address,uint256),string,uint8)[],((address,address,uint256),string,uint8)[],((address,address,uint256),string,uint8)[],address,bytes,((address,address,uint256),string,uint8)[])": "28390a5e",
          "proxyCallMetadataCalldata(((address,address,uint256),string,uint8)[],((address,address,uint256),string,uint8)[],((address,address,uint256),string,uint8)[],address,bytes,((address,address,uint256),string,uint8)[])": "cfe74543"
        }
      },
      "userdoc": {
        "errors": {
          "CallFailed(address,bytes)": [
            {
              "notice": "Error thrown when a call fails"
            }
          ],
          "InsufficientBalance(address,address,uint256,uint256)": [
            {
              "notice": "Error thrown when a balance is insufficient"
            }
          ],
          "InvalidMetadata(address,string,uint8,string,uint8)": [
            {
              "notice": "Error thrown when metadata is invalid"
            }
          ]
        },
        "kind": "user",
        "methods": {
          "proxyCall((address,address,uint256)[],(address,address,uint256)[],(address,address,uint256)[],address,bytes,(address,address,uint256)[])": {
            "notice": "Proxy call to a target contract with specified balances and approvals"
          },
          "proxyCallCalldata((address,address,uint256)[],(address,address,uint256)[],(address,address,uint256)[],address,bytes,(address,address,uint256)[])": {
            "notice": "Calldata version of proxy call to a target contract with specified balances and approvals"
          },
          "proxyCallMetadata(((address,address,uint256),string,uint8)[],((address,address,uint256),string,uint8)[],((address,address,uint256),string,uint8)[],address,bytes,((address,address,uint256),string,uint8)[])": {
            "notice": "Proxy call to a target contract with specified balances and approvals"
          },
          "proxyCallMetadataCalldata(((address,address,uint256),string,uint8)[],((address,address,uint256),string,uint8)[],((address,address,uint256),string,uint8)[],address,bytes,((address,address,uint256),string,uint8)[])": {
            "notice": "Calldata version of proxy call to a target contract with specified balances and approvals"
          }
        },
        "notice": "Proxy contract for calling contracts with specified balances and approvals",
        "version": 1
      }
    }
  }
}