{
  "contracts/BalanceProxy.sol": {
    "BalanceProxy": {
      "abi": [
        {
          "inputs": [
            {
              "internalType": "address",
              "name": "target",
              "type": "address"
            },
            {
              "internalType": "bytes",
              "name": "data",
              "type": "bytes"
            }
          ],
          "name": "CallFailed",
          "type": "error"
        },
        {
          "inputs": [
            {
              "internalType": "address",
              "name": "token",
              "type": "address"
            },
            {
              "internalType": "address",
              "name": "target",
              "type": "address"
            },
            {
              "internalType": "uint256",
              "name": "balance",
              "type": "uint256"
            },
            {
              "internalType": "uint256",
              "name": "actual",
              "type": "uint256"
            }
          ],
          "name": "InsufficientBalance",
          "type": "error"
        },
        {
          "inputs": [
            {
              "components": [
                {
                  "internalType": "address",
                  "name": "target",
                  "type": "address"
                },
                {
                  "internalType": "address",
                  "name": "token",
                  "type": "address"
                },
                {
                  "internalType": "uint256",
                  "name": "balance",
                  "type": "uint256"
                }
              ],
              "internalType": "struct IBalanceProxy.Balance[]",
              "name": "postBalances",
              "type": "tuple[]"
            },
            {
              "components": [
                {
                  "internalType": "address",
                  "name": "target",
                  "type": "address"
                },
                {
                  "internalType": "address",
                  "name": "token",
                  "type": "address"
                },
                {
                  "internalType": "uint256",
                  "name": "balance",
                  "type": "uint256"
                }
              ],
              "internalType": "struct IBalanceProxy.Balance[]",
              "name": "preBalances",
              "type": "tuple[]"
            },
            {
              "components": [
                {
                  "internalType": "address",
                  "name": "target",
                  "type": "address"
                },
                {
                  "internalType": "address",
                  "name": "token",
                  "type": "address"
                },
                {
                  "internalType": "uint256",
                  "name": "balance",
                  "type": "uint256"
                }
              ],
              "internalType": "struct IBalanceProxy.Balance[]",
              "name": "approvals",
              "type": "tuple[]"
            },
            {
              "internalType": "address",
              "name": "target",
              "type": "address"
            },
            {
              "internalType": "bytes",
              "name": "data",
              "type": "bytes"
            },
            {
              "components": [
                {
                  "internalType": "address",
                  "name": "target",
                  "type": "address"
                },
                {
                  "internalType": "address",
                  "name": "token",
                  "type": "address"
                },
                {
                  "internalType": "uint256",
                  "name": "balance",
                  "type": "uint256"
                }
              ],
              "internalType": "struct IBalanceProxy.Balance[]",
              "name": "withdrawals",
              "type": "tuple[]"
            }
          ],
          "name": "proxyCall",
          "outputs": [
            {
              "internalType": "bytes",
              "name": "",
              "type": "bytes"
            }
          ],
          "stateMutability": "payable",
          "type": "function"
        },
        {
          "inputs": [
            {
              "components": [
                {
                  "internalType": "address",
                  "name": "target",
                  "type": "address"
                },
                {
                  "internalType": "address",
                  "name": "token",
                  "type": "address"
                },
                {
                  "internalType": "uint256",
                  "name": "balance",
                  "type": "uint256"
                }
              ],
              "internalType": "struct IBalanceProxy.Balance[]",
              "name": "postBalances",
              "type": "tuple[]"
            },
            {
              "components": [
                {
                  "internalType": "address",
                  "name": "target",
                  "type": "address"
                },
                {
                  "internalType": "address",
                  "name": "token",
                  "type": "address"
                },
                {
                  "internalType": "uint256",
                  "name": "balance",
                  "type": "uint256"
                }
              ],
              "internalType": "struct IBalanceProxy.Balance[]",
              "name": "preBalances",
              "type": "tuple[]"
            },
            {
              "components": [
                {
                  "internalType": "address",
                  "name": "target",
                  "type": "address"
                },
                {
                  "internalType": "address",
                  "name": "token",
                  "type": "address"
                },
                {
                  "internalType": "uint256",
                  "name": "balance",
                  "type": "uint256"
                }
              ],
              "internalType": "struct IBalanceProxy.Balance[]",
              "name": "approvals",
              "type": "tuple[]"
            },
            {
              "internalType": "address",
              "name": "target",
              "type": "address"
            },
            {
              "internalType": "bytes",
              "name": "data",
              "type": "bytes"
            },
            {
              "components": [
                {
                  "internalType": "address",
                  "name": "target",
                  "type": "address"
                },
                {
                  "internalType": "address",
                  "name": "token",
                  "type": "address"
                },
                {
                  "internalType": "uint256",
                  "name": "balance",
                  "type": "uint256"
                }
              ],
              "internalType": "struct IBalanceProxy.Balance[]",
              "name": "withdrawals",
              "type": "tuple[]"
            }
          ],
          "name": "proxyCallCalldata",
          "outputs": [
            {
              "internalType": "bytes",
              "name": "",
              "type": "bytes"
            }
          ],
          "stateMutability": "payable",
          "type": "function"
        },
        {
          "stateMutability": "payable",
          "type": "receive"
        }
      ],
      "devdoc": {
        "details": "This contract is used to proxy calls to a target contract with specified balances and approvals",
        "errors": {
          "CallFailed(address,bytes)": [
            {
              "params": {
                "data": "Data passed to the target contract",
                "target": "Target address"
              }
            }
          ],
          "InsufficientBalance(address,address,uint256,uint256)": [
            {
              "params": {
                "balance": "Balance",
                "target": "Target address",
                "token": "Token address"
              }
            }
          ]
        },
        "kind": "dev",
        "methods": {
          "proxyCall((address,address,uint256)[],(address,address,uint256)[],(address,address,uint256)[],address,bytes,(address,address,uint256)[])": {
            "params": {
              "approvals": "Approvals to make before the call",
              "data": "Data to pass to the target contract",
              "postBalances": "Balances to check after the call",
              "preBalances": "Balances to check before the call",
              "target": "Target contract to call",
              "withdrawals": "Withdrawals to make after the call"
            },
            "returns": {
              "_0": "Result of the call"
            }
          },
          "proxyCallCalldata((address,address,uint256)[],(address,address,uint256)[],(address,address,uint256)[],address,bytes,(address,address,uint256)[])": {
            "params": {
              "approvals": "Approvals to make before the call",
              "data": "Data to pass to the target contract",
              "postBalances": "Balances to check after the call",
              "preBalances": "Balances to check before the call",
              "target": "Target contract to call",
              "withdrawals": "Withdrawals to make after the call"
            },
            "returns": {
              "_0": "result Result of the call"
            }
          }
        },
        "title": "BalanceProxy",
        "version": 1
      },
      "evm": {
        "bytecode": {
          "linkReferences": {},
          "object": "6080604052348015600f57600080fd5b50610ec78061001f6000396000f3fe60806040526004361061002d5760003560e01c806351db8049146100395780638d0a4e101461006257600080fd5b3661003457005b600080fd5b61004c610047366004610a89565b610075565b6040516100599190610bcf565b60405180910390f35b61004c610070366004610c75565b6101e8565b606060005b86518110156100ad576100a587828151811061009857610098610d8d565b6020026020010151610351565b60010161007a565b5060005b85518110156100e4576100dc8682815181106100cf576100cf610d8d565b6020026020010151610442565b6001016100b1565b600080866001600160a01b031634876040516101009190610da3565b60006040518083038185875af1925050503d806000811461013d576040519150601f19603f3d011682016040523d82523d6000602084013e610142565b606091505b509150915081610172578686604051636c544f3360e01b8152600401610169929190610dbf565b60405180910390fd5b600092505b84518310156101ad576101a285848151811061019557610195610d8d565b602002602001015161055c565b600190920191610177565b600092505b89518310156101db576101d08a848151811061009857610098610d8d565b6001909201916101b2565b9998505050505050505050565b606060005b8981101561021d576102158b8b8381811061020a5761020a610d8d565b9050606002016105ed565b6001016101ed565b5060005b878110156102515761024989898381811061023e5761023e610d8d565b905060600201610727565b600101610221565b600080886001600160a01b031634898960405161026f929190610deb565b60006040518083038185875af1925050503d80600081146102ac576040519150601f19603f3d011682016040523d82523d6000602084013e6102b1565b606091505b5091509150816102da57888888604051636c544f3360e01b815260040161016993929190610dfb565b600092505b84831015610312576103078686858181106102fc576102fc610d8d565b905060600201610837565b6001909201916102df565b600092505b8d83101561033f576103348f8f8581811061020a5761020a610d8d565b600190920191610317565b9e9d5050505050505050505050505050565b60208101516000906001600160a01b0316156103dd57602082015182516040516370a0823160e01b81526001600160a01b0391821660048201529116906370a0823190602401602060405180830381865afa1580156103b4573d6000803e3d6000fd5b505050506040513d601f19601f820116820180604052508101906103d89190610e3b565b6103ea565b81516001600160a01b0316315b9050816040015181101561043e5760208201518251604080850151905163861da4bd60e01b81526001600160a01b039384166004820152929091166024830152604482015260648101829052608401610169565b5050565b60208101516001600160a01b03166104575750565b602081015160408083015190516323b872dd60e01b815233600482015230602482015260448101919091526001600160a01b03909116906323b872dd906064016020604051808303816000875af11580156104b6573d6000803e3d6000fd5b505050506040513d601f19601f820116820180604052508101906104da9190610e54565b5060208101518151604080840151905163095ea7b360e01b81526001600160a01b039283166004820152602481019190915291169063095ea7b3906044015b6020604051808303816000875af1158015610538573d6000803e3d6000fd5b505050506040513d601f19601f8201168201806040525081019061043e9190610e54565b60208101516001600160a01b03166105ab57805160408083015190516001600160a01b039092169181156108fc0291906000818181858888f1935050505015801561043e573d6000803e3d6000fd5b60208101518151604080840151905163a9059cbb60e01b81526001600160a01b039283166004820152602481019190915291169063a9059cbb90604401610519565b6000806106006040840160208501610e76565b6001600160a01b0316146106a65761061e6040830160208401610e76565b6001600160a01b03166370a082316106396020850185610e76565b6040516001600160e01b031960e084901b1681526001600160a01b039091166004820152602401602060405180830381865afa15801561067d573d6000803e3d6000fd5b505050506040513d601f19601f820116820180604052508101906106a19190610e3b565b6106be565b6106b36020830183610e76565b6001600160a01b0316315b9050816040013581101561043e576106dc6040830160208401610e76565b6106e96020840184610e76565b6040805163861da4bd60e01b81526001600160a01b039384166004820152929091166024830152830135604482015260648101829052608401610169565b60006107396040830160208401610e76565b6001600160a01b03160361074a5750565b61075a6040820160208301610e76565b604080516323b872dd60e01b81523360048201523060248201529083013560448201526001600160a01b0391909116906323b872dd906064016020604051808303816000875af11580156107b2573d6000803e3d6000fd5b505050506040513d601f19601f820116820180604052508101906107d69190610e54565b506107e76040820160208301610e76565b6001600160a01b031663095ea7b36108026020840184610e76565b604080516001600160e01b031960e085901b1681526001600160a01b0390921660048301528401356024820152604401610519565b60006108496040830160208401610e76565b6001600160a01b0316036108a0576108646020820182610e76565b6001600160a01b03166108fc82604001359081150290604051600060405180830381858888f1935050505015801561043e573d6000803e3d6000fd5b6108b06040820160208301610e76565b6001600160a01b031663a9059cbb6108026020840184610e76565b634e487b7160e01b600052604160045260246000fd5b604051606081016001600160401b0381118282101715610903576109036108cb565b60405290565b604051601f8201601f191681016001600160401b0381118282101715610931576109316108cb565b604052919050565b80356001600160a01b038116811461095057600080fd5b919050565b600082601f83011261096657600080fd5b81356001600160401b0381111561097f5761097f6108cb565b61098e60208260051b01610909565b808282526020820191506020606084028601019250858311156109b057600080fd5b602085015b83811015610a1057606081880312156109cd57600080fd5b6109d56108e1565b6109de82610939565b81526109ec60208301610939565b602082015260408201356040820152808452506020830192506060810190506109b5565b5095945050505050565b600082601f830112610a2b57600080fd5b81356001600160401b03811115610a4457610a446108cb565b610a57601f8201601f1916602001610909565b818152846020838601011115610a6c57600080fd5b816020850160208301376000918101602001919091529392505050565b60008060008060008060c08789031215610aa257600080fd5b86356001600160401b03811115610ab857600080fd5b610ac489828a01610955565b96505060208701356001600160401b03811115610ae057600080fd5b610aec89828a01610955565b95505060408701356001600160401b03811115610b0857600080fd5b610b1489828a01610955565b945050610b2360608801610939565b925060808701356001600160401b03811115610b3e57600080fd5b610b4a89828a01610a1a565b92505060a08701356001600160401b03811115610b6657600080fd5b610b7289828a01610955565b9150509295509295509295565b60005b83811015610b9a578181015183820152602001610b82565b50506000910152565b60008151808452610bbb816020860160208601610b7f565b601f01601f19169290920160200192915050565b602081526000610be26020830184610ba3565b9392505050565b60008083601f840112610bfb57600080fd5b5081356001600160401b03811115610c1257600080fd5b602083019150836020606083028501011115610c2d57600080fd5b9250929050565b60008083601f840112610c4657600080fd5b5081356001600160401b03811115610c5d57600080fd5b602083019150836020828501011115610c2d57600080fd5b600080600080600080600080600080600060c08c8e031215610c9657600080fd5b8b356001600160401b03811115610cac57600080fd5b610cb88e828f01610be9565b909c509a505060208c01356001600160401b03811115610cd757600080fd5b610ce38e828f01610be9565b909a5098505060408c01356001600160401b03811115610d0257600080fd5b610d0e8e828f01610be9565b9098509650610d21905060608d01610939565b945060808c01356001600160401b03811115610d3c57600080fd5b610d488e828f01610c34565b90955093505060a08c01356001600160401b03811115610d6757600080fd5b610d738e828f01610be9565b915080935050809150509295989b509295989b9093969950565b634e487b7160e01b600052603260045260246000fd5b60008251610db5818460208701610b7f565b9190910192915050565b6001600160a01b0383168152604060208201819052600090610de390830184610ba3565b949350505050565b8183823760009101908152919050565b6001600160a01b03841681526040602082018190528101829052818360608301376000818301606090810191909152601f909201601f1916010192915050565b600060208284031215610e4d57600080fd5b5051919050565b600060208284031215610e6657600080fd5b81518015158114610be257600080fd5b600060208284031215610e8857600080fd5b610be28261093956fea2646970667358221220e5cf1bc14279cba8075710cbceba4a7c36d995e9c8b7ae0b2ab1cd3669aacf4c64736f6c634300081b0033",
          "opcodes": "PUSH1 0x80 PUSH1 0x40 MSTORE CALLVALUE DUP1 ISZERO PUSH1 0xF JUMPI PUSH1 0x0 DUP1 REVERT JUMPDEST POP PUSH2 0xEC7 DUP1 PUSH2 0x1F PUSH1 0x0 CODECOPY PUSH1 0x0 RETURN INVALID PUSH1 0x80 PUSH1 0x40 MSTORE PUSH1 0x4 CALLDATASIZE LT PUSH2 0x2D JUMPI PUSH1 0x0 CALLDATALOAD PUSH1 0xE0 SHR DUP1 PUSH4 0x51DB8049 EQ PUSH2 0x39 JUMPI DUP1 PUSH4 0x8D0A4E10 EQ PUSH2 0x62 JUMPI PUSH1 0x0 DUP1 REVERT JUMPDEST CALLDATASIZE PUSH2 0x34 JUMPI STOP JUMPDEST PUSH1 0x0 DUP1 REVERT JUMPDEST PUSH2 0x4C PUSH2 0x47 CALLDATASIZE PUSH1 0x4 PUSH2 0xA89 JUMP JUMPDEST PUSH2 0x75 JUMP JUMPDEST PUSH1 0x40 MLOAD PUSH2 0x59 SWAP2 SWAP1 PUSH2 0xBCF JUMP JUMPDEST PUSH1 0x40 MLOAD DUP1 SWAP2 SUB SWAP1 RETURN JUMPDEST PUSH2 0x4C PUSH2 0x70 CALLDATASIZE PUSH1 0x4 PUSH2 0xC75 JUMP JUMPDEST PUSH2 0x1E8 JUMP JUMPDEST PUSH1 0x60 PUSH1 0x0 JUMPDEST DUP7 MLOAD DUP2 LT ISZERO PUSH2 0xAD JUMPI PUSH2 0xA5 DUP8 DUP3 DUP2 MLOAD DUP2 LT PUSH2 0x98 JUMPI PUSH2 0x98 PUSH2 0xD8D JUMP JUMPDEST PUSH1 0x20 MUL PUSH1 0x20 ADD ADD MLOAD PUSH2 0x351 JUMP JUMPDEST PUSH1 0x1 ADD PUSH2 0x7A JUMP JUMPDEST POP PUSH1 0x0 JUMPDEST DUP6 MLOAD DUP2 LT ISZERO PUSH2 0xE4 JUMPI PUSH2 0xDC DUP7 DUP3 DUP2 MLOAD DUP2 LT PUSH2 0xCF JUMPI PUSH2 0xCF PUSH2 0xD8D JUMP JUMPDEST PUSH1 0x20 MUL PUSH1 0x20 ADD ADD MLOAD PUSH2 0x442 JUMP JUMPDEST PUSH1 0x1 ADD PUSH2 0xB1 JUMP JUMPDEST PUSH1 0x0 DUP1 DUP7 PUSH1 0x1 PUSH1 0x1 PUSH1 0xA0 SHL SUB AND CALLVALUE DUP8 PUSH1 0x40 MLOAD PUSH2 0x100 SWAP2 SWAP1 PUSH2 0xDA3 JUMP JUMPDEST PUSH1 0x0 PUSH1 0x40 MLOAD DUP1 DUP4 SUB DUP2 DUP6 DUP8 GAS CALL SWAP3 POP POP POP RETURNDATASIZE DUP1 PUSH1 0x0 DUP2 EQ PUSH2 0x13D JUMPI PUSH1 0x40 MLOAD SWAP2 POP PUSH1 0x1F NOT PUSH1 0x3F RETURNDATASIZE ADD AND DUP3 ADD PUSH1 0x40 MSTORE RETURNDATASIZE DUP3 MSTORE RETURNDATASIZE PUSH1 0x0 PUSH1 0x20 DUP5 ADD RETURNDATACOPY PUSH2 0x142 JUMP JUMPDEST PUSH1 0x60 SWAP2 POP JUMPDEST POP SWAP2 POP SWAP2 POP DUP2 PUSH2 0x172 JUMPI DUP7 DUP7 PUSH1 0x40 MLOAD PUSH4 0x6C544F33 PUSH1 0xE0 SHL DUP2 MSTORE PUSH1 0x4 ADD PUSH2 0x169 SWAP3 SWAP2 SWAP1 PUSH2 0xDBF JUMP JUMPDEST PUSH1 0x40 MLOAD DUP1 SWAP2 SUB SWAP1 REVERT JUMPDEST PUSH1 0x0 SWAP3 POP JUMPDEST DUP5 MLOAD DUP4 LT ISZERO PUSH2 0x1AD JUMPI PUSH2 0x1A2 DUP6 DUP5 DUP2 MLOAD DUP2 LT PUSH2 0x195 JUMPI PUSH2 0x195 PUSH2 0xD8D JUMP JUMPDEST PUSH1 0x20 MUL PUSH1 0x20 ADD ADD MLOAD PUSH2 0x55C JUMP JUMPDEST PUSH1 0x1 SWAP1 SWAP3 ADD SWAP2 PUSH2 0x177 JUMP JUMPDEST PUSH1 0x0 SWAP3 POP JUMPDEST DUP10 MLOAD DUP4 LT ISZERO PUSH2 0x1DB JUMPI PUSH2 0x1D0 DUP11 DUP5 DUP2 MLOAD DUP2 LT PUSH2 0x98 JUMPI PUSH2 0x98 PUSH2 0xD8D JUMP JUMPDEST PUSH1 0x1 SWAP1 SWAP3 ADD SWAP2 PUSH2 0x1B2 JUMP JUMPDEST SWAP10 SWAP9 POP POP POP POP POP POP POP POP POP JUMP JUMPDEST PUSH1 0x60 PUSH1 0x0 JUMPDEST DUP10 DUP2 LT ISZERO PUSH2 0x21D JUMPI PUSH2 0x215 DUP12 DUP12 DUP4 DUP2 DUP2 LT PUSH2 0x20A JUMPI PUSH2 0x20A PUSH2 0xD8D JUMP JUMPDEST SWAP1 POP PUSH1 0x60 MUL ADD PUSH2 0x5ED JUMP JUMPDEST PUSH1 0x1 ADD PUSH2 0x1ED JUMP JUMPDEST POP PUSH1 0x0 JUMPDEST DUP8 DUP2 LT ISZERO PUSH2 0x251 JUMPI PUSH2 0x249 DUP10 DUP10 DUP4 DUP2 DUP2 LT PUSH2 0x23E JUMPI PUSH2 0x23E PUSH2 0xD8D JUMP JUMPDEST SWAP1 POP PUSH1 0x60 MUL ADD PUSH2 0x727 JUMP JUMPDEST PUSH1 0x1 ADD PUSH2 0x221 JUMP JUMPDEST PUSH1 0x0 DUP1 DUP9 PUSH1 0x1 PUSH1 0x1 PUSH1 0xA0 SHL SUB AND CALLVALUE DUP10 DUP10 PUSH1 0x40 MLOAD PUSH2 0x26F SWAP3 SWAP2 SWAP1 PUSH2 0xDEB JUMP JUMPDEST PUSH1 0x0 PUSH1 0x40 MLOAD DUP1 DUP4 SUB DUP2 DUP6 DUP8 GAS CALL SWAP3 POP POP POP RETURNDATASIZE DUP1 PUSH1 0x0 DUP2 EQ PUSH2 0x2AC JUMPI PUSH1 0x40 MLOAD SWAP2 POP PUSH1 0x1F NOT PUSH1 0x3F RETURNDATASIZE ADD AND DUP3 ADD PUSH1 0x40 MSTORE RETURNDATASIZE DUP3 MSTORE RETURNDATASIZE PUSH1 0x0 PUSH1 0x20 DUP5 ADD RETURNDATACOPY PUSH2 0x2B1 JUMP JUMPDEST PUSH1 0x60 SWAP2 POP JUMPDEST POP SWAP2 POP SWAP2 POP DUP2 PUSH2 0x2DA JUMPI DUP9 DUP9 DUP9 PUSH1 0x40 MLOAD PUSH4 0x6C544F33 PUSH1 0xE0 SHL DUP2 MSTORE PUSH1 0x4 ADD PUSH2 0x169 SWAP4 SWAP3 SWAP2 SWAP1 PUSH2 0xDFB JUMP JUMPDEST PUSH1 0x0 SWAP3 POP JUMPDEST DUP5 DUP4 LT ISZERO PUSH2 0x312 JUMPI PUSH2 0x307 DUP7 DUP7 DUP6 DUP2 DUP2 LT PUSH2 0x2FC JUMPI PUSH2 0x2FC PUSH2 0xD8D JUMP JUMPDEST SWAP1 POP PUSH1 0x60 MUL ADD PUSH2 0x837 JUMP JUMPDEST PUSH1 0x1 SWAP1 SWAP3 ADD SWAP2 PUSH2 0x2DF JUMP JUMPDEST PUSH1 0x0 SWAP3 POP JUMPDEST DUP14 DUP4 LT ISZERO PUSH2 0x33F JUMPI PUSH2 0x334 DUP16 DUP16 DUP6 DUP2 DUP2 LT PUSH2 0x20A JUMPI PUSH2 0x20A PUSH2 0xD8D JUMP JUMPDEST PUSH1 0x1 SWAP1 SWAP3 ADD SWAP2 PUSH2 0x317 JUMP JUMPDEST SWAP15 SWAP14 POP POP POP POP POP POP POP POP POP POP POP POP POP POP JUMP JUMPDEST PUSH1 0x20 DUP2 ADD MLOAD PUSH1 0x0 SWAP1 PUSH1 0x1 PUSH1 0x1 PUSH1 0xA0 SHL SUB AND ISZERO PUSH2 0x3DD JUMPI PUSH1 0x20 DUP3 ADD MLOAD DUP3 MLOAD PUSH1 0x40 MLOAD PUSH4 0x70A08231 PUSH1 0xE0 SHL DUP2 MSTORE PUSH1 0x1 PUSH1 0x1 PUSH1 0xA0 SHL SUB SWAP2 DUP3 AND PUSH1 0x4 DUP3 ADD MSTORE SWAP2 AND SWAP1 PUSH4 0x70A08231 SWAP1 PUSH1 0x24 ADD PUSH1 0x20 PUSH1 0x40 MLOAD DUP1 DUP4 SUB DUP2 DUP7 GAS STATICCALL ISZERO DUP1 ISZERO PUSH2 0x3B4 JUMPI RETURNDATASIZE PUSH1 0x0 DUP1 RETURNDATACOPY RETURNDATASIZE PUSH1 0x0 REVERT JUMPDEST POP POP POP POP PUSH1 0x40 MLOAD RETURNDATASIZE PUSH1 0x1F NOT PUSH1 0x1F DUP3 ADD AND DUP3 ADD DUP1 PUSH1 0x40 MSTORE POP DUP2 ADD SWAP1 PUSH2 0x3D8 SWAP2 SWAP1 PUSH2 0xE3B JUMP JUMPDEST PUSH2 0x3EA JUMP JUMPDEST DUP2 MLOAD PUSH1 0x1 PUSH1 0x1 PUSH1 0xA0 SHL SUB AND BALANCE JUMPDEST SWAP1 POP DUP2 PUSH1 0x40 ADD MLOAD DUP2 LT ISZERO PUSH2 0x43E JUMPI PUSH1 0x20 DUP3 ADD MLOAD DUP3 MLOAD PUSH1 0x40 DUP1 DUP6 ADD MLOAD SWAP1 MLOAD PUSH4 0x861DA4BD PUSH1 0xE0 SHL DUP2 MSTORE PUSH1 0x1 PUSH1 0x1 PUSH1 0xA0 SHL SUB SWAP4 DUP5 AND PUSH1 0x4 DUP3 ADD MSTORE SWAP3 SWAP1 SWAP2 AND PUSH1 0x24 DUP4 ADD MSTORE PUSH1 0x44 DUP3 ADD MSTORE PUSH1 0x64 DUP2 ADD DUP3 SWAP1 MSTORE PUSH1 0x84 ADD PUSH2 0x169 JUMP JUMPDEST POP POP JUMP JUMPDEST PUSH1 0x20 DUP2 ADD MLOAD PUSH1 0x1 PUSH1 0x1 PUSH1 0xA0 SHL SUB AND PUSH2 0x457 JUMPI POP JUMP JUMPDEST PUSH1 0x20 DUP2 ADD MLOAD PUSH1 0x40 DUP1 DUP4 ADD MLOAD SWAP1 MLOAD PUSH4 0x23B872DD PUSH1 0xE0 SHL DUP2 MSTORE CALLER PUSH1 0x4 DUP3 ADD MSTORE ADDRESS PUSH1 0x24 DUP3 ADD MSTORE PUSH1 0x44 DUP2 ADD SWAP2 SWAP1 SWAP2 MSTORE PUSH1 0x1 PUSH1 0x1 PUSH1 0xA0 SHL SUB SWAP1 SWAP2 AND SWAP1 PUSH4 0x23B872DD SWAP1 PUSH1 0x64 ADD PUSH1 0x20 PUSH1 0x40 MLOAD DUP1 DUP4 SUB DUP2 PUSH1 0x0 DUP8 GAS CALL ISZERO DUP1 ISZERO PUSH2 0x4B6 JUMPI RETURNDATASIZE PUSH1 0x0 DUP1 RETURNDATACOPY RETURNDATASIZE PUSH1 0x0 REVERT JUMPDEST POP POP POP POP PUSH1 0x40 MLOAD RETURNDATASIZE PUSH1 0x1F NOT PUSH1 0x1F DUP3 ADD AND DUP3 ADD DUP1 PUSH1 0x40 MSTORE POP DUP2 ADD SWAP1 PUSH2 0x4DA SWAP2 SWAP1 PUSH2 0xE54 JUMP JUMPDEST POP PUSH1 0x20 DUP2 ADD MLOAD DUP2 MLOAD PUSH1 0x40 DUP1 DUP5 ADD MLOAD SWAP1 MLOAD PUSH4 0x95EA7B3 PUSH1 0xE0 SHL DUP2 MSTORE PUSH1 0x1 PUSH1 0x1 PUSH1 0xA0 SHL SUB SWAP3 DUP4 AND PUSH1 0x4 DUP3 ADD MSTORE PUSH1 0x24 DUP2 ADD SWAP2 SWAP1 SWAP2 MSTORE SWAP2 AND SWAP1 PUSH4 0x95EA7B3 SWAP1 PUSH1 0x44 ADD JUMPDEST PUSH1 0x20 PUSH1 0x40 MLOAD DUP1 DUP4 SUB DUP2 PUSH1 0x0 DUP8 GAS CALL ISZERO DUP1 ISZERO PUSH2 0x538 JUMPI RETURNDATASIZE PUSH1 0x0 DUP1 RETURNDATACOPY RETURNDATASIZE PUSH1 0x0 REVERT JUMPDEST POP POP POP POP PUSH1 0x40 MLOAD RETURNDATASIZE PUSH1 0x1F NOT PUSH1 0x1F DUP3 ADD AND DUP3 ADD DUP1 PUSH1 0x40 MSTORE POP DUP2 ADD SWAP1 PUSH2 0x43E SWAP2 SWAP1 PUSH2 0xE54 JUMP JUMPDEST PUSH1 0x20 DUP2 ADD MLOAD PUSH1 0x1 PUSH1 0x1 PUSH1 0xA0 SHL SUB AND PUSH2 0x5AB JUMPI DUP1 MLOAD PUSH1 0x40 DUP1 DUP4 ADD MLOAD SWAP1 MLOAD PUSH1 0x1 PUSH1 0x1 PUSH1 0xA0 SHL SUB SWAP1 SWAP3 AND SWAP2 DUP2 ISZERO PUSH2 0x8FC MUL SWAP2 SWAP1 PUSH1 0x0 DUP2 DUP2 DUP2 DUP6 DUP9 DUP9 CALL SWAP4 POP POP POP POP ISZERO DUP1 ISZERO PUSH2 0x43E JUMPI RETURNDATASIZE PUSH1 0x0 DUP1 RETURNDATACOPY RETURNDATASIZE PUSH1 0x0 REVERT JUMPDEST PUSH1 0x20 DUP2 ADD MLOAD DUP2 MLOAD PUSH1 0x40 DUP1 DUP5 ADD MLOAD SWAP1 MLOAD PUSH4 0xA9059CBB PUSH1 0xE0 SHL DUP2 MSTORE PUSH1 0x1 PUSH1 0x1 PUSH1 0xA0 SHL SUB SWAP3 DUP4 AND PUSH1 0x4 DUP3 ADD MSTORE PUSH1 0x24 DUP2 ADD SWAP2 SWAP1 SWAP2 MSTORE SWAP2 AND SWAP1 PUSH4 0xA9059CBB SWAP1 PUSH1 0x44 ADD PUSH2 0x519 JUMP JUMPDEST PUSH1 0x0 DUP1 PUSH2 0x600 PUSH1 0x40 DUP5 ADD PUSH1 0x20 DUP6 ADD PUSH2 0xE76 JUMP JUMPDEST PUSH1 0x1 PUSH1 0x1 PUSH1 0xA0 SHL SUB AND EQ PUSH2 0x6A6 JUMPI PUSH2 0x61E PUSH1 0x40 DUP4 ADD PUSH1 0x20 DUP5 ADD PUSH2 0xE76 JUMP JUMPDEST PUSH1 0x1 PUSH1 0x1 PUSH1 0xA0 SHL SUB AND PUSH4 0x70A08231 PUSH2 0x639 PUSH1 0x20 DUP6 ADD DUP6 PUSH2 0xE76 JUMP JUMPDEST PUSH1 0x40 MLOAD PUSH1 0x1 PUSH1 0x1 PUSH1 0xE0 SHL SUB NOT PUSH1 0xE0 DUP5 SWAP1 SHL AND DUP2 MSTORE PUSH1 0x1 PUSH1 0x1 PUSH1 0xA0 SHL SUB SWAP1 SWAP2 AND PUSH1 0x4 DUP3 ADD MSTORE PUSH1 0x24 ADD PUSH1 0x20 PUSH1 0x40 MLOAD DUP1 DUP4 SUB DUP2 DUP7 GAS STATICCALL ISZERO DUP1 ISZERO PUSH2 0x67D JUMPI RETURNDATASIZE PUSH1 0x0 DUP1 RETURNDATACOPY RETURNDATASIZE PUSH1 0x0 REVERT JUMPDEST POP POP POP POP PUSH1 0x40 MLOAD RETURNDATASIZE PUSH1 0x1F NOT PUSH1 0x1F DUP3 ADD AND DUP3 ADD DUP1 PUSH1 0x40 MSTORE POP DUP2 ADD SWAP1 PUSH2 0x6A1 SWAP2 SWAP1 PUSH2 0xE3B JUMP JUMPDEST PUSH2 0x6BE JUMP JUMPDEST PUSH2 0x6B3 PUSH1 0x20 DUP4 ADD DUP4 PUSH2 0xE76 JUMP JUMPDEST PUSH1 0x1 PUSH1 0x1 PUSH1 0xA0 SHL SUB AND BALANCE JUMPDEST SWAP1 POP DUP2 PUSH1 0x40 ADD CALLDATALOAD DUP2 LT ISZERO PUSH2 0x43E JUMPI PUSH2 0x6DC PUSH1 0x40 DUP4 ADD PUSH1 0x20 DUP5 ADD PUSH2 0xE76 JUMP JUMPDEST PUSH2 0x6E9 PUSH1 0x20 DUP5 ADD DUP5 PUSH2 0xE76 JUMP JUMPDEST PUSH1 0x40 DUP1 MLOAD PUSH4 0x861DA4BD PUSH1 0xE0 SHL DUP2 MSTORE PUSH1 0x1 PUSH1 0x1 PUSH1 0xA0 SHL SUB SWAP4 DUP5 AND PUSH1 0x4 DUP3 ADD MSTORE SWAP3 SWAP1 SWAP2 AND PUSH1 0x24 DUP4 ADD MSTORE DUP4 ADD CALLDATALOAD PUSH1 0x44 DUP3 ADD MSTORE PUSH1 0x64 DUP2 ADD DUP3 SWAP1 MSTORE PUSH1 0x84 ADD PUSH2 0x169 JUMP JUMPDEST PUSH1 0x0 PUSH2 0x739 PUSH1 0x40 DUP4 ADD PUSH1 0x20 DUP5 ADD PUSH2 0xE76 JUMP JUMPDEST PUSH1 0x1 PUSH1 0x1 PUSH1 0xA0 SHL SUB AND SUB PUSH2 0x74A JUMPI POP JUMP JUMPDEST PUSH2 0x75A PUSH1 0x40 DUP3 ADD PUSH1 0x20 DUP4 ADD PUSH2 0xE76 JUMP JUMPDEST PUSH1 0x40 DUP1 MLOAD PUSH4 0x23B872DD PUSH1 0xE0 SHL DUP2 MSTORE CALLER PUSH1 0x4 DUP3 ADD MSTORE ADDRESS PUSH1 0x24 DUP3 ADD MSTORE SWAP1 DUP4 ADD CALLDATALOAD PUSH1 0x44 DUP3 ADD MSTORE PUSH1 0x1 PUSH1 0x1 PUSH1 0xA0 SHL SUB SWAP2 SWAP1 SWAP2 AND SWAP1 PUSH4 0x23B872DD SWAP1 PUSH1 0x64 ADD PUSH1 0x20 PUSH1 0x40 MLOAD DUP1 DUP4 SUB DUP2 PUSH1 0x0 DUP8 GAS CALL ISZERO DUP1 ISZERO PUSH2 0x7B2 JUMPI RETURNDATASIZE PUSH1 0x0 DUP1 RETURNDATACOPY RETURNDATASIZE PUSH1 0x0 REVERT JUMPDEST POP POP POP POP PUSH1 0x40 MLOAD RETURNDATASIZE PUSH1 0x1F NOT PUSH1 0x1F DUP3 ADD AND DUP3 ADD DUP1 PUSH1 0x40 MSTORE POP DUP2 ADD SWAP1 PUSH2 0x7D6 SWAP2 SWAP1 PUSH2 0xE54 JUMP JUMPDEST POP PUSH2 0x7E7 PUSH1 0x40 DUP3 ADD PUSH1 0x20 DUP4 ADD PUSH2 0xE76 JUMP JUMPDEST PUSH1 0x1 PUSH1 0x1 PUSH1 0xA0 SHL SUB AND PUSH4 0x95EA7B3 PUSH2 0x802 PUSH1 0x20 DUP5 ADD DUP5 PUSH2 0xE76 JUMP JUMPDEST PUSH1 0x40 DUP1 MLOAD PUSH1 0x1 PUSH1 0x1 PUSH1 0xE0 SHL SUB NOT PUSH1 0xE0 DUP6 SWAP1 SHL AND DUP2 MSTORE PUSH1 0x1 PUSH1 0x1 PUSH1 0xA0 SHL SUB SWAP1 SWAP3 AND PUSH1 0x4 DUP4 ADD MSTORE DUP5 ADD CALLDATALOAD PUSH1 0x24 DUP3 ADD MSTORE PUSH1 0x44 ADD PUSH2 0x519 JUMP JUMPDEST PUSH1 0x0 PUSH2 0x849 PUSH1 0x40 DUP4 ADD PUSH1 0x20 DUP5 ADD PUSH2 0xE76 JUMP JUMPDEST PUSH1 0x1 PUSH1 0x1 PUSH1 0xA0 SHL SUB AND SUB PUSH2 0x8A0 JUMPI PUSH2 0x864 PUSH1 0x20 DUP3 ADD DUP3 PUSH2 0xE76 JUMP JUMPDEST PUSH1 0x1 PUSH1 0x1 PUSH1 0xA0 SHL SUB AND PUSH2 0x8FC DUP3 PUSH1 0x40 ADD CALLDATALOAD SWAP1 DUP2 ISZERO MUL SWAP1 PUSH1 0x40 MLOAD PUSH1 0x0 PUSH1 0x40 MLOAD DUP1 DUP4 SUB DUP2 DUP6 DUP9 DUP9 CALL SWAP4 POP POP POP POP ISZERO DUP1 ISZERO PUSH2 0x43E JUMPI RETURNDATASIZE PUSH1 0x0 DUP1 RETURNDATACOPY RETURNDATASIZE PUSH1 0x0 REVERT JUMPDEST PUSH2 0x8B0 PUSH1 0x40 DUP3 ADD PUSH1 0x20 DUP4 ADD PUSH2 0xE76 JUMP JUMPDEST PUSH1 0x1 PUSH1 0x1 PUSH1 0xA0 SHL SUB AND PUSH4 0xA9059CBB PUSH2 0x802 PUSH1 0x20 DUP5 ADD DUP5 PUSH2 0xE76 JUMP JUMPDEST PUSH4 0x4E487B71 PUSH1 0xE0 SHL PUSH1 0x0 MSTORE PUSH1 0x41 PUSH1 0x4 MSTORE PUSH1 0x24 PUSH1 0x0 REVERT JUMPDEST PUSH1 0x40 MLOAD PUSH1 0x60 DUP2 ADD PUSH1 0x1 PUSH1 0x1 PUSH1 0x40 SHL SUB DUP2 GT DUP3 DUP3 LT OR ISZERO PUSH2 0x903 JUMPI PUSH2 0x903 PUSH2 0x8CB JUMP JUMPDEST PUSH1 0x40 MSTORE SWAP1 JUMP JUMPDEST PUSH1 0x40 MLOAD PUSH1 0x1F DUP3 ADD PUSH1 0x1F NOT AND DUP2 ADD PUSH1 0x1 PUSH1 0x1 PUSH1 0x40 SHL SUB DUP2 GT DUP3 DUP3 LT OR ISZERO PUSH2 0x931 JUMPI PUSH2 0x931 PUSH2 0x8CB JUMP JUMPDEST PUSH1 0x40 MSTORE SWAP2 SWAP1 POP JUMP JUMPDEST DUP1 CALLDATALOAD PUSH1 0x1 PUSH1 0x1 PUSH1 0xA0 SHL SUB DUP2 AND DUP2 EQ PUSH2 0x950 JUMPI PUSH1 0x0 DUP1 REVERT JUMPDEST SWAP2 SWAP1 POP JUMP JUMPDEST PUSH1 0x0 DUP3 PUSH1 0x1F DUP4 ADD SLT PUSH2 0x966 JUMPI PUSH1 0x0 DUP1 REVERT JUMPDEST DUP2 CALLDATALOAD PUSH1 0x1 PUSH1 0x1 PUSH1 0x40 SHL SUB DUP2 GT ISZERO PUSH2 0x97F JUMPI PUSH2 0x97F PUSH2 0x8CB JUMP JUMPDEST PUSH2 0x98E PUSH1 0x20 DUP3 PUSH1 0x5 SHL ADD PUSH2 0x909 JUMP JUMPDEST DUP1 DUP3 DUP3 MSTORE PUSH1 0x20 DUP3 ADD SWAP2 POP PUSH1 0x20 PUSH1 0x60 DUP5 MUL DUP7 ADD ADD SWAP3 POP DUP6 DUP4 GT ISZERO PUSH2 0x9B0 JUMPI PUSH1 0x0 DUP1 REVERT JUMPDEST PUSH1 0x20 DUP6 ADD JUMPDEST DUP4 DUP2 LT ISZERO PUSH2 0xA10 JUMPI PUSH1 0x60 DUP2 DUP9 SUB SLT ISZERO PUSH2 0x9CD JUMPI PUSH1 0x0 DUP1 REVERT JUMPDEST PUSH2 0x9D5 PUSH2 0x8E1 JUMP JUMPDEST PUSH2 0x9DE DUP3 PUSH2 0x939 JUMP JUMPDEST DUP2 MSTORE PUSH2 0x9EC PUSH1 0x20 DUP4 ADD PUSH2 0x939 JUMP JUMPDEST PUSH1 0x20 DUP3 ADD MSTORE PUSH1 0x40 DUP3 ADD CALLDATALOAD PUSH1 0x40 DUP3 ADD MSTORE DUP1 DUP5 MSTORE POP PUSH1 0x20 DUP4 ADD SWAP3 POP PUSH1 0x60 DUP2 ADD SWAP1 POP PUSH2 0x9B5 JUMP JUMPDEST POP SWAP6 SWAP5 POP POP POP POP POP JUMP JUMPDEST PUSH1 0x0 DUP3 PUSH1 0x1F DUP4 ADD SLT PUSH2 0xA2B JUMPI PUSH1 0x0 DUP1 REVERT JUMPDEST DUP2 CALLDATALOAD PUSH1 0x1 PUSH1 0x1 PUSH1 0x40 SHL SUB DUP2 GT ISZERO PUSH2 0xA44 JUMPI PUSH2 0xA44 PUSH2 0x8CB JUMP JUMPDEST PUSH2 0xA57 PUSH1 0x1F DUP3 ADD PUSH1 0x1F NOT AND PUSH1 0x20 ADD PUSH2 0x909 JUMP JUMPDEST DUP2 DUP2 MSTORE DUP5 PUSH1 0x20 DUP4 DUP7 ADD ADD GT ISZERO PUSH2 0xA6C JUMPI PUSH1 0x0 DUP1 REVERT JUMPDEST DUP2 PUSH1 0x20 DUP6 ADD PUSH1 0x20 DUP4 ADD CALLDATACOPY PUSH1 0x0 SWAP2 DUP2 ADD PUSH1 0x20 ADD SWAP2 SWAP1 SWAP2 MSTORE SWAP4 SWAP3 POP POP POP JUMP JUMPDEST PUSH1 0x0 DUP1 PUSH1 0x0 DUP1 PUSH1 0x0 DUP1 PUSH1 0xC0 DUP8 DUP10 SUB SLT ISZERO PUSH2 0xAA2 JUMPI PUSH1 0x0 DUP1 REVERT JUMPDEST DUP7 CALLDATALOAD PUSH1 0x1 PUSH1 0x1 PUSH1 0x40 SHL SUB DUP2 GT ISZERO PUSH2 0xAB8 JUMPI PUSH1 0x0 DUP1 REVERT JUMPDEST PUSH2 0xAC4 DUP10 DUP3 DUP11 ADD PUSH2 0x955 JUMP JUMPDEST SWAP7 POP POP PUSH1 0x20 DUP8 ADD CALLDATALOAD PUSH1 0x1 PUSH1 0x1 PUSH1 0x40 SHL SUB DUP2 GT ISZERO PUSH2 0xAE0 JUMPI PUSH1 0x0 DUP1 REVERT JUMPDEST PUSH2 0xAEC DUP10 DUP3 DUP11 ADD PUSH2 0x955 JUMP JUMPDEST SWAP6 POP POP PUSH1 0x40 DUP8 ADD CALLDATALOAD PUSH1 0x1 PUSH1 0x1 PUSH1 0x40 SHL SUB DUP2 GT ISZERO PUSH2 0xB08 JUMPI PUSH1 0x0 DUP1 REVERT JUMPDEST PUSH2 0xB14 DUP10 DUP3 DUP11 ADD PUSH2 0x955 JUMP JUMPDEST SWAP5 POP POP PUSH2 0xB23 PUSH1 0x60 DUP9 ADD PUSH2 0x939 JUMP JUMPDEST SWAP3 POP PUSH1 0x80 DUP8 ADD CALLDATALOAD PUSH1 0x1 PUSH1 0x1 PUSH1 0x40 SHL SUB DUP2 GT ISZERO PUSH2 0xB3E JUMPI PUSH1 0x0 DUP1 REVERT JUMPDEST PUSH2 0xB4A DUP10 DUP3 DUP11 ADD PUSH2 0xA1A JUMP JUMPDEST SWAP3 POP POP PUSH1 0xA0 DUP8 ADD CALLDATALOAD PUSH1 0x1 PUSH1 0x1 PUSH1 0x40 SHL SUB DUP2 GT ISZERO PUSH2 0xB66 JUMPI PUSH1 0x0 DUP1 REVERT JUMPDEST PUSH2 0xB72 DUP10 DUP3 DUP11 ADD PUSH2 0x955 JUMP JUMPDEST SWAP2 POP POP SWAP3 SWAP6 POP SWAP3 SWAP6 POP SWAP3 SWAP6 JUMP JUMPDEST PUSH1 0x0 JUMPDEST DUP4 DUP2 LT ISZERO PUSH2 0xB9A JUMPI DUP2 DUP2 ADD MLOAD DUP4 DUP3 ADD MSTORE PUSH1 0x20 ADD PUSH2 0xB82 JUMP JUMPDEST POP POP PUSH1 0x0 SWAP2 ADD MSTORE JUMP JUMPDEST PUSH1 0x0 DUP2 MLOAD DUP1 DUP5 MSTORE PUSH2 0xBBB DUP2 PUSH1 0x20 DUP7 ADD PUSH1 0x20 DUP7 ADD PUSH2 0xB7F JUMP JUMPDEST PUSH1 0x1F ADD PUSH1 0x1F NOT AND SWAP3 SWAP1 SWAP3 ADD PUSH1 0x20 ADD SWAP3 SWAP2 POP POP JUMP JUMPDEST PUSH1 0x20 DUP2 MSTORE PUSH1 0x0 PUSH2 0xBE2 PUSH1 0x20 DUP4 ADD DUP5 PUSH2 0xBA3 JUMP JUMPDEST SWAP4 SWAP3 POP POP POP JUMP JUMPDEST PUSH1 0x0 DUP1 DUP4 PUSH1 0x1F DUP5 ADD SLT PUSH2 0xBFB JUMPI PUSH1 0x0 DUP1 REVERT JUMPDEST POP DUP2 CALLDATALOAD PUSH1 0x1 PUSH1 0x1 PUSH1 0x40 SHL SUB DUP2 GT ISZERO PUSH2 0xC12 JUMPI PUSH1 0x0 DUP1 REVERT JUMPDEST PUSH1 0x20 DUP4 ADD SWAP2 POP DUP4 PUSH1 0x20 PUSH1 0x60 DUP4 MUL DUP6 ADD ADD GT ISZERO PUSH2 0xC2D JUMPI PUSH1 0x0 DUP1 REVERT JUMPDEST SWAP3 POP SWAP3 SWAP1 POP JUMP JUMPDEST PUSH1 0x0 DUP1 DUP4 PUSH1 0x1F DUP5 ADD SLT PUSH2 0xC46 JUMPI PUSH1 0x0 DUP1 REVERT JUMPDEST POP DUP2 CALLDATALOAD PUSH1 0x1 PUSH1 0x1 PUSH1 0x40 SHL SUB DUP2 GT ISZERO PUSH2 0xC5D JUMPI PUSH1 0x0 DUP1 REVERT JUMPDEST PUSH1 0x20 DUP4 ADD SWAP2 POP DUP4 PUSH1 0x20 DUP3 DUP6 ADD ADD GT ISZERO PUSH2 0xC2D JUMPI PUSH1 0x0 DUP1 REVERT JUMPDEST PUSH1 0x0 DUP1 PUSH1 0x0 DUP1 PUSH1 0x0 DUP1 PUSH1 0x0 DUP1 PUSH1 0x0 DUP1 PUSH1 0x0 PUSH1 0xC0 DUP13 DUP15 SUB SLT ISZERO PUSH2 0xC96 JUMPI PUSH1 0x0 DUP1 REVERT JUMPDEST DUP12 CALLDATALOAD PUSH1 0x1 PUSH1 0x1 PUSH1 0x40 SHL SUB DUP2 GT ISZERO PUSH2 0xCAC JUMPI PUSH1 0x0 DUP1 REVERT JUMPDEST PUSH2 0xCB8 DUP15 DUP3 DUP16 ADD PUSH2 0xBE9 JUMP JUMPDEST SWAP1 SWAP13 POP SWAP11 POP POP PUSH1 0x20 DUP13 ADD CALLDATALOAD PUSH1 0x1 PUSH1 0x1 PUSH1 0x40 SHL SUB DUP2 GT ISZERO PUSH2 0xCD7 JUMPI PUSH1 0x0 DUP1 REVERT JUMPDEST PUSH2 0xCE3 DUP15 DUP3 DUP16 ADD PUSH2 0xBE9 JUMP JUMPDEST SWAP1 SWAP11 POP SWAP9 POP POP PUSH1 0x40 DUP13 ADD CALLDATALOAD PUSH1 0x1 PUSH1 0x1 PUSH1 0x40 SHL SUB DUP2 GT ISZERO PUSH2 0xD02 JUMPI PUSH1 0x0 DUP1 REVERT JUMPDEST PUSH2 0xD0E DUP15 DUP3 DUP16 ADD PUSH2 0xBE9 JUMP JUMPDEST SWAP1 SWAP9 POP SWAP7 POP PUSH2 0xD21 SWAP1 POP PUSH1 0x60 DUP14 ADD PUSH2 0x939 JUMP JUMPDEST SWAP5 POP PUSH1 0x80 DUP13 ADD CALLDATALOAD PUSH1 0x1 PUSH1 0x1 PUSH1 0x40 SHL SUB DUP2 GT ISZERO PUSH2 0xD3C JUMPI PUSH1 0x0 DUP1 REVERT JUMPDEST PUSH2 0xD48 DUP15 DUP3 DUP16 ADD PUSH2 0xC34 JUMP JUMPDEST SWAP1 SWAP6 POP SWAP4 POP POP PUSH1 0xA0 DUP13 ADD CALLDATALOAD PUSH1 0x1 PUSH1 0x1 PUSH1 0x40 SHL SUB DUP2 GT ISZERO PUSH2 0xD67 JUMPI PUSH1 0x0 DUP1 REVERT JUMPDEST PUSH2 0xD73 DUP15 DUP3 DUP16 ADD PUSH2 0xBE9 JUMP JUMPDEST SWAP2 POP DUP1 SWAP4 POP POP DUP1 SWAP2 POP POP SWAP3 SWAP6 SWAP9 SWAP12 POP SWAP3 SWAP6 SWAP9 SWAP12 SWAP1 SWAP4 SWAP7 SWAP10 POP JUMP JUMPDEST PUSH4 0x4E487B71 PUSH1 0xE0 SHL PUSH1 0x0 MSTORE PUSH1 0x32 PUSH1 0x4 MSTORE PUSH1 0x24 PUSH1 0x0 REVERT JUMPDEST PUSH1 0x0 DUP3 MLOAD PUSH2 0xDB5 DUP2 DUP5 PUSH1 0x20 DUP8 ADD PUSH2 0xB7F JUMP JUMPDEST SWAP2 SWAP1 SWAP2 ADD SWAP3 SWAP2 POP POP JUMP JUMPDEST PUSH1 0x1 PUSH1 0x1 PUSH1 0xA0 SHL SUB DUP4 AND DUP2 MSTORE PUSH1 0x40 PUSH1 0x20 DUP3 ADD DUP2 SWAP1 MSTORE PUSH1 0x0 SWAP1 PUSH2 0xDE3 SWAP1 DUP4 ADD DUP5 PUSH2 0xBA3 JUMP JUMPDEST SWAP5 SWAP4 POP POP POP POP JUMP JUMPDEST DUP2 DUP4 DUP3 CALLDATACOPY PUSH1 0x0 SWAP2 ADD SWAP1 DUP2 MSTORE SWAP2 SWAP1 POP JUMP JUMPDEST PUSH1 0x1 PUSH1 0x1 PUSH1 0xA0 SHL SUB DUP5 AND DUP2 MSTORE PUSH1 0x40 PUSH1 0x20 DUP3 ADD DUP2 SWAP1 MSTORE DUP2 ADD DUP3 SWAP1 MSTORE DUP2 DUP4 PUSH1 0x60 DUP4 ADD CALLDATACOPY PUSH1 0x0 DUP2 DUP4 ADD PUSH1 0x60 SWAP1 DUP2 ADD SWAP2 SWAP1 SWAP2 MSTORE PUSH1 0x1F SWAP1 SWAP3 ADD PUSH1 0x1F NOT AND ADD ADD SWAP3 SWAP2 POP POP JUMP JUMPDEST PUSH1 0x0 PUSH1 0x20 DUP3 DUP5 SUB SLT ISZERO PUSH2 0xE4D JUMPI PUSH1 0x0 DUP1 REVERT JUMPDEST POP MLOAD SWAP2 SWAP1 POP JUMP JUMPDEST PUSH1 0x0 PUSH1 0x20 DUP3 DUP5 SUB SLT ISZERO PUSH2 0xE66 JUMPI PUSH1 0x0 DUP1 REVERT JUMPDEST DUP2 MLOAD DUP1 ISZERO ISZERO DUP2 EQ PUSH2 0xBE2 JUMPI PUSH1 0x0 DUP1 REVERT JUMPDEST PUSH1 0x0 PUSH1 0x20 DUP3 DUP5 SUB SLT ISZERO PUSH2 0xE88 JUMPI PUSH1 0x0 DUP1 REVERT JUMPDEST PUSH2 0xBE2 DUP3 PUSH2 0x939 JUMP INVALID LOG2 PUSH5 0x6970667358 0x22 SLT KECCAK256 0xE5 0xCF SHL 0xC1 TIMESTAMP PUSH26 0xCBA8075710CBCEBA4A7C36D995E9C8B7AE0B2AB1CD3669AACF4C PUSH5 0x736F6C6343 STOP ADDMOD SHL STOP CALLER "
        },
        "methodIdentifiers": {
          "proxyCall((address,address,uint256)[],(address,address,uint256)[],(address,address,uint256)[],address,bytes,(address,address,uint256)[])": "51db8049",
          "proxyCallCalldata((address,address,uint256)[],(address,address,uint256)[],(address,address,uint256)[],address,bytes,(address,address,uint256)[])": "8d0a4e10"
        }
      },
      "userdoc": {
        "errors": {
          "CallFailed(address,bytes)": [
            {
              "notice": "Error thrown when a call fails"
            }
          ],
          "InsufficientBalance(address,address,uint256,uint256)": [
            {
              "notice": "Error thrown when a balance is insufficient"
            }
          ]
        },
        "kind": "user",
        "methods": {
          "proxyCall((address,address,uint256)[],(address,address,uint256)[],(address,address,uint256)[],address,bytes,(address,address,uint256)[])": {
            "notice": "Proxy call to a target contract with specified balances and approvals"
          },
          "proxyCallCalldata((address,address,uint256)[],(address,address,uint256)[],(address,address,uint256)[],address,bytes,(address,address,uint256)[])": {
            "notice": "Calldata version of proxy call to a target contract with specified balances and approvals"
          }
        },
        "notice": "Proxy contract for calling contracts with specified balances and approvals",
        "version": 1
      }
    }
  }
}