{
  "contracts/mocks/TargetMock.sol": {
    "TargetMock": {
      "abi": [
        {
          "inputs": [
            {
              "internalType": "address",
              "name": "_erc20",
              "type": "address"
            }
          ],
          "stateMutability": "nonpayable",
          "type": "constructor"
        },
        {
          "inputs": [],
          "name": "erc20",
          "outputs": [
            {
              "internalType": "contract ERC20Mock",
              "name": "",
              "type": "address"
            }
          ],
          "stateMutability": "view",
          "type": "function"
        },
        {
          "inputs": [
            {
              "internalType": "uint256",
              "name": "take",
              "type": "uint256"
            },
            {
              "internalType": "uint256",
              "name": "give",
              "type": "uint256"
            }
          ],
          "name": "mint",
          "outputs": [],
          "stateMutability": "nonpayable",
          "type": "function"
        },
        {
          "inputs": [
            {
              "internalType": "uint256",
              "name": "take",
              "type": "uint256"
            },
            {
              "internalType": "uint256",
              "name": "give",
              "type": "uint256"
            }
          ],
          "name": "mintEth",
          "outputs": [],
          "stateMutability": "nonpayable",
          "type": "function"
        },
        {
          "stateMutability": "payable",
          "type": "receive"
        }
      ],
      "devdoc": {
        "kind": "dev",
        "methods": {},
        "version": 1
      },
      "evm": {
        "bytecode": {
          "linkReferences": {},
          "object": "6080604052348015600f57600080fd5b50604051610362380380610362833981016040819052602c916050565b600080546001600160a01b0319166001600160a01b0392909216919091179055607e565b600060208284031215606157600080fd5b81516001600160a01b0381168114607757600080fd5b9392505050565b6102d58061008d6000396000f3fe6080604052600436106100385760003560e01c80631b2ef1ca14610044578063785e9e8614610066578063aafe1a22146100a257600080fd5b3661003f57005b600080fd5b34801561005057600080fd5b5061006461005f366004610254565b6100c2565b005b34801561007257600080fd5b50600054610086906001600160a01b031681565b6040516001600160a01b03909116815260200160405180910390f35b3480156100ae57600080fd5b506100646100bd366004610254565b6101a6565b6000546040516323b872dd60e01b8152336004820152306024820152604481018490526001600160a01b03909116906323b872dd906064016020604051808303816000875af1158015610119573d6000803e3d6000fd5b505050506040513d601f19601f8201168201806040525081019061013d9190610276565b506000546040516340c10f1960e01b8152336004820152602481018390526001600160a01b03909116906340c10f1990604401600060405180830381600087803b15801561018a57600080fd5b505af115801561019e573d6000803e3d6000fd5b505050505050565b6000546040516323b872dd60e01b8152336004820152306024820152604481018490526001600160a01b03909116906323b872dd906064016020604051808303816000875af11580156101fd573d6000803e3d6000fd5b505050506040513d601f19601f820116820180604052508101906102219190610276565b50604051339082156108fc029083906000818181858888f1935050505015801561024f573d6000803e3d6000fd5b505050565b6000806040838503121561026757600080fd5b50508035926020909101359150565b60006020828403121561028857600080fd5b8151801515811461029857600080fd5b939250505056fea2646970667358221220936d0b6640b8341cccbd2ce7395b41dcb8e688cebd7cd7b4632303477b1b259d64736f6c634300081b0033",
          "opcodes": "PUSH1 0x80 PUSH1 0x40 MSTORE CALLVALUE DUP1 ISZERO PUSH1 0xF JUMPI PUSH1 0x0 DUP1 REVERT JUMPDEST POP PUSH1 0x40 MLOAD PUSH2 0x362 CODESIZE SUB DUP1 PUSH2 0x362 DUP4 CODECOPY DUP2 ADD PUSH1 0x40 DUP2 SWAP1 MSTORE PUSH1 0x2C SWAP2 PUSH1 0x50 JUMP JUMPDEST PUSH1 0x0 DUP1 SLOAD PUSH1 0x1 PUSH1 0x1 PUSH1 0xA0 SHL SUB NOT AND PUSH1 0x1 PUSH1 0x1 PUSH1 0xA0 SHL SUB SWAP3 SWAP1 SWAP3 AND SWAP2 SWAP1 SWAP2 OR SWAP1 SSTORE PUSH1 0x7E JUMP JUMPDEST PUSH1 0x0 PUSH1 0x20 DUP3 DUP5 SUB SLT ISZERO PUSH1 0x61 JUMPI PUSH1 0x0 DUP1 REVERT JUMPDEST DUP2 MLOAD PUSH1 0x1 PUSH1 0x1 PUSH1 0xA0 SHL SUB DUP2 AND DUP2 EQ PUSH1 0x77 JUMPI PUSH1 0x0 DUP1 REVERT JUMPDEST SWAP4 SWAP3 POP POP POP JUMP JUMPDEST PUSH2 0x2D5 DUP1 PUSH2 0x8D PUSH1 0x0 CODECOPY PUSH1 0x0 RETURN INVALID PUSH1 0x80 PUSH1 0x40 MSTORE PUSH1 0x4 CALLDATASIZE LT PUSH2 0x38 JUMPI PUSH1 0x0 CALLDATALOAD PUSH1 0xE0 SHR DUP1 PUSH4 0x1B2EF1CA EQ PUSH2 0x44 JUMPI DUP1 PUSH4 0x785E9E86 EQ PUSH2 0x66 JUMPI DUP1 PUSH4 0xAAFE1A22 EQ PUSH2 0xA2 JUMPI PUSH1 0x0 DUP1 REVERT JUMPDEST CALLDATASIZE PUSH2 0x3F JUMPI STOP JUMPDEST PUSH1 0x0 DUP1 REVERT JUMPDEST CALLVALUE DUP1 ISZERO PUSH2 0x50 JUMPI PUSH1 0x0 DUP1 REVERT JUMPDEST POP PUSH2 0x64 PUSH2 0x5F CALLDATASIZE PUSH1 0x4 PUSH2 0x254 JUMP JUMPDEST PUSH2 0xC2 JUMP JUMPDEST STOP JUMPDEST CALLVALUE DUP1 ISZERO PUSH2 0x72 JUMPI PUSH1 0x0 DUP1 REVERT JUMPDEST POP PUSH1 0x0 SLOAD PUSH2 0x86 SWAP1 PUSH1 0x1 PUSH1 0x1 PUSH1 0xA0 SHL SUB AND DUP2 JUMP JUMPDEST PUSH1 0x40 MLOAD PUSH1 0x1 PUSH1 0x1 PUSH1 0xA0 SHL SUB SWAP1 SWAP2 AND DUP2 MSTORE PUSH1 0x20 ADD PUSH1 0x40 MLOAD DUP1 SWAP2 SUB SWAP1 RETURN JUMPDEST CALLVALUE DUP1 ISZERO PUSH2 0xAE JUMPI PUSH1 0x0 DUP1 REVERT JUMPDEST POP PUSH2 0x64 PUSH2 0xBD CALLDATASIZE PUSH1 0x4 PUSH2 0x254 JUMP JUMPDEST PUSH2 0x1A6 JUMP JUMPDEST PUSH1 0x0 SLOAD PUSH1 0x40 MLOAD PUSH4 0x23B872DD PUSH1 0xE0 SHL DUP2 MSTORE CALLER PUSH1 0x4 DUP3 ADD MSTORE ADDRESS PUSH1 0x24 DUP3 ADD MSTORE PUSH1 0x44 DUP2 ADD DUP5 SWAP1 MSTORE PUSH1 0x1 PUSH1 0x1 PUSH1 0xA0 SHL SUB SWAP1 SWAP2 AND SWAP1 PUSH4 0x23B872DD SWAP1 PUSH1 0x64 ADD PUSH1 0x20 PUSH1 0x40 MLOAD DUP1 DUP4 SUB DUP2 PUSH1 0x0 DUP8 GAS CALL ISZERO DUP1 ISZERO PUSH2 0x119 JUMPI RETURNDATASIZE PUSH1 0x0 DUP1 RETURNDATACOPY RETURNDATASIZE PUSH1 0x0 REVERT JUMPDEST POP POP POP POP PUSH1 0x40 MLOAD RETURNDATASIZE PUSH1 0x1F NOT PUSH1 0x1F DUP3 ADD AND DUP3 ADD DUP1 PUSH1 0x40 MSTORE POP DUP2 ADD SWAP1 PUSH2 0x13D SWAP2 SWAP1 PUSH2 0x276 JUMP JUMPDEST POP PUSH1 0x0 SLOAD PUSH1 0x40 MLOAD PUSH4 0x40C10F19 PUSH1 0xE0 SHL DUP2 MSTORE CALLER PUSH1 0x4 DUP3 ADD MSTORE PUSH1 0x24 DUP2 ADD DUP4 SWAP1 MSTORE PUSH1 0x1 PUSH1 0x1 PUSH1 0xA0 SHL SUB SWAP1 SWAP2 AND SWAP1 PUSH4 0x40C10F19 SWAP1 PUSH1 0x44 ADD PUSH1 0x0 PUSH1 0x40 MLOAD DUP1 DUP4 SUB DUP2 PUSH1 0x0 DUP8 DUP1 EXTCODESIZE ISZERO DUP1 ISZERO PUSH2 0x18A JUMPI PUSH1 0x0 DUP1 REVERT JUMPDEST POP GAS CALL ISZERO DUP1 ISZERO PUSH2 0x19E JUMPI RETURNDATASIZE PUSH1 0x0 DUP1 RETURNDATACOPY RETURNDATASIZE PUSH1 0x0 REVERT JUMPDEST POP POP POP POP POP POP JUMP JUMPDEST PUSH1 0x0 SLOAD PUSH1 0x40 MLOAD PUSH4 0x23B872DD PUSH1 0xE0 SHL DUP2 MSTORE CALLER PUSH1 0x4 DUP3 ADD MSTORE ADDRESS PUSH1 0x24 DUP3 ADD MSTORE PUSH1 0x44 DUP2 ADD DUP5 SWAP1 MSTORE PUSH1 0x1 PUSH1 0x1 PUSH1 0xA0 SHL SUB SWAP1 SWAP2 AND SWAP1 PUSH4 0x23B872DD SWAP1 PUSH1 0x64 ADD PUSH1 0x20 PUSH1 0x40 MLOAD DUP1 DUP4 SUB DUP2 PUSH1 0x0 DUP8 GAS CALL ISZERO DUP1 ISZERO PUSH2 0x1FD JUMPI RETURNDATASIZE PUSH1 0x0 DUP1 RETURNDATACOPY RETURNDATASIZE PUSH1 0x0 REVERT JUMPDEST POP POP POP POP PUSH1 0x40 MLOAD RETURNDATASIZE PUSH1 0x1F NOT PUSH1 0x1F DUP3 ADD AND DUP3 ADD DUP1 PUSH1 0x40 MSTORE POP DUP2 ADD SWAP1 PUSH2 0x221 SWAP2 SWAP1 PUSH2 0x276 JUMP JUMPDEST POP PUSH1 0x40 MLOAD CALLER SWAP1 DUP3 ISZERO PUSH2 0x8FC MUL SWAP1 DUP4 SWAP1 PUSH1 0x0 DUP2 DUP2 DUP2 DUP6 DUP9 DUP9 CALL SWAP4 POP POP POP POP ISZERO DUP1 ISZERO PUSH2 0x24F JUMPI RETURNDATASIZE PUSH1 0x0 DUP1 RETURNDATACOPY RETURNDATASIZE PUSH1 0x0 REVERT JUMPDEST POP POP POP JUMP JUMPDEST PUSH1 0x0 DUP1 PUSH1 0x40 DUP4 DUP6 SUB SLT ISZERO PUSH2 0x267 JUMPI PUSH1 0x0 DUP1 REVERT JUMPDEST POP POP DUP1 CALLDATALOAD SWAP3 PUSH1 0x20 SWAP1 SWAP2 ADD CALLDATALOAD SWAP2 POP JUMP JUMPDEST PUSH1 0x0 PUSH1 0x20 DUP3 DUP5 SUB SLT ISZERO PUSH2 0x288 JUMPI PUSH1 0x0 DUP1 REVERT JUMPDEST DUP2 MLOAD DUP1 ISZERO ISZERO DUP2 EQ PUSH2 0x298 JUMPI PUSH1 0x0 DUP1 REVERT JUMPDEST SWAP4 SWAP3 POP POP POP JUMP INVALID LOG2 PUSH5 0x6970667358 0x22 SLT KECCAK256 SWAP4 PUSH14 0xB6640B8341CCCBD2CE7395B41DC 0xB8 0xE6 DUP9 0xCE 0xBD PUSH29 0xD7B4632303477B1B259D64736F6C634300081B00330000000000000000 "
        },
        "methodIdentifiers": {
          "erc20()": "785e9e86",
          "mint(uint256,uint256)": "1b2ef1ca",
          "mintEth(uint256,uint256)": "aafe1a22"
        }
      },
      "userdoc": {
        "kind": "user",
        "methods": {},
        "version": 1
      }
    }
  }
}