{
  "_format": "hh-sol-artifact-1",
  "contractName": "ApproveRouter",
  "sourceName": "contracts/ApproveRouter.sol",
  "abi": [
    {
      "inputs": [
        {
          "internalType": "contract IBalanceProxy",
          "name": "balanceProxy",
          "type": "address"
        },
        {
          "components": [
            {
              "internalType": "address",
              "name": "target",
              "type": "address"
            },
            {
              "internalType": "address",
              "name": "token",
              "type": "address"
            },
            {
              "internalType": "int256",
              "name": "balance",
              "type": "int256"
            }
          ],
          "internalType": "struct IBalanceProxy.Balance[]",
          "name": "postBalances",
          "type": "tuple[]"
        },
        {
          "components": [
            {
              "components": [
                {
                  "internalType": "address",
                  "name": "target",
                  "type": "address"
                },
                {
                  "internalType": "address",
                  "name": "token",
                  "type": "address"
                },
                {
                  "internalType": "int256",
                  "name": "balance",
                  "type": "int256"
                }
              ],
              "internalType": "struct IBalanceProxy.Balance",
              "name": "balance",
              "type": "tuple"
            },
            {
              "internalType": "bool",
              "name": "useTransfer",
              "type": "bool"
            }
          ],
          "internalType": "struct IBalanceProxy.Approval[]",
          "name": "approvals",
          "type": "tuple[]"
        },
        {
          "internalType": "address",
          "name": "target",
          "type": "address"
        },
        {
          "internalType": "bytes",
          "name": "data",
          "type": "bytes"
        },
        {
          "components": [
            {
              "internalType": "address",
              "name": "target",
              "type": "address"
            },
            {
              "internalType": "address",
              "name": "token",
              "type": "address"
            },
            {
              "internalType": "int256",
              "name": "balance",
              "type": "int256"
            }
          ],
          "internalType": "struct IBalanceProxy.Balance[]",
          "name": "withdrawals",
          "type": "tuple[]"
        }
      ],
      "name": "approveProxyCall",
      "outputs": [
        {
          "internalType": "bytes",
          "name": "",
          "type": "bytes"
        }
      ],
      "stateMutability": "payable",
      "type": "function"
    },
    {
      "inputs": [
        {
          "internalType": "contract IBalanceProxy",
          "name": "balanceProxy",
          "type": "address"
        },
        {
          "components": [
            {
              "internalType": "address",
              "name": "target",
              "type": "address"
            },
            {
              "internalType": "address",
              "name": "token",
              "type": "address"
            },
            {
              "internalType": "int256",
              "name": "balance",
              "type": "int256"
            }
          ],
          "internalType": "struct IBalanceProxy.Balance[]",
          "name": "diffs",
          "type": "tuple[]"
        },
        {
          "components": [
            {
              "components": [
                {
                  "internalType": "address",
                  "name": "target",
                  "type": "address"
                },
                {
                  "internalType": "address",
                  "name": "token",
                  "type": "address"
                },
                {
                  "internalType": "int256",
                  "name": "balance",
                  "type": "int256"
                }
              ],
              "internalType": "struct IBalanceProxy.Balance",
              "name": "balance",
              "type": "tuple"
            },
            {
              "internalType": "bool",
              "name": "useTransfer",
              "type": "bool"
            }
          ],
          "internalType": "struct IBalanceProxy.Approval[]",
          "name": "approvals",
          "type": "tuple[]"
        },
        {
          "internalType": "address",
          "name": "target",
          "type": "address"
        },
        {
          "internalType": "bytes",
          "name": "data",
          "type": "bytes"
        },
        {
          "components": [
            {
              "internalType": "address",
              "name": "target",
              "type": "address"
            },
            {
              "internalType": "address",
              "name": "token",
              "type": "address"
            },
            {
              "internalType": "int256",
              "name": "balance",
              "type": "int256"
            }
          ],
          "internalType": "struct IBalanceProxy.Balance[]",
          "name": "withdrawals",
          "type": "tuple[]"
        }
      ],
      "name": "approveProxyCallDiffs",
      "outputs": [
        {
          "internalType": "bytes",
          "name": "",
          "type": "bytes"
        }
      ],
      "stateMutability": "payable",
      "type": "function"
    }
  ],
  "bytecode": "0x6080806040523460155761072a908161001b8239f35b600080fdfe6080604052600436101561001257600080fd5b60003560e01c8063c6707270146101855763e5d77b3c1461003257600080fd5b61003b3661035d565b929492936001600160a01b039093169290919060005b8651811015610109578060206100b561006c6000948b610533565b51516040808201519184015190516323b872dd60e01b81523360048201526001600160a01b038b8116602483015260448201939093529586939190921691839182906064820190565b03925af19182156100fd576001926100cf575b5001610051565b6100ef9060203d81116100f6575b6100e7818361021f565b81019061055d565b50386100c8565b503d6100dd565b6040513d6000823e3d90fd5b50928560009394610131876040519788968795869563ce9506f960e01b875260048701610636565b039134905af180156100fd5761015e91600091610162575b5060405191829160208352602083019061050e565b0390f35b61017f91503d806000833e610177818361021f565b810190610575565b82610149565b61018e3661035d565b929492936001600160a01b039093169290919060005b86518110156101f7578060206101bf61006c6000948b610533565b03925af19182156100fd576001926101d9575b50016101a4565b6101f09060203d81116100f6576100e7818361021f565b50886101d2565b50928560009394610131876040519788968795869563890e3add60e01b875260048701610636565b90601f8019910116810190811067ffffffffffffffff82111761024157604052565b634e487b7160e01b600052604160045260246000fd5b67ffffffffffffffff81116102415760051b60200190565b35906001600160a01b038216820361028357565b600080fd5b9190826060910312610283576040516060810181811067ffffffffffffffff8211176102415760405260408082946102bf8161026f565b84526102cd6020820161026f565b60208501520135910152565b81601f820112156102835780356102ef81610257565b926102fd604051948561021f565b8184526020606081860193028401019281841161028357602001915b838310610327575050505090565b60206060916103368486610288565b815201920191610319565b67ffffffffffffffff811161024157601f01601f191660200190565b9060c0600319830112610283576004356001600160a01b0381168103610283579160243567ffffffffffffffff8111610283578161039d916004016102d9565b9160443567ffffffffffffffff81116102835782602382011215610283578060040135906103ca82610257565b916103d8604051938461021f565b8083526024602084019160071b8301019185831161028357602401905b828210610493575091939150506064356001600160a01b0381168103610283579160843567ffffffffffffffff8111610283578260238201121561028357806004013561044181610341565b9161044f604051938461021f565b8183528460248383010111610283578160009260246020930183860137830101529160a4359067ffffffffffffffff821161028357610490916004016102d9565b90565b60808287031261028357604051906040820182811067ffffffffffffffff821117610241576040526104c58784610288565b8252606083013590811515820361028357826020928360809501528152019101906103f5565b60005b8381106104fe5750506000910152565b81810151838201526020016104ee565b90602091610527815180928185528580860191016104eb565b601f01601f1916010190565b80518210156105475760209160051b010190565b634e487b7160e01b600052603260045260246000fd5b90816020910312610283575180151581036102835790565b6020818303126102835780519067ffffffffffffffff8211610283570181601f820112156102835780516105a881610341565b926105b6604051948561021f565b818452602082840101116102835761049091602080850191016104eb565b906020808351928381520192019060005b8181106105f25750505090565b909192602060608261062b60019488516040809160018060a01b03815116845260018060a01b0360208201511660208501520151910152565b0194019291016105e5565b93919594929061064e9060a0865260a08601906105d4565b84810360208601526020808851928381520197019060005b8181106106a4575050506001600160a01b031660408401528285036060840152929361049093610696919061050e565b9160808184039101526105d4565b90919760206080600192828c516106e08382516040809160018060a01b03815116845260018060a01b0360208201511660208501520151910152565b01511515606082015201990192910161066656fea2646970667358221220182f5140abb644879debc7d6fb18189731a4f1f2422042428810d9df0a1bdff264736f6c634300081b0033",
  "linkReferences": {},
  "deployedLinkReferences": {}
}