{
  "_format": "hh-sol-artifact-1",
  "contractName": "PermitRouter",
  "sourceName": "contracts/PermitRouter.sol",
  "abi": [
    {
      "inputs": [
        {
          "internalType": "uint256",
          "name": "permitsLength",
          "type": "uint256"
        },
        {
          "internalType": "uint256",
          "name": "approvalsLength",
          "type": "uint256"
        }
      ],
      "name": "PermitsLengthMismatch",
      "type": "error"
    },
    {
      "inputs": [
        {
          "internalType": "contract IBalanceProxy",
          "name": "balanceProxy",
          "type": "address"
        },
        {
          "components": [
            {
              "internalType": "address",
              "name": "target",
              "type": "address"
            },
            {
              "internalType": "address",
              "name": "token",
              "type": "address"
            },
            {
              "internalType": "int256",
              "name": "balance",
              "type": "int256"
            }
          ],
          "internalType": "struct IBalanceProxy.Balance[]",
          "name": "postBalances",
          "type": "tuple[]"
        },
        {
          "components": [
            {
              "components": [
                {
                  "internalType": "address",
                  "name": "target",
                  "type": "address"
                },
                {
                  "internalType": "address",
                  "name": "token",
                  "type": "address"
                },
                {
                  "internalType": "int256",
                  "name": "balance",
                  "type": "int256"
                }
              ],
              "internalType": "struct IBalanceProxy.Balance",
              "name": "balance",
              "type": "tuple"
            },
            {
              "internalType": "bool",
              "name": "useTransfer",
              "type": "bool"
            }
          ],
          "internalType": "struct IBalanceProxy.Approval[]",
          "name": "approvals",
          "type": "tuple[]"
        },
        {
          "components": [
            {
              "internalType": "uint256",
              "name": "deadline",
              "type": "uint256"
            },
            {
              "internalType": "uint8",
              "name": "v",
              "type": "uint8"
            },
            {
              "internalType": "bytes32",
              "name": "r",
              "type": "bytes32"
            },
            {
              "internalType": "bytes32",
              "name": "s",
              "type": "bytes32"
            }
          ],
          "internalType": "struct PermitData[]",
          "name": "permits",
          "type": "tuple[]"
        },
        {
          "internalType": "address",
          "name": "target",
          "type": "address"
        },
        {
          "internalType": "bytes",
          "name": "data",
          "type": "bytes"
        },
        {
          "components": [
            {
              "internalType": "address",
              "name": "target",
              "type": "address"
            },
            {
              "internalType": "address",
              "name": "token",
              "type": "address"
            },
            {
              "internalType": "int256",
              "name": "balance",
              "type": "int256"
            }
          ],
          "internalType": "struct IBalanceProxy.Balance[]",
          "name": "withdrawals",
          "type": "tuple[]"
        }
      ],
      "name": "permitProxyCall",
      "outputs": [
        {
          "internalType": "bytes",
          "name": "",
          "type": "bytes"
        }
      ],
      "stateMutability": "payable",
      "type": "function"
    },
    {
      "inputs": [
        {
          "internalType": "contract IBalanceProxy",
          "name": "balanceProxy",
          "type": "address"
        },
        {
          "components": [
            {
              "internalType": "address",
              "name": "target",
              "type": "address"
            },
            {
              "internalType": "address",
              "name": "token",
              "type": "address"
            },
            {
              "internalType": "int256",
              "name": "balance",
              "type": "int256"
            }
          ],
          "internalType": "struct IBalanceProxy.Balance[]",
          "name": "diffs",
          "type": "tuple[]"
        },
        {
          "components": [
            {
              "components": [
                {
                  "internalType": "address",
                  "name": "target",
                  "type": "address"
                },
                {
                  "internalType": "address",
                  "name": "token",
                  "type": "address"
                },
                {
                  "internalType": "int256",
                  "name": "balance",
                  "type": "int256"
                }
              ],
              "internalType": "struct IBalanceProxy.Balance",
              "name": "balance",
              "type": "tuple"
            },
            {
              "internalType": "bool",
              "name": "useTransfer",
              "type": "bool"
            }
          ],
          "internalType": "struct IBalanceProxy.Approval[]",
          "name": "approvals",
          "type": "tuple[]"
        },
        {
          "components": [
            {
              "internalType": "uint256",
              "name": "deadline",
              "type": "uint256"
            },
            {
              "internalType": "uint8",
              "name": "v",
              "type": "uint8"
            },
            {
              "internalType": "bytes32",
              "name": "r",
              "type": "bytes32"
            },
            {
              "internalType": "bytes32",
              "name": "s",
              "type": "bytes32"
            }
          ],
          "internalType": "struct PermitData[]",
          "name": "permits",
          "type": "tuple[]"
        },
        {
          "internalType": "address",
          "name": "target",
          "type": "address"
        },
        {
          "internalType": "bytes",
          "name": "data",
          "type": "bytes"
        },
        {
          "components": [
            {
              "internalType": "address",
              "name": "target",
              "type": "address"
            },
            {
              "internalType": "address",
              "name": "token",
              "type": "address"
            },
            {
              "internalType": "int256",
              "name": "balance",
              "type": "int256"
            }
          ],
          "internalType": "struct IBalanceProxy.Balance[]",
          "name": "withdrawals",
          "type": "tuple[]"
        }
      ],
      "name": "permitProxyCallDiffs",
      "outputs": [
        {
          "internalType": "bytes",
          "name": "",
          "type": "bytes"
        }
      ],
      "stateMutability": "payable",
      "type": "function"
    }
  ],
  "bytecode": "0x608080604052346015576109f9908161001b8239f35b600080fdfe6080604052600436101561001257600080fd5b60003560e01c8063029a2053146102545763bf10e28e1461003257600080fd5b61003b36610567565b95928492949591955193815185810361023b57506001600160a01b03169360005b8181106100ea57505060405163890e3add60e01b81529660009688968795869561008a955060048701610905565b039134905af180156100de576100b7916000916100bb575b506040519182916020835260208301906107dd565b0390f35b6100d891503d806000833e6100d0818361042e565b810190610844565b386100a2565b6040513d6000823e3d90fd5b6100f48186610802565b515190604082015160206101088387610802565b51930180518451602086015160408701516060909701519693949391926001600160a01b03169060ff16813b156102365760405163d505accf60e01b815233600482015230602482015260448101869052606481019490945260ff16608484015260a483019190915260c482019590955293600090859060e490829084905af19182156100de576101dd94602093610225575b50516040516323b872dd60e01b81523360048201526001600160a01b038b81166024830152604482019390935294859290911690829060009082906064820190565b03925af19182156100de576001926101f7575b500161005c565b6102179060203d811161021e575b61020f818361042e565b81019061082c565b50386101f0565b503d610205565b60006102309161042e565b3861019b565b600080fd5b85906341d6d1af60e01b60005260045260245260446000fd5b61025d36610567565b95928492949591955193815185810361023b57506001600160a01b03169360005b8181106102f357505060405163ce9506f960e01b8152966000968896879586956102ac955060048701610905565b039134905af180156100de576100b7916000916102d857506040519182916020835260208301906107dd565b6102ed91503d806000833e6100d0818361042e565b826100a2565b6102fd8186610802565b515190604082015160206103118387610802565b51930180518451602086015160408701516060909701519693949391926001600160a01b03169060ff16813b156102365760405163d505accf60e01b815233600482015230602482015260448101869052606481019490945260ff16608484015260a483019190915260c482019590955293600090859060e490829084905af19182156100de576103e59460209361041d5750516040516323b872dd60e01b81523360048201526001600160a01b038b81166024830152604482019390935294859290911690829060009082906064820190565b03925af19182156100de576001926103ff575b500161027e565b6104169060203d811161021e5761020f818361042e565b508a6103f8565b60006104289161042e565b8d61019b565b90601f8019910116810190811067ffffffffffffffff82111761045057604052565b634e487b7160e01b600052604160045260246000fd5b67ffffffffffffffff81116104505760051b60200190565b35906001600160a01b038216820361023657565b9190826060910312610236576040516060810181811067ffffffffffffffff8211176104505760405260408082946104c98161047e565b84526104d76020820161047e565b60208501520135910152565b81601f820112156102365780356104f981610466565b92610507604051948561042e565b8184526020606081860193028401019281841161023657602001915b838310610531575050505090565b60206060916105408486610492565b815201920191610523565b67ffffffffffffffff811161045057601f01601f191660200190565b60e0600319820112610236576004356001600160a01b0381168103610236579160243567ffffffffffffffff811161023657826105a6916004016104e3565b9160443567ffffffffffffffff81116102365781602382011215610236578060040135906105d382610466565b916105e1604051938461042e565b8083526024602084019160071b8301019184831161023657602401905b828210610762575050509160643567ffffffffffffffff8111610236578260238201121561023657806004013561063481610466565b91610642604051938461042e565b8183526024602084019260071b8201019085821161023657602401915b8183106106fd575091939150506084356001600160a01b0381168103610236579160a43567ffffffffffffffff811161023657826023820112156102365780600401356106ab8161054b565b916106b9604051938461042e565b8183528460248383010111610236578160009260246020930183860137830101529160c4359067ffffffffffffffff8211610236576106fa916004016104e3565b90565b60808387031261023657604051906080820182811067ffffffffffffffff821117610450576040528335825260208401359060ff821682036102365782602092836080950152604086013560408201526060860135606082015281520192019161065f565b60808286031261023657604051906040820182811067ffffffffffffffff821117610450576040526107948684610492565b8252606083013590811515820361023657826020928360809501528152019101906105fe565b60005b8381106107cd5750506000910152565b81810151838201526020016107bd565b906020916107f6815180928185528580860191016107ba565b601f01601f1916010190565b80518210156108165760209160051b010190565b634e487b7160e01b600052603260045260246000fd5b90816020910312610236575180151581036102365790565b6020818303126102365780519067ffffffffffffffff8211610236570181601f820112156102365780516108778161054b565b92610885604051948561042e565b81845260208284010111610236576106fa91602080850191016107ba565b906020808351928381520192019060005b8181106108c15750505090565b90919260206060826108fa60019488516040809160018060a01b03815116845260018060a01b0360208201511660208501520151910152565b0194019291016108b4565b93919594929061091d9060a0865260a08601906108a3565b84810360208601526020808851928381520197019060005b818110610973575050506001600160a01b03166040840152828503606084015292936106fa9361096591906107dd565b9160808184039101526108a3565b90919760206080600192828c516109af8382516040809160018060a01b03815116845260018060a01b0360208201511660208501520151910152565b01511515606082015201990192910161093556fea26469706673582212209c210f273759f1c3018bc6aa9476c9a7b0f21d08c5a03efcb3ec6a688e270e9964736f6c634300081b0033",
  "linkReferences": {},
  "deployedLinkReferences": {}
}