{
  "contracts/mocks/BalanceProxyTester.sol": {
    "BalanceProxyTester": {
      "abi": [
        {
          "inputs": [
            {
              "internalType": "address",
              "name": "target",
              "type": "address"
            },
            {
              "internalType": "bytes",
              "name": "data",
              "type": "bytes"
            },
            {
              "internalType": "bytes",
              "name": "returnData",
              "type": "bytes"
            }
          ],
          "name": "CallFailed",
          "type": "error"
        },
        {
          "inputs": [
            {
              "internalType": "address",
              "name": "token",
              "type": "address"
            },
            {
              "internalType": "address",
              "name": "target",
              "type": "address"
            },
            {
              "internalType": "int256",
              "name": "balance",
              "type": "int256"
            },
            {
              "internalType": "uint256",
              "name": "actual",
              "type": "uint256"
            }
          ],
          "name": "InsufficientBalance",
          "type": "error"
        },
        {
          "inputs": [
            {
              "internalType": "address",
              "name": "token",
              "type": "address"
            },
            {
              "internalType": "string",
              "name": "expectedSymbol",
              "type": "string"
            },
            {
              "internalType": "uint8",
              "name": "expectedDecimals",
              "type": "uint8"
            },
            {
              "internalType": "string",
              "name": "actualSymbol",
              "type": "string"
            },
            {
              "internalType": "uint8",
              "name": "actualDecimals",
              "type": "uint8"
            }
          ],
          "name": "InvalidMetadata",
          "type": "error"
        },
        {
          "inputs": [
            {
              "internalType": "address",
              "name": "token",
              "type": "address"
            },
            {
              "internalType": "address",
              "name": "target",
              "type": "address"
            }
          ],
          "name": "MaliciousApproveTarget",
          "type": "error"
        },
        {
          "inputs": [
            {
              "internalType": "int256",
              "name": "amount",
              "type": "int256"
            }
          ],
          "name": "NegativeApprovalAmount",
          "type": "error"
        },
        {
          "inputs": [],
          "name": "ReentrancyGuardReentrantCall",
          "type": "error"
        },
        {
          "inputs": [
            {
              "internalType": "address",
              "name": "token",
              "type": "address"
            },
            {
              "internalType": "address",
              "name": "target",
              "type": "address"
            },
            {
              "internalType": "int256",
              "name": "expected",
              "type": "int256"
            },
            {
              "internalType": "int256",
              "name": "actual",
              "type": "int256"
            }
          ],
          "name": "UnexpectedBalanceDiff",
          "type": "error"
        },
        {
          "inputs": [
            {
              "components": [
                {
                  "internalType": "address",
                  "name": "target",
                  "type": "address"
                },
                {
                  "internalType": "address",
                  "name": "token",
                  "type": "address"
                },
                {
                  "internalType": "int256",
                  "name": "balance",
                  "type": "int256"
                }
              ],
              "internalType": "struct IBalanceProxy.Balance",
              "name": "balance",
              "type": "tuple"
            }
          ],
          "name": "exposeBalanceCheckCalldata",
          "outputs": [],
          "stateMutability": "view",
          "type": "function"
        },
        {
          "inputs": [
            {
              "components": [
                {
                  "internalType": "address",
                  "name": "target",
                  "type": "address"
                },
                {
                  "internalType": "address",
                  "name": "token",
                  "type": "address"
                },
                {
                  "internalType": "int256",
                  "name": "balance",
                  "type": "int256"
                }
              ],
              "internalType": "struct IBalanceProxy.Balance[]",
              "name": "postBalances",
              "type": "tuple[]"
            },
            {
              "components": [
                {
                  "components": [
                    {
                      "internalType": "address",
                      "name": "target",
                      "type": "address"
                    },
                    {
                      "internalType": "address",
                      "name": "token",
                      "type": "address"
                    },
                    {
                      "internalType": "int256",
                      "name": "balance",
                      "type": "int256"
                    }
                  ],
                  "internalType": "struct IBalanceProxy.Balance",
                  "name": "balance",
                  "type": "tuple"
                },
                {
                  "internalType": "bool",
                  "name": "useTransfer",
                  "type": "bool"
                }
              ],
              "internalType": "struct IBalanceProxy.Approval[]",
              "name": "approvals",
              "type": "tuple[]"
            },
            {
              "internalType": "address",
              "name": "target",
              "type": "address"
            },
            {
              "internalType": "bytes",
              "name": "data",
              "type": "bytes"
            },
            {
              "components": [
                {
                  "internalType": "address",
                  "name": "target",
                  "type": "address"
                },
                {
                  "internalType": "address",
                  "name": "token",
                  "type": "address"
                },
                {
                  "internalType": "int256",
                  "name": "balance",
                  "type": "int256"
                }
              ],
              "internalType": "struct IBalanceProxy.Balance[]",
              "name": "withdrawals",
              "type": "tuple[]"
            }
          ],
          "name": "proxyCall",
          "outputs": [
            {
              "internalType": "bytes",
              "name": "",
              "type": "bytes"
            }
          ],
          "stateMutability": "payable",
          "type": "function"
        },
        {
          "inputs": [
            {
              "components": [
                {
                  "internalType": "address",
                  "name": "target",
                  "type": "address"
                },
                {
                  "internalType": "address",
                  "name": "token",
                  "type": "address"
                },
                {
                  "internalType": "int256",
                  "name": "balance",
                  "type": "int256"
                }
              ],
              "internalType": "struct IBalanceProxy.Balance[]",
              "name": "diffs",
              "type": "tuple[]"
            },
            {
              "components": [
                {
                  "components": [
                    {
                      "internalType": "address",
                      "name": "target",
                      "type": "address"
                    },
                    {
                      "internalType": "address",
                      "name": "token",
                      "type": "address"
                    },
                    {
                      "internalType": "int256",
                      "name": "balance",
                      "type": "int256"
                    }
                  ],
                  "internalType": "struct IBalanceProxy.Balance",
                  "name": "balance",
                  "type": "tuple"
                },
                {
                  "internalType": "bool",
                  "name": "useTransfer",
                  "type": "bool"
                }
              ],
              "internalType": "struct IBalanceProxy.Approval[]",
              "name": "approvals",
              "type": "tuple[]"
            },
            {
              "internalType": "address",
              "name": "target",
              "type": "address"
            },
            {
              "internalType": "bytes",
              "name": "data",
              "type": "bytes"
            },
            {
              "components": [
                {
                  "internalType": "address",
                  "name": "target",
                  "type": "address"
                },
                {
                  "internalType": "address",
                  "name": "token",
                  "type": "address"
                },
                {
                  "internalType": "int256",
                  "name": "balance",
                  "type": "int256"
                }
              ],
              "internalType": "struct IBalanceProxy.Balance[]",
              "name": "withdrawals",
              "type": "tuple[]"
            }
          ],
          "name": "proxyCallDiffs",
          "outputs": [
            {
              "internalType": "bytes",
              "name": "",
              "type": "bytes"
            }
          ],
          "stateMutability": "payable",
          "type": "function"
        },
        {
          "inputs": [
            {
              "components": [
                {
                  "components": [
                    {
                      "internalType": "address",
                      "name": "target",
                      "type": "address"
                    },
                    {
                      "internalType": "address",
                      "name": "token",
                      "type": "address"
                    },
                    {
                      "internalType": "int256",
                      "name": "balance",
                      "type": "int256"
                    }
                  ],
                  "internalType": "struct IBalanceProxy.Balance",
                  "name": "balance",
                  "type": "tuple"
                },
                {
                  "internalType": "string",
                  "name": "symbol",
                  "type": "string"
                },
                {
                  "internalType": "uint8",
                  "name": "decimals",
                  "type": "uint8"
                }
              ],
              "internalType": "struct BalanceMetadata[]",
              "name": "meta",
              "type": "tuple[]"
            },
            {
              "components": [
                {
                  "components": [
                    {
                      "internalType": "address",
                      "name": "target",
                      "type": "address"
                    },
                    {
                      "internalType": "address",
                      "name": "token",
                      "type": "address"
                    },
                    {
                      "internalType": "int256",
                      "name": "balance",
                      "type": "int256"
                    }
                  ],
                  "internalType": "struct IBalanceProxy.Balance",
                  "name": "balance",
                  "type": "tuple"
                },
                {
                  "internalType": "bool",
                  "name": "useTransfer",
                  "type": "bool"
                }
              ],
              "internalType": "struct IBalanceProxy.Approval[]",
              "name": "approvals",
              "type": "tuple[]"
            },
            {
              "internalType": "address",
              "name": "target",
              "type": "address"
            },
            {
              "internalType": "bytes",
              "name": "data",
              "type": "bytes"
            },
            {
              "components": [
                {
                  "internalType": "address",
                  "name": "target",
                  "type": "address"
                },
                {
                  "internalType": "address",
                  "name": "token",
                  "type": "address"
                },
                {
                  "internalType": "int256",
                  "name": "balance",
                  "type": "int256"
                }
              ],
              "internalType": "struct IBalanceProxy.Balance[]",
              "name": "withdrawals",
              "type": "tuple[]"
            }
          ],
          "name": "proxyCallDiffsMeta",
          "outputs": [
            {
              "internalType": "bytes",
              "name": "",
              "type": "bytes"
            }
          ],
          "stateMutability": "payable",
          "type": "function"
        },
        {
          "inputs": [
            {
              "components": [
                {
                  "components": [
                    {
                      "internalType": "address",
                      "name": "target",
                      "type": "address"
                    },
                    {
                      "internalType": "address",
                      "name": "token",
                      "type": "address"
                    },
                    {
                      "internalType": "int256",
                      "name": "balance",
                      "type": "int256"
                    }
                  ],
                  "internalType": "struct IBalanceProxy.Balance",
                  "name": "balance",
                  "type": "tuple"
                },
                {
                  "internalType": "string",
                  "name": "symbol",
                  "type": "string"
                },
                {
                  "internalType": "uint8",
                  "name": "decimals",
                  "type": "uint8"
                }
              ],
              "internalType": "struct BalanceMetadata[]",
              "name": "meta",
              "type": "tuple[]"
            },
            {
              "components": [
                {
                  "components": [
                    {
                      "internalType": "address",
                      "name": "target",
                      "type": "address"
                    },
                    {
                      "internalType": "address",
                      "name": "token",
                      "type": "address"
                    },
                    {
                      "internalType": "int256",
                      "name": "balance",
                      "type": "int256"
                    }
                  ],
                  "internalType": "struct IBalanceProxy.Balance",
                  "name": "balance",
                  "type": "tuple"
                },
                {
                  "internalType": "bool",
                  "name": "useTransfer",
                  "type": "bool"
                }
              ],
              "internalType": "struct IBalanceProxy.Approval[]",
              "name": "approvals",
              "type": "tuple[]"
            },
            {
              "internalType": "address",
              "name": "target",
              "type": "address"
            },
            {
              "internalType": "bytes",
              "name": "data",
              "type": "bytes"
            },
            {
              "components": [
                {
                  "internalType": "address",
                  "name": "target",
                  "type": "address"
                },
                {
                  "internalType": "address",
                  "name": "token",
                  "type": "address"
                },
                {
                  "internalType": "int256",
                  "name": "balance",
                  "type": "int256"
                }
              ],
              "internalType": "struct IBalanceProxy.Balance[]",
              "name": "withdrawals",
              "type": "tuple[]"
            }
          ],
          "name": "proxyCallMeta",
          "outputs": [
            {
              "internalType": "bytes",
              "name": "",
              "type": "bytes"
            }
          ],
          "stateMutability": "payable",
          "type": "function"
        },
        {
          "stateMutability": "payable",
          "type": "receive"
        }
      ],
      "devdoc": {
        "errors": {
          "ReentrancyGuardReentrantCall()": [
            {
              "details": "Unauthorized reentrant call."
            }
          ]
        },
        "kind": "dev",
        "methods": {
          "proxyCallDiffsMeta(((address,address,int256),string,uint8)[],((address,address,int256),bool)[],address,bytes,(address,address,int256)[])": {
            "details": "Validates metadata (symbol/decimals) against actual token properties"
          },
          "proxyCallMeta(((address,address,int256),string,uint8)[],((address,address,int256),bool)[],address,bytes,(address,address,int256)[])": {
            "details": "Validates metadata (symbol/decimals) against actual token properties"
          }
        },
        "version": 1
      },
      "evm": {
        "bytecode": {
          "linkReferences": {},
          "object": "60808060405234601a57600160005561120090816100208239f35b600080fdfe6080604052600436101561001b575b361561001957600080fd5b005b60003560e01c806386c62850146104eb578063890e3add1461032e5780638f873b731461021c578063ce9506f9146101755763d3113d8a0361000e57610060366108bf565b9261006c929192610be6565b60005b8551811015610094578061008e61008860019389610acb565b51610c08565b0161006f565b50838560005b83518110156100c057806100ba866100b460019488610acb565b51610f00565b0161009a565b5091509260008082516020840134875af1926100da610b27565b931561015457505060005b835181101561010a57806101046100fe60019387610acb565b51611027565b016100e5565b509060005b8251811015610135578061012f61012860019386610acb565b51516110e9565b0161010f565b60016000556040516020808252819061015090820185610a5d565b0390f35b61017184604051938493630881f24f60e31b855260048501610b57565b0390fd5b61017e36610a82565b909361018b939293610be6565b60005b83518110156101ae57806101a8866100b460019488610acb565b0161018e565b5091509260008082516020840134875af1926101c8610b27565b931561015457505060005b83518110156101f257806101ec6100fe60019387610acb565b016101d3565b509060005b8251811015610135578061021661021060019386610acb565b516110e9565b016101f7565b346103295760603660031901126103295760006001600160a01b0361023f6110bd565b166102925761024c6110d3565b315b604435908160ff1d808301188110610264578280f35b61017161026f6110bd565b916102786110d3565b9360405194859463d87031f960e01b865260048601610bbc565b6001600160a01b036102a26110bd565b1660206102ad6110d3565b6040516370a0823160e01b81526001600160a01b03909116600482015291829060249082905afa90811561031e5782916102e8575b5061024e565b90506020813d602011610316575b81610303602093836106b4565b810103126103125751826102e2565b5080fd5b3d91506102f6565b6040513d84823e3d90fd5b600080fd5b61033736610a82565b909293610342610be6565b600090805161035081610af5565b925b8181106104ac575060005b875181101561037d5780610377876100b46001948c610acb565b0161035d565b5084908660008082516020840134875af192610397610b27565b931561015457505060005b85518110156103c157806103bb6100fe60019389610acb565b016103a2565b508360005b8281106103e85760016000556040516020808252819061015090820187610a5d565b6104326104216001600160a01b036020610402858a610acb565b510151166001600160a01b03610418858a610acb565b51511690610e56565b61042b8385610acb565b5190610b8d565b604061043e8388610acb565b510151811261045057506001016103c6565b8591906101719060406104906001600160a01b0360206104708789610acb565b51015116946001600160a01b036104878289610acb565b51511696610acb565b510151604051637ec440e760e11b815294859460048601610bbc565b6001906104da6001600160a01b0360206104c68488610acb565b51015116838060a01b036104188488610acb565b6104e48287610acb565b5201610352565b6104f4366108bf565b9092936104ff610be6565b805160005b81811061066d575061051581610af5565b9060005b818110610631575060005b8751811015610544578061053e876100b46001948c610acb565b01610524565b5084908660008082516020840134875af19261055e610b27565b931561015457505060005b855181101561058857806105826100fe60019389610acb565b01610569565b508360005b8281106105af5760016000556040516020808252819061015090820187610a5d565b6105b98183610acb565b515160208101805182519192916105ea916105e0916001600160a01b039081169116610e56565b61042b858a610acb565b604082015192838212610603575050505060010161058d565b519151604051637ec440e760e11b815293849361017193926001600160a01b03908116911660048601610bbc565b8061065c61064160019387610acb565b51516020810151905160a085901b8590039081169116610e56565b6106668286610acb565b5201610519565b8061067d61008860019386610acb565b01610504565b606081019081106001600160401b0382111761069e57604052565b634e487b7160e01b600052604160045260246000fd5b90601f801991011681019081106001600160401b0382111761069e57604052565b6001600160401b03811161069e5760051b60200190565b35906001600160a01b038216820361032957565b91908260609103126103295760405161071881610683565b6040808294610726816106ec565b8452610734602082016106ec565b60208501520135910152565b6001600160401b03811161069e57601f01601f191660200190565b92919261076782610740565b9161077560405193846106b4565b829481845281830111610329578281602093846000960137010152565b9080601f83011215610329578135916107aa836106d5565b926107b860405194856106b4565b80845260208085019160071b8301019183831161032957602001905b8282106107e2575050505090565b6080828503126103295760405190604082018281106001600160401b0382111761069e576040526108138584610700565b8252606083013590811515820361032957826020928360809501528152019101906107d4565b9080601f83011215610329578160206108549335910161075b565b90565b81601f8201121561032957803561086d816106d5565b9261087b60405194856106b4565b8184526020606081860193028401019281841161032957602001915b8383106108a5575050505090565b60206060916108b48486610700565b815201920191610897565b60a0600319820112610329576004356001600160401b0381116103295781602382011215610329578060040135906108f6826106d5565b9161090460405193846106b4565b8083526024602084019160051b830101918483116103295760248101915b83831061099e5750505050916024356001600160401b038111610329578261094c91600401610792565b916044356001600160a01b038116810361032957916064356001600160401b038111610329578261097f91600401610839565b91608435906001600160401b0382116103295761085491600401610857565b82356001600160401b0381116103295782019060a0828803602319011261032957604051916109cc83610683565b6109d98860248301610700565b835260848101356001600160401b038111610329576024908201019088601f8301121561032957610a128983602060a49535910161075b565b602085015201359060ff82168203610329578260209392604085940152815201920191610922565b60005b838110610a4d5750506000910152565b8181015183820152602001610a3d565b90602091610a7681518092818552858086019101610a3a565b601f01601f1916010190565b60a0600319820112610329576004356001600160401b0381116103295781610aac91600401610857565b916024356001600160401b038111610329578261094c91600401610792565b8051821015610adf5760209160051b010190565b634e487b7160e01b600052603260045260246000fd5b90610aff826106d5565b610b0c60405191826106b4565b8281528092610b1d601f19916106d5565b0190602036910137565b3d15610b52573d90610b3882610740565b91610b4660405193846106b4565b82523d6000602084013e565b606090565b6001600160a01b039091168152606060208201819052610854939192610b7f91840190610a5d565b916040818403910152610a5d565b81810392916000138015828513169184121617610ba657565b634e487b7160e01b600052601160045260246000fd5b6001600160a01b039182168152911660208201526040810191909152606081019190915260800190565b600260005414610bf7576002600055565b633ee5aeb560e01b60005260046000fd5b8051602001516001600160a01b031680610d275750604051610c2b6040826106b4565b600381526208aa8960eb1b602082015260125b6040516020810190610c6c6020828651610c5b8187858b01610a3a565b81010301601f1981018352826106b4565b5190209160208401928351604051610c9460208281610c5b8183019687815193849201610a3a565b51902014801590610d13575b610caa5750505050565b610d0860ff9182604060018060a01b036020895101511696519701511690610cf1604051978897635591851960e01b8952600489015260a0602489015260a4880190610a5d565b916044870152600319868303016064870152610a5d565b911660848301520390fd5b5060ff60408501511660ff83161415610ca0565b6000600491604051928380926395d89b4160e01b82525afa908115610dcc57600091610dd8575b50815160209081015160405163313ce56760e01b81529190829060049082906001600160a01b03165afa908115610dcc57600091610d8d575b50610c3e565b6020813d602011610dc4575b81610da6602093836106b4565b8101031261031257519060ff82168203610dc1575038610d87565b80fd5b3d9150610d99565b6040513d6000823e3d90fd5b903d8082843e610de881846106b4565b820191602081840312610312578051906001600160401b038211610e52570182601f8201121561031257805191610e1e83610740565b93610e2c60405195866106b4565b83855260208484010111610dc1575090610e4c9160208085019101610a3a565b38610d4e565b8280fd5b6000906001600160a01b031680610e6d5750503190565b6040516370a0823160e01b81526001600160a01b039093166004840152909190602090829060249082905afa918215610edc578092610eab57505090565b9091506020823d602011610ed4575b81610ec7602093836106b4565b81010312610dc157505190565b3d9150610eba565b604051903d90823e3d90fd5b90816020910312610329575180151581036103295790565b80518051919290916001600160a01b0390811691168103611002575060408101805160008112610fee5750516020929092015115610faf57602081810151915160405163a9059cbb60e01b81526001600160a01b0391821660048201526024810194909452909183911681600081604481015b03925af18015610dcc57610f845750565b610fa59060203d602011610fa8575b610f9d81836106b4565b810190610ee8565b50565b503d610f93565b602081810151915160405163095ea7b360e01b81526001600160a01b039182166004820152602481019490945290918391168160008160448101610f73565b63303b302960e11b60005260045260246000fd5b90602060018060a01b0391015116635876e71160e01b60005260045260245260446000fd5b60208101516001600160a01b0316806110775750600080808093604060018060a01b03825116910151908160ff1d80920191839281811461106d575b1891f115610dcc57565b6108fc9350611063565b8151604092830151925163a9059cbb60e01b81526001600160a01b03909116600482015260ff83901d928301909218602483015260209082908160008160448101610f73565b6024356001600160a01b03811681036103295790565b6004356001600160a01b03811681036103295790565b6020810180519091906000906001600160a01b03168061115a57505080516001600160a01b0316315b6040820151928360ff1d80850118821061112c5750505050565b51915160405163d87031f960e01b815293849361017193926001600160a01b03908116911660048601610bbc565b602060018060a01b038451166024604051809481936370a0823160e01b835260048301525afa918215610edc578092611195575b5050611112565b9091506020823d6020116111c2575b816111b1602093836106b4565b81010312610dc1575051388061118e565b3d91506111a456fea264697066735822122037acac010771f500108b8baa0766250d90c5e298231aa46e035466221fd9947664736f6c634300081b0033",
          "opcodes": "PUSH1 0x80 DUP1 PUSH1 0x40 MSTORE CALLVALUE PUSH1 0x1A JUMPI PUSH1 0x1 PUSH1 0x0 SSTORE PUSH2 0x1200 SWAP1 DUP2 PUSH2 0x20 DUP3 CODECOPY RETURN JUMPDEST PUSH1 0x0 DUP1 REVERT INVALID PUSH1 0x80 PUSH1 0x40 MSTORE PUSH1 0x4 CALLDATASIZE LT ISZERO PUSH2 0x1B JUMPI JUMPDEST CALLDATASIZE ISZERO PUSH2 0x19 JUMPI PUSH1 0x0 DUP1 REVERT JUMPDEST STOP JUMPDEST PUSH1 0x0 CALLDATALOAD PUSH1 0xE0 SHR DUP1 PUSH4 0x86C62850 EQ PUSH2 0x4EB JUMPI DUP1 PUSH4 0x890E3ADD EQ PUSH2 0x32E JUMPI DUP1 PUSH4 0x8F873B73 EQ PUSH2 0x21C JUMPI DUP1 PUSH4 0xCE9506F9 EQ PUSH2 0x175 JUMPI PUSH4 0xD3113D8A SUB PUSH2 0xE JUMPI PUSH2 0x60 CALLDATASIZE PUSH2 0x8BF JUMP JUMPDEST SWAP3 PUSH2 0x6C SWAP3 SWAP2 SWAP3 PUSH2 0xBE6 JUMP JUMPDEST PUSH1 0x0 JUMPDEST DUP6 MLOAD DUP2 LT ISZERO PUSH2 0x94 JUMPI DUP1 PUSH2 0x8E PUSH2 0x88 PUSH1 0x1 SWAP4 DUP10 PUSH2 0xACB JUMP JUMPDEST MLOAD PUSH2 0xC08 JUMP JUMPDEST ADD PUSH2 0x6F JUMP JUMPDEST POP DUP4 DUP6 PUSH1 0x0 JUMPDEST DUP4 MLOAD DUP2 LT ISZERO PUSH2 0xC0 JUMPI DUP1 PUSH2 0xBA DUP7 PUSH2 0xB4 PUSH1 0x1 SWAP5 DUP9 PUSH2 0xACB JUMP JUMPDEST MLOAD PUSH2 0xF00 JUMP JUMPDEST ADD PUSH2 0x9A JUMP JUMPDEST POP SWAP2 POP SWAP3 PUSH1 0x0 DUP1 DUP3 MLOAD PUSH1 0x20 DUP5 ADD CALLVALUE DUP8 GAS CALL SWAP3 PUSH2 0xDA PUSH2 0xB27 JUMP JUMPDEST SWAP4 ISZERO PUSH2 0x154 JUMPI POP POP PUSH1 0x0 JUMPDEST DUP4 MLOAD DUP2 LT ISZERO PUSH2 0x10A JUMPI DUP1 PUSH2 0x104 PUSH2 0xFE PUSH1 0x1 SWAP4 DUP8 PUSH2 0xACB JUMP JUMPDEST MLOAD PUSH2 0x1027 JUMP JUMPDEST ADD PUSH2 0xE5 JUMP JUMPDEST POP SWAP1 PUSH1 0x0 JUMPDEST DUP3 MLOAD DUP2 LT ISZERO PUSH2 0x135 JUMPI DUP1 PUSH2 0x12F PUSH2 0x128 PUSH1 0x1 SWAP4 DUP7 PUSH2 0xACB JUMP JUMPDEST MLOAD MLOAD PUSH2 0x10E9 JUMP JUMPDEST ADD PUSH2 0x10F JUMP JUMPDEST PUSH1 0x1 PUSH1 0x0 SSTORE PUSH1 0x40 MLOAD PUSH1 0x20 DUP1 DUP3 MSTORE DUP2 SWAP1 PUSH2 0x150 SWAP1 DUP3 ADD DUP6 PUSH2 0xA5D JUMP JUMPDEST SUB SWAP1 RETURN JUMPDEST PUSH2 0x171 DUP5 PUSH1 0x40 MLOAD SWAP4 DUP5 SWAP4 PUSH4 0x881F24F PUSH1 0xE3 SHL DUP6 MSTORE PUSH1 0x4 DUP6 ADD PUSH2 0xB57 JUMP JUMPDEST SUB SWAP1 REVERT JUMPDEST PUSH2 0x17E CALLDATASIZE PUSH2 0xA82 JUMP JUMPDEST SWAP1 SWAP4 PUSH2 0x18B SWAP4 SWAP3 SWAP4 PUSH2 0xBE6 JUMP JUMPDEST PUSH1 0x0 JUMPDEST DUP4 MLOAD DUP2 LT ISZERO PUSH2 0x1AE JUMPI DUP1 PUSH2 0x1A8 DUP7 PUSH2 0xB4 PUSH1 0x1 SWAP5 DUP9 PUSH2 0xACB JUMP JUMPDEST ADD PUSH2 0x18E JUMP JUMPDEST POP SWAP2 POP SWAP3 PUSH1 0x0 DUP1 DUP3 MLOAD PUSH1 0x20 DUP5 ADD CALLVALUE DUP8 GAS CALL SWAP3 PUSH2 0x1C8 PUSH2 0xB27 JUMP JUMPDEST SWAP4 ISZERO PUSH2 0x154 JUMPI POP POP PUSH1 0x0 JUMPDEST DUP4 MLOAD DUP2 LT ISZERO PUSH2 0x1F2 JUMPI DUP1 PUSH2 0x1EC PUSH2 0xFE PUSH1 0x1 SWAP4 DUP8 PUSH2 0xACB JUMP JUMPDEST ADD PUSH2 0x1D3 JUMP JUMPDEST POP SWAP1 PUSH1 0x0 JUMPDEST DUP3 MLOAD DUP2 LT ISZERO PUSH2 0x135 JUMPI DUP1 PUSH2 0x216 PUSH2 0x210 PUSH1 0x1 SWAP4 DUP7 PUSH2 0xACB JUMP JUMPDEST MLOAD PUSH2 0x10E9 JUMP JUMPDEST ADD PUSH2 0x1F7 JUMP JUMPDEST CALLVALUE PUSH2 0x329 JUMPI PUSH1 0x60 CALLDATASIZE PUSH1 0x3 NOT ADD SLT PUSH2 0x329 JUMPI PUSH1 0x0 PUSH1 0x1 PUSH1 0x1 PUSH1 0xA0 SHL SUB PUSH2 0x23F PUSH2 0x10BD JUMP JUMPDEST AND PUSH2 0x292 JUMPI PUSH2 0x24C PUSH2 0x10D3 JUMP JUMPDEST BALANCE JUMPDEST PUSH1 0x44 CALLDATALOAD SWAP1 DUP2 PUSH1 0xFF SAR DUP1 DUP4 ADD XOR DUP2 LT PUSH2 0x264 JUMPI DUP3 DUP1 RETURN JUMPDEST PUSH2 0x171 PUSH2 0x26F PUSH2 0x10BD JUMP JUMPDEST SWAP2 PUSH2 0x278 PUSH2 0x10D3 JUMP JUMPDEST SWAP4 PUSH1 0x40 MLOAD SWAP5 DUP6 SWAP5 PUSH4 0xD87031F9 PUSH1 0xE0 SHL DUP7 MSTORE PUSH1 0x4 DUP7 ADD PUSH2 0xBBC JUMP JUMPDEST PUSH1 0x1 PUSH1 0x1 PUSH1 0xA0 SHL SUB PUSH2 0x2A2 PUSH2 0x10BD JUMP JUMPDEST AND PUSH1 0x20 PUSH2 0x2AD PUSH2 0x10D3 JUMP JUMPDEST PUSH1 0x40 MLOAD PUSH4 0x70A08231 PUSH1 0xE0 SHL DUP2 MSTORE PUSH1 0x1 PUSH1 0x1 PUSH1 0xA0 SHL SUB SWAP1 SWAP2 AND PUSH1 0x4 DUP3 ADD MSTORE SWAP2 DUP3 SWAP1 PUSH1 0x24 SWAP1 DUP3 SWAP1 GAS STATICCALL SWAP1 DUP2 ISZERO PUSH2 0x31E JUMPI DUP3 SWAP2 PUSH2 0x2E8 JUMPI JUMPDEST POP PUSH2 0x24E JUMP JUMPDEST SWAP1 POP PUSH1 0x20 DUP2 RETURNDATASIZE PUSH1 0x20 GT PUSH2 0x316 JUMPI JUMPDEST DUP2 PUSH2 0x303 PUSH1 0x20 SWAP4 DUP4 PUSH2 0x6B4 JUMP JUMPDEST DUP2 ADD SUB SLT PUSH2 0x312 JUMPI MLOAD DUP3 PUSH2 0x2E2 JUMP JUMPDEST POP DUP1 REVERT JUMPDEST RETURNDATASIZE SWAP2 POP PUSH2 0x2F6 JUMP JUMPDEST PUSH1 0x40 MLOAD RETURNDATASIZE DUP5 DUP3 RETURNDATACOPY RETURNDATASIZE SWAP1 REVERT JUMPDEST PUSH1 0x0 DUP1 REVERT JUMPDEST PUSH2 0x337 CALLDATASIZE PUSH2 0xA82 JUMP JUMPDEST SWAP1 SWAP3 SWAP4 PUSH2 0x342 PUSH2 0xBE6 JUMP JUMPDEST PUSH1 0x0 SWAP1 DUP1 MLOAD PUSH2 0x350 DUP2 PUSH2 0xAF5 JUMP JUMPDEST SWAP3 JUMPDEST DUP2 DUP2 LT PUSH2 0x4AC JUMPI POP PUSH1 0x0 JUMPDEST DUP8 MLOAD DUP2 LT ISZERO PUSH2 0x37D JUMPI DUP1 PUSH2 0x377 DUP8 PUSH2 0xB4 PUSH1 0x1 SWAP5 DUP13 PUSH2 0xACB JUMP JUMPDEST ADD PUSH2 0x35D JUMP JUMPDEST POP DUP5 SWAP1 DUP7 PUSH1 0x0 DUP1 DUP3 MLOAD PUSH1 0x20 DUP5 ADD CALLVALUE DUP8 GAS CALL SWAP3 PUSH2 0x397 PUSH2 0xB27 JUMP JUMPDEST SWAP4 ISZERO PUSH2 0x154 JUMPI POP POP PUSH1 0x0 JUMPDEST DUP6 MLOAD DUP2 LT ISZERO PUSH2 0x3C1 JUMPI DUP1 PUSH2 0x3BB PUSH2 0xFE PUSH1 0x1 SWAP4 DUP10 PUSH2 0xACB JUMP JUMPDEST ADD PUSH2 0x3A2 JUMP JUMPDEST POP DUP4 PUSH1 0x0 JUMPDEST DUP3 DUP2 LT PUSH2 0x3E8 JUMPI PUSH1 0x1 PUSH1 0x0 SSTORE PUSH1 0x40 MLOAD PUSH1 0x20 DUP1 DUP3 MSTORE DUP2 SWAP1 PUSH2 0x150 SWAP1 DUP3 ADD DUP8 PUSH2 0xA5D JUMP JUMPDEST PUSH2 0x432 PUSH2 0x421 PUSH1 0x1 PUSH1 0x1 PUSH1 0xA0 SHL SUB PUSH1 0x20 PUSH2 0x402 DUP6 DUP11 PUSH2 0xACB JUMP JUMPDEST MLOAD ADD MLOAD AND PUSH1 0x1 PUSH1 0x1 PUSH1 0xA0 SHL SUB PUSH2 0x418 DUP6 DUP11 PUSH2 0xACB JUMP JUMPDEST MLOAD MLOAD AND SWAP1 PUSH2 0xE56 JUMP JUMPDEST PUSH2 0x42B DUP4 DUP6 PUSH2 0xACB JUMP JUMPDEST MLOAD SWAP1 PUSH2 0xB8D JUMP JUMPDEST PUSH1 0x40 PUSH2 0x43E DUP4 DUP9 PUSH2 0xACB JUMP JUMPDEST MLOAD ADD MLOAD DUP2 SLT PUSH2 0x450 JUMPI POP PUSH1 0x1 ADD PUSH2 0x3C6 JUMP JUMPDEST DUP6 SWAP2 SWAP1 PUSH2 0x171 SWAP1 PUSH1 0x40 PUSH2 0x490 PUSH1 0x1 PUSH1 0x1 PUSH1 0xA0 SHL SUB PUSH1 0x20 PUSH2 0x470 DUP8 DUP10 PUSH2 0xACB JUMP JUMPDEST MLOAD ADD MLOAD AND SWAP5 PUSH1 0x1 PUSH1 0x1 PUSH1 0xA0 SHL SUB PUSH2 0x487 DUP3 DUP10 PUSH2 0xACB JUMP JUMPDEST MLOAD MLOAD AND SWAP7 PUSH2 0xACB JUMP JUMPDEST MLOAD ADD MLOAD PUSH1 0x40 MLOAD PUSH4 0x7EC440E7 PUSH1 0xE1 SHL DUP2 MSTORE SWAP5 DUP6 SWAP5 PUSH1 0x4 DUP7 ADD PUSH2 0xBBC JUMP JUMPDEST PUSH1 0x1 SWAP1 PUSH2 0x4DA PUSH1 0x1 PUSH1 0x1 PUSH1 0xA0 SHL SUB PUSH1 0x20 PUSH2 0x4C6 DUP5 DUP9 PUSH2 0xACB JUMP JUMPDEST MLOAD ADD MLOAD AND DUP4 DUP1 PUSH1 0xA0 SHL SUB PUSH2 0x418 DUP5 DUP9 PUSH2 0xACB JUMP JUMPDEST PUSH2 0x4E4 DUP3 DUP8 PUSH2 0xACB JUMP JUMPDEST MSTORE ADD PUSH2 0x352 JUMP JUMPDEST PUSH2 0x4F4 CALLDATASIZE PUSH2 0x8BF JUMP JUMPDEST SWAP1 SWAP3 SWAP4 PUSH2 0x4FF PUSH2 0xBE6 JUMP JUMPDEST DUP1 MLOAD PUSH1 0x0 JUMPDEST DUP2 DUP2 LT PUSH2 0x66D JUMPI POP PUSH2 0x515 DUP2 PUSH2 0xAF5 JUMP JUMPDEST SWAP1 PUSH1 0x0 JUMPDEST DUP2 DUP2 LT PUSH2 0x631 JUMPI POP PUSH1 0x0 JUMPDEST DUP8 MLOAD DUP2 LT ISZERO PUSH2 0x544 JUMPI DUP1 PUSH2 0x53E DUP8 PUSH2 0xB4 PUSH1 0x1 SWAP5 DUP13 PUSH2 0xACB JUMP JUMPDEST ADD PUSH2 0x524 JUMP JUMPDEST POP DUP5 SWAP1 DUP7 PUSH1 0x0 DUP1 DUP3 MLOAD PUSH1 0x20 DUP5 ADD CALLVALUE DUP8 GAS CALL SWAP3 PUSH2 0x55E PUSH2 0xB27 JUMP JUMPDEST SWAP4 ISZERO PUSH2 0x154 JUMPI POP POP PUSH1 0x0 JUMPDEST DUP6 MLOAD DUP2 LT ISZERO PUSH2 0x588 JUMPI DUP1 PUSH2 0x582 PUSH2 0xFE PUSH1 0x1 SWAP4 DUP10 PUSH2 0xACB JUMP JUMPDEST ADD PUSH2 0x569 JUMP JUMPDEST POP DUP4 PUSH1 0x0 JUMPDEST DUP3 DUP2 LT PUSH2 0x5AF JUMPI PUSH1 0x1 PUSH1 0x0 SSTORE PUSH1 0x40 MLOAD PUSH1 0x20 DUP1 DUP3 MSTORE DUP2 SWAP1 PUSH2 0x150 SWAP1 DUP3 ADD DUP8 PUSH2 0xA5D JUMP JUMPDEST PUSH2 0x5B9 DUP2 DUP4 PUSH2 0xACB JUMP JUMPDEST MLOAD MLOAD PUSH1 0x20 DUP2 ADD DUP1 MLOAD DUP3 MLOAD SWAP2 SWAP3 SWAP2 PUSH2 0x5EA SWAP2 PUSH2 0x5E0 SWAP2 PUSH1 0x1 PUSH1 0x1 PUSH1 0xA0 SHL SUB SWAP1 DUP2 AND SWAP2 AND PUSH2 0xE56 JUMP JUMPDEST PUSH2 0x42B DUP6 DUP11 PUSH2 0xACB JUMP JUMPDEST PUSH1 0x40 DUP3 ADD MLOAD SWAP3 DUP4 DUP3 SLT PUSH2 0x603 JUMPI POP POP POP POP PUSH1 0x1 ADD PUSH2 0x58D JUMP JUMPDEST MLOAD SWAP2 MLOAD PUSH1 0x40 MLOAD PUSH4 0x7EC440E7 PUSH1 0xE1 SHL DUP2 MSTORE SWAP4 DUP5 SWAP4 PUSH2 0x171 SWAP4 SWAP3 PUSH1 0x1 PUSH1 0x1 PUSH1 0xA0 SHL SUB SWAP1 DUP2 AND SWAP2 AND PUSH1 0x4 DUP7 ADD PUSH2 0xBBC JUMP JUMPDEST DUP1 PUSH2 0x65C PUSH2 0x641 PUSH1 0x1 SWAP4 DUP8 PUSH2 0xACB JUMP JUMPDEST MLOAD MLOAD PUSH1 0x20 DUP2 ADD MLOAD SWAP1 MLOAD PUSH1 0xA0 DUP6 SWAP1 SHL DUP6 SWAP1 SUB SWAP1 DUP2 AND SWAP2 AND PUSH2 0xE56 JUMP JUMPDEST PUSH2 0x666 DUP3 DUP7 PUSH2 0xACB JUMP JUMPDEST MSTORE ADD PUSH2 0x519 JUMP JUMPDEST DUP1 PUSH2 0x67D PUSH2 0x88 PUSH1 0x1 SWAP4 DUP7 PUSH2 0xACB JUMP JUMPDEST ADD PUSH2 0x504 JUMP JUMPDEST PUSH1 0x60 DUP2 ADD SWAP1 DUP2 LT PUSH1 0x1 PUSH1 0x1 PUSH1 0x40 SHL SUB DUP3 GT OR PUSH2 0x69E JUMPI PUSH1 0x40 MSTORE JUMP JUMPDEST PUSH4 0x4E487B71 PUSH1 0xE0 SHL PUSH1 0x0 MSTORE PUSH1 0x41 PUSH1 0x4 MSTORE PUSH1 0x24 PUSH1 0x0 REVERT JUMPDEST SWAP1 PUSH1 0x1F DUP1 NOT SWAP2 ADD AND DUP2 ADD SWAP1 DUP2 LT PUSH1 0x1 PUSH1 0x1 PUSH1 0x40 SHL SUB DUP3 GT OR PUSH2 0x69E JUMPI PUSH1 0x40 MSTORE JUMP JUMPDEST PUSH1 0x1 PUSH1 0x1 PUSH1 0x40 SHL SUB DUP2 GT PUSH2 0x69E JUMPI PUSH1 0x5 SHL PUSH1 0x20 ADD SWAP1 JUMP JUMPDEST CALLDATALOAD SWAP1 PUSH1 0x1 PUSH1 0x1 PUSH1 0xA0 SHL SUB DUP3 AND DUP3 SUB PUSH2 0x329 JUMPI JUMP JUMPDEST SWAP2 SWAP1 DUP3 PUSH1 0x60 SWAP2 SUB SLT PUSH2 0x329 JUMPI PUSH1 0x40 MLOAD PUSH2 0x718 DUP2 PUSH2 0x683 JUMP JUMPDEST PUSH1 0x40 DUP1 DUP3 SWAP5 PUSH2 0x726 DUP2 PUSH2 0x6EC JUMP JUMPDEST DUP5 MSTORE PUSH2 0x734 PUSH1 0x20 DUP3 ADD PUSH2 0x6EC JUMP JUMPDEST PUSH1 0x20 DUP6 ADD MSTORE ADD CALLDATALOAD SWAP2 ADD MSTORE JUMP JUMPDEST PUSH1 0x1 PUSH1 0x1 PUSH1 0x40 SHL SUB DUP2 GT PUSH2 0x69E JUMPI PUSH1 0x1F ADD PUSH1 0x1F NOT AND PUSH1 0x20 ADD SWAP1 JUMP JUMPDEST SWAP3 SWAP2 SWAP3 PUSH2 0x767 DUP3 PUSH2 0x740 JUMP JUMPDEST SWAP2 PUSH2 0x775 PUSH1 0x40 MLOAD SWAP4 DUP5 PUSH2 0x6B4 JUMP JUMPDEST DUP3 SWAP5 DUP2 DUP5 MSTORE DUP2 DUP4 ADD GT PUSH2 0x329 JUMPI DUP3 DUP2 PUSH1 0x20 SWAP4 DUP5 PUSH1 0x0 SWAP7 ADD CALLDATACOPY ADD ADD MSTORE JUMP JUMPDEST SWAP1 DUP1 PUSH1 0x1F DUP4 ADD SLT ISZERO PUSH2 0x329 JUMPI DUP2 CALLDATALOAD SWAP2 PUSH2 0x7AA DUP4 PUSH2 0x6D5 JUMP JUMPDEST SWAP3 PUSH2 0x7B8 PUSH1 0x40 MLOAD SWAP5 DUP6 PUSH2 0x6B4 JUMP JUMPDEST DUP1 DUP5 MSTORE PUSH1 0x20 DUP1 DUP6 ADD SWAP2 PUSH1 0x7 SHL DUP4 ADD ADD SWAP2 DUP4 DUP4 GT PUSH2 0x329 JUMPI PUSH1 0x20 ADD SWAP1 JUMPDEST DUP3 DUP3 LT PUSH2 0x7E2 JUMPI POP POP POP POP SWAP1 JUMP JUMPDEST PUSH1 0x80 DUP3 DUP6 SUB SLT PUSH2 0x329 JUMPI PUSH1 0x40 MLOAD SWAP1 PUSH1 0x40 DUP3 ADD DUP3 DUP2 LT PUSH1 0x1 PUSH1 0x1 PUSH1 0x40 SHL SUB DUP3 GT OR PUSH2 0x69E JUMPI PUSH1 0x40 MSTORE PUSH2 0x813 DUP6 DUP5 PUSH2 0x700 JUMP JUMPDEST DUP3 MSTORE PUSH1 0x60 DUP4 ADD CALLDATALOAD SWAP1 DUP2 ISZERO ISZERO DUP3 SUB PUSH2 0x329 JUMPI DUP3 PUSH1 0x20 SWAP3 DUP4 PUSH1 0x80 SWAP6 ADD MSTORE DUP2 MSTORE ADD SWAP2 ADD SWAP1 PUSH2 0x7D4 JUMP JUMPDEST SWAP1 DUP1 PUSH1 0x1F DUP4 ADD SLT ISZERO PUSH2 0x329 JUMPI DUP2 PUSH1 0x20 PUSH2 0x854 SWAP4 CALLDATALOAD SWAP2 ADD PUSH2 0x75B JUMP JUMPDEST SWAP1 JUMP JUMPDEST DUP2 PUSH1 0x1F DUP3 ADD SLT ISZERO PUSH2 0x329 JUMPI DUP1 CALLDATALOAD PUSH2 0x86D DUP2 PUSH2 0x6D5 JUMP JUMPDEST SWAP3 PUSH2 0x87B PUSH1 0x40 MLOAD SWAP5 DUP6 PUSH2 0x6B4 JUMP JUMPDEST DUP2 DUP5 MSTORE PUSH1 0x20 PUSH1 0x60 DUP2 DUP7 ADD SWAP4 MUL DUP5 ADD ADD SWAP3 DUP2 DUP5 GT PUSH2 0x329 JUMPI PUSH1 0x20 ADD SWAP2 JUMPDEST DUP4 DUP4 LT PUSH2 0x8A5 JUMPI POP POP POP POP SWAP1 JUMP JUMPDEST PUSH1 0x20 PUSH1 0x60 SWAP2 PUSH2 0x8B4 DUP5 DUP7 PUSH2 0x700 JUMP JUMPDEST DUP2 MSTORE ADD SWAP3 ADD SWAP2 PUSH2 0x897 JUMP JUMPDEST PUSH1 0xA0 PUSH1 0x3 NOT DUP3 ADD SLT PUSH2 0x329 JUMPI PUSH1 0x4 CALLDATALOAD PUSH1 0x1 PUSH1 0x1 PUSH1 0x40 SHL SUB DUP2 GT PUSH2 0x329 JUMPI DUP2 PUSH1 0x23 DUP3 ADD SLT ISZERO PUSH2 0x329 JUMPI DUP1 PUSH1 0x4 ADD CALLDATALOAD SWAP1 PUSH2 0x8F6 DUP3 PUSH2 0x6D5 JUMP JUMPDEST SWAP2 PUSH2 0x904 PUSH1 0x40 MLOAD SWAP4 DUP5 PUSH2 0x6B4 JUMP JUMPDEST DUP1 DUP4 MSTORE PUSH1 0x24 PUSH1 0x20 DUP5 ADD SWAP2 PUSH1 0x5 SHL DUP4 ADD ADD SWAP2 DUP5 DUP4 GT PUSH2 0x329 JUMPI PUSH1 0x24 DUP2 ADD SWAP2 JUMPDEST DUP4 DUP4 LT PUSH2 0x99E JUMPI POP POP POP POP SWAP2 PUSH1 0x24 CALLDATALOAD PUSH1 0x1 PUSH1 0x1 PUSH1 0x40 SHL SUB DUP2 GT PUSH2 0x329 JUMPI DUP3 PUSH2 0x94C SWAP2 PUSH1 0x4 ADD PUSH2 0x792 JUMP JUMPDEST SWAP2 PUSH1 0x44 CALLDATALOAD PUSH1 0x1 PUSH1 0x1 PUSH1 0xA0 SHL SUB DUP2 AND DUP2 SUB PUSH2 0x329 JUMPI SWAP2 PUSH1 0x64 CALLDATALOAD PUSH1 0x1 PUSH1 0x1 PUSH1 0x40 SHL SUB DUP2 GT PUSH2 0x329 JUMPI DUP3 PUSH2 0x97F SWAP2 PUSH1 0x4 ADD PUSH2 0x839 JUMP JUMPDEST SWAP2 PUSH1 0x84 CALLDATALOAD SWAP1 PUSH1 0x1 PUSH1 0x1 PUSH1 0x40 SHL SUB DUP3 GT PUSH2 0x329 JUMPI PUSH2 0x854 SWAP2 PUSH1 0x4 ADD PUSH2 0x857 JUMP JUMPDEST DUP3 CALLDATALOAD PUSH1 0x1 PUSH1 0x1 PUSH1 0x40 SHL SUB DUP2 GT PUSH2 0x329 JUMPI DUP3 ADD SWAP1 PUSH1 0xA0 DUP3 DUP9 SUB PUSH1 0x23 NOT ADD SLT PUSH2 0x329 JUMPI PUSH1 0x40 MLOAD SWAP2 PUSH2 0x9CC DUP4 PUSH2 0x683 JUMP JUMPDEST PUSH2 0x9D9 DUP9 PUSH1 0x24 DUP4 ADD PUSH2 0x700 JUMP JUMPDEST DUP4 MSTORE PUSH1 0x84 DUP2 ADD CALLDATALOAD PUSH1 0x1 PUSH1 0x1 PUSH1 0x40 SHL SUB DUP2 GT PUSH2 0x329 JUMPI PUSH1 0x24 SWAP1 DUP3 ADD ADD SWAP1 DUP9 PUSH1 0x1F DUP4 ADD SLT ISZERO PUSH2 0x329 JUMPI PUSH2 0xA12 DUP10 DUP4 PUSH1 0x20 PUSH1 0xA4 SWAP6 CALLDATALOAD SWAP2 ADD PUSH2 0x75B JUMP JUMPDEST PUSH1 0x20 DUP6 ADD MSTORE ADD CALLDATALOAD SWAP1 PUSH1 0xFF DUP3 AND DUP3 SUB PUSH2 0x329 JUMPI DUP3 PUSH1 0x20 SWAP4 SWAP3 PUSH1 0x40 DUP6 SWAP5 ADD MSTORE DUP2 MSTORE ADD SWAP3 ADD SWAP2 PUSH2 0x922 JUMP JUMPDEST PUSH1 0x0 JUMPDEST DUP4 DUP2 LT PUSH2 0xA4D JUMPI POP POP PUSH1 0x0 SWAP2 ADD MSTORE JUMP JUMPDEST DUP2 DUP2 ADD MLOAD DUP4 DUP3 ADD MSTORE PUSH1 0x20 ADD PUSH2 0xA3D JUMP JUMPDEST SWAP1 PUSH1 0x20 SWAP2 PUSH2 0xA76 DUP2 MLOAD DUP1 SWAP3 DUP2 DUP6 MSTORE DUP6 DUP1 DUP7 ADD SWAP2 ADD PUSH2 0xA3A JUMP JUMPDEST PUSH1 0x1F ADD PUSH1 0x1F NOT AND ADD ADD SWAP1 JUMP JUMPDEST PUSH1 0xA0 PUSH1 0x3 NOT DUP3 ADD SLT PUSH2 0x329 JUMPI PUSH1 0x4 CALLDATALOAD PUSH1 0x1 PUSH1 0x1 PUSH1 0x40 SHL SUB DUP2 GT PUSH2 0x329 JUMPI DUP2 PUSH2 0xAAC SWAP2 PUSH1 0x4 ADD PUSH2 0x857 JUMP JUMPDEST SWAP2 PUSH1 0x24 CALLDATALOAD PUSH1 0x1 PUSH1 0x1 PUSH1 0x40 SHL SUB DUP2 GT PUSH2 0x329 JUMPI DUP3 PUSH2 0x94C SWAP2 PUSH1 0x4 ADD PUSH2 0x792 JUMP JUMPDEST DUP1 MLOAD DUP3 LT ISZERO PUSH2 0xADF JUMPI PUSH1 0x20 SWAP2 PUSH1 0x5 SHL ADD ADD SWAP1 JUMP JUMPDEST PUSH4 0x4E487B71 PUSH1 0xE0 SHL PUSH1 0x0 MSTORE PUSH1 0x32 PUSH1 0x4 MSTORE PUSH1 0x24 PUSH1 0x0 REVERT JUMPDEST SWAP1 PUSH2 0xAFF DUP3 PUSH2 0x6D5 JUMP JUMPDEST PUSH2 0xB0C PUSH1 0x40 MLOAD SWAP2 DUP3 PUSH2 0x6B4 JUMP JUMPDEST DUP3 DUP2 MSTORE DUP1 SWAP3 PUSH2 0xB1D PUSH1 0x1F NOT SWAP2 PUSH2 0x6D5 JUMP JUMPDEST ADD SWAP1 PUSH1 0x20 CALLDATASIZE SWAP2 ADD CALLDATACOPY JUMP JUMPDEST RETURNDATASIZE ISZERO PUSH2 0xB52 JUMPI RETURNDATASIZE SWAP1 PUSH2 0xB38 DUP3 PUSH2 0x740 JUMP JUMPDEST SWAP2 PUSH2 0xB46 PUSH1 0x40 MLOAD SWAP4 DUP5 PUSH2 0x6B4 JUMP JUMPDEST DUP3 MSTORE RETURNDATASIZE PUSH1 0x0 PUSH1 0x20 DUP5 ADD RETURNDATACOPY JUMP JUMPDEST PUSH1 0x60 SWAP1 JUMP JUMPDEST PUSH1 0x1 PUSH1 0x1 PUSH1 0xA0 SHL SUB SWAP1 SWAP2 AND DUP2 MSTORE PUSH1 0x60 PUSH1 0x20 DUP3 ADD DUP2 SWAP1 MSTORE PUSH2 0x854 SWAP4 SWAP2 SWAP3 PUSH2 0xB7F SWAP2 DUP5 ADD SWAP1 PUSH2 0xA5D JUMP JUMPDEST SWAP2 PUSH1 0x40 DUP2 DUP5 SUB SWAP2 ADD MSTORE PUSH2 0xA5D JUMP JUMPDEST DUP2 DUP2 SUB SWAP3 SWAP2 PUSH1 0x0 SGT DUP1 ISZERO DUP3 DUP6 SGT AND SWAP2 DUP5 SLT AND OR PUSH2 0xBA6 JUMPI JUMP JUMPDEST PUSH4 0x4E487B71 PUSH1 0xE0 SHL PUSH1 0x0 MSTORE PUSH1 0x11 PUSH1 0x4 MSTORE PUSH1 0x24 PUSH1 0x0 REVERT JUMPDEST PUSH1 0x1 PUSH1 0x1 PUSH1 0xA0 SHL SUB SWAP2 DUP3 AND DUP2 MSTORE SWAP2 AND PUSH1 0x20 DUP3 ADD MSTORE PUSH1 0x40 DUP2 ADD SWAP2 SWAP1 SWAP2 MSTORE PUSH1 0x60 DUP2 ADD SWAP2 SWAP1 SWAP2 MSTORE PUSH1 0x80 ADD SWAP1 JUMP JUMPDEST PUSH1 0x2 PUSH1 0x0 SLOAD EQ PUSH2 0xBF7 JUMPI PUSH1 0x2 PUSH1 0x0 SSTORE JUMP JUMPDEST PUSH4 0x3EE5AEB5 PUSH1 0xE0 SHL PUSH1 0x0 MSTORE PUSH1 0x4 PUSH1 0x0 REVERT JUMPDEST DUP1 MLOAD PUSH1 0x20 ADD MLOAD PUSH1 0x1 PUSH1 0x1 PUSH1 0xA0 SHL SUB AND DUP1 PUSH2 0xD27 JUMPI POP PUSH1 0x40 MLOAD PUSH2 0xC2B PUSH1 0x40 DUP3 PUSH2 0x6B4 JUMP JUMPDEST PUSH1 0x3 DUP2 MSTORE PUSH3 0x8AA89 PUSH1 0xEB SHL PUSH1 0x20 DUP3 ADD MSTORE PUSH1 0x12 JUMPDEST PUSH1 0x40 MLOAD PUSH1 0x20 DUP2 ADD SWAP1 PUSH2 0xC6C PUSH1 0x20 DUP3 DUP7 MLOAD PUSH2 0xC5B DUP2 DUP8 DUP6 DUP12 ADD PUSH2 0xA3A JUMP JUMPDEST DUP2 ADD SUB ADD PUSH1 0x1F NOT DUP2 ADD DUP4 MSTORE DUP3 PUSH2 0x6B4 JUMP JUMPDEST MLOAD SWAP1 KECCAK256 SWAP2 PUSH1 0x20 DUP5 ADD SWAP3 DUP4 MLOAD PUSH1 0x40 MLOAD PUSH2 0xC94 PUSH1 0x20 DUP3 DUP2 PUSH2 0xC5B DUP2 DUP4 ADD SWAP7 DUP8 DUP2 MLOAD SWAP4 DUP5 SWAP3 ADD PUSH2 0xA3A JUMP JUMPDEST MLOAD SWAP1 KECCAK256 EQ DUP1 ISZERO SWAP1 PUSH2 0xD13 JUMPI JUMPDEST PUSH2 0xCAA JUMPI POP POP POP POP JUMP JUMPDEST PUSH2 0xD08 PUSH1 0xFF SWAP2 DUP3 PUSH1 0x40 PUSH1 0x1 DUP1 PUSH1 0xA0 SHL SUB PUSH1 0x20 DUP10 MLOAD ADD MLOAD AND SWAP7 MLOAD SWAP8 ADD MLOAD AND SWAP1 PUSH2 0xCF1 PUSH1 0x40 MLOAD SWAP8 DUP9 SWAP8 PUSH4 0x55918519 PUSH1 0xE0 SHL DUP10 MSTORE PUSH1 0x4 DUP10 ADD MSTORE PUSH1 0xA0 PUSH1 0x24 DUP10 ADD MSTORE PUSH1 0xA4 DUP9 ADD SWAP1 PUSH2 0xA5D JUMP JUMPDEST SWAP2 PUSH1 0x44 DUP8 ADD MSTORE PUSH1 0x3 NOT DUP7 DUP4 SUB ADD PUSH1 0x64 DUP8 ADD MSTORE PUSH2 0xA5D JUMP JUMPDEST SWAP2 AND PUSH1 0x84 DUP4 ADD MSTORE SUB SWAP1 REVERT JUMPDEST POP PUSH1 0xFF PUSH1 0x40 DUP6 ADD MLOAD AND PUSH1 0xFF DUP4 AND EQ ISZERO PUSH2 0xCA0 JUMP JUMPDEST PUSH1 0x0 PUSH1 0x4 SWAP2 PUSH1 0x40 MLOAD SWAP3 DUP4 DUP1 SWAP3 PUSH4 0x95D89B41 PUSH1 0xE0 SHL DUP3 MSTORE GAS STATICCALL SWAP1 DUP2 ISZERO PUSH2 0xDCC JUMPI PUSH1 0x0 SWAP2 PUSH2 0xDD8 JUMPI JUMPDEST POP DUP2 MLOAD PUSH1 0x20 SWAP1 DUP2 ADD MLOAD PUSH1 0x40 MLOAD PUSH4 0x313CE567 PUSH1 0xE0 SHL DUP2 MSTORE SWAP2 SWAP1 DUP3 SWAP1 PUSH1 0x4 SWAP1 DUP3 SWAP1 PUSH1 0x1 PUSH1 0x1 PUSH1 0xA0 SHL SUB AND GAS STATICCALL SWAP1 DUP2 ISZERO PUSH2 0xDCC JUMPI PUSH1 0x0 SWAP2 PUSH2 0xD8D JUMPI JUMPDEST POP PUSH2 0xC3E JUMP JUMPDEST PUSH1 0x20 DUP2 RETURNDATASIZE PUSH1 0x20 GT PUSH2 0xDC4 JUMPI JUMPDEST DUP2 PUSH2 0xDA6 PUSH1 0x20 SWAP4 DUP4 PUSH2 0x6B4 JUMP JUMPDEST DUP2 ADD SUB SLT PUSH2 0x312 JUMPI MLOAD SWAP1 PUSH1 0xFF DUP3 AND DUP3 SUB PUSH2 0xDC1 JUMPI POP CODESIZE PUSH2 0xD87 JUMP JUMPDEST DUP1 REVERT JUMPDEST RETURNDATASIZE SWAP2 POP PUSH2 0xD99 JUMP JUMPDEST PUSH1 0x40 MLOAD RETURNDATASIZE PUSH1 0x0 DUP3 RETURNDATACOPY RETURNDATASIZE SWAP1 REVERT JUMPDEST SWAP1 RETURNDATASIZE DUP1 DUP3 DUP5 RETURNDATACOPY PUSH2 0xDE8 DUP2 DUP5 PUSH2 0x6B4 JUMP JUMPDEST DUP3 ADD SWAP2 PUSH1 0x20 DUP2 DUP5 SUB SLT PUSH2 0x312 JUMPI DUP1 MLOAD SWAP1 PUSH1 0x1 PUSH1 0x1 PUSH1 0x40 SHL SUB DUP3 GT PUSH2 0xE52 JUMPI ADD DUP3 PUSH1 0x1F DUP3 ADD SLT ISZERO PUSH2 0x312 JUMPI DUP1 MLOAD SWAP2 PUSH2 0xE1E DUP4 PUSH2 0x740 JUMP JUMPDEST SWAP4 PUSH2 0xE2C PUSH1 0x40 MLOAD SWAP6 DUP7 PUSH2 0x6B4 JUMP JUMPDEST DUP4 DUP6 MSTORE PUSH1 0x20 DUP5 DUP5 ADD ADD GT PUSH2 0xDC1 JUMPI POP SWAP1 PUSH2 0xE4C SWAP2 PUSH1 0x20 DUP1 DUP6 ADD SWAP2 ADD PUSH2 0xA3A JUMP JUMPDEST CODESIZE PUSH2 0xD4E JUMP JUMPDEST DUP3 DUP1 REVERT JUMPDEST PUSH1 0x0 SWAP1 PUSH1 0x1 PUSH1 0x1 PUSH1 0xA0 SHL SUB AND DUP1 PUSH2 0xE6D JUMPI POP POP BALANCE SWAP1 JUMP JUMPDEST PUSH1 0x40 MLOAD PUSH4 0x70A08231 PUSH1 0xE0 SHL DUP2 MSTORE PUSH1 0x1 PUSH1 0x1 PUSH1 0xA0 SHL SUB SWAP1 SWAP4 AND PUSH1 0x4 DUP5 ADD MSTORE SWAP1 SWAP2 SWAP1 PUSH1 0x20 SWAP1 DUP3 SWAP1 PUSH1 0x24 SWAP1 DUP3 SWAP1 GAS STATICCALL SWAP2 DUP3 ISZERO PUSH2 0xEDC JUMPI DUP1 SWAP3 PUSH2 0xEAB JUMPI POP POP SWAP1 JUMP JUMPDEST SWAP1 SWAP2 POP PUSH1 0x20 DUP3 RETURNDATASIZE PUSH1 0x20 GT PUSH2 0xED4 JUMPI JUMPDEST DUP2 PUSH2 0xEC7 PUSH1 0x20 SWAP4 DUP4 PUSH2 0x6B4 JUMP JUMPDEST DUP2 ADD SUB SLT PUSH2 0xDC1 JUMPI POP MLOAD SWAP1 JUMP JUMPDEST RETURNDATASIZE SWAP2 POP PUSH2 0xEBA JUMP JUMPDEST PUSH1 0x40 MLOAD SWAP1 RETURNDATASIZE SWAP1 DUP3 RETURNDATACOPY RETURNDATASIZE SWAP1 REVERT JUMPDEST SWAP1 DUP2 PUSH1 0x20 SWAP2 SUB SLT PUSH2 0x329 JUMPI MLOAD DUP1 ISZERO ISZERO DUP2 SUB PUSH2 0x329 JUMPI SWAP1 JUMP JUMPDEST DUP1 MLOAD DUP1 MLOAD SWAP2 SWAP3 SWAP1 SWAP2 PUSH1 0x1 PUSH1 0x1 PUSH1 0xA0 SHL SUB SWAP1 DUP2 AND SWAP2 AND DUP2 SUB PUSH2 0x1002 JUMPI POP PUSH1 0x40 DUP2 ADD DUP1 MLOAD PUSH1 0x0 DUP2 SLT PUSH2 0xFEE JUMPI POP MLOAD PUSH1 0x20 SWAP3 SWAP1 SWAP3 ADD MLOAD ISZERO PUSH2 0xFAF JUMPI PUSH1 0x20 DUP2 DUP2 ADD MLOAD SWAP2 MLOAD PUSH1 0x40 MLOAD PUSH4 0xA9059CBB PUSH1 0xE0 SHL DUP2 MSTORE PUSH1 0x1 PUSH1 0x1 PUSH1 0xA0 SHL SUB SWAP2 DUP3 AND PUSH1 0x4 DUP3 ADD MSTORE PUSH1 0x24 DUP2 ADD SWAP5 SWAP1 SWAP5 MSTORE SWAP1 SWAP2 DUP4 SWAP2 AND DUP2 PUSH1 0x0 DUP2 PUSH1 0x44 DUP2 ADD JUMPDEST SUB SWAP3 GAS CALL DUP1 ISZERO PUSH2 0xDCC JUMPI PUSH2 0xF84 JUMPI POP JUMP JUMPDEST PUSH2 0xFA5 SWAP1 PUSH1 0x20 RETURNDATASIZE PUSH1 0x20 GT PUSH2 0xFA8 JUMPI JUMPDEST PUSH2 0xF9D DUP2 DUP4 PUSH2 0x6B4 JUMP JUMPDEST DUP2 ADD SWAP1 PUSH2 0xEE8 JUMP JUMPDEST POP JUMP JUMPDEST POP RETURNDATASIZE PUSH2 0xF93 JUMP JUMPDEST PUSH1 0x20 DUP2 DUP2 ADD MLOAD SWAP2 MLOAD PUSH1 0x40 MLOAD PUSH4 0x95EA7B3 PUSH1 0xE0 SHL DUP2 MSTORE PUSH1 0x1 PUSH1 0x1 PUSH1 0xA0 SHL SUB SWAP2 DUP3 AND PUSH1 0x4 DUP3 ADD MSTORE PUSH1 0x24 DUP2 ADD SWAP5 SWAP1 SWAP5 MSTORE SWAP1 SWAP2 DUP4 SWAP2 AND DUP2 PUSH1 0x0 DUP2 PUSH1 0x44 DUP2 ADD PUSH2 0xF73 JUMP JUMPDEST PUSH4 0x303B3029 PUSH1 0xE1 SHL PUSH1 0x0 MSTORE PUSH1 0x4 MSTORE PUSH1 0x24 PUSH1 0x0 REVERT JUMPDEST SWAP1 PUSH1 0x20 PUSH1 0x1 DUP1 PUSH1 0xA0 SHL SUB SWAP2 ADD MLOAD AND PUSH4 0x5876E711 PUSH1 0xE0 SHL PUSH1 0x0 MSTORE PUSH1 0x4 MSTORE PUSH1 0x24 MSTORE PUSH1 0x44 PUSH1 0x0 REVERT JUMPDEST PUSH1 0x20 DUP2 ADD MLOAD PUSH1 0x1 PUSH1 0x1 PUSH1 0xA0 SHL SUB AND DUP1 PUSH2 0x1077 JUMPI POP PUSH1 0x0 DUP1 DUP1 DUP1 SWAP4 PUSH1 0x40 PUSH1 0x1 DUP1 PUSH1 0xA0 SHL SUB DUP3 MLOAD AND SWAP2 ADD MLOAD SWAP1 DUP2 PUSH1 0xFF SAR DUP1 SWAP3 ADD SWAP2 DUP4 SWAP3 DUP2 DUP2 EQ PUSH2 0x106D JUMPI JUMPDEST XOR SWAP2 CALL ISZERO PUSH2 0xDCC JUMPI JUMP JUMPDEST PUSH2 0x8FC SWAP4 POP PUSH2 0x1063 JUMP JUMPDEST DUP2 MLOAD PUSH1 0x40 SWAP3 DUP4 ADD MLOAD SWAP3 MLOAD PUSH4 0xA9059CBB PUSH1 0xE0 SHL DUP2 MSTORE PUSH1 0x1 PUSH1 0x1 PUSH1 0xA0 SHL SUB SWAP1 SWAP2 AND PUSH1 0x4 DUP3 ADD MSTORE PUSH1 0xFF DUP4 SWAP1 SAR SWAP3 DUP4 ADD SWAP1 SWAP3 XOR PUSH1 0x24 DUP4 ADD MSTORE PUSH1 0x20 SWAP1 DUP3 SWAP1 DUP2 PUSH1 0x0 DUP2 PUSH1 0x44 DUP2 ADD PUSH2 0xF73 JUMP JUMPDEST PUSH1 0x24 CALLDATALOAD PUSH1 0x1 PUSH1 0x1 PUSH1 0xA0 SHL SUB DUP2 AND DUP2 SUB PUSH2 0x329 JUMPI SWAP1 JUMP JUMPDEST PUSH1 0x4 CALLDATALOAD PUSH1 0x1 PUSH1 0x1 PUSH1 0xA0 SHL SUB DUP2 AND DUP2 SUB PUSH2 0x329 JUMPI SWAP1 JUMP JUMPDEST PUSH1 0x20 DUP2 ADD DUP1 MLOAD SWAP1 SWAP2 SWAP1 PUSH1 0x0 SWAP1 PUSH1 0x1 PUSH1 0x1 PUSH1 0xA0 SHL SUB AND DUP1 PUSH2 0x115A JUMPI POP POP DUP1 MLOAD PUSH1 0x1 PUSH1 0x1 PUSH1 0xA0 SHL SUB AND BALANCE JUMPDEST PUSH1 0x40 DUP3 ADD MLOAD SWAP3 DUP4 PUSH1 0xFF SAR DUP1 DUP6 ADD XOR DUP3 LT PUSH2 0x112C JUMPI POP POP POP POP JUMP JUMPDEST MLOAD SWAP2 MLOAD PUSH1 0x40 MLOAD PUSH4 0xD87031F9 PUSH1 0xE0 SHL DUP2 MSTORE SWAP4 DUP5 SWAP4 PUSH2 0x171 SWAP4 SWAP3 PUSH1 0x1 PUSH1 0x1 PUSH1 0xA0 SHL SUB SWAP1 DUP2 AND SWAP2 AND PUSH1 0x4 DUP7 ADD PUSH2 0xBBC JUMP JUMPDEST PUSH1 0x20 PUSH1 0x1 DUP1 PUSH1 0xA0 SHL SUB DUP5 MLOAD AND PUSH1 0x24 PUSH1 0x40 MLOAD DUP1 SWAP5 DUP2 SWAP4 PUSH4 0x70A08231 PUSH1 0xE0 SHL DUP4 MSTORE PUSH1 0x4 DUP4 ADD MSTORE GAS STATICCALL SWAP2 DUP3 ISZERO PUSH2 0xEDC JUMPI DUP1 SWAP3 PUSH2 0x1195 JUMPI JUMPDEST POP POP PUSH2 0x1112 JUMP JUMPDEST SWAP1 SWAP2 POP PUSH1 0x20 DUP3 RETURNDATASIZE PUSH1 0x20 GT PUSH2 0x11C2 JUMPI JUMPDEST DUP2 PUSH2 0x11B1 PUSH1 0x20 SWAP4 DUP4 PUSH2 0x6B4 JUMP JUMPDEST DUP2 ADD SUB SLT PUSH2 0xDC1 JUMPI POP MLOAD CODESIZE DUP1 PUSH2 0x118E JUMP JUMPDEST RETURNDATASIZE SWAP2 POP PUSH2 0x11A4 JUMP INVALID LOG2 PUSH5 0x6970667358 0x22 SLT KECCAK256 CALLDATACOPY 0xAC 0xAC ADD SMOD PUSH18 0xF500108B8BAA0766250D90C5E298231AA46E SUB SLOAD PUSH7 0x221FD994766473 PUSH16 0x6C634300081B00330000000000000000 "
        },
        "methodIdentifiers": {
          "exposeBalanceCheckCalldata((address,address,int256))": "8f873b73",
          "proxyCall((address,address,int256)[],((address,address,int256),bool)[],address,bytes,(address,address,int256)[])": "ce9506f9",
          "proxyCallDiffs((address,address,int256)[],((address,address,int256),bool)[],address,bytes,(address,address,int256)[])": "890e3add",
          "proxyCallDiffsMeta(((address,address,int256),string,uint8)[],((address,address,int256),bool)[],address,bytes,(address,address,int256)[])": "86c62850",
          "proxyCallMeta(((address,address,int256),string,uint8)[],((address,address,int256),bool)[],address,bytes,(address,address,int256)[])": "d3113d8a"
        }
      },
      "userdoc": {
        "errors": {
          "CallFailed(address,bytes,bytes)": [
            {
              "notice": "Error thrown when a call fails"
            }
          ],
          "InsufficientBalance(address,address,int256,uint256)": [
            {
              "notice": "Error thrown when a balance is insufficient"
            }
          ],
          "InvalidMetadata(address,string,uint8,string,uint8)": [
            {
              "notice": "Error thrown when metadata doesn't match actual token properties"
            }
          ],
          "MaliciousApproveTarget(address,address)": [
            {
              "notice": "Error thrown when trying to approve/transfer to an address other than callTarget"
            }
          ],
          "NegativeApprovalAmount(int256)": [
            {
              "notice": "Error thrown when an approval amount is negative"
            }
          ],
          "UnexpectedBalanceDiff(address,address,int256,int256)": [
            {
              "notice": "Error when actual diff != expected"
            }
          ]
        },
        "kind": "user",
        "methods": {
          "proxyCall((address,address,int256)[],((address,address,int256),bool)[],address,bytes,(address,address,int256)[])": {
            "notice": "Proxy call to a target contract with specified post-balance checks"
          },
          "proxyCallDiffs((address,address,int256)[],((address,address,int256),bool)[],address,bytes,(address,address,int256)[])": {
            "notice": "Proxy call with balance diffs"
          },
          "proxyCallDiffsMeta(((address,address,int256),string,uint8)[],((address,address,int256),bool)[],address,bytes,(address,address,int256)[])": {
            "notice": "Proxy call with balance diffs provided in metadata"
          },
          "proxyCallMeta(((address,address,int256),string,uint8)[],((address,address,int256),bool)[],address,bytes,(address,address,int256)[])": {
            "notice": "Proxy call to a target contract with metadata"
          }
        },
        "notice": "Test helper exposing internal view checks for coverage",
        "version": 1
      }
    }
  }
}