{
  "_format": "hh-sol-artifact-1",
  "contractName": "BalanceProxy",
  "sourceName": "contracts/BalanceProxy.sol",
  "abi": [
    {
      "inputs": [
        {
          "internalType": "address",
          "name": "target",
          "type": "address"
        },
        {
          "internalType": "bytes",
          "name": "data",
          "type": "bytes"
        },
        {
          "internalType": "bytes",
          "name": "returnData",
          "type": "bytes"
        }
      ],
      "name": "CallFailed",
      "type": "error"
    },
    {
      "inputs": [
        {
          "internalType": "address",
          "name": "token",
          "type": "address"
        },
        {
          "internalType": "address",
          "name": "target",
          "type": "address"
        },
        {
          "internalType": "int256",
          "name": "balance",
          "type": "int256"
        },
        {
          "internalType": "uint256",
          "name": "actual",
          "type": "uint256"
        }
      ],
      "name": "InsufficientBalance",
      "type": "error"
    },
    {
      "inputs": [
        {
          "internalType": "address",
          "name": "token",
          "type": "address"
        },
        {
          "internalType": "string",
          "name": "expectedSymbol",
          "type": "string"
        },
        {
          "internalType": "uint8",
          "name": "expectedDecimals",
          "type": "uint8"
        },
        {
          "internalType": "string",
          "name": "actualSymbol",
          "type": "string"
        },
        {
          "internalType": "uint8",
          "name": "actualDecimals",
          "type": "uint8"
        }
      ],
      "name": "InvalidMetadata",
      "type": "error"
    },
    {
      "inputs": [
        {
          "internalType": "address",
          "name": "token",
          "type": "address"
        },
        {
          "internalType": "address",
          "name": "target",
          "type": "address"
        }
      ],
      "name": "MaliciousApproveTarget",
      "type": "error"
    },
    {
      "inputs": [
        {
          "internalType": "int256",
          "name": "amount",
          "type": "int256"
        }
      ],
      "name": "NegativeApprovalAmount",
      "type": "error"
    },
    {
      "inputs": [],
      "name": "ReentrancyGuardReentrantCall",
      "type": "error"
    },
    {
      "inputs": [
        {
          "internalType": "address",
          "name": "token",
          "type": "address"
        },
        {
          "internalType": "address",
          "name": "target",
          "type": "address"
        },
        {
          "internalType": "int256",
          "name": "expected",
          "type": "int256"
        },
        {
          "internalType": "int256",
          "name": "actual",
          "type": "int256"
        }
      ],
      "name": "UnexpectedBalanceDiff",
      "type": "error"
    },
    {
      "inputs": [
        {
          "components": [
            {
              "internalType": "address",
              "name": "target",
              "type": "address"
            },
            {
              "internalType": "address",
              "name": "token",
              "type": "address"
            },
            {
              "internalType": "int256",
              "name": "balance",
              "type": "int256"
            }
          ],
          "internalType": "struct IBalanceProxy.Balance[]",
          "name": "postBalances",
          "type": "tuple[]"
        },
        {
          "components": [
            {
              "components": [
                {
                  "internalType": "address",
                  "name": "target",
                  "type": "address"
                },
                {
                  "internalType": "address",
                  "name": "token",
                  "type": "address"
                },
                {
                  "internalType": "int256",
                  "name": "balance",
                  "type": "int256"
                }
              ],
              "internalType": "struct IBalanceProxy.Balance",
              "name": "balance",
              "type": "tuple"
            },
            {
              "internalType": "bool",
              "name": "useTransfer",
              "type": "bool"
            }
          ],
          "internalType": "struct IBalanceProxy.Approval[]",
          "name": "approvals",
          "type": "tuple[]"
        },
        {
          "internalType": "address",
          "name": "target",
          "type": "address"
        },
        {
          "internalType": "bytes",
          "name": "data",
          "type": "bytes"
        },
        {
          "components": [
            {
              "internalType": "address",
              "name": "target",
              "type": "address"
            },
            {
              "internalType": "address",
              "name": "token",
              "type": "address"
            },
            {
              "internalType": "int256",
              "name": "balance",
              "type": "int256"
            }
          ],
          "internalType": "struct IBalanceProxy.Balance[]",
          "name": "withdrawals",
          "type": "tuple[]"
        }
      ],
      "name": "proxyCall",
      "outputs": [
        {
          "internalType": "bytes",
          "name": "",
          "type": "bytes"
        }
      ],
      "stateMutability": "payable",
      "type": "function"
    },
    {
      "inputs": [
        {
          "components": [
            {
              "internalType": "address",
              "name": "target",
              "type": "address"
            },
            {
              "internalType": "address",
              "name": "token",
              "type": "address"
            },
            {
              "internalType": "int256",
              "name": "balance",
              "type": "int256"
            }
          ],
          "internalType": "struct IBalanceProxy.Balance[]",
          "name": "diffs",
          "type": "tuple[]"
        },
        {
          "components": [
            {
              "components": [
                {
                  "internalType": "address",
                  "name": "target",
                  "type": "address"
                },
                {
                  "internalType": "address",
                  "name": "token",
                  "type": "address"
                },
                {
                  "internalType": "int256",
                  "name": "balance",
                  "type": "int256"
                }
              ],
              "internalType": "struct IBalanceProxy.Balance",
              "name": "balance",
              "type": "tuple"
            },
            {
              "internalType": "bool",
              "name": "useTransfer",
              "type": "bool"
            }
          ],
          "internalType": "struct IBalanceProxy.Approval[]",
          "name": "approvals",
          "type": "tuple[]"
        },
        {
          "internalType": "address",
          "name": "target",
          "type": "address"
        },
        {
          "internalType": "bytes",
          "name": "data",
          "type": "bytes"
        },
        {
          "components": [
            {
              "internalType": "address",
              "name": "target",
              "type": "address"
            },
            {
              "internalType": "address",
              "name": "token",
              "type": "address"
            },
            {
              "internalType": "int256",
              "name": "balance",
              "type": "int256"
            }
          ],
          "internalType": "struct IBalanceProxy.Balance[]",
          "name": "withdrawals",
          "type": "tuple[]"
        }
      ],
      "name": "proxyCallDiffs",
      "outputs": [
        {
          "internalType": "bytes",
          "name": "",
          "type": "bytes"
        }
      ],
      "stateMutability": "payable",
      "type": "function"
    },
    {
      "inputs": [
        {
          "components": [
            {
              "components": [
                {
                  "internalType": "address",
                  "name": "target",
                  "type": "address"
                },
                {
                  "internalType": "address",
                  "name": "token",
                  "type": "address"
                },
                {
                  "internalType": "int256",
                  "name": "balance",
                  "type": "int256"
                }
              ],
              "internalType": "struct IBalanceProxy.Balance",
              "name": "balance",
              "type": "tuple"
            },
            {
              "internalType": "string",
              "name": "symbol",
              "type": "string"
            },
            {
              "internalType": "uint8",
              "name": "decimals",
              "type": "uint8"
            }
          ],
          "internalType": "struct BalanceMetadata[]",
          "name": "meta",
          "type": "tuple[]"
        },
        {
          "components": [
            {
              "components": [
                {
                  "internalType": "address",
                  "name": "target",
                  "type": "address"
                },
                {
                  "internalType": "address",
                  "name": "token",
                  "type": "address"
                },
                {
                  "internalType": "int256",
                  "name": "balance",
                  "type": "int256"
                }
              ],
              "internalType": "struct IBalanceProxy.Balance",
              "name": "balance",
              "type": "tuple"
            },
            {
              "internalType": "bool",
              "name": "useTransfer",
              "type": "bool"
            }
          ],
          "internalType": "struct IBalanceProxy.Approval[]",
          "name": "approvals",
          "type": "tuple[]"
        },
        {
          "internalType": "address",
          "name": "target",
          "type": "address"
        },
        {
          "internalType": "bytes",
          "name": "data",
          "type": "bytes"
        },
        {
          "components": [
            {
              "internalType": "address",
              "name": "target",
              "type": "address"
            },
            {
              "internalType": "address",
              "name": "token",
              "type": "address"
            },
            {
              "internalType": "int256",
              "name": "balance",
              "type": "int256"
            }
          ],
          "internalType": "struct IBalanceProxy.Balance[]",
          "name": "withdrawals",
          "type": "tuple[]"
        }
      ],
      "name": "proxyCallDiffsMeta",
      "outputs": [
        {
          "internalType": "bytes",
          "name": "",
          "type": "bytes"
        }
      ],
      "stateMutability": "payable",
      "type": "function"
    },
    {
      "inputs": [
        {
          "components": [
            {
              "components": [
                {
                  "internalType": "address",
                  "name": "target",
                  "type": "address"
                },
                {
                  "internalType": "address",
                  "name": "token",
                  "type": "address"
                },
                {
                  "internalType": "int256",
                  "name": "balance",
                  "type": "int256"
                }
              ],
              "internalType": "struct IBalanceProxy.Balance",
              "name": "balance",
              "type": "tuple"
            },
            {
              "internalType": "string",
              "name": "symbol",
              "type": "string"
            },
            {
              "internalType": "uint8",
              "name": "decimals",
              "type": "uint8"
            }
          ],
          "internalType": "struct BalanceMetadata[]",
          "name": "meta",
          "type": "tuple[]"
        },
        {
          "components": [
            {
              "components": [
                {
                  "internalType": "address",
                  "name": "target",
                  "type": "address"
                },
                {
                  "internalType": "address",
                  "name": "token",
                  "type": "address"
                },
                {
                  "internalType": "int256",
                  "name": "balance",
                  "type": "int256"
                }
              ],
              "internalType": "struct IBalanceProxy.Balance",
              "name": "balance",
              "type": "tuple"
            },
            {
              "internalType": "bool",
              "name": "useTransfer",
              "type": "bool"
            }
          ],
          "internalType": "struct IBalanceProxy.Approval[]",
          "name": "approvals",
          "type": "tuple[]"
        },
        {
          "internalType": "address",
          "name": "target",
          "type": "address"
        },
        {
          "internalType": "bytes",
          "name": "data",
          "type": "bytes"
        },
        {
          "components": [
            {
              "internalType": "address",
              "name": "target",
              "type": "address"
            },
            {
              "internalType": "address",
              "name": "token",
              "type": "address"
            },
            {
              "internalType": "int256",
              "name": "balance",
              "type": "int256"
            }
          ],
          "internalType": "struct IBalanceProxy.Balance[]",
          "name": "withdrawals",
          "type": "tuple[]"
        }
      ],
      "name": "proxyCallMeta",
      "outputs": [
        {
          "internalType": "bytes",
          "name": "",
          "type": "bytes"
        }
      ],
      "stateMutability": "payable",
      "type": "function"
    },
    {
      "stateMutability": "payable",
      "type": "receive"
    }
  ],
  "bytecode": "0x60808060405234601a57600160005561128f90816100208239f35b600080fdfe6080604052600436101561001b575b361561001957600080fd5b005b60003560e01c806386c6285014610575578063890e3add14610392578063ce9506f9146102eb5763d3113d8a0361000e57600060a03660031901126102e857600435906001600160401b0382116102e857366023830112156102e857816004013591610086836108da565b9261009460405194856108b9565b8084526024602085019160051b830101913683116102e65760248101915b83831061024257856024356001600160401b03811161023d576100d9903690600401610997565b6044356001600160a01b038116810361023d576064356001600160401b03811161023d5761010b903690600401610a3e565b906084356001600160401b03811161023d5761012b903690600401610a5c565b92610134610c98565b60005b855181101561015c578061015661015060019389610ba7565b51610cba565b01610137565b50838560005b835181101561018857806101828661017c60019488610ba7565b51610fb3565b01610162565b5091509260008082516020840134875af1926101a2610c03565b931561021c57505060005b83518110156101d257806101cc6101c660019387610ba7565b516110da565b016101ad565b509060005b82518110156101fd57806101f76101f060019386610ba7565b5151611170565b016101d7565b60016000556040516020808252819061021890820185610ae7565b0390f35b61023984604051938493630881f24f60e31b855260048501610c33565b0390fd5b600080fd5b82356001600160401b0381116102e257820160a060231982360301126102e2576040519061026f82610888565b61027c3660248301610905565b825260848101356001600160401b0381116102de5760249082010136601f820112156102de57906102b660a4923690602081359101610960565b6020840152013560ff811681036102da5760408201528152602092830192016100b2565b8680fd5b8780fd5b8580fd5b835b80fd5b6102f436610b0c565b9093610301939293610c98565b60005b8351811015610324578061031e8661017c60019488610ba7565b01610304565b5091509260008082516020840134875af19261033e610c03565b931561021c57505060005b835181101561036857806103626101c660019387610ba7565b01610349565b509060005b82518110156101fd578061038c61038660019386610ba7565b51611170565b0161036d565b61039b36610b0c565b9092936103a6610c98565b60009080516103b481610bd1565b925b818110610536575060005b87518110156103e157806103db8761017c6001948c610ba7565b016103c1565b5084908660008082516020840134875af1926103fb610c03565b931561021c57505060005b8551811015610425578061041f6101c660019389610ba7565b01610406565b508360005b82811061044c5760016000556040516020808252819061021890820187610ae7565b6104966104856001600160a01b036020610466858a610ba7565b510151166001600160a01b0361047c858a610ba7565b51511690610f09565b61048f8385610ba7565b5190610c69565b60406104a28388610ba7565b51015181126104b4575060010161042a565b8591906102399060406104f46001600160a01b0360206104d48789610ba7565b51015116946001600160a01b036104eb8289610ba7565b51511696610ba7565b510151604051637ec440e760e11b81526001600160a01b0394851660048201529490931660248501526044840192909252606483019190915281906084820190565b6001906105646001600160a01b0360206105508488610ba7565b51015116838060a01b0361047c8488610ba7565b61056e8287610ba7565b52016103b6565b600060a03660031901126102e857600435906001600160401b0382116102e857366023830112156102e8578160040135916105af836108da565b926105bd60405194856108b9565b8084526024602085019160051b830101913683116102e65760248101915b8383106107f057856024356001600160401b03811161023d57610602903690600401610997565b906044356001600160a01b038116810361023d576064356001600160401b03811161023d57610635903690600401610a3e565b916084356001600160401b03811161023d57610655903690600401610a5c565b9061065e610c98565b805160005b8181106107da575061067481610bd1565b9060005b81811061079e575060005b87518110156106a3578061069d8761017c6001948c610ba7565b01610683565b5084908660008082516020840134875af1926106bd610c03565b931561021c57505060005b85518110156106e757806106e16101c660019389610ba7565b016106c8565b508360005b82811061070e5760016000556040516020808252819061021890820187610ae7565b6107188183610ba7565b515160208101805182519192916107499161073f916001600160a01b039081169116610f09565b61048f858a610ba7565b60408201519283821261076257505050506001016106ec565b519151604051637ec440e760e11b81526001600160a01b0393841660048201529216602483015260448201929092526064810191909152608490fd5b806107c96107ae60019387610ba7565b51516020810151905160a085901b8590039081169116610f09565b6107d38286610ba7565b5201610678565b806107ea61015060019386610ba7565b01610663565b82356001600160401b0381116102e257820160a060231982360301126102e2576040519061081d82610888565b61082a3660248301610905565b825260848101356001600160401b0381116102de5760249082010136601f820112156102de579061086460a4923690602081359101610960565b6020840152013560ff811681036102da5760408201528152602092830192016105db565b606081019081106001600160401b038211176108a357604052565b634e487b7160e01b600052604160045260246000fd5b90601f801991011681019081106001600160401b038211176108a357604052565b6001600160401b0381116108a35760051b60200190565b35906001600160a01b038216820361023d57565b919082606091031261023d5760405161091d81610888565b604080829461092b816108f1565b8452610939602082016108f1565b60208501520135910152565b6001600160401b0381116108a357601f01601f191660200190565b92919261096c82610945565b9161097a60405193846108b9565b82948184528183011161023d578281602093846000960137010152565b9080601f8301121561023d578135916109af836108da565b926109bd60405194856108b9565b80845260208085019160071b8301019183831161023d57602001905b8282106109e7575050505090565b60808285031261023d5760405190604082018281106001600160401b038211176108a357604052610a188584610905565b8252606083013590811515820361023d57826020928360809501528152019101906109d9565b9080601f8301121561023d57816020610a5993359101610960565b90565b81601f8201121561023d578035610a72816108da565b92610a8060405194856108b9565b8184526020606081860193028401019281841161023d57602001915b838310610aaa575050505090565b6020606091610ab98486610905565b815201920191610a9c565b60005b838110610ad75750506000910152565b8181015183820152602001610ac7565b90602091610b0081518092818552858086019101610ac4565b601f01601f1916010190565b60a060031982011261023d576004356001600160401b03811161023d5781610b3691600401610a5c565b916024356001600160401b03811161023d5782610b5591600401610997565b916044356001600160a01b038116810361023d57916064356001600160401b03811161023d5782610b8891600401610a3e565b91608435906001600160401b03821161023d57610a5991600401610a5c565b8051821015610bbb5760209160051b010190565b634e487b7160e01b600052603260045260246000fd5b90610bdb826108da565b610be860405191826108b9565b8281528092610bf9601f19916108da565b0190602036910137565b3d15610c2e573d90610c1482610945565b91610c2260405193846108b9565b82523d6000602084013e565b606090565b6001600160a01b039091168152606060208201819052610a59939192610c5b91840190610ae7565b916040818403910152610ae7565b81810392916000138015828513169184121617610c8257565b634e487b7160e01b600052601160045260246000fd5b600260005414610ca9576002600055565b633ee5aeb560e01b60005260046000fd5b8051602001516001600160a01b031680610dd95750604051610cdd6040826108b9565b600381526208aa8960eb1b602082015260125b6040516020810190610d1e6020828651610d0d8187858b01610ac4565b81010301601f1981018352826108b9565b5190209160208401928351604051610d4660208281610d0d8183019687815193849201610ac4565b51902014801590610dc5575b610d5c5750505050565b610dba60ff9182604060018060a01b036020895101511696519701511690610da3604051978897635591851960e01b8952600489015260a0602489015260a4880190610ae7565b916044870152600319868303016064870152610ae7565b911660848301520390fd5b5060ff60408501511660ff83161415610d52565b6000600491604051928380926395d89b4160e01b82525afa908115610e7f57600091610e8b575b50815160209081015160405163313ce56760e01b81529190829060049082906001600160a01b03165afa908115610e7f57600091610e3f575b50610cf0565b6020813d602011610e77575b81610e58602093836108b9565b81010312610e7357519060ff821682036102e8575038610e39565b5080fd5b3d9150610e4b565b6040513d6000823e3d90fd5b903d8082843e610e9b81846108b9565b820191602081840312610e73578051906001600160401b038211610f05570182601f82011215610e7357805191610ed183610945565b93610edf60405195866108b9565b838552602084840101116102e8575090610eff9160208085019101610ac4565b38610e00565b8280fd5b6000906001600160a01b031680610f205750503190565b6040516370a0823160e01b81526001600160a01b039093166004840152909190602090829060249082905afa918215610f8f578092610f5e57505090565b9091506020823d602011610f87575b81610f7a602093836108b9565b810103126102e857505190565b3d9150610f6d565b604051903d90823e3d90fd5b9081602091031261023d5751801515810361023d5790565b80518051919290916001600160a01b03908116911681036110b55750604081018051600081126110a1575051602092909201511561106257602081810151915160405163a9059cbb60e01b81526001600160a01b0391821660048201526024810194909452909183911681600081604481015b03925af18015610e7f576110375750565b6110589060203d60201161105b575b61105081836108b9565b810190610f9b565b50565b503d611046565b602081810151915160405163095ea7b360e01b81526001600160a01b039182166004820152602481019490945290918391168160008160448101611026565b63303b302960e11b60005260045260246000fd5b90602060018060a01b0391015116635876e71160e01b60005260045260245260446000fd5b60208101516001600160a01b03168061112a5750600080808093604060018060a01b03825116910151908160ff1d809201918392818114611120575b1891f115610e7f57565b6108fc9350611116565b8151604092830151925163a9059cbb60e01b81526001600160a01b03909116600482015260ff83901d928301909218602483015260209082908160008160448101611026565b6020810180516000906001600160a01b0316806111e857505081516001600160a01b031631905b6040830151908160ff1d8083011883106111b15750505050565b51925160405163d87031f960e01b81526001600160a01b039485166004820152931660248401526044830152606482015260849150fd5b602060018060a01b038551166024604051809481936370a0823160e01b835260048301525afa918215610f8f578092611224575b505090611197565b9091506020823d602011611251575b81611240602093836108b9565b810103126102e8575051388061121c565b3d915061123356fea26469706673582212202e19e8cb246ca5763fd05e75bb5fcfcbda801ad5a0abf605bb9d4e74213868a464736f6c634300081b0033",
  "linkReferences": {},
  "deployedLinkReferences": {}
}