{
  "_format": "hh-sol-artifact-1",
  "contractName": "BalanceProxy",
  "sourceName": "contracts/BalanceProxy.sol",
  "abi": [
    {
      "inputs": [
        {
          "internalType": "address",
          "name": "target",
          "type": "address"
        },
        {
          "internalType": "bytes",
          "name": "data",
          "type": "bytes"
        }
      ],
      "name": "CallFailed",
      "type": "error"
    },
    {
      "inputs": [
        {
          "internalType": "address",
          "name": "token",
          "type": "address"
        },
        {
          "internalType": "address",
          "name": "target",
          "type": "address"
        },
        {
          "internalType": "uint256",
          "name": "balance",
          "type": "uint256"
        },
        {
          "internalType": "uint256",
          "name": "actual",
          "type": "uint256"
        }
      ],
      "name": "InsufficientBalance",
      "type": "error"
    },
    {
      "inputs": [
        {
          "components": [
            {
              "internalType": "address",
              "name": "target",
              "type": "address"
            },
            {
              "internalType": "address",
              "name": "token",
              "type": "address"
            },
            {
              "internalType": "uint256",
              "name": "balance",
              "type": "uint256"
            }
          ],
          "internalType": "struct IBalanceProxy.Balance[]",
          "name": "postBalances",
          "type": "tuple[]"
        },
        {
          "components": [
            {
              "internalType": "address",
              "name": "target",
              "type": "address"
            },
            {
              "internalType": "address",
              "name": "token",
              "type": "address"
            },
            {
              "internalType": "uint256",
              "name": "balance",
              "type": "uint256"
            }
          ],
          "internalType": "struct IBalanceProxy.Balance[]",
          "name": "preBalances",
          "type": "tuple[]"
        },
        {
          "components": [
            {
              "internalType": "address",
              "name": "target",
              "type": "address"
            },
            {
              "internalType": "address",
              "name": "token",
              "type": "address"
            },
            {
              "internalType": "uint256",
              "name": "balance",
              "type": "uint256"
            }
          ],
          "internalType": "struct IBalanceProxy.Balance[]",
          "name": "approvals",
          "type": "tuple[]"
        },
        {
          "internalType": "address",
          "name": "target",
          "type": "address"
        },
        {
          "internalType": "bytes",
          "name": "data",
          "type": "bytes"
        },
        {
          "components": [
            {
              "internalType": "address",
              "name": "target",
              "type": "address"
            },
            {
              "internalType": "address",
              "name": "token",
              "type": "address"
            },
            {
              "internalType": "uint256",
              "name": "balance",
              "type": "uint256"
            }
          ],
          "internalType": "struct IBalanceProxy.Balance[]",
          "name": "withdrawals",
          "type": "tuple[]"
        }
      ],
      "name": "proxyCall",
      "outputs": [
        {
          "internalType": "bytes",
          "name": "",
          "type": "bytes"
        }
      ],
      "stateMutability": "payable",
      "type": "function"
    },
    {
      "inputs": [
        {
          "components": [
            {
              "internalType": "address",
              "name": "target",
              "type": "address"
            },
            {
              "internalType": "address",
              "name": "token",
              "type": "address"
            },
            {
              "internalType": "uint256",
              "name": "balance",
              "type": "uint256"
            }
          ],
          "internalType": "struct IBalanceProxy.Balance[]",
          "name": "postBalances",
          "type": "tuple[]"
        },
        {
          "components": [
            {
              "internalType": "address",
              "name": "target",
              "type": "address"
            },
            {
              "internalType": "address",
              "name": "token",
              "type": "address"
            },
            {
              "internalType": "uint256",
              "name": "balance",
              "type": "uint256"
            }
          ],
          "internalType": "struct IBalanceProxy.Balance[]",
          "name": "preBalances",
          "type": "tuple[]"
        },
        {
          "components": [
            {
              "internalType": "address",
              "name": "target",
              "type": "address"
            },
            {
              "internalType": "address",
              "name": "token",
              "type": "address"
            },
            {
              "internalType": "uint256",
              "name": "balance",
              "type": "uint256"
            }
          ],
          "internalType": "struct IBalanceProxy.Balance[]",
          "name": "approvals",
          "type": "tuple[]"
        },
        {
          "internalType": "address",
          "name": "target",
          "type": "address"
        },
        {
          "internalType": "bytes",
          "name": "data",
          "type": "bytes"
        },
        {
          "components": [
            {
              "internalType": "address",
              "name": "target",
              "type": "address"
            },
            {
              "internalType": "address",
              "name": "token",
              "type": "address"
            },
            {
              "internalType": "uint256",
              "name": "balance",
              "type": "uint256"
            }
          ],
          "internalType": "struct IBalanceProxy.Balance[]",
          "name": "withdrawals",
          "type": "tuple[]"
        }
      ],
      "name": "proxyCallCalldata",
      "outputs": [
        {
          "internalType": "bytes",
          "name": "",
          "type": "bytes"
        }
      ],
      "stateMutability": "payable",
      "type": "function"
    },
    {
      "stateMutability": "payable",
      "type": "receive"
    }
  ],
  "bytecode": "0x6080604052348015600f57600080fd5b50610ec78061001f6000396000f3fe60806040526004361061002d5760003560e01c806351db8049146100395780638d0a4e101461006257600080fd5b3661003457005b600080fd5b61004c610047366004610a89565b610075565b6040516100599190610bcf565b60405180910390f35b61004c610070366004610c75565b6101e8565b606060005b86518110156100ad576100a587828151811061009857610098610d8d565b6020026020010151610351565b60010161007a565b5060005b85518110156100e4576100dc8682815181106100cf576100cf610d8d565b6020026020010151610442565b6001016100b1565b600080866001600160a01b031634876040516101009190610da3565b60006040518083038185875af1925050503d806000811461013d576040519150601f19603f3d011682016040523d82523d6000602084013e610142565b606091505b509150915081610172578686604051636c544f3360e01b8152600401610169929190610dbf565b60405180910390fd5b600092505b84518310156101ad576101a285848151811061019557610195610d8d565b602002602001015161055c565b600190920191610177565b600092505b89518310156101db576101d08a848151811061009857610098610d8d565b6001909201916101b2565b9998505050505050505050565b606060005b8981101561021d576102158b8b8381811061020a5761020a610d8d565b9050606002016105ed565b6001016101ed565b5060005b878110156102515761024989898381811061023e5761023e610d8d565b905060600201610727565b600101610221565b600080886001600160a01b031634898960405161026f929190610deb565b60006040518083038185875af1925050503d80600081146102ac576040519150601f19603f3d011682016040523d82523d6000602084013e6102b1565b606091505b5091509150816102da57888888604051636c544f3360e01b815260040161016993929190610dfb565b600092505b84831015610312576103078686858181106102fc576102fc610d8d565b905060600201610837565b6001909201916102df565b600092505b8d83101561033f576103348f8f8581811061020a5761020a610d8d565b600190920191610317565b9e9d5050505050505050505050505050565b60208101516000906001600160a01b0316156103dd57602082015182516040516370a0823160e01b81526001600160a01b0391821660048201529116906370a0823190602401602060405180830381865afa1580156103b4573d6000803e3d6000fd5b505050506040513d601f19601f820116820180604052508101906103d89190610e3b565b6103ea565b81516001600160a01b0316315b9050816040015181101561043e5760208201518251604080850151905163861da4bd60e01b81526001600160a01b039384166004820152929091166024830152604482015260648101829052608401610169565b5050565b60208101516001600160a01b03166104575750565b602081015160408083015190516323b872dd60e01b815233600482015230602482015260448101919091526001600160a01b03909116906323b872dd906064016020604051808303816000875af11580156104b6573d6000803e3d6000fd5b505050506040513d601f19601f820116820180604052508101906104da9190610e54565b5060208101518151604080840151905163095ea7b360e01b81526001600160a01b039283166004820152602481019190915291169063095ea7b3906044015b6020604051808303816000875af1158015610538573d6000803e3d6000fd5b505050506040513d601f19601f8201168201806040525081019061043e9190610e54565b60208101516001600160a01b03166105ab57805160408083015190516001600160a01b039092169181156108fc0291906000818181858888f1935050505015801561043e573d6000803e3d6000fd5b60208101518151604080840151905163a9059cbb60e01b81526001600160a01b039283166004820152602481019190915291169063a9059cbb90604401610519565b6000806106006040840160208501610e76565b6001600160a01b0316146106a65761061e6040830160208401610e76565b6001600160a01b03166370a082316106396020850185610e76565b6040516001600160e01b031960e084901b1681526001600160a01b039091166004820152602401602060405180830381865afa15801561067d573d6000803e3d6000fd5b505050506040513d601f19601f820116820180604052508101906106a19190610e3b565b6106be565b6106b36020830183610e76565b6001600160a01b0316315b9050816040013581101561043e576106dc6040830160208401610e76565b6106e96020840184610e76565b6040805163861da4bd60e01b81526001600160a01b039384166004820152929091166024830152830135604482015260648101829052608401610169565b60006107396040830160208401610e76565b6001600160a01b03160361074a5750565b61075a6040820160208301610e76565b604080516323b872dd60e01b81523360048201523060248201529083013560448201526001600160a01b0391909116906323b872dd906064016020604051808303816000875af11580156107b2573d6000803e3d6000fd5b505050506040513d601f19601f820116820180604052508101906107d69190610e54565b506107e76040820160208301610e76565b6001600160a01b031663095ea7b36108026020840184610e76565b604080516001600160e01b031960e085901b1681526001600160a01b0390921660048301528401356024820152604401610519565b60006108496040830160208401610e76565b6001600160a01b0316036108a0576108646020820182610e76565b6001600160a01b03166108fc82604001359081150290604051600060405180830381858888f1935050505015801561043e573d6000803e3d6000fd5b6108b06040820160208301610e76565b6001600160a01b031663a9059cbb6108026020840184610e76565b634e487b7160e01b600052604160045260246000fd5b604051606081016001600160401b0381118282101715610903576109036108cb565b60405290565b604051601f8201601f191681016001600160401b0381118282101715610931576109316108cb565b604052919050565b80356001600160a01b038116811461095057600080fd5b919050565b600082601f83011261096657600080fd5b81356001600160401b0381111561097f5761097f6108cb565b61098e60208260051b01610909565b808282526020820191506020606084028601019250858311156109b057600080fd5b602085015b83811015610a1057606081880312156109cd57600080fd5b6109d56108e1565b6109de82610939565b81526109ec60208301610939565b602082015260408201356040820152808452506020830192506060810190506109b5565b5095945050505050565b600082601f830112610a2b57600080fd5b81356001600160401b03811115610a4457610a446108cb565b610a57601f8201601f1916602001610909565b818152846020838601011115610a6c57600080fd5b816020850160208301376000918101602001919091529392505050565b60008060008060008060c08789031215610aa257600080fd5b86356001600160401b03811115610ab857600080fd5b610ac489828a01610955565b96505060208701356001600160401b03811115610ae057600080fd5b610aec89828a01610955565b95505060408701356001600160401b03811115610b0857600080fd5b610b1489828a01610955565b945050610b2360608801610939565b925060808701356001600160401b03811115610b3e57600080fd5b610b4a89828a01610a1a565b92505060a08701356001600160401b03811115610b6657600080fd5b610b7289828a01610955565b9150509295509295509295565b60005b83811015610b9a578181015183820152602001610b82565b50506000910152565b60008151808452610bbb816020860160208601610b7f565b601f01601f19169290920160200192915050565b602081526000610be26020830184610ba3565b9392505050565b60008083601f840112610bfb57600080fd5b5081356001600160401b03811115610c1257600080fd5b602083019150836020606083028501011115610c2d57600080fd5b9250929050565b60008083601f840112610c4657600080fd5b5081356001600160401b03811115610c5d57600080fd5b602083019150836020828501011115610c2d57600080fd5b600080600080600080600080600080600060c08c8e031215610c9657600080fd5b8b356001600160401b03811115610cac57600080fd5b610cb88e828f01610be9565b909c509a505060208c01356001600160401b03811115610cd757600080fd5b610ce38e828f01610be9565b909a5098505060408c01356001600160401b03811115610d0257600080fd5b610d0e8e828f01610be9565b9098509650610d21905060608d01610939565b945060808c01356001600160401b03811115610d3c57600080fd5b610d488e828f01610c34565b90955093505060a08c01356001600160401b03811115610d6757600080fd5b610d738e828f01610be9565b915080935050809150509295989b509295989b9093969950565b634e487b7160e01b600052603260045260246000fd5b60008251610db5818460208701610b7f565b9190910192915050565b6001600160a01b0383168152604060208201819052600090610de390830184610ba3565b949350505050565b8183823760009101908152919050565b6001600160a01b03841681526040602082018190528101829052818360608301376000818301606090810191909152601f909201601f1916010192915050565b600060208284031215610e4d57600080fd5b5051919050565b600060208284031215610e6657600080fd5b81518015158114610be257600080fd5b600060208284031215610e8857600080fd5b610be28261093956fea2646970667358221220e5cf1bc14279cba8075710cbceba4a7c36d995e9c8b7ae0b2ab1cd3669aacf4c64736f6c634300081b0033",
  "linkReferences": {},
  "deployedLinkReferences": {}
}