{
  "_format": "hh-sol-artifact-1",
  "contractName": "BalanceProxy",
  "sourceName": "contracts/BalanceProxy.sol",
  "abi": [
    {
      "inputs": [
        {
          "internalType": "address",
          "name": "target",
          "type": "address"
        },
        {
          "internalType": "bytes",
          "name": "data",
          "type": "bytes"
        }
      ],
      "name": "CallFailed",
      "type": "error"
    },
    {
      "inputs": [
        {
          "internalType": "address",
          "name": "token",
          "type": "address"
        },
        {
          "internalType": "address",
          "name": "target",
          "type": "address"
        },
        {
          "internalType": "uint256",
          "name": "balance",
          "type": "uint256"
        },
        {
          "internalType": "uint256",
          "name": "actual",
          "type": "uint256"
        }
      ],
      "name": "InsufficientBalance",
      "type": "error"
    },
    {
      "inputs": [
        {
          "components": [
            {
              "internalType": "address",
              "name": "target",
              "type": "address"
            },
            {
              "internalType": "address",
              "name": "token",
              "type": "address"
            },
            {
              "internalType": "uint256",
              "name": "balance",
              "type": "uint256"
            }
          ],
          "internalType": "struct IBalanceProxy.Balance[]",
          "name": "preBalances",
          "type": "tuple[]"
        },
        {
          "components": [
            {
              "internalType": "address",
              "name": "target",
              "type": "address"
            },
            {
              "internalType": "address",
              "name": "token",
              "type": "address"
            },
            {
              "internalType": "uint256",
              "name": "balance",
              "type": "uint256"
            }
          ],
          "internalType": "struct IBalanceProxy.Balance[]",
          "name": "approvals",
          "type": "tuple[]"
        },
        {
          "internalType": "address",
          "name": "target",
          "type": "address"
        },
        {
          "internalType": "bytes",
          "name": "data",
          "type": "bytes"
        },
        {
          "components": [
            {
              "internalType": "address",
              "name": "target",
              "type": "address"
            },
            {
              "internalType": "address",
              "name": "token",
              "type": "address"
            },
            {
              "internalType": "uint256",
              "name": "balance",
              "type": "uint256"
            }
          ],
          "internalType": "struct IBalanceProxy.Balance[]",
          "name": "withdrawals",
          "type": "tuple[]"
        },
        {
          "components": [
            {
              "internalType": "address",
              "name": "target",
              "type": "address"
            },
            {
              "internalType": "address",
              "name": "token",
              "type": "address"
            },
            {
              "internalType": "uint256",
              "name": "balance",
              "type": "uint256"
            }
          ],
          "internalType": "struct IBalanceProxy.Balance[]",
          "name": "postBalances",
          "type": "tuple[]"
        }
      ],
      "name": "proxyCall",
      "outputs": [
        {
          "internalType": "bytes",
          "name": "",
          "type": "bytes"
        }
      ],
      "stateMutability": "payable",
      "type": "function"
    },
    {
      "inputs": [
        {
          "components": [
            {
              "internalType": "address",
              "name": "target",
              "type": "address"
            },
            {
              "internalType": "address",
              "name": "token",
              "type": "address"
            },
            {
              "internalType": "uint256",
              "name": "balance",
              "type": "uint256"
            }
          ],
          "internalType": "struct IBalanceProxy.Balance[]",
          "name": "preBalances",
          "type": "tuple[]"
        },
        {
          "components": [
            {
              "internalType": "address",
              "name": "target",
              "type": "address"
            },
            {
              "internalType": "address",
              "name": "token",
              "type": "address"
            },
            {
              "internalType": "uint256",
              "name": "balance",
              "type": "uint256"
            }
          ],
          "internalType": "struct IBalanceProxy.Balance[]",
          "name": "approvals",
          "type": "tuple[]"
        },
        {
          "internalType": "address",
          "name": "target",
          "type": "address"
        },
        {
          "internalType": "bytes",
          "name": "data",
          "type": "bytes"
        },
        {
          "components": [
            {
              "internalType": "address",
              "name": "target",
              "type": "address"
            },
            {
              "internalType": "address",
              "name": "token",
              "type": "address"
            },
            {
              "internalType": "uint256",
              "name": "balance",
              "type": "uint256"
            }
          ],
          "internalType": "struct IBalanceProxy.Balance[]",
          "name": "withdrawals",
          "type": "tuple[]"
        },
        {
          "components": [
            {
              "internalType": "address",
              "name": "target",
              "type": "address"
            },
            {
              "internalType": "address",
              "name": "token",
              "type": "address"
            },
            {
              "internalType": "uint256",
              "name": "balance",
              "type": "uint256"
            }
          ],
          "internalType": "struct IBalanceProxy.Balance[]",
          "name": "postBalances",
          "type": "tuple[]"
        }
      ],
      "name": "proxyCallCalldata",
      "outputs": [
        {
          "internalType": "bytes",
          "name": "",
          "type": "bytes"
        }
      ],
      "stateMutability": "payable",
      "type": "function"
    },
    {
      "stateMutability": "payable",
      "type": "receive"
    }
  ],
  "bytecode": "0x6080604052348015600f57600080fd5b50610ec78061001f6000396000f3fe60806040526004361061002d5760003560e01c8063617d649014610039578063a1d8e85b1461006257600080fd5b3661003457005b600080fd5b61004c610047366004610973565b610075565b6040516100599190610adb565b60405180910390f35b61004c610070366004610c97565b6101e7565b606060005b8b8110156100aa576100a28d8d8381811061009757610097610d8d565b905060600201610351565b60010161007a565b5060005b898110156100de576100d68b8b838181106100cb576100cb610d8d565b90506060020161048f565b6001016100ae565b6000808a6001600160a01b0316348b8b6040516100fc929190610da3565b60006040518083038185875af1925050503d8060008114610139576040519150601f19603f3d011682016040523d82523d6000602084013e61013e565b606091505b509150915081610170578a8a8a604051636c544f3360e01b815260040161016793929190610db3565b60405180910390fd5b600092505b868310156101a85761019d88888581811061019257610192610d8d565b9050606002016105de565b600190920191610175565b600092505b848310156101d5576101ca86868581811061009757610097610d8d565b6001909201916101ad565b9e9d5050505050505050505050505050565b606060005b875181101561021f5761021788828151811061020a5761020a610d8d565b6020026020010151610672565b6001016101ec565b5060005b86518110156102565761024e87828151811061024157610241610d8d565b602002602001015161075f565b600101610223565b600080876001600160a01b031634886040516102729190610df3565b60006040518083038185875af1925050503d80600081146102af576040519150601f19603f3d011682016040523d82523d6000602084013e6102b4565b606091505b5091509150816102db578787604051636c544f3360e01b8152600401610167929190610e0f565b600092505b85518310156103165761030b8684815181106102fe576102fe610d8d565b602002602001015161083a565b6001909201916102e0565b600092505b84518310156103445761033985848151811061020a5761020a610d8d565b60019092019161031b565b9998505050505050505050565b6000806103646040840160208501610e3b565b6001600160a01b03161461040a576103826040830160208401610e3b565b6001600160a01b03166370a0823161039d6020850185610e3b565b6040516001600160e01b031960e084901b1681526001600160a01b039091166004820152602401602060405180830381865afa1580156103e1573d6000803e3d6000fd5b505050506040513d601f19601f820116820180604052508101906104059190610e56565b610422565b6104176020830183610e3b565b6001600160a01b0316315b9050816040013581101561048b576104406040830160208401610e3b565b61044d6020840184610e3b565b6040805163861da4bd60e01b81526001600160a01b039384166004820152929091166024830152830135604482015260648101829052608401610167565b5050565b60006104a16040830160208401610e3b565b6001600160a01b0316036104b25750565b6104c26040820160208301610e3b565b604080516323b872dd60e01b81523360048201523060248201529083013560448201526001600160a01b0391909116906323b872dd906064016020604051808303816000875af115801561051a573d6000803e3d6000fd5b505050506040513d601f19601f8201168201806040525081019061053e9190610e6f565b5061054f6040820160208301610e3b565b6001600160a01b031663095ea7b361056a6020840184610e3b565b604080516001600160e01b031960e085901b1681526001600160a01b03909216600483015284013560248201526044015b6020604051808303816000875af11580156105ba573d6000803e3d6000fd5b505050506040513d601f19601f8201168201806040525081019061048b9190610e6f565b60006105f06040830160208401610e3b565b6001600160a01b0316036106475761060b6020820182610e3b565b6001600160a01b03166108fc82604001359081150290604051600060405180830381858888f1935050505015801561048b573d6000803e3d6000fd5b6106576040820160208301610e3b565b6001600160a01b031663a9059cbb61056a6020840184610e3b565b60208101516000906001600160a01b0316156106fe57602082015182516040516370a0823160e01b81526001600160a01b0391821660048201529116906370a0823190602401602060405180830381865afa1580156106d5573d6000803e3d6000fd5b505050506040513d601f19601f820116820180604052508101906106f99190610e56565b61070b565b81516001600160a01b0316315b9050816040015181101561048b5760208201518251604080850151905163861da4bd60e01b81526001600160a01b039384166004820152929091166024830152604482015260648101829052608401610167565b60208101516001600160a01b03166107745750565b602081015160408083015190516323b872dd60e01b815233600482015230602482015260448101919091526001600160a01b03909116906323b872dd906064016020604051808303816000875af11580156107d3573d6000803e3d6000fd5b505050506040513d601f19601f820116820180604052508101906107f79190610e6f565b5060208101518151604080840151905163095ea7b360e01b81526001600160a01b039283166004820152602481019190915291169063095ea7b39060440161059b565b60208101516001600160a01b031661088957805160408083015190516001600160a01b039092169181156108fc0291906000818181858888f1935050505015801561048b573d6000803e3d6000fd5b60208101518151604080840151905163a9059cbb60e01b81526001600160a01b039283166004820152602481019190915291169063a9059cbb9060440161059b565b60008083601f8401126108dd57600080fd5b5081356001600160401b038111156108f457600080fd5b60208301915083602060608302850101111561090f57600080fd5b9250929050565b80356001600160a01b038116811461092d57600080fd5b919050565b60008083601f84011261094457600080fd5b5081356001600160401b0381111561095b57600080fd5b60208301915083602082850101111561090f57600080fd5b600080600080600080600080600080600060c08c8e03121561099457600080fd5b8b356001600160401b038111156109aa57600080fd5b6109b68e828f016108cb565b909c509a505060208c01356001600160401b038111156109d557600080fd5b6109e18e828f016108cb565b909a5098506109f4905060408d01610916565b965060608c01356001600160401b03811115610a0f57600080fd5b610a1b8e828f01610932565b90975095505060808c01356001600160401b03811115610a3a57600080fd5b610a468e828f016108cb565b90955093505060a08c01356001600160401b03811115610a6557600080fd5b610a718e828f016108cb565b915080935050809150509295989b509295989b9093969950565b60005b83811015610aa6578181015183820152602001610a8e565b50506000910152565b60008151808452610ac7816020860160208601610a8b565b601f01601f19169290920160200192915050565b602081526000610aee6020830184610aaf565b9392505050565b634e487b7160e01b600052604160045260246000fd5b604051606081016001600160401b0381118282101715610b2d57610b2d610af5565b60405290565b604051601f8201601f191681016001600160401b0381118282101715610b5b57610b5b610af5565b604052919050565b600082601f830112610b7457600080fd5b81356001600160401b03811115610b8d57610b8d610af5565b610b9c60208260051b01610b33565b80828252602082019150602060608402860101925085831115610bbe57600080fd5b602085015b83811015610c1e5760608188031215610bdb57600080fd5b610be3610b0b565b610bec82610916565b8152610bfa60208301610916565b60208201526040820135604082015280845250602083019250606081019050610bc3565b5095945050505050565b600082601f830112610c3957600080fd5b81356001600160401b03811115610c5257610c52610af5565b610c65601f8201601f1916602001610b33565b818152846020838601011115610c7a57600080fd5b816020850160208301376000918101602001919091529392505050565b60008060008060008060c08789031215610cb057600080fd5b86356001600160401b03811115610cc657600080fd5b610cd289828a01610b63565b96505060208701356001600160401b03811115610cee57600080fd5b610cfa89828a01610b63565b955050610d0960408801610916565b935060608701356001600160401b03811115610d2457600080fd5b610d3089828a01610c28565b93505060808701356001600160401b03811115610d4c57600080fd5b610d5889828a01610b63565b92505060a08701356001600160401b03811115610d7457600080fd5b610d8089828a01610b63565b9150509295509295509295565b634e487b7160e01b600052603260045260246000fd5b8183823760009101908152919050565b6001600160a01b03841681526040602082018190528101829052818360608301376000818301606090810191909152601f909201601f1916010192915050565b60008251610e05818460208701610a8b565b9190910192915050565b6001600160a01b0383168152604060208201819052600090610e3390830184610aaf565b949350505050565b600060208284031215610e4d57600080fd5b610aee82610916565b600060208284031215610e6857600080fd5b5051919050565b600060208284031215610e8157600080fd5b81518015158114610aee57600080fdfea26469706673582212207940741cdcf65eab538551b30dec228af22e636bb7f77344d5a1f9b8d5d5d98964736f6c634300081b0033",
  "linkReferences": {},
  "deployedLinkReferences": {}
}