{
  "_format": "hh-sol-artifact-1",
  "contractName": "BalanceProxy",
  "sourceName": "contracts/BalanceProxy.sol",
  "abi": [
    {
      "inputs": [
        {
          "internalType": "address",
          "name": "target",
          "type": "address"
        },
        {
          "internalType": "bytes",
          "name": "data",
          "type": "bytes"
        }
      ],
      "name": "CallFailed",
      "type": "error"
    },
    {
      "inputs": [
        {
          "internalType": "address",
          "name": "token",
          "type": "address"
        },
        {
          "internalType": "address",
          "name": "target",
          "type": "address"
        },
        {
          "internalType": "uint256",
          "name": "balance",
          "type": "uint256"
        },
        {
          "internalType": "uint256",
          "name": "actual",
          "type": "uint256"
        }
      ],
      "name": "InsufficientBalance",
      "type": "error"
    },
    {
      "inputs": [
        {
          "internalType": "address",
          "name": "token",
          "type": "address"
        },
        {
          "internalType": "string",
          "name": "expectedSymbol",
          "type": "string"
        },
        {
          "internalType": "uint8",
          "name": "expectedDecimals",
          "type": "uint8"
        },
        {
          "internalType": "string",
          "name": "actualSymbol",
          "type": "string"
        },
        {
          "internalType": "uint8",
          "name": "actualDecimals",
          "type": "uint8"
        }
      ],
      "name": "InvalidMetadata",
      "type": "error"
    },
    {
      "inputs": [
        {
          "components": [
            {
              "internalType": "address",
              "name": "target",
              "type": "address"
            },
            {
              "internalType": "address",
              "name": "token",
              "type": "address"
            },
            {
              "internalType": "uint256",
              "name": "balance",
              "type": "uint256"
            }
          ],
          "internalType": "struct IBalanceProxy.Balance[]",
          "name": "postBalances",
          "type": "tuple[]"
        },
        {
          "components": [
            {
              "internalType": "address",
              "name": "target",
              "type": "address"
            },
            {
              "internalType": "address",
              "name": "token",
              "type": "address"
            },
            {
              "internalType": "uint256",
              "name": "balance",
              "type": "uint256"
            }
          ],
          "internalType": "struct IBalanceProxy.Balance[]",
          "name": "preBalances",
          "type": "tuple[]"
        },
        {
          "components": [
            {
              "internalType": "address",
              "name": "target",
              "type": "address"
            },
            {
              "internalType": "address",
              "name": "token",
              "type": "address"
            },
            {
              "internalType": "uint256",
              "name": "balance",
              "type": "uint256"
            }
          ],
          "internalType": "struct IBalanceProxy.Balance[]",
          "name": "approvals",
          "type": "tuple[]"
        },
        {
          "internalType": "address",
          "name": "target",
          "type": "address"
        },
        {
          "internalType": "bytes",
          "name": "data",
          "type": "bytes"
        },
        {
          "components": [
            {
              "internalType": "address",
              "name": "target",
              "type": "address"
            },
            {
              "internalType": "address",
              "name": "token",
              "type": "address"
            },
            {
              "internalType": "uint256",
              "name": "balance",
              "type": "uint256"
            }
          ],
          "internalType": "struct IBalanceProxy.Balance[]",
          "name": "withdrawals",
          "type": "tuple[]"
        }
      ],
      "name": "proxyCall",
      "outputs": [
        {
          "internalType": "bytes",
          "name": "",
          "type": "bytes"
        }
      ],
      "stateMutability": "payable",
      "type": "function"
    },
    {
      "inputs": [
        {
          "components": [
            {
              "internalType": "address",
              "name": "target",
              "type": "address"
            },
            {
              "internalType": "address",
              "name": "token",
              "type": "address"
            },
            {
              "internalType": "uint256",
              "name": "balance",
              "type": "uint256"
            }
          ],
          "internalType": "struct IBalanceProxy.Balance[]",
          "name": "postBalances",
          "type": "tuple[]"
        },
        {
          "components": [
            {
              "internalType": "address",
              "name": "target",
              "type": "address"
            },
            {
              "internalType": "address",
              "name": "token",
              "type": "address"
            },
            {
              "internalType": "uint256",
              "name": "balance",
              "type": "uint256"
            }
          ],
          "internalType": "struct IBalanceProxy.Balance[]",
          "name": "preBalances",
          "type": "tuple[]"
        },
        {
          "components": [
            {
              "internalType": "address",
              "name": "target",
              "type": "address"
            },
            {
              "internalType": "address",
              "name": "token",
              "type": "address"
            },
            {
              "internalType": "uint256",
              "name": "balance",
              "type": "uint256"
            }
          ],
          "internalType": "struct IBalanceProxy.Balance[]",
          "name": "approvals",
          "type": "tuple[]"
        },
        {
          "internalType": "address",
          "name": "target",
          "type": "address"
        },
        {
          "internalType": "bytes",
          "name": "data",
          "type": "bytes"
        },
        {
          "components": [
            {
              "internalType": "address",
              "name": "target",
              "type": "address"
            },
            {
              "internalType": "address",
              "name": "token",
              "type": "address"
            },
            {
              "internalType": "uint256",
              "name": "balance",
              "type": "uint256"
            }
          ],
          "internalType": "struct IBalanceProxy.Balance[]",
          "name": "withdrawals",
          "type": "tuple[]"
        }
      ],
      "name": "proxyCallCalldata",
      "outputs": [
        {
          "internalType": "bytes",
          "name": "",
          "type": "bytes"
        }
      ],
      "stateMutability": "payable",
      "type": "function"
    },
    {
      "inputs": [
        {
          "components": [
            {
              "components": [
                {
                  "internalType": "address",
                  "name": "target",
                  "type": "address"
                },
                {
                  "internalType": "address",
                  "name": "token",
                  "type": "address"
                },
                {
                  "internalType": "uint256",
                  "name": "balance",
                  "type": "uint256"
                }
              ],
              "internalType": "struct IBalanceProxy.Balance",
              "name": "balance",
              "type": "tuple"
            },
            {
              "internalType": "string",
              "name": "symbol",
              "type": "string"
            },
            {
              "internalType": "uint8",
              "name": "decimals",
              "type": "uint8"
            }
          ],
          "internalType": "struct IBalanceProxy.BalanceMetadata[]",
          "name": "postBalances",
          "type": "tuple[]"
        },
        {
          "components": [
            {
              "components": [
                {
                  "internalType": "address",
                  "name": "target",
                  "type": "address"
                },
                {
                  "internalType": "address",
                  "name": "token",
                  "type": "address"
                },
                {
                  "internalType": "uint256",
                  "name": "balance",
                  "type": "uint256"
                }
              ],
              "internalType": "struct IBalanceProxy.Balance",
              "name": "balance",
              "type": "tuple"
            },
            {
              "internalType": "string",
              "name": "symbol",
              "type": "string"
            },
            {
              "internalType": "uint8",
              "name": "decimals",
              "type": "uint8"
            }
          ],
          "internalType": "struct IBalanceProxy.BalanceMetadata[]",
          "name": "preBalances",
          "type": "tuple[]"
        },
        {
          "components": [
            {
              "components": [
                {
                  "internalType": "address",
                  "name": "target",
                  "type": "address"
                },
                {
                  "internalType": "address",
                  "name": "token",
                  "type": "address"
                },
                {
                  "internalType": "uint256",
                  "name": "balance",
                  "type": "uint256"
                }
              ],
              "internalType": "struct IBalanceProxy.Balance",
              "name": "balance",
              "type": "tuple"
            },
            {
              "internalType": "string",
              "name": "symbol",
              "type": "string"
            },
            {
              "internalType": "uint8",
              "name": "decimals",
              "type": "uint8"
            }
          ],
          "internalType": "struct IBalanceProxy.BalanceMetadata[]",
          "name": "approvals",
          "type": "tuple[]"
        },
        {
          "internalType": "address",
          "name": "target",
          "type": "address"
        },
        {
          "internalType": "bytes",
          "name": "data",
          "type": "bytes"
        },
        {
          "components": [
            {
              "components": [
                {
                  "internalType": "address",
                  "name": "target",
                  "type": "address"
                },
                {
                  "internalType": "address",
                  "name": "token",
                  "type": "address"
                },
                {
                  "internalType": "uint256",
                  "name": "balance",
                  "type": "uint256"
                }
              ],
              "internalType": "struct IBalanceProxy.Balance",
              "name": "balance",
              "type": "tuple"
            },
            {
              "internalType": "string",
              "name": "symbol",
              "type": "string"
            },
            {
              "internalType": "uint8",
              "name": "decimals",
              "type": "uint8"
            }
          ],
          "internalType": "struct IBalanceProxy.BalanceMetadata[]",
          "name": "withdrawals",
          "type": "tuple[]"
        }
      ],
      "name": "proxyCallMetadata",
      "outputs": [
        {
          "internalType": "bytes",
          "name": "",
          "type": "bytes"
        }
      ],
      "stateMutability": "payable",
      "type": "function"
    },
    {
      "inputs": [
        {
          "components": [
            {
              "components": [
                {
                  "internalType": "address",
                  "name": "target",
                  "type": "address"
                },
                {
                  "internalType": "address",
                  "name": "token",
                  "type": "address"
                },
                {
                  "internalType": "uint256",
                  "name": "balance",
                  "type": "uint256"
                }
              ],
              "internalType": "struct IBalanceProxy.Balance",
              "name": "balance",
              "type": "tuple"
            },
            {
              "internalType": "string",
              "name": "symbol",
              "type": "string"
            },
            {
              "internalType": "uint8",
              "name": "decimals",
              "type": "uint8"
            }
          ],
          "internalType": "struct IBalanceProxy.BalanceMetadata[]",
          "name": "postBalances",
          "type": "tuple[]"
        },
        {
          "components": [
            {
              "components": [
                {
                  "internalType": "address",
                  "name": "target",
                  "type": "address"
                },
                {
                  "internalType": "address",
                  "name": "token",
                  "type": "address"
                },
                {
                  "internalType": "uint256",
                  "name": "balance",
                  "type": "uint256"
                }
              ],
              "internalType": "struct IBalanceProxy.Balance",
              "name": "balance",
              "type": "tuple"
            },
            {
              "internalType": "string",
              "name": "symbol",
              "type": "string"
            },
            {
              "internalType": "uint8",
              "name": "decimals",
              "type": "uint8"
            }
          ],
          "internalType": "struct IBalanceProxy.BalanceMetadata[]",
          "name": "preBalances",
          "type": "tuple[]"
        },
        {
          "components": [
            {
              "components": [
                {
                  "internalType": "address",
                  "name": "target",
                  "type": "address"
                },
                {
                  "internalType": "address",
                  "name": "token",
                  "type": "address"
                },
                {
                  "internalType": "uint256",
                  "name": "balance",
                  "type": "uint256"
                }
              ],
              "internalType": "struct IBalanceProxy.Balance",
              "name": "balance",
              "type": "tuple"
            },
            {
              "internalType": "string",
              "name": "symbol",
              "type": "string"
            },
            {
              "internalType": "uint8",
              "name": "decimals",
              "type": "uint8"
            }
          ],
          "internalType": "struct IBalanceProxy.BalanceMetadata[]",
          "name": "approvals",
          "type": "tuple[]"
        },
        {
          "internalType": "address",
          "name": "target",
          "type": "address"
        },
        {
          "internalType": "bytes",
          "name": "data",
          "type": "bytes"
        },
        {
          "components": [
            {
              "components": [
                {
                  "internalType": "address",
                  "name": "target",
                  "type": "address"
                },
                {
                  "internalType": "address",
                  "name": "token",
                  "type": "address"
                },
                {
                  "internalType": "uint256",
                  "name": "balance",
                  "type": "uint256"
                }
              ],
              "internalType": "struct IBalanceProxy.Balance",
              "name": "balance",
              "type": "tuple"
            },
            {
              "internalType": "string",
              "name": "symbol",
              "type": "string"
            },
            {
              "internalType": "uint8",
              "name": "decimals",
              "type": "uint8"
            }
          ],
          "internalType": "struct IBalanceProxy.BalanceMetadata[]",
          "name": "withdrawals",
          "type": "tuple[]"
        }
      ],
      "name": "proxyCallMetadataCalldata",
      "outputs": [
        {
          "internalType": "bytes",
          "name": "",
          "type": "bytes"
        }
      ],
      "stateMutability": "payable",
      "type": "function"
    },
    {
      "stateMutability": "payable",
      "type": "receive"
    }
  ],
  "bytecode": "0x6080604052348015600f57600080fd5b50611bc78061001f6000396000f3fe6080604052600436106100435760003560e01c806328390a5e1461004f57806351db8049146100785780638d0a4e101461008b578063cfe745431461009e57600080fd5b3661004a57005b600080fd5b61006261005d366004611310565b6100b1565b60405161006f9190611456565b60405180910390f35b6100626100863660046114d1565b610291565b610062610099366004611646565b6103ee565b6100626100ac3660046117a2565b610557565b606060005b865181101561010f576100e18782815181106100d4576100d46118a0565b602002602001015161073d565b6101078782815181106100f6576100f66118a0565b6020026020010151600001516108fe565b6001016100b6565b5060005b855181101561015f576101318682815181106100d4576100d46118a0565b610157868281518110610146576101466118a0565b6020026020010151600001516109ef565b600101610113565b600080866001600160a01b0316348760405161017b91906118b6565b60006040518083038185875af1925050503d80600081146101b8576040519150601f19603f3d011682016040523d82523d6000602084013e6101bd565b606091505b5091509150816101ed578686604051636c544f3360e01b81526004016101e49291906118d2565b60405180910390fd5b600092505b8451831015610241576102108584815181106100d4576100d46118a0565b610236858481518110610225576102256118a0565b602002602001015160000151610b09565b6001909201916101f2565b600092505b8951831015610284576102648a84815181106100d4576100d46118a0565b6102798a84815181106100f6576100f66118a0565b600190920191610246565b9998505050505050505050565b606060005b86518110156102c9576102c18782815181106102b4576102b46118a0565b60200260200101516108fe565b600101610296565b5060005b8551811015610300576102f88682815181106102eb576102eb6118a0565b60200260200101516109ef565b6001016102cd565b600080866001600160a01b0316348760405161031c91906118b6565b60006040518083038185875af1925050503d8060008114610359576040519150601f19603f3d011682016040523d82523d6000602084013e61035e565b606091505b509150915081610385578686604051636c544f3360e01b81526004016101e49291906118d2565b600092505b84518310156103c0576103b58584815181106103a8576103a86118a0565b6020026020010151610b09565b60019092019161038a565b600092505b8951831015610284576103e38a84815181106102b4576102b46118a0565b6001909201916103c5565b606060005b898110156104235761041b8b8b83818110610410576104106118a0565b905060600201610b9d565b6001016103f3565b5060005b878110156104575761044f898983818110610444576104446118a0565b905060600201610cd7565b600101610427565b600080886001600160a01b03163489896040516104759291906118fe565b60006040518083038185875af1925050503d80600081146104b2576040519150601f19603f3d011682016040523d82523d6000602084013e6104b7565b606091505b5091509150816104e057888888604051636c544f3360e01b81526004016101e493929190611937565b600092505b848310156105185761050d868685818110610502576105026118a0565b905060600201610de7565b6001909201916104e5565b600092505b8d8310156105455761053a8f8f85818110610410576104106118a0565b60019092019161051d565b9e9d5050505050505050505050505050565b606060005b898110156105c4576105908b8b83818110610579576105796118a0565b905060200281019061058b9190611965565b610e7b565b6105bc8b8b838181106105a5576105a56118a0565b90506020028101906105b79190611965565b610b9d565b60010161055c565b5060005b87811015610619576105e5898983818110610579576105796118a0565b6106118989838181106105fa576105fa6118a0565b905060200281019061060c9190611965565b610cd7565b6001016105c8565b600080886001600160a01b03163489896040516106379291906118fe565b60006040518083038185875af1925050503d8060008114610674576040519150601f19603f3d011682016040523d82523d6000602084013e610679565b606091505b5091509150816106a257888888604051636c544f3360e01b81526004016101e493929190611937565b600092505b848310156106fb576106c4868685818110610579576105796118a0565b6106f08686858181106106d9576106d96118a0565b90506020028101906106eb9190611965565b610de7565b6001909201916106a7565b600092505b8d8310156105455761071d8f8f85818110610579576105796118a0565b6107328f8f858181106105a5576105a56118a0565b600190920191610700565b8051602001516060906000906001600160a01b031661077957505060408051808201909152600381526208aa8960eb1b60208201526012610856565b8260000151602001516001600160a01b03166395d89b416040518163ffffffff1660e01b8152600401600060405180830381865afa1580156107bf573d6000803e3d6000fd5b505050506040513d6000823e601f3d908101601f191682016040526107e7919081019061197b565b91508260000151602001516001600160a01b031663313ce5676040518163ffffffff1660e01b8152600401602060405180830381865afa15801561082f573d6000803e3d6000fd5b505050506040513d601f19601f8201168201806040525081019061085391906119e8565b90505b60208084015160405161086992016118b6565b60405160208183030381529060405261088190611a05565b8260405160200161089291906118b6565b6040516020818303038152906040526108aa90611a05565b1415806108c15750826040015160ff168160ff1614155b156108f957826000015160200151836020015184604001518484604051635591851960e01b81526004016101e4959493929190611a2c565b505050565b60208101516000906001600160a01b03161561098a57602082015182516040516370a0823160e01b81526001600160a01b0391821660048201529116906370a0823190602401602060405180830381865afa158015610961573d6000803e3d6000fd5b505050506040513d601f19601f820116820180604052508101906109859190611a81565b610997565b81516001600160a01b0316315b905081604001518110156109eb5760208201518251604080850151905163861da4bd60e01b81526001600160a01b0393841660048201529290911660248301526044820152606481018290526084016101e4565b5050565b60208101516001600160a01b0316610a045750565b602081015160408083015190516323b872dd60e01b815233600482015230602482015260448101919091526001600160a01b03909116906323b872dd906064016020604051808303816000875af1158015610a63573d6000803e3d6000fd5b505050506040513d601f19601f82011682018060405250810190610a879190611a9a565b5060208101518151604080840151905163095ea7b360e01b81526001600160a01b039283166004820152602481019190915291169063095ea7b3906044015b6020604051808303816000875af1158015610ae5573d6000803e3d6000fd5b505050506040513d601f19601f820116820180604052508101906109eb9190611a9a565b60208101516001600160a01b0316610b5857805160408083015190516001600160a01b039092169181156108fc0291906000818181858888f193505050501580156109eb573d6000803e3d6000fd5b60208101518151604080840151905163a9059cbb60e01b81526001600160a01b039283166004820152602481019190915291169063a9059cbb90604401610ac6565b50565b600080610bb06040840160208501611abc565b6001600160a01b031614610c5657610bce6040830160208401611abc565b6001600160a01b03166370a08231610be96020850185611abc565b6040516001600160e01b031960e084901b1681526001600160a01b039091166004820152602401602060405180830381865afa158015610c2d573d6000803e3d6000fd5b505050506040513d601f19601f82011682018060405250810190610c519190611a81565b610c6e565b610c636020830183611abc565b6001600160a01b0316315b905081604001358110156109eb57610c8c6040830160208401611abc565b610c996020840184611abc565b6040805163861da4bd60e01b81526001600160a01b0393841660048201529290911660248301528301356044820152606481018290526084016101e4565b6000610ce96040830160208401611abc565b6001600160a01b031603610cfa5750565b610d0a6040820160208301611abc565b604080516323b872dd60e01b81523360048201523060248201529083013560448201526001600160a01b0391909116906323b872dd906064016020604051808303816000875af1158015610d62573d6000803e3d6000fd5b505050506040513d601f19601f82011682018060405250810190610d869190611a9a565b50610d976040820160208301611abc565b6001600160a01b031663095ea7b3610db26020840184611abc565b604080516001600160e01b031960e085901b1681526001600160a01b0390921660048301528401356024820152604401610ac6565b6000610df96040830160208401611abc565b6001600160a01b031603610e5057610e146020820182611abc565b6001600160a01b03166108fc82604001359081150290604051600060405180830381858888f193505050501580156109eb573d6000803e3d6000fd5b610e606040820160208301611abc565b6001600160a01b031663a9059cbb610db26020840184611abc565b6060600080610e906040850160208601611abc565b6001600160a01b031603610ec157505060408051808201909152600381526208aa8960eb1b60208201526012610fac565b610ed16040840160208501611abc565b6001600160a01b03166395d89b416040518163ffffffff1660e01b8152600401600060405180830381865afa158015610f0e573d6000803e3d6000fd5b505050506040513d6000823e601f3d908101601f19168201604052610f36919081019061197b565b9150610f486040840160208501611abc565b6001600160a01b031663313ce5676040518163ffffffff1660e01b8152600401602060405180830381865afa158015610f85573d6000803e3d6000fd5b505050506040513d601f19601f82011682018060405250810190610fa991906119e8565b90505b610fb96060840184611ad7565b604051602001610fca9291906118fe565b6040516020818303038152906040528051906020012082604051602001610ff191906118b6565b60405160208183030381529060405280519060200120141580611029575061101f60a0840160808501611b1d565b60ff168160ff1614155b156108f95761103e6040840160208501611abc565b61104b6060850185611ad7565b61105b60a0870160808801611b1d565b8585604051635591851960e01b81526004016101e496959493929190611b3a565b634e487b7160e01b600052604160045260246000fd5b604051606081016001600160401b03811182821017156110b4576110b461107c565b60405290565b604051601f8201601f191681016001600160401b03811182821017156110e2576110e261107c565b604052919050565b60006001600160401b038211156111035761110361107c565b5060051b60200190565b80356001600160a01b038116811461112457600080fd5b919050565b60006060828403121561113b57600080fd5b611143611092565b905061114e8261110d565b815261115c6020830161110d565b60208201526040820135604082015292915050565b60006001600160401b0382111561118a5761118a61107c565b50601f01601f191660200190565b60006111ab6111a684611171565b6110ba565b90508281528383830111156111bf57600080fd5b828260208301376000602084830101529392505050565b60ff81168114610b9a57600080fd5b600082601f8301126111f657600080fd5b81356112046111a6826110ea565b8082825260208201915060208360051b86010192508583111561122657600080fd5b602085015b838110156112df5780356001600160401b0381111561124957600080fd5b860160a0818903601f1901121561125f57600080fd5b611267611092565b6112748960208401611129565b815260808201356001600160401b0381111561128f57600080fd5b82016020810190603f018a136112a457600080fd5b6112b38a823560208401611198565b60208301525060a082013591506112c9826111d6565b604081019190915283526020928301920161122b565b5095945050505050565b600082601f8301126112fa57600080fd5b61130983833560208501611198565b9392505050565b60008060008060008060c0878903121561132957600080fd5b86356001600160401b0381111561133f57600080fd5b61134b89828a016111e5565b96505060208701356001600160401b0381111561136757600080fd5b61137389828a016111e5565b95505060408701356001600160401b0381111561138f57600080fd5b61139b89828a016111e5565b9450506113aa6060880161110d565b925060808701356001600160401b038111156113c557600080fd5b6113d189828a016112e9565b92505060a08701356001600160401b038111156113ed57600080fd5b6113f989828a016111e5565b9150509295509295509295565b60005b83811015611421578181015183820152602001611409565b50506000910152565b60008151808452611442816020860160208601611406565b601f01601f19169290920160200192915050565b602081526000611309602083018461142a565b600082601f83011261147a57600080fd5b81356114886111a6826110ea565b808282526020820191506020606084028601019250858311156114aa57600080fd5b602085015b838110156112df576114c18782611129565b83526020909201916060016114af565b60008060008060008060c087890312156114ea57600080fd5b86356001600160401b0381111561150057600080fd5b61150c89828a01611469565b96505060208701356001600160401b0381111561152857600080fd5b61153489828a01611469565b95505060408701356001600160401b0381111561155057600080fd5b61155c89828a01611469565b94505061156b6060880161110d565b925060808701356001600160401b0381111561158657600080fd5b61159289828a016112e9565b92505060a08701356001600160401b038111156115ae57600080fd5b6113f989828a01611469565b60008083601f8401126115cc57600080fd5b5081356001600160401b038111156115e357600080fd5b6020830191508360206060830285010111156115fe57600080fd5b9250929050565b60008083601f84011261161757600080fd5b5081356001600160401b0381111561162e57600080fd5b6020830191508360208285010111156115fe57600080fd5b600080600080600080600080600080600060c08c8e03121561166757600080fd5b8b356001600160401b0381111561167d57600080fd5b6116898e828f016115ba565b909c509a505060208c01356001600160401b038111156116a857600080fd5b6116b48e828f016115ba565b909a5098505060408c01356001600160401b038111156116d357600080fd5b6116df8e828f016115ba565b90985096506116f2905060608d0161110d565b945060808c01356001600160401b0381111561170d57600080fd5b6117198e828f01611605565b90955093505060a08c01356001600160401b0381111561173857600080fd5b6117448e828f016115ba565b915080935050809150509295989b509295989b9093969950565b60008083601f84011261177057600080fd5b5081356001600160401b0381111561178757600080fd5b6020830191508360208260051b85010111156115fe57600080fd5b600080600080600080600080600080600060c08c8e0312156117c357600080fd5b8b356001600160401b038111156117d957600080fd5b6117e58e828f0161175e565b909c509a505060208c01356001600160401b0381111561180457600080fd5b6118108e828f0161175e565b909a5098505060408c01356001600160401b0381111561182f57600080fd5b61183b8e828f0161175e565b909850965061184e905060608d0161110d565b945060808c01356001600160401b0381111561186957600080fd5b6118758e828f01611605565b90955093505060a08c01356001600160401b0381111561189457600080fd5b6117448e828f0161175e565b634e487b7160e01b600052603260045260246000fd5b600082516118c8818460208701611406565b9190910192915050565b6001600160a01b03831681526040602082018190526000906118f69083018461142a565b949350505050565b8183823760009101908152919050565b81835281816020850137506000828201602090810191909152601f909101601f19169091010190565b6001600160a01b038416815260406020820181905260009061195c908301848661190e565b95945050505050565b60008235609e198336030181126118c857600080fd5b60006020828403121561198d57600080fd5b81516001600160401b038111156119a357600080fd5b8201601f810184136119b457600080fd5b80516119c26111a682611171565b8181528560208385010111156119d757600080fd5b61195c826020830160208601611406565b6000602082840312156119fa57600080fd5b8151611309816111d6565b80516020808301519190811015611a26576000198160200360031b1b821691505b50919050565b6001600160a01b038616815260a060208201819052600090611a509083018761142a565b60ff861660408401528281036060840152611a6b818661142a565b91505060ff831660808301529695505050505050565b600060208284031215611a9357600080fd5b5051919050565b600060208284031215611aac57600080fd5b8151801515811461130957600080fd5b600060208284031215611ace57600080fd5b6113098261110d565b6000808335601e19843603018112611aee57600080fd5b8301803591506001600160401b03821115611b0857600080fd5b6020019150368190038213156115fe57600080fd5b600060208284031215611b2f57600080fd5b8135611309816111d6565b6001600160a01b038716815260a060208201819052600090611b5f908301878961190e565b60ff861660408401528281036060840152611b7a818661142a565b91505060ff8316608083015297965050505050505056fea26469706673582212204716f048fb87359d166d3e13631634555cda68a5659bfff2500d4a54aec3678664736f6c634300081b0033",
  "linkReferences": {},
  "deployedLinkReferences": {}
}