{
  "_format": "hh-sol-artifact-1",
  "contractName": "ApproveRouter",
  "sourceName": "contracts/ApproveRouter.sol",
  "abi": [
    {
      "inputs": [
        {
          "internalType": "address",
          "name": "token",
          "type": "address"
        },
        {
          "internalType": "string",
          "name": "expectedSymbol",
          "type": "string"
        },
        {
          "internalType": "uint8",
          "name": "expectedDecimals",
          "type": "uint8"
        },
        {
          "internalType": "string",
          "name": "actualSymbol",
          "type": "string"
        },
        {
          "internalType": "uint8",
          "name": "actualDecimals",
          "type": "uint8"
        }
      ],
      "name": "InvalidMetadata",
      "type": "error"
    },
    {
      "inputs": [
        {
          "internalType": "uint256",
          "name": "metaLength",
          "type": "uint256"
        },
        {
          "internalType": "uint256",
          "name": "balancesLength",
          "type": "uint256"
        }
      ],
      "name": "MetadataBalancesLengthMismatch",
      "type": "error"
    },
    {
      "inputs": [
        {
          "internalType": "contract IBalanceProxy",
          "name": "balanceProxy",
          "type": "address"
        },
        {
          "components": [
            {
              "internalType": "address",
              "name": "target",
              "type": "address"
            },
            {
              "internalType": "address",
              "name": "token",
              "type": "address"
            },
            {
              "internalType": "int256",
              "name": "balance",
              "type": "int256"
            }
          ],
          "internalType": "struct IBalanceProxy.Balance[]",
          "name": "postBalances",
          "type": "tuple[]"
        },
        {
          "components": [
            {
              "components": [
                {
                  "internalType": "address",
                  "name": "target",
                  "type": "address"
                },
                {
                  "internalType": "address",
                  "name": "token",
                  "type": "address"
                },
                {
                  "internalType": "int256",
                  "name": "balance",
                  "type": "int256"
                }
              ],
              "internalType": "struct IBalanceProxy.Balance",
              "name": "balance",
              "type": "tuple"
            },
            {
              "internalType": "bool",
              "name": "useTransfer",
              "type": "bool"
            }
          ],
          "internalType": "struct IBalanceProxy.Approval[]",
          "name": "approvals",
          "type": "tuple[]"
        },
        {
          "internalType": "address",
          "name": "target",
          "type": "address"
        },
        {
          "internalType": "bytes",
          "name": "data",
          "type": "bytes"
        },
        {
          "components": [
            {
              "internalType": "address",
              "name": "target",
              "type": "address"
            },
            {
              "internalType": "address",
              "name": "token",
              "type": "address"
            },
            {
              "internalType": "int256",
              "name": "balance",
              "type": "int256"
            }
          ],
          "internalType": "struct IBalanceProxy.Balance[]",
          "name": "withdrawals",
          "type": "tuple[]"
        }
      ],
      "name": "approveProxyCall",
      "outputs": [
        {
          "internalType": "bytes",
          "name": "",
          "type": "bytes"
        }
      ],
      "stateMutability": "payable",
      "type": "function"
    },
    {
      "inputs": [
        {
          "internalType": "contract IBalanceProxy",
          "name": "balanceProxy",
          "type": "address"
        },
        {
          "components": [
            {
              "internalType": "address",
              "name": "target",
              "type": "address"
            },
            {
              "internalType": "address",
              "name": "token",
              "type": "address"
            },
            {
              "internalType": "int256",
              "name": "balance",
              "type": "int256"
            }
          ],
          "internalType": "struct IBalanceProxy.Balance[]",
          "name": "diffs",
          "type": "tuple[]"
        },
        {
          "components": [
            {
              "components": [
                {
                  "internalType": "address",
                  "name": "target",
                  "type": "address"
                },
                {
                  "internalType": "address",
                  "name": "token",
                  "type": "address"
                },
                {
                  "internalType": "int256",
                  "name": "balance",
                  "type": "int256"
                }
              ],
              "internalType": "struct IBalanceProxy.Balance",
              "name": "balance",
              "type": "tuple"
            },
            {
              "internalType": "bool",
              "name": "useTransfer",
              "type": "bool"
            }
          ],
          "internalType": "struct IBalanceProxy.Approval[]",
          "name": "approvals",
          "type": "tuple[]"
        },
        {
          "internalType": "address",
          "name": "target",
          "type": "address"
        },
        {
          "internalType": "bytes",
          "name": "data",
          "type": "bytes"
        },
        {
          "components": [
            {
              "internalType": "address",
              "name": "target",
              "type": "address"
            },
            {
              "internalType": "address",
              "name": "token",
              "type": "address"
            },
            {
              "internalType": "int256",
              "name": "balance",
              "type": "int256"
            }
          ],
          "internalType": "struct IBalanceProxy.Balance[]",
          "name": "withdrawals",
          "type": "tuple[]"
        }
      ],
      "name": "approveProxyCallDiffs",
      "outputs": [
        {
          "internalType": "bytes",
          "name": "",
          "type": "bytes"
        }
      ],
      "stateMutability": "payable",
      "type": "function"
    },
    {
      "inputs": [
        {
          "internalType": "contract IBalanceProxy",
          "name": "balanceProxy",
          "type": "address"
        },
        {
          "components": [
            {
              "internalType": "string",
              "name": "symbol",
              "type": "string"
            },
            {
              "internalType": "uint8",
              "name": "decimals",
              "type": "uint8"
            }
          ],
          "internalType": "struct BalanceMetadata[]",
          "name": "meta",
          "type": "tuple[]"
        },
        {
          "components": [
            {
              "internalType": "address",
              "name": "target",
              "type": "address"
            },
            {
              "internalType": "address",
              "name": "token",
              "type": "address"
            },
            {
              "internalType": "int256",
              "name": "balance",
              "type": "int256"
            }
          ],
          "internalType": "struct IBalanceProxy.Balance[]",
          "name": "diffs",
          "type": "tuple[]"
        },
        {
          "components": [
            {
              "components": [
                {
                  "internalType": "address",
                  "name": "target",
                  "type": "address"
                },
                {
                  "internalType": "address",
                  "name": "token",
                  "type": "address"
                },
                {
                  "internalType": "int256",
                  "name": "balance",
                  "type": "int256"
                }
              ],
              "internalType": "struct IBalanceProxy.Balance",
              "name": "balance",
              "type": "tuple"
            },
            {
              "internalType": "bool",
              "name": "useTransfer",
              "type": "bool"
            }
          ],
          "internalType": "struct IBalanceProxy.Approval[]",
          "name": "approvals",
          "type": "tuple[]"
        },
        {
          "internalType": "address",
          "name": "target",
          "type": "address"
        },
        {
          "internalType": "bytes",
          "name": "data",
          "type": "bytes"
        },
        {
          "components": [
            {
              "internalType": "address",
              "name": "target",
              "type": "address"
            },
            {
              "internalType": "address",
              "name": "token",
              "type": "address"
            },
            {
              "internalType": "int256",
              "name": "balance",
              "type": "int256"
            }
          ],
          "internalType": "struct IBalanceProxy.Balance[]",
          "name": "withdrawals",
          "type": "tuple[]"
        }
      ],
      "name": "approveProxyCallDiffsWithMeta",
      "outputs": [
        {
          "internalType": "bytes",
          "name": "",
          "type": "bytes"
        }
      ],
      "stateMutability": "payable",
      "type": "function"
    },
    {
      "inputs": [
        {
          "internalType": "contract IBalanceProxy",
          "name": "balanceProxy",
          "type": "address"
        },
        {
          "components": [
            {
              "internalType": "string",
              "name": "symbol",
              "type": "string"
            },
            {
              "internalType": "uint8",
              "name": "decimals",
              "type": "uint8"
            }
          ],
          "internalType": "struct BalanceMetadata[]",
          "name": "meta",
          "type": "tuple[]"
        },
        {
          "components": [
            {
              "internalType": "address",
              "name": "target",
              "type": "address"
            },
            {
              "internalType": "address",
              "name": "token",
              "type": "address"
            },
            {
              "internalType": "int256",
              "name": "balance",
              "type": "int256"
            }
          ],
          "internalType": "struct IBalanceProxy.Balance[]",
          "name": "balances",
          "type": "tuple[]"
        },
        {
          "components": [
            {
              "components": [
                {
                  "internalType": "address",
                  "name": "target",
                  "type": "address"
                },
                {
                  "internalType": "address",
                  "name": "token",
                  "type": "address"
                },
                {
                  "internalType": "int256",
                  "name": "balance",
                  "type": "int256"
                }
              ],
              "internalType": "struct IBalanceProxy.Balance",
              "name": "balance",
              "type": "tuple"
            },
            {
              "internalType": "bool",
              "name": "useTransfer",
              "type": "bool"
            }
          ],
          "internalType": "struct IBalanceProxy.Approval[]",
          "name": "approvals",
          "type": "tuple[]"
        },
        {
          "internalType": "address",
          "name": "target",
          "type": "address"
        },
        {
          "internalType": "bytes",
          "name": "data",
          "type": "bytes"
        },
        {
          "components": [
            {
              "internalType": "address",
              "name": "target",
              "type": "address"
            },
            {
              "internalType": "address",
              "name": "token",
              "type": "address"
            },
            {
              "internalType": "int256",
              "name": "balance",
              "type": "int256"
            }
          ],
          "internalType": "struct IBalanceProxy.Balance[]",
          "name": "withdrawals",
          "type": "tuple[]"
        }
      ],
      "name": "approveProxyCallWithMeta",
      "outputs": [
        {
          "internalType": "bytes",
          "name": "",
          "type": "bytes"
        }
      ],
      "stateMutability": "payable",
      "type": "function"
    }
  ],
  "bytecode": "0x60808060405234601557610cb4908161001b8239f35b600080fdfe6080604052600436101561001257600080fd5b60003560e01c80632f5a71c1146102b1578063b3a7f90a14610235578063c67072701461019b5763e5d77b3c1461004857600080fd5b61005136610743565b929492936001600160a01b039093169290919060005b865181101561011f578060206100cb6100826000948b6107f3565b51516040808201519184015190516323b872dd60e01b81523360048201526001600160a01b038b8116602483015260448201939093529586939190921691839182906064820190565b03925af1918215610113576001926100e5575b5001610067565b6101059060203d811161010c575b6100fd8183610369565b81019061081d565b50386100de565b503d6100f3565b6040513d6000823e3d90fd5b50928560009394610147876040519788968795869563ce9506f960e01b875260048701610904565b039134905af180156101135761017491600091610178575b5060405191829160208352602083019061071e565b0390f35b61019591503d806000833e61018d8183610369565b81019061086c565b8261015f565b6101a436610743565b929492936001600160a01b039093169290919060005b865181101561020d578060206101d56100826000948b6107f3565b03925af1918215610113576001926101ef575b50016101ba565b6102069060203d811161010c576100fd8183610369565b50886101e8565b50928560009394610147876040519788968795869563890e3add60e01b875260048701610904565b61024f61024136610560565b9594938092939791946109c2565b6001600160a01b039093169260005b865181101561020d578060206102796100826000948b6107f3565b03925af191821561011357600192610293575b500161025e565b6102aa9060203d811161010c576100fd8183610369565b508861028c565b6102bd61024136610560565b6001600160a01b039093169260005b865181101561011f578060206102e76100826000948b6107f3565b03925af191821561011357600192610301575b50016102cc565b6103189060203d811161010c576100fd8183610369565b50886102fa565b35906001600160a01b038216820361033357565b600080fd5b604081019081106001600160401b0382111761035357604052565b634e487b7160e01b600052604160045260246000fd5b90601f801991011681019081106001600160401b0382111761035357604052565b6001600160401b0381116103535760051b60200190565b6001600160401b03811161035357601f01601f191660200190565b9291926103c8826103a1565b916103d66040519384610369565b829481845281830111610333578281602093846000960137010152565b919082606091031261033357604051606081018181106001600160401b038211176103535760405260408082946104298161031f565b84526104376020820161031f565b60208501520135910152565b81601f820112156103335780356104598161038a565b926104676040519485610369565b8184526020606081860193028401019281841161033357602001915b838310610491575050505090565b60206060916104a084866103f3565b815201920191610483565b9080601f83011215610333578135916104c38361038a565b926104d16040519485610369565b80845260208085019160071b8301019183831161033357602001905b8282106104fb575050505090565b608082850312610333576040519061051282610338565b61051c85846103f3565b8252606083013590811515820361033357826020928360809501528152019101906104ed565b9080601f830112156103335781602061055d933591016103bc565b90565b60e0600319820112610333576004356001600160a01b038116810361033357916024356001600160401b0381116103335782602382011215610333578060040135906105ab8261038a565b916105b96040519384610369565b8083526024602084019160051b830101918583116103335760248101915b8383106106725750505050916044356001600160401b038111610333578161060191600401610443565b916064356001600160401b0381116103335782610620916004016104ab565b916084356001600160a01b0381168103610333579160a4356001600160401b038111610333578261065391600401610542565b9160c435906001600160401b0382116103335761055d91600401610443565b82356001600160401b038111610333578201906040828903602319011261033357604051916106a083610338565b60248101356001600160401b038111610333576024908201019089601f83011215610333576106d78a8360206044953591016103bc565b845201359060ff8216820361033357826020939284809401528152019201916105d7565b60005b83811061070e5750506000910152565b81810151838201526020016106fe565b90602091610737815180928185528580860191016106fb565b601f01601f1916010190565b9060c0600319830112610333576004356001600160a01b038116810361033357916024356001600160401b038111610333578161078291600401610443565b916044356001600160401b03811161033357826107a1916004016104ab565b916064356001600160a01b038116810361033357916084356001600160401b03811161033357826107d491600401610542565b9160a435906001600160401b0382116103335761055d91600401610443565b80518210156108075760209160051b010190565b634e487b7160e01b600052603260045260246000fd5b90816020910312610333575180151581036103335790565b90929192610842816103a1565b916108506040519384610369565b82948284528282011161033357602061086a9301906106fb565b565b602081830312610333578051906001600160401b03821161033357019080601f8301121561033357815161055d92602001610835565b906020808351928381520192019060005b8181106108c05750505090565b90919260206060826108f960019488516040809160018060a01b03815116845260018060a01b0360208201511660208501520151910152565b0194019291016108b3565b93919594929061091c9060a0865260a08601906108a2565b84810360208601526020808851928381520197019060005b818110610972575050506001600160a01b031660408401528285036060840152929361055d93610964919061071e565b9160808184039101526108a2565b90919760206080600192828c516109ae8382516040809160018060a01b03815116845260018060a01b0360208201511660208501520151910152565b015115156060820152019901929101610934565b91908251815190818103610c6757505060005b8351811015610c615760006001600160a01b0360206109f484866107f3565b51015116610b3857506040610a0b81519182610369565b600381526208aa8960eb1b60208201526012905b6040516020810190610a4d6020828551610a3c8187858a016106fb565b81010301601f198101835282610369565b519020610a5a84886107f3565b5151604051610a7960208281610a3c81830196878151938492016106fb565b51902014801590610b1a575b610a935750506001016109d5565b610b0f60ff91826020610aca8a9882610ab38a60018060a01b03936107f3565b5101511697610ac2818b6107f3565b5151996107f3565b5101511690610af8604051978897635591851960e01b8952600489015260a0602489015260a488019061071e565b91604487015260031986830301606487015261071e565b911660848301520390fd5b5060ff6020610b2985896107f3565b5101511660ff83161415610a85565b6004816001600160a01b036020610b4f86886107f3565b51015116604051928380926395d89b4160e01b82525afa918215610c55578092610bfd575b506004905060206001600160a01b0381610b8e86886107f3565b510151166040519283809263313ce56760e01b82525afa90811561011357600091610bbb575b5090610a1f565b6020813d8211610bf5575b81610bd360209383610369565b81010312610bf157519060ff82168203610bee575038610bb4565b80fd5b5080fd5b3d9150610bc6565b9091503d8082843e610c0f8184610369565b820191602081840312610bf1578051906001600160401b038211610c5157019082601f83011215610bee57508051610c4a9291602001610835565b3880610b74565b8280fd5b604051903d90823e3d90fd5b50509050565b630a7df64d60e41b60005260045260245260446000fdfea2646970667358221220b1fe11931b64fba6c3234713562636ff95b7ed946db541c45ef207868f50874864736f6c634300081b0033",
  "linkReferences": {},
  "deployedLinkReferences": {}
}