{
  "_format": "hh-sol-artifact-1",
  "contractName": "BalanceProxy",
  "sourceName": "contracts/BalanceProxy.sol",
  "abi": [
    {
      "inputs": [
        {
          "internalType": "address",
          "name": "token",
          "type": "address"
        },
        {
          "internalType": "address",
          "name": "target",
          "type": "address"
        },
        {
          "internalType": "int256",
          "name": "balance",
          "type": "int256"
        },
        {
          "internalType": "uint256",
          "name": "actual",
          "type": "uint256"
        }
      ],
      "name": "ERC8009BalanceConstraintViolation",
      "type": "error"
    },
    {
      "inputs": [
        {
          "internalType": "address",
          "name": "token",
          "type": "address"
        },
        {
          "internalType": "address",
          "name": "target",
          "type": "address"
        },
        {
          "internalType": "int256",
          "name": "expected",
          "type": "int256"
        },
        {
          "internalType": "int256",
          "name": "actual",
          "type": "int256"
        }
      ],
      "name": "ERC8009BalanceDiffConstraintViolation",
      "type": "error"
    },
    {
      "inputs": [
        {
          "internalType": "address",
          "name": "target",
          "type": "address"
        },
        {
          "internalType": "bytes",
          "name": "data",
          "type": "bytes"
        },
        {
          "internalType": "bytes",
          "name": "returnData",
          "type": "bytes"
        }
      ],
      "name": "ERC8009CallFailed",
      "type": "error"
    },
    {
      "inputs": [],
      "name": "ReentrancyGuardReentrantCall",
      "type": "error"
    },
    {
      "inputs": [
        {
          "components": [
            {
              "internalType": "address",
              "name": "target",
              "type": "address"
            },
            {
              "internalType": "address",
              "name": "token",
              "type": "address"
            },
            {
              "internalType": "int256",
              "name": "balance",
              "type": "int256"
            }
          ],
          "internalType": "struct IBalanceProxy.Balance[]",
          "name": "postBalances",
          "type": "tuple[]"
        },
        {
          "components": [
            {
              "components": [
                {
                  "internalType": "address",
                  "name": "target",
                  "type": "address"
                },
                {
                  "internalType": "address",
                  "name": "token",
                  "type": "address"
                },
                {
                  "internalType": "int256",
                  "name": "balance",
                  "type": "int256"
                }
              ],
              "internalType": "struct IBalanceProxy.Balance",
              "name": "balance",
              "type": "tuple"
            },
            {
              "internalType": "bool",
              "name": "useTransfer",
              "type": "bool"
            }
          ],
          "internalType": "struct IBalanceProxy.Approval[]",
          "name": "approvals",
          "type": "tuple[]"
        },
        {
          "internalType": "address",
          "name": "target",
          "type": "address"
        },
        {
          "internalType": "bytes",
          "name": "data",
          "type": "bytes"
        },
        {
          "components": [
            {
              "internalType": "address",
              "name": "target",
              "type": "address"
            },
            {
              "internalType": "address",
              "name": "token",
              "type": "address"
            },
            {
              "internalType": "int256",
              "name": "balance",
              "type": "int256"
            }
          ],
          "internalType": "struct IBalanceProxy.Balance[]",
          "name": "withdrawals",
          "type": "tuple[]"
        }
      ],
      "name": "proxyCall",
      "outputs": [
        {
          "internalType": "bytes",
          "name": "",
          "type": "bytes"
        }
      ],
      "stateMutability": "payable",
      "type": "function"
    },
    {
      "inputs": [
        {
          "components": [
            {
              "internalType": "address",
              "name": "target",
              "type": "address"
            },
            {
              "internalType": "address",
              "name": "token",
              "type": "address"
            },
            {
              "internalType": "int256",
              "name": "balance",
              "type": "int256"
            }
          ],
          "internalType": "struct IBalanceProxy.Balance[]",
          "name": "diffs",
          "type": "tuple[]"
        },
        {
          "components": [
            {
              "components": [
                {
                  "internalType": "address",
                  "name": "target",
                  "type": "address"
                },
                {
                  "internalType": "address",
                  "name": "token",
                  "type": "address"
                },
                {
                  "internalType": "int256",
                  "name": "balance",
                  "type": "int256"
                }
              ],
              "internalType": "struct IBalanceProxy.Balance",
              "name": "balance",
              "type": "tuple"
            },
            {
              "internalType": "bool",
              "name": "useTransfer",
              "type": "bool"
            }
          ],
          "internalType": "struct IBalanceProxy.Approval[]",
          "name": "approvals",
          "type": "tuple[]"
        },
        {
          "internalType": "address",
          "name": "target",
          "type": "address"
        },
        {
          "internalType": "bytes",
          "name": "data",
          "type": "bytes"
        },
        {
          "components": [
            {
              "internalType": "address",
              "name": "target",
              "type": "address"
            },
            {
              "internalType": "address",
              "name": "token",
              "type": "address"
            },
            {
              "internalType": "int256",
              "name": "balance",
              "type": "int256"
            }
          ],
          "internalType": "struct IBalanceProxy.Balance[]",
          "name": "withdrawals",
          "type": "tuple[]"
        }
      ],
      "name": "proxyCallDiffs",
      "outputs": [
        {
          "internalType": "bytes",
          "name": "",
          "type": "bytes"
        }
      ],
      "stateMutability": "payable",
      "type": "function"
    },
    {
      "stateMutability": "payable",
      "type": "receive"
    }
  ],
  "bytecode": "0x60808060405234601a576001600055610a2490816100208239f35b600080fdfe6080604052600436101561001b575b361561001957600080fd5b005b60003560e01c8063890e3add146102125763ce9506f90361000e5761003f3661057a565b9161004c949193946107c4565b60005b8551811015610074578061006e61006860019389610734565b51610884565b0161004f565b508360008082516020840134865af19161008c61075e565b92156101f157505060005b83518110156100bc57806100b66100b060019387610734565b51610958565b01610097565b509060005b81518110156101d2576100d48183610734565b516020810180516000906001600160a01b03168061015357505081516001600160a01b031631905b6040830151908160ff1d80830118831061011c57505050506001016100c1565b519251604051631fbc432b60e31b81526001600160a01b039485166004820152931660248401526044830152606482015260849150fd5b602060018060a01b038551166024604051809481936370a0823160e01b835260048301525afa9182156101c657809261018f575b5050906100fc565b9091506020823d82116101be575b816101aa6020938361043c565b810103126101bb5750518680610187565b80fd5b3d915061019d565b604051903d90823e3d90fd5b6001600055604051602080825281906101ed908201866106f3565b0390f35b61020e83604051938493637a26993360e01b85526004850161078e565b0390fd5b61021b3661057a565b919092936102276107c4565b600091815161023581610474565b93610243604051958661043c565b818552601f1961025283610474565b013660208701375b8181106103fd575060005b8751811015610284578061027e6100686001938b610734565b01610265565b508560008082516020840134875af19261029c61075e565b93156103e057505060005b85518110156102c657806102c06100b060019389610734565b016102a7565b508360005b8281106102ed576001600055604051602080825281906101ed908201876106f3565b6103236001600160a01b0360206103048489610734565b510151166001600160a01b0361031a8489610734565b515116906107e6565b61032d8284610734565b5190600082820392128183128116918313901516176103ca5760406103528388610734565b510151811261036457506001016102cb565b608492508560406103a26001600160a01b0360206103828786610734565b51015116946001600160a01b036103998286610734565b51511693610734565b51015190604051936305c333e160e41b85526004850152602484015260448301526064820152fd5b634e487b7160e01b600052601160045260246000fd5b61020e84604051938493637a26993360e01b85526004850161078e565b60019061042b6001600160a01b0360206104178489610734565b51015116838060a01b0361031a8489610734565b6104358288610734565b520161025a565b90601f8019910116810190811067ffffffffffffffff82111761045e57604052565b634e487b7160e01b600052604160045260246000fd5b67ffffffffffffffff811161045e5760051b60200190565b35906001600160a01b03821682036104a057565b600080fd5b91908260609103126104a0576040516060810181811067ffffffffffffffff82111761045e5760405260408082946104dc8161048c565b84526104ea6020820161048c565b60208501520135910152565b81601f820112156104a057803561050c81610474565b9261051a604051948561043c565b818452602060608186019302840101928184116104a057602001915b838310610544575050505090565b602060609161055384866104a5565b815201920191610536565b67ffffffffffffffff811161045e57601f01601f191660200190565b60a06003198201126104a05760043567ffffffffffffffff81116104a057816105a5916004016104f6565b9160243567ffffffffffffffff81116104a057826023820112156104a0578060040135906105d282610474565b916105e0604051938461043c565b8083526024602084019160071b830101918583116104a057602401905b82821061069b575091939150506044356001600160a01b03811681036104a0579160643567ffffffffffffffff81116104a057826023820112156104a05780600401356106498161055e565b91610657604051938461043c565b81835284602483830101116104a057816000926024602093018386013783010152916084359067ffffffffffffffff82116104a057610698916004016104f6565b90565b6080828703126104a057604051906040820182811067ffffffffffffffff82111761045e576040526106cd87846104a5565b825260608301359081151582036104a057826020928360809501528152019101906105fd565b919082519283825260005b84811061071f575050826000602080949584010152601f8019910116010190565b806020809284010151828286010152016106fe565b80518210156107485760209160051b010190565b634e487b7160e01b600052603260045260246000fd5b3d15610789573d9061076f8261055e565b9161077d604051938461043c565b82523d6000602084013e565b606090565b6001600160a01b0390911681526060602082018190526106989391926107b6918401906106f3565b9160408184039101526106f3565b6002600054146107d5576002600055565b633ee5aeb560e01b60005260046000fd5b6000906001600160a01b0316806107fd5750503190565b6040516370a0823160e01b81526001600160a01b039093166004840152909190602090829060249082905afa9182156101c657809261083b57505090565b9091506020823d602011610864575b816108576020938361043c565b810103126101bb57505190565b3d915061084a565b908160209103126104a0575180151581036104a05790565b805160408101516020909201511561091957602081810151915160405163a9059cbb60e01b81526001600160a01b0391821660048201526024810194909452909183911681600081604481015b03925af1801561090d576108e25750565b6109039060203d602011610906575b6108fb818361043c565b81019061086c565b50565b503d6108f1565b6040513d6000823e3d90fd5b602081810151915160405163095ea7b360e01b81526001600160a01b0391821660048201526024810194909452909183911681600081604481016108d1565b60208101516001600160a01b0316806109a85750600080808093604060018060a01b03825116910151908160ff1d80920191839281811461099e575b1891f11561090d57565b6108fc9350610994565b8151604092830151925163a9059cbb60e01b81526001600160a01b03909116600482015260ff83901d9283019092186024830152602090829081600081604481016108d156fea2646970667358221220351abd2d5970b57871cef4ac5a7c3a62d48a91a7d15d9f9d9d0a0b49c91ed30d64736f6c634300081b0033",
  "linkReferences": {},
  "deployedLinkReferences": {}
}