{
  "_format": "hh-sol-artifact-1",
  "contractName": "PermitRouter",
  "sourceName": "contracts/PermitRouter.sol",
  "abi": [
    {
      "inputs": [
        {
          "internalType": "address",
          "name": "token",
          "type": "address"
        },
        {
          "internalType": "string",
          "name": "expectedSymbol",
          "type": "string"
        },
        {
          "internalType": "uint8",
          "name": "expectedDecimals",
          "type": "uint8"
        },
        {
          "internalType": "string",
          "name": "actualSymbol",
          "type": "string"
        },
        {
          "internalType": "uint8",
          "name": "actualDecimals",
          "type": "uint8"
        }
      ],
      "name": "InvalidMetadata",
      "type": "error"
    },
    {
      "inputs": [
        {
          "internalType": "uint256",
          "name": "metaLength",
          "type": "uint256"
        },
        {
          "internalType": "uint256",
          "name": "balancesLength",
          "type": "uint256"
        }
      ],
      "name": "MetadataBalancesLengthMismatch",
      "type": "error"
    },
    {
      "inputs": [
        {
          "internalType": "uint256",
          "name": "permitsLength",
          "type": "uint256"
        },
        {
          "internalType": "uint256",
          "name": "approvalsLength",
          "type": "uint256"
        }
      ],
      "name": "PermitsLengthMismatch",
      "type": "error"
    },
    {
      "inputs": [
        {
          "internalType": "contract IBalanceProxy",
          "name": "balanceProxy",
          "type": "address"
        },
        {
          "components": [
            {
              "internalType": "address",
              "name": "target",
              "type": "address"
            },
            {
              "internalType": "address",
              "name": "token",
              "type": "address"
            },
            {
              "internalType": "int256",
              "name": "balance",
              "type": "int256"
            }
          ],
          "internalType": "struct IBalanceProxy.Balance[]",
          "name": "postBalances",
          "type": "tuple[]"
        },
        {
          "components": [
            {
              "components": [
                {
                  "internalType": "address",
                  "name": "target",
                  "type": "address"
                },
                {
                  "internalType": "address",
                  "name": "token",
                  "type": "address"
                },
                {
                  "internalType": "int256",
                  "name": "balance",
                  "type": "int256"
                }
              ],
              "internalType": "struct IBalanceProxy.Balance",
              "name": "balance",
              "type": "tuple"
            },
            {
              "internalType": "bool",
              "name": "useTransfer",
              "type": "bool"
            }
          ],
          "internalType": "struct IBalanceProxy.Approval[]",
          "name": "approvals",
          "type": "tuple[]"
        },
        {
          "components": [
            {
              "internalType": "uint256",
              "name": "deadline",
              "type": "uint256"
            },
            {
              "internalType": "uint8",
              "name": "v",
              "type": "uint8"
            },
            {
              "internalType": "bytes32",
              "name": "r",
              "type": "bytes32"
            },
            {
              "internalType": "bytes32",
              "name": "s",
              "type": "bytes32"
            }
          ],
          "internalType": "struct PermitData[]",
          "name": "permits",
          "type": "tuple[]"
        },
        {
          "internalType": "address",
          "name": "target",
          "type": "address"
        },
        {
          "internalType": "bytes",
          "name": "data",
          "type": "bytes"
        },
        {
          "components": [
            {
              "internalType": "address",
              "name": "target",
              "type": "address"
            },
            {
              "internalType": "address",
              "name": "token",
              "type": "address"
            },
            {
              "internalType": "int256",
              "name": "balance",
              "type": "int256"
            }
          ],
          "internalType": "struct IBalanceProxy.Balance[]",
          "name": "withdrawals",
          "type": "tuple[]"
        }
      ],
      "name": "permitProxyCall",
      "outputs": [
        {
          "internalType": "bytes",
          "name": "",
          "type": "bytes"
        }
      ],
      "stateMutability": "payable",
      "type": "function"
    },
    {
      "inputs": [
        {
          "internalType": "contract IBalanceProxy",
          "name": "balanceProxy",
          "type": "address"
        },
        {
          "components": [
            {
              "internalType": "address",
              "name": "target",
              "type": "address"
            },
            {
              "internalType": "address",
              "name": "token",
              "type": "address"
            },
            {
              "internalType": "int256",
              "name": "balance",
              "type": "int256"
            }
          ],
          "internalType": "struct IBalanceProxy.Balance[]",
          "name": "diffs",
          "type": "tuple[]"
        },
        {
          "components": [
            {
              "components": [
                {
                  "internalType": "address",
                  "name": "target",
                  "type": "address"
                },
                {
                  "internalType": "address",
                  "name": "token",
                  "type": "address"
                },
                {
                  "internalType": "int256",
                  "name": "balance",
                  "type": "int256"
                }
              ],
              "internalType": "struct IBalanceProxy.Balance",
              "name": "balance",
              "type": "tuple"
            },
            {
              "internalType": "bool",
              "name": "useTransfer",
              "type": "bool"
            }
          ],
          "internalType": "struct IBalanceProxy.Approval[]",
          "name": "approvals",
          "type": "tuple[]"
        },
        {
          "components": [
            {
              "internalType": "uint256",
              "name": "deadline",
              "type": "uint256"
            },
            {
              "internalType": "uint8",
              "name": "v",
              "type": "uint8"
            },
            {
              "internalType": "bytes32",
              "name": "r",
              "type": "bytes32"
            },
            {
              "internalType": "bytes32",
              "name": "s",
              "type": "bytes32"
            }
          ],
          "internalType": "struct PermitData[]",
          "name": "permits",
          "type": "tuple[]"
        },
        {
          "internalType": "address",
          "name": "target",
          "type": "address"
        },
        {
          "internalType": "bytes",
          "name": "data",
          "type": "bytes"
        },
        {
          "components": [
            {
              "internalType": "address",
              "name": "target",
              "type": "address"
            },
            {
              "internalType": "address",
              "name": "token",
              "type": "address"
            },
            {
              "internalType": "int256",
              "name": "balance",
              "type": "int256"
            }
          ],
          "internalType": "struct IBalanceProxy.Balance[]",
          "name": "withdrawals",
          "type": "tuple[]"
        }
      ],
      "name": "permitProxyCallDiffs",
      "outputs": [
        {
          "internalType": "bytes",
          "name": "",
          "type": "bytes"
        }
      ],
      "stateMutability": "payable",
      "type": "function"
    },
    {
      "inputs": [
        {
          "internalType": "contract IBalanceProxy",
          "name": "balanceProxy",
          "type": "address"
        },
        {
          "components": [
            {
              "internalType": "string",
              "name": "symbol",
              "type": "string"
            },
            {
              "internalType": "uint8",
              "name": "decimals",
              "type": "uint8"
            }
          ],
          "internalType": "struct BalanceMetadata[]",
          "name": "meta",
          "type": "tuple[]"
        },
        {
          "components": [
            {
              "internalType": "address",
              "name": "target",
              "type": "address"
            },
            {
              "internalType": "address",
              "name": "token",
              "type": "address"
            },
            {
              "internalType": "int256",
              "name": "balance",
              "type": "int256"
            }
          ],
          "internalType": "struct IBalanceProxy.Balance[]",
          "name": "diffs",
          "type": "tuple[]"
        },
        {
          "components": [
            {
              "components": [
                {
                  "internalType": "address",
                  "name": "target",
                  "type": "address"
                },
                {
                  "internalType": "address",
                  "name": "token",
                  "type": "address"
                },
                {
                  "internalType": "int256",
                  "name": "balance",
                  "type": "int256"
                }
              ],
              "internalType": "struct IBalanceProxy.Balance",
              "name": "balance",
              "type": "tuple"
            },
            {
              "internalType": "bool",
              "name": "useTransfer",
              "type": "bool"
            }
          ],
          "internalType": "struct IBalanceProxy.Approval[]",
          "name": "approvals",
          "type": "tuple[]"
        },
        {
          "components": [
            {
              "internalType": "uint256",
              "name": "deadline",
              "type": "uint256"
            },
            {
              "internalType": "uint8",
              "name": "v",
              "type": "uint8"
            },
            {
              "internalType": "bytes32",
              "name": "r",
              "type": "bytes32"
            },
            {
              "internalType": "bytes32",
              "name": "s",
              "type": "bytes32"
            }
          ],
          "internalType": "struct PermitData[]",
          "name": "permits",
          "type": "tuple[]"
        },
        {
          "internalType": "address",
          "name": "target",
          "type": "address"
        },
        {
          "internalType": "bytes",
          "name": "data",
          "type": "bytes"
        },
        {
          "components": [
            {
              "internalType": "address",
              "name": "target",
              "type": "address"
            },
            {
              "internalType": "address",
              "name": "token",
              "type": "address"
            },
            {
              "internalType": "int256",
              "name": "balance",
              "type": "int256"
            }
          ],
          "internalType": "struct IBalanceProxy.Balance[]",
          "name": "withdrawals",
          "type": "tuple[]"
        }
      ],
      "name": "permitProxyCallDiffsWithMeta",
      "outputs": [
        {
          "internalType": "bytes",
          "name": "",
          "type": "bytes"
        }
      ],
      "stateMutability": "payable",
      "type": "function"
    },
    {
      "inputs": [
        {
          "internalType": "contract IBalanceProxy",
          "name": "balanceProxy",
          "type": "address"
        },
        {
          "components": [
            {
              "internalType": "string",
              "name": "symbol",
              "type": "string"
            },
            {
              "internalType": "uint8",
              "name": "decimals",
              "type": "uint8"
            }
          ],
          "internalType": "struct BalanceMetadata[]",
          "name": "meta",
          "type": "tuple[]"
        },
        {
          "components": [
            {
              "internalType": "address",
              "name": "target",
              "type": "address"
            },
            {
              "internalType": "address",
              "name": "token",
              "type": "address"
            },
            {
              "internalType": "int256",
              "name": "balance",
              "type": "int256"
            }
          ],
          "internalType": "struct IBalanceProxy.Balance[]",
          "name": "balances",
          "type": "tuple[]"
        },
        {
          "components": [
            {
              "components": [
                {
                  "internalType": "address",
                  "name": "target",
                  "type": "address"
                },
                {
                  "internalType": "address",
                  "name": "token",
                  "type": "address"
                },
                {
                  "internalType": "int256",
                  "name": "balance",
                  "type": "int256"
                }
              ],
              "internalType": "struct IBalanceProxy.Balance",
              "name": "balance",
              "type": "tuple"
            },
            {
              "internalType": "bool",
              "name": "useTransfer",
              "type": "bool"
            }
          ],
          "internalType": "struct IBalanceProxy.Approval[]",
          "name": "approvals",
          "type": "tuple[]"
        },
        {
          "components": [
            {
              "internalType": "uint256",
              "name": "deadline",
              "type": "uint256"
            },
            {
              "internalType": "uint8",
              "name": "v",
              "type": "uint8"
            },
            {
              "internalType": "bytes32",
              "name": "r",
              "type": "bytes32"
            },
            {
              "internalType": "bytes32",
              "name": "s",
              "type": "bytes32"
            }
          ],
          "internalType": "struct PermitData[]",
          "name": "permits",
          "type": "tuple[]"
        },
        {
          "internalType": "address",
          "name": "target",
          "type": "address"
        },
        {
          "internalType": "bytes",
          "name": "data",
          "type": "bytes"
        },
        {
          "components": [
            {
              "internalType": "address",
              "name": "target",
              "type": "address"
            },
            {
              "internalType": "address",
              "name": "token",
              "type": "address"
            },
            {
              "internalType": "int256",
              "name": "balance",
              "type": "int256"
            }
          ],
          "internalType": "struct IBalanceProxy.Balance[]",
          "name": "withdrawals",
          "type": "tuple[]"
        }
      ],
      "name": "permitProxyCallWithMeta",
      "outputs": [
        {
          "internalType": "bytes",
          "name": "",
          "type": "bytes"
        }
      ],
      "stateMutability": "payable",
      "type": "function"
    }
  ],
  "bytecode": "0x60808060405234601557611183908161001b8239f35b600080fdfe6080604052600436101561001257600080fd5b60003560e01c8063029a20531461055f578063366ffd7914610405578063b44921d7146102465763bf10e28e1461004857600080fd5b610051366109b6565b95928492949591955193815185810361022d57506001600160a01b03169360005b81811061010057505060405163890e3add60e01b8152966000968896879586956100a0955060048701610dd3565b039134905af180156100f4576100cd916000916100d1575b50604051918291602083526020830190610aa7565b0390f35b6100ee91503d806000833e6100e68183610702565b810190610d3b565b386100b8565b6040513d6000823e3d90fd5b61010a8186610c81565b5151906040820151602061011e8387610c81565b51930180518451602086015160408701516060909701519693949391926001600160a01b03169060ff16813b1561022857600080946101766040519a8b968795869463d505accf60e01b86528b303360048901610cab565b03925af19182156100f4576101cf94602093610217575b50516040516323b872dd60e01b81523360048201526001600160a01b038b81166024830152604482019390935294859290911690829060009082906064820190565b03925af19182156100f4576001926101e9575b5001610072565b6102099060203d8111610210575b6102018183610702565b810190610cec565b50386101e2565b503d6101f7565b600061022291610702565b3861018d565b600080fd5b85906341d6d1af60e01b60005260045260245260446000fd5b61025f61025236610acc565b9790969480939296610e91565b825193815185810361022d57506001600160a01b03169360005b8181106102ee57505060405163890e3add60e01b8152966000968896879586956102a7955060048701610dd3565b039134905af180156100f4576100cd916000916102d35750604051918291602083526020830190610aa7565b6102e891503d806000833e6100e68183610702565b826100b8565b6102f88186610c81565b5151906040820151602061030c8387610c81565b51930180518451602086015160408701516060909701519693949391926001600160a01b03169060ff16813b1561022857600080946103646040519a8b968795869463d505accf60e01b86528b303360048901610cab565b03925af19182156100f4576103bc946020936103f45750516040516323b872dd60e01b81523360048201526001600160a01b038b81166024830152604482019390935294859290911690829060009082906064820190565b03925af19182156100f4576001926103d6575b5001610279565b6103ed9060203d8111610210576102018183610702565b508a6103cf565b60006103ff91610702565b8d61018d565b61041161025236610acc565b825193815185810361022d57506001600160a01b03169360005b81811061045957505060405163ce9506f960e01b8152966000968896879586956102a7955060048701610dd3565b6104638186610c81565b515190604082015160206104778387610c81565b51930180518451602086015160408701516060909701519693949391926001600160a01b03169060ff16813b1561022857600080946104cf6040519a8b968795869463d505accf60e01b86528b303360048901610cab565b03925af19182156100f457610527946020936103f45750516040516323b872dd60e01b81523360048201526001600160a01b038b81166024830152604482019390935294859290911690829060009082906064820190565b03925af19182156100f457600192610541575b500161042b565b6105589060203d8111610210576102018183610702565b508a61053a565b610568366109b6565b95928492949591955193815185810361022d57506001600160a01b03169360005b8181106105b757505060405163ce9506f960e01b8152966000968896879586956102a7955060048701610dd3565b6105c18186610c81565b515190604082015160206105d58387610c81565b51930180518451602086015160408701516060909701519693949391926001600160a01b03169060ff16813b15610228576000809461062d6040519a8b968795869463d505accf60e01b86528b303360048901610cab565b03925af19182156100f457610685946020936103f45750516040516323b872dd60e01b81523360048201526001600160a01b038b81166024830152604482019390935294859290911690829060009082906064820190565b03925af19182156100f45760019261069f575b5001610589565b6106b69060203d8111610210576102018183610702565b508a610698565b35906001600160a01b038216820361022857565b604081019081106001600160401b038211176106ec57604052565b634e487b7160e01b600052604160045260246000fd5b90601f801991011681019081106001600160401b038211176106ec57604052565b6001600160401b0381116106ec5760051b60200190565b919082606091031261022857604051606081018181106001600160401b038211176106ec576040526040808294610770816106bd565b845261077e602082016106bd565b60208501520135910152565b81601f820112156102285780356107a081610723565b926107ae6040519485610702565b8184526020606081860193028401019281841161022857602001915b8383106107d8575050505090565b60206060916107e7848661073a565b8152019201916107ca565b9080601f830112156102285781359161080a83610723565b926108186040519485610702565b80845260208085019160071b8301019183831161022857602001905b828210610842575050505090565b6080828503126102285760405190610859826106d1565b610863858461073a565b825260608301359081151582036102285782602092836080950152815201910190610834565b359060ff8216820361022857565b81601f82011215610228578035906108ae82610723565b926108bc6040519485610702565b82845260208085019360071b8301019181831161022857602001925b8284106108e6575050505090565b608084830312610228576040519060808201908282106001600160401b038311176106ec5760809260209260405286358152610923838801610889565b8382015260408701356040820152606087013560608201528152019301926108d8565b6001600160401b0381116106ec57601f01601f191660200190565b92919261096d82610946565b9161097b6040519384610702565b829481845281830111610228578281602093846000960137010152565b9080601f83011215610228578160206109b393359101610961565b90565b60e0600319820112610228576004356001600160a01b038116810361022857916024356001600160401b03811161022857826109f49160040161078a565b916044356001600160401b0381116102285781610a13916004016107f2565b916064356001600160401b0381116102285782610a3291600401610897565b916084356001600160a01b0381168103610228579160a4356001600160401b0381116102285782610a6591600401610998565b9160c435906001600160401b038211610228576109b39160040161078a565b60005b838110610a975750506000910152565b8181015183820152602001610a87565b90602091610ac081518092818552858086019101610a84565b601f01601f1916010190565b90610100600319830112610228576004356001600160a01b038116810361022857916024356001600160401b038111610228578160238201121561022857806004013590610b1982610723565b91610b276040519384610702565b8083526024602084019160051b830101918483116102285760248101915b838310610bff5750505050916044356001600160401b0381116102285782610b6f9160040161078a565b916064356001600160401b0381116102285781610b8e916004016107f2565b916084356001600160401b0381116102285782610bad91600401610897565b9160a4356001600160a01b0381168103610228579160c4356001600160401b0381116102285782610be091600401610998565b9160e435906001600160401b038211610228576109b39160040161078a565b82356001600160401b03811161022857820190604082880360231901126102285760405190610c2d826106d1565b60248301356001600160401b038111610228576024908401019188601f8401121561022857610c726044602095610c6a8c87898099359101610961565b845201610889565b83820152815201920191610b45565b8051821015610c955760209160051b010190565b634e487b7160e01b600052603260045260246000fd5b9360c095919897969360ff9360e087019a60018060a01b0316875260018060a01b031660208701526040860152606085015216608083015260a08201520152565b90816020910312610228575180151581036102285790565b90929192610d1181610946565b91610d1f6040519384610702565b829482845282820111610228576020610d39930190610a84565b565b602081830312610228578051906001600160401b03821161022857019080601f830112156102285781516109b392602001610d04565b906020808351928381520192019060005b818110610d8f5750505090565b9091926020606082610dc860019488516040809160018060a01b03815116845260018060a01b0360208201511660208501520151910152565b019401929101610d82565b939195949290610deb9060a0865260a0860190610d71565b84810360208601526020808851928381520197019060005b818110610e41575050506001600160a01b03166040840152828503606084015292936109b393610e339190610aa7565b916080818403910152610d71565b90919760206080600192828c51610e7d8382516040809160018060a01b03815116845260018060a01b0360208201511660208501520151910152565b015115156060820152019901929101610e03565b9190825181519081810361113657505060005b83518110156111305760006001600160a01b036020610ec38486610c81565b5101511661100757506040610eda81519182610702565b600381526208aa8960eb1b60208201526012905b6040516020810190610f1c6020828551610f0b8187858a01610a84565b81010301601f198101835282610702565b519020610f298488610c81565b5151604051610f4860208281610f0b8183019687815193849201610a84565b51902014801590610fe9575b610f62575050600101610ea4565b610fde60ff91826020610f998a9882610f828a60018060a01b0393610c81565b5101511697610f91818b610c81565b515199610c81565b5101511690610fc7604051978897635591851960e01b8952600489015260a0602489015260a4880190610aa7565b916044870152600319868303016064870152610aa7565b911660848301520390fd5b5060ff6020610ff88589610c81565b5101511660ff83161415610f54565b6004816001600160a01b03602061101e8688610c81565b51015116604051928380926395d89b4160e01b82525afa9182156111245780926110cc575b506004905060206001600160a01b038161105d8688610c81565b510151166040519283809263313ce56760e01b82525afa9081156100f45760009161108a575b5090610eee565b6020813d82116110c4575b816110a260209383610702565b810103126110c057519060ff821682036110bd575038611083565b80fd5b5080fd5b3d9150611095565b9091503d8082843e6110de8184610702565b8201916020818403126110c0578051906001600160401b03821161112057019082601f830112156110bd575080516111199291602001610d04565b3880611043565b8280fd5b604051903d90823e3d90fd5b50509050565b630a7df64d60e41b60005260045260245260446000fdfea2646970667358221220841de66f136b44ab7bed8caf030d667032e8be1768c6df8ec260c4b4de3cd4cc64736f6c634300081b0033",
  "linkReferences": {},
  "deployedLinkReferences": {}
}