{
  "contracts/mocks/BalanceProxyTester.sol": {
    "BalanceProxyTester": {
      "abi": [
        {
          "inputs": [
            {
              "internalType": "address",
              "name": "target",
              "type": "address"
            },
            {
              "internalType": "bytes",
              "name": "data",
              "type": "bytes"
            },
            {
              "internalType": "bytes",
              "name": "returnData",
              "type": "bytes"
            }
          ],
          "name": "CallFailed",
          "type": "error"
        },
        {
          "inputs": [
            {
              "internalType": "address",
              "name": "token",
              "type": "address"
            },
            {
              "internalType": "address",
              "name": "target",
              "type": "address"
            },
            {
              "internalType": "int256",
              "name": "balance",
              "type": "int256"
            },
            {
              "internalType": "uint256",
              "name": "actual",
              "type": "uint256"
            }
          ],
          "name": "InsufficientBalance",
          "type": "error"
        },
        {
          "inputs": [
            {
              "internalType": "address",
              "name": "token",
              "type": "address"
            },
            {
              "internalType": "string",
              "name": "expectedSymbol",
              "type": "string"
            },
            {
              "internalType": "uint8",
              "name": "expectedDecimals",
              "type": "uint8"
            },
            {
              "internalType": "string",
              "name": "actualSymbol",
              "type": "string"
            },
            {
              "internalType": "uint8",
              "name": "actualDecimals",
              "type": "uint8"
            }
          ],
          "name": "InvalidMetadata",
          "type": "error"
        },
        {
          "inputs": [
            {
              "internalType": "address",
              "name": "token",
              "type": "address"
            },
            {
              "internalType": "address",
              "name": "target",
              "type": "address"
            }
          ],
          "name": "MaliciousApproveTarget",
          "type": "error"
        },
        {
          "inputs": [
            {
              "internalType": "int256",
              "name": "amount",
              "type": "int256"
            }
          ],
          "name": "NegativeApprovalAmount",
          "type": "error"
        },
        {
          "inputs": [],
          "name": "ReentrancyGuardReentrantCall",
          "type": "error"
        },
        {
          "inputs": [
            {
              "internalType": "address",
              "name": "token",
              "type": "address"
            },
            {
              "internalType": "address",
              "name": "target",
              "type": "address"
            },
            {
              "internalType": "int256",
              "name": "expected",
              "type": "int256"
            },
            {
              "internalType": "int256",
              "name": "actual",
              "type": "int256"
            }
          ],
          "name": "UnexpectedBalanceDiff",
          "type": "error"
        },
        {
          "inputs": [
            {
              "components": [
                {
                  "internalType": "address",
                  "name": "target",
                  "type": "address"
                },
                {
                  "internalType": "address",
                  "name": "token",
                  "type": "address"
                },
                {
                  "internalType": "int256",
                  "name": "balance",
                  "type": "int256"
                }
              ],
              "internalType": "struct IBalanceProxy.Balance",
              "name": "balance",
              "type": "tuple"
            }
          ],
          "name": "exposeBalanceCheckCalldata",
          "outputs": [],
          "stateMutability": "view",
          "type": "function"
        },
        {
          "inputs": [
            {
              "components": [
                {
                  "internalType": "address",
                  "name": "target",
                  "type": "address"
                },
                {
                  "internalType": "address",
                  "name": "token",
                  "type": "address"
                },
                {
                  "internalType": "int256",
                  "name": "balance",
                  "type": "int256"
                }
              ],
              "internalType": "struct IBalanceProxy.Balance[]",
              "name": "postBalances",
              "type": "tuple[]"
            },
            {
              "components": [
                {
                  "components": [
                    {
                      "internalType": "address",
                      "name": "target",
                      "type": "address"
                    },
                    {
                      "internalType": "address",
                      "name": "token",
                      "type": "address"
                    },
                    {
                      "internalType": "int256",
                      "name": "balance",
                      "type": "int256"
                    }
                  ],
                  "internalType": "struct IBalanceProxy.Balance",
                  "name": "balance",
                  "type": "tuple"
                },
                {
                  "internalType": "bool",
                  "name": "useTransfer",
                  "type": "bool"
                }
              ],
              "internalType": "struct IBalanceProxy.Approval[]",
              "name": "approvals",
              "type": "tuple[]"
            },
            {
              "internalType": "address",
              "name": "target",
              "type": "address"
            },
            {
              "internalType": "bytes",
              "name": "data",
              "type": "bytes"
            },
            {
              "components": [
                {
                  "internalType": "address",
                  "name": "target",
                  "type": "address"
                },
                {
                  "internalType": "address",
                  "name": "token",
                  "type": "address"
                },
                {
                  "internalType": "int256",
                  "name": "balance",
                  "type": "int256"
                }
              ],
              "internalType": "struct IBalanceProxy.Balance[]",
              "name": "withdrawals",
              "type": "tuple[]"
            }
          ],
          "name": "proxyCall",
          "outputs": [
            {
              "internalType": "bytes",
              "name": "",
              "type": "bytes"
            }
          ],
          "stateMutability": "payable",
          "type": "function"
        },
        {
          "inputs": [
            {
              "components": [
                {
                  "internalType": "address",
                  "name": "target",
                  "type": "address"
                },
                {
                  "internalType": "address",
                  "name": "token",
                  "type": "address"
                },
                {
                  "internalType": "int256",
                  "name": "balance",
                  "type": "int256"
                }
              ],
              "internalType": "struct IBalanceProxy.Balance[]",
              "name": "diffs",
              "type": "tuple[]"
            },
            {
              "components": [
                {
                  "components": [
                    {
                      "internalType": "address",
                      "name": "target",
                      "type": "address"
                    },
                    {
                      "internalType": "address",
                      "name": "token",
                      "type": "address"
                    },
                    {
                      "internalType": "int256",
                      "name": "balance",
                      "type": "int256"
                    }
                  ],
                  "internalType": "struct IBalanceProxy.Balance",
                  "name": "balance",
                  "type": "tuple"
                },
                {
                  "internalType": "bool",
                  "name": "useTransfer",
                  "type": "bool"
                }
              ],
              "internalType": "struct IBalanceProxy.Approval[]",
              "name": "approvals",
              "type": "tuple[]"
            },
            {
              "internalType": "address",
              "name": "target",
              "type": "address"
            },
            {
              "internalType": "bytes",
              "name": "data",
              "type": "bytes"
            },
            {
              "components": [
                {
                  "internalType": "address",
                  "name": "target",
                  "type": "address"
                },
                {
                  "internalType": "address",
                  "name": "token",
                  "type": "address"
                },
                {
                  "internalType": "int256",
                  "name": "balance",
                  "type": "int256"
                }
              ],
              "internalType": "struct IBalanceProxy.Balance[]",
              "name": "withdrawals",
              "type": "tuple[]"
            }
          ],
          "name": "proxyCallDiffs",
          "outputs": [
            {
              "internalType": "bytes",
              "name": "",
              "type": "bytes"
            }
          ],
          "stateMutability": "payable",
          "type": "function"
        },
        {
          "stateMutability": "payable",
          "type": "receive"
        }
      ],
      "devdoc": {
        "errors": {
          "ReentrancyGuardReentrantCall()": [
            {
              "details": "Unauthorized reentrant call."
            }
          ]
        },
        "kind": "dev",
        "methods": {},
        "version": 1
      },
      "evm": {
        "bytecode": {
          "linkReferences": {},
          "object": "60808060405234601a576001600055610bf490816100208239f35b600080fdfe6080604052600436101561001b575b361561001957600080fd5b005b60003560e01c8063890e3add1461035a5780638f873b73146102245763ce9506f90361000e5761004a366106bf565b909293610055610909565b60005b855181101561007e5780610078856100726001948a610879565b516109c9565b01610058565b50828460008082516020840134865af1916100976108a3565b921561020757505060005b83518110156100c757806100c16100bb60019387610879565b51610afc565b016100a2565b509060005b81518110156101e8576100df8183610879565b516020810180519091906000906001600160a01b03168061016a57505080516001600160a01b0316315b6040820151928360ff1d80850118821061012957505050506001016100cc565b51915160405163d87031f960e01b81526001600160a01b039384166004820152921660248301526044820192909252606481019190915280608481015b0390fd5b602060018060a01b038451166024604051809481936370a0823160e01b835260048301525afa9182156101dc5780926101a5575b5050610109565b9091506020823d82116101d4575b816101c060209383610586565b810103126101d1575051868061019e565b80fd5b3d91506101b3565b604051903d90823e3d90fd5b60016000556040516020808252819061020390820186610838565b0390f35b61016683604051938493630881f24f60e31b8552600485016108d3565b346103555760603660031901126103555760006001600160a01b03610247610b92565b166102be57610254610ba8565b315b604435908160ff1d80830118811061026c578280f35b610166610277610b92565b91610280610ba8565b60405163d87031f960e01b81526001600160a01b03948516600482015293166024840152604483019390935260648201929092529081906084820190565b6001600160a01b036102ce610b92565b1660206102d9610ba8565b6040516370a0823160e01b81526001600160a01b03909116600482015291829060249082905afa90811561034a578291610314575b50610256565b90506020813d602011610342575b8161032f60209383610586565b8101031261033e57518261030e565b5080fd5b3d9150610322565b6040513d84823e3d90fd5b600080fd5b610363366106bf565b90929361036e610909565b600090805161037c816105be565b9261038a6040519485610586565b818452601f19610399836105be565b013660208601375b818110610547575060005b87518110156103cc57806103c6876100726001948c610879565b016103ac565b5084908660008082516020840134875af1926103e66108a3565b931561052a57505060005b8551811015610410578061040a6100bb60019389610879565b016103f1565b508360005b8281106104375760016000556040516020808252819061020390820187610838565b61046d6001600160a01b03602061044e8489610879565b510151166001600160a01b036104648489610879565b5151169061092b565b6104778284610879565b51906000828203921281831281169183139015161761051457604061049c8388610879565b51015181126104ae5750600101610415565b608492508560406104ec6001600160a01b0360206104cc8786610879565b51015116946001600160a01b036104e38286610879565b51511693610879565b5101519060405193637ec440e760e11b85526004850152602484015260448301526064820152fd5b634e487b7160e01b600052601160045260246000fd5b61016684604051938493630881f24f60e31b8552600485016108d3565b6001906105756001600160a01b0360206105618488610879565b51015116838060a01b036104648488610879565b61057f8287610879565b52016103a1565b90601f8019910116810190811067ffffffffffffffff8211176105a857604052565b634e487b7160e01b600052604160045260246000fd5b67ffffffffffffffff81116105a85760051b60200190565b35906001600160a01b038216820361035557565b9190826060910312610355576040516060810181811067ffffffffffffffff8211176105a8576040526040808294610621816105d6565b845261062f602082016105d6565b60208501520135910152565b81601f82011215610355578035610651816105be565b9261065f6040519485610586565b8184526020606081860193028401019281841161035557602001915b838310610689575050505090565b602060609161069884866105ea565b81520192019161067b565b67ffffffffffffffff81116105a857601f01601f191660200190565b60a06003198201126103555760043567ffffffffffffffff811161035557816106ea9160040161063b565b9160243567ffffffffffffffff8111610355578260238201121561035557806004013590610717826105be565b916107256040519384610586565b8083526024602084019160071b8301019185831161035557602401905b8282106107e0575091939150506044356001600160a01b0381168103610355579160643567ffffffffffffffff8111610355578260238201121561035557806004013561078e816106a3565b9161079c6040519384610586565b818352846024838301011161035557816000926024602093018386013783010152916084359067ffffffffffffffff8211610355576107dd9160040161063b565b90565b60808287031261035557604051906040820182811067ffffffffffffffff8211176105a85760405261081287846105ea565b825260608301359081151582036103555782602092836080950152815201910190610742565b919082519283825260005b848110610864575050826000602080949584010152601f8019910116010190565b80602080928401015182828601015201610843565b805182101561088d5760209160051b010190565b634e487b7160e01b600052603260045260246000fd5b3d156108ce573d906108b4826106a3565b916108c26040519384610586565b82523d6000602084013e565b606090565b6001600160a01b0390911681526060602082018190526107dd9391926108fb91840190610838565b916040818403910152610838565b60026000541461091a576002600055565b633ee5aeb560e01b60005260046000fd5b6000906001600160a01b0316806109425750503190565b6040516370a0823160e01b81526001600160a01b039093166004840152909190602090829060249082905afa9182156101dc57809261098057505090565b9091506020823d6020116109a9575b8161099c60209383610586565b810103126101d157505190565b3d915061098f565b90816020910312610355575180151581036103555790565b80518051919290916001600160a01b0390811691168103610ad7575060408101805160008112610ac35750516020929092015115610a8457602081810151915160405163a9059cbb60e01b81526001600160a01b0391821660048201526024810194909452909183911681600081604481015b03925af18015610a7857610a4d5750565b610a6e9060203d602011610a71575b610a668183610586565b8101906109b1565b50565b503d610a5c565b6040513d6000823e3d90fd5b602081810151915160405163095ea7b360e01b81526001600160a01b039182166004820152602481019490945290918391168160008160448101610a3c565b63303b302960e11b60005260045260246000fd5b90602060018060a01b0391015116635876e71160e01b60005260045260245260446000fd5b60208101516001600160a01b031680610b4c5750600080808093604060018060a01b03825116910151908160ff1d809201918392818114610b42575b1891f115610a7857565b6108fc9350610b38565b8151604092830151925163a9059cbb60e01b81526001600160a01b03909116600482015260ff83901d928301909218602483015260209082908160008160448101610a3c565b6024356001600160a01b03811681036103555790565b6004356001600160a01b0381168103610355579056fea26469706673582212200f3dee63e0223dd5c8e77d3cffd278ee5926f8b71ec082e6df4e6c4afa1570d564736f6c634300081b0033",
          "opcodes": "PUSH1 0x80 DUP1 PUSH1 0x40 MSTORE CALLVALUE PUSH1 0x1A JUMPI PUSH1 0x1 PUSH1 0x0 SSTORE PUSH2 0xBF4 SWAP1 DUP2 PUSH2 0x20 DUP3 CODECOPY RETURN JUMPDEST PUSH1 0x0 DUP1 REVERT INVALID PUSH1 0x80 PUSH1 0x40 MSTORE PUSH1 0x4 CALLDATASIZE LT ISZERO PUSH2 0x1B JUMPI JUMPDEST CALLDATASIZE ISZERO PUSH2 0x19 JUMPI PUSH1 0x0 DUP1 REVERT JUMPDEST STOP JUMPDEST PUSH1 0x0 CALLDATALOAD PUSH1 0xE0 SHR DUP1 PUSH4 0x890E3ADD EQ PUSH2 0x35A JUMPI DUP1 PUSH4 0x8F873B73 EQ PUSH2 0x224 JUMPI PUSH4 0xCE9506F9 SUB PUSH2 0xE JUMPI PUSH2 0x4A CALLDATASIZE PUSH2 0x6BF JUMP JUMPDEST SWAP1 SWAP3 SWAP4 PUSH2 0x55 PUSH2 0x909 JUMP JUMPDEST PUSH1 0x0 JUMPDEST DUP6 MLOAD DUP2 LT ISZERO PUSH2 0x7E JUMPI DUP1 PUSH2 0x78 DUP6 PUSH2 0x72 PUSH1 0x1 SWAP5 DUP11 PUSH2 0x879 JUMP JUMPDEST MLOAD PUSH2 0x9C9 JUMP JUMPDEST ADD PUSH2 0x58 JUMP JUMPDEST POP DUP3 DUP5 PUSH1 0x0 DUP1 DUP3 MLOAD PUSH1 0x20 DUP5 ADD CALLVALUE DUP7 GAS CALL SWAP2 PUSH2 0x97 PUSH2 0x8A3 JUMP JUMPDEST SWAP3 ISZERO PUSH2 0x207 JUMPI POP POP PUSH1 0x0 JUMPDEST DUP4 MLOAD DUP2 LT ISZERO PUSH2 0xC7 JUMPI DUP1 PUSH2 0xC1 PUSH2 0xBB PUSH1 0x1 SWAP4 DUP8 PUSH2 0x879 JUMP JUMPDEST MLOAD PUSH2 0xAFC JUMP JUMPDEST ADD PUSH2 0xA2 JUMP JUMPDEST POP SWAP1 PUSH1 0x0 JUMPDEST DUP2 MLOAD DUP2 LT ISZERO PUSH2 0x1E8 JUMPI PUSH2 0xDF DUP2 DUP4 PUSH2 0x879 JUMP JUMPDEST MLOAD PUSH1 0x20 DUP2 ADD DUP1 MLOAD SWAP1 SWAP2 SWAP1 PUSH1 0x0 SWAP1 PUSH1 0x1 PUSH1 0x1 PUSH1 0xA0 SHL SUB AND DUP1 PUSH2 0x16A JUMPI POP POP DUP1 MLOAD PUSH1 0x1 PUSH1 0x1 PUSH1 0xA0 SHL SUB AND BALANCE JUMPDEST PUSH1 0x40 DUP3 ADD MLOAD SWAP3 DUP4 PUSH1 0xFF SAR DUP1 DUP6 ADD XOR DUP3 LT PUSH2 0x129 JUMPI POP POP POP POP PUSH1 0x1 ADD PUSH2 0xCC JUMP JUMPDEST MLOAD SWAP2 MLOAD PUSH1 0x40 MLOAD PUSH4 0xD87031F9 PUSH1 0xE0 SHL DUP2 MSTORE PUSH1 0x1 PUSH1 0x1 PUSH1 0xA0 SHL SUB SWAP4 DUP5 AND PUSH1 0x4 DUP3 ADD MSTORE SWAP3 AND PUSH1 0x24 DUP4 ADD MSTORE PUSH1 0x44 DUP3 ADD SWAP3 SWAP1 SWAP3 MSTORE PUSH1 0x64 DUP2 ADD SWAP2 SWAP1 SWAP2 MSTORE DUP1 PUSH1 0x84 DUP2 ADD JUMPDEST SUB SWAP1 REVERT JUMPDEST PUSH1 0x20 PUSH1 0x1 DUP1 PUSH1 0xA0 SHL SUB DUP5 MLOAD AND PUSH1 0x24 PUSH1 0x40 MLOAD DUP1 SWAP5 DUP2 SWAP4 PUSH4 0x70A08231 PUSH1 0xE0 SHL DUP4 MSTORE PUSH1 0x4 DUP4 ADD MSTORE GAS STATICCALL SWAP2 DUP3 ISZERO PUSH2 0x1DC JUMPI DUP1 SWAP3 PUSH2 0x1A5 JUMPI JUMPDEST POP POP PUSH2 0x109 JUMP JUMPDEST SWAP1 SWAP2 POP PUSH1 0x20 DUP3 RETURNDATASIZE DUP3 GT PUSH2 0x1D4 JUMPI JUMPDEST DUP2 PUSH2 0x1C0 PUSH1 0x20 SWAP4 DUP4 PUSH2 0x586 JUMP JUMPDEST DUP2 ADD SUB SLT PUSH2 0x1D1 JUMPI POP MLOAD DUP7 DUP1 PUSH2 0x19E JUMP JUMPDEST DUP1 REVERT JUMPDEST RETURNDATASIZE SWAP2 POP PUSH2 0x1B3 JUMP JUMPDEST PUSH1 0x40 MLOAD SWAP1 RETURNDATASIZE SWAP1 DUP3 RETURNDATACOPY RETURNDATASIZE SWAP1 REVERT JUMPDEST PUSH1 0x1 PUSH1 0x0 SSTORE PUSH1 0x40 MLOAD PUSH1 0x20 DUP1 DUP3 MSTORE DUP2 SWAP1 PUSH2 0x203 SWAP1 DUP3 ADD DUP7 PUSH2 0x838 JUMP JUMPDEST SUB SWAP1 RETURN JUMPDEST PUSH2 0x166 DUP4 PUSH1 0x40 MLOAD SWAP4 DUP5 SWAP4 PUSH4 0x881F24F PUSH1 0xE3 SHL DUP6 MSTORE PUSH1 0x4 DUP6 ADD PUSH2 0x8D3 JUMP JUMPDEST CALLVALUE PUSH2 0x355 JUMPI PUSH1 0x60 CALLDATASIZE PUSH1 0x3 NOT ADD SLT PUSH2 0x355 JUMPI PUSH1 0x0 PUSH1 0x1 PUSH1 0x1 PUSH1 0xA0 SHL SUB PUSH2 0x247 PUSH2 0xB92 JUMP JUMPDEST AND PUSH2 0x2BE JUMPI PUSH2 0x254 PUSH2 0xBA8 JUMP JUMPDEST BALANCE JUMPDEST PUSH1 0x44 CALLDATALOAD SWAP1 DUP2 PUSH1 0xFF SAR DUP1 DUP4 ADD XOR DUP2 LT PUSH2 0x26C JUMPI DUP3 DUP1 RETURN JUMPDEST PUSH2 0x166 PUSH2 0x277 PUSH2 0xB92 JUMP JUMPDEST SWAP2 PUSH2 0x280 PUSH2 0xBA8 JUMP JUMPDEST PUSH1 0x40 MLOAD PUSH4 0xD87031F9 PUSH1 0xE0 SHL DUP2 MSTORE PUSH1 0x1 PUSH1 0x1 PUSH1 0xA0 SHL SUB SWAP5 DUP6 AND PUSH1 0x4 DUP3 ADD MSTORE SWAP4 AND PUSH1 0x24 DUP5 ADD MSTORE PUSH1 0x44 DUP4 ADD SWAP4 SWAP1 SWAP4 MSTORE PUSH1 0x64 DUP3 ADD SWAP3 SWAP1 SWAP3 MSTORE SWAP1 DUP2 SWAP1 PUSH1 0x84 DUP3 ADD SWAP1 JUMP JUMPDEST PUSH1 0x1 PUSH1 0x1 PUSH1 0xA0 SHL SUB PUSH2 0x2CE PUSH2 0xB92 JUMP JUMPDEST AND PUSH1 0x20 PUSH2 0x2D9 PUSH2 0xBA8 JUMP JUMPDEST PUSH1 0x40 MLOAD PUSH4 0x70A08231 PUSH1 0xE0 SHL DUP2 MSTORE PUSH1 0x1 PUSH1 0x1 PUSH1 0xA0 SHL SUB SWAP1 SWAP2 AND PUSH1 0x4 DUP3 ADD MSTORE SWAP2 DUP3 SWAP1 PUSH1 0x24 SWAP1 DUP3 SWAP1 GAS STATICCALL SWAP1 DUP2 ISZERO PUSH2 0x34A JUMPI DUP3 SWAP2 PUSH2 0x314 JUMPI JUMPDEST POP PUSH2 0x256 JUMP JUMPDEST SWAP1 POP PUSH1 0x20 DUP2 RETURNDATASIZE PUSH1 0x20 GT PUSH2 0x342 JUMPI JUMPDEST DUP2 PUSH2 0x32F PUSH1 0x20 SWAP4 DUP4 PUSH2 0x586 JUMP JUMPDEST DUP2 ADD SUB SLT PUSH2 0x33E JUMPI MLOAD DUP3 PUSH2 0x30E JUMP JUMPDEST POP DUP1 REVERT JUMPDEST RETURNDATASIZE SWAP2 POP PUSH2 0x322 JUMP JUMPDEST PUSH1 0x40 MLOAD RETURNDATASIZE DUP5 DUP3 RETURNDATACOPY RETURNDATASIZE SWAP1 REVERT JUMPDEST PUSH1 0x0 DUP1 REVERT JUMPDEST PUSH2 0x363 CALLDATASIZE PUSH2 0x6BF JUMP JUMPDEST SWAP1 SWAP3 SWAP4 PUSH2 0x36E PUSH2 0x909 JUMP JUMPDEST PUSH1 0x0 SWAP1 DUP1 MLOAD PUSH2 0x37C DUP2 PUSH2 0x5BE JUMP JUMPDEST SWAP3 PUSH2 0x38A PUSH1 0x40 MLOAD SWAP5 DUP6 PUSH2 0x586 JUMP JUMPDEST DUP2 DUP5 MSTORE PUSH1 0x1F NOT PUSH2 0x399 DUP4 PUSH2 0x5BE JUMP JUMPDEST ADD CALLDATASIZE PUSH1 0x20 DUP7 ADD CALLDATACOPY JUMPDEST DUP2 DUP2 LT PUSH2 0x547 JUMPI POP PUSH1 0x0 JUMPDEST DUP8 MLOAD DUP2 LT ISZERO PUSH2 0x3CC JUMPI DUP1 PUSH2 0x3C6 DUP8 PUSH2 0x72 PUSH1 0x1 SWAP5 DUP13 PUSH2 0x879 JUMP JUMPDEST ADD PUSH2 0x3AC JUMP JUMPDEST POP DUP5 SWAP1 DUP7 PUSH1 0x0 DUP1 DUP3 MLOAD PUSH1 0x20 DUP5 ADD CALLVALUE DUP8 GAS CALL SWAP3 PUSH2 0x3E6 PUSH2 0x8A3 JUMP JUMPDEST SWAP4 ISZERO PUSH2 0x52A JUMPI POP POP PUSH1 0x0 JUMPDEST DUP6 MLOAD DUP2 LT ISZERO PUSH2 0x410 JUMPI DUP1 PUSH2 0x40A PUSH2 0xBB PUSH1 0x1 SWAP4 DUP10 PUSH2 0x879 JUMP JUMPDEST ADD PUSH2 0x3F1 JUMP JUMPDEST POP DUP4 PUSH1 0x0 JUMPDEST DUP3 DUP2 LT PUSH2 0x437 JUMPI PUSH1 0x1 PUSH1 0x0 SSTORE PUSH1 0x40 MLOAD PUSH1 0x20 DUP1 DUP3 MSTORE DUP2 SWAP1 PUSH2 0x203 SWAP1 DUP3 ADD DUP8 PUSH2 0x838 JUMP JUMPDEST PUSH2 0x46D PUSH1 0x1 PUSH1 0x1 PUSH1 0xA0 SHL SUB PUSH1 0x20 PUSH2 0x44E DUP5 DUP10 PUSH2 0x879 JUMP JUMPDEST MLOAD ADD MLOAD AND PUSH1 0x1 PUSH1 0x1 PUSH1 0xA0 SHL SUB PUSH2 0x464 DUP5 DUP10 PUSH2 0x879 JUMP JUMPDEST MLOAD MLOAD AND SWAP1 PUSH2 0x92B JUMP JUMPDEST PUSH2 0x477 DUP3 DUP5 PUSH2 0x879 JUMP JUMPDEST MLOAD SWAP1 PUSH1 0x0 DUP3 DUP3 SUB SWAP3 SLT DUP2 DUP4 SLT DUP2 AND SWAP2 DUP4 SGT SWAP1 ISZERO AND OR PUSH2 0x514 JUMPI PUSH1 0x40 PUSH2 0x49C DUP4 DUP9 PUSH2 0x879 JUMP JUMPDEST MLOAD ADD MLOAD DUP2 SLT PUSH2 0x4AE JUMPI POP PUSH1 0x1 ADD PUSH2 0x415 JUMP JUMPDEST PUSH1 0x84 SWAP3 POP DUP6 PUSH1 0x40 PUSH2 0x4EC PUSH1 0x1 PUSH1 0x1 PUSH1 0xA0 SHL SUB PUSH1 0x20 PUSH2 0x4CC DUP8 DUP7 PUSH2 0x879 JUMP JUMPDEST MLOAD ADD MLOAD AND SWAP5 PUSH1 0x1 PUSH1 0x1 PUSH1 0xA0 SHL SUB PUSH2 0x4E3 DUP3 DUP7 PUSH2 0x879 JUMP JUMPDEST MLOAD MLOAD AND SWAP4 PUSH2 0x879 JUMP JUMPDEST MLOAD ADD MLOAD SWAP1 PUSH1 0x40 MLOAD SWAP4 PUSH4 0x7EC440E7 PUSH1 0xE1 SHL DUP6 MSTORE PUSH1 0x4 DUP6 ADD MSTORE PUSH1 0x24 DUP5 ADD MSTORE PUSH1 0x44 DUP4 ADD MSTORE PUSH1 0x64 DUP3 ADD MSTORE REVERT JUMPDEST PUSH4 0x4E487B71 PUSH1 0xE0 SHL PUSH1 0x0 MSTORE PUSH1 0x11 PUSH1 0x4 MSTORE PUSH1 0x24 PUSH1 0x0 REVERT JUMPDEST PUSH2 0x166 DUP5 PUSH1 0x40 MLOAD SWAP4 DUP5 SWAP4 PUSH4 0x881F24F PUSH1 0xE3 SHL DUP6 MSTORE PUSH1 0x4 DUP6 ADD PUSH2 0x8D3 JUMP JUMPDEST PUSH1 0x1 SWAP1 PUSH2 0x575 PUSH1 0x1 PUSH1 0x1 PUSH1 0xA0 SHL SUB PUSH1 0x20 PUSH2 0x561 DUP5 DUP9 PUSH2 0x879 JUMP JUMPDEST MLOAD ADD MLOAD AND DUP4 DUP1 PUSH1 0xA0 SHL SUB PUSH2 0x464 DUP5 DUP9 PUSH2 0x879 JUMP JUMPDEST PUSH2 0x57F DUP3 DUP8 PUSH2 0x879 JUMP JUMPDEST MSTORE ADD PUSH2 0x3A1 JUMP JUMPDEST SWAP1 PUSH1 0x1F DUP1 NOT SWAP2 ADD AND DUP2 ADD SWAP1 DUP2 LT PUSH8 0xFFFFFFFFFFFFFFFF DUP3 GT OR PUSH2 0x5A8 JUMPI PUSH1 0x40 MSTORE JUMP JUMPDEST PUSH4 0x4E487B71 PUSH1 0xE0 SHL PUSH1 0x0 MSTORE PUSH1 0x41 PUSH1 0x4 MSTORE PUSH1 0x24 PUSH1 0x0 REVERT JUMPDEST PUSH8 0xFFFFFFFFFFFFFFFF DUP2 GT PUSH2 0x5A8 JUMPI PUSH1 0x5 SHL PUSH1 0x20 ADD SWAP1 JUMP JUMPDEST CALLDATALOAD SWAP1 PUSH1 0x1 PUSH1 0x1 PUSH1 0xA0 SHL SUB DUP3 AND DUP3 SUB PUSH2 0x355 JUMPI JUMP JUMPDEST SWAP2 SWAP1 DUP3 PUSH1 0x60 SWAP2 SUB SLT PUSH2 0x355 JUMPI PUSH1 0x40 MLOAD PUSH1 0x60 DUP2 ADD DUP2 DUP2 LT PUSH8 0xFFFFFFFFFFFFFFFF DUP3 GT OR PUSH2 0x5A8 JUMPI PUSH1 0x40 MSTORE PUSH1 0x40 DUP1 DUP3 SWAP5 PUSH2 0x621 DUP2 PUSH2 0x5D6 JUMP JUMPDEST DUP5 MSTORE PUSH2 0x62F PUSH1 0x20 DUP3 ADD PUSH2 0x5D6 JUMP JUMPDEST PUSH1 0x20 DUP6 ADD MSTORE ADD CALLDATALOAD SWAP2 ADD MSTORE JUMP JUMPDEST DUP2 PUSH1 0x1F DUP3 ADD SLT ISZERO PUSH2 0x355 JUMPI DUP1 CALLDATALOAD PUSH2 0x651 DUP2 PUSH2 0x5BE JUMP JUMPDEST SWAP3 PUSH2 0x65F PUSH1 0x40 MLOAD SWAP5 DUP6 PUSH2 0x586 JUMP JUMPDEST DUP2 DUP5 MSTORE PUSH1 0x20 PUSH1 0x60 DUP2 DUP7 ADD SWAP4 MUL DUP5 ADD ADD SWAP3 DUP2 DUP5 GT PUSH2 0x355 JUMPI PUSH1 0x20 ADD SWAP2 JUMPDEST DUP4 DUP4 LT PUSH2 0x689 JUMPI POP POP POP POP SWAP1 JUMP JUMPDEST PUSH1 0x20 PUSH1 0x60 SWAP2 PUSH2 0x698 DUP5 DUP7 PUSH2 0x5EA JUMP JUMPDEST DUP2 MSTORE ADD SWAP3 ADD SWAP2 PUSH2 0x67B JUMP JUMPDEST PUSH8 0xFFFFFFFFFFFFFFFF DUP2 GT PUSH2 0x5A8 JUMPI PUSH1 0x1F ADD PUSH1 0x1F NOT AND PUSH1 0x20 ADD SWAP1 JUMP JUMPDEST PUSH1 0xA0 PUSH1 0x3 NOT DUP3 ADD SLT PUSH2 0x355 JUMPI PUSH1 0x4 CALLDATALOAD PUSH8 0xFFFFFFFFFFFFFFFF DUP2 GT PUSH2 0x355 JUMPI DUP2 PUSH2 0x6EA SWAP2 PUSH1 0x4 ADD PUSH2 0x63B JUMP JUMPDEST SWAP2 PUSH1 0x24 CALLDATALOAD PUSH8 0xFFFFFFFFFFFFFFFF DUP2 GT PUSH2 0x355 JUMPI DUP3 PUSH1 0x23 DUP3 ADD SLT ISZERO PUSH2 0x355 JUMPI DUP1 PUSH1 0x4 ADD CALLDATALOAD SWAP1 PUSH2 0x717 DUP3 PUSH2 0x5BE JUMP JUMPDEST SWAP2 PUSH2 0x725 PUSH1 0x40 MLOAD SWAP4 DUP5 PUSH2 0x586 JUMP JUMPDEST DUP1 DUP4 MSTORE PUSH1 0x24 PUSH1 0x20 DUP5 ADD SWAP2 PUSH1 0x7 SHL DUP4 ADD ADD SWAP2 DUP6 DUP4 GT PUSH2 0x355 JUMPI PUSH1 0x24 ADD SWAP1 JUMPDEST DUP3 DUP3 LT PUSH2 0x7E0 JUMPI POP SWAP2 SWAP4 SWAP2 POP POP PUSH1 0x44 CALLDATALOAD PUSH1 0x1 PUSH1 0x1 PUSH1 0xA0 SHL SUB DUP2 AND DUP2 SUB PUSH2 0x355 JUMPI SWAP2 PUSH1 0x64 CALLDATALOAD PUSH8 0xFFFFFFFFFFFFFFFF DUP2 GT PUSH2 0x355 JUMPI DUP3 PUSH1 0x23 DUP3 ADD SLT ISZERO PUSH2 0x355 JUMPI DUP1 PUSH1 0x4 ADD CALLDATALOAD PUSH2 0x78E DUP2 PUSH2 0x6A3 JUMP JUMPDEST SWAP2 PUSH2 0x79C PUSH1 0x40 MLOAD SWAP4 DUP5 PUSH2 0x586 JUMP JUMPDEST DUP2 DUP4 MSTORE DUP5 PUSH1 0x24 DUP4 DUP4 ADD ADD GT PUSH2 0x355 JUMPI DUP2 PUSH1 0x0 SWAP3 PUSH1 0x24 PUSH1 0x20 SWAP4 ADD DUP4 DUP7 ADD CALLDATACOPY DUP4 ADD ADD MSTORE SWAP2 PUSH1 0x84 CALLDATALOAD SWAP1 PUSH8 0xFFFFFFFFFFFFFFFF DUP3 GT PUSH2 0x355 JUMPI PUSH2 0x7DD SWAP2 PUSH1 0x4 ADD PUSH2 0x63B JUMP JUMPDEST SWAP1 JUMP JUMPDEST PUSH1 0x80 DUP3 DUP8 SUB SLT PUSH2 0x355 JUMPI PUSH1 0x40 MLOAD SWAP1 PUSH1 0x40 DUP3 ADD DUP3 DUP2 LT PUSH8 0xFFFFFFFFFFFFFFFF DUP3 GT OR PUSH2 0x5A8 JUMPI PUSH1 0x40 MSTORE PUSH2 0x812 DUP8 DUP5 PUSH2 0x5EA JUMP JUMPDEST DUP3 MSTORE PUSH1 0x60 DUP4 ADD CALLDATALOAD SWAP1 DUP2 ISZERO ISZERO DUP3 SUB PUSH2 0x355 JUMPI DUP3 PUSH1 0x20 SWAP3 DUP4 PUSH1 0x80 SWAP6 ADD MSTORE DUP2 MSTORE ADD SWAP2 ADD SWAP1 PUSH2 0x742 JUMP JUMPDEST SWAP2 SWAP1 DUP3 MLOAD SWAP3 DUP4 DUP3 MSTORE PUSH1 0x0 JUMPDEST DUP5 DUP2 LT PUSH2 0x864 JUMPI POP POP DUP3 PUSH1 0x0 PUSH1 0x20 DUP1 SWAP5 SWAP6 DUP5 ADD ADD MSTORE PUSH1 0x1F DUP1 NOT SWAP2 ADD AND ADD ADD SWAP1 JUMP JUMPDEST DUP1 PUSH1 0x20 DUP1 SWAP3 DUP5 ADD ADD MLOAD DUP3 DUP3 DUP7 ADD ADD MSTORE ADD PUSH2 0x843 JUMP JUMPDEST DUP1 MLOAD DUP3 LT ISZERO PUSH2 0x88D JUMPI PUSH1 0x20 SWAP2 PUSH1 0x5 SHL ADD ADD SWAP1 JUMP JUMPDEST PUSH4 0x4E487B71 PUSH1 0xE0 SHL PUSH1 0x0 MSTORE PUSH1 0x32 PUSH1 0x4 MSTORE PUSH1 0x24 PUSH1 0x0 REVERT JUMPDEST RETURNDATASIZE ISZERO PUSH2 0x8CE JUMPI RETURNDATASIZE SWAP1 PUSH2 0x8B4 DUP3 PUSH2 0x6A3 JUMP JUMPDEST SWAP2 PUSH2 0x8C2 PUSH1 0x40 MLOAD SWAP4 DUP5 PUSH2 0x586 JUMP JUMPDEST DUP3 MSTORE RETURNDATASIZE PUSH1 0x0 PUSH1 0x20 DUP5 ADD RETURNDATACOPY JUMP JUMPDEST PUSH1 0x60 SWAP1 JUMP JUMPDEST PUSH1 0x1 PUSH1 0x1 PUSH1 0xA0 SHL SUB SWAP1 SWAP2 AND DUP2 MSTORE PUSH1 0x60 PUSH1 0x20 DUP3 ADD DUP2 SWAP1 MSTORE PUSH2 0x7DD SWAP4 SWAP2 SWAP3 PUSH2 0x8FB SWAP2 DUP5 ADD SWAP1 PUSH2 0x838 JUMP JUMPDEST SWAP2 PUSH1 0x40 DUP2 DUP5 SUB SWAP2 ADD MSTORE PUSH2 0x838 JUMP JUMPDEST PUSH1 0x2 PUSH1 0x0 SLOAD EQ PUSH2 0x91A JUMPI PUSH1 0x2 PUSH1 0x0 SSTORE JUMP JUMPDEST PUSH4 0x3EE5AEB5 PUSH1 0xE0 SHL PUSH1 0x0 MSTORE PUSH1 0x4 PUSH1 0x0 REVERT JUMPDEST PUSH1 0x0 SWAP1 PUSH1 0x1 PUSH1 0x1 PUSH1 0xA0 SHL SUB AND DUP1 PUSH2 0x942 JUMPI POP POP BALANCE SWAP1 JUMP JUMPDEST PUSH1 0x40 MLOAD PUSH4 0x70A08231 PUSH1 0xE0 SHL DUP2 MSTORE PUSH1 0x1 PUSH1 0x1 PUSH1 0xA0 SHL SUB SWAP1 SWAP4 AND PUSH1 0x4 DUP5 ADD MSTORE SWAP1 SWAP2 SWAP1 PUSH1 0x20 SWAP1 DUP3 SWAP1 PUSH1 0x24 SWAP1 DUP3 SWAP1 GAS STATICCALL SWAP2 DUP3 ISZERO PUSH2 0x1DC JUMPI DUP1 SWAP3 PUSH2 0x980 JUMPI POP POP SWAP1 JUMP JUMPDEST SWAP1 SWAP2 POP PUSH1 0x20 DUP3 RETURNDATASIZE PUSH1 0x20 GT PUSH2 0x9A9 JUMPI JUMPDEST DUP2 PUSH2 0x99C PUSH1 0x20 SWAP4 DUP4 PUSH2 0x586 JUMP JUMPDEST DUP2 ADD SUB SLT PUSH2 0x1D1 JUMPI POP MLOAD SWAP1 JUMP JUMPDEST RETURNDATASIZE SWAP2 POP PUSH2 0x98F JUMP JUMPDEST SWAP1 DUP2 PUSH1 0x20 SWAP2 SUB SLT PUSH2 0x355 JUMPI MLOAD DUP1 ISZERO ISZERO DUP2 SUB PUSH2 0x355 JUMPI SWAP1 JUMP JUMPDEST DUP1 MLOAD DUP1 MLOAD SWAP2 SWAP3 SWAP1 SWAP2 PUSH1 0x1 PUSH1 0x1 PUSH1 0xA0 SHL SUB SWAP1 DUP2 AND SWAP2 AND DUP2 SUB PUSH2 0xAD7 JUMPI POP PUSH1 0x40 DUP2 ADD DUP1 MLOAD PUSH1 0x0 DUP2 SLT PUSH2 0xAC3 JUMPI POP MLOAD PUSH1 0x20 SWAP3 SWAP1 SWAP3 ADD MLOAD ISZERO PUSH2 0xA84 JUMPI PUSH1 0x20 DUP2 DUP2 ADD MLOAD SWAP2 MLOAD PUSH1 0x40 MLOAD PUSH4 0xA9059CBB PUSH1 0xE0 SHL DUP2 MSTORE PUSH1 0x1 PUSH1 0x1 PUSH1 0xA0 SHL SUB SWAP2 DUP3 AND PUSH1 0x4 DUP3 ADD MSTORE PUSH1 0x24 DUP2 ADD SWAP5 SWAP1 SWAP5 MSTORE SWAP1 SWAP2 DUP4 SWAP2 AND DUP2 PUSH1 0x0 DUP2 PUSH1 0x44 DUP2 ADD JUMPDEST SUB SWAP3 GAS CALL DUP1 ISZERO PUSH2 0xA78 JUMPI PUSH2 0xA4D JUMPI POP JUMP JUMPDEST PUSH2 0xA6E SWAP1 PUSH1 0x20 RETURNDATASIZE PUSH1 0x20 GT PUSH2 0xA71 JUMPI JUMPDEST PUSH2 0xA66 DUP2 DUP4 PUSH2 0x586 JUMP JUMPDEST DUP2 ADD SWAP1 PUSH2 0x9B1 JUMP JUMPDEST POP JUMP JUMPDEST POP RETURNDATASIZE PUSH2 0xA5C JUMP JUMPDEST PUSH1 0x40 MLOAD RETURNDATASIZE PUSH1 0x0 DUP3 RETURNDATACOPY RETURNDATASIZE SWAP1 REVERT JUMPDEST PUSH1 0x20 DUP2 DUP2 ADD MLOAD SWAP2 MLOAD PUSH1 0x40 MLOAD PUSH4 0x95EA7B3 PUSH1 0xE0 SHL DUP2 MSTORE PUSH1 0x1 PUSH1 0x1 PUSH1 0xA0 SHL SUB SWAP2 DUP3 AND PUSH1 0x4 DUP3 ADD MSTORE PUSH1 0x24 DUP2 ADD SWAP5 SWAP1 SWAP5 MSTORE SWAP1 SWAP2 DUP4 SWAP2 AND DUP2 PUSH1 0x0 DUP2 PUSH1 0x44 DUP2 ADD PUSH2 0xA3C JUMP JUMPDEST PUSH4 0x303B3029 PUSH1 0xE1 SHL PUSH1 0x0 MSTORE PUSH1 0x4 MSTORE PUSH1 0x24 PUSH1 0x0 REVERT JUMPDEST SWAP1 PUSH1 0x20 PUSH1 0x1 DUP1 PUSH1 0xA0 SHL SUB SWAP2 ADD MLOAD AND PUSH4 0x5876E711 PUSH1 0xE0 SHL PUSH1 0x0 MSTORE PUSH1 0x4 MSTORE PUSH1 0x24 MSTORE PUSH1 0x44 PUSH1 0x0 REVERT JUMPDEST PUSH1 0x20 DUP2 ADD MLOAD PUSH1 0x1 PUSH1 0x1 PUSH1 0xA0 SHL SUB AND DUP1 PUSH2 0xB4C JUMPI POP PUSH1 0x0 DUP1 DUP1 DUP1 SWAP4 PUSH1 0x40 PUSH1 0x1 DUP1 PUSH1 0xA0 SHL SUB DUP3 MLOAD AND SWAP2 ADD MLOAD SWAP1 DUP2 PUSH1 0xFF SAR DUP1 SWAP3 ADD SWAP2 DUP4 SWAP3 DUP2 DUP2 EQ PUSH2 0xB42 JUMPI JUMPDEST XOR SWAP2 CALL ISZERO PUSH2 0xA78 JUMPI JUMP JUMPDEST PUSH2 0x8FC SWAP4 POP PUSH2 0xB38 JUMP JUMPDEST DUP2 MLOAD PUSH1 0x40 SWAP3 DUP4 ADD MLOAD SWAP3 MLOAD PUSH4 0xA9059CBB PUSH1 0xE0 SHL DUP2 MSTORE PUSH1 0x1 PUSH1 0x1 PUSH1 0xA0 SHL SUB SWAP1 SWAP2 AND PUSH1 0x4 DUP3 ADD MSTORE PUSH1 0xFF DUP4 SWAP1 SAR SWAP3 DUP4 ADD SWAP1 SWAP3 XOR PUSH1 0x24 DUP4 ADD MSTORE PUSH1 0x20 SWAP1 DUP3 SWAP1 DUP2 PUSH1 0x0 DUP2 PUSH1 0x44 DUP2 ADD PUSH2 0xA3C JUMP JUMPDEST PUSH1 0x24 CALLDATALOAD PUSH1 0x1 PUSH1 0x1 PUSH1 0xA0 SHL SUB DUP2 AND DUP2 SUB PUSH2 0x355 JUMPI SWAP1 JUMP JUMPDEST PUSH1 0x4 CALLDATALOAD PUSH1 0x1 PUSH1 0x1 PUSH1 0xA0 SHL SUB DUP2 AND DUP2 SUB PUSH2 0x355 JUMPI SWAP1 JUMP INVALID LOG2 PUSH5 0x6970667358 0x22 SLT KECCAK256 0xF RETURNDATASIZE 0xEE PUSH4 0xE0223DD5 0xC8 0xE7 PUSH30 0x3CFFD278EE5926F8B71EC082E6DF4E6C4AFA1570D564736F6C634300081B STOP CALLER "
        },
        "methodIdentifiers": {
          "exposeBalanceCheckCalldata((address,address,int256))": "8f873b73",
          "proxyCall((address,address,int256)[],((address,address,int256),bool)[],address,bytes,(address,address,int256)[])": "ce9506f9",
          "proxyCallDiffs((address,address,int256)[],((address,address,int256),bool)[],address,bytes,(address,address,int256)[])": "890e3add"
        }
      },
      "userdoc": {
        "errors": {
          "CallFailed(address,bytes,bytes)": [
            {
              "notice": "Error thrown when a call fails"
            }
          ],
          "InsufficientBalance(address,address,int256,uint256)": [
            {
              "notice": "Error thrown when a balance is insufficient"
            }
          ],
          "InvalidMetadata(address,string,uint8,string,uint8)": [
            {
              "notice": "Error thrown when metadata doesn't match actual token properties"
            }
          ],
          "MaliciousApproveTarget(address,address)": [
            {
              "notice": "Error thrown when trying to approve/transfer to an address other than callTarget"
            }
          ],
          "NegativeApprovalAmount(int256)": [
            {
              "notice": "Error thrown when an approval amount is negative"
            }
          ],
          "UnexpectedBalanceDiff(address,address,int256,int256)": [
            {
              "notice": "Error when actual diff != expected"
            }
          ]
        },
        "kind": "user",
        "methods": {
          "proxyCall((address,address,int256)[],((address,address,int256),bool)[],address,bytes,(address,address,int256)[])": {
            "notice": "Proxy call to a target contract with specified post-balance checks"
          },
          "proxyCallDiffs((address,address,int256)[],((address,address,int256),bool)[],address,bytes,(address,address,int256)[])": {
            "notice": "Proxy call with balance diffs"
          }
        },
        "notice": "Test helper exposing internal view checks for coverage",
        "version": 1
      }
    }
  }
}