{
  "contracts/SafeRouter.sol": {
    "SafeRouter": {
      "abi": [
        {
          "inputs": [
            {
              "internalType": "uint256",
              "name": "providedWithRouter",
              "type": "uint256"
            },
            {
              "internalType": "uint256",
              "name": "threshold",
              "type": "uint256"
            }
          ],
          "name": "InsufficientSafeSignatures",
          "type": "error"
        },
        {
          "inputs": [
            {
              "internalType": "address",
              "name": "token",
              "type": "address"
            },
            {
              "internalType": "string",
              "name": "expectedSymbol",
              "type": "string"
            },
            {
              "internalType": "uint8",
              "name": "expectedDecimals",
              "type": "uint8"
            },
            {
              "internalType": "string",
              "name": "actualSymbol",
              "type": "string"
            },
            {
              "internalType": "uint8",
              "name": "actualDecimals",
              "type": "uint8"
            }
          ],
          "name": "InvalidMetadata",
          "type": "error"
        },
        {
          "inputs": [
            {
              "internalType": "uint256",
              "name": "position",
              "type": "uint256"
            },
            {
              "internalType": "uint256",
              "name": "signatureCount",
              "type": "uint256"
            }
          ],
          "name": "InvalidRouterSignaturePosition",
          "type": "error"
        },
        {
          "inputs": [
            {
              "internalType": "uint256",
              "name": "length",
              "type": "uint256"
            }
          ],
          "name": "InvalidSignaturesLength",
          "type": "error"
        },
        {
          "inputs": [
            {
              "internalType": "uint256",
              "name": "metaLength",
              "type": "uint256"
            },
            {
              "internalType": "uint256",
              "name": "balancesLength",
              "type": "uint256"
            }
          ],
          "name": "MetadataBalancesLengthMismatch",
          "type": "error"
        },
        {
          "inputs": [
            {
              "internalType": "address",
              "name": "caller",
              "type": "address"
            },
            {
              "internalType": "address",
              "name": "safe",
              "type": "address"
            }
          ],
          "name": "NotSafeOwner",
          "type": "error"
        },
        {
          "inputs": [
            {
              "internalType": "address",
              "name": "router",
              "type": "address"
            },
            {
              "internalType": "address",
              "name": "safe",
              "type": "address"
            }
          ],
          "name": "RouterNotSafeOwner",
          "type": "error"
        },
        {
          "inputs": [
            {
              "internalType": "address",
              "name": "safe",
              "type": "address"
            },
            {
              "internalType": "address",
              "name": "target",
              "type": "address"
            }
          ],
          "name": "SafeExecutionFailed",
          "type": "error"
        },
        {
          "inputs": [],
          "name": "UnauthorizedSafeExecution",
          "type": "error"
        },
        {
          "inputs": [
            {
              "internalType": "enum Enum.Operation",
              "name": "operation",
              "type": "uint8"
            }
          ],
          "name": "UnsupportedSafeOperation",
          "type": "error"
        },
        {
          "inputs": [
            {
              "internalType": "contract ISafe",
              "name": "safe",
              "type": "address"
            },
            {
              "components": [
                {
                  "internalType": "address",
                  "name": "to",
                  "type": "address"
                },
                {
                  "internalType": "uint256",
                  "name": "value",
                  "type": "uint256"
                },
                {
                  "internalType": "bytes",
                  "name": "data",
                  "type": "bytes"
                },
                {
                  "internalType": "enum Enum.Operation",
                  "name": "operation",
                  "type": "uint8"
                },
                {
                  "internalType": "uint256",
                  "name": "safeTxGas",
                  "type": "uint256"
                },
                {
                  "internalType": "uint256",
                  "name": "baseGas",
                  "type": "uint256"
                },
                {
                  "internalType": "uint256",
                  "name": "gasPrice",
                  "type": "uint256"
                },
                {
                  "internalType": "address",
                  "name": "gasToken",
                  "type": "address"
                },
                {
                  "internalType": "address payable",
                  "name": "refundReceiver",
                  "type": "address"
                },
                {
                  "internalType": "bytes",
                  "name": "signatures",
                  "type": "bytes"
                },
                {
                  "internalType": "uint256",
                  "name": "routerSigPosition",
                  "type": "uint256"
                }
              ],
              "internalType": "struct SafeRouter.SafeTx",
              "name": "safeTx",
              "type": "tuple"
            }
          ],
          "name": "executeSafeTransaction",
          "outputs": [],
          "stateMutability": "nonpayable",
          "type": "function"
        },
        {
          "inputs": [
            {
              "internalType": "contract IBalanceProxy",
              "name": "balanceProxy",
              "type": "address"
            },
            {
              "internalType": "contract ISafe",
              "name": "safe",
              "type": "address"
            },
            {
              "components": [
                {
                  "internalType": "address",
                  "name": "target",
                  "type": "address"
                },
                {
                  "internalType": "address",
                  "name": "token",
                  "type": "address"
                },
                {
                  "internalType": "int256",
                  "name": "balance",
                  "type": "int256"
                }
              ],
              "internalType": "struct IBalanceProxy.Balance[]",
              "name": "diffs",
              "type": "tuple[]"
            },
            {
              "components": [
                {
                  "internalType": "address",
                  "name": "to",
                  "type": "address"
                },
                {
                  "internalType": "uint256",
                  "name": "value",
                  "type": "uint256"
                },
                {
                  "internalType": "bytes",
                  "name": "data",
                  "type": "bytes"
                },
                {
                  "internalType": "enum Enum.Operation",
                  "name": "operation",
                  "type": "uint8"
                },
                {
                  "internalType": "uint256",
                  "name": "safeTxGas",
                  "type": "uint256"
                },
                {
                  "internalType": "uint256",
                  "name": "baseGas",
                  "type": "uint256"
                },
                {
                  "internalType": "uint256",
                  "name": "gasPrice",
                  "type": "uint256"
                },
                {
                  "internalType": "address",
                  "name": "gasToken",
                  "type": "address"
                },
                {
                  "internalType": "address payable",
                  "name": "refundReceiver",
                  "type": "address"
                },
                {
                  "internalType": "bytes",
                  "name": "signatures",
                  "type": "bytes"
                },
                {
                  "internalType": "uint256",
                  "name": "routerSigPosition",
                  "type": "uint256"
                }
              ],
              "internalType": "struct SafeRouter.SafeTx",
              "name": "safeTx",
              "type": "tuple"
            }
          ],
          "name": "safeExecuteWithDiffs",
          "outputs": [],
          "stateMutability": "nonpayable",
          "type": "function"
        },
        {
          "inputs": [
            {
              "internalType": "contract IBalanceProxy",
              "name": "balanceProxy",
              "type": "address"
            },
            {
              "internalType": "contract ISafe",
              "name": "safe",
              "type": "address"
            },
            {
              "components": [
                {
                  "internalType": "string",
                  "name": "symbol",
                  "type": "string"
                },
                {
                  "internalType": "uint8",
                  "name": "decimals",
                  "type": "uint8"
                }
              ],
              "internalType": "struct BalanceMetadata[]",
              "name": "meta",
              "type": "tuple[]"
            },
            {
              "components": [
                {
                  "internalType": "address",
                  "name": "target",
                  "type": "address"
                },
                {
                  "internalType": "address",
                  "name": "token",
                  "type": "address"
                },
                {
                  "internalType": "int256",
                  "name": "balance",
                  "type": "int256"
                }
              ],
              "internalType": "struct IBalanceProxy.Balance[]",
              "name": "diffs",
              "type": "tuple[]"
            },
            {
              "components": [
                {
                  "internalType": "address",
                  "name": "to",
                  "type": "address"
                },
                {
                  "internalType": "uint256",
                  "name": "value",
                  "type": "uint256"
                },
                {
                  "internalType": "bytes",
                  "name": "data",
                  "type": "bytes"
                },
                {
                  "internalType": "enum Enum.Operation",
                  "name": "operation",
                  "type": "uint8"
                },
                {
                  "internalType": "uint256",
                  "name": "safeTxGas",
                  "type": "uint256"
                },
                {
                  "internalType": "uint256",
                  "name": "baseGas",
                  "type": "uint256"
                },
                {
                  "internalType": "uint256",
                  "name": "gasPrice",
                  "type": "uint256"
                },
                {
                  "internalType": "address",
                  "name": "gasToken",
                  "type": "address"
                },
                {
                  "internalType": "address payable",
                  "name": "refundReceiver",
                  "type": "address"
                },
                {
                  "internalType": "bytes",
                  "name": "signatures",
                  "type": "bytes"
                },
                {
                  "internalType": "uint256",
                  "name": "routerSigPosition",
                  "type": "uint256"
                }
              ],
              "internalType": "struct SafeRouter.SafeTx",
              "name": "safeTx",
              "type": "tuple"
            }
          ],
          "name": "safeExecuteWithDiffsMeta",
          "outputs": [],
          "stateMutability": "nonpayable",
          "type": "function"
        },
        {
          "inputs": [
            {
              "internalType": "contract IBalanceProxy",
              "name": "balanceProxy",
              "type": "address"
            },
            {
              "internalType": "contract ISafe",
              "name": "safe",
              "type": "address"
            },
            {
              "components": [
                {
                  "internalType": "address",
                  "name": "target",
                  "type": "address"
                },
                {
                  "internalType": "address",
                  "name": "token",
                  "type": "address"
                },
                {
                  "internalType": "int256",
                  "name": "balance",
                  "type": "int256"
                }
              ],
              "internalType": "struct IBalanceProxy.Balance[]",
              "name": "postBalances",
              "type": "tuple[]"
            },
            {
              "components": [
                {
                  "internalType": "address",
                  "name": "to",
                  "type": "address"
                },
                {
                  "internalType": "uint256",
                  "name": "value",
                  "type": "uint256"
                },
                {
                  "internalType": "bytes",
                  "name": "data",
                  "type": "bytes"
                },
                {
                  "internalType": "enum Enum.Operation",
                  "name": "operation",
                  "type": "uint8"
                },
                {
                  "internalType": "uint256",
                  "name": "safeTxGas",
                  "type": "uint256"
                },
                {
                  "internalType": "uint256",
                  "name": "baseGas",
                  "type": "uint256"
                },
                {
                  "internalType": "uint256",
                  "name": "gasPrice",
                  "type": "uint256"
                },
                {
                  "internalType": "address",
                  "name": "gasToken",
                  "type": "address"
                },
                {
                  "internalType": "address payable",
                  "name": "refundReceiver",
                  "type": "address"
                },
                {
                  "internalType": "bytes",
                  "name": "signatures",
                  "type": "bytes"
                },
                {
                  "internalType": "uint256",
                  "name": "routerSigPosition",
                  "type": "uint256"
                }
              ],
              "internalType": "struct SafeRouter.SafeTx",
              "name": "safeTx",
              "type": "tuple"
            }
          ],
          "name": "safeExecuteWithPostBalances",
          "outputs": [],
          "stateMutability": "nonpayable",
          "type": "function"
        },
        {
          "inputs": [
            {
              "internalType": "contract IBalanceProxy",
              "name": "balanceProxy",
              "type": "address"
            },
            {
              "internalType": "contract ISafe",
              "name": "safe",
              "type": "address"
            },
            {
              "components": [
                {
                  "internalType": "string",
                  "name": "symbol",
                  "type": "string"
                },
                {
                  "internalType": "uint8",
                  "name": "decimals",
                  "type": "uint8"
                }
              ],
              "internalType": "struct BalanceMetadata[]",
              "name": "meta",
              "type": "tuple[]"
            },
            {
              "components": [
                {
                  "internalType": "address",
                  "name": "target",
                  "type": "address"
                },
                {
                  "internalType": "address",
                  "name": "token",
                  "type": "address"
                },
                {
                  "internalType": "int256",
                  "name": "balance",
                  "type": "int256"
                }
              ],
              "internalType": "struct IBalanceProxy.Balance[]",
              "name": "postBalances",
              "type": "tuple[]"
            },
            {
              "components": [
                {
                  "internalType": "address",
                  "name": "to",
                  "type": "address"
                },
                {
                  "internalType": "uint256",
                  "name": "value",
                  "type": "uint256"
                },
                {
                  "internalType": "bytes",
                  "name": "data",
                  "type": "bytes"
                },
                {
                  "internalType": "enum Enum.Operation",
                  "name": "operation",
                  "type": "uint8"
                },
                {
                  "internalType": "uint256",
                  "name": "safeTxGas",
                  "type": "uint256"
                },
                {
                  "internalType": "uint256",
                  "name": "baseGas",
                  "type": "uint256"
                },
                {
                  "internalType": "uint256",
                  "name": "gasPrice",
                  "type": "uint256"
                },
                {
                  "internalType": "address",
                  "name": "gasToken",
                  "type": "address"
                },
                {
                  "internalType": "address payable",
                  "name": "refundReceiver",
                  "type": "address"
                },
                {
                  "internalType": "bytes",
                  "name": "signatures",
                  "type": "bytes"
                },
                {
                  "internalType": "uint256",
                  "name": "routerSigPosition",
                  "type": "uint256"
                }
              ],
              "internalType": "struct SafeRouter.SafeTx",
              "name": "safeTx",
              "type": "tuple"
            }
          ],
          "name": "safeExecuteWithPostBalancesMeta",
          "outputs": [],
          "stateMutability": "nonpayable",
          "type": "function"
        }
      ],
      "devdoc": {
        "kind": "dev",
        "methods": {},
        "version": 1
      },
      "evm": {
        "bytecode": {
          "linkReferences": {},
          "object": "608080604052346015576111b6908161001b8239f35b600080fdfe6080604052600436101561001257600080fd5b6000803560e01c806321482d6b1461043457806387042af5146103ff578063d2d169fc146103d2578063d86d2633146103a25763ece10c061461005457600080fd5b3461039f57604036600319011261039f576004356001600160a01b0381169081810361039d576024356001600160401b0381116103995780600401916101606003198336030112610395576100d183916100c3604051938492637670860360e11b602085015260248401610643565b03601f19810183528261073b565b6100dd855491336110c9565b03610386576100f061012482018361086a565b604051631cea46b760e31b81526101448401359291906020816004818a5afa801561037b578890610343575b61012991508483856110fc565b6040519060208201308152886040840152600160f81b60608401526041835261015360618461073b565b60418502948086046041149015171561032f5781851161032b57886101bd9596979899505060208680860193039384926101a5896040519a8b99868b0137880191848301936000855251938491610993565b0101918237016000815203601f19810183528261073b565b6101c68361097f565b6101d3604484018561086a565b91909360648101356002811015610326576101f060e4830161097f565b946101048301356001600160a01b038116908190036103265760209660c46102a09561025f6102546040519c8d9b8c9b63353b090160e11b8d5260018060a01b031660048d0152602485013560248d015261014060448d01526101448c01916105ff565b9660648a0190610620565b6084818101359089015260a48082013590890152013560c48701526001600160a01b031660e486015261010485015283820360031901610124850152610a2a565b03816000875af190811561031a576000916102eb575b50156102be57005b6102c79061097f565b6371995c9d60e11b60009081526004929092526001600160a01b0316602452604490fd5b61030d915060203d602011610313575b610305818361073b565b810190610772565b386102b6565b503d6102fb565b6040513d6000823e3d90fd5b600080fd5b8880fd5b634e487b7160e01b89526011600452602489fd5b506020813d602011610373575b8161035d6020938361073b565b8101031261036f57610129905161011c565b8780fd5b3d9150610350565b6040513d8a823e3d90fd5b63f8ffbe2f60e01b8452600484fd5b8480fd5b8380fd5b825b80fd5b503461039f576103cf6103b436610550565b936103c084929461078a565b6103ca858361089c565b610fa2565b80f35b503461039f576103cf6103e436610550565b936103f084929461078a565b6103fa858361089c565b611059565b503461039f576103cf6103fa6104143661048d565b96918196938695610425839861078a565b61042f8a8861089c565b610a4f565b503461039f576103cf6103ca6104143661048d565b35906001600160a01b038216820361032657565b9181601f84011215610326578235916001600160401b038311610326576020808501946060850201011161032657565b60a0600319820112610326576004356001600160a01b038116810361032657916024356001600160a01b03811681036103265791604435916001600160401b0383116103265781602384011215610326578260040135926001600160401b038411610326578260248560051b830101116103265760240192916064356001600160401b03811161032657816105249160040161045d565b92909291608435906001600160401b038211610326576101609082900360031901126103265760040190565b6080600319820112610326576004356001600160a01b038116810361032657916024356001600160a01b038116810361032657916044356001600160401b03811161032657816105a29160040161045d565b92909291606435906001600160401b038211610326576101609082900360031901126103265760040190565b9035601e19823603018112156103265701602081359101916001600160401b03821161032657813603831361032657565b908060209392818452848401376000828201840152601f01601f1916010190565b90600282101561062d5752565b634e487b7160e01b600052602160045260246000fd5b6001600160a01b039182168152604060208201529061066183610449565b1660408201526020820135606082015261069461068160408401846105ce565b61016060808501526101a08401916105ff565b60608301356002811015610326576106b09060a0840190610620565b608083013560c083015260a083013560e083015260c083013561010083015260018060a01b036106e260e08501610449565b166101208301526101008301356001600160a01b03811691908290036103265761073261014091610180938386015261071f6101208701876105ce565b868303603f1901610160880152906105ff565b93013591015290565b90601f801991011681019081106001600160401b0382111761075c57604052565b634e487b7160e01b600052604160045260246000fd5b90816020910312610326575180151581036103265790565b6040516317aa5fb760e11b81523360048201526001600160a01b039190911690602081602481855afa90811561031a5760009161084b575b5015610833576040516317aa5fb760e11b8152306004820152602081602481855afa90811561031a57600091610814575b50156107fc5750565b63663cd0c560e11b6000523060045260245260446000fd5b61082d915060203d60201161031357610305818361073b565b386107f3565b634451317160e11b6000523360045260245260446000fd5b610864915060203d60201161031357610305818361073b565b386107c2565b903590601e198136030182121561032657018035906001600160401b0382116103265760200191813603831361032657565b6060820135600281108015610326578161094057505060049060206108c561012085018561086a565b604051631cea46b760e31b8152949193909291859182906001600160a01b03165afa92831561031a57600093610908575b50610140610906940135916110fc565b565b9392506020843d602011610938575b816109246020938361073b565b8101031261032657925191926101406108f6565b3d9150610917565b63b284b01b60e01b6000521561062d5760045260246000fd5b9190811015610969576060020190565b634e487b7160e01b600052603260045260246000fd5b356001600160a01b03811681036103265790565b60005b8381106109a65750506000910152565b8181015183820152602001610996565b909291926001600160401b03811161075c57604051916109e0601f8301601f19166020018461073b565b829482845282820111610326576020610906930190610993565b91908110156109695760051b81013590603e1981360301821215610326570190565b3560ff811681036103265790565b90602091610a4381518092818552858086019101610993565b601f01601f1916010190565b919091838303610d155760005b838110610a6a575050505050565b60006001600160a01b03610a8a6020610a84858a89610959565b0161097f565b16610bf157506040610a9e8151918261073b565b600381526208aa8960eb1b60208201526012905b6040516020810190610ae06020828551610acf8187858a01610993565b81010301601f19810183528261073b565b519020610af7610af18589886109fa565b8061086a565b610b1f602060405183819483830196873781016000838201520301601f19810183528261073b565b51902014801590610bd2575b610b39575050600101610a5c565b60ff610baf610b7b6020610b7587610b6d610af1828e9f868a9e9c9f610bc79e610b6693610a8492610959565b9e8b6109fa565b9d90986109fa565b01610a1c565b604051635591851960e01b81526001600160a01b0390991660048a015260a060248a0152979889989460a48a0191906105ff565b92166044870152858203600319016064870152610a2a565b911660848301520390fd5b5060ff610be56020610b75868a896109fa565b1660ff83161415610b2b565b6004816001600160a01b03610c0c6020610a84878c8b610959565b16604051928380926395d89b4160e01b82525afa918215610d09578092610cb5575b506004905060206001600160a01b03610c4c82610a84878c8b610959565b166040519283809263313ce56760e01b82525afa90811561031a57600091610c76575b5090610ab2565b6020813d8211610cad575b81610c8e6020938361073b565b81010312610ca957519060ff8216820361039f575038610c6f565b5080fd5b3d9150610c81565b9091503d8082843e610cc7818461073b565b820191602081840312610ca9578051906001600160401b03821161039d57019082601f8301121561039f57508051610d0292916020016109b6565b3880610c2e565b604051903d90823e3d90fd5b5050630a7df64d60e41b60005260045260245260446000fd5b60405190606082018281106001600160401b0382111761075c5760405260006040838281528260208201520152565b60405190610d6c60208361073b565b60008083528290805b818110610d8157505050565b6040519060408201918083106001600160401b0384111761075c57602092604052610daa610d2e565b815260008382015282828601015201610d75565b60405190610dcd60208361073b565b600080835282815b828110610de157505050565b602090610dec610d2e565b82828501015201610dd5565b602081830312610326578051906001600160401b03821161032657019080601f83011215610326578151610e2e926020016109b6565b90565b94919390938060a0870160a088525260c08601949060005b818110610f545750505084840360208601526020808451958681520193019360005b818110610efe5750506001600160a01b031660408501528382036060850152610e949250610a2a565b9060808183039101526020808351928381520192019060005b818110610eba5750505090565b9091926020606082610ef360019488516040809160018060a01b03815116845260018060a01b0360208201511660208501520151910152565b019401929101610ead565b9091929360206080600192828951610f3b8382516040809160018060a01b03815116845260018060a01b0360208201511660208501520151910152565b0151151560608201520196019101949392919094610e6b565b909192939495606080600192838060a01b03610f6f88610449565b168152838060a01b03610f8460208901610449565b16602082015260408781013590820152019796959401929101610e49565b610fd660009492610fc8604051978892637670860360e11b602085015260248401610643565b03601f19810187528661073b565b6001600160a01b031690610fea85836110c9565b845583610ff5610d5d565b91611020611001610dbe565b60405163ce9506f960e01b815298899788968795309260048801610e31565b03925af1801561031a57611036575b5060008055565b611052903d806000833e61104a818361073b565b810190610df8565b503861102f565b61107f60009492610fc8604051978892637670860360e11b602085015260248401610643565b6001600160a01b03169061109385836110c9565b84558361109e610d5d565b916110206110aa610dbe565b60405163890e3add60e01b815298899788968795309260048801610e31565b906110f66100c391604051928391602083019560018060a01b031686526040808401526060830190610a2a565b51902090565b506041810661116c57604190049081811161115557506001810180911161113f57818110611128575050565b633562c20f60e11b60005260045260245260446000fd5b634e487b7160e01b600052601160045260246000fd5b636fe59b1d60e11b60005260045260245260446000fd5b630137b8c960e21b60005260045260246000fdfea26469706673582212204292d82ee9275fa5d0cd63ceccbc190dfc1f65da7d8a6141c4171ad88e2a8ae164736f6c634300081b0033",
          "opcodes": "PUSH1 0x80 DUP1 PUSH1 0x40 MSTORE CALLVALUE PUSH1 0x15 JUMPI PUSH2 0x11B6 SWAP1 DUP2 PUSH2 0x1B DUP3 CODECOPY RETURN JUMPDEST PUSH1 0x0 DUP1 REVERT INVALID PUSH1 0x80 PUSH1 0x40 MSTORE PUSH1 0x4 CALLDATASIZE LT ISZERO PUSH2 0x12 JUMPI PUSH1 0x0 DUP1 REVERT JUMPDEST PUSH1 0x0 DUP1 CALLDATALOAD PUSH1 0xE0 SHR DUP1 PUSH4 0x21482D6B EQ PUSH2 0x434 JUMPI DUP1 PUSH4 0x87042AF5 EQ PUSH2 0x3FF JUMPI DUP1 PUSH4 0xD2D169FC EQ PUSH2 0x3D2 JUMPI DUP1 PUSH4 0xD86D2633 EQ PUSH2 0x3A2 JUMPI PUSH4 0xECE10C06 EQ PUSH2 0x54 JUMPI PUSH1 0x0 DUP1 REVERT JUMPDEST CALLVALUE PUSH2 0x39F JUMPI PUSH1 0x40 CALLDATASIZE PUSH1 0x3 NOT ADD SLT PUSH2 0x39F JUMPI PUSH1 0x4 CALLDATALOAD PUSH1 0x1 PUSH1 0x1 PUSH1 0xA0 SHL SUB DUP2 AND SWAP1 DUP2 DUP2 SUB PUSH2 0x39D JUMPI PUSH1 0x24 CALLDATALOAD PUSH1 0x1 PUSH1 0x1 PUSH1 0x40 SHL SUB DUP2 GT PUSH2 0x399 JUMPI DUP1 PUSH1 0x4 ADD SWAP2 PUSH2 0x160 PUSH1 0x3 NOT DUP4 CALLDATASIZE SUB ADD SLT PUSH2 0x395 JUMPI PUSH2 0xD1 DUP4 SWAP2 PUSH2 0xC3 PUSH1 0x40 MLOAD SWAP4 DUP5 SWAP3 PUSH4 0x76708603 PUSH1 0xE1 SHL PUSH1 0x20 DUP6 ADD MSTORE PUSH1 0x24 DUP5 ADD PUSH2 0x643 JUMP JUMPDEST SUB PUSH1 0x1F NOT DUP2 ADD DUP4 MSTORE DUP3 PUSH2 0x73B JUMP JUMPDEST PUSH2 0xDD DUP6 SLOAD SWAP2 CALLER PUSH2 0x10C9 JUMP JUMPDEST SUB PUSH2 0x386 JUMPI PUSH2 0xF0 PUSH2 0x124 DUP3 ADD DUP4 PUSH2 0x86A JUMP JUMPDEST PUSH1 0x40 MLOAD PUSH4 0x1CEA46B7 PUSH1 0xE3 SHL DUP2 MSTORE PUSH2 0x144 DUP5 ADD CALLDATALOAD SWAP3 SWAP2 SWAP1 PUSH1 0x20 DUP2 PUSH1 0x4 DUP2 DUP11 GAS STATICCALL DUP1 ISZERO PUSH2 0x37B JUMPI DUP9 SWAP1 PUSH2 0x343 JUMPI JUMPDEST PUSH2 0x129 SWAP2 POP DUP5 DUP4 DUP6 PUSH2 0x10FC JUMP JUMPDEST PUSH1 0x40 MLOAD SWAP1 PUSH1 0x20 DUP3 ADD ADDRESS DUP2 MSTORE DUP9 PUSH1 0x40 DUP5 ADD MSTORE PUSH1 0x1 PUSH1 0xF8 SHL PUSH1 0x60 DUP5 ADD MSTORE PUSH1 0x41 DUP4 MSTORE PUSH2 0x153 PUSH1 0x61 DUP5 PUSH2 0x73B JUMP JUMPDEST PUSH1 0x41 DUP6 MUL SWAP5 DUP1 DUP7 DIV PUSH1 0x41 EQ SWAP1 ISZERO OR ISZERO PUSH2 0x32F JUMPI DUP2 DUP6 GT PUSH2 0x32B JUMPI DUP9 PUSH2 0x1BD SWAP6 SWAP7 SWAP8 SWAP9 SWAP10 POP POP PUSH1 0x20 DUP7 DUP1 DUP7 ADD SWAP4 SUB SWAP4 DUP5 SWAP3 PUSH2 0x1A5 DUP10 PUSH1 0x40 MLOAD SWAP11 DUP12 SWAP10 DUP7 DUP12 ADD CALLDATACOPY DUP9 ADD SWAP2 DUP5 DUP4 ADD SWAP4 PUSH1 0x0 DUP6 MSTORE MLOAD SWAP4 DUP5 SWAP2 PUSH2 0x993 JUMP JUMPDEST ADD ADD SWAP2 DUP3 CALLDATACOPY ADD PUSH1 0x0 DUP2 MSTORE SUB PUSH1 0x1F NOT DUP2 ADD DUP4 MSTORE DUP3 PUSH2 0x73B JUMP JUMPDEST PUSH2 0x1C6 DUP4 PUSH2 0x97F JUMP JUMPDEST PUSH2 0x1D3 PUSH1 0x44 DUP5 ADD DUP6 PUSH2 0x86A JUMP JUMPDEST SWAP2 SWAP1 SWAP4 PUSH1 0x64 DUP2 ADD CALLDATALOAD PUSH1 0x2 DUP2 LT ISZERO PUSH2 0x326 JUMPI PUSH2 0x1F0 PUSH1 0xE4 DUP4 ADD PUSH2 0x97F JUMP JUMPDEST SWAP5 PUSH2 0x104 DUP4 ADD CALLDATALOAD PUSH1 0x1 PUSH1 0x1 PUSH1 0xA0 SHL SUB DUP2 AND SWAP1 DUP2 SWAP1 SUB PUSH2 0x326 JUMPI PUSH1 0x20 SWAP7 PUSH1 0xC4 PUSH2 0x2A0 SWAP6 PUSH2 0x25F PUSH2 0x254 PUSH1 0x40 MLOAD SWAP13 DUP14 SWAP12 DUP13 SWAP12 PUSH4 0x353B0901 PUSH1 0xE1 SHL DUP14 MSTORE PUSH1 0x1 DUP1 PUSH1 0xA0 SHL SUB AND PUSH1 0x4 DUP14 ADD MSTORE PUSH1 0x24 DUP6 ADD CALLDATALOAD PUSH1 0x24 DUP14 ADD MSTORE PUSH2 0x140 PUSH1 0x44 DUP14 ADD MSTORE PUSH2 0x144 DUP13 ADD SWAP2 PUSH2 0x5FF JUMP JUMPDEST SWAP7 PUSH1 0x64 DUP11 ADD SWAP1 PUSH2 0x620 JUMP JUMPDEST PUSH1 0x84 DUP2 DUP2 ADD CALLDATALOAD SWAP1 DUP10 ADD MSTORE PUSH1 0xA4 DUP1 DUP3 ADD CALLDATALOAD SWAP1 DUP10 ADD MSTORE ADD CALLDATALOAD PUSH1 0xC4 DUP8 ADD MSTORE PUSH1 0x1 PUSH1 0x1 PUSH1 0xA0 SHL SUB AND PUSH1 0xE4 DUP7 ADD MSTORE PUSH2 0x104 DUP6 ADD MSTORE DUP4 DUP3 SUB PUSH1 0x3 NOT ADD PUSH2 0x124 DUP6 ADD MSTORE PUSH2 0xA2A JUMP JUMPDEST SUB DUP2 PUSH1 0x0 DUP8 GAS CALL SWAP1 DUP2 ISZERO PUSH2 0x31A JUMPI PUSH1 0x0 SWAP2 PUSH2 0x2EB JUMPI JUMPDEST POP ISZERO PUSH2 0x2BE JUMPI STOP JUMPDEST PUSH2 0x2C7 SWAP1 PUSH2 0x97F JUMP JUMPDEST PUSH4 0x71995C9D PUSH1 0xE1 SHL PUSH1 0x0 SWAP1 DUP2 MSTORE PUSH1 0x4 SWAP3 SWAP1 SWAP3 MSTORE PUSH1 0x1 PUSH1 0x1 PUSH1 0xA0 SHL SUB AND PUSH1 0x24 MSTORE PUSH1 0x44 SWAP1 REVERT JUMPDEST PUSH2 0x30D SWAP2 POP PUSH1 0x20 RETURNDATASIZE PUSH1 0x20 GT PUSH2 0x313 JUMPI JUMPDEST PUSH2 0x305 DUP2 DUP4 PUSH2 0x73B JUMP JUMPDEST DUP2 ADD SWAP1 PUSH2 0x772 JUMP JUMPDEST CODESIZE PUSH2 0x2B6 JUMP JUMPDEST POP RETURNDATASIZE PUSH2 0x2FB JUMP JUMPDEST PUSH1 0x40 MLOAD RETURNDATASIZE PUSH1 0x0 DUP3 RETURNDATACOPY RETURNDATASIZE SWAP1 REVERT JUMPDEST PUSH1 0x0 DUP1 REVERT JUMPDEST DUP9 DUP1 REVERT JUMPDEST PUSH4 0x4E487B71 PUSH1 0xE0 SHL DUP10 MSTORE PUSH1 0x11 PUSH1 0x4 MSTORE PUSH1 0x24 DUP10 REVERT JUMPDEST POP PUSH1 0x20 DUP2 RETURNDATASIZE PUSH1 0x20 GT PUSH2 0x373 JUMPI JUMPDEST DUP2 PUSH2 0x35D PUSH1 0x20 SWAP4 DUP4 PUSH2 0x73B JUMP JUMPDEST DUP2 ADD SUB SLT PUSH2 0x36F JUMPI PUSH2 0x129 SWAP1 MLOAD PUSH2 0x11C JUMP JUMPDEST DUP8 DUP1 REVERT JUMPDEST RETURNDATASIZE SWAP2 POP PUSH2 0x350 JUMP JUMPDEST PUSH1 0x40 MLOAD RETURNDATASIZE DUP11 DUP3 RETURNDATACOPY RETURNDATASIZE SWAP1 REVERT JUMPDEST PUSH4 0xF8FFBE2F PUSH1 0xE0 SHL DUP5 MSTORE PUSH1 0x4 DUP5 REVERT JUMPDEST DUP5 DUP1 REVERT JUMPDEST DUP4 DUP1 REVERT JUMPDEST DUP3 JUMPDEST DUP1 REVERT JUMPDEST POP CALLVALUE PUSH2 0x39F JUMPI PUSH2 0x3CF PUSH2 0x3B4 CALLDATASIZE PUSH2 0x550 JUMP JUMPDEST SWAP4 PUSH2 0x3C0 DUP5 SWAP3 SWAP5 PUSH2 0x78A JUMP JUMPDEST PUSH2 0x3CA DUP6 DUP4 PUSH2 0x89C JUMP JUMPDEST PUSH2 0xFA2 JUMP JUMPDEST DUP1 RETURN JUMPDEST POP CALLVALUE PUSH2 0x39F JUMPI PUSH2 0x3CF PUSH2 0x3E4 CALLDATASIZE PUSH2 0x550 JUMP JUMPDEST SWAP4 PUSH2 0x3F0 DUP5 SWAP3 SWAP5 PUSH2 0x78A JUMP JUMPDEST PUSH2 0x3FA DUP6 DUP4 PUSH2 0x89C JUMP JUMPDEST PUSH2 0x1059 JUMP JUMPDEST POP CALLVALUE PUSH2 0x39F JUMPI PUSH2 0x3CF PUSH2 0x3FA PUSH2 0x414 CALLDATASIZE PUSH2 0x48D JUMP JUMPDEST SWAP7 SWAP2 DUP2 SWAP7 SWAP4 DUP7 SWAP6 PUSH2 0x425 DUP4 SWAP9 PUSH2 0x78A JUMP JUMPDEST PUSH2 0x42F DUP11 DUP9 PUSH2 0x89C JUMP JUMPDEST PUSH2 0xA4F JUMP JUMPDEST POP CALLVALUE PUSH2 0x39F JUMPI PUSH2 0x3CF PUSH2 0x3CA PUSH2 0x414 CALLDATASIZE PUSH2 0x48D JUMP JUMPDEST CALLDATALOAD SWAP1 PUSH1 0x1 PUSH1 0x1 PUSH1 0xA0 SHL SUB DUP3 AND DUP3 SUB PUSH2 0x326 JUMPI JUMP JUMPDEST SWAP2 DUP2 PUSH1 0x1F DUP5 ADD SLT ISZERO PUSH2 0x326 JUMPI DUP3 CALLDATALOAD SWAP2 PUSH1 0x1 PUSH1 0x1 PUSH1 0x40 SHL SUB DUP4 GT PUSH2 0x326 JUMPI PUSH1 0x20 DUP1 DUP6 ADD SWAP5 PUSH1 0x60 DUP6 MUL ADD ADD GT PUSH2 0x326 JUMPI JUMP JUMPDEST PUSH1 0xA0 PUSH1 0x3 NOT DUP3 ADD SLT PUSH2 0x326 JUMPI PUSH1 0x4 CALLDATALOAD PUSH1 0x1 PUSH1 0x1 PUSH1 0xA0 SHL SUB DUP2 AND DUP2 SUB PUSH2 0x326 JUMPI SWAP2 PUSH1 0x24 CALLDATALOAD PUSH1 0x1 PUSH1 0x1 PUSH1 0xA0 SHL SUB DUP2 AND DUP2 SUB PUSH2 0x326 JUMPI SWAP2 PUSH1 0x44 CALLDATALOAD SWAP2 PUSH1 0x1 PUSH1 0x1 PUSH1 0x40 SHL SUB DUP4 GT PUSH2 0x326 JUMPI DUP2 PUSH1 0x23 DUP5 ADD SLT ISZERO PUSH2 0x326 JUMPI DUP3 PUSH1 0x4 ADD CALLDATALOAD SWAP3 PUSH1 0x1 PUSH1 0x1 PUSH1 0x40 SHL SUB DUP5 GT PUSH2 0x326 JUMPI DUP3 PUSH1 0x24 DUP6 PUSH1 0x5 SHL DUP4 ADD ADD GT PUSH2 0x326 JUMPI PUSH1 0x24 ADD SWAP3 SWAP2 PUSH1 0x64 CALLDATALOAD PUSH1 0x1 PUSH1 0x1 PUSH1 0x40 SHL SUB DUP2 GT PUSH2 0x326 JUMPI DUP2 PUSH2 0x524 SWAP2 PUSH1 0x4 ADD PUSH2 0x45D JUMP JUMPDEST SWAP3 SWAP1 SWAP3 SWAP2 PUSH1 0x84 CALLDATALOAD SWAP1 PUSH1 0x1 PUSH1 0x1 PUSH1 0x40 SHL SUB DUP3 GT PUSH2 0x326 JUMPI PUSH2 0x160 SWAP1 DUP3 SWAP1 SUB PUSH1 0x3 NOT ADD SLT PUSH2 0x326 JUMPI PUSH1 0x4 ADD SWAP1 JUMP JUMPDEST PUSH1 0x80 PUSH1 0x3 NOT DUP3 ADD SLT PUSH2 0x326 JUMPI PUSH1 0x4 CALLDATALOAD PUSH1 0x1 PUSH1 0x1 PUSH1 0xA0 SHL SUB DUP2 AND DUP2 SUB PUSH2 0x326 JUMPI SWAP2 PUSH1 0x24 CALLDATALOAD PUSH1 0x1 PUSH1 0x1 PUSH1 0xA0 SHL SUB DUP2 AND DUP2 SUB PUSH2 0x326 JUMPI SWAP2 PUSH1 0x44 CALLDATALOAD PUSH1 0x1 PUSH1 0x1 PUSH1 0x40 SHL SUB DUP2 GT PUSH2 0x326 JUMPI DUP2 PUSH2 0x5A2 SWAP2 PUSH1 0x4 ADD PUSH2 0x45D JUMP JUMPDEST SWAP3 SWAP1 SWAP3 SWAP2 PUSH1 0x64 CALLDATALOAD SWAP1 PUSH1 0x1 PUSH1 0x1 PUSH1 0x40 SHL SUB DUP3 GT PUSH2 0x326 JUMPI PUSH2 0x160 SWAP1 DUP3 SWAP1 SUB PUSH1 0x3 NOT ADD SLT PUSH2 0x326 JUMPI PUSH1 0x4 ADD SWAP1 JUMP JUMPDEST SWAP1 CALLDATALOAD PUSH1 0x1E NOT DUP3 CALLDATASIZE SUB ADD DUP2 SLT ISZERO PUSH2 0x326 JUMPI ADD PUSH1 0x20 DUP2 CALLDATALOAD SWAP2 ADD SWAP2 PUSH1 0x1 PUSH1 0x1 PUSH1 0x40 SHL SUB DUP3 GT PUSH2 0x326 JUMPI DUP2 CALLDATASIZE SUB DUP4 SGT PUSH2 0x326 JUMPI JUMP JUMPDEST SWAP1 DUP1 PUSH1 0x20 SWAP4 SWAP3 DUP2 DUP5 MSTORE DUP5 DUP5 ADD CALLDATACOPY PUSH1 0x0 DUP3 DUP3 ADD DUP5 ADD MSTORE PUSH1 0x1F ADD PUSH1 0x1F NOT AND ADD ADD SWAP1 JUMP JUMPDEST SWAP1 PUSH1 0x2 DUP3 LT ISZERO PUSH2 0x62D JUMPI MSTORE JUMP JUMPDEST PUSH4 0x4E487B71 PUSH1 0xE0 SHL PUSH1 0x0 MSTORE PUSH1 0x21 PUSH1 0x4 MSTORE PUSH1 0x24 PUSH1 0x0 REVERT JUMPDEST PUSH1 0x1 PUSH1 0x1 PUSH1 0xA0 SHL SUB SWAP2 DUP3 AND DUP2 MSTORE PUSH1 0x40 PUSH1 0x20 DUP3 ADD MSTORE SWAP1 PUSH2 0x661 DUP4 PUSH2 0x449 JUMP JUMPDEST AND PUSH1 0x40 DUP3 ADD MSTORE PUSH1 0x20 DUP3 ADD CALLDATALOAD PUSH1 0x60 DUP3 ADD MSTORE PUSH2 0x694 PUSH2 0x681 PUSH1 0x40 DUP5 ADD DUP5 PUSH2 0x5CE JUMP JUMPDEST PUSH2 0x160 PUSH1 0x80 DUP6 ADD MSTORE PUSH2 0x1A0 DUP5 ADD SWAP2 PUSH2 0x5FF JUMP JUMPDEST PUSH1 0x60 DUP4 ADD CALLDATALOAD PUSH1 0x2 DUP2 LT ISZERO PUSH2 0x326 JUMPI PUSH2 0x6B0 SWAP1 PUSH1 0xA0 DUP5 ADD SWAP1 PUSH2 0x620 JUMP JUMPDEST PUSH1 0x80 DUP4 ADD CALLDATALOAD PUSH1 0xC0 DUP4 ADD MSTORE PUSH1 0xA0 DUP4 ADD CALLDATALOAD PUSH1 0xE0 DUP4 ADD MSTORE PUSH1 0xC0 DUP4 ADD CALLDATALOAD PUSH2 0x100 DUP4 ADD MSTORE PUSH1 0x1 DUP1 PUSH1 0xA0 SHL SUB PUSH2 0x6E2 PUSH1 0xE0 DUP6 ADD PUSH2 0x449 JUMP JUMPDEST AND PUSH2 0x120 DUP4 ADD MSTORE PUSH2 0x100 DUP4 ADD CALLDATALOAD PUSH1 0x1 PUSH1 0x1 PUSH1 0xA0 SHL SUB DUP2 AND SWAP2 SWAP1 DUP3 SWAP1 SUB PUSH2 0x326 JUMPI PUSH2 0x732 PUSH2 0x140 SWAP2 PUSH2 0x180 SWAP4 DUP4 DUP7 ADD MSTORE PUSH2 0x71F PUSH2 0x120 DUP8 ADD DUP8 PUSH2 0x5CE JUMP JUMPDEST DUP7 DUP4 SUB PUSH1 0x3F NOT ADD PUSH2 0x160 DUP9 ADD MSTORE SWAP1 PUSH2 0x5FF JUMP JUMPDEST SWAP4 ADD CALLDATALOAD SWAP2 ADD MSTORE SWAP1 JUMP JUMPDEST SWAP1 PUSH1 0x1F DUP1 NOT SWAP2 ADD AND DUP2 ADD SWAP1 DUP2 LT PUSH1 0x1 PUSH1 0x1 PUSH1 0x40 SHL SUB DUP3 GT OR PUSH2 0x75C JUMPI PUSH1 0x40 MSTORE JUMP JUMPDEST PUSH4 0x4E487B71 PUSH1 0xE0 SHL PUSH1 0x0 MSTORE PUSH1 0x41 PUSH1 0x4 MSTORE PUSH1 0x24 PUSH1 0x0 REVERT JUMPDEST SWAP1 DUP2 PUSH1 0x20 SWAP2 SUB SLT PUSH2 0x326 JUMPI MLOAD DUP1 ISZERO ISZERO DUP2 SUB PUSH2 0x326 JUMPI SWAP1 JUMP JUMPDEST PUSH1 0x40 MLOAD PUSH4 0x17AA5FB7 PUSH1 0xE1 SHL DUP2 MSTORE CALLER PUSH1 0x4 DUP3 ADD MSTORE PUSH1 0x1 PUSH1 0x1 PUSH1 0xA0 SHL SUB SWAP2 SWAP1 SWAP2 AND SWAP1 PUSH1 0x20 DUP2 PUSH1 0x24 DUP2 DUP6 GAS STATICCALL SWAP1 DUP2 ISZERO PUSH2 0x31A JUMPI PUSH1 0x0 SWAP2 PUSH2 0x84B JUMPI JUMPDEST POP ISZERO PUSH2 0x833 JUMPI PUSH1 0x40 MLOAD PUSH4 0x17AA5FB7 PUSH1 0xE1 SHL DUP2 MSTORE ADDRESS PUSH1 0x4 DUP3 ADD MSTORE PUSH1 0x20 DUP2 PUSH1 0x24 DUP2 DUP6 GAS STATICCALL SWAP1 DUP2 ISZERO PUSH2 0x31A JUMPI PUSH1 0x0 SWAP2 PUSH2 0x814 JUMPI JUMPDEST POP ISZERO PUSH2 0x7FC JUMPI POP JUMP JUMPDEST PUSH4 0x663CD0C5 PUSH1 0xE1 SHL PUSH1 0x0 MSTORE ADDRESS PUSH1 0x4 MSTORE PUSH1 0x24 MSTORE PUSH1 0x44 PUSH1 0x0 REVERT JUMPDEST PUSH2 0x82D SWAP2 POP PUSH1 0x20 RETURNDATASIZE PUSH1 0x20 GT PUSH2 0x313 JUMPI PUSH2 0x305 DUP2 DUP4 PUSH2 0x73B JUMP JUMPDEST CODESIZE PUSH2 0x7F3 JUMP JUMPDEST PUSH4 0x44513171 PUSH1 0xE1 SHL PUSH1 0x0 MSTORE CALLER PUSH1 0x4 MSTORE PUSH1 0x24 MSTORE PUSH1 0x44 PUSH1 0x0 REVERT JUMPDEST PUSH2 0x864 SWAP2 POP PUSH1 0x20 RETURNDATASIZE PUSH1 0x20 GT PUSH2 0x313 JUMPI PUSH2 0x305 DUP2 DUP4 PUSH2 0x73B JUMP JUMPDEST CODESIZE PUSH2 0x7C2 JUMP JUMPDEST SWAP1 CALLDATALOAD SWAP1 PUSH1 0x1E NOT DUP2 CALLDATASIZE SUB ADD DUP3 SLT ISZERO PUSH2 0x326 JUMPI ADD DUP1 CALLDATALOAD SWAP1 PUSH1 0x1 PUSH1 0x1 PUSH1 0x40 SHL SUB DUP3 GT PUSH2 0x326 JUMPI PUSH1 0x20 ADD SWAP2 DUP2 CALLDATASIZE SUB DUP4 SGT PUSH2 0x326 JUMPI JUMP JUMPDEST PUSH1 0x60 DUP3 ADD CALLDATALOAD PUSH1 0x2 DUP2 LT DUP1 ISZERO PUSH2 0x326 JUMPI DUP2 PUSH2 0x940 JUMPI POP POP PUSH1 0x4 SWAP1 PUSH1 0x20 PUSH2 0x8C5 PUSH2 0x120 DUP6 ADD DUP6 PUSH2 0x86A JUMP JUMPDEST PUSH1 0x40 MLOAD PUSH4 0x1CEA46B7 PUSH1 0xE3 SHL DUP2 MSTORE SWAP5 SWAP2 SWAP4 SWAP1 SWAP3 SWAP2 DUP6 SWAP2 DUP3 SWAP1 PUSH1 0x1 PUSH1 0x1 PUSH1 0xA0 SHL SUB AND GAS STATICCALL SWAP3 DUP4 ISZERO PUSH2 0x31A JUMPI PUSH1 0x0 SWAP4 PUSH2 0x908 JUMPI JUMPDEST POP PUSH2 0x140 PUSH2 0x906 SWAP5 ADD CALLDATALOAD SWAP2 PUSH2 0x10FC JUMP JUMPDEST JUMP JUMPDEST SWAP4 SWAP3 POP PUSH1 0x20 DUP5 RETURNDATASIZE PUSH1 0x20 GT PUSH2 0x938 JUMPI JUMPDEST DUP2 PUSH2 0x924 PUSH1 0x20 SWAP4 DUP4 PUSH2 0x73B JUMP JUMPDEST DUP2 ADD SUB SLT PUSH2 0x326 JUMPI SWAP3 MLOAD SWAP2 SWAP3 PUSH2 0x140 PUSH2 0x8F6 JUMP JUMPDEST RETURNDATASIZE SWAP2 POP PUSH2 0x917 JUMP JUMPDEST PUSH4 0xB284B01B PUSH1 0xE0 SHL PUSH1 0x0 MSTORE ISZERO PUSH2 0x62D JUMPI PUSH1 0x4 MSTORE PUSH1 0x24 PUSH1 0x0 REVERT JUMPDEST SWAP2 SWAP1 DUP2 LT ISZERO PUSH2 0x969 JUMPI PUSH1 0x60 MUL ADD SWAP1 JUMP JUMPDEST PUSH4 0x4E487B71 PUSH1 0xE0 SHL PUSH1 0x0 MSTORE PUSH1 0x32 PUSH1 0x4 MSTORE PUSH1 0x24 PUSH1 0x0 REVERT JUMPDEST CALLDATALOAD PUSH1 0x1 PUSH1 0x1 PUSH1 0xA0 SHL SUB DUP2 AND DUP2 SUB PUSH2 0x326 JUMPI SWAP1 JUMP JUMPDEST PUSH1 0x0 JUMPDEST DUP4 DUP2 LT PUSH2 0x9A6 JUMPI POP POP PUSH1 0x0 SWAP2 ADD MSTORE JUMP JUMPDEST DUP2 DUP2 ADD MLOAD DUP4 DUP3 ADD MSTORE PUSH1 0x20 ADD PUSH2 0x996 JUMP JUMPDEST SWAP1 SWAP3 SWAP2 SWAP3 PUSH1 0x1 PUSH1 0x1 PUSH1 0x40 SHL SUB DUP2 GT PUSH2 0x75C JUMPI PUSH1 0x40 MLOAD SWAP2 PUSH2 0x9E0 PUSH1 0x1F DUP4 ADD PUSH1 0x1F NOT AND PUSH1 0x20 ADD DUP5 PUSH2 0x73B JUMP JUMPDEST DUP3 SWAP5 DUP3 DUP5 MSTORE DUP3 DUP3 ADD GT PUSH2 0x326 JUMPI PUSH1 0x20 PUSH2 0x906 SWAP4 ADD SWAP1 PUSH2 0x993 JUMP JUMPDEST SWAP2 SWAP1 DUP2 LT ISZERO PUSH2 0x969 JUMPI PUSH1 0x5 SHL DUP2 ADD CALLDATALOAD SWAP1 PUSH1 0x3E NOT DUP2 CALLDATASIZE SUB ADD DUP3 SLT ISZERO PUSH2 0x326 JUMPI ADD SWAP1 JUMP JUMPDEST CALLDATALOAD PUSH1 0xFF DUP2 AND DUP2 SUB PUSH2 0x326 JUMPI SWAP1 JUMP JUMPDEST SWAP1 PUSH1 0x20 SWAP2 PUSH2 0xA43 DUP2 MLOAD DUP1 SWAP3 DUP2 DUP6 MSTORE DUP6 DUP1 DUP7 ADD SWAP2 ADD PUSH2 0x993 JUMP JUMPDEST PUSH1 0x1F ADD PUSH1 0x1F NOT AND ADD ADD SWAP1 JUMP JUMPDEST SWAP2 SWAP1 SWAP2 DUP4 DUP4 SUB PUSH2 0xD15 JUMPI PUSH1 0x0 JUMPDEST DUP4 DUP2 LT PUSH2 0xA6A JUMPI POP POP POP POP POP JUMP JUMPDEST PUSH1 0x0 PUSH1 0x1 PUSH1 0x1 PUSH1 0xA0 SHL SUB PUSH2 0xA8A PUSH1 0x20 PUSH2 0xA84 DUP6 DUP11 DUP10 PUSH2 0x959 JUMP JUMPDEST ADD PUSH2 0x97F JUMP JUMPDEST AND PUSH2 0xBF1 JUMPI POP PUSH1 0x40 PUSH2 0xA9E DUP2 MLOAD SWAP2 DUP3 PUSH2 0x73B JUMP JUMPDEST PUSH1 0x3 DUP2 MSTORE PUSH3 0x8AA89 PUSH1 0xEB SHL PUSH1 0x20 DUP3 ADD MSTORE PUSH1 0x12 SWAP1 JUMPDEST PUSH1 0x40 MLOAD PUSH1 0x20 DUP2 ADD SWAP1 PUSH2 0xAE0 PUSH1 0x20 DUP3 DUP6 MLOAD PUSH2 0xACF DUP2 DUP8 DUP6 DUP11 ADD PUSH2 0x993 JUMP JUMPDEST DUP2 ADD SUB ADD PUSH1 0x1F NOT DUP2 ADD DUP4 MSTORE DUP3 PUSH2 0x73B JUMP JUMPDEST MLOAD SWAP1 KECCAK256 PUSH2 0xAF7 PUSH2 0xAF1 DUP6 DUP10 DUP9 PUSH2 0x9FA JUMP JUMPDEST DUP1 PUSH2 0x86A JUMP JUMPDEST PUSH2 0xB1F PUSH1 0x20 PUSH1 0x40 MLOAD DUP4 DUP2 SWAP5 DUP4 DUP4 ADD SWAP7 DUP8 CALLDATACOPY DUP2 ADD PUSH1 0x0 DUP4 DUP3 ADD MSTORE SUB ADD PUSH1 0x1F NOT DUP2 ADD DUP4 MSTORE DUP3 PUSH2 0x73B JUMP JUMPDEST MLOAD SWAP1 KECCAK256 EQ DUP1 ISZERO SWAP1 PUSH2 0xBD2 JUMPI JUMPDEST PUSH2 0xB39 JUMPI POP POP PUSH1 0x1 ADD PUSH2 0xA5C JUMP JUMPDEST PUSH1 0xFF PUSH2 0xBAF PUSH2 0xB7B PUSH1 0x20 PUSH2 0xB75 DUP8 PUSH2 0xB6D PUSH2 0xAF1 DUP3 DUP15 SWAP16 DUP7 DUP11 SWAP15 SWAP13 SWAP16 PUSH2 0xBC7 SWAP15 PUSH2 0xB66 SWAP4 PUSH2 0xA84 SWAP3 PUSH2 0x959 JUMP JUMPDEST SWAP15 DUP12 PUSH2 0x9FA JUMP JUMPDEST SWAP14 SWAP1 SWAP9 PUSH2 0x9FA JUMP JUMPDEST ADD PUSH2 0xA1C JUMP JUMPDEST PUSH1 0x40 MLOAD PUSH4 0x55918519 PUSH1 0xE0 SHL DUP2 MSTORE PUSH1 0x1 PUSH1 0x1 PUSH1 0xA0 SHL SUB SWAP1 SWAP10 AND PUSH1 0x4 DUP11 ADD MSTORE PUSH1 0xA0 PUSH1 0x24 DUP11 ADD MSTORE SWAP8 SWAP9 DUP10 SWAP9 SWAP5 PUSH1 0xA4 DUP11 ADD SWAP2 SWAP1 PUSH2 0x5FF JUMP JUMPDEST SWAP3 AND PUSH1 0x44 DUP8 ADD MSTORE DUP6 DUP3 SUB PUSH1 0x3 NOT ADD PUSH1 0x64 DUP8 ADD MSTORE PUSH2 0xA2A JUMP JUMPDEST SWAP2 AND PUSH1 0x84 DUP4 ADD MSTORE SUB SWAP1 REVERT JUMPDEST POP PUSH1 0xFF PUSH2 0xBE5 PUSH1 0x20 PUSH2 0xB75 DUP7 DUP11 DUP10 PUSH2 0x9FA JUMP JUMPDEST AND PUSH1 0xFF DUP4 AND EQ ISZERO PUSH2 0xB2B JUMP JUMPDEST PUSH1 0x4 DUP2 PUSH1 0x1 PUSH1 0x1 PUSH1 0xA0 SHL SUB PUSH2 0xC0C PUSH1 0x20 PUSH2 0xA84 DUP8 DUP13 DUP12 PUSH2 0x959 JUMP JUMPDEST AND PUSH1 0x40 MLOAD SWAP3 DUP4 DUP1 SWAP3 PUSH4 0x95D89B41 PUSH1 0xE0 SHL DUP3 MSTORE GAS STATICCALL SWAP2 DUP3 ISZERO PUSH2 0xD09 JUMPI DUP1 SWAP3 PUSH2 0xCB5 JUMPI JUMPDEST POP PUSH1 0x4 SWAP1 POP PUSH1 0x20 PUSH1 0x1 PUSH1 0x1 PUSH1 0xA0 SHL SUB PUSH2 0xC4C DUP3 PUSH2 0xA84 DUP8 DUP13 DUP12 PUSH2 0x959 JUMP JUMPDEST AND PUSH1 0x40 MLOAD SWAP3 DUP4 DUP1 SWAP3 PUSH4 0x313CE567 PUSH1 0xE0 SHL DUP3 MSTORE GAS STATICCALL SWAP1 DUP2 ISZERO PUSH2 0x31A JUMPI PUSH1 0x0 SWAP2 PUSH2 0xC76 JUMPI JUMPDEST POP SWAP1 PUSH2 0xAB2 JUMP JUMPDEST PUSH1 0x20 DUP2 RETURNDATASIZE DUP3 GT PUSH2 0xCAD JUMPI JUMPDEST DUP2 PUSH2 0xC8E PUSH1 0x20 SWAP4 DUP4 PUSH2 0x73B JUMP JUMPDEST DUP2 ADD SUB SLT PUSH2 0xCA9 JUMPI MLOAD SWAP1 PUSH1 0xFF DUP3 AND DUP3 SUB PUSH2 0x39F JUMPI POP CODESIZE PUSH2 0xC6F JUMP JUMPDEST POP DUP1 REVERT JUMPDEST RETURNDATASIZE SWAP2 POP PUSH2 0xC81 JUMP JUMPDEST SWAP1 SWAP2 POP RETURNDATASIZE DUP1 DUP3 DUP5 RETURNDATACOPY PUSH2 0xCC7 DUP2 DUP5 PUSH2 0x73B JUMP JUMPDEST DUP3 ADD SWAP2 PUSH1 0x20 DUP2 DUP5 SUB SLT PUSH2 0xCA9 JUMPI DUP1 MLOAD SWAP1 PUSH1 0x1 PUSH1 0x1 PUSH1 0x40 SHL SUB DUP3 GT PUSH2 0x39D JUMPI ADD SWAP1 DUP3 PUSH1 0x1F DUP4 ADD SLT ISZERO PUSH2 0x39F JUMPI POP DUP1 MLOAD PUSH2 0xD02 SWAP3 SWAP2 PUSH1 0x20 ADD PUSH2 0x9B6 JUMP JUMPDEST CODESIZE DUP1 PUSH2 0xC2E JUMP JUMPDEST PUSH1 0x40 MLOAD SWAP1 RETURNDATASIZE SWAP1 DUP3 RETURNDATACOPY RETURNDATASIZE SWAP1 REVERT JUMPDEST POP POP PUSH4 0xA7DF64D PUSH1 0xE4 SHL PUSH1 0x0 MSTORE PUSH1 0x4 MSTORE PUSH1 0x24 MSTORE PUSH1 0x44 PUSH1 0x0 REVERT JUMPDEST PUSH1 0x40 MLOAD SWAP1 PUSH1 0x60 DUP3 ADD DUP3 DUP2 LT PUSH1 0x1 PUSH1 0x1 PUSH1 0x40 SHL SUB DUP3 GT OR PUSH2 0x75C JUMPI PUSH1 0x40 MSTORE PUSH1 0x0 PUSH1 0x40 DUP4 DUP3 DUP2 MSTORE DUP3 PUSH1 0x20 DUP3 ADD MSTORE ADD MSTORE JUMP JUMPDEST PUSH1 0x40 MLOAD SWAP1 PUSH2 0xD6C PUSH1 0x20 DUP4 PUSH2 0x73B JUMP JUMPDEST PUSH1 0x0 DUP1 DUP4 MSTORE DUP3 SWAP1 DUP1 JUMPDEST DUP2 DUP2 LT PUSH2 0xD81 JUMPI POP POP POP JUMP JUMPDEST PUSH1 0x40 MLOAD SWAP1 PUSH1 0x40 DUP3 ADD SWAP2 DUP1 DUP4 LT PUSH1 0x1 PUSH1 0x1 PUSH1 0x40 SHL SUB DUP5 GT OR PUSH2 0x75C JUMPI PUSH1 0x20 SWAP3 PUSH1 0x40 MSTORE PUSH2 0xDAA PUSH2 0xD2E JUMP JUMPDEST DUP2 MSTORE PUSH1 0x0 DUP4 DUP3 ADD MSTORE DUP3 DUP3 DUP7 ADD ADD MSTORE ADD PUSH2 0xD75 JUMP JUMPDEST PUSH1 0x40 MLOAD SWAP1 PUSH2 0xDCD PUSH1 0x20 DUP4 PUSH2 0x73B JUMP JUMPDEST PUSH1 0x0 DUP1 DUP4 MSTORE DUP3 DUP2 JUMPDEST DUP3 DUP2 LT PUSH2 0xDE1 JUMPI POP POP POP JUMP JUMPDEST PUSH1 0x20 SWAP1 PUSH2 0xDEC PUSH2 0xD2E JUMP JUMPDEST DUP3 DUP3 DUP6 ADD ADD MSTORE ADD PUSH2 0xDD5 JUMP JUMPDEST PUSH1 0x20 DUP2 DUP4 SUB SLT PUSH2 0x326 JUMPI DUP1 MLOAD SWAP1 PUSH1 0x1 PUSH1 0x1 PUSH1 0x40 SHL SUB DUP3 GT PUSH2 0x326 JUMPI ADD SWAP1 DUP1 PUSH1 0x1F DUP4 ADD SLT ISZERO PUSH2 0x326 JUMPI DUP2 MLOAD PUSH2 0xE2E SWAP3 PUSH1 0x20 ADD PUSH2 0x9B6 JUMP JUMPDEST SWAP1 JUMP JUMPDEST SWAP5 SWAP2 SWAP4 SWAP1 SWAP4 DUP1 PUSH1 0xA0 DUP8 ADD PUSH1 0xA0 DUP9 MSTORE MSTORE PUSH1 0xC0 DUP7 ADD SWAP5 SWAP1 PUSH1 0x0 JUMPDEST DUP2 DUP2 LT PUSH2 0xF54 JUMPI POP POP POP DUP5 DUP5 SUB PUSH1 0x20 DUP7 ADD MSTORE PUSH1 0x20 DUP1 DUP5 MLOAD SWAP6 DUP7 DUP2 MSTORE ADD SWAP4 ADD SWAP4 PUSH1 0x0 JUMPDEST DUP2 DUP2 LT PUSH2 0xEFE JUMPI POP POP PUSH1 0x1 PUSH1 0x1 PUSH1 0xA0 SHL SUB AND PUSH1 0x40 DUP6 ADD MSTORE DUP4 DUP3 SUB PUSH1 0x60 DUP6 ADD MSTORE PUSH2 0xE94 SWAP3 POP PUSH2 0xA2A JUMP JUMPDEST SWAP1 PUSH1 0x80 DUP2 DUP4 SUB SWAP2 ADD MSTORE PUSH1 0x20 DUP1 DUP4 MLOAD SWAP3 DUP4 DUP2 MSTORE ADD SWAP3 ADD SWAP1 PUSH1 0x0 JUMPDEST DUP2 DUP2 LT PUSH2 0xEBA JUMPI POP POP POP SWAP1 JUMP JUMPDEST SWAP1 SWAP2 SWAP3 PUSH1 0x20 PUSH1 0x60 DUP3 PUSH2 0xEF3 PUSH1 0x1 SWAP5 DUP9 MLOAD PUSH1 0x40 DUP1 SWAP2 PUSH1 0x1 DUP1 PUSH1 0xA0 SHL SUB DUP2 MLOAD AND DUP5 MSTORE PUSH1 0x1 DUP1 PUSH1 0xA0 SHL SUB PUSH1 0x20 DUP3 ADD MLOAD AND PUSH1 0x20 DUP6 ADD MSTORE ADD MLOAD SWAP2 ADD MSTORE JUMP JUMPDEST ADD SWAP5 ADD SWAP3 SWAP2 ADD PUSH2 0xEAD JUMP JUMPDEST SWAP1 SWAP2 SWAP3 SWAP4 PUSH1 0x20 PUSH1 0x80 PUSH1 0x1 SWAP3 DUP3 DUP10 MLOAD PUSH2 0xF3B DUP4 DUP3 MLOAD PUSH1 0x40 DUP1 SWAP2 PUSH1 0x1 DUP1 PUSH1 0xA0 SHL SUB DUP2 MLOAD AND DUP5 MSTORE PUSH1 0x1 DUP1 PUSH1 0xA0 SHL SUB PUSH1 0x20 DUP3 ADD MLOAD AND PUSH1 0x20 DUP6 ADD MSTORE ADD MLOAD SWAP2 ADD MSTORE JUMP JUMPDEST ADD MLOAD ISZERO ISZERO PUSH1 0x60 DUP3 ADD MSTORE ADD SWAP7 ADD SWAP2 ADD SWAP5 SWAP4 SWAP3 SWAP2 SWAP1 SWAP5 PUSH2 0xE6B JUMP JUMPDEST SWAP1 SWAP2 SWAP3 SWAP4 SWAP5 SWAP6 PUSH1 0x60 DUP1 PUSH1 0x1 SWAP3 DUP4 DUP1 PUSH1 0xA0 SHL SUB PUSH2 0xF6F DUP9 PUSH2 0x449 JUMP JUMPDEST AND DUP2 MSTORE DUP4 DUP1 PUSH1 0xA0 SHL SUB PUSH2 0xF84 PUSH1 0x20 DUP10 ADD PUSH2 0x449 JUMP JUMPDEST AND PUSH1 0x20 DUP3 ADD MSTORE PUSH1 0x40 DUP8 DUP2 ADD CALLDATALOAD SWAP1 DUP3 ADD MSTORE ADD SWAP8 SWAP7 SWAP6 SWAP5 ADD SWAP3 SWAP2 ADD PUSH2 0xE49 JUMP JUMPDEST PUSH2 0xFD6 PUSH1 0x0 SWAP5 SWAP3 PUSH2 0xFC8 PUSH1 0x40 MLOAD SWAP8 DUP9 SWAP3 PUSH4 0x76708603 PUSH1 0xE1 SHL PUSH1 0x20 DUP6 ADD MSTORE PUSH1 0x24 DUP5 ADD PUSH2 0x643 JUMP JUMPDEST SUB PUSH1 0x1F NOT DUP2 ADD DUP8 MSTORE DUP7 PUSH2 0x73B JUMP JUMPDEST PUSH1 0x1 PUSH1 0x1 PUSH1 0xA0 SHL SUB AND SWAP1 PUSH2 0xFEA DUP6 DUP4 PUSH2 0x10C9 JUMP JUMPDEST DUP5 SSTORE DUP4 PUSH2 0xFF5 PUSH2 0xD5D JUMP JUMPDEST SWAP2 PUSH2 0x1020 PUSH2 0x1001 PUSH2 0xDBE JUMP JUMPDEST PUSH1 0x40 MLOAD PUSH4 0xCE9506F9 PUSH1 0xE0 SHL DUP2 MSTORE SWAP9 DUP10 SWAP8 DUP9 SWAP7 DUP8 SWAP6 ADDRESS SWAP3 PUSH1 0x4 DUP9 ADD PUSH2 0xE31 JUMP JUMPDEST SUB SWAP3 GAS CALL DUP1 ISZERO PUSH2 0x31A JUMPI PUSH2 0x1036 JUMPI JUMPDEST POP PUSH1 0x0 DUP1 SSTORE JUMP JUMPDEST PUSH2 0x1052 SWAP1 RETURNDATASIZE DUP1 PUSH1 0x0 DUP4 RETURNDATACOPY PUSH2 0x104A DUP2 DUP4 PUSH2 0x73B JUMP JUMPDEST DUP2 ADD SWAP1 PUSH2 0xDF8 JUMP JUMPDEST POP CODESIZE PUSH2 0x102F JUMP JUMPDEST PUSH2 0x107F PUSH1 0x0 SWAP5 SWAP3 PUSH2 0xFC8 PUSH1 0x40 MLOAD SWAP8 DUP9 SWAP3 PUSH4 0x76708603 PUSH1 0xE1 SHL PUSH1 0x20 DUP6 ADD MSTORE PUSH1 0x24 DUP5 ADD PUSH2 0x643 JUMP JUMPDEST PUSH1 0x1 PUSH1 0x1 PUSH1 0xA0 SHL SUB AND SWAP1 PUSH2 0x1093 DUP6 DUP4 PUSH2 0x10C9 JUMP JUMPDEST DUP5 SSTORE DUP4 PUSH2 0x109E PUSH2 0xD5D JUMP JUMPDEST SWAP2 PUSH2 0x1020 PUSH2 0x10AA PUSH2 0xDBE JUMP JUMPDEST PUSH1 0x40 MLOAD PUSH4 0x890E3ADD PUSH1 0xE0 SHL DUP2 MSTORE SWAP9 DUP10 SWAP8 DUP9 SWAP7 DUP8 SWAP6 ADDRESS SWAP3 PUSH1 0x4 DUP9 ADD PUSH2 0xE31 JUMP JUMPDEST SWAP1 PUSH2 0x10F6 PUSH2 0xC3 SWAP2 PUSH1 0x40 MLOAD SWAP3 DUP4 SWAP2 PUSH1 0x20 DUP4 ADD SWAP6 PUSH1 0x1 DUP1 PUSH1 0xA0 SHL SUB AND DUP7 MSTORE PUSH1 0x40 DUP1 DUP5 ADD MSTORE PUSH1 0x60 DUP4 ADD SWAP1 PUSH2 0xA2A JUMP JUMPDEST MLOAD SWAP1 KECCAK256 SWAP1 JUMP JUMPDEST POP PUSH1 0x41 DUP2 MOD PUSH2 0x116C JUMPI PUSH1 0x41 SWAP1 DIV SWAP1 DUP2 DUP2 GT PUSH2 0x1155 JUMPI POP PUSH1 0x1 DUP2 ADD DUP1 SWAP2 GT PUSH2 0x113F JUMPI DUP2 DUP2 LT PUSH2 0x1128 JUMPI POP POP JUMP JUMPDEST PUSH4 0x3562C20F PUSH1 0xE1 SHL PUSH1 0x0 MSTORE PUSH1 0x4 MSTORE PUSH1 0x24 MSTORE PUSH1 0x44 PUSH1 0x0 REVERT JUMPDEST PUSH4 0x4E487B71 PUSH1 0xE0 SHL PUSH1 0x0 MSTORE PUSH1 0x11 PUSH1 0x4 MSTORE PUSH1 0x24 PUSH1 0x0 REVERT JUMPDEST PUSH4 0x6FE59B1D PUSH1 0xE1 SHL PUSH1 0x0 MSTORE PUSH1 0x4 MSTORE PUSH1 0x24 MSTORE PUSH1 0x44 PUSH1 0x0 REVERT JUMPDEST PUSH4 0x137B8C9 PUSH1 0xE2 SHL PUSH1 0x0 MSTORE PUSH1 0x4 MSTORE PUSH1 0x24 PUSH1 0x0 REVERT INVALID LOG2 PUSH5 0x6970667358 0x22 SLT KECCAK256 TIMESTAMP SWAP3 0xD8 0x2E 0xE9 0x27 PUSH0 0xA5 0xD0 0xCD PUSH4 0xCECCBC19 0xD 0xFC 0x1F PUSH6 0xDA7D8A6141C4 OR BYTE 0xD8 DUP15 0x2A DUP11 0xE1 PUSH5 0x736F6C6343 STOP ADDMOD SHL STOP CALLER "
        },
        "methodIdentifiers": {
          "executeSafeTransaction(address,(address,uint256,bytes,uint8,uint256,uint256,uint256,address,address,bytes,uint256))": "ece10c06",
          "safeExecuteWithDiffs(address,address,(address,address,int256)[],(address,uint256,bytes,uint8,uint256,uint256,uint256,address,address,bytes,uint256))": "d2d169fc",
          "safeExecuteWithDiffsMeta(address,address,(string,uint8)[],(address,address,int256)[],(address,uint256,bytes,uint8,uint256,uint256,uint256,address,address,bytes,uint256))": "87042af5",
          "safeExecuteWithPostBalances(address,address,(address,address,int256)[],(address,uint256,bytes,uint8,uint256,uint256,uint256,address,address,bytes,uint256))": "d86d2633",
          "safeExecuteWithPostBalancesMeta(address,address,(string,uint8)[],(address,address,int256)[],(address,uint256,bytes,uint8,uint256,uint256,uint256,address,address,bytes,uint256))": "21482d6b"
        }
      },
      "userdoc": {
        "kind": "user",
        "methods": {},
        "version": 1
      }
    }
  }
}